{
	"072StakingRewords.sol": {
		"StakingRewards": {
			"abi": [
				{
					"inputs": [
						{
							"internalType": "address",
							"name": "_stakingToken",
							"type": "address"
						},
						{
							"internalType": "address",
							"name": "_rewardsToken",
							"type": "address"
						}
					],
					"stateMutability": "nonpayable",
					"type": "constructor"
				},
				{
					"inputs": [
						{
							"internalType": "address",
							"name": "",
							"type": "address"
						}
					],
					"name": "balanceOf",
					"outputs": [
						{
							"internalType": "uint256",
							"name": "",
							"type": "uint256"
						}
					],
					"stateMutability": "view",
					"type": "function"
				},
				{
					"inputs": [],
					"name": "duration",
					"outputs": [
						{
							"internalType": "uint256",
							"name": "",
							"type": "uint256"
						}
					],
					"stateMutability": "view",
					"type": "function"
				},
				{
					"inputs": [
						{
							"internalType": "address",
							"name": "_account",
							"type": "address"
						}
					],
					"name": "earned",
					"outputs": [
						{
							"internalType": "uint256",
							"name": "amount",
							"type": "uint256"
						}
					],
					"stateMutability": "view",
					"type": "function"
				},
				{
					"inputs": [],
					"name": "finishedAt",
					"outputs": [
						{
							"internalType": "uint256",
							"name": "",
							"type": "uint256"
						}
					],
					"stateMutability": "view",
					"type": "function"
				},
				{
					"inputs": [],
					"name": "getReward",
					"outputs": [],
					"stateMutability": "nonpayable",
					"type": "function"
				},
				{
					"inputs": [],
					"name": "lastTimeRewardApplicable",
					"outputs": [
						{
							"internalType": "uint256",
							"name": "",
							"type": "uint256"
						}
					],
					"stateMutability": "view",
					"type": "function"
				},
				{
					"inputs": [
						{
							"internalType": "uint256",
							"name": "_amount",
							"type": "uint256"
						}
					],
					"name": "notifyRewardAmout",
					"outputs": [],
					"stateMutability": "nonpayable",
					"type": "function"
				},
				{
					"inputs": [],
					"name": "owner",
					"outputs": [
						{
							"internalType": "address",
							"name": "",
							"type": "address"
						}
					],
					"stateMutability": "view",
					"type": "function"
				},
				{
					"inputs": [],
					"name": "rewardPerToken",
					"outputs": [
						{
							"internalType": "uint256",
							"name": "",
							"type": "uint256"
						}
					],
					"stateMutability": "view",
					"type": "function"
				},
				{
					"inputs": [],
					"name": "rewardPerTokenStored",
					"outputs": [
						{
							"internalType": "uint256",
							"name": "",
							"type": "uint256"
						}
					],
					"stateMutability": "view",
					"type": "function"
				},
				{
					"inputs": [],
					"name": "rewardRate",
					"outputs": [
						{
							"internalType": "uint256",
							"name": "",
							"type": "uint256"
						}
					],
					"stateMutability": "view",
					"type": "function"
				},
				{
					"inputs": [],
					"name": "rewardsToken",
					"outputs": [
						{
							"internalType": "contract IERC20",
							"name": "",
							"type": "address"
						}
					],
					"stateMutability": "view",
					"type": "function"
				},
				{
					"inputs": [
						{
							"internalType": "uint256",
							"name": "_duration",
							"type": "uint256"
						}
					],
					"name": "setRewardDuration",
					"outputs": [],
					"stateMutability": "nonpayable",
					"type": "function"
				},
				{
					"inputs": [
						{
							"internalType": "uint256",
							"name": "_amount",
							"type": "uint256"
						}
					],
					"name": "stake",
					"outputs": [],
					"stateMutability": "nonpayable",
					"type": "function"
				},
				{
					"inputs": [],
					"name": "stakingToken",
					"outputs": [
						{
							"internalType": "contract IERC20",
							"name": "",
							"type": "address"
						}
					],
					"stateMutability": "view",
					"type": "function"
				},
				{
					"inputs": [],
					"name": "totalSupply",
					"outputs": [
						{
							"internalType": "uint256",
							"name": "",
							"type": "uint256"
						}
					],
					"stateMutability": "view",
					"type": "function"
				},
				{
					"inputs": [],
					"name": "updateAt",
					"outputs": [
						{
							"internalType": "uint256",
							"name": "",
							"type": "uint256"
						}
					],
					"stateMutability": "view",
					"type": "function"
				},
				{
					"inputs": [
						{
							"internalType": "address",
							"name": "",
							"type": "address"
						}
					],
					"name": "userRewardPerTokenPaid",
					"outputs": [
						{
							"internalType": "uint256",
							"name": "",
							"type": "uint256"
						}
					],
					"stateMutability": "view",
					"type": "function"
				},
				{
					"inputs": [
						{
							"internalType": "address",
							"name": "",
							"type": "address"
						}
					],
					"name": "userRewards",
					"outputs": [
						{
							"internalType": "uint256",
							"name": "",
							"type": "uint256"
						}
					],
					"stateMutability": "view",
					"type": "function"
				},
				{
					"inputs": [
						{
							"internalType": "uint256",
							"name": "_amount",
							"type": "uint256"
						}
					],
					"name": "withdraw",
					"outputs": [],
					"stateMutability": "nonpayable",
					"type": "function"
				},
				{
					"inputs": [
						{
							"internalType": "address",
							"name": "_account",
							"type": "address"
						}
					],
					"name": "withdrawReward",
					"outputs": [],
					"stateMutability": "nonpayable",
					"type": "function"
				}
			],
			"devdoc": {
				"kind": "dev",
				"methods": {},
				"version": 1
			},
			"evm": {
				"assembly": "    /* \"072StakingRewords.sol\":1915:7775  contract StakingRewards{... */\n  mstore(0x40, 0xc0)\n    /* \"072StakingRewords.sol\":2724:2909  constructor(address _stakingToken, address _rewardsToken){... */\n  callvalue\n  dup1\n  iszero\n  tag_1\n  jumpi\n  0x00\n  dup1\n  revert\ntag_1:\n  pop\n  mload(0x40)\n  sub(codesize, bytecodeSize)\n  dup1\n  bytecodeSize\n  dup4\n  codecopy\n  dup2\n  dup2\n  add\n  0x40\n  mstore\n  dup2\n  add\n  swap1\n  tag_2\n  swap2\n  swap1\n  tag_3\n  jump\t// in\ntag_2:\n    /* \"072StakingRewords.sol\":2799:2809  msg.sender */\n  caller\n    /* \"072StakingRewords.sol\":2791:2796  owner */\n  0x00\n  dup1\n    /* \"072StakingRewords.sol\":2791:2809  owner = msg.sender */\n  0x0100\n  exp\n  dup2\n  sload\n  dup2\n  0xffffffffffffffffffffffffffffffffffffffff\n  mul\n  not\n  and\n  swap1\n  dup4\n  0xffffffffffffffffffffffffffffffffffffffff\n  and\n  mul\n  or\n  swap1\n  sstore\n  pop\n    /* \"072StakingRewords.sol\":2841:2854  _stakingToken */\n  dup2\n    /* \"072StakingRewords.sol\":2819:2855  stakingToken = IERC20(_stakingToken) */\n  0xffffffffffffffffffffffffffffffffffffffff\n  and\n  0x80\n  dup2\n  0xffffffffffffffffffffffffffffffffffffffff\n  and\n  dup2\n  mstore\n  pop\n  pop\n    /* \"072StakingRewords.sol\":2887:2900  _rewardsToken */\n  dup1\n    /* \"072StakingRewords.sol\":2865:2901  rewardsToken = IERC20(_rewardsToken) */\n  0xffffffffffffffffffffffffffffffffffffffff\n  and\n  0xa0\n  dup2\n  0xffffffffffffffffffffffffffffffffffffffff\n  and\n  dup2\n  mstore\n  pop\n  pop\n    /* \"072StakingRewords.sol\":2724:2909  constructor(address _stakingToken, address _rewardsToken){... */\n  pop\n  pop\n    /* \"072StakingRewords.sol\":1915:7775  contract StakingRewards{... */\n  jump(tag_6)\n    /* \"#utility.yul\":88:205   */\ntag_8:\n    /* \"#utility.yul\":197:198   */\n  0x00\n    /* \"#utility.yul\":194:195   */\n  dup1\n    /* \"#utility.yul\":187:199   */\n  revert\n    /* \"#utility.yul\":334:460   */\ntag_10:\n    /* \"#utility.yul\":371:378   */\n  0x00\n    /* \"#utility.yul\":411:453   */\n  0xffffffffffffffffffffffffffffffffffffffff\n    /* \"#utility.yul\":404:409   */\n  dup3\n    /* \"#utility.yul\":400:454   */\n  and\n    /* \"#utility.yul\":389:454   */\n  swap1\n  pop\n    /* \"#utility.yul\":334:460   */\n  swap2\n  swap1\n  pop\n  jump\t// out\n    /* \"#utility.yul\":466:562   */\ntag_11:\n    /* \"#utility.yul\":503:510   */\n  0x00\n    /* \"#utility.yul\":532:556   */\n  tag_20\n    /* \"#utility.yul\":550:555   */\n  dup3\n    /* \"#utility.yul\":532:556   */\n  tag_10\n  jump\t// in\ntag_20:\n    /* \"#utility.yul\":521:556   */\n  swap1\n  pop\n    /* \"#utility.yul\":466:562   */\n  swap2\n  swap1\n  pop\n  jump\t// out\n    /* \"#utility.yul\":568:690   */\ntag_12:\n    /* \"#utility.yul\":641:665   */\n  tag_22\n    /* \"#utility.yul\":659:664   */\n  dup2\n    /* \"#utility.yul\":641:665   */\n  tag_11\n  jump\t// in\ntag_22:\n    /* \"#utility.yul\":634:639   */\n  dup2\n    /* \"#utility.yul\":631:666   */\n  eq\n    /* \"#utility.yul\":621:684   */\n  tag_23\n  jumpi\n    /* \"#utility.yul\":680:681   */\n  0x00\n    /* \"#utility.yul\":677:678   */\n  dup1\n    /* \"#utility.yul\":670:682   */\n  revert\n    /* \"#utility.yul\":621:684   */\ntag_23:\n    /* \"#utility.yul\":568:690   */\n  pop\n  jump\t// out\n    /* \"#utility.yul\":696:839   */\ntag_13:\n    /* \"#utility.yul\":753:758   */\n  0x00\n    /* \"#utility.yul\":784:790   */\n  dup2\n    /* \"#utility.yul\":778:791   */\n  mload\n    /* \"#utility.yul\":769:791   */\n  swap1\n  pop\n    /* \"#utility.yul\":800:833   */\n  tag_25\n    /* \"#utility.yul\":827:832   */\n  dup2\n    /* \"#utility.yul\":800:833   */\n  tag_12\n  jump\t// in\ntag_25:\n    /* \"#utility.yul\":696:839   */\n  swap3\n  swap2\n  pop\n  pop\n  jump\t// out\n    /* \"#utility.yul\":845:1352   */\ntag_3:\n    /* \"#utility.yul\":924:930   */\n  0x00\n    /* \"#utility.yul\":932:938   */\n  dup1\n    /* \"#utility.yul\":981:983   */\n  0x40\n    /* \"#utility.yul\":969:978   */\n  dup4\n    /* \"#utility.yul\":960:967   */\n  dup6\n    /* \"#utility.yul\":956:979   */\n  sub\n    /* \"#utility.yul\":952:984   */\n  slt\n    /* \"#utility.yul\":949:1068   */\n  iszero\n  tag_27\n  jumpi\n    /* \"#utility.yul\":987:1066   */\n  tag_28\n  tag_8\n  jump\t// in\ntag_28:\n    /* \"#utility.yul\":949:1068   */\ntag_27:\n    /* \"#utility.yul\":1107:1108   */\n  0x00\n    /* \"#utility.yul\":1132:1196   */\n  tag_29\n    /* \"#utility.yul\":1188:1195   */\n  dup6\n    /* \"#utility.yul\":1179:1185   */\n  dup3\n    /* \"#utility.yul\":1168:1177   */\n  dup7\n    /* \"#utility.yul\":1164:1186   */\n  add\n    /* \"#utility.yul\":1132:1196   */\n  tag_13\n  jump\t// in\ntag_29:\n    /* \"#utility.yul\":1122:1196   */\n  swap3\n  pop\n    /* \"#utility.yul\":1078:1206   */\n  pop\n    /* \"#utility.yul\":1245:1247   */\n  0x20\n    /* \"#utility.yul\":1271:1335   */\n  tag_30\n    /* \"#utility.yul\":1327:1334   */\n  dup6\n    /* \"#utility.yul\":1318:1324   */\n  dup3\n    /* \"#utility.yul\":1307:1316   */\n  dup7\n    /* \"#utility.yul\":1303:1325   */\n  add\n    /* \"#utility.yul\":1271:1335   */\n  tag_13\n  jump\t// in\ntag_30:\n    /* \"#utility.yul\":1261:1335   */\n  swap2\n  pop\n    /* \"#utility.yul\":1216:1345   */\n  pop\n    /* \"#utility.yul\":845:1352   */\n  swap3\n  pop\n  swap3\n  swap1\n  pop\n  jump\t// out\n    /* \"072StakingRewords.sol\":1915:7775  contract StakingRewards{... */\ntag_6:\n  mload(0x80)\n  mload(0xa0)\n  codecopy(0x00, dataOffset(sub_0), dataSize(sub_0))\n  0x00\n  assignImmutable(\"0xe4b1702d9298fee62dfeccc57d322a463ad55ca201256d01f62b45b2e1c21c10\")\n  0x00\n  assignImmutable(\"0xceebf77a833b30520287ddd9478ff51abbdffa30aa90a8d655dba0e8a79ce0c1\")\n  return(0x00, dataSize(sub_0))\nstop\n\nsub_0: assembly {\n        /* \"072StakingRewords.sol\":1915:7775  contract StakingRewards{... */\n      mstore(0x40, 0x80)\n      callvalue\n      dup1\n      iszero\n      tag_1\n      jumpi\n      0x00\n      dup1\n      revert\n    tag_1:\n      pop\n      jumpi(tag_2, lt(calldatasize, 0x04))\n      shr(0xe0, calldataload(0x00))\n      dup1\n      0x80faa57d\n      gt\n      tag_24\n      jumpi\n      dup1\n      0xb86e321c\n      gt\n      tag_25\n      jumpi\n      dup1\n      0xb86e321c\n      eq\n      tag_18\n      jumpi\n      dup1\n      0xc0ed00c9\n      eq\n      tag_19\n      jumpi\n      dup1\n      0xc964f585\n      eq\n      tag_20\n      jumpi\n      dup1\n      0xcd3daf9d\n      eq\n      tag_21\n      jumpi\n      dup1\n      0xd1af0c7d\n      eq\n      tag_22\n      jumpi\n      dup1\n      0xdf136d65\n      eq\n      tag_23\n      jumpi\n      jump(tag_2)\n    tag_25:\n      dup1\n      0x80faa57d\n      eq\n      tag_13\n      jumpi\n      dup1\n      0x8b876347\n      eq\n      tag_14\n      jumpi\n      dup1\n      0x8da5cb5b\n      eq\n      tag_15\n      jumpi\n      dup1\n      0xa694fc3a\n      eq\n      tag_16\n      jumpi\n      dup1\n      0xabd551b3\n      eq\n      tag_17\n      jumpi\n      jump(tag_2)\n    tag_24:\n      dup1\n      0x3d18b912\n      gt\n      tag_26\n      jumpi\n      dup1\n      0x3d18b912\n      eq\n      tag_8\n      jumpi\n      dup1\n      0x47d54bff\n      eq\n      tag_9\n      jumpi\n      dup1\n      0x70a08231\n      eq\n      tag_10\n      jumpi\n      dup1\n      0x72f702f3\n      eq\n      tag_11\n      jumpi\n      dup1\n      0x7b0a47ee\n      eq\n      tag_12\n      jumpi\n      jump(tag_2)\n    tag_26:\n      dup1\n      0x8cc262\n      eq\n      tag_3\n      jumpi\n      dup1\n      0x0660f1e8\n      eq\n      tag_4\n      jumpi\n      dup1\n      0x0fb5a6b4\n      eq\n      tag_5\n      jumpi\n      dup1\n      0x18160ddd\n      eq\n      tag_6\n      jumpi\n      dup1\n      0x2e1a7d4d\n      eq\n      tag_7\n      jumpi\n    tag_2:\n      0x00\n      dup1\n      revert\n        /* \"072StakingRewords.sol\":6981:7312  function earned(address _account) public view  returns(uint amount){... */\n    tag_3:\n      tag_27\n      0x04\n      dup1\n      calldatasize\n      sub\n      dup2\n      add\n      swap1\n      tag_28\n      swap2\n      swap1\n      tag_29\n      jump\t// in\n    tag_28:\n      tag_30\n      jump\t// in\n    tag_27:\n      mload(0x40)\n      tag_31\n      swap2\n      swap1\n      tag_32\n      jump\t// in\n    tag_31:\n      mload(0x40)\n      dup1\n      swap2\n      sub\n      swap1\n      return\n        /* \"072StakingRewords.sol\":2491:2535  mapping(address => uint ) public userRewards */\n    tag_4:\n      tag_33\n      0x04\n      dup1\n      calldatasize\n      sub\n      dup2\n      add\n      swap1\n      tag_34\n      swap2\n      swap1\n      tag_29\n      jump\t// in\n    tag_34:\n      tag_35\n      jump\t// in\n    tag_33:\n      mload(0x40)\n      tag_36\n      swap2\n      swap1\n      tag_32\n      jump\t// in\n    tag_36:\n      mload(0x40)\n      dup1\n      swap2\n      sub\n      swap1\n      return\n        /* \"072StakingRewords.sol\":2114:2134  uint public duration */\n    tag_5:\n      tag_37\n      tag_38\n      jump\t// in\n    tag_37:\n      mload(0x40)\n      tag_39\n      swap2\n      swap1\n      tag_32\n      jump\t// in\n    tag_39:\n      mload(0x40)\n      dup1\n      swap2\n      sub\n      swap1\n      return\n        /* \"072StakingRewords.sol\":2579:2602  uint public totalSupply */\n    tag_6:\n      tag_40\n      tag_41\n      jump\t// in\n    tag_40:\n      mload(0x40)\n      tag_42\n      swap2\n      swap1\n      tag_32\n      jump\t// in\n    tag_42:\n      mload(0x40)\n      dup1\n      swap2\n      sub\n      swap1\n      return\n        /* \"072StakingRewords.sol\":5604:5844  function withdraw(uint _amount)external updateReward(msg.sender){... */\n    tag_7:\n      tag_43\n      0x04\n      dup1\n      calldatasize\n      sub\n      dup2\n      add\n      swap1\n      tag_44\n      swap2\n      swap1\n      tag_45\n      jump\t// in\n    tag_44:\n      tag_46\n      jump\t// in\n    tag_43:\n      stop\n        /* \"072StakingRewords.sol\":7338:7578  function getReward() external updateReward(msg.sender){... */\n    tag_8:\n      tag_47\n      tag_48\n      jump\t// in\n    tag_47:\n      stop\n        /* \"072StakingRewords.sol\":2155:2177  uint public finishedAt */\n    tag_9:\n      tag_49\n      tag_50\n      jump\t// in\n    tag_49:\n      mload(0x40)\n      tag_51\n      swap2\n      swap1\n      tag_32\n      jump\t// in\n    tag_51:\n      mload(0x40)\n      dup1\n      swap2\n      sub\n      swap1\n      return\n        /* \"072StakingRewords.sol\":2639:2682  mapping (address => uint ) public balanceOf */\n    tag_10:\n      tag_52\n      0x04\n      dup1\n      calldatasize\n      sub\n      dup2\n      add\n      swap1\n      tag_53\n      swap2\n      swap1\n      tag_29\n      jump\t// in\n    tag_53:\n      tag_54\n      jump\t// in\n    tag_52:\n      mload(0x40)\n      tag_55\n      swap2\n      swap1\n      tag_32\n      jump\t// in\n    tag_55:\n      mload(0x40)\n      dup1\n      swap2\n      sub\n      swap1\n      return\n        /* \"072StakingRewords.sol\":2003:2039  IERC20 public immutable stakingToken */\n    tag_11:\n      tag_56\n      tag_57\n      jump\t// in\n    tag_56:\n      mload(0x40)\n      tag_58\n      swap2\n      swap1\n      tag_59\n      jump\t// in\n    tag_58:\n      mload(0x40)\n      dup1\n      swap2\n      sub\n      swap1\n      return\n        /* \"072StakingRewords.sol\":2242:2264  uint public rewardRate */\n    tag_12:\n      tag_60\n      tag_61\n      jump\t// in\n    tag_60:\n      mload(0x40)\n      tag_62\n      swap2\n      swap1\n      tag_32\n      jump\t// in\n    tag_62:\n      mload(0x40)\n      dup1\n      swap2\n      sub\n      swap1\n      return\n        /* \"072StakingRewords.sol\":5917:6038  function lastTimeRewardApplicable () public view returns(uint ){... */\n    tag_13:\n      tag_63\n      tag_64\n      jump\t// in\n    tag_63:\n      mload(0x40)\n      tag_65\n      swap2\n      swap1\n      tag_32\n      jump\t// in\n    tag_65:\n      mload(0x40)\n      dup1\n      swap2\n      sub\n      swap1\n      return\n        /* \"072StakingRewords.sol\":2408:2463  mapping(address => uint ) public userRewardPerTokenPaid */\n    tag_14:\n      tag_66\n      0x04\n      dup1\n      calldatasize\n      sub\n      dup2\n      add\n      swap1\n      tag_67\n      swap2\n      swap1\n      tag_29\n      jump\t// in\n    tag_67:\n      tag_68\n      jump\t// in\n    tag_66:\n      mload(0x40)\n      tag_69\n      swap2\n      swap1\n      tag_32\n      jump\t// in\n    tag_69:\n      mload(0x40)\n      dup1\n      swap2\n      sub\n      swap1\n      return\n        /* \"072StakingRewords.sol\":2088:2108  address public owner */\n    tag_15:\n      tag_70\n      tag_71\n      jump\t// in\n    tag_70:\n      mload(0x40)\n      tag_72\n      swap2\n      swap1\n      tag_73\n      jump\t// in\n    tag_72:\n      mload(0x40)\n      dup1\n      swap2\n      sub\n      swap1\n      return\n        /* \"072StakingRewords.sol\":5038:5333  function stake(uint _amount)external updateReward(msg.sender){... */\n    tag_16:\n      tag_74\n      0x04\n      dup1\n      calldatasize\n      sub\n      dup2\n      add\n      swap1\n      tag_75\n      swap2\n      swap1\n      tag_45\n      jump\t// in\n    tag_75:\n      tag_76\n      jump\t// in\n    tag_74:\n      stop\n        /* \"072StakingRewords.sol\":4022:5006  function notifyRewardAmout(uint _amount)external onlyOwner updateReward(address(0)){... */\n    tag_17:\n      tag_77\n      0x04\n      dup1\n      calldatasize\n      sub\n      dup2\n      add\n      swap1\n      tag_78\n      swap2\n      swap1\n      tag_45\n      jump\t// in\n    tag_78:\n      tag_79\n      jump\t// in\n    tag_77:\n      stop\n        /* \"072StakingRewords.sol\":7610:7663  function withdrawReward(address _account) external {} */\n    tag_18:\n      tag_80\n      0x04\n      dup1\n      calldatasize\n      sub\n      dup2\n      add\n      swap1\n      tag_81\n      swap2\n      swap1\n      tag_29\n      jump\t// in\n    tag_81:\n      tag_82\n      jump\t// in\n    tag_80:\n      stop\n        /* \"072StakingRewords.sol\":3623:3934  function setRewardDuration(uint _duration)external onlyOwner{... */\n    tag_19:\n      tag_83\n      0x04\n      dup1\n      calldatasize\n      sub\n      dup2\n      add\n      swap1\n      tag_84\n      swap2\n      swap1\n      tag_45\n      jump\t// in\n    tag_84:\n      tag_85\n      jump\t// in\n    tag_83:\n      stop\n        /* \"072StakingRewords.sol\":2198:2218  uint public updateAt */\n    tag_20:\n      tag_86\n      tag_87\n      jump\t// in\n    tag_86:\n      mload(0x40)\n      tag_88\n      swap2\n      swap1\n      tag_32\n      jump\t// in\n    tag_88:\n      mload(0x40)\n      dup1\n      swap2\n      sub\n      swap1\n      return\n        /* \"072StakingRewords.sol\":6078:6934  function rewardPerToken() public view returns (uint){... */\n    tag_21:\n      tag_89\n      tag_90\n      jump\t// in\n    tag_89:\n      mload(0x40)\n      tag_91\n      swap2\n      swap1\n      tag_32\n      jump\t// in\n    tag_91:\n      mload(0x40)\n      dup1\n      swap2\n      sub\n      swap1\n      return\n        /* \"072StakingRewords.sol\":2045:2081  IERC20 public immutable rewardsToken */\n    tag_22:\n      tag_92\n      tag_93\n      jump\t// in\n    tag_92:\n      mload(0x40)\n      tag_94\n      swap2\n      swap1\n      tag_59\n      jump\t// in\n    tag_94:\n      mload(0x40)\n      dup1\n      swap2\n      sub\n      swap1\n      return\n        /* \"072StakingRewords.sol\":2295:2327  uint public rewardPerTokenStored */\n    tag_23:\n      tag_95\n      tag_96\n      jump\t// in\n    tag_95:\n      mload(0x40)\n      tag_97\n      swap2\n      swap1\n      tag_32\n      jump\t// in\n    tag_97:\n      mload(0x40)\n      dup1\n      swap2\n      sub\n      swap1\n      return\n        /* \"072StakingRewords.sol\":6981:7312  function earned(address _account) public view  returns(uint amount){... */\n    tag_30:\n        /* \"072StakingRewords.sol\":7036:7047  uint amount */\n      0x00\n        /* \"072StakingRewords.sol\":7284:7295  userRewards */\n      0x07\n        /* \"072StakingRewords.sol\":7284:7305  userRewards[_account] */\n      0x00\n        /* \"072StakingRewords.sol\":7296:7304  _account */\n      dup4\n        /* \"072StakingRewords.sol\":7284:7305  userRewards[_account] */\n      0xffffffffffffffffffffffffffffffffffffffff\n      and\n      0xffffffffffffffffffffffffffffffffffffffff\n      and\n      dup2\n      mstore\n      0x20\n      add\n      swap1\n      dup2\n      mstore\n      0x20\n      add\n      0x00\n      keccak256\n      sload\n        /* \"072StakingRewords.sol\":7277:7281  1e18 */\n      0x0de0b6b3a7640000\n        /* \"072StakingRewords.sol\":7227:7249  userRewardPerTokenPaid */\n      0x06\n        /* \"072StakingRewords.sol\":7227:7259  userRewardPerTokenPaid[_account] */\n      0x00\n        /* \"072StakingRewords.sol\":7250:7258  _account */\n      dup6\n        /* \"072StakingRewords.sol\":7227:7259  userRewardPerTokenPaid[_account] */\n      0xffffffffffffffffffffffffffffffffffffffff\n      and\n      0xffffffffffffffffffffffffffffffffffffffff\n      and\n      dup2\n      mstore\n      0x20\n      add\n      swap1\n      dup2\n      mstore\n      0x20\n      add\n      0x00\n      keccak256\n      sload\n        /* \"072StakingRewords.sol\":7208:7224  rewardPerToken() */\n      tag_99\n        /* \"072StakingRewords.sol\":7208:7222  rewardPerToken */\n      tag_90\n        /* \"072StakingRewords.sol\":7208:7224  rewardPerToken() */\n      jump\t// in\n    tag_99:\n        /* \"072StakingRewords.sol\":7208:7259  rewardPerToken() - userRewardPerTokenPaid[_account] */\n      tag_100\n      swap2\n      swap1\n      tag_101\n      jump\t// in\n    tag_100:\n        /* \"072StakingRewords.sol\":7185:7194  balanceOf */\n      0x09\n        /* \"072StakingRewords.sol\":7185:7204  balanceOf[_account] */\n      0x00\n        /* \"072StakingRewords.sol\":7195:7203  _account */\n      dup7\n        /* \"072StakingRewords.sol\":7185:7204  balanceOf[_account] */\n      0xffffffffffffffffffffffffffffffffffffffff\n      and\n      0xffffffffffffffffffffffffffffffffffffffff\n      and\n      dup2\n      mstore\n      0x20\n      add\n      swap1\n      dup2\n      mstore\n      0x20\n      add\n      0x00\n      keccak256\n      sload\n        /* \"072StakingRewords.sol\":7185:7260  balanceOf[_account] * (rewardPerToken() - userRewardPerTokenPaid[_account]) */\n      tag_102\n      swap2\n      swap1\n      tag_103\n      jump\t// in\n    tag_102:\n        /* \"072StakingRewords.sol\":7170:7281  ( ... */\n      tag_104\n      swap2\n      swap1\n      tag_105\n      jump\t// in\n    tag_104:\n        /* \"072StakingRewords.sol\":7170:7305  ( ... */\n      tag_106\n      swap2\n      swap1\n      tag_107\n      jump\t// in\n    tag_106:\n        /* \"072StakingRewords.sol\":7161:7305  amount = ( ... */\n      swap1\n      pop\n        /* \"072StakingRewords.sol\":6981:7312  function earned(address _account) public view  returns(uint amount){... */\n      swap2\n      swap1\n      pop\n      jump\t// out\n        /* \"072StakingRewords.sol\":2491:2535  mapping(address => uint ) public userRewards */\n    tag_35:\n      mstore(0x20, 0x07)\n      dup1\n      0x00\n      mstore\n      keccak256(0x00, 0x40)\n      0x00\n      swap2\n      pop\n      swap1\n      pop\n      sload\n      dup2\n      jump\t// out\n        /* \"072StakingRewords.sol\":2114:2134  uint public duration */\n    tag_38:\n      sload(0x01)\n      dup2\n      jump\t// out\n        /* \"072StakingRewords.sol\":2579:2602  uint public totalSupply */\n    tag_41:\n      sload(0x08)\n      dup2\n      jump\t// out\n        /* \"072StakingRewords.sol\":5604:5844  function withdraw(uint _amount)external updateReward(msg.sender){... */\n    tag_46:\n        /* \"072StakingRewords.sol\":5657:5667  msg.sender */\n      caller\n        /* \"072StakingRewords.sol\":3214:3230  rewardPerToken() */\n      tag_109\n        /* \"072StakingRewords.sol\":3214:3228  rewardPerToken */\n      tag_90\n        /* \"072StakingRewords.sol\":3214:3230  rewardPerToken() */\n      jump\t// in\n    tag_109:\n        /* \"072StakingRewords.sol\":3191:3211  rewardPerTokenStored */\n      0x05\n        /* \"072StakingRewords.sol\":3191:3230  rewardPerTokenStored = rewardPerToken() */\n      dup2\n      swap1\n      sstore\n      pop\n        /* \"072StakingRewords.sol\":3251:3277  lastTimeRewardApplicable() */\n      tag_110\n        /* \"072StakingRewords.sol\":3251:3275  lastTimeRewardApplicable */\n      tag_64\n        /* \"072StakingRewords.sol\":3251:3277  lastTimeRewardApplicable() */\n      jump\t// in\n    tag_110:\n        /* \"072StakingRewords.sol\":3240:3248  updateAt */\n      0x03\n        /* \"072StakingRewords.sol\":3240:3277  updateAt = lastTimeRewardApplicable() */\n      dup2\n      swap1\n      sstore\n      pop\n        /* \"072StakingRewords.sol\":3359:3360  0 */\n      0x00\n        /* \"072StakingRewords.sol\":3340:3361  _account !=address(0) */\n      0xffffffffffffffffffffffffffffffffffffffff\n      and\n        /* \"072StakingRewords.sol\":3340:3348  _account */\n      dup2\n        /* \"072StakingRewords.sol\":3340:3361  _account !=address(0) */\n      0xffffffffffffffffffffffffffffffffffffffff\n      and\n      eq\n        /* \"072StakingRewords.sol\":3336:3559  if (_account !=address(0)){... */\n      tag_111\n      jumpi\n        /* \"072StakingRewords.sol\":3463:3479  earned(_account) */\n      tag_112\n        /* \"072StakingRewords.sol\":3470:3478  _account */\n      dup2\n        /* \"072StakingRewords.sol\":3463:3469  earned */\n      tag_30\n        /* \"072StakingRewords.sol\":3463:3479  earned(_account) */\n      jump\t// in\n    tag_112:\n        /* \"072StakingRewords.sol\":3439:3450  userRewards */\n      0x07\n        /* \"072StakingRewords.sol\":3439:3460  userRewards[_account] */\n      0x00\n        /* \"072StakingRewords.sol\":3451:3459  _account */\n      dup4\n        /* \"072StakingRewords.sol\":3439:3460  userRewards[_account] */\n      0xffffffffffffffffffffffffffffffffffffffff\n      and\n      0xffffffffffffffffffffffffffffffffffffffff\n      and\n      dup2\n      mstore\n      0x20\n      add\n      swap1\n      dup2\n      mstore\n      0x20\n      add\n      0x00\n      keccak256\n        /* \"072StakingRewords.sol\":3439:3479  userRewards[_account] = earned(_account) */\n      dup2\n      swap1\n      sstore\n      pop\n        /* \"072StakingRewords.sol\":3528:3548  rewardPerTokenStored */\n      sload(0x05)\n        /* \"072StakingRewords.sol\":3493:3515  userRewardPerTokenPaid */\n      0x06\n        /* \"072StakingRewords.sol\":3493:3525  userRewardPerTokenPaid[_account] */\n      0x00\n        /* \"072StakingRewords.sol\":3516:3524  _account */\n      dup4\n        /* \"072StakingRewords.sol\":3493:3525  userRewardPerTokenPaid[_account] */\n      0xffffffffffffffffffffffffffffffffffffffff\n      and\n      0xffffffffffffffffffffffffffffffffffffffff\n      and\n      dup2\n      mstore\n      0x20\n      add\n      swap1\n      dup2\n      mstore\n      0x20\n      add\n      0x00\n      keccak256\n        /* \"072StakingRewords.sol\":3493:3548  userRewardPerTokenPaid[_account] = rewardPerTokenStored */\n      dup2\n      swap1\n      sstore\n      pop\n        /* \"072StakingRewords.sol\":3336:3559  if (_account !=address(0)){... */\n    tag_111:\n        /* \"072StakingRewords.sol\":5695:5696  0 */\n      0x00\n        /* \"072StakingRewords.sol\":5686:5693  _amount */\n      dup3\n        /* \"072StakingRewords.sol\":5686:5696  _amount> 0 */\n      gt\n        /* \"072StakingRewords.sol\":5678:5710  require(_amount> 0, \"amount <0\") */\n      tag_114\n      jumpi\n      mload(0x40)\n      0x08c379a000000000000000000000000000000000000000000000000000000000\n      dup2\n      mstore\n      0x04\n      add\n      tag_115\n      swap1\n      tag_116\n      jump\t// in\n    tag_115:\n      mload(0x40)\n      dup1\n      swap2\n      sub\n      swap1\n      revert\n    tag_114:\n        /* \"072StakingRewords.sol\":5745:5752  _amount */\n      dup2\n        /* \"072StakingRewords.sol\":5720:5729  balanceOf */\n      0x09\n        /* \"072StakingRewords.sol\":5720:5741  balanceOf[msg.sender] */\n      0x00\n        /* \"072StakingRewords.sol\":5730:5740  msg.sender */\n      caller\n        /* \"072StakingRewords.sol\":5720:5741  balanceOf[msg.sender] */\n      0xffffffffffffffffffffffffffffffffffffffff\n      and\n      0xffffffffffffffffffffffffffffffffffffffff\n      and\n      dup2\n      mstore\n      0x20\n      add\n      swap1\n      dup2\n      mstore\n      0x20\n      add\n      0x00\n      keccak256\n      0x00\n        /* \"072StakingRewords.sol\":5720:5752  balanceOf[msg.sender] -= _amount */\n      dup3\n      dup3\n      sload\n      tag_117\n      swap2\n      swap1\n      tag_101\n      jump\t// in\n    tag_117:\n      swap3\n      pop\n      pop\n      dup2\n      swap1\n      sstore\n      pop\n        /* \"072StakingRewords.sol\":5777:5784  _amount */\n      dup2\n        /* \"072StakingRewords.sol\":5762:5773  totalSupply */\n      0x08\n      0x00\n        /* \"072StakingRewords.sol\":5762:5784  totalSupply -= _amount */\n      dup3\n      dup3\n      sload\n      tag_118\n      swap2\n      swap1\n      tag_101\n      jump\t// in\n    tag_118:\n      swap3\n      pop\n      pop\n      dup2\n      swap1\n      sstore\n      pop\n        /* \"072StakingRewords.sol\":5794:5806  stakingToken */\n      immutable(\"0xceebf77a833b30520287ddd9478ff51abbdffa30aa90a8d655dba0e8a79ce0c1\")\n        /* \"072StakingRewords.sol\":5794:5815  stakingToken.transfer */\n      0xffffffffffffffffffffffffffffffffffffffff\n      and\n      0xa9059cbb\n        /* \"072StakingRewords.sol\":5816:5826  msg.sender */\n      caller\n        /* \"072StakingRewords.sol\":5828:5835  _amount */\n      dup5\n        /* \"072StakingRewords.sol\":5794:5836  stakingToken.transfer(msg.sender, _amount) */\n      mload(0x40)\n      dup4\n      0xffffffff\n      and\n      0xe0\n      shl\n      dup2\n      mstore\n      0x04\n      add\n      tag_119\n      swap3\n      swap2\n      swap1\n      tag_120\n      jump\t// in\n    tag_119:\n      0x20\n      mload(0x40)\n      dup1\n      dup4\n      sub\n      dup2\n      0x00\n      dup8\n      gas\n      call\n      iszero\n      dup1\n      iszero\n      tag_122\n      jumpi\n      returndatasize\n      0x00\n      dup1\n      returndatacopy\n      revert(0x00, returndatasize)\n    tag_122:\n      pop\n      pop\n      pop\n      pop\n      mload(0x40)\n      returndatasize\n      not(0x1f)\n      0x1f\n      dup3\n      add\n      and\n      dup3\n      add\n      dup1\n      0x40\n      mstore\n      pop\n      dup2\n      add\n      swap1\n      tag_123\n      swap2\n      swap1\n      tag_124\n      jump\t// in\n    tag_123:\n      pop\n        /* \"072StakingRewords.sol\":5604:5844  function withdraw(uint _amount)external updateReward(msg.sender){... */\n      pop\n      pop\n      jump\t// out\n        /* \"072StakingRewords.sol\":7338:7578  function getReward() external updateReward(msg.sender){... */\n    tag_48:\n        /* \"072StakingRewords.sol\":7381:7391  msg.sender */\n      caller\n        /* \"072StakingRewords.sol\":3214:3230  rewardPerToken() */\n      tag_126\n        /* \"072StakingRewords.sol\":3214:3228  rewardPerToken */\n      tag_90\n        /* \"072StakingRewords.sol\":3214:3230  rewardPerToken() */\n      jump\t// in\n    tag_126:\n        /* \"072StakingRewords.sol\":3191:3211  rewardPerTokenStored */\n      0x05\n        /* \"072StakingRewords.sol\":3191:3230  rewardPerTokenStored = rewardPerToken() */\n      dup2\n      swap1\n      sstore\n      pop\n        /* \"072StakingRewords.sol\":3251:3277  lastTimeRewardApplicable() */\n      tag_127\n        /* \"072StakingRewords.sol\":3251:3275  lastTimeRewardApplicable */\n      tag_64\n        /* \"072StakingRewords.sol\":3251:3277  lastTimeRewardApplicable() */\n      jump\t// in\n    tag_127:\n        /* \"072StakingRewords.sol\":3240:3248  updateAt */\n      0x03\n        /* \"072StakingRewords.sol\":3240:3277  updateAt = lastTimeRewardApplicable() */\n      dup2\n      swap1\n      sstore\n      pop\n        /* \"072StakingRewords.sol\":3359:3360  0 */\n      0x00\n        /* \"072StakingRewords.sol\":3340:3361  _account !=address(0) */\n      0xffffffffffffffffffffffffffffffffffffffff\n      and\n        /* \"072StakingRewords.sol\":3340:3348  _account */\n      dup2\n        /* \"072StakingRewords.sol\":3340:3361  _account !=address(0) */\n      0xffffffffffffffffffffffffffffffffffffffff\n      and\n      eq\n        /* \"072StakingRewords.sol\":3336:3559  if (_account !=address(0)){... */\n      tag_128\n      jumpi\n        /* \"072StakingRewords.sol\":3463:3479  earned(_account) */\n      tag_129\n        /* \"072StakingRewords.sol\":3470:3478  _account */\n      dup2\n        /* \"072StakingRewords.sol\":3463:3469  earned */\n      tag_30\n        /* \"072StakingRewords.sol\":3463:3479  earned(_account) */\n      jump\t// in\n    tag_129:\n        /* \"072StakingRewords.sol\":3439:3450  userRewards */\n      0x07\n        /* \"072StakingRewords.sol\":3439:3460  userRewards[_account] */\n      0x00\n        /* \"072StakingRewords.sol\":3451:3459  _account */\n      dup4\n        /* \"072StakingRewords.sol\":3439:3460  userRewards[_account] */\n      0xffffffffffffffffffffffffffffffffffffffff\n      and\n      0xffffffffffffffffffffffffffffffffffffffff\n      and\n      dup2\n      mstore\n      0x20\n      add\n      swap1\n      dup2\n      mstore\n      0x20\n      add\n      0x00\n      keccak256\n        /* \"072StakingRewords.sol\":3439:3479  userRewards[_account] = earned(_account) */\n      dup2\n      swap1\n      sstore\n      pop\n        /* \"072StakingRewords.sol\":3528:3548  rewardPerTokenStored */\n      sload(0x05)\n        /* \"072StakingRewords.sol\":3493:3515  userRewardPerTokenPaid */\n      0x06\n        /* \"072StakingRewords.sol\":3493:3525  userRewardPerTokenPaid[_account] */\n      0x00\n        /* \"072StakingRewords.sol\":3516:3524  _account */\n      dup4\n        /* \"072StakingRewords.sol\":3493:3525  userRewardPerTokenPaid[_account] */\n      0xffffffffffffffffffffffffffffffffffffffff\n      and\n      0xffffffffffffffffffffffffffffffffffffffff\n      and\n      dup2\n      mstore\n      0x20\n      add\n      swap1\n      dup2\n      mstore\n      0x20\n      add\n      0x00\n      keccak256\n        /* \"072StakingRewords.sol\":3493:3548  userRewardPerTokenPaid[_account] = rewardPerTokenStored */\n      dup2\n      swap1\n      sstore\n      pop\n        /* \"072StakingRewords.sol\":3336:3559  if (_account !=address(0)){... */\n    tag_128:\n        /* \"072StakingRewords.sol\":7402:7413  uint reward */\n      0x00\n        /* \"072StakingRewords.sol\":7416:7427  userRewards */\n      0x07\n        /* \"072StakingRewords.sol\":7416:7439  userRewards[msg.sender] */\n      0x00\n        /* \"072StakingRewords.sol\":7428:7438  msg.sender */\n      caller\n        /* \"072StakingRewords.sol\":7416:7439  userRewards[msg.sender] */\n      0xffffffffffffffffffffffffffffffffffffffff\n      and\n      0xffffffffffffffffffffffffffffffffffffffff\n      and\n      dup2\n      mstore\n      0x20\n      add\n      swap1\n      dup2\n      mstore\n      0x20\n      add\n      0x00\n      keccak256\n      sload\n        /* \"072StakingRewords.sol\":7402:7439  uint reward = userRewards[msg.sender] */\n      swap1\n      pop\n        /* \"072StakingRewords.sol\":7462:7463  0 */\n      0x00\n        /* \"072StakingRewords.sol\":7453:7459  reward */\n      dup2\n        /* \"072StakingRewords.sol\":7453:7463  reward > 0 */\n      gt\n        /* \"072StakingRewords.sol\":7449:7571  if (reward > 0){... */\n      iszero\n      tag_131\n      jumpi\n        /* \"072StakingRewords.sol\":7504:7505  0 */\n      0x00\n        /* \"072StakingRewords.sol\":7478:7489  userRewards */\n      0x07\n        /* \"072StakingRewords.sol\":7478:7501  userRewards[msg.sender] */\n      0x00\n        /* \"072StakingRewords.sol\":7490:7500  msg.sender */\n      caller\n        /* \"072StakingRewords.sol\":7478:7501  userRewards[msg.sender] */\n      0xffffffffffffffffffffffffffffffffffffffff\n      and\n      0xffffffffffffffffffffffffffffffffffffffff\n      and\n      dup2\n      mstore\n      0x20\n      add\n      swap1\n      dup2\n      mstore\n      0x20\n      add\n      0x00\n      keccak256\n        /* \"072StakingRewords.sol\":7478:7505  userRewards[msg.sender] = 0 */\n      dup2\n      swap1\n      sstore\n      pop\n        /* \"072StakingRewords.sol\":7519:7531  rewardsToken */\n      immutable(\"0xe4b1702d9298fee62dfeccc57d322a463ad55ca201256d01f62b45b2e1c21c10\")\n        /* \"072StakingRewords.sol\":7519:7540  rewardsToken.transfer */\n      0xffffffffffffffffffffffffffffffffffffffff\n      and\n      0xa9059cbb\n        /* \"072StakingRewords.sol\":7541:7551  msg.sender */\n      caller\n        /* \"072StakingRewords.sol\":7553:7559  reward */\n      dup4\n        /* \"072StakingRewords.sol\":7519:7560  rewardsToken.transfer(msg.sender, reward) */\n      mload(0x40)\n      dup4\n      0xffffffff\n      and\n      0xe0\n      shl\n      dup2\n      mstore\n      0x04\n      add\n      tag_132\n      swap3\n      swap2\n      swap1\n      tag_120\n      jump\t// in\n    tag_132:\n      0x20\n      mload(0x40)\n      dup1\n      dup4\n      sub\n      dup2\n      0x00\n      dup8\n      gas\n      call\n      iszero\n      dup1\n      iszero\n      tag_134\n      jumpi\n      returndatasize\n      0x00\n      dup1\n      returndatacopy\n      revert(0x00, returndatasize)\n    tag_134:\n      pop\n      pop\n      pop\n      pop\n      mload(0x40)\n      returndatasize\n      not(0x1f)\n      0x1f\n      dup3\n      add\n      and\n      dup3\n      add\n      dup1\n      0x40\n      mstore\n      pop\n      dup2\n      add\n      swap1\n      tag_135\n      swap2\n      swap1\n      tag_124\n      jump\t// in\n    tag_135:\n      pop\n        /* \"072StakingRewords.sol\":7449:7571  if (reward > 0){... */\n    tag_131:\n        /* \"072StakingRewords.sol\":7392:7578  {... */\n      pop\n        /* \"072StakingRewords.sol\":7338:7578  function getReward() external updateReward(msg.sender){... */\n      pop\n      jump\t// out\n        /* \"072StakingRewords.sol\":2155:2177  uint public finishedAt */\n    tag_50:\n      sload(0x02)\n      dup2\n      jump\t// out\n        /* \"072StakingRewords.sol\":2639:2682  mapping (address => uint ) public balanceOf */\n    tag_54:\n      mstore(0x20, 0x09)\n      dup1\n      0x00\n      mstore\n      keccak256(0x00, 0x40)\n      0x00\n      swap2\n      pop\n      swap1\n      pop\n      sload\n      dup2\n      jump\t// out\n        /* \"072StakingRewords.sol\":2003:2039  IERC20 public immutable stakingToken */\n    tag_57:\n      immutable(\"0xceebf77a833b30520287ddd9478ff51abbdffa30aa90a8d655dba0e8a79ce0c1\")\n      dup2\n      jump\t// out\n        /* \"072StakingRewords.sol\":2242:2264  uint public rewardRate */\n    tag_61:\n      sload(0x04)\n      dup2\n      jump\t// out\n        /* \"072StakingRewords.sol\":5917:6038  function lastTimeRewardApplicable () public view returns(uint ){... */\n    tag_64:\n        /* \"072StakingRewords.sol\":5974:5978  uint */\n      0x00\n        /* \"072StakingRewords.sol\":5997:6031  _min(block.timestamp , finishedAt) */\n      tag_137\n        /* \"072StakingRewords.sol\":6002:6017  block.timestamp */\n      timestamp\n        /* \"072StakingRewords.sol\":6020:6030  finishedAt */\n      sload(0x02)\n        /* \"072StakingRewords.sol\":5997:6001  _min */\n      tag_138\n        /* \"072StakingRewords.sol\":5997:6031  _min(block.timestamp , finishedAt) */\n      jump\t// in\n    tag_137:\n        /* \"072StakingRewords.sol\":5990:6031  return _min(block.timestamp , finishedAt) */\n      swap1\n      pop\n        /* \"072StakingRewords.sol\":5917:6038  function lastTimeRewardApplicable () public view returns(uint ){... */\n      swap1\n      jump\t// out\n        /* \"072StakingRewords.sol\":2408:2463  mapping(address => uint ) public userRewardPerTokenPaid */\n    tag_68:\n      mstore(0x20, 0x06)\n      dup1\n      0x00\n      mstore\n      keccak256(0x00, 0x40)\n      0x00\n      swap2\n      pop\n      swap1\n      pop\n      sload\n      dup2\n      jump\t// out\n        /* \"072StakingRewords.sol\":2088:2108  address public owner */\n    tag_71:\n      0x00\n      dup1\n      sload\n      swap1\n      0x0100\n      exp\n      swap1\n      div\n      0xffffffffffffffffffffffffffffffffffffffff\n      and\n      dup2\n      jump\t// out\n        /* \"072StakingRewords.sol\":5038:5333  function stake(uint _amount)external updateReward(msg.sender){... */\n    tag_76:\n        /* \"072StakingRewords.sol\":5088:5098  msg.sender */\n      caller\n        /* \"072StakingRewords.sol\":3214:3230  rewardPerToken() */\n      tag_140\n        /* \"072StakingRewords.sol\":3214:3228  rewardPerToken */\n      tag_90\n        /* \"072StakingRewords.sol\":3214:3230  rewardPerToken() */\n      jump\t// in\n    tag_140:\n        /* \"072StakingRewords.sol\":3191:3211  rewardPerTokenStored */\n      0x05\n        /* \"072StakingRewords.sol\":3191:3230  rewardPerTokenStored = rewardPerToken() */\n      dup2\n      swap1\n      sstore\n      pop\n        /* \"072StakingRewords.sol\":3251:3277  lastTimeRewardApplicable() */\n      tag_141\n        /* \"072StakingRewords.sol\":3251:3275  lastTimeRewardApplicable */\n      tag_64\n        /* \"072StakingRewords.sol\":3251:3277  lastTimeRewardApplicable() */\n      jump\t// in\n    tag_141:\n        /* \"072StakingRewords.sol\":3240:3248  updateAt */\n      0x03\n        /* \"072StakingRewords.sol\":3240:3277  updateAt = lastTimeRewardApplicable() */\n      dup2\n      swap1\n      sstore\n      pop\n        /* \"072StakingRewords.sol\":3359:3360  0 */\n      0x00\n        /* \"072StakingRewords.sol\":3340:3361  _account !=address(0) */\n      0xffffffffffffffffffffffffffffffffffffffff\n      and\n        /* \"072StakingRewords.sol\":3340:3348  _account */\n      dup2\n        /* \"072StakingRewords.sol\":3340:3361  _account !=address(0) */\n      0xffffffffffffffffffffffffffffffffffffffff\n      and\n      eq\n        /* \"072StakingRewords.sol\":3336:3559  if (_account !=address(0)){... */\n      tag_142\n      jumpi\n        /* \"072StakingRewords.sol\":3463:3479  earned(_account) */\n      tag_143\n        /* \"072StakingRewords.sol\":3470:3478  _account */\n      dup2\n        /* \"072StakingRewords.sol\":3463:3469  earned */\n      tag_30\n        /* \"072StakingRewords.sol\":3463:3479  earned(_account) */\n      jump\t// in\n    tag_143:\n        /* \"072StakingRewords.sol\":3439:3450  userRewards */\n      0x07\n        /* \"072StakingRewords.sol\":3439:3460  userRewards[_account] */\n      0x00\n        /* \"072StakingRewords.sol\":3451:3459  _account */\n      dup4\n        /* \"072StakingRewords.sol\":3439:3460  userRewards[_account] */\n      0xffffffffffffffffffffffffffffffffffffffff\n      and\n      0xffffffffffffffffffffffffffffffffffffffff\n      and\n      dup2\n      mstore\n      0x20\n      add\n      swap1\n      dup2\n      mstore\n      0x20\n      add\n      0x00\n      keccak256\n        /* \"072StakingRewords.sol\":3439:3479  userRewards[_account] = earned(_account) */\n      dup2\n      swap1\n      sstore\n      pop\n        /* \"072StakingRewords.sol\":3528:3548  rewardPerTokenStored */\n      sload(0x05)\n        /* \"072StakingRewords.sol\":3493:3515  userRewardPerTokenPaid */\n      0x06\n        /* \"072StakingRewords.sol\":3493:3525  userRewardPerTokenPaid[_account] */\n      0x00\n        /* \"072StakingRewords.sol\":3516:3524  _account */\n      dup4\n        /* \"072StakingRewords.sol\":3493:3525  userRewardPerTokenPaid[_account] */\n      0xffffffffffffffffffffffffffffffffffffffff\n      and\n      0xffffffffffffffffffffffffffffffffffffffff\n      and\n      dup2\n      mstore\n      0x20\n      add\n      swap1\n      dup2\n      mstore\n      0x20\n      add\n      0x00\n      keccak256\n        /* \"072StakingRewords.sol\":3493:3548  userRewardPerTokenPaid[_account] = rewardPerTokenStored */\n      dup2\n      swap1\n      sstore\n      pop\n        /* \"072StakingRewords.sol\":3336:3559  if (_account !=address(0)){... */\n    tag_142:\n        /* \"072StakingRewords.sol\":5126:5127  0 */\n      0x00\n        /* \"072StakingRewords.sol\":5117:5124  _amount */\n      dup3\n        /* \"072StakingRewords.sol\":5117:5127  _amount> 0 */\n      gt\n        /* \"072StakingRewords.sol\":5109:5140  require(_amount> 0,\"amount <0\") */\n      tag_145\n      jumpi\n      mload(0x40)\n      0x08c379a000000000000000000000000000000000000000000000000000000000\n      dup2\n      mstore\n      0x04\n      add\n      tag_146\n      swap1\n      tag_116\n      jump\t// in\n    tag_146:\n      mload(0x40)\n      dup1\n      swap2\n      sub\n      swap1\n      revert\n    tag_145:\n        /* \"072StakingRewords.sol\":5150:5162  stakingToken */\n      immutable(\"0xceebf77a833b30520287ddd9478ff51abbdffa30aa90a8d655dba0e8a79ce0c1\")\n        /* \"072StakingRewords.sol\":5150:5175  stakingToken.transferFrom */\n      0xffffffffffffffffffffffffffffffffffffffff\n      and\n      0x23b872dd\n        /* \"072StakingRewords.sol\":5176:5186  msg.sender */\n      caller\n        /* \"072StakingRewords.sol\":5196:5200  this */\n      address\n        /* \"072StakingRewords.sol\":5203:5210  _amount */\n      dup6\n        /* \"072StakingRewords.sol\":5150:5211  stakingToken.transferFrom(msg.sender, address(this), _amount) */\n      mload(0x40)\n      dup5\n      0xffffffff\n      and\n      0xe0\n      shl\n      dup2\n      mstore\n      0x04\n      add\n      tag_147\n      swap4\n      swap3\n      swap2\n      swap1\n      tag_148\n      jump\t// in\n    tag_147:\n      0x20\n      mload(0x40)\n      dup1\n      dup4\n      sub\n      dup2\n      0x00\n      dup8\n      gas\n      call\n      iszero\n      dup1\n      iszero\n      tag_150\n      jumpi\n      returndatasize\n      0x00\n      dup1\n      returndatacopy\n      revert(0x00, returndatasize)\n    tag_150:\n      pop\n      pop\n      pop\n      pop\n      mload(0x40)\n      returndatasize\n      not(0x1f)\n      0x1f\n      dup3\n      add\n      and\n      dup3\n      add\n      dup1\n      0x40\n      mstore\n      pop\n      dup2\n      add\n      swap1\n      tag_151\n      swap2\n      swap1\n      tag_124\n      jump\t// in\n    tag_151:\n      pop\n        /* \"072StakingRewords.sol\":5246:5253  _amount */\n      dup2\n        /* \"072StakingRewords.sol\":5221:5230  balanceOf */\n      0x09\n        /* \"072StakingRewords.sol\":5221:5242  balanceOf[msg.sender] */\n      0x00\n        /* \"072StakingRewords.sol\":5231:5241  msg.sender */\n      caller\n        /* \"072StakingRewords.sol\":5221:5242  balanceOf[msg.sender] */\n      0xffffffffffffffffffffffffffffffffffffffff\n      and\n      0xffffffffffffffffffffffffffffffffffffffff\n      and\n      dup2\n      mstore\n      0x20\n      add\n      swap1\n      dup2\n      mstore\n      0x20\n      add\n      0x00\n      keccak256\n      0x00\n        /* \"072StakingRewords.sol\":5221:5253  balanceOf[msg.sender] += _amount */\n      dup3\n      dup3\n      sload\n      tag_152\n      swap2\n      swap1\n      tag_107\n      jump\t// in\n    tag_152:\n      swap3\n      pop\n      pop\n      dup2\n      swap1\n      sstore\n      pop\n        /* \"072StakingRewords.sol\":5303:5310  _amount */\n      dup2\n        /* \"072StakingRewords.sol\":5288:5299  totalSupply */\n      0x08\n      0x00\n        /* \"072StakingRewords.sol\":5288:5310  totalSupply += _amount */\n      dup3\n      dup3\n      sload\n      tag_153\n      swap2\n      swap1\n      tag_107\n      jump\t// in\n    tag_153:\n      swap3\n      pop\n      pop\n      dup2\n      swap1\n      sstore\n      pop\n        /* \"072StakingRewords.sol\":5038:5333  function stake(uint _amount)external updateReward(msg.sender){... */\n      pop\n      pop\n      jump\t// out\n        /* \"072StakingRewords.sol\":4022:5006  function notifyRewardAmout(uint _amount)external onlyOwner updateReward(address(0)){... */\n    tag_79:\n        /* \"072StakingRewords.sol\":2968:2973  owner */\n      0x00\n      dup1\n      sload\n      swap1\n      0x0100\n      exp\n      swap1\n      div\n      0xffffffffffffffffffffffffffffffffffffffff\n      and\n        /* \"072StakingRewords.sol\":2953:2973  msg.sender ==  owner */\n      0xffffffffffffffffffffffffffffffffffffffff\n      and\n        /* \"072StakingRewords.sol\":2953:2963  msg.sender */\n      caller\n        /* \"072StakingRewords.sol\":2953:2973  msg.sender ==  owner */\n      0xffffffffffffffffffffffffffffffffffffffff\n      and\n      eq\n        /* \"072StakingRewords.sol\":2945:2987  require(msg.sender ==  owner, \"not owner\") */\n      tag_155\n      jumpi\n      mload(0x40)\n      0x08c379a000000000000000000000000000000000000000000000000000000000\n      dup2\n      mstore\n      0x04\n      add\n      tag_156\n      swap1\n      tag_157\n      jump\t// in\n    tag_156:\n      mload(0x40)\n      dup1\n      swap2\n      sub\n      swap1\n      revert\n    tag_155:\n        /* \"072StakingRewords.sol\":4102:4103  0 */\n      0x00\n        /* \"072StakingRewords.sol\":3214:3230  rewardPerToken() */\n      tag_159\n        /* \"072StakingRewords.sol\":3214:3228  rewardPerToken */\n      tag_90\n        /* \"072StakingRewords.sol\":3214:3230  rewardPerToken() */\n      jump\t// in\n    tag_159:\n        /* \"072StakingRewords.sol\":3191:3211  rewardPerTokenStored */\n      0x05\n        /* \"072StakingRewords.sol\":3191:3230  rewardPerTokenStored = rewardPerToken() */\n      dup2\n      swap1\n      sstore\n      pop\n        /* \"072StakingRewords.sol\":3251:3277  lastTimeRewardApplicable() */\n      tag_160\n        /* \"072StakingRewords.sol\":3251:3275  lastTimeRewardApplicable */\n      tag_64\n        /* \"072StakingRewords.sol\":3251:3277  lastTimeRewardApplicable() */\n      jump\t// in\n    tag_160:\n        /* \"072StakingRewords.sol\":3240:3248  updateAt */\n      0x03\n        /* \"072StakingRewords.sol\":3240:3277  updateAt = lastTimeRewardApplicable() */\n      dup2\n      swap1\n      sstore\n      pop\n        /* \"072StakingRewords.sol\":3359:3360  0 */\n      0x00\n        /* \"072StakingRewords.sol\":3340:3361  _account !=address(0) */\n      0xffffffffffffffffffffffffffffffffffffffff\n      and\n        /* \"072StakingRewords.sol\":3340:3348  _account */\n      dup2\n        /* \"072StakingRewords.sol\":3340:3361  _account !=address(0) */\n      0xffffffffffffffffffffffffffffffffffffffff\n      and\n      eq\n        /* \"072StakingRewords.sol\":3336:3559  if (_account !=address(0)){... */\n      tag_161\n      jumpi\n        /* \"072StakingRewords.sol\":3463:3479  earned(_account) */\n      tag_162\n        /* \"072StakingRewords.sol\":3470:3478  _account */\n      dup2\n        /* \"072StakingRewords.sol\":3463:3469  earned */\n      tag_30\n        /* \"072StakingRewords.sol\":3463:3479  earned(_account) */\n      jump\t// in\n    tag_162:\n        /* \"072StakingRewords.sol\":3439:3450  userRewards */\n      0x07\n        /* \"072StakingRewords.sol\":3439:3460  userRewards[_account] */\n      0x00\n        /* \"072StakingRewords.sol\":3451:3459  _account */\n      dup4\n        /* \"072StakingRewords.sol\":3439:3460  userRewards[_account] */\n      0xffffffffffffffffffffffffffffffffffffffff\n      and\n      0xffffffffffffffffffffffffffffffffffffffff\n      and\n      dup2\n      mstore\n      0x20\n      add\n      swap1\n      dup2\n      mstore\n      0x20\n      add\n      0x00\n      keccak256\n        /* \"072StakingRewords.sol\":3439:3479  userRewards[_account] = earned(_account) */\n      dup2\n      swap1\n      sstore\n      pop\n        /* \"072StakingRewords.sol\":3528:3548  rewardPerTokenStored */\n      sload(0x05)\n        /* \"072StakingRewords.sol\":3493:3515  userRewardPerTokenPaid */\n      0x06\n        /* \"072StakingRewords.sol\":3493:3525  userRewardPerTokenPaid[_account] */\n      0x00\n        /* \"072StakingRewords.sol\":3516:3524  _account */\n      dup4\n        /* \"072StakingRewords.sol\":3493:3525  userRewardPerTokenPaid[_account] */\n      0xffffffffffffffffffffffffffffffffffffffff\n      and\n      0xffffffffffffffffffffffffffffffffffffffff\n      and\n      dup2\n      mstore\n      0x20\n      add\n      swap1\n      dup2\n      mstore\n      0x20\n      add\n      0x00\n      keccak256\n        /* \"072StakingRewords.sol\":3493:3548  userRewardPerTokenPaid[_account] = rewardPerTokenStored */\n      dup2\n      swap1\n      sstore\n      pop\n        /* \"072StakingRewords.sol\":3336:3559  if (_account !=address(0)){... */\n    tag_161:\n        /* \"072StakingRewords.sol\":4342:4352  finishedAt */\n      sload(0x02)\n        /* \"072StakingRewords.sol\":4324:4339  block.timestamp */\n      timestamp\n        /* \"072StakingRewords.sol\":4324:4352  block.timestamp > finishedAt */\n      gt\n        /* \"072StakingRewords.sol\":4320:4724  if (block.timestamp > finishedAt) {... */\n      iszero\n      tag_164\n      jumpi\n        /* \"072StakingRewords.sol\":4391:4399  duration */\n      sload(0x01)\n        /* \"072StakingRewords.sol\":4381:4388  _amount */\n      dup3\n        /* \"072StakingRewords.sol\":4381:4399  _amount / duration */\n      tag_165\n      swap2\n      swap1\n      tag_105\n      jump\t// in\n    tag_165:\n        /* \"072StakingRewords.sol\":4368:4378  rewardRate */\n      0x04\n        /* \"072StakingRewords.sol\":4368:4399  rewardRate = _amount / duration */\n      dup2\n      swap1\n      sstore\n      pop\n        /* \"072StakingRewords.sol\":4320:4724  if (block.timestamp > finishedAt) {... */\n      jump(tag_166)\n    tag_164:\n        /* \"072StakingRewords.sol\":4543:4564  uint remainingRewards */\n      0x00\n        /* \"072StakingRewords.sol\":4593:4608  block.timestamp */\n      timestamp\n        /* \"072StakingRewords.sol\":4581:4591  finishedAt */\n      sload(0x02)\n        /* \"072StakingRewords.sol\":4581:4608  finishedAt -block.timestamp */\n      tag_167\n      swap2\n      swap1\n      tag_101\n      jump\t// in\n    tag_167:\n        /* \"072StakingRewords.sol\":4567:4577  rewardRate */\n      sload(0x04)\n        /* \"072StakingRewords.sol\":4567:4609  rewardRate * (finishedAt -block.timestamp) */\n      tag_168\n      swap2\n      swap1\n      tag_103\n      jump\t// in\n    tag_168:\n        /* \"072StakingRewords.sol\":4543:4609  uint remainingRewards = rewardRate * (finishedAt -block.timestamp) */\n      swap1\n      pop\n        /* \"072StakingRewords.sol\":4667:4675  duration */\n      sload(0x01)\n        /* \"072StakingRewords.sol\":4656:4663  _amount */\n      dup4\n        /* \"072StakingRewords.sol\":4637:4653  remainingRewards */\n      dup3\n        /* \"072StakingRewords.sol\":4637:4663  remainingRewards + _amount */\n      tag_169\n      swap2\n      swap1\n      tag_107\n      jump\t// in\n    tag_169:\n        /* \"072StakingRewords.sol\":4636:4675  (remainingRewards + _amount) / duration */\n      tag_170\n      swap2\n      swap1\n      tag_105\n      jump\t// in\n    tag_170:\n        /* \"072StakingRewords.sol\":4623:4633  rewardRate */\n      0x04\n        /* \"072StakingRewords.sol\":4623:4675  rewardRate = (remainingRewards + _amount) / duration */\n      dup2\n      swap1\n      sstore\n      pop\n        /* \"072StakingRewords.sol\":4414:4724  {... */\n      pop\n        /* \"072StakingRewords.sol\":4320:4724  if (block.timestamp > finishedAt) {... */\n    tag_166:\n        /* \"072StakingRewords.sol\":4755:4756  0 */\n      0x00\n        /* \"072StakingRewords.sol\":4742:4752  rewardRate */\n      sload(0x04)\n        /* \"072StakingRewords.sol\":4742:4756  rewardRate > 0 */\n      gt\n        /* \"072StakingRewords.sol\":4734:4775  require(rewardRate > 0, \"reward rate =0\") */\n      tag_171\n      jumpi\n      mload(0x40)\n      0x08c379a000000000000000000000000000000000000000000000000000000000\n      dup2\n      mstore\n      0x04\n      add\n      tag_172\n      swap1\n      tag_173\n      jump\t// in\n    tag_172:\n      mload(0x40)\n      dup1\n      swap2\n      sub\n      swap1\n      revert\n    tag_171:\n        /* \"072StakingRewords.sol\":4815:4827  rewardsToken */\n      immutable(\"0xe4b1702d9298fee62dfeccc57d322a463ad55ca201256d01f62b45b2e1c21c10\")\n        /* \"072StakingRewords.sol\":4815:4837  rewardsToken.balanceOf */\n      0xffffffffffffffffffffffffffffffffffffffff\n      and\n      0x70a08231\n        /* \"072StakingRewords.sol\":4846:4850  this */\n      address\n        /* \"072StakingRewords.sol\":4815:4852  rewardsToken.balanceOf(address(this)) */\n      mload(0x40)\n      dup3\n      0xffffffff\n      and\n      0xe0\n      shl\n      dup2\n      mstore\n      0x04\n      add\n      tag_174\n      swap2\n      swap1\n      tag_73\n      jump\t// in\n    tag_174:\n      0x20\n      mload(0x40)\n      dup1\n      dup4\n      sub\n      dup2\n      dup7\n      gas\n      staticcall\n      iszero\n      dup1\n      iszero\n      tag_176\n      jumpi\n      returndatasize\n      0x00\n      dup1\n      returndatacopy\n      revert(0x00, returndatasize)\n    tag_176:\n      pop\n      pop\n      pop\n      pop\n      mload(0x40)\n      returndatasize\n      not(0x1f)\n      0x1f\n      dup3\n      add\n      and\n      dup3\n      add\n      dup1\n      0x40\n      mstore\n      pop\n      dup2\n      add\n      swap1\n      tag_177\n      swap2\n      swap1\n      tag_178\n      jump\t// in\n    tag_177:\n        /* \"072StakingRewords.sol\":4804:4812  duration */\n      sload(0x01)\n        /* \"072StakingRewords.sol\":4793:4803  rewardRate */\n      sload(0x04)\n        /* \"072StakingRewords.sol\":4793:4812  rewardRate*duration */\n      tag_179\n      swap2\n      swap1\n      tag_103\n      jump\t// in\n    tag_179:\n        /* \"072StakingRewords.sol\":4793:4852  rewardRate*duration <=rewardsToken.balanceOf(address(this)) */\n      gt\n      iszero\n        /* \"072StakingRewords.sol\":4785:4883  require(rewardRate*duration <=rewardsToken.balanceOf(address(this)), \"rewward amount > balanceOf\") */\n      tag_180\n      jumpi\n      mload(0x40)\n      0x08c379a000000000000000000000000000000000000000000000000000000000\n      dup2\n      mstore\n      0x04\n      add\n      tag_181\n      swap1\n      tag_182\n      jump\t// in\n    tag_181:\n      mload(0x40)\n      dup1\n      swap2\n      sub\n      swap1\n      revert\n    tag_180:\n        /* \"072StakingRewords.sol\":4955:4963  duration */\n      sload(0x01)\n        /* \"072StakingRewords.sol\":4937:4952  block.timestamp */\n      timestamp\n        /* \"072StakingRewords.sol\":4937:4963  block.timestamp + duration */\n      tag_183\n      swap2\n      swap1\n      tag_107\n      jump\t// in\n    tag_183:\n        /* \"072StakingRewords.sol\":4924:4934  finishedAt */\n      0x02\n        /* \"072StakingRewords.sol\":4924:4963  finishedAt = block.timestamp + duration */\n      dup2\n      swap1\n      sstore\n      pop\n        /* \"072StakingRewords.sol\":4984:4999  block.timestamp */\n      timestamp\n        /* \"072StakingRewords.sol\":4973:4981  updateAt */\n      0x03\n        /* \"072StakingRewords.sol\":4973:4999  updateAt = block.timestamp */\n      dup2\n      swap1\n      sstore\n      pop\n        /* \"072StakingRewords.sol\":2997:2998  _ */\n      pop\n        /* \"072StakingRewords.sol\":4022:5006  function notifyRewardAmout(uint _amount)external onlyOwner updateReward(address(0)){... */\n      pop\n      jump\t// out\n        /* \"072StakingRewords.sol\":7610:7663  function withdrawReward(address _account) external {} */\n    tag_82:\n      pop\n      jump\t// out\n        /* \"072StakingRewords.sol\":3623:3934  function setRewardDuration(uint _duration)external onlyOwner{... */\n    tag_85:\n        /* \"072StakingRewords.sol\":2968:2973  owner */\n      0x00\n      dup1\n      sload\n      swap1\n      0x0100\n      exp\n      swap1\n      div\n      0xffffffffffffffffffffffffffffffffffffffff\n      and\n        /* \"072StakingRewords.sol\":2953:2973  msg.sender ==  owner */\n      0xffffffffffffffffffffffffffffffffffffffff\n      and\n        /* \"072StakingRewords.sol\":2953:2963  msg.sender */\n      caller\n        /* \"072StakingRewords.sol\":2953:2973  msg.sender ==  owner */\n      0xffffffffffffffffffffffffffffffffffffffff\n      and\n      eq\n        /* \"072StakingRewords.sol\":2945:2987  require(msg.sender ==  owner, \"not owner\") */\n      tag_186\n      jumpi\n      mload(0x40)\n      0x08c379a000000000000000000000000000000000000000000000000000000000\n      dup2\n      mstore\n      0x04\n      add\n      tag_187\n      swap1\n      tag_157\n      jump\t// in\n    tag_187:\n      mload(0x40)\n      dup1\n      swap2\n      sub\n      swap1\n      revert\n    tag_186:\n        /* \"072StakingRewords.sol\":3854:3864  finishedAt */\n      sload(0x02)\n        /* \"072StakingRewords.sol\":3836:3851  block.timestamp */\n      timestamp\n        /* \"072StakingRewords.sol\":3836:3864  block.timestamp > finishedAt */\n      gt\n        /* \"072StakingRewords.sol\":3828:3897  require(block.timestamp > finishedAt, \"reward duration not finished\") */\n      tag_189\n      jumpi\n      mload(0x40)\n      0x08c379a000000000000000000000000000000000000000000000000000000000\n      dup2\n      mstore\n      0x04\n      add\n      tag_190\n      swap1\n      tag_191\n      jump\t// in\n    tag_190:\n      mload(0x40)\n      dup1\n      swap2\n      sub\n      swap1\n      revert\n    tag_189:\n        /* \"072StakingRewords.sol\":3918:3927  _duration */\n      dup1\n        /* \"072StakingRewords.sol\":3907:3915  duration */\n      0x01\n        /* \"072StakingRewords.sol\":3907:3927  duration = _duration */\n      dup2\n      swap1\n      sstore\n      pop\n        /* \"072StakingRewords.sol\":3623:3934  function setRewardDuration(uint _duration)external onlyOwner{... */\n      pop\n      jump\t// out\n        /* \"072StakingRewords.sol\":2198:2218  uint public updateAt */\n    tag_87:\n      sload(0x03)\n      dup2\n      jump\t// out\n        /* \"072StakingRewords.sol\":6078:6934  function rewardPerToken() public view returns (uint){... */\n    tag_90:\n        /* \"072StakingRewords.sol\":6125:6129  uint */\n      0x00\n        /* \"072StakingRewords.sol\":6221:6222  0 */\n      dup1\n        /* \"072StakingRewords.sol\":6206:6217  totalSupply */\n      sload(0x08)\n        /* \"072StakingRewords.sol\":6206:6222  totalSupply == 0 */\n      sub\n        /* \"072StakingRewords.sol\":6202:6275  if (totalSupply == 0){... */\n      tag_193\n      jumpi\n        /* \"072StakingRewords.sol\":6244:6264  rewardPerTokenStored */\n      sload(0x05)\n        /* \"072StakingRewords.sol\":6237:6264  return rewardPerTokenStored */\n      swap1\n      pop\n      jump(tag_192)\n        /* \"072StakingRewords.sol\":6202:6275  if (totalSupply == 0){... */\n    tag_193:\n        /* \"072StakingRewords.sol\":6907:6918  totalSupply */\n      sload(0x08)\n        /* \"072StakingRewords.sol\":6900:6904  1e18 */\n      0x0de0b6b3a7640000\n        /* \"072StakingRewords.sol\":6874:6882  updateAt */\n      sload(0x03)\n        /* \"072StakingRewords.sol\":6845:6871  lastTimeRewardApplicable() */\n      tag_194\n        /* \"072StakingRewords.sol\":6845:6869  lastTimeRewardApplicable */\n      tag_64\n        /* \"072StakingRewords.sol\":6845:6871  lastTimeRewardApplicable() */\n      jump\t// in\n    tag_194:\n        /* \"072StakingRewords.sol\":6845:6882  lastTimeRewardApplicable() - updateAt */\n      tag_195\n      swap2\n      swap1\n      tag_101\n      jump\t// in\n    tag_195:\n        /* \"072StakingRewords.sol\":6831:6841  rewardRate */\n      sload(0x04)\n        /* \"072StakingRewords.sol\":6831:6883  rewardRate * (lastTimeRewardApplicable() - updateAt) */\n      tag_196\n      swap2\n      swap1\n      tag_103\n      jump\t// in\n    tag_196:\n        /* \"072StakingRewords.sol\":6813:6904  (... */\n      tag_197\n      swap2\n      swap1\n      tag_103\n      jump\t// in\n    tag_197:\n        /* \"072StakingRewords.sol\":6813:6918  (... */\n      tag_198\n      swap2\n      swap1\n      tag_105\n      jump\t// in\n    tag_198:\n        /* \"072StakingRewords.sol\":6790:6810  rewardPerTokenStored */\n      sload(0x05)\n        /* \"072StakingRewords.sol\":6790:6918  rewardPerTokenStored + (... */\n      tag_199\n      swap2\n      swap1\n      tag_107\n      jump\t// in\n    tag_199:\n        /* \"072StakingRewords.sol\":6783:6918  return rewardPerTokenStored + (... */\n      swap1\n      pop\n        /* \"072StakingRewords.sol\":6078:6934  function rewardPerToken() public view returns (uint){... */\n    tag_192:\n      swap1\n      jump\t// out\n        /* \"072StakingRewords.sol\":2045:2081  IERC20 public immutable rewardsToken */\n    tag_93:\n      immutable(\"0xe4b1702d9298fee62dfeccc57d322a463ad55ca201256d01f62b45b2e1c21c10\")\n      dup2\n      jump\t// out\n        /* \"072StakingRewords.sol\":2295:2327  uint public rewardPerTokenStored */\n    tag_96:\n      sload(0x05)\n      dup2\n      jump\t// out\n        /* \"072StakingRewords.sol\":7669:7766  function _min(uint x, uint y) private pure returns (uint) {... */\n    tag_138:\n        /* \"072StakingRewords.sol\":7721:7725  uint */\n      0x00\n        /* \"072StakingRewords.sol\":7749:7750  y */\n      dup2\n        /* \"072StakingRewords.sol\":7744:7745  x */\n      dup4\n        /* \"072StakingRewords.sol\":7744:7750  x <= y */\n      gt\n      iszero\n        /* \"072StakingRewords.sol\":7744:7758  x <= y ? x : y */\n      tag_201\n      jumpi\n        /* \"072StakingRewords.sol\":7757:7758  y */\n      dup2\n        /* \"072StakingRewords.sol\":7744:7758  x <= y ? x : y */\n      jump(tag_202)\n    tag_201:\n        /* \"072StakingRewords.sol\":7753:7754  x */\n      dup3\n        /* \"072StakingRewords.sol\":7744:7758  x <= y ? x : y */\n    tag_202:\n        /* \"072StakingRewords.sol\":7737:7758  return x <= y ? x : y */\n      swap1\n      pop\n        /* \"072StakingRewords.sol\":7669:7766  function _min(uint x, uint y) private pure returns (uint) {... */\n      swap3\n      swap2\n      pop\n      pop\n      jump\t// out\n        /* \"#utility.yul\":88:205   */\n    tag_204:\n        /* \"#utility.yul\":197:198   */\n      0x00\n        /* \"#utility.yul\":194:195   */\n      dup1\n        /* \"#utility.yul\":187:199   */\n      revert\n        /* \"#utility.yul\":334:460   */\n    tag_206:\n        /* \"#utility.yul\":371:378   */\n      0x00\n        /* \"#utility.yul\":411:453   */\n      0xffffffffffffffffffffffffffffffffffffffff\n        /* \"#utility.yul\":404:409   */\n      dup3\n        /* \"#utility.yul\":400:454   */\n      and\n        /* \"#utility.yul\":389:454   */\n      swap1\n      pop\n        /* \"#utility.yul\":334:460   */\n      swap2\n      swap1\n      pop\n      jump\t// out\n        /* \"#utility.yul\":466:562   */\n    tag_207:\n        /* \"#utility.yul\":503:510   */\n      0x00\n        /* \"#utility.yul\":532:556   */\n      tag_243\n        /* \"#utility.yul\":550:555   */\n      dup3\n        /* \"#utility.yul\":532:556   */\n      tag_206\n      jump\t// in\n    tag_243:\n        /* \"#utility.yul\":521:556   */\n      swap1\n      pop\n        /* \"#utility.yul\":466:562   */\n      swap2\n      swap1\n      pop\n      jump\t// out\n        /* \"#utility.yul\":568:690   */\n    tag_208:\n        /* \"#utility.yul\":641:665   */\n      tag_245\n        /* \"#utility.yul\":659:664   */\n      dup2\n        /* \"#utility.yul\":641:665   */\n      tag_207\n      jump\t// in\n    tag_245:\n        /* \"#utility.yul\":634:639   */\n      dup2\n        /* \"#utility.yul\":631:666   */\n      eq\n        /* \"#utility.yul\":621:684   */\n      tag_246\n      jumpi\n        /* \"#utility.yul\":680:681   */\n      0x00\n        /* \"#utility.yul\":677:678   */\n      dup1\n        /* \"#utility.yul\":670:682   */\n      revert\n        /* \"#utility.yul\":621:684   */\n    tag_246:\n        /* \"#utility.yul\":568:690   */\n      pop\n      jump\t// out\n        /* \"#utility.yul\":696:835   */\n    tag_209:\n        /* \"#utility.yul\":742:747   */\n      0x00\n        /* \"#utility.yul\":780:786   */\n      dup2\n        /* \"#utility.yul\":767:787   */\n      calldataload\n        /* \"#utility.yul\":758:787   */\n      swap1\n      pop\n        /* \"#utility.yul\":796:829   */\n      tag_248\n        /* \"#utility.yul\":823:828   */\n      dup2\n        /* \"#utility.yul\":796:829   */\n      tag_208\n      jump\t// in\n    tag_248:\n        /* \"#utility.yul\":696:835   */\n      swap3\n      swap2\n      pop\n      pop\n      jump\t// out\n        /* \"#utility.yul\":841:1170   */\n    tag_29:\n        /* \"#utility.yul\":900:906   */\n      0x00\n        /* \"#utility.yul\":949:951   */\n      0x20\n        /* \"#utility.yul\":937:946   */\n      dup3\n        /* \"#utility.yul\":928:935   */\n      dup5\n        /* \"#utility.yul\":924:947   */\n      sub\n        /* \"#utility.yul\":920:952   */\n      slt\n        /* \"#utility.yul\":917:1036   */\n      iszero\n      tag_250\n      jumpi\n        /* \"#utility.yul\":955:1034   */\n      tag_251\n      tag_204\n      jump\t// in\n    tag_251:\n        /* \"#utility.yul\":917:1036   */\n    tag_250:\n        /* \"#utility.yul\":1075:1076   */\n      0x00\n        /* \"#utility.yul\":1100:1153   */\n      tag_252\n        /* \"#utility.yul\":1145:1152   */\n      dup5\n        /* \"#utility.yul\":1136:1142   */\n      dup3\n        /* \"#utility.yul\":1125:1134   */\n      dup6\n        /* \"#utility.yul\":1121:1143   */\n      add\n        /* \"#utility.yul\":1100:1153   */\n      tag_209\n      jump\t// in\n    tag_252:\n        /* \"#utility.yul\":1090:1153   */\n      swap2\n      pop\n        /* \"#utility.yul\":1046:1163   */\n      pop\n        /* \"#utility.yul\":841:1170   */\n      swap3\n      swap2\n      pop\n      pop\n      jump\t// out\n        /* \"#utility.yul\":1176:1253   */\n    tag_210:\n        /* \"#utility.yul\":1213:1220   */\n      0x00\n        /* \"#utility.yul\":1242:1247   */\n      dup2\n        /* \"#utility.yul\":1231:1247   */\n      swap1\n      pop\n        /* \"#utility.yul\":1176:1253   */\n      swap2\n      swap1\n      pop\n      jump\t// out\n        /* \"#utility.yul\":1259:1377   */\n    tag_211:\n        /* \"#utility.yul\":1346:1370   */\n      tag_255\n        /* \"#utility.yul\":1364:1369   */\n      dup2\n        /* \"#utility.yul\":1346:1370   */\n      tag_210\n      jump\t// in\n    tag_255:\n        /* \"#utility.yul\":1341:1344   */\n      dup3\n        /* \"#utility.yul\":1334:1371   */\n      mstore\n        /* \"#utility.yul\":1259:1377   */\n      pop\n      pop\n      jump\t// out\n        /* \"#utility.yul\":1383:1605   */\n    tag_32:\n        /* \"#utility.yul\":1476:1480   */\n      0x00\n        /* \"#utility.yul\":1514:1516   */\n      0x20\n        /* \"#utility.yul\":1503:1512   */\n      dup3\n        /* \"#utility.yul\":1499:1517   */\n      add\n        /* \"#utility.yul\":1491:1517   */\n      swap1\n      pop\n        /* \"#utility.yul\":1527:1598   */\n      tag_257\n        /* \"#utility.yul\":1595:1596   */\n      0x00\n        /* \"#utility.yul\":1584:1593   */\n      dup4\n        /* \"#utility.yul\":1580:1597   */\n      add\n        /* \"#utility.yul\":1571:1577   */\n      dup5\n        /* \"#utility.yul\":1527:1598   */\n      tag_211\n      jump\t// in\n    tag_257:\n        /* \"#utility.yul\":1383:1605   */\n      swap3\n      swap2\n      pop\n      pop\n      jump\t// out\n        /* \"#utility.yul\":1611:1733   */\n    tag_212:\n        /* \"#utility.yul\":1684:1708   */\n      tag_259\n        /* \"#utility.yul\":1702:1707   */\n      dup2\n        /* \"#utility.yul\":1684:1708   */\n      tag_210\n      jump\t// in\n    tag_259:\n        /* \"#utility.yul\":1677:1682   */\n      dup2\n        /* \"#utility.yul\":1674:1709   */\n      eq\n        /* \"#utility.yul\":1664:1727   */\n      tag_260\n      jumpi\n        /* \"#utility.yul\":1723:1724   */\n      0x00\n        /* \"#utility.yul\":1720:1721   */\n      dup1\n        /* \"#utility.yul\":1713:1725   */\n      revert\n        /* \"#utility.yul\":1664:1727   */\n    tag_260:\n        /* \"#utility.yul\":1611:1733   */\n      pop\n      jump\t// out\n        /* \"#utility.yul\":1739:1878   */\n    tag_213:\n        /* \"#utility.yul\":1785:1790   */\n      0x00\n        /* \"#utility.yul\":1823:1829   */\n      dup2\n        /* \"#utility.yul\":1810:1830   */\n      calldataload\n        /* \"#utility.yul\":1801:1830   */\n      swap1\n      pop\n        /* \"#utility.yul\":1839:1872   */\n      tag_262\n        /* \"#utility.yul\":1866:1871   */\n      dup2\n        /* \"#utility.yul\":1839:1872   */\n      tag_212\n      jump\t// in\n    tag_262:\n        /* \"#utility.yul\":1739:1878   */\n      swap3\n      swap2\n      pop\n      pop\n      jump\t// out\n        /* \"#utility.yul\":1884:2213   */\n    tag_45:\n        /* \"#utility.yul\":1943:1949   */\n      0x00\n        /* \"#utility.yul\":1992:1994   */\n      0x20\n        /* \"#utility.yul\":1980:1989   */\n      dup3\n        /* \"#utility.yul\":1971:1978   */\n      dup5\n        /* \"#utility.yul\":1967:1990   */\n      sub\n        /* \"#utility.yul\":1963:1995   */\n      slt\n        /* \"#utility.yul\":1960:2079   */\n      iszero\n      tag_264\n      jumpi\n        /* \"#utility.yul\":1998:2077   */\n      tag_265\n      tag_204\n      jump\t// in\n    tag_265:\n        /* \"#utility.yul\":1960:2079   */\n    tag_264:\n        /* \"#utility.yul\":2118:2119   */\n      0x00\n        /* \"#utility.yul\":2143:2196   */\n      tag_266\n        /* \"#utility.yul\":2188:2195   */\n      dup5\n        /* \"#utility.yul\":2179:2185   */\n      dup3\n        /* \"#utility.yul\":2168:2177   */\n      dup6\n        /* \"#utility.yul\":2164:2186   */\n      add\n        /* \"#utility.yul\":2143:2196   */\n      tag_213\n      jump\t// in\n    tag_266:\n        /* \"#utility.yul\":2133:2196   */\n      swap2\n      pop\n        /* \"#utility.yul\":2089:2206   */\n      pop\n        /* \"#utility.yul\":1884:2213   */\n      swap3\n      swap2\n      pop\n      pop\n      jump\t// out\n        /* \"#utility.yul\":2219:2279   */\n    tag_214:\n        /* \"#utility.yul\":2247:2250   */\n      0x00\n        /* \"#utility.yul\":2268:2273   */\n      dup2\n        /* \"#utility.yul\":2261:2273   */\n      swap1\n      pop\n        /* \"#utility.yul\":2219:2279   */\n      swap2\n      swap1\n      pop\n      jump\t// out\n        /* \"#utility.yul\":2285:2427   */\n    tag_215:\n        /* \"#utility.yul\":2335:2344   */\n      0x00\n        /* \"#utility.yul\":2368:2421   */\n      tag_269\n        /* \"#utility.yul\":2386:2420   */\n      tag_270\n        /* \"#utility.yul\":2395:2419   */\n      tag_271\n        /* \"#utility.yul\":2413:2418   */\n      dup5\n        /* \"#utility.yul\":2395:2419   */\n      tag_206\n      jump\t// in\n    tag_271:\n        /* \"#utility.yul\":2386:2420   */\n      tag_214\n      jump\t// in\n    tag_270:\n        /* \"#utility.yul\":2368:2421   */\n      tag_206\n      jump\t// in\n    tag_269:\n        /* \"#utility.yul\":2355:2421   */\n      swap1\n      pop\n        /* \"#utility.yul\":2285:2427   */\n      swap2\n      swap1\n      pop\n      jump\t// out\n        /* \"#utility.yul\":2433:2559   */\n    tag_216:\n        /* \"#utility.yul\":2483:2492   */\n      0x00\n        /* \"#utility.yul\":2516:2553   */\n      tag_273\n        /* \"#utility.yul\":2547:2552   */\n      dup3\n        /* \"#utility.yul\":2516:2553   */\n      tag_215\n      jump\t// in\n    tag_273:\n        /* \"#utility.yul\":2503:2553   */\n      swap1\n      pop\n        /* \"#utility.yul\":2433:2559   */\n      swap2\n      swap1\n      pop\n      jump\t// out\n        /* \"#utility.yul\":2565:2705   */\n    tag_217:\n        /* \"#utility.yul\":2629:2638   */\n      0x00\n        /* \"#utility.yul\":2662:2699   */\n      tag_275\n        /* \"#utility.yul\":2693:2698   */\n      dup3\n        /* \"#utility.yul\":2662:2699   */\n      tag_216\n      jump\t// in\n    tag_275:\n        /* \"#utility.yul\":2649:2699   */\n      swap1\n      pop\n        /* \"#utility.yul\":2565:2705   */\n      swap2\n      swap1\n      pop\n      jump\t// out\n        /* \"#utility.yul\":2711:2870   */\n    tag_218:\n        /* \"#utility.yul\":2812:2863   */\n      tag_277\n        /* \"#utility.yul\":2857:2862   */\n      dup2\n        /* \"#utility.yul\":2812:2863   */\n      tag_217\n      jump\t// in\n    tag_277:\n        /* \"#utility.yul\":2807:2810   */\n      dup3\n        /* \"#utility.yul\":2800:2864   */\n      mstore\n        /* \"#utility.yul\":2711:2870   */\n      pop\n      pop\n      jump\t// out\n        /* \"#utility.yul\":2876:3126   */\n    tag_59:\n        /* \"#utility.yul\":2983:2987   */\n      0x00\n        /* \"#utility.yul\":3021:3023   */\n      0x20\n        /* \"#utility.yul\":3010:3019   */\n      dup3\n        /* \"#utility.yul\":3006:3024   */\n      add\n        /* \"#utility.yul\":2998:3024   */\n      swap1\n      pop\n        /* \"#utility.yul\":3034:3119   */\n      tag_279\n        /* \"#utility.yul\":3116:3117   */\n      0x00\n        /* \"#utility.yul\":3105:3114   */\n      dup4\n        /* \"#utility.yul\":3101:3118   */\n      add\n        /* \"#utility.yul\":3092:3098   */\n      dup5\n        /* \"#utility.yul\":3034:3119   */\n      tag_218\n      jump\t// in\n    tag_279:\n        /* \"#utility.yul\":2876:3126   */\n      swap3\n      swap2\n      pop\n      pop\n      jump\t// out\n        /* \"#utility.yul\":3132:3250   */\n    tag_219:\n        /* \"#utility.yul\":3219:3243   */\n      tag_281\n        /* \"#utility.yul\":3237:3242   */\n      dup2\n        /* \"#utility.yul\":3219:3243   */\n      tag_207\n      jump\t// in\n    tag_281:\n        /* \"#utility.yul\":3214:3217   */\n      dup3\n        /* \"#utility.yul\":3207:3244   */\n      mstore\n        /* \"#utility.yul\":3132:3250   */\n      pop\n      pop\n      jump\t// out\n        /* \"#utility.yul\":3256:3478   */\n    tag_73:\n        /* \"#utility.yul\":3349:3353   */\n      0x00\n        /* \"#utility.yul\":3387:3389   */\n      0x20\n        /* \"#utility.yul\":3376:3385   */\n      dup3\n        /* \"#utility.yul\":3372:3390   */\n      add\n        /* \"#utility.yul\":3364:3390   */\n      swap1\n      pop\n        /* \"#utility.yul\":3400:3471   */\n      tag_283\n        /* \"#utility.yul\":3468:3469   */\n      0x00\n        /* \"#utility.yul\":3457:3466   */\n      dup4\n        /* \"#utility.yul\":3453:3470   */\n      add\n        /* \"#utility.yul\":3444:3450   */\n      dup5\n        /* \"#utility.yul\":3400:3471   */\n      tag_219\n      jump\t// in\n    tag_283:\n        /* \"#utility.yul\":3256:3478   */\n      swap3\n      swap2\n      pop\n      pop\n      jump\t// out\n        /* \"#utility.yul\":3484:3664   */\n    tag_220:\n        /* \"#utility.yul\":3532:3609   */\n      0x4e487b7100000000000000000000000000000000000000000000000000000000\n        /* \"#utility.yul\":3529:3530   */\n      0x00\n        /* \"#utility.yul\":3522:3610   */\n      mstore\n        /* \"#utility.yul\":3629:3633   */\n      0x11\n        /* \"#utility.yul\":3626:3627   */\n      0x04\n        /* \"#utility.yul\":3619:3634   */\n      mstore\n        /* \"#utility.yul\":3653:3657   */\n      0x24\n        /* \"#utility.yul\":3650:3651   */\n      0x00\n        /* \"#utility.yul\":3643:3658   */\n      revert\n        /* \"#utility.yul\":3670:3864   */\n    tag_101:\n        /* \"#utility.yul\":3710:3714   */\n      0x00\n        /* \"#utility.yul\":3730:3750   */\n      tag_286\n        /* \"#utility.yul\":3748:3749   */\n      dup3\n        /* \"#utility.yul\":3730:3750   */\n      tag_210\n      jump\t// in\n    tag_286:\n        /* \"#utility.yul\":3725:3750   */\n      swap2\n      pop\n        /* \"#utility.yul\":3764:3784   */\n      tag_287\n        /* \"#utility.yul\":3782:3783   */\n      dup4\n        /* \"#utility.yul\":3764:3784   */\n      tag_210\n      jump\t// in\n    tag_287:\n        /* \"#utility.yul\":3759:3784   */\n      swap3\n      pop\n        /* \"#utility.yul\":3808:3809   */\n      dup3\n        /* \"#utility.yul\":3805:3806   */\n      dup3\n        /* \"#utility.yul\":3801:3810   */\n      sub\n        /* \"#utility.yul\":3793:3810   */\n      swap1\n      pop\n        /* \"#utility.yul\":3832:3833   */\n      dup2\n        /* \"#utility.yul\":3826:3830   */\n      dup2\n        /* \"#utility.yul\":3823:3834   */\n      gt\n        /* \"#utility.yul\":3820:3857   */\n      iszero\n      tag_288\n      jumpi\n        /* \"#utility.yul\":3837:3855   */\n      tag_289\n      tag_220\n      jump\t// in\n    tag_289:\n        /* \"#utility.yul\":3820:3857   */\n    tag_288:\n        /* \"#utility.yul\":3670:3864   */\n      swap3\n      swap2\n      pop\n      pop\n      jump\t// out\n        /* \"#utility.yul\":3870:4280   */\n    tag_103:\n        /* \"#utility.yul\":3910:3917   */\n      0x00\n        /* \"#utility.yul\":3933:3953   */\n      tag_291\n        /* \"#utility.yul\":3951:3952   */\n      dup3\n        /* \"#utility.yul\":3933:3953   */\n      tag_210\n      jump\t// in\n    tag_291:\n        /* \"#utility.yul\":3928:3953   */\n      swap2\n      pop\n        /* \"#utility.yul\":3967:3987   */\n      tag_292\n        /* \"#utility.yul\":3985:3986   */\n      dup4\n        /* \"#utility.yul\":3967:3987   */\n      tag_210\n      jump\t// in\n    tag_292:\n        /* \"#utility.yul\":3962:3987   */\n      swap3\n      pop\n        /* \"#utility.yul\":4022:4023   */\n      dup3\n        /* \"#utility.yul\":4019:4020   */\n      dup3\n        /* \"#utility.yul\":4015:4024   */\n      mul\n        /* \"#utility.yul\":4044:4074   */\n      tag_293\n        /* \"#utility.yul\":4062:4073   */\n      dup2\n        /* \"#utility.yul\":4044:4074   */\n      tag_210\n      jump\t// in\n    tag_293:\n        /* \"#utility.yul\":4033:4074   */\n      swap2\n      pop\n        /* \"#utility.yul\":4223:4224   */\n      dup3\n        /* \"#utility.yul\":4214:4221   */\n      dup3\n        /* \"#utility.yul\":4210:4225   */\n      div\n        /* \"#utility.yul\":4207:4208   */\n      dup5\n        /* \"#utility.yul\":4204:4226   */\n      eq\n        /* \"#utility.yul\":4184:4185   */\n      dup4\n        /* \"#utility.yul\":4177:4186   */\n      iszero\n        /* \"#utility.yul\":4157:4240   */\n      or\n        /* \"#utility.yul\":4134:4273   */\n      tag_294\n      jumpi\n        /* \"#utility.yul\":4253:4271   */\n      tag_295\n      tag_220\n      jump\t// in\n    tag_295:\n        /* \"#utility.yul\":4134:4273   */\n    tag_294:\n        /* \"#utility.yul\":3918:4280   */\n      pop\n        /* \"#utility.yul\":3870:4280   */\n      swap3\n      swap2\n      pop\n      pop\n      jump\t// out\n        /* \"#utility.yul\":4286:4466   */\n    tag_221:\n        /* \"#utility.yul\":4334:4411   */\n      0x4e487b7100000000000000000000000000000000000000000000000000000000\n        /* \"#utility.yul\":4331:4332   */\n      0x00\n        /* \"#utility.yul\":4324:4412   */\n      mstore\n        /* \"#utility.yul\":4431:4435   */\n      0x12\n        /* \"#utility.yul\":4428:4429   */\n      0x04\n        /* \"#utility.yul\":4421:4436   */\n      mstore\n        /* \"#utility.yul\":4455:4459   */\n      0x24\n        /* \"#utility.yul\":4452:4453   */\n      0x00\n        /* \"#utility.yul\":4445:4460   */\n      revert\n        /* \"#utility.yul\":4472:4657   */\n    tag_105:\n        /* \"#utility.yul\":4512:4513   */\n      0x00\n        /* \"#utility.yul\":4529:4549   */\n      tag_298\n        /* \"#utility.yul\":4547:4548   */\n      dup3\n        /* \"#utility.yul\":4529:4549   */\n      tag_210\n      jump\t// in\n    tag_298:\n        /* \"#utility.yul\":4524:4549   */\n      swap2\n      pop\n        /* \"#utility.yul\":4563:4583   */\n      tag_299\n        /* \"#utility.yul\":4581:4582   */\n      dup4\n        /* \"#utility.yul\":4563:4583   */\n      tag_210\n      jump\t// in\n    tag_299:\n        /* \"#utility.yul\":4558:4583   */\n      swap3\n      pop\n        /* \"#utility.yul\":4602:4603   */\n      dup3\n        /* \"#utility.yul\":4592:4627   */\n      tag_300\n      jumpi\n        /* \"#utility.yul\":4607:4625   */\n      tag_301\n      tag_221\n      jump\t// in\n    tag_301:\n        /* \"#utility.yul\":4592:4627   */\n    tag_300:\n        /* \"#utility.yul\":4649:4650   */\n      dup3\n        /* \"#utility.yul\":4646:4647   */\n      dup3\n        /* \"#utility.yul\":4642:4651   */\n      div\n        /* \"#utility.yul\":4637:4651   */\n      swap1\n      pop\n        /* \"#utility.yul\":4472:4657   */\n      swap3\n      swap2\n      pop\n      pop\n      jump\t// out\n        /* \"#utility.yul\":4663:4854   */\n    tag_107:\n        /* \"#utility.yul\":4703:4706   */\n      0x00\n        /* \"#utility.yul\":4722:4742   */\n      tag_303\n        /* \"#utility.yul\":4740:4741   */\n      dup3\n        /* \"#utility.yul\":4722:4742   */\n      tag_210\n      jump\t// in\n    tag_303:\n        /* \"#utility.yul\":4717:4742   */\n      swap2\n      pop\n        /* \"#utility.yul\":4756:4776   */\n      tag_304\n        /* \"#utility.yul\":4774:4775   */\n      dup4\n        /* \"#utility.yul\":4756:4776   */\n      tag_210\n      jump\t// in\n    tag_304:\n        /* \"#utility.yul\":4751:4776   */\n      swap3\n      pop\n        /* \"#utility.yul\":4799:4800   */\n      dup3\n        /* \"#utility.yul\":4796:4797   */\n      dup3\n        /* \"#utility.yul\":4792:4801   */\n      add\n        /* \"#utility.yul\":4785:4801   */\n      swap1\n      pop\n        /* \"#utility.yul\":4820:4823   */\n      dup1\n        /* \"#utility.yul\":4817:4818   */\n      dup3\n        /* \"#utility.yul\":4814:4824   */\n      gt\n        /* \"#utility.yul\":4811:4847   */\n      iszero\n      tag_305\n      jumpi\n        /* \"#utility.yul\":4827:4845   */\n      tag_306\n      tag_220\n      jump\t// in\n    tag_306:\n        /* \"#utility.yul\":4811:4847   */\n    tag_305:\n        /* \"#utility.yul\":4663:4854   */\n      swap3\n      swap2\n      pop\n      pop\n      jump\t// out\n        /* \"#utility.yul\":4860:5029   */\n    tag_222:\n        /* \"#utility.yul\":4944:4955   */\n      0x00\n        /* \"#utility.yul\":4978:4984   */\n      dup3\n        /* \"#utility.yul\":4973:4976   */\n      dup3\n        /* \"#utility.yul\":4966:4985   */\n      mstore\n        /* \"#utility.yul\":5018:5022   */\n      0x20\n        /* \"#utility.yul\":5013:5016   */\n      dup3\n        /* \"#utility.yul\":5009:5023   */\n      add\n        /* \"#utility.yul\":4994:5023   */\n      swap1\n      pop\n        /* \"#utility.yul\":4860:5029   */\n      swap3\n      swap2\n      pop\n      pop\n      jump\t// out\n        /* \"#utility.yul\":5035:5194   */\n    tag_223:\n        /* \"#utility.yul\":5175:5186   */\n      0x616d6f756e74203c300000000000000000000000000000000000000000000000\n        /* \"#utility.yul\":5171:5172   */\n      0x00\n        /* \"#utility.yul\":5163:5169   */\n      dup3\n        /* \"#utility.yul\":5159:5173   */\n      add\n        /* \"#utility.yul\":5152:5187   */\n      mstore\n        /* \"#utility.yul\":5035:5194   */\n      pop\n      jump\t// out\n        /* \"#utility.yul\":5200:5565   */\n    tag_224:\n        /* \"#utility.yul\":5342:5345   */\n      0x00\n        /* \"#utility.yul\":5363:5429   */\n      tag_310\n        /* \"#utility.yul\":5427:5428   */\n      0x09\n        /* \"#utility.yul\":5422:5425   */\n      dup4\n        /* \"#utility.yul\":5363:5429   */\n      tag_222\n      jump\t// in\n    tag_310:\n        /* \"#utility.yul\":5356:5429   */\n      swap2\n      pop\n        /* \"#utility.yul\":5438:5531   */\n      tag_311\n        /* \"#utility.yul\":5527:5530   */\n      dup3\n        /* \"#utility.yul\":5438:5531   */\n      tag_223\n      jump\t// in\n    tag_311:\n        /* \"#utility.yul\":5556:5558   */\n      0x20\n        /* \"#utility.yul\":5551:5554   */\n      dup3\n        /* \"#utility.yul\":5547:5559   */\n      add\n        /* \"#utility.yul\":5540:5559   */\n      swap1\n      pop\n        /* \"#utility.yul\":5200:5565   */\n      swap2\n      swap1\n      pop\n      jump\t// out\n        /* \"#utility.yul\":5571:5990   */\n    tag_116:\n        /* \"#utility.yul\":5737:5741   */\n      0x00\n        /* \"#utility.yul\":5775:5777   */\n      0x20\n        /* \"#utility.yul\":5764:5773   */\n      dup3\n        /* \"#utility.yul\":5760:5778   */\n      add\n        /* \"#utility.yul\":5752:5778   */\n      swap1\n      pop\n        /* \"#utility.yul\":5824:5833   */\n      dup2\n        /* \"#utility.yul\":5818:5822   */\n      dup2\n        /* \"#utility.yul\":5814:5834   */\n      sub\n        /* \"#utility.yul\":5810:5811   */\n      0x00\n        /* \"#utility.yul\":5799:5808   */\n      dup4\n        /* \"#utility.yul\":5795:5812   */\n      add\n        /* \"#utility.yul\":5788:5835   */\n      mstore\n        /* \"#utility.yul\":5852:5983   */\n      tag_313\n        /* \"#utility.yul\":5978:5982   */\n      dup2\n        /* \"#utility.yul\":5852:5983   */\n      tag_224\n      jump\t// in\n    tag_313:\n        /* \"#utility.yul\":5844:5983   */\n      swap1\n      pop\n        /* \"#utility.yul\":5571:5990   */\n      swap2\n      swap1\n      pop\n      jump\t// out\n        /* \"#utility.yul\":5996:6328   */\n    tag_120:\n        /* \"#utility.yul\":6117:6121   */\n      0x00\n        /* \"#utility.yul\":6155:6157   */\n      0x40\n        /* \"#utility.yul\":6144:6153   */\n      dup3\n        /* \"#utility.yul\":6140:6158   */\n      add\n        /* \"#utility.yul\":6132:6158   */\n      swap1\n      pop\n        /* \"#utility.yul\":6168:6239   */\n      tag_315\n        /* \"#utility.yul\":6236:6237   */\n      0x00\n        /* \"#utility.yul\":6225:6234   */\n      dup4\n        /* \"#utility.yul\":6221:6238   */\n      add\n        /* \"#utility.yul\":6212:6218   */\n      dup6\n        /* \"#utility.yul\":6168:6239   */\n      tag_219\n      jump\t// in\n    tag_315:\n        /* \"#utility.yul\":6249:6321   */\n      tag_316\n        /* \"#utility.yul\":6317:6319   */\n      0x20\n        /* \"#utility.yul\":6306:6315   */\n      dup4\n        /* \"#utility.yul\":6302:6320   */\n      add\n        /* \"#utility.yul\":6293:6299   */\n      dup5\n        /* \"#utility.yul\":6249:6321   */\n      tag_211\n      jump\t// in\n    tag_316:\n        /* \"#utility.yul\":5996:6328   */\n      swap4\n      swap3\n      pop\n      pop\n      pop\n      jump\t// out\n        /* \"#utility.yul\":6334:6424   */\n    tag_225:\n        /* \"#utility.yul\":6368:6375   */\n      0x00\n        /* \"#utility.yul\":6411:6416   */\n      dup2\n        /* \"#utility.yul\":6404:6417   */\n      iszero\n        /* \"#utility.yul\":6397:6418   */\n      iszero\n        /* \"#utility.yul\":6386:6418   */\n      swap1\n      pop\n        /* \"#utility.yul\":6334:6424   */\n      swap2\n      swap1\n      pop\n      jump\t// out\n        /* \"#utility.yul\":6430:6546   */\n    tag_226:\n        /* \"#utility.yul\":6500:6521   */\n      tag_319\n        /* \"#utility.yul\":6515:6520   */\n      dup2\n        /* \"#utility.yul\":6500:6521   */\n      tag_225\n      jump\t// in\n    tag_319:\n        /* \"#utility.yul\":6493:6498   */\n      dup2\n        /* \"#utility.yul\":6490:6522   */\n      eq\n        /* \"#utility.yul\":6480:6540   */\n      tag_320\n      jumpi\n        /* \"#utility.yul\":6536:6537   */\n      0x00\n        /* \"#utility.yul\":6533:6534   */\n      dup1\n        /* \"#utility.yul\":6526:6538   */\n      revert\n        /* \"#utility.yul\":6480:6540   */\n    tag_320:\n        /* \"#utility.yul\":6430:6546   */\n      pop\n      jump\t// out\n        /* \"#utility.yul\":6552:6689   */\n    tag_227:\n        /* \"#utility.yul\":6606:6611   */\n      0x00\n        /* \"#utility.yul\":6637:6643   */\n      dup2\n        /* \"#utility.yul\":6631:6644   */\n      mload\n        /* \"#utility.yul\":6622:6644   */\n      swap1\n      pop\n        /* \"#utility.yul\":6653:6683   */\n      tag_322\n        /* \"#utility.yul\":6677:6682   */\n      dup2\n        /* \"#utility.yul\":6653:6683   */\n      tag_226\n      jump\t// in\n    tag_322:\n        /* \"#utility.yul\":6552:6689   */\n      swap3\n      swap2\n      pop\n      pop\n      jump\t// out\n        /* \"#utility.yul\":6695:7040   */\n    tag_124:\n        /* \"#utility.yul\":6762:6768   */\n      0x00\n        /* \"#utility.yul\":6811:6813   */\n      0x20\n        /* \"#utility.yul\":6799:6808   */\n      dup3\n        /* \"#utility.yul\":6790:6797   */\n      dup5\n        /* \"#utility.yul\":6786:6809   */\n      sub\n        /* \"#utility.yul\":6782:6814   */\n      slt\n        /* \"#utility.yul\":6779:6898   */\n      iszero\n      tag_324\n      jumpi\n        /* \"#utility.yul\":6817:6896   */\n      tag_325\n      tag_204\n      jump\t// in\n    tag_325:\n        /* \"#utility.yul\":6779:6898   */\n    tag_324:\n        /* \"#utility.yul\":6937:6938   */\n      0x00\n        /* \"#utility.yul\":6962:7023   */\n      tag_326\n        /* \"#utility.yul\":7015:7022   */\n      dup5\n        /* \"#utility.yul\":7006:7012   */\n      dup3\n        /* \"#utility.yul\":6995:7004   */\n      dup6\n        /* \"#utility.yul\":6991:7013   */\n      add\n        /* \"#utility.yul\":6962:7023   */\n      tag_227\n      jump\t// in\n    tag_326:\n        /* \"#utility.yul\":6952:7023   */\n      swap2\n      pop\n        /* \"#utility.yul\":6908:7033   */\n      pop\n        /* \"#utility.yul\":6695:7040   */\n      swap3\n      swap2\n      pop\n      pop\n      jump\t// out\n        /* \"#utility.yul\":7046:7488   */\n    tag_148:\n        /* \"#utility.yul\":7195:7199   */\n      0x00\n        /* \"#utility.yul\":7233:7235   */\n      0x60\n        /* \"#utility.yul\":7222:7231   */\n      dup3\n        /* \"#utility.yul\":7218:7236   */\n      add\n        /* \"#utility.yul\":7210:7236   */\n      swap1\n      pop\n        /* \"#utility.yul\":7246:7317   */\n      tag_328\n        /* \"#utility.yul\":7314:7315   */\n      0x00\n        /* \"#utility.yul\":7303:7312   */\n      dup4\n        /* \"#utility.yul\":7299:7316   */\n      add\n        /* \"#utility.yul\":7290:7296   */\n      dup7\n        /* \"#utility.yul\":7246:7317   */\n      tag_219\n      jump\t// in\n    tag_328:\n        /* \"#utility.yul\":7327:7399   */\n      tag_329\n        /* \"#utility.yul\":7395:7397   */\n      0x20\n        /* \"#utility.yul\":7384:7393   */\n      dup4\n        /* \"#utility.yul\":7380:7398   */\n      add\n        /* \"#utility.yul\":7371:7377   */\n      dup6\n        /* \"#utility.yul\":7327:7399   */\n      tag_219\n      jump\t// in\n    tag_329:\n        /* \"#utility.yul\":7409:7481   */\n      tag_330\n        /* \"#utility.yul\":7477:7479   */\n      0x40\n        /* \"#utility.yul\":7466:7475   */\n      dup4\n        /* \"#utility.yul\":7462:7480   */\n      add\n        /* \"#utility.yul\":7453:7459   */\n      dup5\n        /* \"#utility.yul\":7409:7481   */\n      tag_211\n      jump\t// in\n    tag_330:\n        /* \"#utility.yul\":7046:7488   */\n      swap5\n      swap4\n      pop\n      pop\n      pop\n      pop\n      jump\t// out\n        /* \"#utility.yul\":7494:7653   */\n    tag_228:\n        /* \"#utility.yul\":7634:7645   */\n      0x6e6f74206f776e65720000000000000000000000000000000000000000000000\n        /* \"#utility.yul\":7630:7631   */\n      0x00\n        /* \"#utility.yul\":7622:7628   */\n      dup3\n        /* \"#utility.yul\":7618:7632   */\n      add\n        /* \"#utility.yul\":7611:7646   */\n      mstore\n        /* \"#utility.yul\":7494:7653   */\n      pop\n      jump\t// out\n        /* \"#utility.yul\":7659:8024   */\n    tag_229:\n        /* \"#utility.yul\":7801:7804   */\n      0x00\n        /* \"#utility.yul\":7822:7888   */\n      tag_333\n        /* \"#utility.yul\":7886:7887   */\n      0x09\n        /* \"#utility.yul\":7881:7884   */\n      dup4\n        /* \"#utility.yul\":7822:7888   */\n      tag_222\n      jump\t// in\n    tag_333:\n        /* \"#utility.yul\":7815:7888   */\n      swap2\n      pop\n        /* \"#utility.yul\":7897:7990   */\n      tag_334\n        /* \"#utility.yul\":7986:7989   */\n      dup3\n        /* \"#utility.yul\":7897:7990   */\n      tag_228\n      jump\t// in\n    tag_334:\n        /* \"#utility.yul\":8015:8017   */\n      0x20\n        /* \"#utility.yul\":8010:8013   */\n      dup3\n        /* \"#utility.yul\":8006:8018   */\n      add\n        /* \"#utility.yul\":7999:8018   */\n      swap1\n      pop\n        /* \"#utility.yul\":7659:8024   */\n      swap2\n      swap1\n      pop\n      jump\t// out\n        /* \"#utility.yul\":8030:8449   */\n    tag_157:\n        /* \"#utility.yul\":8196:8200   */\n      0x00\n        /* \"#utility.yul\":8234:8236   */\n      0x20\n        /* \"#utility.yul\":8223:8232   */\n      dup3\n        /* \"#utility.yul\":8219:8237   */\n      add\n        /* \"#utility.yul\":8211:8237   */\n      swap1\n      pop\n        /* \"#utility.yul\":8283:8292   */\n      dup2\n        /* \"#utility.yul\":8277:8281   */\n      dup2\n        /* \"#utility.yul\":8273:8293   */\n      sub\n        /* \"#utility.yul\":8269:8270   */\n      0x00\n        /* \"#utility.yul\":8258:8267   */\n      dup4\n        /* \"#utility.yul\":8254:8271   */\n      add\n        /* \"#utility.yul\":8247:8294   */\n      mstore\n        /* \"#utility.yul\":8311:8442   */\n      tag_336\n        /* \"#utility.yul\":8437:8441   */\n      dup2\n        /* \"#utility.yul\":8311:8442   */\n      tag_229\n      jump\t// in\n    tag_336:\n        /* \"#utility.yul\":8303:8442   */\n      swap1\n      pop\n        /* \"#utility.yul\":8030:8449   */\n      swap2\n      swap1\n      pop\n      jump\t// out\n        /* \"#utility.yul\":8455:8619   */\n    tag_230:\n        /* \"#utility.yul\":8595:8611   */\n      0x7265776172642072617465203d30000000000000000000000000000000000000\n        /* \"#utility.yul\":8591:8592   */\n      0x00\n        /* \"#utility.yul\":8583:8589   */\n      dup3\n        /* \"#utility.yul\":8579:8593   */\n      add\n        /* \"#utility.yul\":8572:8612   */\n      mstore\n        /* \"#utility.yul\":8455:8619   */\n      pop\n      jump\t// out\n        /* \"#utility.yul\":8625:8991   */\n    tag_231:\n        /* \"#utility.yul\":8767:8770   */\n      0x00\n        /* \"#utility.yul\":8788:8855   */\n      tag_339\n        /* \"#utility.yul\":8852:8854   */\n      0x0e\n        /* \"#utility.yul\":8847:8850   */\n      dup4\n        /* \"#utility.yul\":8788:8855   */\n      tag_222\n      jump\t// in\n    tag_339:\n        /* \"#utility.yul\":8781:8855   */\n      swap2\n      pop\n        /* \"#utility.yul\":8864:8957   */\n      tag_340\n        /* \"#utility.yul\":8953:8956   */\n      dup3\n        /* \"#utility.yul\":8864:8957   */\n      tag_230\n      jump\t// in\n    tag_340:\n        /* \"#utility.yul\":8982:8984   */\n      0x20\n        /* \"#utility.yul\":8977:8980   */\n      dup3\n        /* \"#utility.yul\":8973:8985   */\n      add\n        /* \"#utility.yul\":8966:8985   */\n      swap1\n      pop\n        /* \"#utility.yul\":8625:8991   */\n      swap2\n      swap1\n      pop\n      jump\t// out\n        /* \"#utility.yul\":8997:9416   */\n    tag_173:\n        /* \"#utility.yul\":9163:9167   */\n      0x00\n        /* \"#utility.yul\":9201:9203   */\n      0x20\n        /* \"#utility.yul\":9190:9199   */\n      dup3\n        /* \"#utility.yul\":9186:9204   */\n      add\n        /* \"#utility.yul\":9178:9204   */\n      swap1\n      pop\n        /* \"#utility.yul\":9250:9259   */\n      dup2\n        /* \"#utility.yul\":9244:9248   */\n      dup2\n        /* \"#utility.yul\":9240:9260   */\n      sub\n        /* \"#utility.yul\":9236:9237   */\n      0x00\n        /* \"#utility.yul\":9225:9234   */\n      dup4\n        /* \"#utility.yul\":9221:9238   */\n      add\n        /* \"#utility.yul\":9214:9261   */\n      mstore\n        /* \"#utility.yul\":9278:9409   */\n      tag_342\n        /* \"#utility.yul\":9404:9408   */\n      dup2\n        /* \"#utility.yul\":9278:9409   */\n      tag_231\n      jump\t// in\n    tag_342:\n        /* \"#utility.yul\":9270:9409   */\n      swap1\n      pop\n        /* \"#utility.yul\":8997:9416   */\n      swap2\n      swap1\n      pop\n      jump\t// out\n        /* \"#utility.yul\":9422:9565   */\n    tag_232:\n        /* \"#utility.yul\":9479:9484   */\n      0x00\n        /* \"#utility.yul\":9510:9516   */\n      dup2\n        /* \"#utility.yul\":9504:9517   */\n      mload\n        /* \"#utility.yul\":9495:9517   */\n      swap1\n      pop\n        /* \"#utility.yul\":9526:9559   */\n      tag_344\n        /* \"#utility.yul\":9553:9558   */\n      dup2\n        /* \"#utility.yul\":9526:9559   */\n      tag_212\n      jump\t// in\n    tag_344:\n        /* \"#utility.yul\":9422:9565   */\n      swap3\n      swap2\n      pop\n      pop\n      jump\t// out\n        /* \"#utility.yul\":9571:9922   */\n    tag_178:\n        /* \"#utility.yul\":9641:9647   */\n      0x00\n        /* \"#utility.yul\":9690:9692   */\n      0x20\n        /* \"#utility.yul\":9678:9687   */\n      dup3\n        /* \"#utility.yul\":9669:9676   */\n      dup5\n        /* \"#utility.yul\":9665:9688   */\n      sub\n        /* \"#utility.yul\":9661:9693   */\n      slt\n        /* \"#utility.yul\":9658:9777   */\n      iszero\n      tag_346\n      jumpi\n        /* \"#utility.yul\":9696:9775   */\n      tag_347\n      tag_204\n      jump\t// in\n    tag_347:\n        /* \"#utility.yul\":9658:9777   */\n    tag_346:\n        /* \"#utility.yul\":9816:9817   */\n      0x00\n        /* \"#utility.yul\":9841:9905   */\n      tag_348\n        /* \"#utility.yul\":9897:9904   */\n      dup5\n        /* \"#utility.yul\":9888:9894   */\n      dup3\n        /* \"#utility.yul\":9877:9886   */\n      dup6\n        /* \"#utility.yul\":9873:9895   */\n      add\n        /* \"#utility.yul\":9841:9905   */\n      tag_232\n      jump\t// in\n    tag_348:\n        /* \"#utility.yul\":9831:9905   */\n      swap2\n      pop\n        /* \"#utility.yul\":9787:9915   */\n      pop\n        /* \"#utility.yul\":9571:9922   */\n      swap3\n      swap2\n      pop\n      pop\n      jump\t// out\n        /* \"#utility.yul\":9928:10104   */\n    tag_233:\n        /* \"#utility.yul\":10068:10096   */\n      0x7265777761726420616d6f756e74203e2062616c616e63654f66000000000000\n        /* \"#utility.yul\":10064:10065   */\n      0x00\n        /* \"#utility.yul\":10056:10062   */\n      dup3\n        /* \"#utility.yul\":10052:10066   */\n      add\n        /* \"#utility.yul\":10045:10097   */\n      mstore\n        /* \"#utility.yul\":9928:10104   */\n      pop\n      jump\t// out\n        /* \"#utility.yul\":10110:10476   */\n    tag_234:\n        /* \"#utility.yul\":10252:10255   */\n      0x00\n        /* \"#utility.yul\":10273:10340   */\n      tag_351\n        /* \"#utility.yul\":10337:10339   */\n      0x1a\n        /* \"#utility.yul\":10332:10335   */\n      dup4\n        /* \"#utility.yul\":10273:10340   */\n      tag_222\n      jump\t// in\n    tag_351:\n        /* \"#utility.yul\":10266:10340   */\n      swap2\n      pop\n        /* \"#utility.yul\":10349:10442   */\n      tag_352\n        /* \"#utility.yul\":10438:10441   */\n      dup3\n        /* \"#utility.yul\":10349:10442   */\n      tag_233\n      jump\t// in\n    tag_352:\n        /* \"#utility.yul\":10467:10469   */\n      0x20\n        /* \"#utility.yul\":10462:10465   */\n      dup3\n        /* \"#utility.yul\":10458:10470   */\n      add\n        /* \"#utility.yul\":10451:10470   */\n      swap1\n      pop\n        /* \"#utility.yul\":10110:10476   */\n      swap2\n      swap1\n      pop\n      jump\t// out\n        /* \"#utility.yul\":10482:10901   */\n    tag_182:\n        /* \"#utility.yul\":10648:10652   */\n      0x00\n        /* \"#utility.yul\":10686:10688   */\n      0x20\n        /* \"#utility.yul\":10675:10684   */\n      dup3\n        /* \"#utility.yul\":10671:10689   */\n      add\n        /* \"#utility.yul\":10663:10689   */\n      swap1\n      pop\n        /* \"#utility.yul\":10735:10744   */\n      dup2\n        /* \"#utility.yul\":10729:10733   */\n      dup2\n        /* \"#utility.yul\":10725:10745   */\n      sub\n        /* \"#utility.yul\":10721:10722   */\n      0x00\n        /* \"#utility.yul\":10710:10719   */\n      dup4\n        /* \"#utility.yul\":10706:10723   */\n      add\n        /* \"#utility.yul\":10699:10746   */\n      mstore\n        /* \"#utility.yul\":10763:10894   */\n      tag_354\n        /* \"#utility.yul\":10889:10893   */\n      dup2\n        /* \"#utility.yul\":10763:10894   */\n      tag_234\n      jump\t// in\n    tag_354:\n        /* \"#utility.yul\":10755:10894   */\n      swap1\n      pop\n        /* \"#utility.yul\":10482:10901   */\n      swap2\n      swap1\n      pop\n      jump\t// out\n        /* \"#utility.yul\":10907:11085   */\n    tag_235:\n        /* \"#utility.yul\":11047:11077   */\n      0x726577617264206475726174696f6e206e6f742066696e697368656400000000\n        /* \"#utility.yul\":11043:11044   */\n      0x00\n        /* \"#utility.yul\":11035:11041   */\n      dup3\n        /* \"#utility.yul\":11031:11045   */\n      add\n        /* \"#utility.yul\":11024:11078   */\n      mstore\n        /* \"#utility.yul\":10907:11085   */\n      pop\n      jump\t// out\n        /* \"#utility.yul\":11091:11457   */\n    tag_236:\n        /* \"#utility.yul\":11233:11236   */\n      0x00\n        /* \"#utility.yul\":11254:11321   */\n      tag_357\n        /* \"#utility.yul\":11318:11320   */\n      0x1c\n        /* \"#utility.yul\":11313:11316   */\n      dup4\n        /* \"#utility.yul\":11254:11321   */\n      tag_222\n      jump\t// in\n    tag_357:\n        /* \"#utility.yul\":11247:11321   */\n      swap2\n      pop\n        /* \"#utility.yul\":11330:11423   */\n      tag_358\n        /* \"#utility.yul\":11419:11422   */\n      dup3\n        /* \"#utility.yul\":11330:11423   */\n      tag_235\n      jump\t// in\n    tag_358:\n        /* \"#utility.yul\":11448:11450   */\n      0x20\n        /* \"#utility.yul\":11443:11446   */\n      dup3\n        /* \"#utility.yul\":11439:11451   */\n      add\n        /* \"#utility.yul\":11432:11451   */\n      swap1\n      pop\n        /* \"#utility.yul\":11091:11457   */\n      swap2\n      swap1\n      pop\n      jump\t// out\n        /* \"#utility.yul\":11463:11882   */\n    tag_191:\n        /* \"#utility.yul\":11629:11633   */\n      0x00\n        /* \"#utility.yul\":11667:11669   */\n      0x20\n        /* \"#utility.yul\":11656:11665   */\n      dup3\n        /* \"#utility.yul\":11652:11670   */\n      add\n        /* \"#utility.yul\":11644:11670   */\n      swap1\n      pop\n        /* \"#utility.yul\":11716:11725   */\n      dup2\n        /* \"#utility.yul\":11710:11714   */\n      dup2\n        /* \"#utility.yul\":11706:11726   */\n      sub\n        /* \"#utility.yul\":11702:11703   */\n      0x00\n        /* \"#utility.yul\":11691:11700   */\n      dup4\n        /* \"#utility.yul\":11687:11704   */\n      add\n        /* \"#utility.yul\":11680:11727   */\n      mstore\n        /* \"#utility.yul\":11744:11875   */\n      tag_360\n        /* \"#utility.yul\":11870:11874   */\n      dup2\n        /* \"#utility.yul\":11744:11875   */\n      tag_236\n      jump\t// in\n    tag_360:\n        /* \"#utility.yul\":11736:11875   */\n      swap1\n      pop\n        /* \"#utility.yul\":11463:11882   */\n      swap2\n      swap1\n      pop\n      jump\t// out\n\n    auxdata: 0xa2646970667358221220037e0dca98528fef07612b923e26b285368d1e29b8611c06e1f074cce3b7305064736f6c634300081a0033\n}\n",
				"bytecode": {
					"linkReferences": {},
					"object": "60c060405234801561000f575f80fd5b5060405161186f38038061186f8339818101604052810190610031919061013d565b335f806101000a81548173ffffffffffffffffffffffffffffffffffffffff021916908373ffffffffffffffffffffffffffffffffffffffff1602179055508173ffffffffffffffffffffffffffffffffffffffff1660808173ffffffffffffffffffffffffffffffffffffffff16815250508073ffffffffffffffffffffffffffffffffffffffff1660a08173ffffffffffffffffffffffffffffffffffffffff1681525050505061017b565b5f80fd5b5f73ffffffffffffffffffffffffffffffffffffffff82169050919050565b5f61010c826100e3565b9050919050565b61011c81610102565b8114610126575f80fd5b50565b5f8151905061013781610113565b92915050565b5f8060408385031215610153576101526100df565b5b5f61016085828601610129565b925050602061017185828601610129565b9150509250929050565b60805160a0516116b76101b85f395f818161088c01528181610dfc015261105101525f8181610682015281816109480152610add01526116b75ff3fe608060405234801561000f575f80fd5b5060043610610134575f3560e01c806380faa57d116100b6578063b86e321c1161007a578063b86e321c14610328578063c0ed00c914610344578063c964f58514610360578063cd3daf9d1461037e578063d1af0c7d1461039c578063df136d65146103ba57610134565b806380faa57d146102845780638b876347146102a25780638da5cb5b146102d2578063a694fc3a146102f0578063abd551b31461030c57610134565b80633d18b912116100fd5780633d18b912146101f057806347d54bff146101fa57806370a082311461021857806372f702f3146102485780637b0a47ee1461026657610134565b80628cc262146101385780630660f1e8146101685780630fb5a6b41461019857806318160ddd146101b65780632e1a7d4d146101d4575b5f80fd5b610152600480360381019061014d91906110f0565b6103d8565b60405161015f9190611133565b60405180910390f35b610182600480360381019061017d91906110f0565b6104d3565b60405161018f9190611133565b60405180910390f35b6101a06104e8565b6040516101ad9190611133565b60405180910390f35b6101be6104ee565b6040516101cb9190611133565b60405180910390f35b6101ee60048036038101906101e99190611176565b6104f4565b005b6101f8610720565b005b61020261092b565b60405161020f9190611133565b60405180910390f35b610232600480360381019061022d91906110f0565b610931565b60405161023f9190611133565b60405180910390f35b610250610946565b60405161025d91906111fc565b60405180910390f35b61026e61096a565b60405161027b9190611133565b60405180910390f35b61028c610970565b6040516102999190611133565b60405180910390f35b6102bc60048036038101906102b791906110f0565b610982565b6040516102c99190611133565b60405180910390f35b6102da610997565b6040516102e79190611224565b60405180910390f35b61030a60048036038101906103059190611176565b6109ba565b005b61032660048036038101906103219190611176565b610be8565b005b610342600480360381019061033d91906110f0565b610f02565b005b61035e60048036038101906103599190611176565b610f05565b005b610368610fe0565b6040516103759190611133565b60405180910390f35b610386610fe6565b6040516103939190611133565b60405180910390f35b6103a461104f565b6040516103b191906111fc565b60405180910390f35b6103c2611073565b6040516103cf9190611133565b60405180910390f35b5f60075f8373ffffffffffffffffffffffffffffffffffffffff1673ffffffffffffffffffffffffffffffffffffffff1681526020019081526020015f2054670de0b6b3a764000060065f8573ffffffffffffffffffffffffffffffffffffffff1673ffffffffffffffffffffffffffffffffffffffff1681526020019081526020015f2054610466610fe6565b610470919061126a565b60095f8673ffffffffffffffffffffffffffffffffffffffff1673ffffffffffffffffffffffffffffffffffffffff1681526020019081526020015f20546104b8919061129d565b6104c2919061130b565b6104cc919061133b565b9050919050565b6007602052805f5260405f205f915090505481565b60015481565b60085481565b336104fd610fe6565b60058190555061050b610970565b6003819055505f73ffffffffffffffffffffffffffffffffffffffff168173ffffffffffffffffffffffffffffffffffffffff16146105d35761054d816103d8565b60075f8373ffffffffffffffffffffffffffffffffffffffff1673ffffffffffffffffffffffffffffffffffffffff1681526020019081526020015f208190555060055460065f8373ffffffffffffffffffffffffffffffffffffffff1673ffffffffffffffffffffffffffffffffffffffff1681526020019081526020015f20819055505b5f8211610615576040517f08c379a000000000000000000000000000000000000000000000000000000000815260040161060c906113c8565b60405180910390fd5b8160095f3373ffffffffffffffffffffffffffffffffffffffff1673ffffffffffffffffffffffffffffffffffffffff1681526020019081526020015f205f828254610661919061126a565b925050819055508160085f828254610679919061126a565b925050819055507f000000000000000000000000000000000000000000000000000000000000000073ffffffffffffffffffffffffffffffffffffffff1663a9059cbb33846040518363ffffffff1660e01b81526004016106db9291906113e6565b6020604051808303815f875af11580156106f7573d5f803e3d5ffd5b505050506040513d601f19601f8201168201806040525081019061071b9190611442565b505050565b33610729610fe6565b600581905550610737610970565b6003819055505f73ffffffffffffffffffffffffffffffffffffffff168173ffffffffffffffffffffffffffffffffffffffff16146107ff57610779816103d8565b60075f8373ffffffffffffffffffffffffffffffffffffffff1673ffffffffffffffffffffffffffffffffffffffff1681526020019081526020015f208190555060055460065f8373ffffffffffffffffffffffffffffffffffffffff1673ffffffffffffffffffffffffffffffffffffffff1681526020019081526020015f20819055505b5f60075f3373ffffffffffffffffffffffffffffffffffffffff1673ffffffffffffffffffffffffffffffffffffffff1681526020019081526020015f205490505f811115610927575f60075f3373ffffffffffffffffffffffffffffffffffffffff1673ffffffffffffffffffffffffffffffffffffffff1681526020019081526020015f20819055507f000000000000000000000000000000000000000000000000000000000000000073ffffffffffffffffffffffffffffffffffffffff1663a9059cbb33836040518363ffffffff1660e01b81526004016108e59291906113e6565b6020604051808303815f875af1158015610901573d5f803e3d5ffd5b505050506040513d601f19601f820116820180604052508101906109259190611442565b505b5050565b60025481565b6009602052805f5260405f205f915090505481565b7f000000000000000000000000000000000000000000000000000000000000000081565b60045481565b5f61097d42600254611079565b905090565b6006602052805f5260405f205f915090505481565b5f8054906101000a900473ffffffffffffffffffffffffffffffffffffffff1681565b336109c3610fe6565b6005819055506109d1610970565b6003819055505f73ffffffffffffffffffffffffffffffffffffffff168173ffffffffffffffffffffffffffffffffffffffff1614610a9957610a13816103d8565b60075f8373ffffffffffffffffffffffffffffffffffffffff1673ffffffffffffffffffffffffffffffffffffffff1681526020019081526020015f208190555060055460065f8373ffffffffffffffffffffffffffffffffffffffff1673ffffffffffffffffffffffffffffffffffffffff1681526020019081526020015f20819055505b5f8211610adb576040517f08c379a0000000000000000000000000000000000000000000000000000000008152600401610ad2906113c8565b60405180910390fd5b7f000000000000000000000000000000000000000000000000000000000000000073ffffffffffffffffffffffffffffffffffffffff166323b872dd3330856040518463ffffffff1660e01b8152600401610b389392919061146d565b6020604051808303815f875af1158015610b54573d5f803e3d5ffd5b505050506040513d601f19601f82011682018060405250810190610b789190611442565b508160095f3373ffffffffffffffffffffffffffffffffffffffff1673ffffffffffffffffffffffffffffffffffffffff1681526020019081526020015f205f828254610bc5919061133b565b925050819055508160085f828254610bdd919061133b565b925050819055505050565b5f8054906101000a900473ffffffffffffffffffffffffffffffffffffffff1673ffffffffffffffffffffffffffffffffffffffff163373ffffffffffffffffffffffffffffffffffffffff1614610c75576040517f08c379a0000000000000000000000000000000000000000000000000000000008152600401610c6c906114ec565b60405180910390fd5b5f610c7e610fe6565b600581905550610c8c610970565b6003819055505f73ffffffffffffffffffffffffffffffffffffffff168173ffffffffffffffffffffffffffffffffffffffff1614610d5457610cce816103d8565b60075f8373ffffffffffffffffffffffffffffffffffffffff1673ffffffffffffffffffffffffffffffffffffffff1681526020019081526020015f208190555060055460065f8373ffffffffffffffffffffffffffffffffffffffff1673ffffffffffffffffffffffffffffffffffffffff1681526020019081526020015f20819055505b600254421115610d775760015482610d6c919061130b565b600481905550610db6565b5f42600254610d86919061126a565b600454610d93919061129d565b90506001548382610da4919061133b565b610dae919061130b565b600481905550505b5f60045411610dfa576040517f08c379a0000000000000000000000000000000000000000000000000000000008152600401610df190611554565b60405180910390fd5b7f000000000000000000000000000000000000000000000000000000000000000073ffffffffffffffffffffffffffffffffffffffff166370a08231306040518263ffffffff1660e01b8152600401610e539190611224565b602060405180830381865afa158015610e6e573d5f803e3d5ffd5b505050506040513d601f19601f82011682018060405250810190610e929190611586565b600154600454610ea2919061129d565b1115610ee3576040517f08c379a0000000000000000000000000000000000000000000000000000000008152600401610eda906115fb565b60405180910390fd5b60015442610ef1919061133b565b600281905550426003819055505050565b50565b5f8054906101000a900473ffffffffffffffffffffffffffffffffffffffff1673ffffffffffffffffffffffffffffffffffffffff163373ffffffffffffffffffffffffffffffffffffffff1614610f92576040517f08c379a0000000000000000000000000000000000000000000000000000000008152600401610f89906114ec565b60405180910390fd5b6002544211610fd6576040517f08c379a0000000000000000000000000000000000000000000000000000000008152600401610fcd90611663565b60405180910390fd5b8060018190555050565b60035481565b5f8060085403610ffa57600554905061104c565b600854670de0b6b3a7640000600354611011610970565b61101b919061126a565b600454611028919061129d565b611032919061129d565b61103c919061130b565b600554611049919061133b565b90505b90565b7f000000000000000000000000000000000000000000000000000000000000000081565b60055481565b5f81831115611088578161108a565b825b905092915050565b5f80fd5b5f73ffffffffffffffffffffffffffffffffffffffff82169050919050565b5f6110bf82611096565b9050919050565b6110cf816110b5565b81146110d9575f80fd5b50565b5f813590506110ea816110c6565b92915050565b5f6020828403121561110557611104611092565b5b5f611112848285016110dc565b91505092915050565b5f819050919050565b61112d8161111b565b82525050565b5f6020820190506111465f830184611124565b92915050565b6111558161111b565b811461115f575f80fd5b50565b5f813590506111708161114c565b92915050565b5f6020828403121561118b5761118a611092565b5b5f61119884828501611162565b91505092915050565b5f819050919050565b5f6111c46111bf6111ba84611096565b6111a1565b611096565b9050919050565b5f6111d5826111aa565b9050919050565b5f6111e6826111cb565b9050919050565b6111f6816111dc565b82525050565b5f60208201905061120f5f8301846111ed565b92915050565b61121e816110b5565b82525050565b5f6020820190506112375f830184611215565b92915050565b7f4e487b71000000000000000000000000000000000000000000000000000000005f52601160045260245ffd5b5f6112748261111b565b915061127f8361111b565b92508282039050818111156112975761129661123d565b5b92915050565b5f6112a78261111b565b91506112b28361111b565b92508282026112c08161111b565b915082820484148315176112d7576112d661123d565b5b5092915050565b7f4e487b71000000000000000000000000000000000000000000000000000000005f52601260045260245ffd5b5f6113158261111b565b91506113208361111b565b9250826113305761132f6112de565b5b828204905092915050565b5f6113458261111b565b91506113508361111b565b92508282019050808211156113685761136761123d565b5b92915050565b5f82825260208201905092915050565b7f616d6f756e74203c3000000000000000000000000000000000000000000000005f82015250565b5f6113b260098361136e565b91506113bd8261137e565b602082019050919050565b5f6020820190508181035f8301526113df816113a6565b9050919050565b5f6040820190506113f95f830185611215565b6114066020830184611124565b9392505050565b5f8115159050919050565b6114218161140d565b811461142b575f80fd5b50565b5f8151905061143c81611418565b92915050565b5f6020828403121561145757611456611092565b5b5f6114648482850161142e565b91505092915050565b5f6060820190506114805f830186611215565b61148d6020830185611215565b61149a6040830184611124565b949350505050565b7f6e6f74206f776e657200000000000000000000000000000000000000000000005f82015250565b5f6114d660098361136e565b91506114e1826114a2565b602082019050919050565b5f6020820190508181035f830152611503816114ca565b9050919050565b7f7265776172642072617465203d300000000000000000000000000000000000005f82015250565b5f61153e600e8361136e565b91506115498261150a565b602082019050919050565b5f6020820190508181035f83015261156b81611532565b9050919050565b5f815190506115808161114c565b92915050565b5f6020828403121561159b5761159a611092565b5b5f6115a884828501611572565b91505092915050565b7f7265777761726420616d6f756e74203e2062616c616e63654f660000000000005f82015250565b5f6115e5601a8361136e565b91506115f0826115b1565b602082019050919050565b5f6020820190508181035f830152611612816115d9565b9050919050565b7f726577617264206475726174696f6e206e6f742066696e6973686564000000005f82015250565b5f61164d601c8361136e565b915061165882611619565b602082019050919050565b5f6020820190508181035f83015261167a81611641565b905091905056fea2646970667358221220037e0dca98528fef07612b923e26b285368d1e29b8611c06e1f074cce3b7305064736f6c634300081a0033",
					"opcodes": "PUSH1 0xC0 PUSH1 0x40 MSTORE CALLVALUE DUP1 ISZERO PUSH2 0xF JUMPI PUSH0 DUP1 REVERT JUMPDEST POP PUSH1 0x40 MLOAD PUSH2 0x186F CODESIZE SUB DUP1 PUSH2 0x186F DUP4 CODECOPY DUP2 DUP2 ADD PUSH1 0x40 MSTORE DUP2 ADD SWAP1 PUSH2 0x31 SWAP2 SWAP1 PUSH2 0x13D JUMP JUMPDEST CALLER PUSH0 DUP1 PUSH2 0x100 EXP DUP2 SLOAD DUP2 PUSH20 0xFFFFFFFFFFFFFFFFFFFFFFFFFFFFFFFFFFFFFFFF MUL NOT AND SWAP1 DUP4 PUSH20 0xFFFFFFFFFFFFFFFFFFFFFFFFFFFFFFFFFFFFFFFF AND MUL OR SWAP1 SSTORE POP DUP2 PUSH20 0xFFFFFFFFFFFFFFFFFFFFFFFFFFFFFFFFFFFFFFFF AND PUSH1 0x80 DUP2 PUSH20 0xFFFFFFFFFFFFFFFFFFFFFFFFFFFFFFFFFFFFFFFF AND DUP2 MSTORE POP POP DUP1 PUSH20 0xFFFFFFFFFFFFFFFFFFFFFFFFFFFFFFFFFFFFFFFF AND PUSH1 0xA0 DUP2 PUSH20 0xFFFFFFFFFFFFFFFFFFFFFFFFFFFFFFFFFFFFFFFF AND DUP2 MSTORE POP POP POP POP PUSH2 0x17B JUMP JUMPDEST PUSH0 DUP1 REVERT JUMPDEST PUSH0 PUSH20 0xFFFFFFFFFFFFFFFFFFFFFFFFFFFFFFFFFFFFFFFF DUP3 AND SWAP1 POP SWAP2 SWAP1 POP JUMP JUMPDEST PUSH0 PUSH2 0x10C DUP3 PUSH2 0xE3 JUMP JUMPDEST SWAP1 POP SWAP2 SWAP1 POP JUMP JUMPDEST PUSH2 0x11C DUP2 PUSH2 0x102 JUMP JUMPDEST DUP2 EQ PUSH2 0x126 JUMPI PUSH0 DUP1 REVERT JUMPDEST POP JUMP JUMPDEST PUSH0 DUP2 MLOAD SWAP1 POP PUSH2 0x137 DUP2 PUSH2 0x113 JUMP JUMPDEST SWAP3 SWAP2 POP POP JUMP JUMPDEST PUSH0 DUP1 PUSH1 0x40 DUP4 DUP6 SUB SLT ISZERO PUSH2 0x153 JUMPI PUSH2 0x152 PUSH2 0xDF JUMP JUMPDEST JUMPDEST PUSH0 PUSH2 0x160 DUP6 DUP3 DUP7 ADD PUSH2 0x129 JUMP JUMPDEST SWAP3 POP POP PUSH1 0x20 PUSH2 0x171 DUP6 DUP3 DUP7 ADD PUSH2 0x129 JUMP JUMPDEST SWAP2 POP POP SWAP3 POP SWAP3 SWAP1 POP JUMP JUMPDEST PUSH1 0x80 MLOAD PUSH1 0xA0 MLOAD PUSH2 0x16B7 PUSH2 0x1B8 PUSH0 CODECOPY PUSH0 DUP2 DUP2 PUSH2 0x88C ADD MSTORE DUP2 DUP2 PUSH2 0xDFC ADD MSTORE PUSH2 0x1051 ADD MSTORE PUSH0 DUP2 DUP2 PUSH2 0x682 ADD MSTORE DUP2 DUP2 PUSH2 0x948 ADD MSTORE PUSH2 0xADD ADD MSTORE PUSH2 0x16B7 PUSH0 RETURN INVALID PUSH1 0x80 PUSH1 0x40 MSTORE CALLVALUE DUP1 ISZERO PUSH2 0xF JUMPI PUSH0 DUP1 REVERT JUMPDEST POP PUSH1 0x4 CALLDATASIZE LT PUSH2 0x134 JUMPI PUSH0 CALLDATALOAD PUSH1 0xE0 SHR DUP1 PUSH4 0x80FAA57D GT PUSH2 0xB6 JUMPI DUP1 PUSH4 0xB86E321C GT PUSH2 0x7A JUMPI DUP1 PUSH4 0xB86E321C EQ PUSH2 0x328 JUMPI DUP1 PUSH4 0xC0ED00C9 EQ PUSH2 0x344 JUMPI DUP1 PUSH4 0xC964F585 EQ PUSH2 0x360 JUMPI DUP1 PUSH4 0xCD3DAF9D EQ PUSH2 0x37E JUMPI DUP1 PUSH4 0xD1AF0C7D EQ PUSH2 0x39C JUMPI DUP1 PUSH4 0xDF136D65 EQ PUSH2 0x3BA JUMPI PUSH2 0x134 JUMP JUMPDEST DUP1 PUSH4 0x80FAA57D EQ PUSH2 0x284 JUMPI DUP1 PUSH4 0x8B876347 EQ PUSH2 0x2A2 JUMPI DUP1 PUSH4 0x8DA5CB5B EQ PUSH2 0x2D2 JUMPI DUP1 PUSH4 0xA694FC3A EQ PUSH2 0x2F0 JUMPI DUP1 PUSH4 0xABD551B3 EQ PUSH2 0x30C JUMPI PUSH2 0x134 JUMP JUMPDEST DUP1 PUSH4 0x3D18B912 GT PUSH2 0xFD JUMPI DUP1 PUSH4 0x3D18B912 EQ PUSH2 0x1F0 JUMPI DUP1 PUSH4 0x47D54BFF EQ PUSH2 0x1FA JUMPI DUP1 PUSH4 0x70A08231 EQ PUSH2 0x218 JUMPI DUP1 PUSH4 0x72F702F3 EQ PUSH2 0x248 JUMPI DUP1 PUSH4 0x7B0A47EE EQ PUSH2 0x266 JUMPI PUSH2 0x134 JUMP JUMPDEST DUP1 PUSH3 0x8CC262 EQ PUSH2 0x138 JUMPI DUP1 PUSH4 0x660F1E8 EQ PUSH2 0x168 JUMPI DUP1 PUSH4 0xFB5A6B4 EQ PUSH2 0x198 JUMPI DUP1 PUSH4 0x18160DDD EQ PUSH2 0x1B6 JUMPI DUP1 PUSH4 0x2E1A7D4D EQ PUSH2 0x1D4 JUMPI JUMPDEST PUSH0 DUP1 REVERT JUMPDEST PUSH2 0x152 PUSH1 0x4 DUP1 CALLDATASIZE SUB DUP2 ADD SWAP1 PUSH2 0x14D SWAP2 SWAP1 PUSH2 0x10F0 JUMP JUMPDEST PUSH2 0x3D8 JUMP JUMPDEST PUSH1 0x40 MLOAD PUSH2 0x15F SWAP2 SWAP1 PUSH2 0x1133 JUMP JUMPDEST PUSH1 0x40 MLOAD DUP1 SWAP2 SUB SWAP1 RETURN JUMPDEST PUSH2 0x182 PUSH1 0x4 DUP1 CALLDATASIZE SUB DUP2 ADD SWAP1 PUSH2 0x17D SWAP2 SWAP1 PUSH2 0x10F0 JUMP JUMPDEST PUSH2 0x4D3 JUMP JUMPDEST PUSH1 0x40 MLOAD PUSH2 0x18F SWAP2 SWAP1 PUSH2 0x1133 JUMP JUMPDEST PUSH1 0x40 MLOAD DUP1 SWAP2 SUB SWAP1 RETURN JUMPDEST PUSH2 0x1A0 PUSH2 0x4E8 JUMP JUMPDEST PUSH1 0x40 MLOAD PUSH2 0x1AD SWAP2 SWAP1 PUSH2 0x1133 JUMP JUMPDEST PUSH1 0x40 MLOAD DUP1 SWAP2 SUB SWAP1 RETURN JUMPDEST PUSH2 0x1BE PUSH2 0x4EE JUMP JUMPDEST PUSH1 0x40 MLOAD PUSH2 0x1CB SWAP2 SWAP1 PUSH2 0x1133 JUMP JUMPDEST PUSH1 0x40 MLOAD DUP1 SWAP2 SUB SWAP1 RETURN JUMPDEST PUSH2 0x1EE PUSH1 0x4 DUP1 CALLDATASIZE SUB DUP2 ADD SWAP1 PUSH2 0x1E9 SWAP2 SWAP1 PUSH2 0x1176 JUMP JUMPDEST PUSH2 0x4F4 JUMP JUMPDEST STOP JUMPDEST PUSH2 0x1F8 PUSH2 0x720 JUMP JUMPDEST STOP JUMPDEST PUSH2 0x202 PUSH2 0x92B JUMP JUMPDEST PUSH1 0x40 MLOAD PUSH2 0x20F SWAP2 SWAP1 PUSH2 0x1133 JUMP JUMPDEST PUSH1 0x40 MLOAD DUP1 SWAP2 SUB SWAP1 RETURN JUMPDEST PUSH2 0x232 PUSH1 0x4 DUP1 CALLDATASIZE SUB DUP2 ADD SWAP1 PUSH2 0x22D SWAP2 SWAP1 PUSH2 0x10F0 JUMP JUMPDEST PUSH2 0x931 JUMP JUMPDEST PUSH1 0x40 MLOAD PUSH2 0x23F SWAP2 SWAP1 PUSH2 0x1133 JUMP JUMPDEST PUSH1 0x40 MLOAD DUP1 SWAP2 SUB SWAP1 RETURN JUMPDEST PUSH2 0x250 PUSH2 0x946 JUMP JUMPDEST PUSH1 0x40 MLOAD PUSH2 0x25D SWAP2 SWAP1 PUSH2 0x11FC JUMP JUMPDEST PUSH1 0x40 MLOAD DUP1 SWAP2 SUB SWAP1 RETURN JUMPDEST PUSH2 0x26E PUSH2 0x96A JUMP JUMPDEST PUSH1 0x40 MLOAD PUSH2 0x27B SWAP2 SWAP1 PUSH2 0x1133 JUMP JUMPDEST PUSH1 0x40 MLOAD DUP1 SWAP2 SUB SWAP1 RETURN JUMPDEST PUSH2 0x28C PUSH2 0x970 JUMP JUMPDEST PUSH1 0x40 MLOAD PUSH2 0x299 SWAP2 SWAP1 PUSH2 0x1133 JUMP JUMPDEST PUSH1 0x40 MLOAD DUP1 SWAP2 SUB SWAP1 RETURN JUMPDEST PUSH2 0x2BC PUSH1 0x4 DUP1 CALLDATASIZE SUB DUP2 ADD SWAP1 PUSH2 0x2B7 SWAP2 SWAP1 PUSH2 0x10F0 JUMP JUMPDEST PUSH2 0x982 JUMP JUMPDEST PUSH1 0x40 MLOAD PUSH2 0x2C9 SWAP2 SWAP1 PUSH2 0x1133 JUMP JUMPDEST PUSH1 0x40 MLOAD DUP1 SWAP2 SUB SWAP1 RETURN JUMPDEST PUSH2 0x2DA PUSH2 0x997 JUMP JUMPDEST PUSH1 0x40 MLOAD PUSH2 0x2E7 SWAP2 SWAP1 PUSH2 0x1224 JUMP JUMPDEST PUSH1 0x40 MLOAD DUP1 SWAP2 SUB SWAP1 RETURN JUMPDEST PUSH2 0x30A PUSH1 0x4 DUP1 CALLDATASIZE SUB DUP2 ADD SWAP1 PUSH2 0x305 SWAP2 SWAP1 PUSH2 0x1176 JUMP JUMPDEST PUSH2 0x9BA JUMP JUMPDEST STOP JUMPDEST PUSH2 0x326 PUSH1 0x4 DUP1 CALLDATASIZE SUB DUP2 ADD SWAP1 PUSH2 0x321 SWAP2 SWAP1 PUSH2 0x1176 JUMP JUMPDEST PUSH2 0xBE8 JUMP JUMPDEST STOP JUMPDEST PUSH2 0x342 PUSH1 0x4 DUP1 CALLDATASIZE SUB DUP2 ADD SWAP1 PUSH2 0x33D SWAP2 SWAP1 PUSH2 0x10F0 JUMP JUMPDEST PUSH2 0xF02 JUMP JUMPDEST STOP JUMPDEST PUSH2 0x35E PUSH1 0x4 DUP1 CALLDATASIZE SUB DUP2 ADD SWAP1 PUSH2 0x359 SWAP2 SWAP1 PUSH2 0x1176 JUMP JUMPDEST PUSH2 0xF05 JUMP JUMPDEST STOP JUMPDEST PUSH2 0x368 PUSH2 0xFE0 JUMP JUMPDEST PUSH1 0x40 MLOAD PUSH2 0x375 SWAP2 SWAP1 PUSH2 0x1133 JUMP JUMPDEST PUSH1 0x40 MLOAD DUP1 SWAP2 SUB SWAP1 RETURN JUMPDEST PUSH2 0x386 PUSH2 0xFE6 JUMP JUMPDEST PUSH1 0x40 MLOAD PUSH2 0x393 SWAP2 SWAP1 PUSH2 0x1133 JUMP JUMPDEST PUSH1 0x40 MLOAD DUP1 SWAP2 SUB SWAP1 RETURN JUMPDEST PUSH2 0x3A4 PUSH2 0x104F JUMP JUMPDEST PUSH1 0x40 MLOAD PUSH2 0x3B1 SWAP2 SWAP1 PUSH2 0x11FC JUMP JUMPDEST PUSH1 0x40 MLOAD DUP1 SWAP2 SUB SWAP1 RETURN JUMPDEST PUSH2 0x3C2 PUSH2 0x1073 JUMP JUMPDEST PUSH1 0x40 MLOAD PUSH2 0x3CF SWAP2 SWAP1 PUSH2 0x1133 JUMP JUMPDEST PUSH1 0x40 MLOAD DUP1 SWAP2 SUB SWAP1 RETURN JUMPDEST PUSH0 PUSH1 0x7 PUSH0 DUP4 PUSH20 0xFFFFFFFFFFFFFFFFFFFFFFFFFFFFFFFFFFFFFFFF AND PUSH20 0xFFFFFFFFFFFFFFFFFFFFFFFFFFFFFFFFFFFFFFFF AND DUP2 MSTORE PUSH1 0x20 ADD SWAP1 DUP2 MSTORE PUSH1 0x20 ADD PUSH0 KECCAK256 SLOAD PUSH8 0xDE0B6B3A7640000 PUSH1 0x6 PUSH0 DUP6 PUSH20 0xFFFFFFFFFFFFFFFFFFFFFFFFFFFFFFFFFFFFFFFF AND PUSH20 0xFFFFFFFFFFFFFFFFFFFFFFFFFFFFFFFFFFFFFFFF AND DUP2 MSTORE PUSH1 0x20 ADD SWAP1 DUP2 MSTORE PUSH1 0x20 ADD PUSH0 KECCAK256 SLOAD PUSH2 0x466 PUSH2 0xFE6 JUMP JUMPDEST PUSH2 0x470 SWAP2 SWAP1 PUSH2 0x126A JUMP JUMPDEST PUSH1 0x9 PUSH0 DUP7 PUSH20 0xFFFFFFFFFFFFFFFFFFFFFFFFFFFFFFFFFFFFFFFF AND PUSH20 0xFFFFFFFFFFFFFFFFFFFFFFFFFFFFFFFFFFFFFFFF AND DUP2 MSTORE PUSH1 0x20 ADD SWAP1 DUP2 MSTORE PUSH1 0x20 ADD PUSH0 KECCAK256 SLOAD PUSH2 0x4B8 SWAP2 SWAP1 PUSH2 0x129D JUMP JUMPDEST PUSH2 0x4C2 SWAP2 SWAP1 PUSH2 0x130B JUMP JUMPDEST PUSH2 0x4CC SWAP2 SWAP1 PUSH2 0x133B JUMP JUMPDEST SWAP1 POP SWAP2 SWAP1 POP JUMP JUMPDEST PUSH1 0x7 PUSH1 0x20 MSTORE DUP1 PUSH0 MSTORE PUSH1 0x40 PUSH0 KECCAK256 PUSH0 SWAP2 POP SWAP1 POP SLOAD DUP2 JUMP JUMPDEST PUSH1 0x1 SLOAD DUP2 JUMP JUMPDEST PUSH1 0x8 SLOAD DUP2 JUMP JUMPDEST CALLER PUSH2 0x4FD PUSH2 0xFE6 JUMP JUMPDEST PUSH1 0x5 DUP2 SWAP1 SSTORE POP PUSH2 0x50B PUSH2 0x970 JUMP JUMPDEST PUSH1 0x3 DUP2 SWAP1 SSTORE POP PUSH0 PUSH20 0xFFFFFFFFFFFFFFFFFFFFFFFFFFFFFFFFFFFFFFFF AND DUP2 PUSH20 0xFFFFFFFFFFFFFFFFFFFFFFFFFFFFFFFFFFFFFFFF AND EQ PUSH2 0x5D3 JUMPI PUSH2 0x54D DUP2 PUSH2 0x3D8 JUMP JUMPDEST PUSH1 0x7 PUSH0 DUP4 PUSH20 0xFFFFFFFFFFFFFFFFFFFFFFFFFFFFFFFFFFFFFFFF AND PUSH20 0xFFFFFFFFFFFFFFFFFFFFFFFFFFFFFFFFFFFFFFFF AND DUP2 MSTORE PUSH1 0x20 ADD SWAP1 DUP2 MSTORE PUSH1 0x20 ADD PUSH0 KECCAK256 DUP2 SWAP1 SSTORE POP PUSH1 0x5 SLOAD PUSH1 0x6 PUSH0 DUP4 PUSH20 0xFFFFFFFFFFFFFFFFFFFFFFFFFFFFFFFFFFFFFFFF AND PUSH20 0xFFFFFFFFFFFFFFFFFFFFFFFFFFFFFFFFFFFFFFFF AND DUP2 MSTORE PUSH1 0x20 ADD SWAP1 DUP2 MSTORE PUSH1 0x20 ADD PUSH0 KECCAK256 DUP2 SWAP1 SSTORE POP JUMPDEST PUSH0 DUP3 GT PUSH2 0x615 JUMPI PUSH1 0x40 MLOAD PUSH32 0x8C379A000000000000000000000000000000000000000000000000000000000 DUP2 MSTORE PUSH1 0x4 ADD PUSH2 0x60C SWAP1 PUSH2 0x13C8 JUMP JUMPDEST PUSH1 0x40 MLOAD DUP1 SWAP2 SUB SWAP1 REVERT JUMPDEST DUP2 PUSH1 0x9 PUSH0 CALLER PUSH20 0xFFFFFFFFFFFFFFFFFFFFFFFFFFFFFFFFFFFFFFFF AND PUSH20 0xFFFFFFFFFFFFFFFFFFFFFFFFFFFFFFFFFFFFFFFF AND DUP2 MSTORE PUSH1 0x20 ADD SWAP1 DUP2 MSTORE PUSH1 0x20 ADD PUSH0 KECCAK256 PUSH0 DUP3 DUP3 SLOAD PUSH2 0x661 SWAP2 SWAP1 PUSH2 0x126A JUMP JUMPDEST SWAP3 POP POP DUP2 SWAP1 SSTORE POP DUP2 PUSH1 0x8 PUSH0 DUP3 DUP3 SLOAD PUSH2 0x679 SWAP2 SWAP1 PUSH2 0x126A JUMP JUMPDEST SWAP3 POP POP DUP2 SWAP1 SSTORE POP PUSH32 0x0 PUSH20 0xFFFFFFFFFFFFFFFFFFFFFFFFFFFFFFFFFFFFFFFF AND PUSH4 0xA9059CBB CALLER DUP5 PUSH1 0x40 MLOAD DUP4 PUSH4 0xFFFFFFFF AND PUSH1 0xE0 SHL DUP2 MSTORE PUSH1 0x4 ADD PUSH2 0x6DB SWAP3 SWAP2 SWAP1 PUSH2 0x13E6 JUMP JUMPDEST PUSH1 0x20 PUSH1 0x40 MLOAD DUP1 DUP4 SUB DUP2 PUSH0 DUP8 GAS CALL ISZERO DUP1 ISZERO PUSH2 0x6F7 JUMPI RETURNDATASIZE PUSH0 DUP1 RETURNDATACOPY RETURNDATASIZE PUSH0 REVERT JUMPDEST POP POP POP POP PUSH1 0x40 MLOAD RETURNDATASIZE PUSH1 0x1F NOT PUSH1 0x1F DUP3 ADD AND DUP3 ADD DUP1 PUSH1 0x40 MSTORE POP DUP2 ADD SWAP1 PUSH2 0x71B SWAP2 SWAP1 PUSH2 0x1442 JUMP JUMPDEST POP POP POP JUMP JUMPDEST CALLER PUSH2 0x729 PUSH2 0xFE6 JUMP JUMPDEST PUSH1 0x5 DUP2 SWAP1 SSTORE POP PUSH2 0x737 PUSH2 0x970 JUMP JUMPDEST PUSH1 0x3 DUP2 SWAP1 SSTORE POP PUSH0 PUSH20 0xFFFFFFFFFFFFFFFFFFFFFFFFFFFFFFFFFFFFFFFF AND DUP2 PUSH20 0xFFFFFFFFFFFFFFFFFFFFFFFFFFFFFFFFFFFFFFFF AND EQ PUSH2 0x7FF JUMPI PUSH2 0x779 DUP2 PUSH2 0x3D8 JUMP JUMPDEST PUSH1 0x7 PUSH0 DUP4 PUSH20 0xFFFFFFFFFFFFFFFFFFFFFFFFFFFFFFFFFFFFFFFF AND PUSH20 0xFFFFFFFFFFFFFFFFFFFFFFFFFFFFFFFFFFFFFFFF AND DUP2 MSTORE PUSH1 0x20 ADD SWAP1 DUP2 MSTORE PUSH1 0x20 ADD PUSH0 KECCAK256 DUP2 SWAP1 SSTORE POP PUSH1 0x5 SLOAD PUSH1 0x6 PUSH0 DUP4 PUSH20 0xFFFFFFFFFFFFFFFFFFFFFFFFFFFFFFFFFFFFFFFF AND PUSH20 0xFFFFFFFFFFFFFFFFFFFFFFFFFFFFFFFFFFFFFFFF AND DUP2 MSTORE PUSH1 0x20 ADD SWAP1 DUP2 MSTORE PUSH1 0x20 ADD PUSH0 KECCAK256 DUP2 SWAP1 SSTORE POP JUMPDEST PUSH0 PUSH1 0x7 PUSH0 CALLER PUSH20 0xFFFFFFFFFFFFFFFFFFFFFFFFFFFFFFFFFFFFFFFF AND PUSH20 0xFFFFFFFFFFFFFFFFFFFFFFFFFFFFFFFFFFFFFFFF AND DUP2 MSTORE PUSH1 0x20 ADD SWAP1 DUP2 MSTORE PUSH1 0x20 ADD PUSH0 KECCAK256 SLOAD SWAP1 POP PUSH0 DUP2 GT ISZERO PUSH2 0x927 JUMPI PUSH0 PUSH1 0x7 PUSH0 CALLER PUSH20 0xFFFFFFFFFFFFFFFFFFFFFFFFFFFFFFFFFFFFFFFF AND PUSH20 0xFFFFFFFFFFFFFFFFFFFFFFFFFFFFFFFFFFFFFFFF AND DUP2 MSTORE PUSH1 0x20 ADD SWAP1 DUP2 MSTORE PUSH1 0x20 ADD PUSH0 KECCAK256 DUP2 SWAP1 SSTORE POP PUSH32 0x0 PUSH20 0xFFFFFFFFFFFFFFFFFFFFFFFFFFFFFFFFFFFFFFFF AND PUSH4 0xA9059CBB CALLER DUP4 PUSH1 0x40 MLOAD DUP4 PUSH4 0xFFFFFFFF AND PUSH1 0xE0 SHL DUP2 MSTORE PUSH1 0x4 ADD PUSH2 0x8E5 SWAP3 SWAP2 SWAP1 PUSH2 0x13E6 JUMP JUMPDEST PUSH1 0x20 PUSH1 0x40 MLOAD DUP1 DUP4 SUB DUP2 PUSH0 DUP8 GAS CALL ISZERO DUP1 ISZERO PUSH2 0x901 JUMPI RETURNDATASIZE PUSH0 DUP1 RETURNDATACOPY RETURNDATASIZE PUSH0 REVERT JUMPDEST POP POP POP POP PUSH1 0x40 MLOAD RETURNDATASIZE PUSH1 0x1F NOT PUSH1 0x1F DUP3 ADD AND DUP3 ADD DUP1 PUSH1 0x40 MSTORE POP DUP2 ADD SWAP1 PUSH2 0x925 SWAP2 SWAP1 PUSH2 0x1442 JUMP JUMPDEST POP JUMPDEST POP POP JUMP JUMPDEST PUSH1 0x2 SLOAD DUP2 JUMP JUMPDEST PUSH1 0x9 PUSH1 0x20 MSTORE DUP1 PUSH0 MSTORE PUSH1 0x40 PUSH0 KECCAK256 PUSH0 SWAP2 POP SWAP1 POP SLOAD DUP2 JUMP JUMPDEST PUSH32 0x0 DUP2 JUMP JUMPDEST PUSH1 0x4 SLOAD DUP2 JUMP JUMPDEST PUSH0 PUSH2 0x97D TIMESTAMP PUSH1 0x2 SLOAD PUSH2 0x1079 JUMP JUMPDEST SWAP1 POP SWAP1 JUMP JUMPDEST PUSH1 0x6 PUSH1 0x20 MSTORE DUP1 PUSH0 MSTORE PUSH1 0x40 PUSH0 KECCAK256 PUSH0 SWAP2 POP SWAP1 POP SLOAD DUP2 JUMP JUMPDEST PUSH0 DUP1 SLOAD SWAP1 PUSH2 0x100 EXP SWAP1 DIV PUSH20 0xFFFFFFFFFFFFFFFFFFFFFFFFFFFFFFFFFFFFFFFF AND DUP2 JUMP JUMPDEST CALLER PUSH2 0x9C3 PUSH2 0xFE6 JUMP JUMPDEST PUSH1 0x5 DUP2 SWAP1 SSTORE POP PUSH2 0x9D1 PUSH2 0x970 JUMP JUMPDEST PUSH1 0x3 DUP2 SWAP1 SSTORE POP PUSH0 PUSH20 0xFFFFFFFFFFFFFFFFFFFFFFFFFFFFFFFFFFFFFFFF AND DUP2 PUSH20 0xFFFFFFFFFFFFFFFFFFFFFFFFFFFFFFFFFFFFFFFF AND EQ PUSH2 0xA99 JUMPI PUSH2 0xA13 DUP2 PUSH2 0x3D8 JUMP JUMPDEST PUSH1 0x7 PUSH0 DUP4 PUSH20 0xFFFFFFFFFFFFFFFFFFFFFFFFFFFFFFFFFFFFFFFF AND PUSH20 0xFFFFFFFFFFFFFFFFFFFFFFFFFFFFFFFFFFFFFFFF AND DUP2 MSTORE PUSH1 0x20 ADD SWAP1 DUP2 MSTORE PUSH1 0x20 ADD PUSH0 KECCAK256 DUP2 SWAP1 SSTORE POP PUSH1 0x5 SLOAD PUSH1 0x6 PUSH0 DUP4 PUSH20 0xFFFFFFFFFFFFFFFFFFFFFFFFFFFFFFFFFFFFFFFF AND PUSH20 0xFFFFFFFFFFFFFFFFFFFFFFFFFFFFFFFFFFFFFFFF AND DUP2 MSTORE PUSH1 0x20 ADD SWAP1 DUP2 MSTORE PUSH1 0x20 ADD PUSH0 KECCAK256 DUP2 SWAP1 SSTORE POP JUMPDEST PUSH0 DUP3 GT PUSH2 0xADB JUMPI PUSH1 0x40 MLOAD PUSH32 0x8C379A000000000000000000000000000000000000000000000000000000000 DUP2 MSTORE PUSH1 0x4 ADD PUSH2 0xAD2 SWAP1 PUSH2 0x13C8 JUMP JUMPDEST PUSH1 0x40 MLOAD DUP1 SWAP2 SUB SWAP1 REVERT JUMPDEST PUSH32 0x0 PUSH20 0xFFFFFFFFFFFFFFFFFFFFFFFFFFFFFFFFFFFFFFFF AND PUSH4 0x23B872DD CALLER ADDRESS DUP6 PUSH1 0x40 MLOAD DUP5 PUSH4 0xFFFFFFFF AND PUSH1 0xE0 SHL DUP2 MSTORE PUSH1 0x4 ADD PUSH2 0xB38 SWAP4 SWAP3 SWAP2 SWAP1 PUSH2 0x146D JUMP JUMPDEST PUSH1 0x20 PUSH1 0x40 MLOAD DUP1 DUP4 SUB DUP2 PUSH0 DUP8 GAS CALL ISZERO DUP1 ISZERO PUSH2 0xB54 JUMPI RETURNDATASIZE PUSH0 DUP1 RETURNDATACOPY RETURNDATASIZE PUSH0 REVERT JUMPDEST POP POP POP POP PUSH1 0x40 MLOAD RETURNDATASIZE PUSH1 0x1F NOT PUSH1 0x1F DUP3 ADD AND DUP3 ADD DUP1 PUSH1 0x40 MSTORE POP DUP2 ADD SWAP1 PUSH2 0xB78 SWAP2 SWAP1 PUSH2 0x1442 JUMP JUMPDEST POP DUP2 PUSH1 0x9 PUSH0 CALLER PUSH20 0xFFFFFFFFFFFFFFFFFFFFFFFFFFFFFFFFFFFFFFFF AND PUSH20 0xFFFFFFFFFFFFFFFFFFFFFFFFFFFFFFFFFFFFFFFF AND DUP2 MSTORE PUSH1 0x20 ADD SWAP1 DUP2 MSTORE PUSH1 0x20 ADD PUSH0 KECCAK256 PUSH0 DUP3 DUP3 SLOAD PUSH2 0xBC5 SWAP2 SWAP1 PUSH2 0x133B JUMP JUMPDEST SWAP3 POP POP DUP2 SWAP1 SSTORE POP DUP2 PUSH1 0x8 PUSH0 DUP3 DUP3 SLOAD PUSH2 0xBDD SWAP2 SWAP1 PUSH2 0x133B JUMP JUMPDEST SWAP3 POP POP DUP2 SWAP1 SSTORE POP POP POP JUMP JUMPDEST PUSH0 DUP1 SLOAD SWAP1 PUSH2 0x100 EXP SWAP1 DIV PUSH20 0xFFFFFFFFFFFFFFFFFFFFFFFFFFFFFFFFFFFFFFFF AND PUSH20 0xFFFFFFFFFFFFFFFFFFFFFFFFFFFFFFFFFFFFFFFF AND CALLER PUSH20 0xFFFFFFFFFFFFFFFFFFFFFFFFFFFFFFFFFFFFFFFF AND EQ PUSH2 0xC75 JUMPI PUSH1 0x40 MLOAD PUSH32 0x8C379A000000000000000000000000000000000000000000000000000000000 DUP2 MSTORE PUSH1 0x4 ADD PUSH2 0xC6C SWAP1 PUSH2 0x14EC JUMP JUMPDEST PUSH1 0x40 MLOAD DUP1 SWAP2 SUB SWAP1 REVERT JUMPDEST PUSH0 PUSH2 0xC7E PUSH2 0xFE6 JUMP JUMPDEST PUSH1 0x5 DUP2 SWAP1 SSTORE POP PUSH2 0xC8C PUSH2 0x970 JUMP JUMPDEST PUSH1 0x3 DUP2 SWAP1 SSTORE POP PUSH0 PUSH20 0xFFFFFFFFFFFFFFFFFFFFFFFFFFFFFFFFFFFFFFFF AND DUP2 PUSH20 0xFFFFFFFFFFFFFFFFFFFFFFFFFFFFFFFFFFFFFFFF AND EQ PUSH2 0xD54 JUMPI PUSH2 0xCCE DUP2 PUSH2 0x3D8 JUMP JUMPDEST PUSH1 0x7 PUSH0 DUP4 PUSH20 0xFFFFFFFFFFFFFFFFFFFFFFFFFFFFFFFFFFFFFFFF AND PUSH20 0xFFFFFFFFFFFFFFFFFFFFFFFFFFFFFFFFFFFFFFFF AND DUP2 MSTORE PUSH1 0x20 ADD SWAP1 DUP2 MSTORE PUSH1 0x20 ADD PUSH0 KECCAK256 DUP2 SWAP1 SSTORE POP PUSH1 0x5 SLOAD PUSH1 0x6 PUSH0 DUP4 PUSH20 0xFFFFFFFFFFFFFFFFFFFFFFFFFFFFFFFFFFFFFFFF AND PUSH20 0xFFFFFFFFFFFFFFFFFFFFFFFFFFFFFFFFFFFFFFFF AND DUP2 MSTORE PUSH1 0x20 ADD SWAP1 DUP2 MSTORE PUSH1 0x20 ADD PUSH0 KECCAK256 DUP2 SWAP1 SSTORE POP JUMPDEST PUSH1 0x2 SLOAD TIMESTAMP GT ISZERO PUSH2 0xD77 JUMPI PUSH1 0x1 SLOAD DUP3 PUSH2 0xD6C SWAP2 SWAP1 PUSH2 0x130B JUMP JUMPDEST PUSH1 0x4 DUP2 SWAP1 SSTORE POP PUSH2 0xDB6 JUMP JUMPDEST PUSH0 TIMESTAMP PUSH1 0x2 SLOAD PUSH2 0xD86 SWAP2 SWAP1 PUSH2 0x126A JUMP JUMPDEST PUSH1 0x4 SLOAD PUSH2 0xD93 SWAP2 SWAP1 PUSH2 0x129D JUMP JUMPDEST SWAP1 POP PUSH1 0x1 SLOAD DUP4 DUP3 PUSH2 0xDA4 SWAP2 SWAP1 PUSH2 0x133B JUMP JUMPDEST PUSH2 0xDAE SWAP2 SWAP1 PUSH2 0x130B JUMP JUMPDEST PUSH1 0x4 DUP2 SWAP1 SSTORE POP POP JUMPDEST PUSH0 PUSH1 0x4 SLOAD GT PUSH2 0xDFA JUMPI PUSH1 0x40 MLOAD PUSH32 0x8C379A000000000000000000000000000000000000000000000000000000000 DUP2 MSTORE PUSH1 0x4 ADD PUSH2 0xDF1 SWAP1 PUSH2 0x1554 JUMP JUMPDEST PUSH1 0x40 MLOAD DUP1 SWAP2 SUB SWAP1 REVERT JUMPDEST PUSH32 0x0 PUSH20 0xFFFFFFFFFFFFFFFFFFFFFFFFFFFFFFFFFFFFFFFF AND PUSH4 0x70A08231 ADDRESS PUSH1 0x40 MLOAD DUP3 PUSH4 0xFFFFFFFF AND PUSH1 0xE0 SHL DUP2 MSTORE PUSH1 0x4 ADD PUSH2 0xE53 SWAP2 SWAP1 PUSH2 0x1224 JUMP JUMPDEST PUSH1 0x20 PUSH1 0x40 MLOAD DUP1 DUP4 SUB DUP2 DUP7 GAS STATICCALL ISZERO DUP1 ISZERO PUSH2 0xE6E JUMPI RETURNDATASIZE PUSH0 DUP1 RETURNDATACOPY RETURNDATASIZE PUSH0 REVERT JUMPDEST POP POP POP POP PUSH1 0x40 MLOAD RETURNDATASIZE PUSH1 0x1F NOT PUSH1 0x1F DUP3 ADD AND DUP3 ADD DUP1 PUSH1 0x40 MSTORE POP DUP2 ADD SWAP1 PUSH2 0xE92 SWAP2 SWAP1 PUSH2 0x1586 JUMP JUMPDEST PUSH1 0x1 SLOAD PUSH1 0x4 SLOAD PUSH2 0xEA2 SWAP2 SWAP1 PUSH2 0x129D JUMP JUMPDEST GT ISZERO PUSH2 0xEE3 JUMPI PUSH1 0x40 MLOAD PUSH32 0x8C379A000000000000000000000000000000000000000000000000000000000 DUP2 MSTORE PUSH1 0x4 ADD PUSH2 0xEDA SWAP1 PUSH2 0x15FB JUMP JUMPDEST PUSH1 0x40 MLOAD DUP1 SWAP2 SUB SWAP1 REVERT JUMPDEST PUSH1 0x1 SLOAD TIMESTAMP PUSH2 0xEF1 SWAP2 SWAP1 PUSH2 0x133B JUMP JUMPDEST PUSH1 0x2 DUP2 SWAP1 SSTORE POP TIMESTAMP PUSH1 0x3 DUP2 SWAP1 SSTORE POP POP POP JUMP JUMPDEST POP JUMP JUMPDEST PUSH0 DUP1 SLOAD SWAP1 PUSH2 0x100 EXP SWAP1 DIV PUSH20 0xFFFFFFFFFFFFFFFFFFFFFFFFFFFFFFFFFFFFFFFF AND PUSH20 0xFFFFFFFFFFFFFFFFFFFFFFFFFFFFFFFFFFFFFFFF AND CALLER PUSH20 0xFFFFFFFFFFFFFFFFFFFFFFFFFFFFFFFFFFFFFFFF AND EQ PUSH2 0xF92 JUMPI PUSH1 0x40 MLOAD PUSH32 0x8C379A000000000000000000000000000000000000000000000000000000000 DUP2 MSTORE PUSH1 0x4 ADD PUSH2 0xF89 SWAP1 PUSH2 0x14EC JUMP JUMPDEST PUSH1 0x40 MLOAD DUP1 SWAP2 SUB SWAP1 REVERT JUMPDEST PUSH1 0x2 SLOAD TIMESTAMP GT PUSH2 0xFD6 JUMPI PUSH1 0x40 MLOAD PUSH32 0x8C379A000000000000000000000000000000000000000000000000000000000 DUP2 MSTORE PUSH1 0x4 ADD PUSH2 0xFCD SWAP1 PUSH2 0x1663 JUMP JUMPDEST PUSH1 0x40 MLOAD DUP1 SWAP2 SUB SWAP1 REVERT JUMPDEST DUP1 PUSH1 0x1 DUP2 SWAP1 SSTORE POP POP JUMP JUMPDEST PUSH1 0x3 SLOAD DUP2 JUMP JUMPDEST PUSH0 DUP1 PUSH1 0x8 SLOAD SUB PUSH2 0xFFA JUMPI PUSH1 0x5 SLOAD SWAP1 POP PUSH2 0x104C JUMP JUMPDEST PUSH1 0x8 SLOAD PUSH8 0xDE0B6B3A7640000 PUSH1 0x3 SLOAD PUSH2 0x1011 PUSH2 0x970 JUMP JUMPDEST PUSH2 0x101B SWAP2 SWAP1 PUSH2 0x126A JUMP JUMPDEST PUSH1 0x4 SLOAD PUSH2 0x1028 SWAP2 SWAP1 PUSH2 0x129D JUMP JUMPDEST PUSH2 0x1032 SWAP2 SWAP1 PUSH2 0x129D JUMP JUMPDEST PUSH2 0x103C SWAP2 SWAP1 PUSH2 0x130B JUMP JUMPDEST PUSH1 0x5 SLOAD PUSH2 0x1049 SWAP2 SWAP1 PUSH2 0x133B JUMP JUMPDEST SWAP1 POP JUMPDEST SWAP1 JUMP JUMPDEST PUSH32 0x0 DUP2 JUMP JUMPDEST PUSH1 0x5 SLOAD DUP2 JUMP JUMPDEST PUSH0 DUP2 DUP4 GT ISZERO PUSH2 0x1088 JUMPI DUP2 PUSH2 0x108A JUMP JUMPDEST DUP3 JUMPDEST SWAP1 POP SWAP3 SWAP2 POP POP JUMP JUMPDEST PUSH0 DUP1 REVERT JUMPDEST PUSH0 PUSH20 0xFFFFFFFFFFFFFFFFFFFFFFFFFFFFFFFFFFFFFFFF DUP3 AND SWAP1 POP SWAP2 SWAP1 POP JUMP JUMPDEST PUSH0 PUSH2 0x10BF DUP3 PUSH2 0x1096 JUMP JUMPDEST SWAP1 POP SWAP2 SWAP1 POP JUMP JUMPDEST PUSH2 0x10CF DUP2 PUSH2 0x10B5 JUMP JUMPDEST DUP2 EQ PUSH2 0x10D9 JUMPI PUSH0 DUP1 REVERT JUMPDEST POP JUMP JUMPDEST PUSH0 DUP2 CALLDATALOAD SWAP1 POP PUSH2 0x10EA DUP2 PUSH2 0x10C6 JUMP JUMPDEST SWAP3 SWAP2 POP POP JUMP JUMPDEST PUSH0 PUSH1 0x20 DUP3 DUP5 SUB SLT ISZERO PUSH2 0x1105 JUMPI PUSH2 0x1104 PUSH2 0x1092 JUMP JUMPDEST JUMPDEST PUSH0 PUSH2 0x1112 DUP5 DUP3 DUP6 ADD PUSH2 0x10DC JUMP JUMPDEST SWAP2 POP POP SWAP3 SWAP2 POP POP JUMP JUMPDEST PUSH0 DUP2 SWAP1 POP SWAP2 SWAP1 POP JUMP JUMPDEST PUSH2 0x112D DUP2 PUSH2 0x111B JUMP JUMPDEST DUP3 MSTORE POP POP JUMP JUMPDEST PUSH0 PUSH1 0x20 DUP3 ADD SWAP1 POP PUSH2 0x1146 PUSH0 DUP4 ADD DUP5 PUSH2 0x1124 JUMP JUMPDEST SWAP3 SWAP2 POP POP JUMP JUMPDEST PUSH2 0x1155 DUP2 PUSH2 0x111B JUMP JUMPDEST DUP2 EQ PUSH2 0x115F JUMPI PUSH0 DUP1 REVERT JUMPDEST POP JUMP JUMPDEST PUSH0 DUP2 CALLDATALOAD SWAP1 POP PUSH2 0x1170 DUP2 PUSH2 0x114C JUMP JUMPDEST SWAP3 SWAP2 POP POP JUMP JUMPDEST PUSH0 PUSH1 0x20 DUP3 DUP5 SUB SLT ISZERO PUSH2 0x118B JUMPI PUSH2 0x118A PUSH2 0x1092 JUMP JUMPDEST JUMPDEST PUSH0 PUSH2 0x1198 DUP5 DUP3 DUP6 ADD PUSH2 0x1162 JUMP JUMPDEST SWAP2 POP POP SWAP3 SWAP2 POP POP JUMP JUMPDEST PUSH0 DUP2 SWAP1 POP SWAP2 SWAP1 POP JUMP JUMPDEST PUSH0 PUSH2 0x11C4 PUSH2 0x11BF PUSH2 0x11BA DUP5 PUSH2 0x1096 JUMP JUMPDEST PUSH2 0x11A1 JUMP JUMPDEST PUSH2 0x1096 JUMP JUMPDEST SWAP1 POP SWAP2 SWAP1 POP JUMP JUMPDEST PUSH0 PUSH2 0x11D5 DUP3 PUSH2 0x11AA JUMP JUMPDEST SWAP1 POP SWAP2 SWAP1 POP JUMP JUMPDEST PUSH0 PUSH2 0x11E6 DUP3 PUSH2 0x11CB JUMP JUMPDEST SWAP1 POP SWAP2 SWAP1 POP JUMP JUMPDEST PUSH2 0x11F6 DUP2 PUSH2 0x11DC JUMP JUMPDEST DUP3 MSTORE POP POP JUMP JUMPDEST PUSH0 PUSH1 0x20 DUP3 ADD SWAP1 POP PUSH2 0x120F PUSH0 DUP4 ADD DUP5 PUSH2 0x11ED JUMP JUMPDEST SWAP3 SWAP2 POP POP JUMP JUMPDEST PUSH2 0x121E DUP2 PUSH2 0x10B5 JUMP JUMPDEST DUP3 MSTORE POP POP JUMP JUMPDEST PUSH0 PUSH1 0x20 DUP3 ADD SWAP1 POP PUSH2 0x1237 PUSH0 DUP4 ADD DUP5 PUSH2 0x1215 JUMP JUMPDEST SWAP3 SWAP2 POP POP JUMP JUMPDEST PUSH32 0x4E487B7100000000000000000000000000000000000000000000000000000000 PUSH0 MSTORE PUSH1 0x11 PUSH1 0x4 MSTORE PUSH1 0x24 PUSH0 REVERT JUMPDEST PUSH0 PUSH2 0x1274 DUP3 PUSH2 0x111B JUMP JUMPDEST SWAP2 POP PUSH2 0x127F DUP4 PUSH2 0x111B JUMP JUMPDEST SWAP3 POP DUP3 DUP3 SUB SWAP1 POP DUP2 DUP2 GT ISZERO PUSH2 0x1297 JUMPI PUSH2 0x1296 PUSH2 0x123D JUMP JUMPDEST JUMPDEST SWAP3 SWAP2 POP POP JUMP JUMPDEST PUSH0 PUSH2 0x12A7 DUP3 PUSH2 0x111B JUMP JUMPDEST SWAP2 POP PUSH2 0x12B2 DUP4 PUSH2 0x111B JUMP JUMPDEST SWAP3 POP DUP3 DUP3 MUL PUSH2 0x12C0 DUP2 PUSH2 0x111B JUMP JUMPDEST SWAP2 POP DUP3 DUP3 DIV DUP5 EQ DUP4 ISZERO OR PUSH2 0x12D7 JUMPI PUSH2 0x12D6 PUSH2 0x123D JUMP JUMPDEST JUMPDEST POP SWAP3 SWAP2 POP POP JUMP JUMPDEST PUSH32 0x4E487B7100000000000000000000000000000000000000000000000000000000 PUSH0 MSTORE PUSH1 0x12 PUSH1 0x4 MSTORE PUSH1 0x24 PUSH0 REVERT JUMPDEST PUSH0 PUSH2 0x1315 DUP3 PUSH2 0x111B JUMP JUMPDEST SWAP2 POP PUSH2 0x1320 DUP4 PUSH2 0x111B JUMP JUMPDEST SWAP3 POP DUP3 PUSH2 0x1330 JUMPI PUSH2 0x132F PUSH2 0x12DE JUMP JUMPDEST JUMPDEST DUP3 DUP3 DIV SWAP1 POP SWAP3 SWAP2 POP POP JUMP JUMPDEST PUSH0 PUSH2 0x1345 DUP3 PUSH2 0x111B JUMP JUMPDEST SWAP2 POP PUSH2 0x1350 DUP4 PUSH2 0x111B JUMP JUMPDEST SWAP3 POP DUP3 DUP3 ADD SWAP1 POP DUP1 DUP3 GT ISZERO PUSH2 0x1368 JUMPI PUSH2 0x1367 PUSH2 0x123D JUMP JUMPDEST JUMPDEST SWAP3 SWAP2 POP POP JUMP JUMPDEST PUSH0 DUP3 DUP3 MSTORE PUSH1 0x20 DUP3 ADD SWAP1 POP SWAP3 SWAP2 POP POP JUMP JUMPDEST PUSH32 0x616D6F756E74203C300000000000000000000000000000000000000000000000 PUSH0 DUP3 ADD MSTORE POP JUMP JUMPDEST PUSH0 PUSH2 0x13B2 PUSH1 0x9 DUP4 PUSH2 0x136E JUMP JUMPDEST SWAP2 POP PUSH2 0x13BD DUP3 PUSH2 0x137E JUMP JUMPDEST PUSH1 0x20 DUP3 ADD SWAP1 POP SWAP2 SWAP1 POP JUMP JUMPDEST PUSH0 PUSH1 0x20 DUP3 ADD SWAP1 POP DUP2 DUP2 SUB PUSH0 DUP4 ADD MSTORE PUSH2 0x13DF DUP2 PUSH2 0x13A6 JUMP JUMPDEST SWAP1 POP SWAP2 SWAP1 POP JUMP JUMPDEST PUSH0 PUSH1 0x40 DUP3 ADD SWAP1 POP PUSH2 0x13F9 PUSH0 DUP4 ADD DUP6 PUSH2 0x1215 JUMP JUMPDEST PUSH2 0x1406 PUSH1 0x20 DUP4 ADD DUP5 PUSH2 0x1124 JUMP JUMPDEST SWAP4 SWAP3 POP POP POP JUMP JUMPDEST PUSH0 DUP2 ISZERO ISZERO SWAP1 POP SWAP2 SWAP1 POP JUMP JUMPDEST PUSH2 0x1421 DUP2 PUSH2 0x140D JUMP JUMPDEST DUP2 EQ PUSH2 0x142B JUMPI PUSH0 DUP1 REVERT JUMPDEST POP JUMP JUMPDEST PUSH0 DUP2 MLOAD SWAP1 POP PUSH2 0x143C DUP2 PUSH2 0x1418 JUMP JUMPDEST SWAP3 SWAP2 POP POP JUMP JUMPDEST PUSH0 PUSH1 0x20 DUP3 DUP5 SUB SLT ISZERO PUSH2 0x1457 JUMPI PUSH2 0x1456 PUSH2 0x1092 JUMP JUMPDEST JUMPDEST PUSH0 PUSH2 0x1464 DUP5 DUP3 DUP6 ADD PUSH2 0x142E JUMP JUMPDEST SWAP2 POP POP SWAP3 SWAP2 POP POP JUMP JUMPDEST PUSH0 PUSH1 0x60 DUP3 ADD SWAP1 POP PUSH2 0x1480 PUSH0 DUP4 ADD DUP7 PUSH2 0x1215 JUMP JUMPDEST PUSH2 0x148D PUSH1 0x20 DUP4 ADD DUP6 PUSH2 0x1215 JUMP JUMPDEST PUSH2 0x149A PUSH1 0x40 DUP4 ADD DUP5 PUSH2 0x1124 JUMP JUMPDEST SWAP5 SWAP4 POP POP POP POP JUMP JUMPDEST PUSH32 0x6E6F74206F776E65720000000000000000000000000000000000000000000000 PUSH0 DUP3 ADD MSTORE POP JUMP JUMPDEST PUSH0 PUSH2 0x14D6 PUSH1 0x9 DUP4 PUSH2 0x136E JUMP JUMPDEST SWAP2 POP PUSH2 0x14E1 DUP3 PUSH2 0x14A2 JUMP JUMPDEST PUSH1 0x20 DUP3 ADD SWAP1 POP SWAP2 SWAP1 POP JUMP JUMPDEST PUSH0 PUSH1 0x20 DUP3 ADD SWAP1 POP DUP2 DUP2 SUB PUSH0 DUP4 ADD MSTORE PUSH2 0x1503 DUP2 PUSH2 0x14CA JUMP JUMPDEST SWAP1 POP SWAP2 SWAP1 POP JUMP JUMPDEST PUSH32 0x7265776172642072617465203D30000000000000000000000000000000000000 PUSH0 DUP3 ADD MSTORE POP JUMP JUMPDEST PUSH0 PUSH2 0x153E PUSH1 0xE DUP4 PUSH2 0x136E JUMP JUMPDEST SWAP2 POP PUSH2 0x1549 DUP3 PUSH2 0x150A JUMP JUMPDEST PUSH1 0x20 DUP3 ADD SWAP1 POP SWAP2 SWAP1 POP JUMP JUMPDEST PUSH0 PUSH1 0x20 DUP3 ADD SWAP1 POP DUP2 DUP2 SUB PUSH0 DUP4 ADD MSTORE PUSH2 0x156B DUP2 PUSH2 0x1532 JUMP JUMPDEST SWAP1 POP SWAP2 SWAP1 POP JUMP JUMPDEST PUSH0 DUP2 MLOAD SWAP1 POP PUSH2 0x1580 DUP2 PUSH2 0x114C JUMP JUMPDEST SWAP3 SWAP2 POP POP JUMP JUMPDEST PUSH0 PUSH1 0x20 DUP3 DUP5 SUB SLT ISZERO PUSH2 0x159B JUMPI PUSH2 0x159A PUSH2 0x1092 JUMP JUMPDEST JUMPDEST PUSH0 PUSH2 0x15A8 DUP5 DUP3 DUP6 ADD PUSH2 0x1572 JUMP JUMPDEST SWAP2 POP POP SWAP3 SWAP2 POP POP JUMP JUMPDEST PUSH32 0x7265777761726420616D6F756E74203E2062616C616E63654F66000000000000 PUSH0 DUP3 ADD MSTORE POP JUMP JUMPDEST PUSH0 PUSH2 0x15E5 PUSH1 0x1A DUP4 PUSH2 0x136E JUMP JUMPDEST SWAP2 POP PUSH2 0x15F0 DUP3 PUSH2 0x15B1 JUMP JUMPDEST PUSH1 0x20 DUP3 ADD SWAP1 POP SWAP2 SWAP1 POP JUMP JUMPDEST PUSH0 PUSH1 0x20 DUP3 ADD SWAP1 POP DUP2 DUP2 SUB PUSH0 DUP4 ADD MSTORE PUSH2 0x1612 DUP2 PUSH2 0x15D9 JUMP JUMPDEST SWAP1 POP SWAP2 SWAP1 POP JUMP JUMPDEST PUSH32 0x726577617264206475726174696F6E206E6F742066696E697368656400000000 PUSH0 DUP3 ADD MSTORE POP JUMP JUMPDEST PUSH0 PUSH2 0x164D PUSH1 0x1C DUP4 PUSH2 0x136E JUMP JUMPDEST SWAP2 POP PUSH2 0x1658 DUP3 PUSH2 0x1619 JUMP JUMPDEST PUSH1 0x20 DUP3 ADD SWAP1 POP SWAP2 SWAP1 POP JUMP JUMPDEST PUSH0 PUSH1 0x20 DUP3 ADD SWAP1 POP DUP2 DUP2 SUB PUSH0 DUP4 ADD MSTORE PUSH2 0x167A DUP2 PUSH2 0x1641 JUMP JUMPDEST SWAP1 POP SWAP2 SWAP1 POP JUMP INVALID LOG2 PUSH5 0x6970667358 0x22 SLT KECCAK256 SUB PUSH31 0xDCA98528FEF07612B923E26B285368D1E29B8611C06E1F074CCE3B7305064 PUSH20 0x6F6C634300081A00330000000000000000000000 "
				},
				"gasEstimates": {
					"creation": {
						"codeDepositCost": "1163000",
						"executionCost": "infinite",
						"totalCost": "infinite"
					},
					"external": {
						"balanceOf(address)": "2869",
						"duration()": "2493",
						"earned(address)": "infinite",
						"finishedAt()": "2470",
						"getReward()": "infinite",
						"lastTimeRewardApplicable()": "2538",
						"notifyRewardAmout(uint256)": "infinite",
						"owner()": "2572",
						"rewardPerToken()": "infinite",
						"rewardPerTokenStored()": "2557",
						"rewardRate()": "2536",
						"rewardsToken()": "infinite",
						"setRewardDuration(uint256)": "26847",
						"stake(uint256)": "infinite",
						"stakingToken()": "infinite",
						"totalSupply()": "2515",
						"updateAt()": "2491",
						"userRewardPerTokenPaid(address)": "2847",
						"userRewards(address)": "2848",
						"withdraw(uint256)": "infinite",
						"withdrawReward(address)": "471"
					},
					"internal": {
						"_min(uint256,uint256)": "66"
					}
				},
				"methodIdentifiers": {
					"balanceOf(address)": "70a08231",
					"duration()": "0fb5a6b4",
					"earned(address)": "008cc262",
					"finishedAt()": "47d54bff",
					"getReward()": "3d18b912",
					"lastTimeRewardApplicable()": "80faa57d",
					"notifyRewardAmout(uint256)": "abd551b3",
					"owner()": "8da5cb5b",
					"rewardPerToken()": "cd3daf9d",
					"rewardPerTokenStored()": "df136d65",
					"rewardRate()": "7b0a47ee",
					"rewardsToken()": "d1af0c7d",
					"setRewardDuration(uint256)": "c0ed00c9",
					"stake(uint256)": "a694fc3a",
					"stakingToken()": "72f702f3",
					"totalSupply()": "18160ddd",
					"updateAt()": "c964f585",
					"userRewardPerTokenPaid(address)": "8b876347",
					"userRewards(address)": "0660f1e8",
					"withdraw(uint256)": "2e1a7d4d",
					"withdrawReward(address)": "b86e321c"
				}
			},
			"storageLayout": {
				"storage": [
					{
						"astId": 10,
						"contract": "072StakingRewords.sol:StakingRewards",
						"label": "owner",
						"offset": 0,
						"slot": "0",
						"type": "t_address"
					},
					{
						"astId": 12,
						"contract": "072StakingRewords.sol:StakingRewards",
						"label": "duration",
						"offset": 0,
						"slot": "1",
						"type": "t_uint256"
					},
					{
						"astId": 14,
						"contract": "072StakingRewords.sol:StakingRewards",
						"label": "finishedAt",
						"offset": 0,
						"slot": "2",
						"type": "t_uint256"
					},
					{
						"astId": 16,
						"contract": "072StakingRewords.sol:StakingRewards",
						"label": "updateAt",
						"offset": 0,
						"slot": "3",
						"type": "t_uint256"
					},
					{
						"astId": 18,
						"contract": "072StakingRewords.sol:StakingRewards",
						"label": "rewardRate",
						"offset": 0,
						"slot": "4",
						"type": "t_uint256"
					},
					{
						"astId": 20,
						"contract": "072StakingRewords.sol:StakingRewards",
						"label": "rewardPerTokenStored",
						"offset": 0,
						"slot": "5",
						"type": "t_uint256"
					},
					{
						"astId": 24,
						"contract": "072StakingRewords.sol:StakingRewards",
						"label": "userRewardPerTokenPaid",
						"offset": 0,
						"slot": "6",
						"type": "t_mapping(t_address,t_uint256)"
					},
					{
						"astId": 28,
						"contract": "072StakingRewords.sol:StakingRewards",
						"label": "userRewards",
						"offset": 0,
						"slot": "7",
						"type": "t_mapping(t_address,t_uint256)"
					},
					{
						"astId": 30,
						"contract": "072StakingRewords.sol:StakingRewards",
						"label": "totalSupply",
						"offset": 0,
						"slot": "8",
						"type": "t_uint256"
					},
					{
						"astId": 34,
						"contract": "072StakingRewords.sol:StakingRewards",
						"label": "balanceOf",
						"offset": 0,
						"slot": "9",
						"type": "t_mapping(t_address,t_uint256)"
					}
				],
				"types": {
					"t_address": {
						"encoding": "inplace",
						"label": "address",
						"numberOfBytes": "20"
					},
					"t_mapping(t_address,t_uint256)": {
						"encoding": "mapping",
						"key": "t_address",
						"label": "mapping(address => uint256)",
						"numberOfBytes": "32",
						"value": "t_uint256"
					},
					"t_uint256": {
						"encoding": "inplace",
						"label": "uint256",
						"numberOfBytes": "32"
					}
				}
			},
			"userdoc": {
				"kind": "user",
				"methods": {},
				"version": 1
			}
		}
	}
}