{
	"058Create2.sol": {
		"Create2Factory": {
			"abi": [
				{
					"anonymous": false,
					"inputs": [
						{
							"indexed": false,
							"internalType": "address",
							"name": "addr",
							"type": "address"
						}
					],
					"name": "Deploy",
					"type": "event"
				},
				{
					"inputs": [
						{
							"internalType": "uint256",
							"name": "_salt",
							"type": "uint256"
						}
					],
					"name": "deploy",
					"outputs": [],
					"stateMutability": "nonpayable",
					"type": "function"
				},
				{
					"inputs": [
						{
							"internalType": "bytes",
							"name": "bytecode",
							"type": "bytes"
						},
						{
							"internalType": "uint256",
							"name": "_salt",
							"type": "uint256"
						}
					],
					"name": "getAddress",
					"outputs": [
						{
							"internalType": "address",
							"name": "",
							"type": "address"
						}
					],
					"stateMutability": "view",
					"type": "function"
				},
				{
					"inputs": [
						{
							"internalType": "address",
							"name": "_owner",
							"type": "address"
						}
					],
					"name": "getBytecode",
					"outputs": [
						{
							"internalType": "bytes",
							"name": "",
							"type": "bytes"
						}
					],
					"stateMutability": "pure",
					"type": "function"
				}
			],
			"devdoc": {
				"kind": "dev",
				"methods": {},
				"version": 1
			},
			"evm": {
				"assembly": "    /* \"058Create2.sol\":612:2740  contract Create2Factory{... */\n  mstore(0x40, 0x80)\n  callvalue\n  dup1\n  iszero\n  tag_1\n  jumpi\n  0x00\n  dup1\n  revert\ntag_1:\n  pop\n  dataSize(sub_0)\n  dup1\n  dataOffset(sub_0)\n  0x00\n  codecopy\n  0x00\n  return\nstop\n\nsub_0: assembly {\n        /* \"058Create2.sol\":612:2740  contract Create2Factory{... */\n      mstore(0x40, 0x80)\n      callvalue\n      dup1\n      iszero\n      tag_1\n      jumpi\n      0x00\n      dup1\n      revert\n    tag_1:\n      pop\n      jumpi(tag_2, lt(calldatasize, 0x04))\n      shr(0xe0, calldataload(0x00))\n      dup1\n      0x0c6008af\n      eq\n      tag_3\n      jumpi\n      dup1\n      0x94ca2cb5\n      eq\n      tag_4\n      jumpi\n      dup1\n      0xa5e38751\n      eq\n      tag_5\n      jumpi\n    tag_2:\n      0x00\n      dup1\n      revert\n        /* \"058Create2.sol\":2439:2733  function getBytecode(address _owner) public pure returns(bytes memory){... */\n    tag_3:\n      tag_6\n      0x04\n      dup1\n      calldatasize\n      sub\n      dup2\n      add\n      swap1\n      tag_7\n      swap2\n      swap1\n      tag_8\n      jump\t// in\n    tag_7:\n      tag_9\n      jump\t// in\n    tag_6:\n      mload(0x40)\n      tag_10\n      swap2\n      swap1\n      tag_11\n      jump\t// in\n    tag_10:\n      mload(0x40)\n      dup1\n      swap2\n      sub\n      swap1\n      return\n        /* \"058Create2.sol\":1579:2371  function getAddress(bytes memory bytecode ,uint _salt)public view returns(address){... */\n    tag_4:\n      tag_12\n      0x04\n      dup1\n      calldatasize\n      sub\n      dup2\n      add\n      swap1\n      tag_13\n      swap2\n      swap1\n      tag_14\n      jump\t// in\n    tag_13:\n      tag_15\n      jump\t// in\n    tag_12:\n      mload(0x40)\n      tag_16\n      swap2\n      swap1\n      tag_17\n      jump\t// in\n    tag_16:\n      mload(0x40)\n      dup1\n      swap2\n      sub\n      swap1\n      return\n        /* \"058Create2.sol\":674:1114  function deploy(uint _salt)external {... */\n    tag_5:\n      tag_18\n      0x04\n      dup1\n      calldatasize\n      sub\n      dup2\n      add\n      swap1\n      tag_19\n      swap2\n      swap1\n      tag_20\n      jump\t// in\n    tag_19:\n      tag_21\n      jump\t// in\n    tag_18:\n      stop\n        /* \"058Create2.sol\":2439:2733  function getBytecode(address _owner) public pure returns(bytes memory){... */\n    tag_9:\n        /* \"058Create2.sol\":2496:2508  bytes memory */\n      0x60\n        /* \"058Create2.sol\":2519:2540  bytes memory bytecode */\n      0x00\n        /* \"058Create2.sol\":2543:2579  type(DeployWithCreate2).creationCode */\n      mload(0x40)\n      dup1\n      0x20\n      add\n      tag_23\n      swap1\n      tag_24\n      jump\t// in\n    tag_23:\n      0x20\n      dup3\n      add\n      dup2\n      sub\n      dup3\n      mstore\n      not(0x1f)\n      0x1f\n      dup3\n      add\n      and\n      0x40\n      mstore\n      pop\n        /* \"058Create2.sol\":2519:2579  bytes memory bytecode = type(DeployWithCreate2).creationCode */\n      swap1\n      pop\n        /* \"058Create2.sol\":2697:2705  bytecode */\n      dup1\n        /* \"058Create2.sol\":2718:2724  _owner */\n      dup4\n        /* \"058Create2.sol\":2707:2725  abi.encode(_owner) */\n      add(0x20, mload(0x40))\n      tag_25\n      swap2\n      swap1\n      tag_17\n      jump\t// in\n    tag_25:\n      mload(0x40)\n      0x20\n      dup2\n      dup4\n      sub\n      sub\n      dup2\n      mstore\n      swap1\n      0x40\n      mstore\n        /* \"058Create2.sol\":2680:2726  abi.encodePacked(bytecode, abi.encode(_owner)) */\n      add(0x20, mload(0x40))\n      tag_26\n      swap3\n      swap2\n      swap1\n      tag_27\n      jump\t// in\n    tag_26:\n      mload(0x40)\n      0x20\n      dup2\n      dup4\n      sub\n      sub\n      dup2\n      mstore\n      swap1\n      0x40\n      mstore\n        /* \"058Create2.sol\":2673:2726  return abi.encodePacked(bytecode, abi.encode(_owner)) */\n      swap2\n      pop\n      pop\n        /* \"058Create2.sol\":2439:2733  function getBytecode(address _owner) public pure returns(bytes memory){... */\n      swap2\n      swap1\n      pop\n      jump\t// out\n        /* \"058Create2.sol\":1579:2371  function getAddress(bytes memory bytecode ,uint _salt)public view returns(address){... */\n    tag_15:\n        /* \"058Create2.sol\":1653:1660  address */\n      0x00\n        /* \"058Create2.sol\":1972:1984  bytes32 hash */\n      dup1\n        /* \"058Create2.sol\":2250:2254  0xff */\n      0xff\n        /* \"058Create2.sol\":2243:2255  bytes1(0xff) */\n      0xf8\n      shl\n        /* \"058Create2.sol\":2264:2268  this */\n      address\n        /* \"058Create2.sol\":2270:2275  _salt */\n      dup5\n        /* \"058Create2.sol\":2286:2294  bytecode */\n      dup7\n        /* \"058Create2.sol\":2276:2295  keccak256(bytecode) */\n      dup1\n      mload\n      swap1\n      0x20\n      add\n      keccak256\n        /* \"058Create2.sol\":2226:2309  abi.encodePacked(bytes1(0xff),address(this),_salt,keccak256(bytecode)... */\n      add(0x20, mload(0x40))\n      tag_29\n      swap5\n      swap4\n      swap3\n      swap2\n      swap1\n      tag_30\n      jump\t// in\n    tag_29:\n      mload(0x40)\n      0x20\n      dup2\n      dup4\n      sub\n      sub\n      dup2\n      mstore\n      swap1\n      0x40\n      mstore\n        /* \"058Create2.sol\":1987:2319  keccak256(... */\n      dup1\n      mload\n      swap1\n      0x20\n      add\n      keccak256\n        /* \"058Create2.sol\":1972:2319  bytes32 hash = keccak256(... */\n      swap1\n      pop\n        /* \"058Create2.sol\":2357:2361  hash */\n      dup1\n        /* \"058Create2.sol\":2352:2362  uint(hash) */\n      0x00\n      shr\n        /* \"058Create2.sol\":2329:2364  return address(uint160(uint(hash))) */\n      swap2\n      pop\n      pop\n        /* \"058Create2.sol\":1579:2371  function getAddress(bytes memory bytecode ,uint _salt)public view returns(address){... */\n      swap3\n      swap2\n      pop\n      pop\n      jump\t// out\n        /* \"058Create2.sol\":674:1114  function deploy(uint _salt)external {... */\n    tag_21:\n        /* \"058Create2.sol\":896:923  DeployWithCreate2 _contract */\n      0x00\n        /* \"058Create2.sol\":975:980  _salt */\n      dup2\n        /* \"058Create2.sol\":967:981  bytes32(_salt) */\n      0x00\n      shl\n        /* \"058Create2.sol\":1014:1024  msg.sender */\n      caller\n        /* \"058Create2.sol\":926:1025  new DeployWithCreate2{... */\n      mload(0x40)\n      tag_32\n      swap1\n      tag_24\n      jump\t// in\n    tag_32:\n      tag_33\n      swap2\n      swap1\n      tag_17\n      jump\t// in\n    tag_33:\n      dup2\n      swap1\n      mload(0x40)\n      dup1\n      swap2\n      sub\n      swap1\n      0x00\n      create2\n      swap1\n      pop\n      dup1\n      iszero\n      dup1\n      iszero\n      tag_34\n      jumpi\n      returndatasize\n      0x00\n      dup1\n      returndatacopy\n      revert(0x00, returndatasize)\n    tag_34:\n      pop\n        /* \"058Create2.sol\":896:1025  DeployWithCreate2 _contract = new DeployWithCreate2{... */\n      swap1\n      pop\n        /* \"058Create2.sol\":1041:1067  Deploy(address(_contract)) */\n      0x55ea6c6b31543d8e2ec6a72f71a79c0f4b72ed0d4757172b043d8f4f4cd84848\n        /* \"058Create2.sol\":1056:1065  _contract */\n      dup2\n        /* \"058Create2.sol\":1041:1067  Deploy(address(_contract)) */\n      mload(0x40)\n      tag_35\n      swap2\n      swap1\n      tag_17\n      jump\t// in\n    tag_35:\n      mload(0x40)\n      dup1\n      swap2\n      sub\n      swap1\n      log1\n        /* \"058Create2.sol\":710:1114  {... */\n      pop\n        /* \"058Create2.sol\":674:1114  function deploy(uint _salt)external {... */\n      pop\n      jump\t// out\n    tag_24:\n      dataSize(sub_0)\n      dup1\n      dataOffset(sub_0)\n      dup4\n      codecopy\n      add\n      swap1\n      jump\t// out\n        /* \"#utility.yul\":7:82   */\n    tag_36:\n        /* \"#utility.yul\":40:46   */\n      0x00\n        /* \"#utility.yul\":73:75   */\n      0x40\n        /* \"#utility.yul\":67:76   */\n      mload\n        /* \"#utility.yul\":57:76   */\n      swap1\n      pop\n        /* \"#utility.yul\":7:82   */\n      swap1\n      jump\t// out\n        /* \"#utility.yul\":88:205   */\n    tag_37:\n        /* \"#utility.yul\":197:198   */\n      0x00\n        /* \"#utility.yul\":194:195   */\n      dup1\n        /* \"#utility.yul\":187:199   */\n      revert\n        /* \"#utility.yul\":211:328   */\n    tag_38:\n        /* \"#utility.yul\":320:321   */\n      0x00\n        /* \"#utility.yul\":317:318   */\n      dup1\n        /* \"#utility.yul\":310:322   */\n      revert\n        /* \"#utility.yul\":334:460   */\n    tag_39:\n        /* \"#utility.yul\":371:378   */\n      0x00\n        /* \"#utility.yul\":411:453   */\n      0xffffffffffffffffffffffffffffffffffffffff\n        /* \"#utility.yul\":404:409   */\n      dup3\n        /* \"#utility.yul\":400:454   */\n      and\n        /* \"#utility.yul\":389:454   */\n      swap1\n      pop\n        /* \"#utility.yul\":334:460   */\n      swap2\n      swap1\n      pop\n      jump\t// out\n        /* \"#utility.yul\":466:562   */\n    tag_40:\n        /* \"#utility.yul\":503:510   */\n      0x00\n        /* \"#utility.yul\":532:556   */\n      tag_81\n        /* \"#utility.yul\":550:555   */\n      dup3\n        /* \"#utility.yul\":532:556   */\n      tag_39\n      jump\t// in\n    tag_81:\n        /* \"#utility.yul\":521:556   */\n      swap1\n      pop\n        /* \"#utility.yul\":466:562   */\n      swap2\n      swap1\n      pop\n      jump\t// out\n        /* \"#utility.yul\":568:690   */\n    tag_41:\n        /* \"#utility.yul\":641:665   */\n      tag_83\n        /* \"#utility.yul\":659:664   */\n      dup2\n        /* \"#utility.yul\":641:665   */\n      tag_40\n      jump\t// in\n    tag_83:\n        /* \"#utility.yul\":634:639   */\n      dup2\n        /* \"#utility.yul\":631:666   */\n      eq\n        /* \"#utility.yul\":621:684   */\n      tag_84\n      jumpi\n        /* \"#utility.yul\":680:681   */\n      0x00\n        /* \"#utility.yul\":677:678   */\n      dup1\n        /* \"#utility.yul\":670:682   */\n      revert\n        /* \"#utility.yul\":621:684   */\n    tag_84:\n        /* \"#utility.yul\":568:690   */\n      pop\n      jump\t// out\n        /* \"#utility.yul\":696:835   */\n    tag_42:\n        /* \"#utility.yul\":742:747   */\n      0x00\n        /* \"#utility.yul\":780:786   */\n      dup2\n        /* \"#utility.yul\":767:787   */\n      calldataload\n        /* \"#utility.yul\":758:787   */\n      swap1\n      pop\n        /* \"#utility.yul\":796:829   */\n      tag_86\n        /* \"#utility.yul\":823:828   */\n      dup2\n        /* \"#utility.yul\":796:829   */\n      tag_41\n      jump\t// in\n    tag_86:\n        /* \"#utility.yul\":696:835   */\n      swap3\n      swap2\n      pop\n      pop\n      jump\t// out\n        /* \"#utility.yul\":841:1170   */\n    tag_8:\n        /* \"#utility.yul\":900:906   */\n      0x00\n        /* \"#utility.yul\":949:951   */\n      0x20\n        /* \"#utility.yul\":937:946   */\n      dup3\n        /* \"#utility.yul\":928:935   */\n      dup5\n        /* \"#utility.yul\":924:947   */\n      sub\n        /* \"#utility.yul\":920:952   */\n      slt\n        /* \"#utility.yul\":917:1036   */\n      iszero\n      tag_88\n      jumpi\n        /* \"#utility.yul\":955:1034   */\n      tag_89\n      tag_37\n      jump\t// in\n    tag_89:\n        /* \"#utility.yul\":917:1036   */\n    tag_88:\n        /* \"#utility.yul\":1075:1076   */\n      0x00\n        /* \"#utility.yul\":1100:1153   */\n      tag_90\n        /* \"#utility.yul\":1145:1152   */\n      dup5\n        /* \"#utility.yul\":1136:1142   */\n      dup3\n        /* \"#utility.yul\":1125:1134   */\n      dup6\n        /* \"#utility.yul\":1121:1143   */\n      add\n        /* \"#utility.yul\":1100:1153   */\n      tag_42\n      jump\t// in\n    tag_90:\n        /* \"#utility.yul\":1090:1153   */\n      swap2\n      pop\n        /* \"#utility.yul\":1046:1163   */\n      pop\n        /* \"#utility.yul\":841:1170   */\n      swap3\n      swap2\n      pop\n      pop\n      jump\t// out\n        /* \"#utility.yul\":1176:1274   */\n    tag_43:\n        /* \"#utility.yul\":1227:1233   */\n      0x00\n        /* \"#utility.yul\":1261:1266   */\n      dup2\n        /* \"#utility.yul\":1255:1267   */\n      mload\n        /* \"#utility.yul\":1245:1267   */\n      swap1\n      pop\n        /* \"#utility.yul\":1176:1274   */\n      swap2\n      swap1\n      pop\n      jump\t// out\n        /* \"#utility.yul\":1280:1448   */\n    tag_44:\n        /* \"#utility.yul\":1363:1374   */\n      0x00\n        /* \"#utility.yul\":1397:1403   */\n      dup3\n        /* \"#utility.yul\":1392:1395   */\n      dup3\n        /* \"#utility.yul\":1385:1404   */\n      mstore\n        /* \"#utility.yul\":1437:1441   */\n      0x20\n        /* \"#utility.yul\":1432:1435   */\n      dup3\n        /* \"#utility.yul\":1428:1442   */\n      add\n        /* \"#utility.yul\":1413:1442   */\n      swap1\n      pop\n        /* \"#utility.yul\":1280:1448   */\n      swap3\n      swap2\n      pop\n      pop\n      jump\t// out\n        /* \"#utility.yul\":1454:1700   */\n    tag_45:\n        /* \"#utility.yul\":1535:1536   */\n      0x00\n        /* \"#utility.yul\":1545:1658   */\n    tag_94:\n        /* \"#utility.yul\":1559:1565   */\n      dup4\n        /* \"#utility.yul\":1556:1557   */\n      dup2\n        /* \"#utility.yul\":1553:1566   */\n      lt\n        /* \"#utility.yul\":1545:1658   */\n      iszero\n      tag_96\n      jumpi\n        /* \"#utility.yul\":1644:1645   */\n      dup1\n        /* \"#utility.yul\":1639:1642   */\n      dup3\n        /* \"#utility.yul\":1635:1646   */\n      add\n        /* \"#utility.yul\":1629:1647   */\n      mload\n        /* \"#utility.yul\":1625:1626   */\n      dup2\n        /* \"#utility.yul\":1620:1623   */\n      dup5\n        /* \"#utility.yul\":1616:1627   */\n      add\n        /* \"#utility.yul\":1609:1648   */\n      mstore\n        /* \"#utility.yul\":1581:1583   */\n      0x20\n        /* \"#utility.yul\":1578:1579   */\n      dup2\n        /* \"#utility.yul\":1574:1584   */\n      add\n        /* \"#utility.yul\":1569:1584   */\n      swap1\n      pop\n        /* \"#utility.yul\":1545:1658   */\n      jump(tag_94)\n    tag_96:\n        /* \"#utility.yul\":1692:1693   */\n      0x00\n        /* \"#utility.yul\":1683:1689   */\n      dup5\n        /* \"#utility.yul\":1678:1681   */\n      dup5\n        /* \"#utility.yul\":1674:1690   */\n      add\n        /* \"#utility.yul\":1667:1694   */\n      mstore\n        /* \"#utility.yul\":1516:1700   */\n      pop\n        /* \"#utility.yul\":1454:1700   */\n      pop\n      pop\n      pop\n      jump\t// out\n        /* \"#utility.yul\":1706:1808   */\n    tag_46:\n        /* \"#utility.yul\":1747:1753   */\n      0x00\n        /* \"#utility.yul\":1798:1800   */\n      0x1f\n        /* \"#utility.yul\":1794:1801   */\n      not\n        /* \"#utility.yul\":1789:1791   */\n      0x1f\n        /* \"#utility.yul\":1782:1787   */\n      dup4\n        /* \"#utility.yul\":1778:1792   */\n      add\n        /* \"#utility.yul\":1774:1802   */\n      and\n        /* \"#utility.yul\":1764:1802   */\n      swap1\n      pop\n        /* \"#utility.yul\":1706:1808   */\n      swap2\n      swap1\n      pop\n      jump\t// out\n        /* \"#utility.yul\":1814:2187   */\n    tag_47:\n        /* \"#utility.yul\":1900:1903   */\n      0x00\n        /* \"#utility.yul\":1928:1966   */\n      tag_99\n        /* \"#utility.yul\":1960:1965   */\n      dup3\n        /* \"#utility.yul\":1928:1966   */\n      tag_43\n      jump\t// in\n    tag_99:\n        /* \"#utility.yul\":1982:2052   */\n      tag_100\n        /* \"#utility.yul\":2045:2051   */\n      dup2\n        /* \"#utility.yul\":2040:2043   */\n      dup6\n        /* \"#utility.yul\":1982:2052   */\n      tag_44\n      jump\t// in\n    tag_100:\n        /* \"#utility.yul\":1975:2052   */\n      swap4\n      pop\n        /* \"#utility.yul\":2061:2126   */\n      tag_101\n        /* \"#utility.yul\":2119:2125   */\n      dup2\n        /* \"#utility.yul\":2114:2117   */\n      dup6\n        /* \"#utility.yul\":2107:2111   */\n      0x20\n        /* \"#utility.yul\":2100:2105   */\n      dup7\n        /* \"#utility.yul\":2096:2112   */\n      add\n        /* \"#utility.yul\":2061:2126   */\n      tag_45\n      jump\t// in\n    tag_101:\n        /* \"#utility.yul\":2151:2180   */\n      tag_102\n        /* \"#utility.yul\":2173:2179   */\n      dup2\n        /* \"#utility.yul\":2151:2180   */\n      tag_46\n      jump\t// in\n    tag_102:\n        /* \"#utility.yul\":2146:2149   */\n      dup5\n        /* \"#utility.yul\":2142:2181   */\n      add\n        /* \"#utility.yul\":2135:2181   */\n      swap2\n      pop\n        /* \"#utility.yul\":1904:2187   */\n      pop\n        /* \"#utility.yul\":1814:2187   */\n      swap3\n      swap2\n      pop\n      pop\n      jump\t// out\n        /* \"#utility.yul\":2193:2502   */\n    tag_11:\n        /* \"#utility.yul\":2304:2308   */\n      0x00\n        /* \"#utility.yul\":2342:2344   */\n      0x20\n        /* \"#utility.yul\":2331:2340   */\n      dup3\n        /* \"#utility.yul\":2327:2345   */\n      add\n        /* \"#utility.yul\":2319:2345   */\n      swap1\n      pop\n        /* \"#utility.yul\":2391:2400   */\n      dup2\n        /* \"#utility.yul\":2385:2389   */\n      dup2\n        /* \"#utility.yul\":2381:2401   */\n      sub\n        /* \"#utility.yul\":2377:2378   */\n      0x00\n        /* \"#utility.yul\":2366:2375   */\n      dup4\n        /* \"#utility.yul\":2362:2379   */\n      add\n        /* \"#utility.yul\":2355:2402   */\n      mstore\n        /* \"#utility.yul\":2419:2495   */\n      tag_104\n        /* \"#utility.yul\":2490:2494   */\n      dup2\n        /* \"#utility.yul\":2481:2487   */\n      dup5\n        /* \"#utility.yul\":2419:2495   */\n      tag_47\n      jump\t// in\n    tag_104:\n        /* \"#utility.yul\":2411:2495   */\n      swap1\n      pop\n        /* \"#utility.yul\":2193:2502   */\n      swap3\n      swap2\n      pop\n      pop\n      jump\t// out\n        /* \"#utility.yul\":2508:2625   */\n    tag_48:\n        /* \"#utility.yul\":2617:2618   */\n      0x00\n        /* \"#utility.yul\":2614:2615   */\n      dup1\n        /* \"#utility.yul\":2607:2619   */\n      revert\n        /* \"#utility.yul\":2631:2748   */\n    tag_49:\n        /* \"#utility.yul\":2740:2741   */\n      0x00\n        /* \"#utility.yul\":2737:2738   */\n      dup1\n        /* \"#utility.yul\":2730:2742   */\n      revert\n        /* \"#utility.yul\":2754:2934   */\n    tag_50:\n        /* \"#utility.yul\":2802:2879   */\n      0x4e487b7100000000000000000000000000000000000000000000000000000000\n        /* \"#utility.yul\":2799:2800   */\n      0x00\n        /* \"#utility.yul\":2792:2880   */\n      mstore\n        /* \"#utility.yul\":2899:2903   */\n      0x41\n        /* \"#utility.yul\":2896:2897   */\n      0x04\n        /* \"#utility.yul\":2889:2904   */\n      mstore\n        /* \"#utility.yul\":2923:2927   */\n      0x24\n        /* \"#utility.yul\":2920:2921   */\n      0x00\n        /* \"#utility.yul\":2913:2928   */\n      revert\n        /* \"#utility.yul\":2940:3221   */\n    tag_51:\n        /* \"#utility.yul\":3023:3050   */\n      tag_109\n        /* \"#utility.yul\":3045:3049   */\n      dup3\n        /* \"#utility.yul\":3023:3050   */\n      tag_46\n      jump\t// in\n    tag_109:\n        /* \"#utility.yul\":3015:3021   */\n      dup2\n        /* \"#utility.yul\":3011:3051   */\n      add\n        /* \"#utility.yul\":3153:3159   */\n      dup2\n        /* \"#utility.yul\":3141:3151   */\n      dup2\n        /* \"#utility.yul\":3138:3160   */\n      lt\n        /* \"#utility.yul\":3117:3135   */\n      0xffffffffffffffff\n        /* \"#utility.yul\":3105:3115   */\n      dup3\n        /* \"#utility.yul\":3102:3136   */\n      gt\n        /* \"#utility.yul\":3099:3161   */\n      or\n        /* \"#utility.yul\":3096:3184   */\n      iszero\n      tag_110\n      jumpi\n        /* \"#utility.yul\":3164:3182   */\n      tag_111\n      tag_50\n      jump\t// in\n    tag_111:\n        /* \"#utility.yul\":3096:3184   */\n    tag_110:\n        /* \"#utility.yul\":3204:3214   */\n      dup1\n        /* \"#utility.yul\":3200:3202   */\n      0x40\n        /* \"#utility.yul\":3193:3215   */\n      mstore\n        /* \"#utility.yul\":2983:3221   */\n      pop\n        /* \"#utility.yul\":2940:3221   */\n      pop\n      pop\n      jump\t// out\n        /* \"#utility.yul\":3227:3356   */\n    tag_52:\n        /* \"#utility.yul\":3261:3267   */\n      0x00\n        /* \"#utility.yul\":3288:3308   */\n      tag_113\n      tag_36\n      jump\t// in\n    tag_113:\n        /* \"#utility.yul\":3278:3308   */\n      swap1\n      pop\n        /* \"#utility.yul\":3317:3350   */\n      tag_114\n        /* \"#utility.yul\":3345:3349   */\n      dup3\n        /* \"#utility.yul\":3337:3343   */\n      dup3\n        /* \"#utility.yul\":3317:3350   */\n      tag_51\n      jump\t// in\n    tag_114:\n        /* \"#utility.yul\":3227:3356   */\n      swap2\n      swap1\n      pop\n      jump\t// out\n        /* \"#utility.yul\":3362:3669   */\n    tag_53:\n        /* \"#utility.yul\":3423:3427   */\n      0x00\n        /* \"#utility.yul\":3513:3531   */\n      0xffffffffffffffff\n        /* \"#utility.yul\":3505:3511   */\n      dup3\n        /* \"#utility.yul\":3502:3532   */\n      gt\n        /* \"#utility.yul\":3499:3555   */\n      iszero\n      tag_116\n      jumpi\n        /* \"#utility.yul\":3535:3553   */\n      tag_117\n      tag_50\n      jump\t// in\n    tag_117:\n        /* \"#utility.yul\":3499:3555   */\n    tag_116:\n        /* \"#utility.yul\":3573:3602   */\n      tag_118\n        /* \"#utility.yul\":3595:3601   */\n      dup3\n        /* \"#utility.yul\":3573:3602   */\n      tag_46\n      jump\t// in\n    tag_118:\n        /* \"#utility.yul\":3565:3602   */\n      swap1\n      pop\n        /* \"#utility.yul\":3657:3661   */\n      0x20\n        /* \"#utility.yul\":3651:3655   */\n      dup2\n        /* \"#utility.yul\":3647:3662   */\n      add\n        /* \"#utility.yul\":3639:3662   */\n      swap1\n      pop\n        /* \"#utility.yul\":3362:3669   */\n      swap2\n      swap1\n      pop\n      jump\t// out\n        /* \"#utility.yul\":3675:3821   */\n    tag_54:\n        /* \"#utility.yul\":3772:3778   */\n      dup3\n        /* \"#utility.yul\":3767:3770   */\n      dup2\n        /* \"#utility.yul\":3762:3765   */\n      dup4\n        /* \"#utility.yul\":3749:3779   */\n      calldatacopy\n        /* \"#utility.yul\":3813:3814   */\n      0x00\n        /* \"#utility.yul\":3804:3810   */\n      dup4\n        /* \"#utility.yul\":3799:3802   */\n      dup4\n        /* \"#utility.yul\":3795:3811   */\n      add\n        /* \"#utility.yul\":3788:3815   */\n      mstore\n        /* \"#utility.yul\":3675:3821   */\n      pop\n      pop\n      pop\n      jump\t// out\n        /* \"#utility.yul\":3827:4250   */\n    tag_55:\n        /* \"#utility.yul\":3904:3909   */\n      0x00\n        /* \"#utility.yul\":3929:3994   */\n      tag_121\n        /* \"#utility.yul\":3945:3993   */\n      tag_122\n        /* \"#utility.yul\":3986:3992   */\n      dup5\n        /* \"#utility.yul\":3945:3993   */\n      tag_53\n      jump\t// in\n    tag_122:\n        /* \"#utility.yul\":3929:3994   */\n      tag_52\n      jump\t// in\n    tag_121:\n        /* \"#utility.yul\":3920:3994   */\n      swap1\n      pop\n        /* \"#utility.yul\":4017:4023   */\n      dup3\n        /* \"#utility.yul\":4010:4015   */\n      dup2\n        /* \"#utility.yul\":4003:4024   */\n      mstore\n        /* \"#utility.yul\":4055:4059   */\n      0x20\n        /* \"#utility.yul\":4048:4053   */\n      dup2\n        /* \"#utility.yul\":4044:4060   */\n      add\n        /* \"#utility.yul\":4093:4096   */\n      dup5\n        /* \"#utility.yul\":4084:4090   */\n      dup5\n        /* \"#utility.yul\":4079:4082   */\n      dup5\n        /* \"#utility.yul\":4075:4091   */\n      add\n        /* \"#utility.yul\":4072:4097   */\n      gt\n        /* \"#utility.yul\":4069:4181   */\n      iszero\n      tag_123\n      jumpi\n        /* \"#utility.yul\":4100:4179   */\n      tag_124\n      tag_49\n      jump\t// in\n    tag_124:\n        /* \"#utility.yul\":4069:4181   */\n    tag_123:\n        /* \"#utility.yul\":4190:4244   */\n      tag_125\n        /* \"#utility.yul\":4237:4243   */\n      dup5\n        /* \"#utility.yul\":4232:4235   */\n      dup3\n        /* \"#utility.yul\":4227:4230   */\n      dup6\n        /* \"#utility.yul\":4190:4244   */\n      tag_54\n      jump\t// in\n    tag_125:\n        /* \"#utility.yul\":3910:4250   */\n      pop\n        /* \"#utility.yul\":3827:4250   */\n      swap4\n      swap3\n      pop\n      pop\n      pop\n      jump\t// out\n        /* \"#utility.yul\":4269:4607   */\n    tag_56:\n        /* \"#utility.yul\":4324:4329   */\n      0x00\n        /* \"#utility.yul\":4373:4376   */\n      dup3\n        /* \"#utility.yul\":4366:4370   */\n      0x1f\n        /* \"#utility.yul\":4358:4364   */\n      dup4\n        /* \"#utility.yul\":4354:4371   */\n      add\n        /* \"#utility.yul\":4350:4377   */\n      slt\n        /* \"#utility.yul\":4340:4462   */\n      tag_127\n      jumpi\n        /* \"#utility.yul\":4381:4460   */\n      tag_128\n      tag_48\n      jump\t// in\n    tag_128:\n        /* \"#utility.yul\":4340:4462   */\n    tag_127:\n        /* \"#utility.yul\":4498:4504   */\n      dup2\n        /* \"#utility.yul\":4485:4505   */\n      calldataload\n        /* \"#utility.yul\":4523:4601   */\n      tag_129\n        /* \"#utility.yul\":4597:4600   */\n      dup5\n        /* \"#utility.yul\":4589:4595   */\n      dup3\n        /* \"#utility.yul\":4582:4586   */\n      0x20\n        /* \"#utility.yul\":4574:4580   */\n      dup7\n        /* \"#utility.yul\":4570:4587   */\n      add\n        /* \"#utility.yul\":4523:4601   */\n      tag_55\n      jump\t// in\n    tag_129:\n        /* \"#utility.yul\":4514:4601   */\n      swap2\n      pop\n        /* \"#utility.yul\":4330:4607   */\n      pop\n        /* \"#utility.yul\":4269:4607   */\n      swap3\n      swap2\n      pop\n      pop\n      jump\t// out\n        /* \"#utility.yul\":4613:4690   */\n    tag_57:\n        /* \"#utility.yul\":4650:4657   */\n      0x00\n        /* \"#utility.yul\":4679:4684   */\n      dup2\n        /* \"#utility.yul\":4668:4684   */\n      swap1\n      pop\n        /* \"#utility.yul\":4613:4690   */\n      swap2\n      swap1\n      pop\n      jump\t// out\n        /* \"#utility.yul\":4696:4818   */\n    tag_58:\n        /* \"#utility.yul\":4769:4793   */\n      tag_132\n        /* \"#utility.yul\":4787:4792   */\n      dup2\n        /* \"#utility.yul\":4769:4793   */\n      tag_57\n      jump\t// in\n    tag_132:\n        /* \"#utility.yul\":4762:4767   */\n      dup2\n        /* \"#utility.yul\":4759:4794   */\n      eq\n        /* \"#utility.yul\":4749:4812   */\n      tag_133\n      jumpi\n        /* \"#utility.yul\":4808:4809   */\n      0x00\n        /* \"#utility.yul\":4805:4806   */\n      dup1\n        /* \"#utility.yul\":4798:4810   */\n      revert\n        /* \"#utility.yul\":4749:4812   */\n    tag_133:\n        /* \"#utility.yul\":4696:4818   */\n      pop\n      jump\t// out\n        /* \"#utility.yul\":4824:4963   */\n    tag_59:\n        /* \"#utility.yul\":4870:4875   */\n      0x00\n        /* \"#utility.yul\":4908:4914   */\n      dup2\n        /* \"#utility.yul\":4895:4915   */\n      calldataload\n        /* \"#utility.yul\":4886:4915   */\n      swap1\n      pop\n        /* \"#utility.yul\":4924:4957   */\n      tag_135\n        /* \"#utility.yul\":4951:4956   */\n      dup2\n        /* \"#utility.yul\":4924:4957   */\n      tag_58\n      jump\t// in\n    tag_135:\n        /* \"#utility.yul\":4824:4963   */\n      swap3\n      swap2\n      pop\n      pop\n      jump\t// out\n        /* \"#utility.yul\":4969:5621   */\n    tag_14:\n        /* \"#utility.yul\":5046:5052   */\n      0x00\n        /* \"#utility.yul\":5054:5060   */\n      dup1\n        /* \"#utility.yul\":5103:5105   */\n      0x40\n        /* \"#utility.yul\":5091:5100   */\n      dup4\n        /* \"#utility.yul\":5082:5089   */\n      dup6\n        /* \"#utility.yul\":5078:5101   */\n      sub\n        /* \"#utility.yul\":5074:5106   */\n      slt\n        /* \"#utility.yul\":5071:5190   */\n      iszero\n      tag_137\n      jumpi\n        /* \"#utility.yul\":5109:5188   */\n      tag_138\n      tag_37\n      jump\t// in\n    tag_138:\n        /* \"#utility.yul\":5071:5190   */\n    tag_137:\n        /* \"#utility.yul\":5257:5258   */\n      0x00\n        /* \"#utility.yul\":5246:5255   */\n      dup4\n        /* \"#utility.yul\":5242:5259   */\n      add\n        /* \"#utility.yul\":5229:5260   */\n      calldataload\n        /* \"#utility.yul\":5287:5305   */\n      0xffffffffffffffff\n        /* \"#utility.yul\":5279:5285   */\n      dup2\n        /* \"#utility.yul\":5276:5306   */\n      gt\n        /* \"#utility.yul\":5273:5390   */\n      iszero\n      tag_139\n      jumpi\n        /* \"#utility.yul\":5309:5388   */\n      tag_140\n      tag_38\n      jump\t// in\n    tag_140:\n        /* \"#utility.yul\":5273:5390   */\n    tag_139:\n        /* \"#utility.yul\":5414:5476   */\n      tag_141\n        /* \"#utility.yul\":5468:5475   */\n      dup6\n        /* \"#utility.yul\":5459:5465   */\n      dup3\n        /* \"#utility.yul\":5448:5457   */\n      dup7\n        /* \"#utility.yul\":5444:5466   */\n      add\n        /* \"#utility.yul\":5414:5476   */\n      tag_56\n      jump\t// in\n    tag_141:\n        /* \"#utility.yul\":5404:5476   */\n      swap3\n      pop\n        /* \"#utility.yul\":5200:5486   */\n      pop\n        /* \"#utility.yul\":5525:5527   */\n      0x20\n        /* \"#utility.yul\":5551:5604   */\n      tag_142\n        /* \"#utility.yul\":5596:5603   */\n      dup6\n        /* \"#utility.yul\":5587:5593   */\n      dup3\n        /* \"#utility.yul\":5576:5585   */\n      dup7\n        /* \"#utility.yul\":5572:5594   */\n      add\n        /* \"#utility.yul\":5551:5604   */\n      tag_59\n      jump\t// in\n    tag_142:\n        /* \"#utility.yul\":5541:5604   */\n      swap2\n      pop\n        /* \"#utility.yul\":5496:5614   */\n      pop\n        /* \"#utility.yul\":4969:5621   */\n      swap3\n      pop\n      swap3\n      swap1\n      pop\n      jump\t// out\n        /* \"#utility.yul\":5627:5745   */\n    tag_60:\n        /* \"#utility.yul\":5714:5738   */\n      tag_144\n        /* \"#utility.yul\":5732:5737   */\n      dup2\n        /* \"#utility.yul\":5714:5738   */\n      tag_40\n      jump\t// in\n    tag_144:\n        /* \"#utility.yul\":5709:5712   */\n      dup3\n        /* \"#utility.yul\":5702:5739   */\n      mstore\n        /* \"#utility.yul\":5627:5745   */\n      pop\n      pop\n      jump\t// out\n        /* \"#utility.yul\":5751:5973   */\n    tag_17:\n        /* \"#utility.yul\":5844:5848   */\n      0x00\n        /* \"#utility.yul\":5882:5884   */\n      0x20\n        /* \"#utility.yul\":5871:5880   */\n      dup3\n        /* \"#utility.yul\":5867:5885   */\n      add\n        /* \"#utility.yul\":5859:5885   */\n      swap1\n      pop\n        /* \"#utility.yul\":5895:5966   */\n      tag_146\n        /* \"#utility.yul\":5963:5964   */\n      0x00\n        /* \"#utility.yul\":5952:5961   */\n      dup4\n        /* \"#utility.yul\":5948:5965   */\n      add\n        /* \"#utility.yul\":5939:5945   */\n      dup5\n        /* \"#utility.yul\":5895:5966   */\n      tag_60\n      jump\t// in\n    tag_146:\n        /* \"#utility.yul\":5751:5973   */\n      swap3\n      swap2\n      pop\n      pop\n      jump\t// out\n        /* \"#utility.yul\":5979:6308   */\n    tag_20:\n        /* \"#utility.yul\":6038:6044   */\n      0x00\n        /* \"#utility.yul\":6087:6089   */\n      0x20\n        /* \"#utility.yul\":6075:6084   */\n      dup3\n        /* \"#utility.yul\":6066:6073   */\n      dup5\n        /* \"#utility.yul\":6062:6085   */\n      sub\n        /* \"#utility.yul\":6058:6090   */\n      slt\n        /* \"#utility.yul\":6055:6174   */\n      iszero\n      tag_148\n      jumpi\n        /* \"#utility.yul\":6093:6172   */\n      tag_149\n      tag_37\n      jump\t// in\n    tag_149:\n        /* \"#utility.yul\":6055:6174   */\n    tag_148:\n        /* \"#utility.yul\":6213:6214   */\n      0x00\n        /* \"#utility.yul\":6238:6291   */\n      tag_150\n        /* \"#utility.yul\":6283:6290   */\n      dup5\n        /* \"#utility.yul\":6274:6280   */\n      dup3\n        /* \"#utility.yul\":6263:6272   */\n      dup6\n        /* \"#utility.yul\":6259:6281   */\n      add\n        /* \"#utility.yul\":6238:6291   */\n      tag_59\n      jump\t// in\n    tag_150:\n        /* \"#utility.yul\":6228:6291   */\n      swap2\n      pop\n        /* \"#utility.yul\":6184:6301   */\n      pop\n        /* \"#utility.yul\":5979:6308   */\n      swap3\n      swap2\n      pop\n      pop\n      jump\t// out\n        /* \"#utility.yul\":6314:6461   */\n    tag_61:\n        /* \"#utility.yul\":6415:6426   */\n      0x00\n        /* \"#utility.yul\":6452:6455   */\n      dup2\n        /* \"#utility.yul\":6437:6455   */\n      swap1\n      pop\n        /* \"#utility.yul\":6314:6461   */\n      swap3\n      swap2\n      pop\n      pop\n      jump\t// out\n        /* \"#utility.yul\":6467:6853   */\n    tag_62:\n        /* \"#utility.yul\":6571:6574   */\n      0x00\n        /* \"#utility.yul\":6599:6637   */\n      tag_153\n        /* \"#utility.yul\":6631:6636   */\n      dup3\n        /* \"#utility.yul\":6599:6637   */\n      tag_43\n      jump\t// in\n    tag_153:\n        /* \"#utility.yul\":6653:6741   */\n      tag_154\n        /* \"#utility.yul\":6734:6740   */\n      dup2\n        /* \"#utility.yul\":6729:6732   */\n      dup6\n        /* \"#utility.yul\":6653:6741   */\n      tag_61\n      jump\t// in\n    tag_154:\n        /* \"#utility.yul\":6646:6741   */\n      swap4\n      pop\n        /* \"#utility.yul\":6750:6815   */\n      tag_155\n        /* \"#utility.yul\":6808:6814   */\n      dup2\n        /* \"#utility.yul\":6803:6806   */\n      dup6\n        /* \"#utility.yul\":6796:6800   */\n      0x20\n        /* \"#utility.yul\":6789:6794   */\n      dup7\n        /* \"#utility.yul\":6785:6801   */\n      add\n        /* \"#utility.yul\":6750:6815   */\n      tag_45\n      jump\t// in\n    tag_155:\n        /* \"#utility.yul\":6840:6846   */\n      dup1\n        /* \"#utility.yul\":6835:6838   */\n      dup5\n        /* \"#utility.yul\":6831:6847   */\n      add\n        /* \"#utility.yul\":6824:6847   */\n      swap2\n      pop\n        /* \"#utility.yul\":6575:6853   */\n      pop\n        /* \"#utility.yul\":6467:6853   */\n      swap3\n      swap2\n      pop\n      pop\n      jump\t// out\n        /* \"#utility.yul\":6859:7286   */\n    tag_27:\n        /* \"#utility.yul\":7035:7038   */\n      0x00\n        /* \"#utility.yul\":7057:7150   */\n      tag_157\n        /* \"#utility.yul\":7146:7149   */\n      dup3\n        /* \"#utility.yul\":7137:7143   */\n      dup6\n        /* \"#utility.yul\":7057:7150   */\n      tag_62\n      jump\t// in\n    tag_157:\n        /* \"#utility.yul\":7050:7150   */\n      swap2\n      pop\n        /* \"#utility.yul\":7167:7260   */\n      tag_158\n        /* \"#utility.yul\":7256:7259   */\n      dup3\n        /* \"#utility.yul\":7247:7253   */\n      dup5\n        /* \"#utility.yul\":7167:7260   */\n      tag_62\n      jump\t// in\n    tag_158:\n        /* \"#utility.yul\":7160:7260   */\n      swap2\n      pop\n        /* \"#utility.yul\":7277:7280   */\n      dup2\n        /* \"#utility.yul\":7270:7280   */\n      swap1\n      pop\n        /* \"#utility.yul\":6859:7286   */\n      swap4\n      swap3\n      pop\n      pop\n      pop\n      jump\t// out\n        /* \"#utility.yul\":7292:7441   */\n    tag_63:\n        /* \"#utility.yul\":7328:7335   */\n      0x00\n        /* \"#utility.yul\":7368:7434   */\n      0xff00000000000000000000000000000000000000000000000000000000000000\n        /* \"#utility.yul\":7361:7366   */\n      dup3\n        /* \"#utility.yul\":7357:7435   */\n      and\n        /* \"#utility.yul\":7346:7435   */\n      swap1\n      pop\n        /* \"#utility.yul\":7292:7441   */\n      swap2\n      swap1\n      pop\n      jump\t// out\n        /* \"#utility.yul\":7447:7525   */\n    tag_64:\n        /* \"#utility.yul\":7485:7492   */\n      0x00\n        /* \"#utility.yul\":7514:7519   */\n      dup2\n        /* \"#utility.yul\":7503:7519   */\n      swap1\n      pop\n        /* \"#utility.yul\":7447:7525   */\n      swap2\n      swap1\n      pop\n      jump\t// out\n        /* \"#utility.yul\":7531:7684   */\n    tag_65:\n        /* \"#utility.yul\":7634:7677   */\n      tag_162\n        /* \"#utility.yul\":7653:7676   */\n      tag_163\n        /* \"#utility.yul\":7670:7675   */\n      dup3\n        /* \"#utility.yul\":7653:7676   */\n      tag_63\n      jump\t// in\n    tag_163:\n        /* \"#utility.yul\":7634:7677   */\n      tag_64\n      jump\t// in\n    tag_162:\n        /* \"#utility.yul\":7629:7632   */\n      dup3\n        /* \"#utility.yul\":7622:7678   */\n      mstore\n        /* \"#utility.yul\":7531:7684   */\n      pop\n      pop\n      jump\t// out\n        /* \"#utility.yul\":7690:7784   */\n    tag_66:\n        /* \"#utility.yul\":7723:7731   */\n      0x00\n        /* \"#utility.yul\":7771:7776   */\n      dup2\n        /* \"#utility.yul\":7767:7769   */\n      0x60\n        /* \"#utility.yul\":7763:7777   */\n      shl\n        /* \"#utility.yul\":7742:7777   */\n      swap1\n      pop\n        /* \"#utility.yul\":7690:7784   */\n      swap2\n      swap1\n      pop\n      jump\t// out\n        /* \"#utility.yul\":7790:7884   */\n    tag_67:\n        /* \"#utility.yul\":7829:7836   */\n      0x00\n        /* \"#utility.yul\":7858:7878   */\n      tag_166\n        /* \"#utility.yul\":7872:7877   */\n      dup3\n        /* \"#utility.yul\":7858:7878   */\n      tag_66\n      jump\t// in\n    tag_166:\n        /* \"#utility.yul\":7847:7878   */\n      swap1\n      pop\n        /* \"#utility.yul\":7790:7884   */\n      swap2\n      swap1\n      pop\n      jump\t// out\n        /* \"#utility.yul\":7890:7990   */\n    tag_68:\n        /* \"#utility.yul\":7929:7936   */\n      0x00\n        /* \"#utility.yul\":7958:7984   */\n      tag_168\n        /* \"#utility.yul\":7978:7983   */\n      dup3\n        /* \"#utility.yul\":7958:7984   */\n      tag_67\n      jump\t// in\n    tag_168:\n        /* \"#utility.yul\":7947:7984   */\n      swap1\n      pop\n        /* \"#utility.yul\":7890:7990   */\n      swap2\n      swap1\n      pop\n      jump\t// out\n        /* \"#utility.yul\":7996:8153   */\n    tag_69:\n        /* \"#utility.yul\":8101:8146   */\n      tag_170\n        /* \"#utility.yul\":8121:8145   */\n      tag_171\n        /* \"#utility.yul\":8139:8144   */\n      dup3\n        /* \"#utility.yul\":8121:8145   */\n      tag_40\n      jump\t// in\n    tag_171:\n        /* \"#utility.yul\":8101:8146   */\n      tag_68\n      jump\t// in\n    tag_170:\n        /* \"#utility.yul\":8096:8099   */\n      dup3\n        /* \"#utility.yul\":8089:8147   */\n      mstore\n        /* \"#utility.yul\":7996:8153   */\n      pop\n      pop\n      jump\t// out\n        /* \"#utility.yul\":8159:8238   */\n    tag_70:\n        /* \"#utility.yul\":8198:8205   */\n      0x00\n        /* \"#utility.yul\":8227:8232   */\n      dup2\n        /* \"#utility.yul\":8216:8232   */\n      swap1\n      pop\n        /* \"#utility.yul\":8159:8238   */\n      swap2\n      swap1\n      pop\n      jump\t// out\n        /* \"#utility.yul\":8244:8401   */\n    tag_71:\n        /* \"#utility.yul\":8349:8394   */\n      tag_174\n        /* \"#utility.yul\":8369:8393   */\n      tag_175\n        /* \"#utility.yul\":8387:8392   */\n      dup3\n        /* \"#utility.yul\":8369:8393   */\n      tag_57\n      jump\t// in\n    tag_175:\n        /* \"#utility.yul\":8349:8394   */\n      tag_70\n      jump\t// in\n    tag_174:\n        /* \"#utility.yul\":8344:8347   */\n      dup3\n        /* \"#utility.yul\":8337:8395   */\n      mstore\n        /* \"#utility.yul\":8244:8401   */\n      pop\n      pop\n      jump\t// out\n        /* \"#utility.yul\":8407:8484   */\n    tag_72:\n        /* \"#utility.yul\":8444:8451   */\n      0x00\n        /* \"#utility.yul\":8473:8478   */\n      dup2\n        /* \"#utility.yul\":8462:8478   */\n      swap1\n      pop\n        /* \"#utility.yul\":8407:8484   */\n      swap2\n      swap1\n      pop\n      jump\t// out\n        /* \"#utility.yul\":8490:8569   */\n    tag_73:\n        /* \"#utility.yul\":8529:8536   */\n      0x00\n        /* \"#utility.yul\":8558:8563   */\n      dup2\n        /* \"#utility.yul\":8547:8563   */\n      swap1\n      pop\n        /* \"#utility.yul\":8490:8569   */\n      swap2\n      swap1\n      pop\n      jump\t// out\n        /* \"#utility.yul\":8575:8732   */\n    tag_74:\n        /* \"#utility.yul\":8680:8725   */\n      tag_179\n        /* \"#utility.yul\":8700:8724   */\n      tag_180\n        /* \"#utility.yul\":8718:8723   */\n      dup3\n        /* \"#utility.yul\":8700:8724   */\n      tag_72\n      jump\t// in\n    tag_180:\n        /* \"#utility.yul\":8680:8725   */\n      tag_73\n      jump\t// in\n    tag_179:\n        /* \"#utility.yul\":8675:8678   */\n      dup3\n        /* \"#utility.yul\":8668:8726   */\n      mstore\n        /* \"#utility.yul\":8575:8732   */\n      pop\n      pop\n      jump\t// out\n        /* \"#utility.yul\":8738:9412   */\n    tag_30:\n        /* \"#utility.yul\":8932:8935   */\n      0x00\n        /* \"#utility.yul\":8947:9020   */\n      tag_182\n        /* \"#utility.yul\":9016:9019   */\n      dup3\n        /* \"#utility.yul\":9007:9013   */\n      dup8\n        /* \"#utility.yul\":8947:9020   */\n      tag_65\n      jump\t// in\n    tag_182:\n        /* \"#utility.yul\":9045:9046   */\n      0x01\n        /* \"#utility.yul\":9040:9043   */\n      dup3\n        /* \"#utility.yul\":9036:9047   */\n      add\n        /* \"#utility.yul\":9029:9047   */\n      swap2\n      pop\n        /* \"#utility.yul\":9057:9132   */\n      tag_183\n        /* \"#utility.yul\":9128:9131   */\n      dup3\n        /* \"#utility.yul\":9119:9125   */\n      dup7\n        /* \"#utility.yul\":9057:9132   */\n      tag_69\n      jump\t// in\n    tag_183:\n        /* \"#utility.yul\":9157:9159   */\n      0x14\n        /* \"#utility.yul\":9152:9155   */\n      dup3\n        /* \"#utility.yul\":9148:9160   */\n      add\n        /* \"#utility.yul\":9141:9160   */\n      swap2\n      pop\n        /* \"#utility.yul\":9170:9245   */\n      tag_184\n        /* \"#utility.yul\":9241:9244   */\n      dup3\n        /* \"#utility.yul\":9232:9238   */\n      dup6\n        /* \"#utility.yul\":9170:9245   */\n      tag_71\n      jump\t// in\n    tag_184:\n        /* \"#utility.yul\":9270:9272   */\n      0x20\n        /* \"#utility.yul\":9265:9268   */\n      dup3\n        /* \"#utility.yul\":9261:9273   */\n      add\n        /* \"#utility.yul\":9254:9273   */\n      swap2\n      pop\n        /* \"#utility.yul\":9283:9358   */\n      tag_185\n        /* \"#utility.yul\":9354:9357   */\n      dup3\n        /* \"#utility.yul\":9345:9351   */\n      dup5\n        /* \"#utility.yul\":9283:9358   */\n      tag_74\n      jump\t// in\n    tag_185:\n        /* \"#utility.yul\":9383:9385   */\n      0x20\n        /* \"#utility.yul\":9378:9381   */\n      dup3\n        /* \"#utility.yul\":9374:9386   */\n      add\n        /* \"#utility.yul\":9367:9386   */\n      swap2\n      pop\n        /* \"#utility.yul\":9403:9406   */\n      dup2\n        /* \"#utility.yul\":9396:9406   */\n      swap1\n      pop\n        /* \"#utility.yul\":8738:9412   */\n      swap6\n      swap5\n      pop\n      pop\n      pop\n      pop\n      pop\n      jump\t// out\n    stop\n\n    sub_0: assembly {\n            /* \"058Create2.sol\":490:609  contract DeployWithCreate2{... */\n          mstore(0x40, 0x80)\n            /* \"058Create2.sol\":549:607  constructor(address _owner){... */\n          callvalue\n          dup1\n          iszero\n          tag_1\n          jumpi\n          0x00\n          dup1\n          revert\n        tag_1:\n          pop\n          mload(0x40)\n          sub(codesize, bytecodeSize)\n          dup1\n          bytecodeSize\n          dup4\n          codecopy\n          dup2\n          dup2\n          add\n          0x40\n          mstore\n          dup2\n          add\n          swap1\n          tag_2\n          swap2\n          swap1\n          tag_3\n          jump\t// in\n        tag_2:\n            /* \"058Create2.sol\":594:600  _owner */\n          dup1\n            /* \"058Create2.sol\":586:591  owner */\n          0x00\n          dup1\n            /* \"058Create2.sol\":586:600  owner = _owner */\n          0x0100\n          exp\n          dup2\n          sload\n          dup2\n          0xffffffffffffffffffffffffffffffffffffffff\n          mul\n          not\n          and\n          swap1\n          dup4\n          0xffffffffffffffffffffffffffffffffffffffff\n          and\n          mul\n          or\n          swap1\n          sstore\n          pop\n            /* \"058Create2.sol\":549:607  constructor(address _owner){... */\n          pop\n            /* \"058Create2.sol\":490:609  contract DeployWithCreate2{... */\n          jump(tag_6)\n            /* \"#utility.yul\":88:205   */\n        tag_8:\n            /* \"#utility.yul\":197:198   */\n          0x00\n            /* \"#utility.yul\":194:195   */\n          dup1\n            /* \"#utility.yul\":187:199   */\n          revert\n            /* \"#utility.yul\":334:460   */\n        tag_10:\n            /* \"#utility.yul\":371:378   */\n          0x00\n            /* \"#utility.yul\":411:453   */\n          0xffffffffffffffffffffffffffffffffffffffff\n            /* \"#utility.yul\":404:409   */\n          dup3\n            /* \"#utility.yul\":400:454   */\n          and\n            /* \"#utility.yul\":389:454   */\n          swap1\n          pop\n            /* \"#utility.yul\":334:460   */\n          swap2\n          swap1\n          pop\n          jump\t// out\n            /* \"#utility.yul\":466:562   */\n        tag_11:\n            /* \"#utility.yul\":503:510   */\n          0x00\n            /* \"#utility.yul\":532:556   */\n          tag_20\n            /* \"#utility.yul\":550:555   */\n          dup3\n            /* \"#utility.yul\":532:556   */\n          tag_10\n          jump\t// in\n        tag_20:\n            /* \"#utility.yul\":521:556   */\n          swap1\n          pop\n            /* \"#utility.yul\":466:562   */\n          swap2\n          swap1\n          pop\n          jump\t// out\n            /* \"#utility.yul\":568:690   */\n        tag_12:\n            /* \"#utility.yul\":641:665   */\n          tag_22\n            /* \"#utility.yul\":659:664   */\n          dup2\n            /* \"#utility.yul\":641:665   */\n          tag_11\n          jump\t// in\n        tag_22:\n            /* \"#utility.yul\":634:639   */\n          dup2\n            /* \"#utility.yul\":631:666   */\n          eq\n            /* \"#utility.yul\":621:684   */\n          tag_23\n          jumpi\n            /* \"#utility.yul\":680:681   */\n          0x00\n            /* \"#utility.yul\":677:678   */\n          dup1\n            /* \"#utility.yul\":670:682   */\n          revert\n            /* \"#utility.yul\":621:684   */\n        tag_23:\n            /* \"#utility.yul\":568:690   */\n          pop\n          jump\t// out\n            /* \"#utility.yul\":696:839   */\n        tag_13:\n            /* \"#utility.yul\":753:758   */\n          0x00\n            /* \"#utility.yul\":784:790   */\n          dup2\n            /* \"#utility.yul\":778:791   */\n          mload\n            /* \"#utility.yul\":769:791   */\n          swap1\n          pop\n            /* \"#utility.yul\":800:833   */\n          tag_25\n            /* \"#utility.yul\":827:832   */\n          dup2\n            /* \"#utility.yul\":800:833   */\n          tag_12\n          jump\t// in\n        tag_25:\n            /* \"#utility.yul\":696:839   */\n          swap3\n          swap2\n          pop\n          pop\n          jump\t// out\n            /* \"#utility.yul\":845:1196   */\n        tag_3:\n            /* \"#utility.yul\":915:921   */\n          0x00\n            /* \"#utility.yul\":964:966   */\n          0x20\n            /* \"#utility.yul\":952:961   */\n          dup3\n            /* \"#utility.yul\":943:950   */\n          dup5\n            /* \"#utility.yul\":939:962   */\n          sub\n            /* \"#utility.yul\":935:967   */\n          slt\n            /* \"#utility.yul\":932:1051   */\n          iszero\n          tag_27\n          jumpi\n            /* \"#utility.yul\":970:1049   */\n          tag_28\n          tag_8\n          jump\t// in\n        tag_28:\n            /* \"#utility.yul\":932:1051   */\n        tag_27:\n            /* \"#utility.yul\":1090:1091   */\n          0x00\n            /* \"#utility.yul\":1115:1179   */\n          tag_29\n            /* \"#utility.yul\":1171:1178   */\n          dup5\n            /* \"#utility.yul\":1162:1168   */\n          dup3\n            /* \"#utility.yul\":1151:1160   */\n          dup6\n            /* \"#utility.yul\":1147:1169   */\n          add\n            /* \"#utility.yul\":1115:1179   */\n          tag_13\n          jump\t// in\n        tag_29:\n            /* \"#utility.yul\":1105:1179   */\n          swap2\n          pop\n            /* \"#utility.yul\":1061:1189   */\n          pop\n            /* \"#utility.yul\":845:1196   */\n          swap3\n          swap2\n          pop\n          pop\n          jump\t// out\n            /* \"058Create2.sol\":490:609  contract DeployWithCreate2{... */\n        tag_6:\n          dataSize(sub_0)\n          dup1\n          dataOffset(sub_0)\n          0x00\n          codecopy\n          0x00\n          return\n        stop\n\n        sub_0: assembly {\n                /* \"058Create2.sol\":490:609  contract DeployWithCreate2{... */\n              mstore(0x40, 0x80)\n              callvalue\n              dup1\n              iszero\n              tag_1\n              jumpi\n              0x00\n              dup1\n              revert\n            tag_1:\n              pop\n              jumpi(tag_2, lt(calldatasize, 0x04))\n              shr(0xe0, calldataload(0x00))\n              dup1\n              0x8da5cb5b\n              eq\n              tag_3\n              jumpi\n            tag_2:\n              0x00\n              dup1\n              revert\n                /* \"058Create2.sol\":522:542  address public owner */\n            tag_3:\n              tag_4\n              tag_5\n              jump\t// in\n            tag_4:\n              mload(0x40)\n              tag_6\n              swap2\n              swap1\n              tag_7\n              jump\t// in\n            tag_6:\n              mload(0x40)\n              dup1\n              swap2\n              sub\n              swap1\n              return\n            tag_5:\n              0x00\n              dup1\n              sload\n              swap1\n              0x0100\n              exp\n              swap1\n              div\n              0xffffffffffffffffffffffffffffffffffffffff\n              and\n              dup2\n              jump\t// out\n                /* \"#utility.yul\":7:133   */\n            tag_8:\n                /* \"#utility.yul\":44:51   */\n              0x00\n                /* \"#utility.yul\":84:126   */\n              0xffffffffffffffffffffffffffffffffffffffff\n                /* \"#utility.yul\":77:82   */\n              dup3\n                /* \"#utility.yul\":73:127   */\n              and\n                /* \"#utility.yul\":62:127   */\n              swap1\n              pop\n                /* \"#utility.yul\":7:133   */\n              swap2\n              swap1\n              pop\n              jump\t// out\n                /* \"#utility.yul\":139:235   */\n            tag_9:\n                /* \"#utility.yul\":176:183   */\n              0x00\n                /* \"#utility.yul\":205:229   */\n              tag_14\n                /* \"#utility.yul\":223:228   */\n              dup3\n                /* \"#utility.yul\":205:229   */\n              tag_8\n              jump\t// in\n            tag_14:\n                /* \"#utility.yul\":194:229   */\n              swap1\n              pop\n                /* \"#utility.yul\":139:235   */\n              swap2\n              swap1\n              pop\n              jump\t// out\n                /* \"#utility.yul\":241:359   */\n            tag_10:\n                /* \"#utility.yul\":328:352   */\n              tag_16\n                /* \"#utility.yul\":346:351   */\n              dup2\n                /* \"#utility.yul\":328:352   */\n              tag_9\n              jump\t// in\n            tag_16:\n                /* \"#utility.yul\":323:326   */\n              dup3\n                /* \"#utility.yul\":316:353   */\n              mstore\n                /* \"#utility.yul\":241:359   */\n              pop\n              pop\n              jump\t// out\n                /* \"#utility.yul\":365:587   */\n            tag_7:\n                /* \"#utility.yul\":458:462   */\n              0x00\n                /* \"#utility.yul\":496:498   */\n              0x20\n                /* \"#utility.yul\":485:494   */\n              dup3\n                /* \"#utility.yul\":481:499   */\n              add\n                /* \"#utility.yul\":473:499   */\n              swap1\n              pop\n                /* \"#utility.yul\":509:580   */\n              tag_18\n                /* \"#utility.yul\":577:578   */\n              0x00\n                /* \"#utility.yul\":566:575   */\n              dup4\n                /* \"#utility.yul\":562:579   */\n              add\n                /* \"#utility.yul\":553:559   */\n              dup5\n                /* \"#utility.yul\":509:580   */\n              tag_10\n              jump\t// in\n            tag_18:\n                /* \"#utility.yul\":365:587   */\n              swap3\n              swap2\n              pop\n              pop\n              jump\t// out\n\n            auxdata: 0xa2646970667358221220f6a40adcacb8d2fe722ad5635cf28b4f55d9d6c92ef6559c32fc0893cc14bd6f64736f6c63430008170033\n        }\n    }\n\n    auxdata: 0xa2646970667358221220874a1899850218303f939fe3cf269e980eb1d15b99d558a50c20d08814e1034d64736f6c63430008170033\n}\n",
				"bytecode": {
					"linkReferences": {},
					"object": "608060405234801561000f575f80fd5b506108fb8061001d5f395ff3fe608060405234801561000f575f80fd5b506004361061003f575f3560e01c80630c6008af1461004357806394ca2cb514610073578063a5e38751146100a3575b5f80fd5b61005d60048036038101906100589190610267565b6100bf565b60405161006a919061031c565b60405180910390f35b61008d6004803603810190610088919061049b565b610131565b60405161009a9190610504565b60405180910390f35b6100bd60048036038101906100b8919061051d565b610179565b005b60605f604051806020016100d2906101ef565b6020820181038252601f19601f82011660405250905080836040516020016100fa9190610504565b60405160208183030381529060405260405160200161011a929190610582565b604051602081830303815290604052915050919050565b5f8060ff60f81b30848680519060200120604051602001610155949392919061067e565b604051602081830303815290604052805190602001209050805f1c91505092915050565b5f815f1b3360405161018a906101ef565b6101949190610504565b8190604051809103905ff59050801580156101b1573d5f803e3d5ffd5b5090507f55ea6c6b31543d8e2ec6a72f71a79c0f4b72ed0d4757172b043d8f4f4cd84848816040516101e39190610504565b60405180910390a15050565b6101fa806106cc83390190565b5f604051905090565b5f80fd5b5f80fd5b5f73ffffffffffffffffffffffffffffffffffffffff82169050919050565b5f6102368261020d565b9050919050565b6102468161022c565b8114610250575f80fd5b50565b5f813590506102618161023d565b92915050565b5f6020828403121561027c5761027b610205565b5b5f61028984828501610253565b91505092915050565b5f81519050919050565b5f82825260208201905092915050565b5f5b838110156102c95780820151818401526020810190506102ae565b5f8484015250505050565b5f601f19601f8301169050919050565b5f6102ee82610292565b6102f8818561029c565b93506103088185602086016102ac565b610311816102d4565b840191505092915050565b5f6020820190508181035f83015261033481846102e4565b905092915050565b5f80fd5b5f80fd5b7f4e487b71000000000000000000000000000000000000000000000000000000005f52604160045260245ffd5b61037a826102d4565b810181811067ffffffffffffffff8211171561039957610398610344565b5b80604052505050565b5f6103ab6101fc565b90506103b78282610371565b919050565b5f67ffffffffffffffff8211156103d6576103d5610344565b5b6103df826102d4565b9050602081019050919050565b828183375f83830152505050565b5f61040c610407846103bc565b6103a2565b90508281526020810184848401111561042857610427610340565b5b6104338482856103ec565b509392505050565b5f82601f83011261044f5761044e61033c565b5b813561045f8482602086016103fa565b91505092915050565b5f819050919050565b61047a81610468565b8114610484575f80fd5b50565b5f8135905061049581610471565b92915050565b5f80604083850312156104b1576104b0610205565b5b5f83013567ffffffffffffffff8111156104ce576104cd610209565b5b6104da8582860161043b565b92505060206104eb85828601610487565b9150509250929050565b6104fe8161022c565b82525050565b5f6020820190506105175f8301846104f5565b92915050565b5f6020828403121561053257610531610205565b5b5f61053f84828501610487565b91505092915050565b5f81905092915050565b5f61055c82610292565b6105668185610548565b93506105768185602086016102ac565b80840191505092915050565b5f61058d8285610552565b91506105998284610552565b91508190509392505050565b5f7fff0000000000000000000000000000000000000000000000000000000000000082169050919050565b5f819050919050565b6105ea6105e5826105a5565b6105d0565b82525050565b5f8160601b9050919050565b5f610606826105f0565b9050919050565b5f610617826105fc565b9050919050565b61062f61062a8261022c565b61060d565b82525050565b5f819050919050565b61064f61064a82610468565b610635565b82525050565b5f819050919050565b5f819050919050565b61067861067382610655565b61065e565b82525050565b5f61068982876105d9565b600182019150610699828661061e565b6014820191506106a9828561063e565b6020820191506106b98284610667565b6020820191508190509594505050505056fe608060405234801561000f575f80fd5b506040516101fa3803806101fa833981810160405281019061003191906100d4565b805f806101000a81548173ffffffffffffffffffffffffffffffffffffffff021916908373ffffffffffffffffffffffffffffffffffffffff160217905550506100ff565b5f80fd5b5f73ffffffffffffffffffffffffffffffffffffffff82169050919050565b5f6100a38261007a565b9050919050565b6100b381610099565b81146100bd575f80fd5b50565b5f815190506100ce816100aa565b92915050565b5f602082840312156100e9576100e8610076565b5b5f6100f6848285016100c0565b91505092915050565b60ef8061010b5f395ff3fe6080604052348015600e575f80fd5b50600436106026575f3560e01c80638da5cb5b14602a575b5f80fd5b60306044565b604051603b919060a2565b60405180910390f35b5f8054906101000a900473ffffffffffffffffffffffffffffffffffffffff1681565b5f73ffffffffffffffffffffffffffffffffffffffff82169050919050565b5f608e826067565b9050919050565b609c816086565b82525050565b5f60208201905060b35f8301846095565b9291505056fea2646970667358221220f6a40adcacb8d2fe722ad5635cf28b4f55d9d6c92ef6559c32fc0893cc14bd6f64736f6c63430008170033a2646970667358221220874a1899850218303f939fe3cf269e980eb1d15b99d558a50c20d08814e1034d64736f6c63430008170033",
					"opcodes": "PUSH1 0x80 PUSH1 0x40 MSTORE CALLVALUE DUP1 ISZERO PUSH2 0xF JUMPI PUSH0 DUP1 REVERT JUMPDEST POP PUSH2 0x8FB DUP1 PUSH2 0x1D PUSH0 CODECOPY PUSH0 RETURN INVALID PUSH1 0x80 PUSH1 0x40 MSTORE CALLVALUE DUP1 ISZERO PUSH2 0xF JUMPI PUSH0 DUP1 REVERT JUMPDEST POP PUSH1 0x4 CALLDATASIZE LT PUSH2 0x3F JUMPI PUSH0 CALLDATALOAD PUSH1 0xE0 SHR DUP1 PUSH4 0xC6008AF EQ PUSH2 0x43 JUMPI DUP1 PUSH4 0x94CA2CB5 EQ PUSH2 0x73 JUMPI DUP1 PUSH4 0xA5E38751 EQ PUSH2 0xA3 JUMPI JUMPDEST PUSH0 DUP1 REVERT JUMPDEST PUSH2 0x5D PUSH1 0x4 DUP1 CALLDATASIZE SUB DUP2 ADD SWAP1 PUSH2 0x58 SWAP2 SWAP1 PUSH2 0x267 JUMP JUMPDEST PUSH2 0xBF JUMP JUMPDEST PUSH1 0x40 MLOAD PUSH2 0x6A SWAP2 SWAP1 PUSH2 0x31C JUMP JUMPDEST PUSH1 0x40 MLOAD DUP1 SWAP2 SUB SWAP1 RETURN JUMPDEST PUSH2 0x8D PUSH1 0x4 DUP1 CALLDATASIZE SUB DUP2 ADD SWAP1 PUSH2 0x88 SWAP2 SWAP1 PUSH2 0x49B JUMP JUMPDEST PUSH2 0x131 JUMP JUMPDEST PUSH1 0x40 MLOAD PUSH2 0x9A SWAP2 SWAP1 PUSH2 0x504 JUMP JUMPDEST PUSH1 0x40 MLOAD DUP1 SWAP2 SUB SWAP1 RETURN JUMPDEST PUSH2 0xBD PUSH1 0x4 DUP1 CALLDATASIZE SUB DUP2 ADD SWAP1 PUSH2 0xB8 SWAP2 SWAP1 PUSH2 0x51D JUMP JUMPDEST PUSH2 0x179 JUMP JUMPDEST STOP JUMPDEST PUSH1 0x60 PUSH0 PUSH1 0x40 MLOAD DUP1 PUSH1 0x20 ADD PUSH2 0xD2 SWAP1 PUSH2 0x1EF JUMP JUMPDEST PUSH1 0x20 DUP3 ADD DUP2 SUB DUP3 MSTORE PUSH1 0x1F NOT PUSH1 0x1F DUP3 ADD AND PUSH1 0x40 MSTORE POP SWAP1 POP DUP1 DUP4 PUSH1 0x40 MLOAD PUSH1 0x20 ADD PUSH2 0xFA SWAP2 SWAP1 PUSH2 0x504 JUMP JUMPDEST PUSH1 0x40 MLOAD PUSH1 0x20 DUP2 DUP4 SUB SUB DUP2 MSTORE SWAP1 PUSH1 0x40 MSTORE PUSH1 0x40 MLOAD PUSH1 0x20 ADD PUSH2 0x11A SWAP3 SWAP2 SWAP1 PUSH2 0x582 JUMP JUMPDEST PUSH1 0x40 MLOAD PUSH1 0x20 DUP2 DUP4 SUB SUB DUP2 MSTORE SWAP1 PUSH1 0x40 MSTORE SWAP2 POP POP SWAP2 SWAP1 POP JUMP JUMPDEST PUSH0 DUP1 PUSH1 0xFF PUSH1 0xF8 SHL ADDRESS DUP5 DUP7 DUP1 MLOAD SWAP1 PUSH1 0x20 ADD KECCAK256 PUSH1 0x40 MLOAD PUSH1 0x20 ADD PUSH2 0x155 SWAP5 SWAP4 SWAP3 SWAP2 SWAP1 PUSH2 0x67E JUMP JUMPDEST PUSH1 0x40 MLOAD PUSH1 0x20 DUP2 DUP4 SUB SUB DUP2 MSTORE SWAP1 PUSH1 0x40 MSTORE DUP1 MLOAD SWAP1 PUSH1 0x20 ADD KECCAK256 SWAP1 POP DUP1 PUSH0 SHR SWAP2 POP POP SWAP3 SWAP2 POP POP JUMP JUMPDEST PUSH0 DUP2 PUSH0 SHL CALLER PUSH1 0x40 MLOAD PUSH2 0x18A SWAP1 PUSH2 0x1EF JUMP JUMPDEST PUSH2 0x194 SWAP2 SWAP1 PUSH2 0x504 JUMP JUMPDEST DUP2 SWAP1 PUSH1 0x40 MLOAD DUP1 SWAP2 SUB SWAP1 PUSH0 CREATE2 SWAP1 POP DUP1 ISZERO DUP1 ISZERO PUSH2 0x1B1 JUMPI RETURNDATASIZE PUSH0 DUP1 RETURNDATACOPY RETURNDATASIZE PUSH0 REVERT JUMPDEST POP SWAP1 POP PUSH32 0x55EA6C6B31543D8E2EC6A72F71A79C0F4B72ED0D4757172B043D8F4F4CD84848 DUP2 PUSH1 0x40 MLOAD PUSH2 0x1E3 SWAP2 SWAP1 PUSH2 0x504 JUMP JUMPDEST PUSH1 0x40 MLOAD DUP1 SWAP2 SUB SWAP1 LOG1 POP POP JUMP JUMPDEST PUSH2 0x1FA DUP1 PUSH2 0x6CC DUP4 CODECOPY ADD SWAP1 JUMP JUMPDEST PUSH0 PUSH1 0x40 MLOAD SWAP1 POP SWAP1 JUMP JUMPDEST PUSH0 DUP1 REVERT JUMPDEST PUSH0 DUP1 REVERT JUMPDEST PUSH0 PUSH20 0xFFFFFFFFFFFFFFFFFFFFFFFFFFFFFFFFFFFFFFFF DUP3 AND SWAP1 POP SWAP2 SWAP1 POP JUMP JUMPDEST PUSH0 PUSH2 0x236 DUP3 PUSH2 0x20D JUMP JUMPDEST SWAP1 POP SWAP2 SWAP1 POP JUMP JUMPDEST PUSH2 0x246 DUP2 PUSH2 0x22C JUMP JUMPDEST DUP2 EQ PUSH2 0x250 JUMPI PUSH0 DUP1 REVERT JUMPDEST POP JUMP JUMPDEST PUSH0 DUP2 CALLDATALOAD SWAP1 POP PUSH2 0x261 DUP2 PUSH2 0x23D JUMP JUMPDEST SWAP3 SWAP2 POP POP JUMP JUMPDEST PUSH0 PUSH1 0x20 DUP3 DUP5 SUB SLT ISZERO PUSH2 0x27C JUMPI PUSH2 0x27B PUSH2 0x205 JUMP JUMPDEST JUMPDEST PUSH0 PUSH2 0x289 DUP5 DUP3 DUP6 ADD PUSH2 0x253 JUMP JUMPDEST SWAP2 POP POP SWAP3 SWAP2 POP POP JUMP JUMPDEST PUSH0 DUP2 MLOAD SWAP1 POP SWAP2 SWAP1 POP JUMP JUMPDEST PUSH0 DUP3 DUP3 MSTORE PUSH1 0x20 DUP3 ADD SWAP1 POP SWAP3 SWAP2 POP POP JUMP JUMPDEST PUSH0 JUMPDEST DUP4 DUP2 LT ISZERO PUSH2 0x2C9 JUMPI DUP1 DUP3 ADD MLOAD DUP2 DUP5 ADD MSTORE PUSH1 0x20 DUP2 ADD SWAP1 POP PUSH2 0x2AE JUMP JUMPDEST PUSH0 DUP5 DUP5 ADD MSTORE POP POP POP POP JUMP JUMPDEST PUSH0 PUSH1 0x1F NOT PUSH1 0x1F DUP4 ADD AND SWAP1 POP SWAP2 SWAP1 POP JUMP JUMPDEST PUSH0 PUSH2 0x2EE DUP3 PUSH2 0x292 JUMP JUMPDEST PUSH2 0x2F8 DUP2 DUP6 PUSH2 0x29C JUMP JUMPDEST SWAP4 POP PUSH2 0x308 DUP2 DUP6 PUSH1 0x20 DUP7 ADD PUSH2 0x2AC JUMP JUMPDEST PUSH2 0x311 DUP2 PUSH2 0x2D4 JUMP JUMPDEST DUP5 ADD SWAP2 POP POP SWAP3 SWAP2 POP POP JUMP JUMPDEST PUSH0 PUSH1 0x20 DUP3 ADD SWAP1 POP DUP2 DUP2 SUB PUSH0 DUP4 ADD MSTORE PUSH2 0x334 DUP2 DUP5 PUSH2 0x2E4 JUMP JUMPDEST SWAP1 POP SWAP3 SWAP2 POP POP JUMP JUMPDEST PUSH0 DUP1 REVERT JUMPDEST PUSH0 DUP1 REVERT JUMPDEST PUSH32 0x4E487B7100000000000000000000000000000000000000000000000000000000 PUSH0 MSTORE PUSH1 0x41 PUSH1 0x4 MSTORE PUSH1 0x24 PUSH0 REVERT JUMPDEST PUSH2 0x37A DUP3 PUSH2 0x2D4 JUMP JUMPDEST DUP2 ADD DUP2 DUP2 LT PUSH8 0xFFFFFFFFFFFFFFFF DUP3 GT OR ISZERO PUSH2 0x399 JUMPI PUSH2 0x398 PUSH2 0x344 JUMP JUMPDEST JUMPDEST DUP1 PUSH1 0x40 MSTORE POP POP POP JUMP JUMPDEST PUSH0 PUSH2 0x3AB PUSH2 0x1FC JUMP JUMPDEST SWAP1 POP PUSH2 0x3B7 DUP3 DUP3 PUSH2 0x371 JUMP JUMPDEST SWAP2 SWAP1 POP JUMP JUMPDEST PUSH0 PUSH8 0xFFFFFFFFFFFFFFFF DUP3 GT ISZERO PUSH2 0x3D6 JUMPI PUSH2 0x3D5 PUSH2 0x344 JUMP JUMPDEST JUMPDEST PUSH2 0x3DF DUP3 PUSH2 0x2D4 JUMP JUMPDEST SWAP1 POP PUSH1 0x20 DUP2 ADD SWAP1 POP SWAP2 SWAP1 POP JUMP JUMPDEST DUP3 DUP2 DUP4 CALLDATACOPY PUSH0 DUP4 DUP4 ADD MSTORE POP POP POP JUMP JUMPDEST PUSH0 PUSH2 0x40C PUSH2 0x407 DUP5 PUSH2 0x3BC JUMP JUMPDEST PUSH2 0x3A2 JUMP JUMPDEST SWAP1 POP DUP3 DUP2 MSTORE PUSH1 0x20 DUP2 ADD DUP5 DUP5 DUP5 ADD GT ISZERO PUSH2 0x428 JUMPI PUSH2 0x427 PUSH2 0x340 JUMP JUMPDEST JUMPDEST PUSH2 0x433 DUP5 DUP3 DUP6 PUSH2 0x3EC JUMP JUMPDEST POP SWAP4 SWAP3 POP POP POP JUMP JUMPDEST PUSH0 DUP3 PUSH1 0x1F DUP4 ADD SLT PUSH2 0x44F JUMPI PUSH2 0x44E PUSH2 0x33C JUMP JUMPDEST JUMPDEST DUP2 CALLDATALOAD PUSH2 0x45F DUP5 DUP3 PUSH1 0x20 DUP7 ADD PUSH2 0x3FA JUMP JUMPDEST SWAP2 POP POP SWAP3 SWAP2 POP POP JUMP JUMPDEST PUSH0 DUP2 SWAP1 POP SWAP2 SWAP1 POP JUMP JUMPDEST PUSH2 0x47A DUP2 PUSH2 0x468 JUMP JUMPDEST DUP2 EQ PUSH2 0x484 JUMPI PUSH0 DUP1 REVERT JUMPDEST POP JUMP JUMPDEST PUSH0 DUP2 CALLDATALOAD SWAP1 POP PUSH2 0x495 DUP2 PUSH2 0x471 JUMP JUMPDEST SWAP3 SWAP2 POP POP JUMP JUMPDEST PUSH0 DUP1 PUSH1 0x40 DUP4 DUP6 SUB SLT ISZERO PUSH2 0x4B1 JUMPI PUSH2 0x4B0 PUSH2 0x205 JUMP JUMPDEST JUMPDEST PUSH0 DUP4 ADD CALLDATALOAD PUSH8 0xFFFFFFFFFFFFFFFF DUP2 GT ISZERO PUSH2 0x4CE JUMPI PUSH2 0x4CD PUSH2 0x209 JUMP JUMPDEST JUMPDEST PUSH2 0x4DA DUP6 DUP3 DUP7 ADD PUSH2 0x43B JUMP JUMPDEST SWAP3 POP POP PUSH1 0x20 PUSH2 0x4EB DUP6 DUP3 DUP7 ADD PUSH2 0x487 JUMP JUMPDEST SWAP2 POP POP SWAP3 POP SWAP3 SWAP1 POP JUMP JUMPDEST PUSH2 0x4FE DUP2 PUSH2 0x22C JUMP JUMPDEST DUP3 MSTORE POP POP JUMP JUMPDEST PUSH0 PUSH1 0x20 DUP3 ADD SWAP1 POP PUSH2 0x517 PUSH0 DUP4 ADD DUP5 PUSH2 0x4F5 JUMP JUMPDEST SWAP3 SWAP2 POP POP JUMP JUMPDEST PUSH0 PUSH1 0x20 DUP3 DUP5 SUB SLT ISZERO PUSH2 0x532 JUMPI PUSH2 0x531 PUSH2 0x205 JUMP JUMPDEST JUMPDEST PUSH0 PUSH2 0x53F DUP5 DUP3 DUP6 ADD PUSH2 0x487 JUMP JUMPDEST SWAP2 POP POP SWAP3 SWAP2 POP POP JUMP JUMPDEST PUSH0 DUP2 SWAP1 POP SWAP3 SWAP2 POP POP JUMP JUMPDEST PUSH0 PUSH2 0x55C DUP3 PUSH2 0x292 JUMP JUMPDEST PUSH2 0x566 DUP2 DUP6 PUSH2 0x548 JUMP JUMPDEST SWAP4 POP PUSH2 0x576 DUP2 DUP6 PUSH1 0x20 DUP7 ADD PUSH2 0x2AC JUMP JUMPDEST DUP1 DUP5 ADD SWAP2 POP POP SWAP3 SWAP2 POP POP JUMP JUMPDEST PUSH0 PUSH2 0x58D DUP3 DUP6 PUSH2 0x552 JUMP JUMPDEST SWAP2 POP PUSH2 0x599 DUP3 DUP5 PUSH2 0x552 JUMP JUMPDEST SWAP2 POP DUP2 SWAP1 POP SWAP4 SWAP3 POP POP POP JUMP JUMPDEST PUSH0 PUSH32 0xFF00000000000000000000000000000000000000000000000000000000000000 DUP3 AND SWAP1 POP SWAP2 SWAP1 POP JUMP JUMPDEST PUSH0 DUP2 SWAP1 POP SWAP2 SWAP1 POP JUMP JUMPDEST PUSH2 0x5EA PUSH2 0x5E5 DUP3 PUSH2 0x5A5 JUMP JUMPDEST PUSH2 0x5D0 JUMP JUMPDEST DUP3 MSTORE POP POP JUMP JUMPDEST PUSH0 DUP2 PUSH1 0x60 SHL SWAP1 POP SWAP2 SWAP1 POP JUMP JUMPDEST PUSH0 PUSH2 0x606 DUP3 PUSH2 0x5F0 JUMP JUMPDEST SWAP1 POP SWAP2 SWAP1 POP JUMP JUMPDEST PUSH0 PUSH2 0x617 DUP3 PUSH2 0x5FC JUMP JUMPDEST SWAP1 POP SWAP2 SWAP1 POP JUMP JUMPDEST PUSH2 0x62F PUSH2 0x62A DUP3 PUSH2 0x22C JUMP JUMPDEST PUSH2 0x60D JUMP JUMPDEST DUP3 MSTORE POP POP JUMP JUMPDEST PUSH0 DUP2 SWAP1 POP SWAP2 SWAP1 POP JUMP JUMPDEST PUSH2 0x64F PUSH2 0x64A DUP3 PUSH2 0x468 JUMP JUMPDEST PUSH2 0x635 JUMP JUMPDEST DUP3 MSTORE POP POP JUMP JUMPDEST PUSH0 DUP2 SWAP1 POP SWAP2 SWAP1 POP JUMP JUMPDEST PUSH0 DUP2 SWAP1 POP SWAP2 SWAP1 POP JUMP JUMPDEST PUSH2 0x678 PUSH2 0x673 DUP3 PUSH2 0x655 JUMP JUMPDEST PUSH2 0x65E JUMP JUMPDEST DUP3 MSTORE POP POP JUMP JUMPDEST PUSH0 PUSH2 0x689 DUP3 DUP8 PUSH2 0x5D9 JUMP JUMPDEST PUSH1 0x1 DUP3 ADD SWAP2 POP PUSH2 0x699 DUP3 DUP7 PUSH2 0x61E JUMP JUMPDEST PUSH1 0x14 DUP3 ADD SWAP2 POP PUSH2 0x6A9 DUP3 DUP6 PUSH2 0x63E JUMP JUMPDEST PUSH1 0x20 DUP3 ADD SWAP2 POP PUSH2 0x6B9 DUP3 DUP5 PUSH2 0x667 JUMP JUMPDEST PUSH1 0x20 DUP3 ADD SWAP2 POP DUP2 SWAP1 POP SWAP6 SWAP5 POP POP POP POP POP JUMP INVALID PUSH1 0x80 PUSH1 0x40 MSTORE CALLVALUE DUP1 ISZERO PUSH2 0xF JUMPI PUSH0 DUP1 REVERT JUMPDEST POP PUSH1 0x40 MLOAD PUSH2 0x1FA CODESIZE SUB DUP1 PUSH2 0x1FA DUP4 CODECOPY DUP2 DUP2 ADD PUSH1 0x40 MSTORE DUP2 ADD SWAP1 PUSH2 0x31 SWAP2 SWAP1 PUSH2 0xD4 JUMP JUMPDEST DUP1 PUSH0 DUP1 PUSH2 0x100 EXP DUP2 SLOAD DUP2 PUSH20 0xFFFFFFFFFFFFFFFFFFFFFFFFFFFFFFFFFFFFFFFF MUL NOT AND SWAP1 DUP4 PUSH20 0xFFFFFFFFFFFFFFFFFFFFFFFFFFFFFFFFFFFFFFFF AND MUL OR SWAP1 SSTORE POP POP PUSH2 0xFF JUMP JUMPDEST PUSH0 DUP1 REVERT JUMPDEST PUSH0 PUSH20 0xFFFFFFFFFFFFFFFFFFFFFFFFFFFFFFFFFFFFFFFF DUP3 AND SWAP1 POP SWAP2 SWAP1 POP JUMP JUMPDEST PUSH0 PUSH2 0xA3 DUP3 PUSH2 0x7A JUMP JUMPDEST SWAP1 POP SWAP2 SWAP1 POP JUMP JUMPDEST PUSH2 0xB3 DUP2 PUSH2 0x99 JUMP JUMPDEST DUP2 EQ PUSH2 0xBD JUMPI PUSH0 DUP1 REVERT JUMPDEST POP JUMP JUMPDEST PUSH0 DUP2 MLOAD SWAP1 POP PUSH2 0xCE DUP2 PUSH2 0xAA JUMP JUMPDEST SWAP3 SWAP2 POP POP JUMP JUMPDEST PUSH0 PUSH1 0x20 DUP3 DUP5 SUB SLT ISZERO PUSH2 0xE9 JUMPI PUSH2 0xE8 PUSH2 0x76 JUMP JUMPDEST JUMPDEST PUSH0 PUSH2 0xF6 DUP5 DUP3 DUP6 ADD PUSH2 0xC0 JUMP JUMPDEST SWAP2 POP POP SWAP3 SWAP2 POP POP JUMP JUMPDEST PUSH1 0xEF DUP1 PUSH2 0x10B PUSH0 CODECOPY PUSH0 RETURN INVALID PUSH1 0x80 PUSH1 0x40 MSTORE CALLVALUE DUP1 ISZERO PUSH1 0xE JUMPI PUSH0 DUP1 REVERT JUMPDEST POP PUSH1 0x4 CALLDATASIZE LT PUSH1 0x26 JUMPI PUSH0 CALLDATALOAD PUSH1 0xE0 SHR DUP1 PUSH4 0x8DA5CB5B EQ PUSH1 0x2A JUMPI JUMPDEST PUSH0 DUP1 REVERT JUMPDEST PUSH1 0x30 PUSH1 0x44 JUMP JUMPDEST PUSH1 0x40 MLOAD PUSH1 0x3B SWAP2 SWAP1 PUSH1 0xA2 JUMP JUMPDEST PUSH1 0x40 MLOAD DUP1 SWAP2 SUB SWAP1 RETURN JUMPDEST PUSH0 DUP1 SLOAD SWAP1 PUSH2 0x100 EXP SWAP1 DIV PUSH20 0xFFFFFFFFFFFFFFFFFFFFFFFFFFFFFFFFFFFFFFFF AND DUP2 JUMP JUMPDEST PUSH0 PUSH20 0xFFFFFFFFFFFFFFFFFFFFFFFFFFFFFFFFFFFFFFFF DUP3 AND SWAP1 POP SWAP2 SWAP1 POP JUMP JUMPDEST PUSH0 PUSH1 0x8E DUP3 PUSH1 0x67 JUMP JUMPDEST SWAP1 POP SWAP2 SWAP1 POP JUMP JUMPDEST PUSH1 0x9C DUP2 PUSH1 0x86 JUMP JUMPDEST DUP3 MSTORE POP POP JUMP JUMPDEST PUSH0 PUSH1 0x20 DUP3 ADD SWAP1 POP PUSH1 0xB3 PUSH0 DUP4 ADD DUP5 PUSH1 0x95 JUMP JUMPDEST SWAP3 SWAP2 POP POP JUMP INVALID LOG2 PUSH5 0x6970667358 0x22 SLT KECCAK256 0xF6 LOG4 EXP 0xDC 0xAC 0xB8 0xD2 INVALID PUSH19 0x2AD5635CF28B4F55D9D6C92EF6559C32FC0893 0xCC EQ 0xBD PUSH16 0x64736F6C63430008170033A264697066 PUSH20 0x58221220874A1899850218303F939FE3CF269E98 0xE 0xB1 0xD1 JUMPDEST SWAP10 0xD5 PC 0xA5 0xC KECCAK256 0xD0 DUP9 EQ 0xE1 SUB 0x4D PUSH5 0x736F6C6343 STOP ADDMOD OR STOP CALLER "
				},
				"gasEstimates": {
					"creation": {
						"codeDepositCost": "459800",
						"executionCost": "491",
						"totalCost": "460291"
					},
					"external": {
						"deploy(uint256)": "infinite",
						"getAddress(bytes,uint256)": "infinite",
						"getBytecode(address)": "infinite"
					}
				},
				"methodIdentifiers": {
					"deploy(uint256)": "a5e38751",
					"getAddress(bytes,uint256)": "94ca2cb5",
					"getBytecode(address)": "0c6008af"
				}
			},
			"storageLayout": {
				"storage": [],
				"types": null
			},
			"userdoc": {
				"kind": "user",
				"methods": {},
				"version": 1
			}
		}
	}
}