{
	"055EnglishAuction.sol": {
		"EnglishAuction": {
			"abi": [
				{
					"inputs": [
						{
							"internalType": "address",
							"name": "_nft",
							"type": "address"
						},
						{
							"internalType": "uint256",
							"name": "_nftId",
							"type": "uint256"
						},
						{
							"internalType": "uint256",
							"name": "_startingBid",
							"type": "uint256"
						}
					],
					"stateMutability": "nonpayable",
					"type": "constructor"
				},
				{
					"anonymous": false,
					"inputs": [
						{
							"indexed": true,
							"internalType": "address",
							"name": "sender",
							"type": "address"
						},
						{
							"indexed": false,
							"internalType": "uint256",
							"name": "amount",
							"type": "uint256"
						}
					],
					"name": "Bid",
					"type": "event"
				},
				{
					"anonymous": false,
					"inputs": [
						{
							"indexed": false,
							"internalType": "address",
							"name": "hightestBidder",
							"type": "address"
						},
						{
							"indexed": false,
							"internalType": "uint256",
							"name": "highestBid",
							"type": "uint256"
						}
					],
					"name": "End",
					"type": "event"
				},
				{
					"anonymous": false,
					"inputs": [],
					"name": "Start",
					"type": "event"
				},
				{
					"anonymous": false,
					"inputs": [
						{
							"indexed": true,
							"internalType": "address",
							"name": "bidder",
							"type": "address"
						},
						{
							"indexed": false,
							"internalType": "uint256",
							"name": "amount",
							"type": "uint256"
						}
					],
					"name": "Withdraw",
					"type": "event"
				},
				{
					"inputs": [],
					"name": "bid",
					"outputs": [],
					"stateMutability": "payable",
					"type": "function"
				},
				{
					"inputs": [],
					"name": "end",
					"outputs": [],
					"stateMutability": "nonpayable",
					"type": "function"
				},
				{
					"inputs": [],
					"name": "endAt",
					"outputs": [
						{
							"internalType": "uint32",
							"name": "",
							"type": "uint32"
						}
					],
					"stateMutability": "view",
					"type": "function"
				},
				{
					"inputs": [],
					"name": "ended",
					"outputs": [
						{
							"internalType": "bool",
							"name": "",
							"type": "bool"
						}
					],
					"stateMutability": "view",
					"type": "function"
				},
				{
					"inputs": [],
					"name": "highestBid",
					"outputs": [
						{
							"internalType": "uint256",
							"name": "",
							"type": "uint256"
						}
					],
					"stateMutability": "view",
					"type": "function"
				},
				{
					"inputs": [],
					"name": "hightestBidder",
					"outputs": [
						{
							"internalType": "address",
							"name": "",
							"type": "address"
						}
					],
					"stateMutability": "view",
					"type": "function"
				},
				{
					"inputs": [],
					"name": "nft",
					"outputs": [
						{
							"internalType": "contract IERC721",
							"name": "",
							"type": "address"
						}
					],
					"stateMutability": "view",
					"type": "function"
				},
				{
					"inputs": [],
					"name": "nftId",
					"outputs": [
						{
							"internalType": "uint256",
							"name": "",
							"type": "uint256"
						}
					],
					"stateMutability": "view",
					"type": "function"
				},
				{
					"inputs": [],
					"name": "seller",
					"outputs": [
						{
							"internalType": "address payable",
							"name": "",
							"type": "address"
						}
					],
					"stateMutability": "view",
					"type": "function"
				},
				{
					"inputs": [],
					"name": "start",
					"outputs": [],
					"stateMutability": "nonpayable",
					"type": "function"
				},
				{
					"inputs": [],
					"name": "started",
					"outputs": [
						{
							"internalType": "bool",
							"name": "",
							"type": "bool"
						}
					],
					"stateMutability": "view",
					"type": "function"
				},
				{
					"inputs": [],
					"name": "withdraw",
					"outputs": [],
					"stateMutability": "nonpayable",
					"type": "function"
				}
			],
			"devdoc": {
				"kind": "dev",
				"methods": {},
				"version": 1
			},
			"evm": {
				"assembly": "    /* \"055EnglishAuction.sol\":366:6280  contract EnglishAuction{... */\n  mstore(0x40, 0xe0)\n    /* \"055EnglishAuction.sol\":2040:2584  constructor(... */\n  callvalue\n  dup1\n  iszero\n  tag_1\n  jumpi\n  0x00\n  dup1\n  revert\ntag_1:\n  pop\n  mload(0x40)\n  sub(codesize, bytecodeSize)\n  dup1\n  bytecodeSize\n  dup4\n  codecopy\n  dup2\n  dup2\n  add\n  0x40\n  mstore\n  dup2\n  add\n  swap1\n  tag_2\n  swap2\n  swap1\n  tag_3\n  jump\t// in\ntag_2:\n    /* \"055EnglishAuction.sol\":2151:2155  _nft */\n  dup3\n    /* \"055EnglishAuction.sol\":2137:2156  nft = IERC721(_nft) */\n  0xffffffffffffffffffffffffffffffffffffffff\n  and\n  0x80\n  dup2\n  0xffffffffffffffffffffffffffffffffffffffff\n  and\n  dup2\n  mstore\n  pop\n  pop\n    /* \"055EnglishAuction.sol\":2235:2241  _nftId */\n  dup2\n    /* \"055EnglishAuction.sol\":2227:2241  nftId = _nftId */\n  0xa0\n  dup2\n  dup2\n  mstore\n  pop\n  pop\n    /* \"055EnglishAuction.sol\":2482:2492  msg.sender */\n  caller\n    /* \"055EnglishAuction.sol\":2465:2493  seller =payable( msg.sender) */\n  0xffffffffffffffffffffffffffffffffffffffff\n  and\n  0xc0\n  dup2\n  0xffffffffffffffffffffffffffffffffffffffff\n  and\n  dup2\n  mstore\n  pop\n  pop\n    /* \"055EnglishAuction.sol\":2518:2530  _startingBid */\n  dup1\n    /* \"055EnglishAuction.sol\":2505:2515  highestBid */\n  0x01\n    /* \"055EnglishAuction.sol\":2505:2530  highestBid = _startingBid */\n  dup2\n  swap1\n  sstore\n  pop\n    /* \"055EnglishAuction.sol\":2040:2584  constructor(... */\n  pop\n  pop\n  pop\n    /* \"055EnglishAuction.sol\":366:6280  contract EnglishAuction{... */\n  jump(tag_6)\n    /* \"#utility.yul\":88:205   */\ntag_8:\n    /* \"#utility.yul\":197:198   */\n  0x00\n    /* \"#utility.yul\":194:195   */\n  dup1\n    /* \"#utility.yul\":187:199   */\n  revert\n    /* \"#utility.yul\":334:460   */\ntag_10:\n    /* \"#utility.yul\":371:378   */\n  0x00\n    /* \"#utility.yul\":411:453   */\n  0xffffffffffffffffffffffffffffffffffffffff\n    /* \"#utility.yul\":404:409   */\n  dup3\n    /* \"#utility.yul\":400:454   */\n  and\n    /* \"#utility.yul\":389:454   */\n  swap1\n  pop\n    /* \"#utility.yul\":334:460   */\n  swap2\n  swap1\n  pop\n  jump\t// out\n    /* \"#utility.yul\":466:562   */\ntag_11:\n    /* \"#utility.yul\":503:510   */\n  0x00\n    /* \"#utility.yul\":532:556   */\n  tag_23\n    /* \"#utility.yul\":550:555   */\n  dup3\n    /* \"#utility.yul\":532:556   */\n  tag_10\n  jump\t// in\ntag_23:\n    /* \"#utility.yul\":521:556   */\n  swap1\n  pop\n    /* \"#utility.yul\":466:562   */\n  swap2\n  swap1\n  pop\n  jump\t// out\n    /* \"#utility.yul\":568:690   */\ntag_12:\n    /* \"#utility.yul\":641:665   */\n  tag_25\n    /* \"#utility.yul\":659:664   */\n  dup2\n    /* \"#utility.yul\":641:665   */\n  tag_11\n  jump\t// in\ntag_25:\n    /* \"#utility.yul\":634:639   */\n  dup2\n    /* \"#utility.yul\":631:666   */\n  eq\n    /* \"#utility.yul\":621:684   */\n  tag_26\n  jumpi\n    /* \"#utility.yul\":680:681   */\n  0x00\n    /* \"#utility.yul\":677:678   */\n  dup1\n    /* \"#utility.yul\":670:682   */\n  revert\n    /* \"#utility.yul\":621:684   */\ntag_26:\n    /* \"#utility.yul\":568:690   */\n  pop\n  jump\t// out\n    /* \"#utility.yul\":696:839   */\ntag_13:\n    /* \"#utility.yul\":753:758   */\n  0x00\n    /* \"#utility.yul\":784:790   */\n  dup2\n    /* \"#utility.yul\":778:791   */\n  mload\n    /* \"#utility.yul\":769:791   */\n  swap1\n  pop\n    /* \"#utility.yul\":800:833   */\n  tag_28\n    /* \"#utility.yul\":827:832   */\n  dup2\n    /* \"#utility.yul\":800:833   */\n  tag_12\n  jump\t// in\ntag_28:\n    /* \"#utility.yul\":696:839   */\n  swap3\n  swap2\n  pop\n  pop\n  jump\t// out\n    /* \"#utility.yul\":845:922   */\ntag_14:\n    /* \"#utility.yul\":882:889   */\n  0x00\n    /* \"#utility.yul\":911:916   */\n  dup2\n    /* \"#utility.yul\":900:916   */\n  swap1\n  pop\n    /* \"#utility.yul\":845:922   */\n  swap2\n  swap1\n  pop\n  jump\t// out\n    /* \"#utility.yul\":928:1050   */\ntag_15:\n    /* \"#utility.yul\":1001:1025   */\n  tag_31\n    /* \"#utility.yul\":1019:1024   */\n  dup2\n    /* \"#utility.yul\":1001:1025   */\n  tag_14\n  jump\t// in\ntag_31:\n    /* \"#utility.yul\":994:999   */\n  dup2\n    /* \"#utility.yul\":991:1026   */\n  eq\n    /* \"#utility.yul\":981:1044   */\n  tag_32\n  jumpi\n    /* \"#utility.yul\":1040:1041   */\n  0x00\n    /* \"#utility.yul\":1037:1038   */\n  dup1\n    /* \"#utility.yul\":1030:1042   */\n  revert\n    /* \"#utility.yul\":981:1044   */\ntag_32:\n    /* \"#utility.yul\":928:1050   */\n  pop\n  jump\t// out\n    /* \"#utility.yul\":1056:1199   */\ntag_16:\n    /* \"#utility.yul\":1113:1118   */\n  0x00\n    /* \"#utility.yul\":1144:1150   */\n  dup2\n    /* \"#utility.yul\":1138:1151   */\n  mload\n    /* \"#utility.yul\":1129:1151   */\n  swap1\n  pop\n    /* \"#utility.yul\":1160:1193   */\n  tag_34\n    /* \"#utility.yul\":1187:1192   */\n  dup2\n    /* \"#utility.yul\":1160:1193   */\n  tag_15\n  jump\t// in\ntag_34:\n    /* \"#utility.yul\":1056:1199   */\n  swap3\n  swap2\n  pop\n  pop\n  jump\t// out\n    /* \"#utility.yul\":1205:1868   */\ntag_3:\n    /* \"#utility.yul\":1293:1299   */\n  0x00\n    /* \"#utility.yul\":1301:1307   */\n  dup1\n    /* \"#utility.yul\":1309:1315   */\n  0x00\n    /* \"#utility.yul\":1358:1360   */\n  0x60\n    /* \"#utility.yul\":1346:1355   */\n  dup5\n    /* \"#utility.yul\":1337:1344   */\n  dup7\n    /* \"#utility.yul\":1333:1356   */\n  sub\n    /* \"#utility.yul\":1329:1361   */\n  slt\n    /* \"#utility.yul\":1326:1445   */\n  iszero\n  tag_36\n  jumpi\n    /* \"#utility.yul\":1364:1443   */\n  tag_37\n  tag_8\n  jump\t// in\ntag_37:\n    /* \"#utility.yul\":1326:1445   */\ntag_36:\n    /* \"#utility.yul\":1484:1485   */\n  0x00\n    /* \"#utility.yul\":1509:1573   */\n  tag_38\n    /* \"#utility.yul\":1565:1572   */\n  dup7\n    /* \"#utility.yul\":1556:1562   */\n  dup3\n    /* \"#utility.yul\":1545:1554   */\n  dup8\n    /* \"#utility.yul\":1541:1563   */\n  add\n    /* \"#utility.yul\":1509:1573   */\n  tag_13\n  jump\t// in\ntag_38:\n    /* \"#utility.yul\":1499:1573   */\n  swap4\n  pop\n    /* \"#utility.yul\":1455:1583   */\n  pop\n    /* \"#utility.yul\":1622:1624   */\n  0x20\n    /* \"#utility.yul\":1648:1712   */\n  tag_39\n    /* \"#utility.yul\":1704:1711   */\n  dup7\n    /* \"#utility.yul\":1695:1701   */\n  dup3\n    /* \"#utility.yul\":1684:1693   */\n  dup8\n    /* \"#utility.yul\":1680:1702   */\n  add\n    /* \"#utility.yul\":1648:1712   */\n  tag_16\n  jump\t// in\ntag_39:\n    /* \"#utility.yul\":1638:1712   */\n  swap3\n  pop\n    /* \"#utility.yul\":1593:1722   */\n  pop\n    /* \"#utility.yul\":1761:1763   */\n  0x40\n    /* \"#utility.yul\":1787:1851   */\n  tag_40\n    /* \"#utility.yul\":1843:1850   */\n  dup7\n    /* \"#utility.yul\":1834:1840   */\n  dup3\n    /* \"#utility.yul\":1823:1832   */\n  dup8\n    /* \"#utility.yul\":1819:1841   */\n  add\n    /* \"#utility.yul\":1787:1851   */\n  tag_16\n  jump\t// in\ntag_40:\n    /* \"#utility.yul\":1777:1851   */\n  swap2\n  pop\n    /* \"#utility.yul\":1732:1861   */\n  pop\n    /* \"#utility.yul\":1205:1868   */\n  swap3\n  pop\n  swap3\n  pop\n  swap3\n  jump\t// out\n    /* \"055EnglishAuction.sol\":366:6280  contract EnglishAuction{... */\ntag_6:\n  mload(0x80)\n  mload(0xa0)\n  mload(0xc0)\n  codecopy(0x00, dataOffset(sub_0), dataSize(sub_0))\n  0x00\n  assignImmutable(\"0xd67d834462ca31eaef1f30157e31659f60355143b7441e6fc7d9eae1fa79f3f8\")\n  0x00\n  assignImmutable(\"0x3b4066bd7b7960752225af105d3beafb5c47a26c5aae7e6798a437b7c0bb33e6\")\n  0x00\n  assignImmutable(\"0x77c32b454bb61eb9df9e3848d0ded3e59753acda90ae58befe564733aec82e4c\")\n  return(0x00, dataSize(sub_0))\nstop\n\nsub_0: assembly {\n        /* \"055EnglishAuction.sol\":366:6280  contract EnglishAuction{... */\n      mstore(0x40, 0x80)\n      jumpi(tag_1, lt(calldatasize, 0x04))\n      shr(0xe0, calldataload(0x00))\n      dup1\n      0x7cc3ae8c\n      gt\n      tag_14\n      jumpi\n      dup1\n      0x7cc3ae8c\n      eq\n      tag_8\n      jumpi\n      dup1\n      0xbe9a6555\n      eq\n      tag_9\n      jumpi\n      dup1\n      0xc6bc5182\n      eq\n      tag_10\n      jumpi\n      dup1\n      0xc6cf27da\n      eq\n      tag_11\n      jumpi\n      dup1\n      0xd57bde79\n      eq\n      tag_12\n      jumpi\n      dup1\n      0xefbe1c1c\n      eq\n      tag_13\n      jumpi\n      jump(tag_1)\n    tag_14:\n      dup1\n      0x08551a53\n      eq\n      tag_2\n      jumpi\n      dup1\n      0x12fa6feb\n      eq\n      tag_3\n      jumpi\n      dup1\n      0x1998aeef\n      eq\n      tag_4\n      jumpi\n      dup1\n      0x1f2698ab\n      eq\n      tag_5\n      jumpi\n      dup1\n      0x3ccfd60b\n      eq\n      tag_6\n      jumpi\n      dup1\n      0x47ccca02\n      eq\n      tag_7\n      jumpi\n    tag_1:\n      0x00\n      dup1\n      revert\n        /* \"055EnglishAuction.sol\":1324:1365  address  payable public  immutable seller */\n    tag_2:\n      callvalue\n      dup1\n      iszero\n      tag_15\n      jumpi\n      0x00\n      dup1\n      revert\n    tag_15:\n      pop\n      tag_16\n      tag_17\n      jump\t// in\n    tag_16:\n      mload(0x40)\n      tag_18\n      swap2\n      swap1\n      tag_19\n      jump\t// in\n    tag_18:\n      mload(0x40)\n      dup1\n      swap2\n      sub\n      swap1\n      return\n        /* \"055EnglishAuction.sol\":1599:1616  bool public ended */\n    tag_3:\n      callvalue\n      dup1\n      iszero\n      tag_20\n      jumpi\n      0x00\n      dup1\n      revert\n    tag_20:\n      pop\n      tag_21\n      tag_22\n      jump\t// in\n    tag_21:\n      mload(0x40)\n      tag_23\n      swap2\n      swap1\n      tag_24\n      jump\t// in\n    tag_23:\n      mload(0x40)\n      dup1\n      swap2\n      sub\n      swap1\n      return\n        /* \"055EnglishAuction.sol\":3594:4348  function bid()external payable {... */\n    tag_4:\n      tag_25\n      tag_26\n      jump\t// in\n    tag_25:\n      stop\n        /* \"055EnglishAuction.sol\":1550:1569  bool public started */\n    tag_5:\n      callvalue\n      dup1\n      iszero\n      tag_27\n      jumpi\n      0x00\n      dup1\n      revert\n    tag_27:\n      pop\n      tag_28\n      tag_29\n      jump\t// in\n    tag_28:\n      mload(0x40)\n      tag_30\n      swap2\n      swap1\n      tag_24\n      jump\t// in\n    tag_30:\n      mload(0x40)\n      dup1\n      swap2\n      sub\n      swap1\n      return\n        /* \"055EnglishAuction.sol\":4493:5061  function withdraw()external {... */\n    tag_6:\n      callvalue\n      dup1\n      iszero\n      tag_31\n      jumpi\n      0x00\n      dup1\n      revert\n    tag_31:\n      pop\n      tag_32\n      tag_33\n      jump\t// in\n    tag_32:\n      stop\n        /* \"055EnglishAuction.sol\":978:1006  IERC721 public immutable nft */\n    tag_7:\n      callvalue\n      dup1\n      iszero\n      tag_34\n      jumpi\n      0x00\n      dup1\n      revert\n    tag_34:\n      pop\n      tag_35\n      tag_36\n      jump\t// in\n    tag_35:\n      mload(0x40)\n      tag_37\n      swap2\n      swap1\n      tag_38\n      jump\t// in\n    tag_37:\n      mload(0x40)\n      dup1\n      swap2\n      sub\n      swap1\n      return\n        /* \"055EnglishAuction.sol\":1469:1488  uint32 public endAt */\n    tag_8:\n      callvalue\n      dup1\n      iszero\n      tag_39\n      jumpi\n      0x00\n      dup1\n      revert\n    tag_39:\n      pop\n      tag_40\n      tag_41\n      jump\t// in\n    tag_40:\n      mload(0x40)\n      tag_42\n      swap2\n      swap1\n      tag_43\n      jump\t// in\n    tag_42:\n      mload(0x40)\n      dup1\n      swap2\n      sub\n      swap1\n      return\n        /* \"055EnglishAuction.sol\":2635:3475  function start() external {... */\n    tag_9:\n      callvalue\n      dup1\n      iszero\n      tag_44\n      jumpi\n      0x00\n      dup1\n      revert\n    tag_44:\n      pop\n      tag_45\n      tag_46\n      jump\t// in\n    tag_45:\n      stop\n        /* \"055EnglishAuction.sol\":1194:1221  uint public immutable nftId */\n    tag_10:\n      callvalue\n      dup1\n      iszero\n      tag_47\n      jumpi\n      0x00\n      dup1\n      revert\n    tag_47:\n      pop\n      tag_48\n      tag_49\n      jump\t// in\n    tag_48:\n      mload(0x40)\n      tag_50\n      swap2\n      swap1\n      tag_51\n      jump\t// in\n    tag_50:\n      mload(0x40)\n      dup1\n      swap2\n      sub\n      swap1\n      return\n        /* \"055EnglishAuction.sol\":1694:1723  address public hightestBidder */\n    tag_11:\n      callvalue\n      dup1\n      iszero\n      tag_52\n      jumpi\n      0x00\n      dup1\n      revert\n    tag_52:\n      pop\n      tag_53\n      tag_54\n      jump\t// in\n    tag_53:\n      mload(0x40)\n      tag_55\n      swap2\n      swap1\n      tag_56\n      jump\t// in\n    tag_55:\n      mload(0x40)\n      dup1\n      swap2\n      sub\n      swap1\n      return\n        /* \"055EnglishAuction.sol\":1729:1751  uint public highestBid */\n    tag_12:\n      callvalue\n      dup1\n      iszero\n      tag_57\n      jumpi\n      0x00\n      dup1\n      revert\n    tag_57:\n      pop\n      tag_58\n      tag_59\n      jump\t// in\n    tag_58:\n      mload(0x40)\n      tag_60\n      swap2\n      swap1\n      tag_51\n      jump\t// in\n    tag_60:\n      mload(0x40)\n      dup1\n      swap2\n      sub\n      swap1\n      return\n        /* \"055EnglishAuction.sol\":5110:6277  function end() external {... */\n    tag_13:\n      callvalue\n      dup1\n      iszero\n      tag_61\n      jumpi\n      0x00\n      dup1\n      revert\n    tag_61:\n      pop\n      tag_62\n      tag_63\n      jump\t// in\n    tag_62:\n      stop\n        /* \"055EnglishAuction.sol\":1324:1365  address  payable public  immutable seller */\n    tag_17:\n      immutable(\"0xd67d834462ca31eaef1f30157e31659f60355143b7441e6fc7d9eae1fa79f3f8\")\n      dup2\n      jump\t// out\n        /* \"055EnglishAuction.sol\":1599:1616  bool public ended */\n    tag_22:\n      0x00\n      0x05\n      swap1\n      sload\n      swap1\n      0x0100\n      exp\n      swap1\n      div\n      0xff\n      and\n      dup2\n      jump\t// out\n        /* \"055EnglishAuction.sol\":3594:4348  function bid()external payable {... */\n    tag_26:\n        /* \"055EnglishAuction.sol\":3643:3650  started */\n      0x00\n      0x04\n      swap1\n      sload\n      swap1\n      0x0100\n      exp\n      swap1\n      div\n      0xff\n      and\n        /* \"055EnglishAuction.sol\":3635:3665  require(started, \"not start!\") */\n      tag_65\n      jumpi\n      mload(0x40)\n      0x08c379a000000000000000000000000000000000000000000000000000000000\n      dup2\n      mstore\n      0x04\n      add\n      tag_66\n      swap1\n      tag_67\n      jump\t// in\n    tag_66:\n      mload(0x40)\n      dup1\n      swap2\n      sub\n      swap1\n      revert\n    tag_65:\n        /* \"055EnglishAuction.sol\":3701:3706  endAt */\n      0x00\n      dup1\n      sload\n      swap1\n      0x0100\n      exp\n      swap1\n      div\n      0xffffffff\n      and\n        /* \"055EnglishAuction.sol\":3683:3706  block.timestamp < endAt */\n      0xffffffff\n      and\n        /* \"055EnglishAuction.sol\":3683:3698  block.timestamp */\n      timestamp\n        /* \"055EnglishAuction.sol\":3683:3706  block.timestamp < endAt */\n      lt\n        /* \"055EnglishAuction.sol\":3675:3724  require(block.timestamp < endAt, \"bid is ended!\") */\n      tag_68\n      jumpi\n      mload(0x40)\n      0x08c379a000000000000000000000000000000000000000000000000000000000\n      dup2\n      mstore\n      0x04\n      add\n      tag_69\n      swap1\n      tag_70\n      jump\t// in\n    tag_69:\n      mload(0x40)\n      dup1\n      swap2\n      sub\n      swap1\n      revert\n    tag_68:\n        /* \"055EnglishAuction.sol\":3754:3764  highestBid */\n      sload(0x01)\n        /* \"055EnglishAuction.sol\":3742:3751  msg.value */\n      callvalue\n        /* \"055EnglishAuction.sol\":3742:3764  msg.value > highestBid */\n      gt\n        /* \"055EnglishAuction.sol\":3734:3787  require(msg.value > highestBid, \"value < highestBid\") */\n      tag_71\n      jumpi\n      mload(0x40)\n      0x08c379a000000000000000000000000000000000000000000000000000000000\n      dup2\n      mstore\n      0x04\n      add\n      tag_72\n      swap1\n      tag_73\n      jump\t// in\n    tag_72:\n      mload(0x40)\n      dup1\n      swap2\n      sub\n      swap1\n      revert\n    tag_71:\n        /* \"055EnglishAuction.sol\":3826:3827  0 */\n      0x00\n        /* \"055EnglishAuction.sol\":3801:3828  hightestBidder !=address(0) */\n      0xffffffffffffffffffffffffffffffffffffffff\n      and\n        /* \"055EnglishAuction.sol\":3801:3815  hightestBidder */\n      0x00\n      0x06\n      swap1\n      sload\n      swap1\n      0x0100\n      exp\n      swap1\n      div\n      0xffffffffffffffffffffffffffffffffffffffff\n      and\n        /* \"055EnglishAuction.sol\":3801:3828  hightestBidder !=address(0) */\n      0xffffffffffffffffffffffffffffffffffffffff\n      and\n      eq\n        /* \"055EnglishAuction.sol\":3797:4127  if (hightestBidder !=address(0)){... */\n      tag_74\n      jumpi\n        /* \"055EnglishAuction.sol\":4106:4116  highestBid */\n      sload(0x01)\n        /* \"055EnglishAuction.sol\":4077:4086  bidPrices */\n      0x02\n        /* \"055EnglishAuction.sol\":4077:4102  bidPrices[hightestBidder] */\n      0x00\n        /* \"055EnglishAuction.sol\":4087:4101  hightestBidder */\n      dup1\n      0x06\n      swap1\n      sload\n      swap1\n      0x0100\n      exp\n      swap1\n      div\n      0xffffffffffffffffffffffffffffffffffffffff\n      and\n        /* \"055EnglishAuction.sol\":4077:4102  bidPrices[hightestBidder] */\n      0xffffffffffffffffffffffffffffffffffffffff\n      and\n      0xffffffffffffffffffffffffffffffffffffffff\n      and\n      dup2\n      mstore\n      0x20\n      add\n      swap1\n      dup2\n      mstore\n      0x20\n      add\n      0x00\n      keccak256\n      0x00\n        /* \"055EnglishAuction.sol\":4077:4116  bidPrices[hightestBidder] += highestBid */\n      dup3\n      dup3\n      sload\n      tag_75\n      swap2\n      swap1\n      tag_76\n      jump\t// in\n    tag_75:\n      swap3\n      pop\n      pop\n      dup2\n      swap1\n      sstore\n      pop\n        /* \"055EnglishAuction.sol\":3797:4127  if (hightestBidder !=address(0)){... */\n    tag_74:\n        /* \"055EnglishAuction.sol\":4188:4197  msg.value */\n      callvalue\n        /* \"055EnglishAuction.sol\":4175:4185  highestBid */\n      0x01\n        /* \"055EnglishAuction.sol\":4175:4197  highestBid = msg.value */\n      dup2\n      swap1\n      sstore\n      pop\n        /* \"055EnglishAuction.sol\":4224:4234  msg.sender */\n      caller\n        /* \"055EnglishAuction.sol\":4207:4221  hightestBidder */\n      0x00\n      0x06\n        /* \"055EnglishAuction.sol\":4207:4234  hightestBidder = msg.sender */\n      0x0100\n      exp\n      dup2\n      sload\n      dup2\n      0xffffffffffffffffffffffffffffffffffffffff\n      mul\n      not\n      and\n      swap1\n      dup4\n      0xffffffffffffffffffffffffffffffffffffffff\n      and\n      mul\n      or\n      swap1\n      sstore\n      pop\n        /* \"055EnglishAuction.sol\":4317:4327  msg.sender */\n      caller\n        /* \"055EnglishAuction.sol\":4313:4339  Bid(msg.sender, msg.value) */\n      0xffffffffffffffffffffffffffffffffffffffff\n      and\n      0xe684a55f31b79eca403df938249029212a5925ec6be8012e099b45bc1019e5d2\n        /* \"055EnglishAuction.sol\":4329:4338  msg.value */\n      callvalue\n        /* \"055EnglishAuction.sol\":4313:4339  Bid(msg.sender, msg.value) */\n      mload(0x40)\n      tag_77\n      swap2\n      swap1\n      tag_51\n      jump\t// in\n    tag_77:\n      mload(0x40)\n      dup1\n      swap2\n      sub\n      swap1\n      log2\n        /* \"055EnglishAuction.sol\":3594:4348  function bid()external payable {... */\n      jump\t// out\n        /* \"055EnglishAuction.sol\":1550:1569  bool public started */\n    tag_29:\n      0x00\n      0x04\n      swap1\n      sload\n      swap1\n      0x0100\n      exp\n      swap1\n      div\n      0xff\n      and\n      dup2\n      jump\t// out\n        /* \"055EnglishAuction.sol\":4493:5061  function withdraw()external {... */\n    tag_33:\n        /* \"055EnglishAuction.sol\":4612:4620  uint bal */\n      0x00\n        /* \"055EnglishAuction.sol\":4623:4632  bidPrices */\n      0x02\n        /* \"055EnglishAuction.sol\":4623:4644  bidPrices[msg.sender] */\n      0x00\n        /* \"055EnglishAuction.sol\":4633:4643  msg.sender */\n      caller\n        /* \"055EnglishAuction.sol\":4623:4644  bidPrices[msg.sender] */\n      0xffffffffffffffffffffffffffffffffffffffff\n      and\n      0xffffffffffffffffffffffffffffffffffffffff\n      and\n      dup2\n      mstore\n      0x20\n      add\n      swap1\n      dup2\n      mstore\n      0x20\n      add\n      0x00\n      keccak256\n      sload\n        /* \"055EnglishAuction.sol\":4612:4644  uint bal = bidPrices[msg.sender] */\n      swap1\n      pop\n        /* \"055EnglishAuction.sol\":4755:4756  0 */\n      0x00\n        /* \"055EnglishAuction.sol\":4731:4740  bidPrices */\n      0x02\n        /* \"055EnglishAuction.sol\":4731:4752  bidPrices[msg.sender] */\n      0x00\n        /* \"055EnglishAuction.sol\":4741:4751  msg.sender */\n      caller\n        /* \"055EnglishAuction.sol\":4731:4752  bidPrices[msg.sender] */\n      0xffffffffffffffffffffffffffffffffffffffff\n      and\n      0xffffffffffffffffffffffffffffffffffffffff\n      and\n      dup2\n      mstore\n      0x20\n      add\n      swap1\n      dup2\n      mstore\n      0x20\n      add\n      0x00\n      keccak256\n        /* \"055EnglishAuction.sol\":4731:4756  bidPrices[msg.sender] = 0 */\n      dup2\n      swap1\n      sstore\n      pop\n        /* \"055EnglishAuction.sol\":4988:4998  msg.sender */\n      caller\n        /* \"055EnglishAuction.sol\":4979:5008  payable (msg.sender).transfer */\n      0xffffffffffffffffffffffffffffffffffffffff\n      and\n        /* \"055EnglishAuction.sol\":4979:5013  payable (msg.sender).transfer(bal) */\n      0x08fc\n        /* \"055EnglishAuction.sol\":5009:5012  bal */\n      dup3\n        /* \"055EnglishAuction.sol\":4979:5013  payable (msg.sender).transfer(bal) */\n      swap1\n      dup2\n      iszero\n      mul\n      swap1\n      mload(0x40)\n      0x00\n      mload(0x40)\n      dup1\n      dup4\n      sub\n      dup2\n      dup6\n      dup9\n      dup9\n      call\n      swap4\n      pop\n      pop\n      pop\n      pop\n      iszero\n      dup1\n      iszero\n      tag_80\n      jumpi\n      returndatasize\n      0x00\n      dup1\n      returndatacopy\n      revert(0x00, returndatasize)\n    tag_80:\n      pop\n        /* \"055EnglishAuction.sol\":5038:5048  msg.sender */\n      caller\n        /* \"055EnglishAuction.sol\":5029:5054  Withdraw(msg.sender, bal) */\n      0xffffffffffffffffffffffffffffffffffffffff\n      and\n      0x884edad9ce6fa2440d8a54cc123490eb96d2768479d49ff9c7366125a9424364\n        /* \"055EnglishAuction.sol\":5050:5053  bal */\n      dup3\n        /* \"055EnglishAuction.sol\":5029:5054  Withdraw(msg.sender, bal) */\n      mload(0x40)\n      tag_81\n      swap2\n      swap1\n      tag_51\n      jump\t// in\n    tag_81:\n      mload(0x40)\n      dup1\n      swap2\n      sub\n      swap1\n      log2\n        /* \"055EnglishAuction.sol\":4521:5061  {... */\n      pop\n        /* \"055EnglishAuction.sol\":4493:5061  function withdraw()external {... */\n      jump\t// out\n        /* \"055EnglishAuction.sol\":978:1006  IERC721 public immutable nft */\n    tag_36:\n      immutable(\"0x77c32b454bb61eb9df9e3848d0ded3e59753acda90ae58befe564733aec82e4c\")\n      dup2\n      jump\t// out\n        /* \"055EnglishAuction.sol\":1469:1488  uint32 public endAt */\n    tag_41:\n      0x00\n      dup1\n      sload\n      swap1\n      0x0100\n      exp\n      swap1\n      div\n      0xffffffff\n      and\n      dup2\n      jump\t// out\n        /* \"055EnglishAuction.sol\":2635:3475  function start() external {... */\n    tag_46:\n        /* \"055EnglishAuction.sol\":2689:2699  msg.sender */\n      caller\n        /* \"055EnglishAuction.sol\":2679:2699  seller == msg.sender */\n      0xffffffffffffffffffffffffffffffffffffffff\n      and\n        /* \"055EnglishAuction.sol\":2679:2685  seller */\n      immutable(\"0xd67d834462ca31eaef1f30157e31659f60355143b7441e6fc7d9eae1fa79f3f8\")\n        /* \"055EnglishAuction.sol\":2679:2699  seller == msg.sender */\n      0xffffffffffffffffffffffffffffffffffffffff\n      and\n      eq\n        /* \"055EnglishAuction.sol\":2671:2714  require(seller == msg.sender, \"not seller\") */\n      tag_83\n      jumpi\n      mload(0x40)\n      0x08c379a000000000000000000000000000000000000000000000000000000000\n      dup2\n      mstore\n      0x04\n      add\n      tag_84\n      swap1\n      tag_85\n      jump\t// in\n    tag_84:\n      mload(0x40)\n      dup1\n      swap2\n      sub\n      swap1\n      revert\n    tag_83:\n        /* \"055EnglishAuction.sol\":2761:2768  started */\n      0x00\n      0x04\n      swap1\n      sload\n      swap1\n      0x0100\n      exp\n      swap1\n      div\n      0xff\n      and\n        /* \"055EnglishAuction.sol\":2760:2768  !started */\n      iszero\n        /* \"055EnglishAuction.sol\":2752:2785  require(!started, \"has started!\") */\n      tag_86\n      jumpi\n      mload(0x40)\n      0x08c379a000000000000000000000000000000000000000000000000000000000\n      dup2\n      mstore\n      0x04\n      add\n      tag_87\n      swap1\n      tag_88\n      jump\t// in\n    tag_87:\n      mload(0x40)\n      dup1\n      swap2\n      sub\n      swap1\n      revert\n    tag_86:\n        /* \"055EnglishAuction.sol\":2856:2860  true */\n      0x01\n        /* \"055EnglishAuction.sol\":2847:2854  started */\n      0x00\n      0x04\n        /* \"055EnglishAuction.sol\":2847:2860  started =true */\n      0x0100\n      exp\n      dup2\n      sload\n      dup2\n      0xff\n      mul\n      not\n      and\n      swap1\n      dup4\n      iszero\n      iszero\n      mul\n      or\n      swap1\n      sstore\n      pop\n        /* \"055EnglishAuction.sol\":2928:2931  120 */\n      0x78\n        /* \"055EnglishAuction.sol\":2910:2925  block.timestamp */\n      timestamp\n        /* \"055EnglishAuction.sol\":2910:2931  block.timestamp + 120 */\n      tag_89\n      swap2\n      swap1\n      tag_76\n      jump\t// in\n    tag_89:\n        /* \"055EnglishAuction.sol\":2895:2900  endAt */\n      0x00\n      dup1\n        /* \"055EnglishAuction.sol\":2895:2932  endAt = uint32(block.timestamp + 120) */\n      0x0100\n      exp\n      dup2\n      sload\n      dup2\n      0xffffffff\n      mul\n      not\n      and\n      swap1\n      dup4\n      0xffffffff\n      and\n      mul\n      or\n      swap1\n      sstore\n      pop\n        /* \"055EnglishAuction.sol\":3096:3099  nft */\n      immutable(\"0x77c32b454bb61eb9df9e3848d0ded3e59753acda90ae58befe564733aec82e4c\")\n        /* \"055EnglishAuction.sol\":3096:3112  nft.transferFrom */\n      0xffffffffffffffffffffffffffffffffffffffff\n      and\n      0x23b872dd\n        /* \"055EnglishAuction.sol\":3113:3119  seller */\n      immutable(\"0xd67d834462ca31eaef1f30157e31659f60355143b7441e6fc7d9eae1fa79f3f8\")\n        /* \"055EnglishAuction.sol\":3129:3133  this */\n      address\n        /* \"055EnglishAuction.sol\":3136:3141  nftId */\n      immutable(\"0x3b4066bd7b7960752225af105d3beafb5c47a26c5aae7e6798a437b7c0bb33e6\")\n        /* \"055EnglishAuction.sol\":3096:3142  nft.transferFrom(seller, address(this), nftId) */\n      mload(0x40)\n      dup5\n      0xffffffff\n      and\n      0xe0\n      shl\n      dup2\n      mstore\n      0x04\n      add\n      tag_90\n      swap4\n      swap3\n      swap2\n      swap1\n      tag_91\n      jump\t// in\n    tag_90:\n      0x00\n      mload(0x40)\n      dup1\n      dup4\n      sub\n      dup2\n      0x00\n      dup8\n      dup1\n      extcodesize\n      iszero\n      dup1\n      iszero\n      tag_92\n      jumpi\n      0x00\n      dup1\n      revert\n    tag_92:\n      pop\n      gas\n      call\n      iszero\n      dup1\n      iszero\n      tag_94\n      jumpi\n      returndatasize\n      0x00\n      dup1\n      returndatacopy\n      revert(0x00, returndatasize)\n    tag_94:\n      pop\n      pop\n      pop\n      pop\n        /* \"055EnglishAuction.sol\":3461:3468  Start() */\n      0x1b55ba3aa851a46be3b365aee5b5c140edd620d578922f3e8466d2cbd96f954b\n      mload(0x40)\n      mload(0x40)\n      dup1\n      swap2\n      sub\n      swap1\n      log1\n        /* \"055EnglishAuction.sol\":2635:3475  function start() external {... */\n      jump\t// out\n        /* \"055EnglishAuction.sol\":1194:1221  uint public immutable nftId */\n    tag_49:\n      immutable(\"0x3b4066bd7b7960752225af105d3beafb5c47a26c5aae7e6798a437b7c0bb33e6\")\n      dup2\n      jump\t// out\n        /* \"055EnglishAuction.sol\":1694:1723  address public hightestBidder */\n    tag_54:\n      0x00\n      0x06\n      swap1\n      sload\n      swap1\n      0x0100\n      exp\n      swap1\n      div\n      0xffffffffffffffffffffffffffffffffffffffff\n      and\n      dup2\n      jump\t// out\n        /* \"055EnglishAuction.sol\":1729:1751  uint public highestBid */\n    tag_59:\n      sload(0x01)\n      dup2\n      jump\t// out\n        /* \"055EnglishAuction.sol\":5110:6277  function end() external {... */\n    tag_63:\n        /* \"055EnglishAuction.sol\":5377:5384  started */\n      0x00\n      0x04\n      swap1\n      sload\n      swap1\n      0x0100\n      exp\n      swap1\n      div\n      0xff\n      and\n        /* \"055EnglishAuction.sol\":5369:5398  require(started, \"not start\") */\n      tag_96\n      jumpi\n      mload(0x40)\n      0x08c379a000000000000000000000000000000000000000000000000000000000\n      dup2\n      mstore\n      0x04\n      add\n      tag_97\n      swap1\n      tag_98\n      jump\t// in\n    tag_97:\n      mload(0x40)\n      dup1\n      swap2\n      sub\n      swap1\n      revert\n    tag_96:\n        /* \"055EnglishAuction.sol\":5417:5422  ended */\n      0x00\n      0x05\n      swap1\n      sload\n      swap1\n      0x0100\n      exp\n      swap1\n      div\n      0xff\n      and\n        /* \"055EnglishAuction.sol\":5416:5422  !ended */\n      iszero\n        /* \"055EnglishAuction.sol\":5408:5437  require(!ended, \"has ended!\") */\n      tag_99\n      jumpi\n      mload(0x40)\n      0x08c379a000000000000000000000000000000000000000000000000000000000\n      dup2\n      mstore\n      0x04\n      add\n      tag_100\n      swap1\n      tag_101\n      jump\t// in\n    tag_100:\n      mload(0x40)\n      dup1\n      swap2\n      sub\n      swap1\n      revert\n    tag_99:\n        /* \"055EnglishAuction.sol\":5474:5479  endAt */\n      0x00\n      dup1\n      sload\n      swap1\n      0x0100\n      exp\n      swap1\n      div\n      0xffffffff\n      and\n        /* \"055EnglishAuction.sol\":5455:5479  block.timestamp >= endAt */\n      0xffffffff\n      and\n        /* \"055EnglishAuction.sol\":5455:5470  block.timestamp */\n      timestamp\n        /* \"055EnglishAuction.sol\":5455:5479  block.timestamp >= endAt */\n      lt\n      iszero\n        /* \"055EnglishAuction.sol\":5447:5500  require(block.timestamp >= endAt, \"now <= end time!\") */\n      tag_102\n      jumpi\n      mload(0x40)\n      0x08c379a000000000000000000000000000000000000000000000000000000000\n      dup2\n      mstore\n      0x04\n      add\n      tag_103\n      swap1\n      tag_104\n      jump\t// in\n    tag_103:\n      mload(0x40)\n      dup1\n      swap2\n      sub\n      swap1\n      revert\n    tag_102:\n        /* \"055EnglishAuction.sol\":5519:5523  true */\n      0x01\n        /* \"055EnglishAuction.sol\":5511:5516  ended */\n      0x00\n      0x05\n        /* \"055EnglishAuction.sol\":5511:5523  ended = true */\n      0x0100\n      exp\n      dup2\n      sload\n      dup2\n      0xff\n      mul\n      not\n      and\n      swap1\n      dup4\n      iszero\n      iszero\n      mul\n      or\n      swap1\n      sstore\n      pop\n        /* \"055EnglishAuction.sol\":5563:5564  0 */\n      0x00\n        /* \"055EnglishAuction.sol\":5537:5565  hightestBidder != address(0) */\n      0xffffffffffffffffffffffffffffffffffffffff\n      and\n        /* \"055EnglishAuction.sol\":5537:5551  hightestBidder */\n      0x00\n      0x06\n      swap1\n      sload\n      swap1\n      0x0100\n      exp\n      swap1\n      div\n      0xffffffffffffffffffffffffffffffffffffffff\n      and\n        /* \"055EnglishAuction.sol\":5537:5565  hightestBidder != address(0) */\n      0xffffffffffffffffffffffffffffffffffffffff\n      and\n      eq\n        /* \"055EnglishAuction.sol\":5533:6216  if (hightestBidder != address(0)){... */\n      tag_105\n      jumpi\n        /* \"055EnglishAuction.sol\":5659:5662  nft */\n      immutable(\"0x77c32b454bb61eb9df9e3848d0ded3e59753acda90ae58befe564733aec82e4c\")\n        /* \"055EnglishAuction.sol\":5659:5675  nft.transferFrom */\n      0xffffffffffffffffffffffffffffffffffffffff\n      and\n      0x23b872dd\n        /* \"055EnglishAuction.sol\":5684:5688  this */\n      address\n        /* \"055EnglishAuction.sol\":5691:5705  hightestBidder */\n      0x00\n      0x06\n      swap1\n      sload\n      swap1\n      0x0100\n      exp\n      swap1\n      div\n      0xffffffffffffffffffffffffffffffffffffffff\n      and\n        /* \"055EnglishAuction.sol\":5707:5712  nftId */\n      immutable(\"0x3b4066bd7b7960752225af105d3beafb5c47a26c5aae7e6798a437b7c0bb33e6\")\n        /* \"055EnglishAuction.sol\":5659:5713  nft.transferFrom(address(this), hightestBidder, nftId) */\n      mload(0x40)\n      dup5\n      0xffffffff\n      and\n      0xe0\n      shl\n      dup2\n      mstore\n      0x04\n      add\n      tag_106\n      swap4\n      swap3\n      swap2\n      swap1\n      tag_107\n      jump\t// in\n    tag_106:\n      0x00\n      mload(0x40)\n      dup1\n      dup4\n      sub\n      dup2\n      0x00\n      dup8\n      dup1\n      extcodesize\n      iszero\n      dup1\n      iszero\n      tag_108\n      jumpi\n      0x00\n      dup1\n      revert\n    tag_108:\n      pop\n      gas\n      call\n      iszero\n      dup1\n      iszero\n      tag_110\n      jumpi\n      returndatasize\n      0x00\n      dup1\n      returndatacopy\n      revert(0x00, returndatasize)\n    tag_110:\n      pop\n      pop\n      pop\n      pop\n        /* \"055EnglishAuction.sol\":5800:5806  seller */\n      immutable(\"0xd67d834462ca31eaef1f30157e31659f60355143b7441e6fc7d9eae1fa79f3f8\")\n        /* \"055EnglishAuction.sol\":5800:5815  seller.transfer */\n      0xffffffffffffffffffffffffffffffffffffffff\n      and\n        /* \"055EnglishAuction.sol\":5800:5827  seller.transfer(highestBid) */\n      0x08fc\n        /* \"055EnglishAuction.sol\":5816:5826  highestBid */\n      sload(0x01)\n        /* \"055EnglishAuction.sol\":5800:5827  seller.transfer(highestBid) */\n      swap1\n      dup2\n      iszero\n      mul\n      swap1\n      mload(0x40)\n      0x00\n      mload(0x40)\n      dup1\n      dup4\n      sub\n      dup2\n      dup6\n      dup9\n      dup9\n      call\n      swap4\n      pop\n      pop\n      pop\n      pop\n      iszero\n      dup1\n      iszero\n      tag_112\n      jumpi\n      returndatasize\n      0x00\n      dup1\n      returndatacopy\n      revert(0x00, returndatasize)\n    tag_112:\n      pop\n        /* \"055EnglishAuction.sol\":5533:6216  if (hightestBidder != address(0)){... */\n      jump(tag_113)\n    tag_105:\n        /* \"055EnglishAuction.sol\":6159:6162  nft */\n      immutable(\"0x77c32b454bb61eb9df9e3848d0ded3e59753acda90ae58befe564733aec82e4c\")\n        /* \"055EnglishAuction.sol\":6159:6175  nft.transferFrom */\n      0xffffffffffffffffffffffffffffffffffffffff\n      and\n      0x23b872dd\n        /* \"055EnglishAuction.sol\":6184:6188  this */\n      address\n        /* \"055EnglishAuction.sol\":6191:6197  seller */\n      immutable(\"0xd67d834462ca31eaef1f30157e31659f60355143b7441e6fc7d9eae1fa79f3f8\")\n        /* \"055EnglishAuction.sol\":6199:6204  nftId */\n      immutable(\"0x3b4066bd7b7960752225af105d3beafb5c47a26c5aae7e6798a437b7c0bb33e6\")\n        /* \"055EnglishAuction.sol\":6159:6205  nft.transferFrom(address(this), seller, nftId) */\n      mload(0x40)\n      dup5\n      0xffffffff\n      and\n      0xe0\n      shl\n      dup2\n      mstore\n      0x04\n      add\n      tag_114\n      swap4\n      swap3\n      swap2\n      swap1\n      tag_115\n      jump\t// in\n    tag_114:\n      0x00\n      mload(0x40)\n      dup1\n      dup4\n      sub\n      dup2\n      0x00\n      dup8\n      dup1\n      extcodesize\n      iszero\n      dup1\n      iszero\n      tag_116\n      jumpi\n      0x00\n      dup1\n      revert\n    tag_116:\n      pop\n      gas\n      call\n      iszero\n      dup1\n      iszero\n      tag_118\n      jumpi\n      returndatasize\n      0x00\n      dup1\n      returndatacopy\n      revert(0x00, returndatasize)\n    tag_118:\n      pop\n      pop\n      pop\n      pop\n        /* \"055EnglishAuction.sol\":5533:6216  if (hightestBidder != address(0)){... */\n    tag_113:\n        /* \"055EnglishAuction.sol\":6239:6270  End(hightestBidder, highestBid) */\n      0x7d7570b046e5ead3a4f3fbc9fa2445113625a1e79823776146316bafed6b8cc5\n        /* \"055EnglishAuction.sol\":6243:6257  hightestBidder */\n      0x00\n      0x06\n      swap1\n      sload\n      swap1\n      0x0100\n      exp\n      swap1\n      div\n      0xffffffffffffffffffffffffffffffffffffffff\n      and\n        /* \"055EnglishAuction.sol\":6259:6269  highestBid */\n      sload(0x01)\n        /* \"055EnglishAuction.sol\":6239:6270  End(hightestBidder, highestBid) */\n      mload(0x40)\n      tag_119\n      swap3\n      swap2\n      swap1\n      tag_120\n      jump\t// in\n    tag_119:\n      mload(0x40)\n      dup1\n      swap2\n      sub\n      swap1\n      log1\n        /* \"055EnglishAuction.sol\":5110:6277  function end() external {... */\n      jump\t// out\n        /* \"#utility.yul\":7:133   */\n    tag_121:\n        /* \"#utility.yul\":44:51   */\n      0x00\n        /* \"#utility.yul\":84:126   */\n      0xffffffffffffffffffffffffffffffffffffffff\n        /* \"#utility.yul\":77:82   */\n      dup3\n        /* \"#utility.yul\":73:127   */\n      and\n        /* \"#utility.yul\":62:127   */\n      swap1\n      pop\n        /* \"#utility.yul\":7:133   */\n      swap2\n      swap1\n      pop\n      jump\t// out\n        /* \"#utility.yul\":139:243   */\n    tag_122:\n        /* \"#utility.yul\":184:191   */\n      0x00\n        /* \"#utility.yul\":213:237   */\n      tag_160\n        /* \"#utility.yul\":231:236   */\n      dup3\n        /* \"#utility.yul\":213:237   */\n      tag_121\n      jump\t// in\n    tag_160:\n        /* \"#utility.yul\":202:237   */\n      swap1\n      pop\n        /* \"#utility.yul\":139:243   */\n      swap2\n      swap1\n      pop\n      jump\t// out\n        /* \"#utility.yul\":249:391   */\n    tag_123:\n        /* \"#utility.yul\":352:384   */\n      tag_162\n        /* \"#utility.yul\":378:383   */\n      dup2\n        /* \"#utility.yul\":352:384   */\n      tag_122\n      jump\t// in\n    tag_162:\n        /* \"#utility.yul\":347:350   */\n      dup3\n        /* \"#utility.yul\":340:385   */\n      mstore\n        /* \"#utility.yul\":249:391   */\n      pop\n      pop\n      jump\t// out\n        /* \"#utility.yul\":397:651   */\n    tag_19:\n        /* \"#utility.yul\":506:510   */\n      0x00\n        /* \"#utility.yul\":544:546   */\n      0x20\n        /* \"#utility.yul\":533:542   */\n      dup3\n        /* \"#utility.yul\":529:547   */\n      add\n        /* \"#utility.yul\":521:547   */\n      swap1\n      pop\n        /* \"#utility.yul\":557:644   */\n      tag_164\n        /* \"#utility.yul\":641:642   */\n      0x00\n        /* \"#utility.yul\":630:639   */\n      dup4\n        /* \"#utility.yul\":626:643   */\n      add\n        /* \"#utility.yul\":617:623   */\n      dup5\n        /* \"#utility.yul\":557:644   */\n      tag_123\n      jump\t// in\n    tag_164:\n        /* \"#utility.yul\":397:651   */\n      swap3\n      swap2\n      pop\n      pop\n      jump\t// out\n        /* \"#utility.yul\":657:747   */\n    tag_124:\n        /* \"#utility.yul\":691:698   */\n      0x00\n        /* \"#utility.yul\":734:739   */\n      dup2\n        /* \"#utility.yul\":727:740   */\n      iszero\n        /* \"#utility.yul\":720:741   */\n      iszero\n        /* \"#utility.yul\":709:741   */\n      swap1\n      pop\n        /* \"#utility.yul\":657:747   */\n      swap2\n      swap1\n      pop\n      jump\t// out\n        /* \"#utility.yul\":753:862   */\n    tag_125:\n        /* \"#utility.yul\":834:855   */\n      tag_167\n        /* \"#utility.yul\":849:854   */\n      dup2\n        /* \"#utility.yul\":834:855   */\n      tag_124\n      jump\t// in\n    tag_167:\n        /* \"#utility.yul\":829:832   */\n      dup3\n        /* \"#utility.yul\":822:856   */\n      mstore\n        /* \"#utility.yul\":753:862   */\n      pop\n      pop\n      jump\t// out\n        /* \"#utility.yul\":868:1078   */\n    tag_24:\n        /* \"#utility.yul\":955:959   */\n      0x00\n        /* \"#utility.yul\":993:995   */\n      0x20\n        /* \"#utility.yul\":982:991   */\n      dup3\n        /* \"#utility.yul\":978:996   */\n      add\n        /* \"#utility.yul\":970:996   */\n      swap1\n      pop\n        /* \"#utility.yul\":1006:1071   */\n      tag_169\n        /* \"#utility.yul\":1068:1069   */\n      0x00\n        /* \"#utility.yul\":1057:1066   */\n      dup4\n        /* \"#utility.yul\":1053:1070   */\n      add\n        /* \"#utility.yul\":1044:1050   */\n      dup5\n        /* \"#utility.yul\":1006:1071   */\n      tag_125\n      jump\t// in\n    tag_169:\n        /* \"#utility.yul\":868:1078   */\n      swap3\n      swap2\n      pop\n      pop\n      jump\t// out\n        /* \"#utility.yul\":1084:1144   */\n    tag_126:\n        /* \"#utility.yul\":1112:1115   */\n      0x00\n        /* \"#utility.yul\":1133:1138   */\n      dup2\n        /* \"#utility.yul\":1126:1138   */\n      swap1\n      pop\n        /* \"#utility.yul\":1084:1144   */\n      swap2\n      swap1\n      pop\n      jump\t// out\n        /* \"#utility.yul\":1150:1292   */\n    tag_127:\n        /* \"#utility.yul\":1200:1209   */\n      0x00\n        /* \"#utility.yul\":1233:1286   */\n      tag_172\n        /* \"#utility.yul\":1251:1285   */\n      tag_173\n        /* \"#utility.yul\":1260:1284   */\n      tag_174\n        /* \"#utility.yul\":1278:1283   */\n      dup5\n        /* \"#utility.yul\":1260:1284   */\n      tag_121\n      jump\t// in\n    tag_174:\n        /* \"#utility.yul\":1251:1285   */\n      tag_126\n      jump\t// in\n    tag_173:\n        /* \"#utility.yul\":1233:1286   */\n      tag_121\n      jump\t// in\n    tag_172:\n        /* \"#utility.yul\":1220:1286   */\n      swap1\n      pop\n        /* \"#utility.yul\":1150:1292   */\n      swap2\n      swap1\n      pop\n      jump\t// out\n        /* \"#utility.yul\":1298:1424   */\n    tag_128:\n        /* \"#utility.yul\":1348:1357   */\n      0x00\n        /* \"#utility.yul\":1381:1418   */\n      tag_176\n        /* \"#utility.yul\":1412:1417   */\n      dup3\n        /* \"#utility.yul\":1381:1418   */\n      tag_127\n      jump\t// in\n    tag_176:\n        /* \"#utility.yul\":1368:1418   */\n      swap1\n      pop\n        /* \"#utility.yul\":1298:1424   */\n      swap2\n      swap1\n      pop\n      jump\t// out\n        /* \"#utility.yul\":1430:1570   */\n    tag_129:\n        /* \"#utility.yul\":1494:1503   */\n      0x00\n        /* \"#utility.yul\":1527:1564   */\n      tag_178\n        /* \"#utility.yul\":1558:1563   */\n      dup3\n        /* \"#utility.yul\":1527:1564   */\n      tag_128\n      jump\t// in\n    tag_178:\n        /* \"#utility.yul\":1514:1564   */\n      swap1\n      pop\n        /* \"#utility.yul\":1430:1570   */\n      swap2\n      swap1\n      pop\n      jump\t// out\n        /* \"#utility.yul\":1576:1735   */\n    tag_130:\n        /* \"#utility.yul\":1677:1728   */\n      tag_180\n        /* \"#utility.yul\":1722:1727   */\n      dup2\n        /* \"#utility.yul\":1677:1728   */\n      tag_129\n      jump\t// in\n    tag_180:\n        /* \"#utility.yul\":1672:1675   */\n      dup3\n        /* \"#utility.yul\":1665:1729   */\n      mstore\n        /* \"#utility.yul\":1576:1735   */\n      pop\n      pop\n      jump\t// out\n        /* \"#utility.yul\":1741:1991   */\n    tag_38:\n        /* \"#utility.yul\":1848:1852   */\n      0x00\n        /* \"#utility.yul\":1886:1888   */\n      0x20\n        /* \"#utility.yul\":1875:1884   */\n      dup3\n        /* \"#utility.yul\":1871:1889   */\n      add\n        /* \"#utility.yul\":1863:1889   */\n      swap1\n      pop\n        /* \"#utility.yul\":1899:1984   */\n      tag_182\n        /* \"#utility.yul\":1981:1982   */\n      0x00\n        /* \"#utility.yul\":1970:1979   */\n      dup4\n        /* \"#utility.yul\":1966:1983   */\n      add\n        /* \"#utility.yul\":1957:1963   */\n      dup5\n        /* \"#utility.yul\":1899:1984   */\n      tag_130\n      jump\t// in\n    tag_182:\n        /* \"#utility.yul\":1741:1991   */\n      swap3\n      swap2\n      pop\n      pop\n      jump\t// out\n        /* \"#utility.yul\":1997:2090   */\n    tag_131:\n        /* \"#utility.yul\":2033:2040   */\n      0x00\n        /* \"#utility.yul\":2073:2083   */\n      0xffffffff\n        /* \"#utility.yul\":2066:2071   */\n      dup3\n        /* \"#utility.yul\":2062:2084   */\n      and\n        /* \"#utility.yul\":2051:2084   */\n      swap1\n      pop\n        /* \"#utility.yul\":1997:2090   */\n      swap2\n      swap1\n      pop\n      jump\t// out\n        /* \"#utility.yul\":2096:2211   */\n    tag_132:\n        /* \"#utility.yul\":2181:2204   */\n      tag_185\n        /* \"#utility.yul\":2198:2203   */\n      dup2\n        /* \"#utility.yul\":2181:2204   */\n      tag_131\n      jump\t// in\n    tag_185:\n        /* \"#utility.yul\":2176:2179   */\n      dup3\n        /* \"#utility.yul\":2169:2205   */\n      mstore\n        /* \"#utility.yul\":2096:2211   */\n      pop\n      pop\n      jump\t// out\n        /* \"#utility.yul\":2217:2435   */\n    tag_43:\n        /* \"#utility.yul\":2308:2312   */\n      0x00\n        /* \"#utility.yul\":2346:2348   */\n      0x20\n        /* \"#utility.yul\":2335:2344   */\n      dup3\n        /* \"#utility.yul\":2331:2349   */\n      add\n        /* \"#utility.yul\":2323:2349   */\n      swap1\n      pop\n        /* \"#utility.yul\":2359:2428   */\n      tag_187\n        /* \"#utility.yul\":2425:2426   */\n      0x00\n        /* \"#utility.yul\":2414:2423   */\n      dup4\n        /* \"#utility.yul\":2410:2427   */\n      add\n        /* \"#utility.yul\":2401:2407   */\n      dup5\n        /* \"#utility.yul\":2359:2428   */\n      tag_132\n      jump\t// in\n    tag_187:\n        /* \"#utility.yul\":2217:2435   */\n      swap3\n      swap2\n      pop\n      pop\n      jump\t// out\n        /* \"#utility.yul\":2441:2518   */\n    tag_133:\n        /* \"#utility.yul\":2478:2485   */\n      0x00\n        /* \"#utility.yul\":2507:2512   */\n      dup2\n        /* \"#utility.yul\":2496:2512   */\n      swap1\n      pop\n        /* \"#utility.yul\":2441:2518   */\n      swap2\n      swap1\n      pop\n      jump\t// out\n        /* \"#utility.yul\":2524:2642   */\n    tag_134:\n        /* \"#utility.yul\":2611:2635   */\n      tag_190\n        /* \"#utility.yul\":2629:2634   */\n      dup2\n        /* \"#utility.yul\":2611:2635   */\n      tag_133\n      jump\t// in\n    tag_190:\n        /* \"#utility.yul\":2606:2609   */\n      dup3\n        /* \"#utility.yul\":2599:2636   */\n      mstore\n        /* \"#utility.yul\":2524:2642   */\n      pop\n      pop\n      jump\t// out\n        /* \"#utility.yul\":2648:2870   */\n    tag_51:\n        /* \"#utility.yul\":2741:2745   */\n      0x00\n        /* \"#utility.yul\":2779:2781   */\n      0x20\n        /* \"#utility.yul\":2768:2777   */\n      dup3\n        /* \"#utility.yul\":2764:2782   */\n      add\n        /* \"#utility.yul\":2756:2782   */\n      swap1\n      pop\n        /* \"#utility.yul\":2792:2863   */\n      tag_192\n        /* \"#utility.yul\":2860:2861   */\n      0x00\n        /* \"#utility.yul\":2849:2858   */\n      dup4\n        /* \"#utility.yul\":2845:2862   */\n      add\n        /* \"#utility.yul\":2836:2842   */\n      dup5\n        /* \"#utility.yul\":2792:2863   */\n      tag_134\n      jump\t// in\n    tag_192:\n        /* \"#utility.yul\":2648:2870   */\n      swap3\n      swap2\n      pop\n      pop\n      jump\t// out\n        /* \"#utility.yul\":2876:2972   */\n    tag_135:\n        /* \"#utility.yul\":2913:2920   */\n      0x00\n        /* \"#utility.yul\":2942:2966   */\n      tag_194\n        /* \"#utility.yul\":2960:2965   */\n      dup3\n        /* \"#utility.yul\":2942:2966   */\n      tag_121\n      jump\t// in\n    tag_194:\n        /* \"#utility.yul\":2931:2966   */\n      swap1\n      pop\n        /* \"#utility.yul\":2876:2972   */\n      swap2\n      swap1\n      pop\n      jump\t// out\n        /* \"#utility.yul\":2978:3096   */\n    tag_136:\n        /* \"#utility.yul\":3065:3089   */\n      tag_196\n        /* \"#utility.yul\":3083:3088   */\n      dup2\n        /* \"#utility.yul\":3065:3089   */\n      tag_135\n      jump\t// in\n    tag_196:\n        /* \"#utility.yul\":3060:3063   */\n      dup3\n        /* \"#utility.yul\":3053:3090   */\n      mstore\n        /* \"#utility.yul\":2978:3096   */\n      pop\n      pop\n      jump\t// out\n        /* \"#utility.yul\":3102:3324   */\n    tag_56:\n        /* \"#utility.yul\":3195:3199   */\n      0x00\n        /* \"#utility.yul\":3233:3235   */\n      0x20\n        /* \"#utility.yul\":3222:3231   */\n      dup3\n        /* \"#utility.yul\":3218:3236   */\n      add\n        /* \"#utility.yul\":3210:3236   */\n      swap1\n      pop\n        /* \"#utility.yul\":3246:3317   */\n      tag_198\n        /* \"#utility.yul\":3314:3315   */\n      0x00\n        /* \"#utility.yul\":3303:3312   */\n      dup4\n        /* \"#utility.yul\":3299:3316   */\n      add\n        /* \"#utility.yul\":3290:3296   */\n      dup5\n        /* \"#utility.yul\":3246:3317   */\n      tag_136\n      jump\t// in\n    tag_198:\n        /* \"#utility.yul\":3102:3324   */\n      swap3\n      swap2\n      pop\n      pop\n      jump\t// out\n        /* \"#utility.yul\":3330:3499   */\n    tag_137:\n        /* \"#utility.yul\":3414:3425   */\n      0x00\n        /* \"#utility.yul\":3448:3454   */\n      dup3\n        /* \"#utility.yul\":3443:3446   */\n      dup3\n        /* \"#utility.yul\":3436:3455   */\n      mstore\n        /* \"#utility.yul\":3488:3492   */\n      0x20\n        /* \"#utility.yul\":3483:3486   */\n      dup3\n        /* \"#utility.yul\":3479:3493   */\n      add\n        /* \"#utility.yul\":3464:3493   */\n      swap1\n      pop\n        /* \"#utility.yul\":3330:3499   */\n      swap3\n      swap2\n      pop\n      pop\n      jump\t// out\n        /* \"#utility.yul\":3505:3665   */\n    tag_138:\n        /* \"#utility.yul\":3645:3657   */\n      0x6e6f742073746172742100000000000000000000000000000000000000000000\n        /* \"#utility.yul\":3641:3642   */\n      0x00\n        /* \"#utility.yul\":3633:3639   */\n      dup3\n        /* \"#utility.yul\":3629:3643   */\n      add\n        /* \"#utility.yul\":3622:3658   */\n      mstore\n        /* \"#utility.yul\":3505:3665   */\n      pop\n      jump\t// out\n        /* \"#utility.yul\":3671:4037   */\n    tag_139:\n        /* \"#utility.yul\":3813:3816   */\n      0x00\n        /* \"#utility.yul\":3834:3901   */\n      tag_202\n        /* \"#utility.yul\":3898:3900   */\n      0x0a\n        /* \"#utility.yul\":3893:3896   */\n      dup4\n        /* \"#utility.yul\":3834:3901   */\n      tag_137\n      jump\t// in\n    tag_202:\n        /* \"#utility.yul\":3827:3901   */\n      swap2\n      pop\n        /* \"#utility.yul\":3910:4003   */\n      tag_203\n        /* \"#utility.yul\":3999:4002   */\n      dup3\n        /* \"#utility.yul\":3910:4003   */\n      tag_138\n      jump\t// in\n    tag_203:\n        /* \"#utility.yul\":4028:4030   */\n      0x20\n        /* \"#utility.yul\":4023:4026   */\n      dup3\n        /* \"#utility.yul\":4019:4031   */\n      add\n        /* \"#utility.yul\":4012:4031   */\n      swap1\n      pop\n        /* \"#utility.yul\":3671:4037   */\n      swap2\n      swap1\n      pop\n      jump\t// out\n        /* \"#utility.yul\":4043:4462   */\n    tag_67:\n        /* \"#utility.yul\":4209:4213   */\n      0x00\n        /* \"#utility.yul\":4247:4249   */\n      0x20\n        /* \"#utility.yul\":4236:4245   */\n      dup3\n        /* \"#utility.yul\":4232:4250   */\n      add\n        /* \"#utility.yul\":4224:4250   */\n      swap1\n      pop\n        /* \"#utility.yul\":4296:4305   */\n      dup2\n        /* \"#utility.yul\":4290:4294   */\n      dup2\n        /* \"#utility.yul\":4286:4306   */\n      sub\n        /* \"#utility.yul\":4282:4283   */\n      0x00\n        /* \"#utility.yul\":4271:4280   */\n      dup4\n        /* \"#utility.yul\":4267:4284   */\n      add\n        /* \"#utility.yul\":4260:4307   */\n      mstore\n        /* \"#utility.yul\":4324:4455   */\n      tag_205\n        /* \"#utility.yul\":4450:4454   */\n      dup2\n        /* \"#utility.yul\":4324:4455   */\n      tag_139\n      jump\t// in\n    tag_205:\n        /* \"#utility.yul\":4316:4455   */\n      swap1\n      pop\n        /* \"#utility.yul\":4043:4462   */\n      swap2\n      swap1\n      pop\n      jump\t// out\n        /* \"#utility.yul\":4468:4631   */\n    tag_140:\n        /* \"#utility.yul\":4608:4623   */\n      0x62696420697320656e6465642100000000000000000000000000000000000000\n        /* \"#utility.yul\":4604:4605   */\n      0x00\n        /* \"#utility.yul\":4596:4602   */\n      dup3\n        /* \"#utility.yul\":4592:4606   */\n      add\n        /* \"#utility.yul\":4585:4624   */\n      mstore\n        /* \"#utility.yul\":4468:4631   */\n      pop\n      jump\t// out\n        /* \"#utility.yul\":4637:5003   */\n    tag_141:\n        /* \"#utility.yul\":4779:4782   */\n      0x00\n        /* \"#utility.yul\":4800:4867   */\n      tag_208\n        /* \"#utility.yul\":4864:4866   */\n      0x0d\n        /* \"#utility.yul\":4859:4862   */\n      dup4\n        /* \"#utility.yul\":4800:4867   */\n      tag_137\n      jump\t// in\n    tag_208:\n        /* \"#utility.yul\":4793:4867   */\n      swap2\n      pop\n        /* \"#utility.yul\":4876:4969   */\n      tag_209\n        /* \"#utility.yul\":4965:4968   */\n      dup3\n        /* \"#utility.yul\":4876:4969   */\n      tag_140\n      jump\t// in\n    tag_209:\n        /* \"#utility.yul\":4994:4996   */\n      0x20\n        /* \"#utility.yul\":4989:4992   */\n      dup3\n        /* \"#utility.yul\":4985:4997   */\n      add\n        /* \"#utility.yul\":4978:4997   */\n      swap1\n      pop\n        /* \"#utility.yul\":4637:5003   */\n      swap2\n      swap1\n      pop\n      jump\t// out\n        /* \"#utility.yul\":5009:5428   */\n    tag_70:\n        /* \"#utility.yul\":5175:5179   */\n      0x00\n        /* \"#utility.yul\":5213:5215   */\n      0x20\n        /* \"#utility.yul\":5202:5211   */\n      dup3\n        /* \"#utility.yul\":5198:5216   */\n      add\n        /* \"#utility.yul\":5190:5216   */\n      swap1\n      pop\n        /* \"#utility.yul\":5262:5271   */\n      dup2\n        /* \"#utility.yul\":5256:5260   */\n      dup2\n        /* \"#utility.yul\":5252:5272   */\n      sub\n        /* \"#utility.yul\":5248:5249   */\n      0x00\n        /* \"#utility.yul\":5237:5246   */\n      dup4\n        /* \"#utility.yul\":5233:5250   */\n      add\n        /* \"#utility.yul\":5226:5273   */\n      mstore\n        /* \"#utility.yul\":5290:5421   */\n      tag_211\n        /* \"#utility.yul\":5416:5420   */\n      dup2\n        /* \"#utility.yul\":5290:5421   */\n      tag_141\n      jump\t// in\n    tag_211:\n        /* \"#utility.yul\":5282:5421   */\n      swap1\n      pop\n        /* \"#utility.yul\":5009:5428   */\n      swap2\n      swap1\n      pop\n      jump\t// out\n        /* \"#utility.yul\":5434:5602   */\n    tag_142:\n        /* \"#utility.yul\":5574:5594   */\n      0x76616c7565203c20686967686573744269640000000000000000000000000000\n        /* \"#utility.yul\":5570:5571   */\n      0x00\n        /* \"#utility.yul\":5562:5568   */\n      dup3\n        /* \"#utility.yul\":5558:5572   */\n      add\n        /* \"#utility.yul\":5551:5595   */\n      mstore\n        /* \"#utility.yul\":5434:5602   */\n      pop\n      jump\t// out\n        /* \"#utility.yul\":5608:5974   */\n    tag_143:\n        /* \"#utility.yul\":5750:5753   */\n      0x00\n        /* \"#utility.yul\":5771:5838   */\n      tag_214\n        /* \"#utility.yul\":5835:5837   */\n      0x12\n        /* \"#utility.yul\":5830:5833   */\n      dup4\n        /* \"#utility.yul\":5771:5838   */\n      tag_137\n      jump\t// in\n    tag_214:\n        /* \"#utility.yul\":5764:5838   */\n      swap2\n      pop\n        /* \"#utility.yul\":5847:5940   */\n      tag_215\n        /* \"#utility.yul\":5936:5939   */\n      dup3\n        /* \"#utility.yul\":5847:5940   */\n      tag_142\n      jump\t// in\n    tag_215:\n        /* \"#utility.yul\":5965:5967   */\n      0x20\n        /* \"#utility.yul\":5960:5963   */\n      dup3\n        /* \"#utility.yul\":5956:5968   */\n      add\n        /* \"#utility.yul\":5949:5968   */\n      swap1\n      pop\n        /* \"#utility.yul\":5608:5974   */\n      swap2\n      swap1\n      pop\n      jump\t// out\n        /* \"#utility.yul\":5980:6399   */\n    tag_73:\n        /* \"#utility.yul\":6146:6150   */\n      0x00\n        /* \"#utility.yul\":6184:6186   */\n      0x20\n        /* \"#utility.yul\":6173:6182   */\n      dup3\n        /* \"#utility.yul\":6169:6187   */\n      add\n        /* \"#utility.yul\":6161:6187   */\n      swap1\n      pop\n        /* \"#utility.yul\":6233:6242   */\n      dup2\n        /* \"#utility.yul\":6227:6231   */\n      dup2\n        /* \"#utility.yul\":6223:6243   */\n      sub\n        /* \"#utility.yul\":6219:6220   */\n      0x00\n        /* \"#utility.yul\":6208:6217   */\n      dup4\n        /* \"#utility.yul\":6204:6221   */\n      add\n        /* \"#utility.yul\":6197:6244   */\n      mstore\n        /* \"#utility.yul\":6261:6392   */\n      tag_217\n        /* \"#utility.yul\":6387:6391   */\n      dup2\n        /* \"#utility.yul\":6261:6392   */\n      tag_143\n      jump\t// in\n    tag_217:\n        /* \"#utility.yul\":6253:6392   */\n      swap1\n      pop\n        /* \"#utility.yul\":5980:6399   */\n      swap2\n      swap1\n      pop\n      jump\t// out\n        /* \"#utility.yul\":6405:6585   */\n    tag_144:\n        /* \"#utility.yul\":6453:6530   */\n      0x4e487b7100000000000000000000000000000000000000000000000000000000\n        /* \"#utility.yul\":6450:6451   */\n      0x00\n        /* \"#utility.yul\":6443:6531   */\n      mstore\n        /* \"#utility.yul\":6550:6554   */\n      0x11\n        /* \"#utility.yul\":6547:6548   */\n      0x04\n        /* \"#utility.yul\":6540:6555   */\n      mstore\n        /* \"#utility.yul\":6574:6578   */\n      0x24\n        /* \"#utility.yul\":6571:6572   */\n      0x00\n        /* \"#utility.yul\":6564:6579   */\n      revert\n        /* \"#utility.yul\":6591:6782   */\n    tag_76:\n        /* \"#utility.yul\":6631:6634   */\n      0x00\n        /* \"#utility.yul\":6650:6670   */\n      tag_220\n        /* \"#utility.yul\":6668:6669   */\n      dup3\n        /* \"#utility.yul\":6650:6670   */\n      tag_133\n      jump\t// in\n    tag_220:\n        /* \"#utility.yul\":6645:6670   */\n      swap2\n      pop\n        /* \"#utility.yul\":6684:6704   */\n      tag_221\n        /* \"#utility.yul\":6702:6703   */\n      dup4\n        /* \"#utility.yul\":6684:6704   */\n      tag_133\n      jump\t// in\n    tag_221:\n        /* \"#utility.yul\":6679:6704   */\n      swap3\n      pop\n        /* \"#utility.yul\":6727:6728   */\n      dup3\n        /* \"#utility.yul\":6724:6725   */\n      dup3\n        /* \"#utility.yul\":6720:6729   */\n      add\n        /* \"#utility.yul\":6713:6729   */\n      swap1\n      pop\n        /* \"#utility.yul\":6748:6751   */\n      dup1\n        /* \"#utility.yul\":6745:6746   */\n      dup3\n        /* \"#utility.yul\":6742:6752   */\n      gt\n        /* \"#utility.yul\":6739:6775   */\n      iszero\n      tag_222\n      jumpi\n        /* \"#utility.yul\":6755:6773   */\n      tag_223\n      tag_144\n      jump\t// in\n    tag_223:\n        /* \"#utility.yul\":6739:6775   */\n    tag_222:\n        /* \"#utility.yul\":6591:6782   */\n      swap3\n      swap2\n      pop\n      pop\n      jump\t// out\n        /* \"#utility.yul\":6788:6948   */\n    tag_145:\n        /* \"#utility.yul\":6928:6940   */\n      0x6e6f742073656c6c657200000000000000000000000000000000000000000000\n        /* \"#utility.yul\":6924:6925   */\n      0x00\n        /* \"#utility.yul\":6916:6922   */\n      dup3\n        /* \"#utility.yul\":6912:6926   */\n      add\n        /* \"#utility.yul\":6905:6941   */\n      mstore\n        /* \"#utility.yul\":6788:6948   */\n      pop\n      jump\t// out\n        /* \"#utility.yul\":6954:7320   */\n    tag_146:\n        /* \"#utility.yul\":7096:7099   */\n      0x00\n        /* \"#utility.yul\":7117:7184   */\n      tag_226\n        /* \"#utility.yul\":7181:7183   */\n      0x0a\n        /* \"#utility.yul\":7176:7179   */\n      dup4\n        /* \"#utility.yul\":7117:7184   */\n      tag_137\n      jump\t// in\n    tag_226:\n        /* \"#utility.yul\":7110:7184   */\n      swap2\n      pop\n        /* \"#utility.yul\":7193:7286   */\n      tag_227\n        /* \"#utility.yul\":7282:7285   */\n      dup3\n        /* \"#utility.yul\":7193:7286   */\n      tag_145\n      jump\t// in\n    tag_227:\n        /* \"#utility.yul\":7311:7313   */\n      0x20\n        /* \"#utility.yul\":7306:7309   */\n      dup3\n        /* \"#utility.yul\":7302:7314   */\n      add\n        /* \"#utility.yul\":7295:7314   */\n      swap1\n      pop\n        /* \"#utility.yul\":6954:7320   */\n      swap2\n      swap1\n      pop\n      jump\t// out\n        /* \"#utility.yul\":7326:7745   */\n    tag_85:\n        /* \"#utility.yul\":7492:7496   */\n      0x00\n        /* \"#utility.yul\":7530:7532   */\n      0x20\n        /* \"#utility.yul\":7519:7528   */\n      dup3\n        /* \"#utility.yul\":7515:7533   */\n      add\n        /* \"#utility.yul\":7507:7533   */\n      swap1\n      pop\n        /* \"#utility.yul\":7579:7588   */\n      dup2\n        /* \"#utility.yul\":7573:7577   */\n      dup2\n        /* \"#utility.yul\":7569:7589   */\n      sub\n        /* \"#utility.yul\":7565:7566   */\n      0x00\n        /* \"#utility.yul\":7554:7563   */\n      dup4\n        /* \"#utility.yul\":7550:7567   */\n      add\n        /* \"#utility.yul\":7543:7590   */\n      mstore\n        /* \"#utility.yul\":7607:7738   */\n      tag_229\n        /* \"#utility.yul\":7733:7737   */\n      dup2\n        /* \"#utility.yul\":7607:7738   */\n      tag_146\n      jump\t// in\n    tag_229:\n        /* \"#utility.yul\":7599:7738   */\n      swap1\n      pop\n        /* \"#utility.yul\":7326:7745   */\n      swap2\n      swap1\n      pop\n      jump\t// out\n        /* \"#utility.yul\":7751:7913   */\n    tag_147:\n        /* \"#utility.yul\":7891:7905   */\n      0x6861732073746172746564210000000000000000000000000000000000000000\n        /* \"#utility.yul\":7887:7888   */\n      0x00\n        /* \"#utility.yul\":7879:7885   */\n      dup3\n        /* \"#utility.yul\":7875:7889   */\n      add\n        /* \"#utility.yul\":7868:7906   */\n      mstore\n        /* \"#utility.yul\":7751:7913   */\n      pop\n      jump\t// out\n        /* \"#utility.yul\":7919:8285   */\n    tag_148:\n        /* \"#utility.yul\":8061:8064   */\n      0x00\n        /* \"#utility.yul\":8082:8149   */\n      tag_232\n        /* \"#utility.yul\":8146:8148   */\n      0x0c\n        /* \"#utility.yul\":8141:8144   */\n      dup4\n        /* \"#utility.yul\":8082:8149   */\n      tag_137\n      jump\t// in\n    tag_232:\n        /* \"#utility.yul\":8075:8149   */\n      swap2\n      pop\n        /* \"#utility.yul\":8158:8251   */\n      tag_233\n        /* \"#utility.yul\":8247:8250   */\n      dup3\n        /* \"#utility.yul\":8158:8251   */\n      tag_147\n      jump\t// in\n    tag_233:\n        /* \"#utility.yul\":8276:8278   */\n      0x20\n        /* \"#utility.yul\":8271:8274   */\n      dup3\n        /* \"#utility.yul\":8267:8279   */\n      add\n        /* \"#utility.yul\":8260:8279   */\n      swap1\n      pop\n        /* \"#utility.yul\":7919:8285   */\n      swap2\n      swap1\n      pop\n      jump\t// out\n        /* \"#utility.yul\":8291:8710   */\n    tag_88:\n        /* \"#utility.yul\":8457:8461   */\n      0x00\n        /* \"#utility.yul\":8495:8497   */\n      0x20\n        /* \"#utility.yul\":8484:8493   */\n      dup3\n        /* \"#utility.yul\":8480:8498   */\n      add\n        /* \"#utility.yul\":8472:8498   */\n      swap1\n      pop\n        /* \"#utility.yul\":8544:8553   */\n      dup2\n        /* \"#utility.yul\":8538:8542   */\n      dup2\n        /* \"#utility.yul\":8534:8554   */\n      sub\n        /* \"#utility.yul\":8530:8531   */\n      0x00\n        /* \"#utility.yul\":8519:8528   */\n      dup4\n        /* \"#utility.yul\":8515:8532   */\n      add\n        /* \"#utility.yul\":8508:8555   */\n      mstore\n        /* \"#utility.yul\":8572:8703   */\n      tag_235\n        /* \"#utility.yul\":8698:8702   */\n      dup2\n        /* \"#utility.yul\":8572:8703   */\n      tag_148\n      jump\t// in\n    tag_235:\n        /* \"#utility.yul\":8564:8703   */\n      swap1\n      pop\n        /* \"#utility.yul\":8291:8710   */\n      swap2\n      swap1\n      pop\n      jump\t// out\n        /* \"#utility.yul\":8716:8850   */\n    tag_149:\n        /* \"#utility.yul\":8774:8783   */\n      0x00\n        /* \"#utility.yul\":8807:8844   */\n      tag_237\n        /* \"#utility.yul\":8838:8843   */\n      dup3\n        /* \"#utility.yul\":8807:8844   */\n      tag_128\n      jump\t// in\n    tag_237:\n        /* \"#utility.yul\":8794:8844   */\n      swap1\n      pop\n        /* \"#utility.yul\":8716:8850   */\n      swap2\n      swap1\n      pop\n      jump\t// out\n        /* \"#utility.yul\":8856:9003   */\n    tag_150:\n        /* \"#utility.yul\":8951:8996   */\n      tag_239\n        /* \"#utility.yul\":8990:8995   */\n      dup2\n        /* \"#utility.yul\":8951:8996   */\n      tag_149\n      jump\t// in\n    tag_239:\n        /* \"#utility.yul\":8946:8949   */\n      dup3\n        /* \"#utility.yul\":8939:8997   */\n      mstore\n        /* \"#utility.yul\":8856:9003   */\n      pop\n      pop\n      jump\t// out\n        /* \"#utility.yul\":9009:9467   */\n    tag_91:\n        /* \"#utility.yul\":9166:9170   */\n      0x00\n        /* \"#utility.yul\":9204:9206   */\n      0x60\n        /* \"#utility.yul\":9193:9202   */\n      dup3\n        /* \"#utility.yul\":9189:9207   */\n      add\n        /* \"#utility.yul\":9181:9207   */\n      swap1\n      pop\n        /* \"#utility.yul\":9217:9296   */\n      tag_241\n        /* \"#utility.yul\":9293:9294   */\n      0x00\n        /* \"#utility.yul\":9282:9291   */\n      dup4\n        /* \"#utility.yul\":9278:9295   */\n      add\n        /* \"#utility.yul\":9269:9275   */\n      dup7\n        /* \"#utility.yul\":9217:9296   */\n      tag_150\n      jump\t// in\n    tag_241:\n        /* \"#utility.yul\":9306:9378   */\n      tag_242\n        /* \"#utility.yul\":9374:9376   */\n      0x20\n        /* \"#utility.yul\":9363:9372   */\n      dup4\n        /* \"#utility.yul\":9359:9377   */\n      add\n        /* \"#utility.yul\":9350:9356   */\n      dup6\n        /* \"#utility.yul\":9306:9378   */\n      tag_136\n      jump\t// in\n    tag_242:\n        /* \"#utility.yul\":9388:9460   */\n      tag_243\n        /* \"#utility.yul\":9456:9458   */\n      0x40\n        /* \"#utility.yul\":9445:9454   */\n      dup4\n        /* \"#utility.yul\":9441:9459   */\n      add\n        /* \"#utility.yul\":9432:9438   */\n      dup5\n        /* \"#utility.yul\":9388:9460   */\n      tag_134\n      jump\t// in\n    tag_243:\n        /* \"#utility.yul\":9009:9467   */\n      swap5\n      swap4\n      pop\n      pop\n      pop\n      pop\n      jump\t// out\n        /* \"#utility.yul\":9473:9632   */\n    tag_151:\n        /* \"#utility.yul\":9613:9624   */\n      0x6e6f742073746172740000000000000000000000000000000000000000000000\n        /* \"#utility.yul\":9609:9610   */\n      0x00\n        /* \"#utility.yul\":9601:9607   */\n      dup3\n        /* \"#utility.yul\":9597:9611   */\n      add\n        /* \"#utility.yul\":9590:9625   */\n      mstore\n        /* \"#utility.yul\":9473:9632   */\n      pop\n      jump\t// out\n        /* \"#utility.yul\":9638:10003   */\n    tag_152:\n        /* \"#utility.yul\":9780:9783   */\n      0x00\n        /* \"#utility.yul\":9801:9867   */\n      tag_246\n        /* \"#utility.yul\":9865:9866   */\n      0x09\n        /* \"#utility.yul\":9860:9863   */\n      dup4\n        /* \"#utility.yul\":9801:9867   */\n      tag_137\n      jump\t// in\n    tag_246:\n        /* \"#utility.yul\":9794:9867   */\n      swap2\n      pop\n        /* \"#utility.yul\":9876:9969   */\n      tag_247\n        /* \"#utility.yul\":9965:9968   */\n      dup3\n        /* \"#utility.yul\":9876:9969   */\n      tag_151\n      jump\t// in\n    tag_247:\n        /* \"#utility.yul\":9994:9996   */\n      0x20\n        /* \"#utility.yul\":9989:9992   */\n      dup3\n        /* \"#utility.yul\":9985:9997   */\n      add\n        /* \"#utility.yul\":9978:9997   */\n      swap1\n      pop\n        /* \"#utility.yul\":9638:10003   */\n      swap2\n      swap1\n      pop\n      jump\t// out\n        /* \"#utility.yul\":10009:10428   */\n    tag_98:\n        /* \"#utility.yul\":10175:10179   */\n      0x00\n        /* \"#utility.yul\":10213:10215   */\n      0x20\n        /* \"#utility.yul\":10202:10211   */\n      dup3\n        /* \"#utility.yul\":10198:10216   */\n      add\n        /* \"#utility.yul\":10190:10216   */\n      swap1\n      pop\n        /* \"#utility.yul\":10262:10271   */\n      dup2\n        /* \"#utility.yul\":10256:10260   */\n      dup2\n        /* \"#utility.yul\":10252:10272   */\n      sub\n        /* \"#utility.yul\":10248:10249   */\n      0x00\n        /* \"#utility.yul\":10237:10246   */\n      dup4\n        /* \"#utility.yul\":10233:10250   */\n      add\n        /* \"#utility.yul\":10226:10273   */\n      mstore\n        /* \"#utility.yul\":10290:10421   */\n      tag_249\n        /* \"#utility.yul\":10416:10420   */\n      dup2\n        /* \"#utility.yul\":10290:10421   */\n      tag_152\n      jump\t// in\n    tag_249:\n        /* \"#utility.yul\":10282:10421   */\n      swap1\n      pop\n        /* \"#utility.yul\":10009:10428   */\n      swap2\n      swap1\n      pop\n      jump\t// out\n        /* \"#utility.yul\":10434:10594   */\n    tag_153:\n        /* \"#utility.yul\":10574:10586   */\n      0x68617320656e6465642100000000000000000000000000000000000000000000\n        /* \"#utility.yul\":10570:10571   */\n      0x00\n        /* \"#utility.yul\":10562:10568   */\n      dup3\n        /* \"#utility.yul\":10558:10572   */\n      add\n        /* \"#utility.yul\":10551:10587   */\n      mstore\n        /* \"#utility.yul\":10434:10594   */\n      pop\n      jump\t// out\n        /* \"#utility.yul\":10600:10966   */\n    tag_154:\n        /* \"#utility.yul\":10742:10745   */\n      0x00\n        /* \"#utility.yul\":10763:10830   */\n      tag_252\n        /* \"#utility.yul\":10827:10829   */\n      0x0a\n        /* \"#utility.yul\":10822:10825   */\n      dup4\n        /* \"#utility.yul\":10763:10830   */\n      tag_137\n      jump\t// in\n    tag_252:\n        /* \"#utility.yul\":10756:10830   */\n      swap2\n      pop\n        /* \"#utility.yul\":10839:10932   */\n      tag_253\n        /* \"#utility.yul\":10928:10931   */\n      dup3\n        /* \"#utility.yul\":10839:10932   */\n      tag_153\n      jump\t// in\n    tag_253:\n        /* \"#utility.yul\":10957:10959   */\n      0x20\n        /* \"#utility.yul\":10952:10955   */\n      dup3\n        /* \"#utility.yul\":10948:10960   */\n      add\n        /* \"#utility.yul\":10941:10960   */\n      swap1\n      pop\n        /* \"#utility.yul\":10600:10966   */\n      swap2\n      swap1\n      pop\n      jump\t// out\n        /* \"#utility.yul\":10972:11391   */\n    tag_101:\n        /* \"#utility.yul\":11138:11142   */\n      0x00\n        /* \"#utility.yul\":11176:11178   */\n      0x20\n        /* \"#utility.yul\":11165:11174   */\n      dup3\n        /* \"#utility.yul\":11161:11179   */\n      add\n        /* \"#utility.yul\":11153:11179   */\n      swap1\n      pop\n        /* \"#utility.yul\":11225:11234   */\n      dup2\n        /* \"#utility.yul\":11219:11223   */\n      dup2\n        /* \"#utility.yul\":11215:11235   */\n      sub\n        /* \"#utility.yul\":11211:11212   */\n      0x00\n        /* \"#utility.yul\":11200:11209   */\n      dup4\n        /* \"#utility.yul\":11196:11213   */\n      add\n        /* \"#utility.yul\":11189:11236   */\n      mstore\n        /* \"#utility.yul\":11253:11384   */\n      tag_255\n        /* \"#utility.yul\":11379:11383   */\n      dup2\n        /* \"#utility.yul\":11253:11384   */\n      tag_154\n      jump\t// in\n    tag_255:\n        /* \"#utility.yul\":11245:11384   */\n      swap1\n      pop\n        /* \"#utility.yul\":10972:11391   */\n      swap2\n      swap1\n      pop\n      jump\t// out\n        /* \"#utility.yul\":11397:11563   */\n    tag_155:\n        /* \"#utility.yul\":11537:11555   */\n      0x6e6f77203c3d20656e642074696d652100000000000000000000000000000000\n        /* \"#utility.yul\":11533:11534   */\n      0x00\n        /* \"#utility.yul\":11525:11531   */\n      dup3\n        /* \"#utility.yul\":11521:11535   */\n      add\n        /* \"#utility.yul\":11514:11556   */\n      mstore\n        /* \"#utility.yul\":11397:11563   */\n      pop\n      jump\t// out\n        /* \"#utility.yul\":11569:11935   */\n    tag_156:\n        /* \"#utility.yul\":11711:11714   */\n      0x00\n        /* \"#utility.yul\":11732:11799   */\n      tag_258\n        /* \"#utility.yul\":11796:11798   */\n      0x10\n        /* \"#utility.yul\":11791:11794   */\n      dup4\n        /* \"#utility.yul\":11732:11799   */\n      tag_137\n      jump\t// in\n    tag_258:\n        /* \"#utility.yul\":11725:11799   */\n      swap2\n      pop\n        /* \"#utility.yul\":11808:11901   */\n      tag_259\n        /* \"#utility.yul\":11897:11900   */\n      dup3\n        /* \"#utility.yul\":11808:11901   */\n      tag_155\n      jump\t// in\n    tag_259:\n        /* \"#utility.yul\":11926:11928   */\n      0x20\n        /* \"#utility.yul\":11921:11924   */\n      dup3\n        /* \"#utility.yul\":11917:11929   */\n      add\n        /* \"#utility.yul\":11910:11929   */\n      swap1\n      pop\n        /* \"#utility.yul\":11569:11935   */\n      swap2\n      swap1\n      pop\n      jump\t// out\n        /* \"#utility.yul\":11941:12360   */\n    tag_104:\n        /* \"#utility.yul\":12107:12111   */\n      0x00\n        /* \"#utility.yul\":12145:12147   */\n      0x20\n        /* \"#utility.yul\":12134:12143   */\n      dup3\n        /* \"#utility.yul\":12130:12148   */\n      add\n        /* \"#utility.yul\":12122:12148   */\n      swap1\n      pop\n        /* \"#utility.yul\":12194:12203   */\n      dup2\n        /* \"#utility.yul\":12188:12192   */\n      dup2\n        /* \"#utility.yul\":12184:12204   */\n      sub\n        /* \"#utility.yul\":12180:12181   */\n      0x00\n        /* \"#utility.yul\":12169:12178   */\n      dup4\n        /* \"#utility.yul\":12165:12182   */\n      add\n        /* \"#utility.yul\":12158:12205   */\n      mstore\n        /* \"#utility.yul\":12222:12353   */\n      tag_261\n        /* \"#utility.yul\":12348:12352   */\n      dup2\n        /* \"#utility.yul\":12222:12353   */\n      tag_156\n      jump\t// in\n    tag_261:\n        /* \"#utility.yul\":12214:12353   */\n      swap1\n      pop\n        /* \"#utility.yul\":11941:12360   */\n      swap2\n      swap1\n      pop\n      jump\t// out\n        /* \"#utility.yul\":12366:12808   */\n    tag_107:\n        /* \"#utility.yul\":12515:12519   */\n      0x00\n        /* \"#utility.yul\":12553:12555   */\n      0x60\n        /* \"#utility.yul\":12542:12551   */\n      dup3\n        /* \"#utility.yul\":12538:12556   */\n      add\n        /* \"#utility.yul\":12530:12556   */\n      swap1\n      pop\n        /* \"#utility.yul\":12566:12637   */\n      tag_263\n        /* \"#utility.yul\":12634:12635   */\n      0x00\n        /* \"#utility.yul\":12623:12632   */\n      dup4\n        /* \"#utility.yul\":12619:12636   */\n      add\n        /* \"#utility.yul\":12610:12616   */\n      dup7\n        /* \"#utility.yul\":12566:12637   */\n      tag_136\n      jump\t// in\n    tag_263:\n        /* \"#utility.yul\":12647:12719   */\n      tag_264\n        /* \"#utility.yul\":12715:12717   */\n      0x20\n        /* \"#utility.yul\":12704:12713   */\n      dup4\n        /* \"#utility.yul\":12700:12718   */\n      add\n        /* \"#utility.yul\":12691:12697   */\n      dup6\n        /* \"#utility.yul\":12647:12719   */\n      tag_136\n      jump\t// in\n    tag_264:\n        /* \"#utility.yul\":12729:12801   */\n      tag_265\n        /* \"#utility.yul\":12797:12799   */\n      0x40\n        /* \"#utility.yul\":12786:12795   */\n      dup4\n        /* \"#utility.yul\":12782:12800   */\n      add\n        /* \"#utility.yul\":12773:12779   */\n      dup5\n        /* \"#utility.yul\":12729:12801   */\n      tag_134\n      jump\t// in\n    tag_265:\n        /* \"#utility.yul\":12366:12808   */\n      swap5\n      swap4\n      pop\n      pop\n      pop\n      pop\n      jump\t// out\n        /* \"#utility.yul\":12814:13272   */\n    tag_115:\n        /* \"#utility.yul\":12971:12975   */\n      0x00\n        /* \"#utility.yul\":13009:13011   */\n      0x60\n        /* \"#utility.yul\":12998:13007   */\n      dup3\n        /* \"#utility.yul\":12994:13012   */\n      add\n        /* \"#utility.yul\":12986:13012   */\n      swap1\n      pop\n        /* \"#utility.yul\":13022:13093   */\n      tag_267\n        /* \"#utility.yul\":13090:13091   */\n      0x00\n        /* \"#utility.yul\":13079:13088   */\n      dup4\n        /* \"#utility.yul\":13075:13092   */\n      add\n        /* \"#utility.yul\":13066:13072   */\n      dup7\n        /* \"#utility.yul\":13022:13093   */\n      tag_136\n      jump\t// in\n    tag_267:\n        /* \"#utility.yul\":13103:13183   */\n      tag_268\n        /* \"#utility.yul\":13179:13181   */\n      0x20\n        /* \"#utility.yul\":13168:13177   */\n      dup4\n        /* \"#utility.yul\":13164:13182   */\n      add\n        /* \"#utility.yul\":13155:13161   */\n      dup6\n        /* \"#utility.yul\":13103:13183   */\n      tag_150\n      jump\t// in\n    tag_268:\n        /* \"#utility.yul\":13193:13265   */\n      tag_269\n        /* \"#utility.yul\":13261:13263   */\n      0x40\n        /* \"#utility.yul\":13250:13259   */\n      dup4\n        /* \"#utility.yul\":13246:13264   */\n      add\n        /* \"#utility.yul\":13237:13243   */\n      dup5\n        /* \"#utility.yul\":13193:13265   */\n      tag_134\n      jump\t// in\n    tag_269:\n        /* \"#utility.yul\":12814:13272   */\n      swap5\n      swap4\n      pop\n      pop\n      pop\n      pop\n      jump\t// out\n        /* \"#utility.yul\":13278:13610   */\n    tag_120:\n        /* \"#utility.yul\":13399:13403   */\n      0x00\n        /* \"#utility.yul\":13437:13439   */\n      0x40\n        /* \"#utility.yul\":13426:13435   */\n      dup3\n        /* \"#utility.yul\":13422:13440   */\n      add\n        /* \"#utility.yul\":13414:13440   */\n      swap1\n      pop\n        /* \"#utility.yul\":13450:13521   */\n      tag_271\n        /* \"#utility.yul\":13518:13519   */\n      0x00\n        /* \"#utility.yul\":13507:13516   */\n      dup4\n        /* \"#utility.yul\":13503:13520   */\n      add\n        /* \"#utility.yul\":13494:13500   */\n      dup6\n        /* \"#utility.yul\":13450:13521   */\n      tag_136\n      jump\t// in\n    tag_271:\n        /* \"#utility.yul\":13531:13603   */\n      tag_272\n        /* \"#utility.yul\":13599:13601   */\n      0x20\n        /* \"#utility.yul\":13588:13597   */\n      dup4\n        /* \"#utility.yul\":13584:13602   */\n      add\n        /* \"#utility.yul\":13575:13581   */\n      dup5\n        /* \"#utility.yul\":13531:13603   */\n      tag_134\n      jump\t// in\n    tag_272:\n        /* \"#utility.yul\":13278:13610   */\n      swap4\n      swap3\n      pop\n      pop\n      pop\n      jump\t// out\n\n    auxdata: 0xa26469706673582212202f203eeab669e34895d92f2d61ca87ce579ee4c8182e8a41e4a212be79bd022964736f6c63430008170033\n}\n",
				"bytecode": {
					"linkReferences": {},
					"object": "60e060405234801562000010575f80fd5b50604051620014dc380380620014dc833981810160405281019062000036919062000153565b8273ffffffffffffffffffffffffffffffffffffffff1660808173ffffffffffffffffffffffffffffffffffffffff16815250508160a081815250503373ffffffffffffffffffffffffffffffffffffffff1660c08173ffffffffffffffffffffffffffffffffffffffff168152505080600181905550505050620001ac565b5f80fd5b5f73ffffffffffffffffffffffffffffffffffffffff82169050919050565b5f620000e582620000ba565b9050919050565b620000f781620000d9565b811462000102575f80fd5b50565b5f815190506200011581620000ec565b92915050565b5f819050919050565b6200012f816200011b565b81146200013a575f80fd5b50565b5f815190506200014d8162000124565b92915050565b5f805f606084860312156200016d576200016c620000b6565b5b5f6200017c8682870162000105565b93505060206200018f868287016200013d565b9250506040620001a2868287016200013d565b9150509250925092565b60805160a05160c0516112bf6200021d5f395f8181610248015281816106410152818161078801528181610ac10152610b6901525f81816107aa0152818161084401528181610a550152610b8a01525f81816105f30152818161074c015281816109f60152610b2c01526112bf5ff3fe6080604052600436106100a6575f3560e01c80637cc3ae8c116100635780637cc3ae8c14610172578063be9a65551461019c578063c6bc5182146101b2578063c6cf27da146101dc578063d57bde7914610206578063efbe1c1c14610230576100a6565b806308551a53146100aa57806312fa6feb146100d45780631998aeef146100fe5780631f2698ab146101085780633ccfd60b1461013257806347ccca0214610148575b5f80fd5b3480156100b5575f80fd5b506100be610246565b6040516100cb9190610c92565b60405180910390f35b3480156100df575f80fd5b506100e861026a565b6040516100f59190610cc5565b60405180910390f35b61010661027c565b005b348015610113575f80fd5b5061011c6104c7565b6040516101299190610cc5565b60405180910390f35b34801561013d575f80fd5b506101466104d9565b005b348015610153575f80fd5b5061015c6105f1565b6040516101699190610d39565b60405180910390f35b34801561017d575f80fd5b50610186610615565b6040516101939190610d70565b60405180910390f35b3480156101a7575f80fd5b506101b0610628565b005b3480156101bd575f80fd5b506101c6610842565b6040516101d39190610da1565b60405180910390f35b3480156101e7575f80fd5b506101f0610866565b6040516101fd9190610dda565b60405180910390f35b348015610211575f80fd5b5061021a61088b565b6040516102279190610da1565b60405180910390f35b34801561023b575f80fd5b50610244610891565b005b7f000000000000000000000000000000000000000000000000000000000000000081565b5f60059054906101000a900460ff1681565b5f60049054906101000a900460ff166102ca576040517f08c379a00000000000000000000000000000000000000000000000000000000081526004016102c190610e4d565b60405180910390fd5b5f8054906101000a900463ffffffff1663ffffffff164210610321576040517f08c379a000000000000000000000000000000000000000000000000000000000815260040161031890610eb5565b60405180910390fd5b6001543411610365576040517f08c379a000000000000000000000000000000000000000000000000000000000815260040161035c90610f1d565b60405180910390fd5b5f73ffffffffffffffffffffffffffffffffffffffff165f60069054906101000a900473ffffffffffffffffffffffffffffffffffffffff1673ffffffffffffffffffffffffffffffffffffffff16146104305760015460025f8060069054906101000a900473ffffffffffffffffffffffffffffffffffffffff1673ffffffffffffffffffffffffffffffffffffffff1673ffffffffffffffffffffffffffffffffffffffff1681526020019081526020015f205f8282546104289190610f68565b925050819055505b34600181905550335f60066101000a81548173ffffffffffffffffffffffffffffffffffffffff021916908373ffffffffffffffffffffffffffffffffffffffff1602179055503373ffffffffffffffffffffffffffffffffffffffff167fe684a55f31b79eca403df938249029212a5925ec6be8012e099b45bc1019e5d2346040516104bd9190610da1565b60405180910390a2565b5f60049054906101000a900460ff1681565b5f60025f3373ffffffffffffffffffffffffffffffffffffffff1673ffffffffffffffffffffffffffffffffffffffff1681526020019081526020015f205490505f60025f3373ffffffffffffffffffffffffffffffffffffffff1673ffffffffffffffffffffffffffffffffffffffff1681526020019081526020015f20819055503373ffffffffffffffffffffffffffffffffffffffff166108fc8290811502906040515f60405180830381858888f1935050505015801561059f573d5f803e3d5ffd5b503373ffffffffffffffffffffffffffffffffffffffff167f884edad9ce6fa2440d8a54cc123490eb96d2768479d49ff9c7366125a9424364826040516105e69190610da1565b60405180910390a250565b7f000000000000000000000000000000000000000000000000000000000000000081565b5f8054906101000a900463ffffffff1681565b3373ffffffffffffffffffffffffffffffffffffffff167f000000000000000000000000000000000000000000000000000000000000000073ffffffffffffffffffffffffffffffffffffffff16146106b6576040517f08c379a00000000000000000000000000000000000000000000000000000000081526004016106ad90610fe5565b60405180910390fd5b5f60049054906101000a900460ff1615610705576040517f08c379a00000000000000000000000000000000000000000000000000000000081526004016106fc9061104d565b60405180910390fd5b60015f60046101000a81548160ff02191690831515021790555060784261072c9190610f68565b5f806101000a81548163ffffffff021916908363ffffffff1602179055507f000000000000000000000000000000000000000000000000000000000000000073ffffffffffffffffffffffffffffffffffffffff166323b872dd7f0000000000000000000000000000000000000000000000000000000000000000307f00000000000000000000000000000000000000000000000000000000000000006040518463ffffffff1660e01b81526004016107e79392919061108b565b5f604051808303815f87803b1580156107fe575f80fd5b505af1158015610810573d5f803e3d5ffd5b505050507f1b55ba3aa851a46be3b365aee5b5c140edd620d578922f3e8466d2cbd96f954b60405160405180910390a1565b7f000000000000000000000000000000000000000000000000000000000000000081565b5f60069054906101000a900473ffffffffffffffffffffffffffffffffffffffff1681565b60015481565b5f60049054906101000a900460ff166108df576040517f08c379a00000000000000000000000000000000000000000000000000000000081526004016108d69061110a565b60405180910390fd5b5f60059054906101000a900460ff161561092e576040517f08c379a000000000000000000000000000000000000000000000000000000000815260040161092590611172565b60405180910390fd5b5f8054906101000a900463ffffffff1663ffffffff16421015610986576040517f08c379a000000000000000000000000000000000000000000000000000000000815260040161097d906111da565b60405180910390fd5b60015f60056101000a81548160ff0219169083151502179055505f73ffffffffffffffffffffffffffffffffffffffff165f60069054906101000a900473ffffffffffffffffffffffffffffffffffffffff1673ffffffffffffffffffffffffffffffffffffffff1614610b2a577f000000000000000000000000000000000000000000000000000000000000000073ffffffffffffffffffffffffffffffffffffffff166323b872dd305f60069054906101000a900473ffffffffffffffffffffffffffffffffffffffff167f00000000000000000000000000000000000000000000000000000000000000006040518463ffffffff1660e01b8152600401610a92939291906111f8565b5f604051808303815f87803b158015610aa9575f80fd5b505af1158015610abb573d5f803e3d5ffd5b505050507f000000000000000000000000000000000000000000000000000000000000000073ffffffffffffffffffffffffffffffffffffffff166108fc60015490811502906040515f60405180830381858888f19350505050158015610b24573d5f803e3d5ffd5b50610bf5565b7f000000000000000000000000000000000000000000000000000000000000000073ffffffffffffffffffffffffffffffffffffffff166323b872dd307f00000000000000000000000000000000000000000000000000000000000000007f00000000000000000000000000000000000000000000000000000000000000006040518463ffffffff1660e01b8152600401610bc79392919061122d565b5f604051808303815f87803b158015610bde575f80fd5b505af1158015610bf0573d5f803e3d5ffd5b505050505b7f7d7570b046e5ead3a4f3fbc9fa2445113625a1e79823776146316bafed6b8cc55f60069054906101000a900473ffffffffffffffffffffffffffffffffffffffff16600154604051610c49929190611262565b60405180910390a1565b5f73ffffffffffffffffffffffffffffffffffffffff82169050919050565b5f610c7c82610c53565b9050919050565b610c8c81610c72565b82525050565b5f602082019050610ca55f830184610c83565b92915050565b5f8115159050919050565b610cbf81610cab565b82525050565b5f602082019050610cd85f830184610cb6565b92915050565b5f819050919050565b5f610d01610cfc610cf784610c53565b610cde565b610c53565b9050919050565b5f610d1282610ce7565b9050919050565b5f610d2382610d08565b9050919050565b610d3381610d19565b82525050565b5f602082019050610d4c5f830184610d2a565b92915050565b5f63ffffffff82169050919050565b610d6a81610d52565b82525050565b5f602082019050610d835f830184610d61565b92915050565b5f819050919050565b610d9b81610d89565b82525050565b5f602082019050610db45f830184610d92565b92915050565b5f610dc482610c53565b9050919050565b610dd481610dba565b82525050565b5f602082019050610ded5f830184610dcb565b92915050565b5f82825260208201905092915050565b7f6e6f7420737461727421000000000000000000000000000000000000000000005f82015250565b5f610e37600a83610df3565b9150610e4282610e03565b602082019050919050565b5f6020820190508181035f830152610e6481610e2b565b9050919050565b7f62696420697320656e64656421000000000000000000000000000000000000005f82015250565b5f610e9f600d83610df3565b9150610eaa82610e6b565b602082019050919050565b5f6020820190508181035f830152610ecc81610e93565b9050919050565b7f76616c7565203c206869676865737442696400000000000000000000000000005f82015250565b5f610f07601283610df3565b9150610f1282610ed3565b602082019050919050565b5f6020820190508181035f830152610f3481610efb565b9050919050565b7f4e487b71000000000000000000000000000000000000000000000000000000005f52601160045260245ffd5b5f610f7282610d89565b9150610f7d83610d89565b9250828201905080821115610f9557610f94610f3b565b5b92915050565b7f6e6f742073656c6c6572000000000000000000000000000000000000000000005f82015250565b5f610fcf600a83610df3565b9150610fda82610f9b565b602082019050919050565b5f6020820190508181035f830152610ffc81610fc3565b9050919050565b7f68617320737461727465642100000000000000000000000000000000000000005f82015250565b5f611037600c83610df3565b915061104282611003565b602082019050919050565b5f6020820190508181035f8301526110648161102b565b9050919050565b5f61107582610d08565b9050919050565b6110858161106b565b82525050565b5f60608201905061109e5f83018661107c565b6110ab6020830185610dcb565b6110b86040830184610d92565b949350505050565b7f6e6f7420737461727400000000000000000000000000000000000000000000005f82015250565b5f6110f4600983610df3565b91506110ff826110c0565b602082019050919050565b5f6020820190508181035f830152611121816110e8565b9050919050565b7f68617320656e64656421000000000000000000000000000000000000000000005f82015250565b5f61115c600a83610df3565b915061116782611128565b602082019050919050565b5f6020820190508181035f83015261118981611150565b9050919050565b7f6e6f77203c3d20656e642074696d6521000000000000000000000000000000005f82015250565b5f6111c4601083610df3565b91506111cf82611190565b602082019050919050565b5f6020820190508181035f8301526111f1816111b8565b9050919050565b5f60608201905061120b5f830186610dcb565b6112186020830185610dcb565b6112256040830184610d92565b949350505050565b5f6060820190506112405f830186610dcb565b61124d602083018561107c565b61125a6040830184610d92565b949350505050565b5f6040820190506112755f830185610dcb565b6112826020830184610d92565b939250505056fea26469706673582212202f203eeab669e34895d92f2d61ca87ce579ee4c8182e8a41e4a212be79bd022964736f6c63430008170033",
					"opcodes": "PUSH1 0xE0 PUSH1 0x40 MSTORE CALLVALUE DUP1 ISZERO PUSH3 0x10 JUMPI PUSH0 DUP1 REVERT JUMPDEST POP PUSH1 0x40 MLOAD PUSH3 0x14DC CODESIZE SUB DUP1 PUSH3 0x14DC DUP4 CODECOPY DUP2 DUP2 ADD PUSH1 0x40 MSTORE DUP2 ADD SWAP1 PUSH3 0x36 SWAP2 SWAP1 PUSH3 0x153 JUMP JUMPDEST DUP3 PUSH20 0xFFFFFFFFFFFFFFFFFFFFFFFFFFFFFFFFFFFFFFFF AND PUSH1 0x80 DUP2 PUSH20 0xFFFFFFFFFFFFFFFFFFFFFFFFFFFFFFFFFFFFFFFF AND DUP2 MSTORE POP POP DUP2 PUSH1 0xA0 DUP2 DUP2 MSTORE POP POP CALLER PUSH20 0xFFFFFFFFFFFFFFFFFFFFFFFFFFFFFFFFFFFFFFFF AND PUSH1 0xC0 DUP2 PUSH20 0xFFFFFFFFFFFFFFFFFFFFFFFFFFFFFFFFFFFFFFFF AND DUP2 MSTORE POP POP DUP1 PUSH1 0x1 DUP2 SWAP1 SSTORE POP POP POP POP PUSH3 0x1AC JUMP JUMPDEST PUSH0 DUP1 REVERT JUMPDEST PUSH0 PUSH20 0xFFFFFFFFFFFFFFFFFFFFFFFFFFFFFFFFFFFFFFFF DUP3 AND SWAP1 POP SWAP2 SWAP1 POP JUMP JUMPDEST PUSH0 PUSH3 0xE5 DUP3 PUSH3 0xBA JUMP JUMPDEST SWAP1 POP SWAP2 SWAP1 POP JUMP JUMPDEST PUSH3 0xF7 DUP2 PUSH3 0xD9 JUMP JUMPDEST DUP2 EQ PUSH3 0x102 JUMPI PUSH0 DUP1 REVERT JUMPDEST POP JUMP JUMPDEST PUSH0 DUP2 MLOAD SWAP1 POP PUSH3 0x115 DUP2 PUSH3 0xEC JUMP JUMPDEST SWAP3 SWAP2 POP POP JUMP JUMPDEST PUSH0 DUP2 SWAP1 POP SWAP2 SWAP1 POP JUMP JUMPDEST PUSH3 0x12F DUP2 PUSH3 0x11B JUMP JUMPDEST DUP2 EQ PUSH3 0x13A JUMPI PUSH0 DUP1 REVERT JUMPDEST POP JUMP JUMPDEST PUSH0 DUP2 MLOAD SWAP1 POP PUSH3 0x14D DUP2 PUSH3 0x124 JUMP JUMPDEST SWAP3 SWAP2 POP POP JUMP JUMPDEST PUSH0 DUP1 PUSH0 PUSH1 0x60 DUP5 DUP7 SUB SLT ISZERO PUSH3 0x16D JUMPI PUSH3 0x16C PUSH3 0xB6 JUMP JUMPDEST JUMPDEST PUSH0 PUSH3 0x17C DUP7 DUP3 DUP8 ADD PUSH3 0x105 JUMP JUMPDEST SWAP4 POP POP PUSH1 0x20 PUSH3 0x18F DUP7 DUP3 DUP8 ADD PUSH3 0x13D JUMP JUMPDEST SWAP3 POP POP PUSH1 0x40 PUSH3 0x1A2 DUP7 DUP3 DUP8 ADD PUSH3 0x13D JUMP JUMPDEST SWAP2 POP POP SWAP3 POP SWAP3 POP SWAP3 JUMP JUMPDEST PUSH1 0x80 MLOAD PUSH1 0xA0 MLOAD PUSH1 0xC0 MLOAD PUSH2 0x12BF PUSH3 0x21D PUSH0 CODECOPY PUSH0 DUP2 DUP2 PUSH2 0x248 ADD MSTORE DUP2 DUP2 PUSH2 0x641 ADD MSTORE DUP2 DUP2 PUSH2 0x788 ADD MSTORE DUP2 DUP2 PUSH2 0xAC1 ADD MSTORE PUSH2 0xB69 ADD MSTORE PUSH0 DUP2 DUP2 PUSH2 0x7AA ADD MSTORE DUP2 DUP2 PUSH2 0x844 ADD MSTORE DUP2 DUP2 PUSH2 0xA55 ADD MSTORE PUSH2 0xB8A ADD MSTORE PUSH0 DUP2 DUP2 PUSH2 0x5F3 ADD MSTORE DUP2 DUP2 PUSH2 0x74C ADD MSTORE DUP2 DUP2 PUSH2 0x9F6 ADD MSTORE PUSH2 0xB2C ADD MSTORE PUSH2 0x12BF PUSH0 RETURN INVALID PUSH1 0x80 PUSH1 0x40 MSTORE PUSH1 0x4 CALLDATASIZE LT PUSH2 0xA6 JUMPI PUSH0 CALLDATALOAD PUSH1 0xE0 SHR DUP1 PUSH4 0x7CC3AE8C GT PUSH2 0x63 JUMPI DUP1 PUSH4 0x7CC3AE8C EQ PUSH2 0x172 JUMPI DUP1 PUSH4 0xBE9A6555 EQ PUSH2 0x19C JUMPI DUP1 PUSH4 0xC6BC5182 EQ PUSH2 0x1B2 JUMPI DUP1 PUSH4 0xC6CF27DA EQ PUSH2 0x1DC JUMPI DUP1 PUSH4 0xD57BDE79 EQ PUSH2 0x206 JUMPI DUP1 PUSH4 0xEFBE1C1C EQ PUSH2 0x230 JUMPI PUSH2 0xA6 JUMP JUMPDEST DUP1 PUSH4 0x8551A53 EQ PUSH2 0xAA JUMPI DUP1 PUSH4 0x12FA6FEB EQ PUSH2 0xD4 JUMPI DUP1 PUSH4 0x1998AEEF EQ PUSH2 0xFE JUMPI DUP1 PUSH4 0x1F2698AB EQ PUSH2 0x108 JUMPI DUP1 PUSH4 0x3CCFD60B EQ PUSH2 0x132 JUMPI DUP1 PUSH4 0x47CCCA02 EQ PUSH2 0x148 JUMPI JUMPDEST PUSH0 DUP1 REVERT JUMPDEST CALLVALUE DUP1 ISZERO PUSH2 0xB5 JUMPI PUSH0 DUP1 REVERT JUMPDEST POP PUSH2 0xBE PUSH2 0x246 JUMP JUMPDEST PUSH1 0x40 MLOAD PUSH2 0xCB SWAP2 SWAP1 PUSH2 0xC92 JUMP JUMPDEST PUSH1 0x40 MLOAD DUP1 SWAP2 SUB SWAP1 RETURN JUMPDEST CALLVALUE DUP1 ISZERO PUSH2 0xDF JUMPI PUSH0 DUP1 REVERT JUMPDEST POP PUSH2 0xE8 PUSH2 0x26A JUMP JUMPDEST PUSH1 0x40 MLOAD PUSH2 0xF5 SWAP2 SWAP1 PUSH2 0xCC5 JUMP JUMPDEST PUSH1 0x40 MLOAD DUP1 SWAP2 SUB SWAP1 RETURN JUMPDEST PUSH2 0x106 PUSH2 0x27C JUMP JUMPDEST STOP JUMPDEST CALLVALUE DUP1 ISZERO PUSH2 0x113 JUMPI PUSH0 DUP1 REVERT JUMPDEST POP PUSH2 0x11C PUSH2 0x4C7 JUMP JUMPDEST PUSH1 0x40 MLOAD PUSH2 0x129 SWAP2 SWAP1 PUSH2 0xCC5 JUMP JUMPDEST PUSH1 0x40 MLOAD DUP1 SWAP2 SUB SWAP1 RETURN JUMPDEST CALLVALUE DUP1 ISZERO PUSH2 0x13D JUMPI PUSH0 DUP1 REVERT JUMPDEST POP PUSH2 0x146 PUSH2 0x4D9 JUMP JUMPDEST STOP JUMPDEST CALLVALUE DUP1 ISZERO PUSH2 0x153 JUMPI PUSH0 DUP1 REVERT JUMPDEST POP PUSH2 0x15C PUSH2 0x5F1 JUMP JUMPDEST PUSH1 0x40 MLOAD PUSH2 0x169 SWAP2 SWAP1 PUSH2 0xD39 JUMP JUMPDEST PUSH1 0x40 MLOAD DUP1 SWAP2 SUB SWAP1 RETURN JUMPDEST CALLVALUE DUP1 ISZERO PUSH2 0x17D JUMPI PUSH0 DUP1 REVERT JUMPDEST POP PUSH2 0x186 PUSH2 0x615 JUMP JUMPDEST PUSH1 0x40 MLOAD PUSH2 0x193 SWAP2 SWAP1 PUSH2 0xD70 JUMP JUMPDEST PUSH1 0x40 MLOAD DUP1 SWAP2 SUB SWAP1 RETURN JUMPDEST CALLVALUE DUP1 ISZERO PUSH2 0x1A7 JUMPI PUSH0 DUP1 REVERT JUMPDEST POP PUSH2 0x1B0 PUSH2 0x628 JUMP JUMPDEST STOP JUMPDEST CALLVALUE DUP1 ISZERO PUSH2 0x1BD JUMPI PUSH0 DUP1 REVERT JUMPDEST POP PUSH2 0x1C6 PUSH2 0x842 JUMP JUMPDEST PUSH1 0x40 MLOAD PUSH2 0x1D3 SWAP2 SWAP1 PUSH2 0xDA1 JUMP JUMPDEST PUSH1 0x40 MLOAD DUP1 SWAP2 SUB SWAP1 RETURN JUMPDEST CALLVALUE DUP1 ISZERO PUSH2 0x1E7 JUMPI PUSH0 DUP1 REVERT JUMPDEST POP PUSH2 0x1F0 PUSH2 0x866 JUMP JUMPDEST PUSH1 0x40 MLOAD PUSH2 0x1FD SWAP2 SWAP1 PUSH2 0xDDA JUMP JUMPDEST PUSH1 0x40 MLOAD DUP1 SWAP2 SUB SWAP1 RETURN JUMPDEST CALLVALUE DUP1 ISZERO PUSH2 0x211 JUMPI PUSH0 DUP1 REVERT JUMPDEST POP PUSH2 0x21A PUSH2 0x88B JUMP JUMPDEST PUSH1 0x40 MLOAD PUSH2 0x227 SWAP2 SWAP1 PUSH2 0xDA1 JUMP JUMPDEST PUSH1 0x40 MLOAD DUP1 SWAP2 SUB SWAP1 RETURN JUMPDEST CALLVALUE DUP1 ISZERO PUSH2 0x23B JUMPI PUSH0 DUP1 REVERT JUMPDEST POP PUSH2 0x244 PUSH2 0x891 JUMP JUMPDEST STOP JUMPDEST PUSH32 0x0 DUP2 JUMP JUMPDEST PUSH0 PUSH1 0x5 SWAP1 SLOAD SWAP1 PUSH2 0x100 EXP SWAP1 DIV PUSH1 0xFF AND DUP2 JUMP JUMPDEST PUSH0 PUSH1 0x4 SWAP1 SLOAD SWAP1 PUSH2 0x100 EXP SWAP1 DIV PUSH1 0xFF AND PUSH2 0x2CA JUMPI PUSH1 0x40 MLOAD PUSH32 0x8C379A000000000000000000000000000000000000000000000000000000000 DUP2 MSTORE PUSH1 0x4 ADD PUSH2 0x2C1 SWAP1 PUSH2 0xE4D JUMP JUMPDEST PUSH1 0x40 MLOAD DUP1 SWAP2 SUB SWAP1 REVERT JUMPDEST PUSH0 DUP1 SLOAD SWAP1 PUSH2 0x100 EXP SWAP1 DIV PUSH4 0xFFFFFFFF AND PUSH4 0xFFFFFFFF AND TIMESTAMP LT PUSH2 0x321 JUMPI PUSH1 0x40 MLOAD PUSH32 0x8C379A000000000000000000000000000000000000000000000000000000000 DUP2 MSTORE PUSH1 0x4 ADD PUSH2 0x318 SWAP1 PUSH2 0xEB5 JUMP JUMPDEST PUSH1 0x40 MLOAD DUP1 SWAP2 SUB SWAP1 REVERT JUMPDEST PUSH1 0x1 SLOAD CALLVALUE GT PUSH2 0x365 JUMPI PUSH1 0x40 MLOAD PUSH32 0x8C379A000000000000000000000000000000000000000000000000000000000 DUP2 MSTORE PUSH1 0x4 ADD PUSH2 0x35C SWAP1 PUSH2 0xF1D JUMP JUMPDEST PUSH1 0x40 MLOAD DUP1 SWAP2 SUB SWAP1 REVERT JUMPDEST PUSH0 PUSH20 0xFFFFFFFFFFFFFFFFFFFFFFFFFFFFFFFFFFFFFFFF AND PUSH0 PUSH1 0x6 SWAP1 SLOAD SWAP1 PUSH2 0x100 EXP SWAP1 DIV PUSH20 0xFFFFFFFFFFFFFFFFFFFFFFFFFFFFFFFFFFFFFFFF AND PUSH20 0xFFFFFFFFFFFFFFFFFFFFFFFFFFFFFFFFFFFFFFFF AND EQ PUSH2 0x430 JUMPI PUSH1 0x1 SLOAD PUSH1 0x2 PUSH0 DUP1 PUSH1 0x6 SWAP1 SLOAD SWAP1 PUSH2 0x100 EXP SWAP1 DIV PUSH20 0xFFFFFFFFFFFFFFFFFFFFFFFFFFFFFFFFFFFFFFFF AND PUSH20 0xFFFFFFFFFFFFFFFFFFFFFFFFFFFFFFFFFFFFFFFF AND PUSH20 0xFFFFFFFFFFFFFFFFFFFFFFFFFFFFFFFFFFFFFFFF AND DUP2 MSTORE PUSH1 0x20 ADD SWAP1 DUP2 MSTORE PUSH1 0x20 ADD PUSH0 KECCAK256 PUSH0 DUP3 DUP3 SLOAD PUSH2 0x428 SWAP2 SWAP1 PUSH2 0xF68 JUMP JUMPDEST SWAP3 POP POP DUP2 SWAP1 SSTORE POP JUMPDEST CALLVALUE PUSH1 0x1 DUP2 SWAP1 SSTORE POP CALLER PUSH0 PUSH1 0x6 PUSH2 0x100 EXP DUP2 SLOAD DUP2 PUSH20 0xFFFFFFFFFFFFFFFFFFFFFFFFFFFFFFFFFFFFFFFF MUL NOT AND SWAP1 DUP4 PUSH20 0xFFFFFFFFFFFFFFFFFFFFFFFFFFFFFFFFFFFFFFFF AND MUL OR SWAP1 SSTORE POP CALLER PUSH20 0xFFFFFFFFFFFFFFFFFFFFFFFFFFFFFFFFFFFFFFFF AND PUSH32 0xE684A55F31B79ECA403DF938249029212A5925EC6BE8012E099B45BC1019E5D2 CALLVALUE PUSH1 0x40 MLOAD PUSH2 0x4BD SWAP2 SWAP1 PUSH2 0xDA1 JUMP JUMPDEST PUSH1 0x40 MLOAD DUP1 SWAP2 SUB SWAP1 LOG2 JUMP JUMPDEST PUSH0 PUSH1 0x4 SWAP1 SLOAD SWAP1 PUSH2 0x100 EXP SWAP1 DIV PUSH1 0xFF AND DUP2 JUMP JUMPDEST PUSH0 PUSH1 0x2 PUSH0 CALLER PUSH20 0xFFFFFFFFFFFFFFFFFFFFFFFFFFFFFFFFFFFFFFFF AND PUSH20 0xFFFFFFFFFFFFFFFFFFFFFFFFFFFFFFFFFFFFFFFF AND DUP2 MSTORE PUSH1 0x20 ADD SWAP1 DUP2 MSTORE PUSH1 0x20 ADD PUSH0 KECCAK256 SLOAD SWAP1 POP PUSH0 PUSH1 0x2 PUSH0 CALLER PUSH20 0xFFFFFFFFFFFFFFFFFFFFFFFFFFFFFFFFFFFFFFFF AND PUSH20 0xFFFFFFFFFFFFFFFFFFFFFFFFFFFFFFFFFFFFFFFF AND DUP2 MSTORE PUSH1 0x20 ADD SWAP1 DUP2 MSTORE PUSH1 0x20 ADD PUSH0 KECCAK256 DUP2 SWAP1 SSTORE POP CALLER PUSH20 0xFFFFFFFFFFFFFFFFFFFFFFFFFFFFFFFFFFFFFFFF AND PUSH2 0x8FC DUP3 SWAP1 DUP2 ISZERO MUL SWAP1 PUSH1 0x40 MLOAD PUSH0 PUSH1 0x40 MLOAD DUP1 DUP4 SUB DUP2 DUP6 DUP9 DUP9 CALL SWAP4 POP POP POP POP ISZERO DUP1 ISZERO PUSH2 0x59F JUMPI RETURNDATASIZE PUSH0 DUP1 RETURNDATACOPY RETURNDATASIZE PUSH0 REVERT JUMPDEST POP CALLER PUSH20 0xFFFFFFFFFFFFFFFFFFFFFFFFFFFFFFFFFFFFFFFF AND PUSH32 0x884EDAD9CE6FA2440D8A54CC123490EB96D2768479D49FF9C7366125A9424364 DUP3 PUSH1 0x40 MLOAD PUSH2 0x5E6 SWAP2 SWAP1 PUSH2 0xDA1 JUMP JUMPDEST PUSH1 0x40 MLOAD DUP1 SWAP2 SUB SWAP1 LOG2 POP JUMP JUMPDEST PUSH32 0x0 DUP2 JUMP JUMPDEST PUSH0 DUP1 SLOAD SWAP1 PUSH2 0x100 EXP SWAP1 DIV PUSH4 0xFFFFFFFF AND DUP2 JUMP JUMPDEST CALLER PUSH20 0xFFFFFFFFFFFFFFFFFFFFFFFFFFFFFFFFFFFFFFFF AND PUSH32 0x0 PUSH20 0xFFFFFFFFFFFFFFFFFFFFFFFFFFFFFFFFFFFFFFFF AND EQ PUSH2 0x6B6 JUMPI PUSH1 0x40 MLOAD PUSH32 0x8C379A000000000000000000000000000000000000000000000000000000000 DUP2 MSTORE PUSH1 0x4 ADD PUSH2 0x6AD SWAP1 PUSH2 0xFE5 JUMP JUMPDEST PUSH1 0x40 MLOAD DUP1 SWAP2 SUB SWAP1 REVERT JUMPDEST PUSH0 PUSH1 0x4 SWAP1 SLOAD SWAP1 PUSH2 0x100 EXP SWAP1 DIV PUSH1 0xFF AND ISZERO PUSH2 0x705 JUMPI PUSH1 0x40 MLOAD PUSH32 0x8C379A000000000000000000000000000000000000000000000000000000000 DUP2 MSTORE PUSH1 0x4 ADD PUSH2 0x6FC SWAP1 PUSH2 0x104D JUMP JUMPDEST PUSH1 0x40 MLOAD DUP1 SWAP2 SUB SWAP1 REVERT JUMPDEST PUSH1 0x1 PUSH0 PUSH1 0x4 PUSH2 0x100 EXP DUP2 SLOAD DUP2 PUSH1 0xFF MUL NOT AND SWAP1 DUP4 ISZERO ISZERO MUL OR SWAP1 SSTORE POP PUSH1 0x78 TIMESTAMP PUSH2 0x72C SWAP2 SWAP1 PUSH2 0xF68 JUMP JUMPDEST PUSH0 DUP1 PUSH2 0x100 EXP DUP2 SLOAD DUP2 PUSH4 0xFFFFFFFF MUL NOT AND SWAP1 DUP4 PUSH4 0xFFFFFFFF AND MUL OR SWAP1 SSTORE POP PUSH32 0x0 PUSH20 0xFFFFFFFFFFFFFFFFFFFFFFFFFFFFFFFFFFFFFFFF AND PUSH4 0x23B872DD PUSH32 0x0 ADDRESS PUSH32 0x0 PUSH1 0x40 MLOAD DUP5 PUSH4 0xFFFFFFFF AND PUSH1 0xE0 SHL DUP2 MSTORE PUSH1 0x4 ADD PUSH2 0x7E7 SWAP4 SWAP3 SWAP2 SWAP1 PUSH2 0x108B JUMP JUMPDEST PUSH0 PUSH1 0x40 MLOAD DUP1 DUP4 SUB DUP2 PUSH0 DUP8 DUP1 EXTCODESIZE ISZERO DUP1 ISZERO PUSH2 0x7FE JUMPI PUSH0 DUP1 REVERT JUMPDEST POP GAS CALL ISZERO DUP1 ISZERO PUSH2 0x810 JUMPI RETURNDATASIZE PUSH0 DUP1 RETURNDATACOPY RETURNDATASIZE PUSH0 REVERT JUMPDEST POP POP POP POP PUSH32 0x1B55BA3AA851A46BE3B365AEE5B5C140EDD620D578922F3E8466D2CBD96F954B PUSH1 0x40 MLOAD PUSH1 0x40 MLOAD DUP1 SWAP2 SUB SWAP1 LOG1 JUMP JUMPDEST PUSH32 0x0 DUP2 JUMP JUMPDEST PUSH0 PUSH1 0x6 SWAP1 SLOAD SWAP1 PUSH2 0x100 EXP SWAP1 DIV PUSH20 0xFFFFFFFFFFFFFFFFFFFFFFFFFFFFFFFFFFFFFFFF AND DUP2 JUMP JUMPDEST PUSH1 0x1 SLOAD DUP2 JUMP JUMPDEST PUSH0 PUSH1 0x4 SWAP1 SLOAD SWAP1 PUSH2 0x100 EXP SWAP1 DIV PUSH1 0xFF AND PUSH2 0x8DF JUMPI PUSH1 0x40 MLOAD PUSH32 0x8C379A000000000000000000000000000000000000000000000000000000000 DUP2 MSTORE PUSH1 0x4 ADD PUSH2 0x8D6 SWAP1 PUSH2 0x110A JUMP JUMPDEST PUSH1 0x40 MLOAD DUP1 SWAP2 SUB SWAP1 REVERT JUMPDEST PUSH0 PUSH1 0x5 SWAP1 SLOAD SWAP1 PUSH2 0x100 EXP SWAP1 DIV PUSH1 0xFF AND ISZERO PUSH2 0x92E JUMPI PUSH1 0x40 MLOAD PUSH32 0x8C379A000000000000000000000000000000000000000000000000000000000 DUP2 MSTORE PUSH1 0x4 ADD PUSH2 0x925 SWAP1 PUSH2 0x1172 JUMP JUMPDEST PUSH1 0x40 MLOAD DUP1 SWAP2 SUB SWAP1 REVERT JUMPDEST PUSH0 DUP1 SLOAD SWAP1 PUSH2 0x100 EXP SWAP1 DIV PUSH4 0xFFFFFFFF AND PUSH4 0xFFFFFFFF AND TIMESTAMP LT ISZERO PUSH2 0x986 JUMPI PUSH1 0x40 MLOAD PUSH32 0x8C379A000000000000000000000000000000000000000000000000000000000 DUP2 MSTORE PUSH1 0x4 ADD PUSH2 0x97D SWAP1 PUSH2 0x11DA JUMP JUMPDEST PUSH1 0x40 MLOAD DUP1 SWAP2 SUB SWAP1 REVERT JUMPDEST PUSH1 0x1 PUSH0 PUSH1 0x5 PUSH2 0x100 EXP DUP2 SLOAD DUP2 PUSH1 0xFF MUL NOT AND SWAP1 DUP4 ISZERO ISZERO MUL OR SWAP1 SSTORE POP PUSH0 PUSH20 0xFFFFFFFFFFFFFFFFFFFFFFFFFFFFFFFFFFFFFFFF AND PUSH0 PUSH1 0x6 SWAP1 SLOAD SWAP1 PUSH2 0x100 EXP SWAP1 DIV PUSH20 0xFFFFFFFFFFFFFFFFFFFFFFFFFFFFFFFFFFFFFFFF AND PUSH20 0xFFFFFFFFFFFFFFFFFFFFFFFFFFFFFFFFFFFFFFFF AND EQ PUSH2 0xB2A JUMPI PUSH32 0x0 PUSH20 0xFFFFFFFFFFFFFFFFFFFFFFFFFFFFFFFFFFFFFFFF AND PUSH4 0x23B872DD ADDRESS PUSH0 PUSH1 0x6 SWAP1 SLOAD SWAP1 PUSH2 0x100 EXP SWAP1 DIV PUSH20 0xFFFFFFFFFFFFFFFFFFFFFFFFFFFFFFFFFFFFFFFF AND PUSH32 0x0 PUSH1 0x40 MLOAD DUP5 PUSH4 0xFFFFFFFF AND PUSH1 0xE0 SHL DUP2 MSTORE PUSH1 0x4 ADD PUSH2 0xA92 SWAP4 SWAP3 SWAP2 SWAP1 PUSH2 0x11F8 JUMP JUMPDEST PUSH0 PUSH1 0x40 MLOAD DUP1 DUP4 SUB DUP2 PUSH0 DUP8 DUP1 EXTCODESIZE ISZERO DUP1 ISZERO PUSH2 0xAA9 JUMPI PUSH0 DUP1 REVERT JUMPDEST POP GAS CALL ISZERO DUP1 ISZERO PUSH2 0xABB JUMPI RETURNDATASIZE PUSH0 DUP1 RETURNDATACOPY RETURNDATASIZE PUSH0 REVERT JUMPDEST POP POP POP POP PUSH32 0x0 PUSH20 0xFFFFFFFFFFFFFFFFFFFFFFFFFFFFFFFFFFFFFFFF AND PUSH2 0x8FC PUSH1 0x1 SLOAD SWAP1 DUP2 ISZERO MUL SWAP1 PUSH1 0x40 MLOAD PUSH0 PUSH1 0x40 MLOAD DUP1 DUP4 SUB DUP2 DUP6 DUP9 DUP9 CALL SWAP4 POP POP POP POP ISZERO DUP1 ISZERO PUSH2 0xB24 JUMPI RETURNDATASIZE PUSH0 DUP1 RETURNDATACOPY RETURNDATASIZE PUSH0 REVERT JUMPDEST POP PUSH2 0xBF5 JUMP JUMPDEST PUSH32 0x0 PUSH20 0xFFFFFFFFFFFFFFFFFFFFFFFFFFFFFFFFFFFFFFFF AND PUSH4 0x23B872DD ADDRESS PUSH32 0x0 PUSH32 0x0 PUSH1 0x40 MLOAD DUP5 PUSH4 0xFFFFFFFF AND PUSH1 0xE0 SHL DUP2 MSTORE PUSH1 0x4 ADD PUSH2 0xBC7 SWAP4 SWAP3 SWAP2 SWAP1 PUSH2 0x122D JUMP JUMPDEST PUSH0 PUSH1 0x40 MLOAD DUP1 DUP4 SUB DUP2 PUSH0 DUP8 DUP1 EXTCODESIZE ISZERO DUP1 ISZERO PUSH2 0xBDE JUMPI PUSH0 DUP1 REVERT JUMPDEST POP GAS CALL ISZERO DUP1 ISZERO PUSH2 0xBF0 JUMPI RETURNDATASIZE PUSH0 DUP1 RETURNDATACOPY RETURNDATASIZE PUSH0 REVERT JUMPDEST POP POP POP POP JUMPDEST PUSH32 0x7D7570B046E5EAD3A4F3FBC9FA2445113625A1E79823776146316BAFED6B8CC5 PUSH0 PUSH1 0x6 SWAP1 SLOAD SWAP1 PUSH2 0x100 EXP SWAP1 DIV PUSH20 0xFFFFFFFFFFFFFFFFFFFFFFFFFFFFFFFFFFFFFFFF AND PUSH1 0x1 SLOAD PUSH1 0x40 MLOAD PUSH2 0xC49 SWAP3 SWAP2 SWAP1 PUSH2 0x1262 JUMP JUMPDEST PUSH1 0x40 MLOAD DUP1 SWAP2 SUB SWAP1 LOG1 JUMP JUMPDEST PUSH0 PUSH20 0xFFFFFFFFFFFFFFFFFFFFFFFFFFFFFFFFFFFFFFFF DUP3 AND SWAP1 POP SWAP2 SWAP1 POP JUMP JUMPDEST PUSH0 PUSH2 0xC7C DUP3 PUSH2 0xC53 JUMP JUMPDEST SWAP1 POP SWAP2 SWAP1 POP JUMP JUMPDEST PUSH2 0xC8C DUP2 PUSH2 0xC72 JUMP JUMPDEST DUP3 MSTORE POP POP JUMP JUMPDEST PUSH0 PUSH1 0x20 DUP3 ADD SWAP1 POP PUSH2 0xCA5 PUSH0 DUP4 ADD DUP5 PUSH2 0xC83 JUMP JUMPDEST SWAP3 SWAP2 POP POP JUMP JUMPDEST PUSH0 DUP2 ISZERO ISZERO SWAP1 POP SWAP2 SWAP1 POP JUMP JUMPDEST PUSH2 0xCBF DUP2 PUSH2 0xCAB JUMP JUMPDEST DUP3 MSTORE POP POP JUMP JUMPDEST PUSH0 PUSH1 0x20 DUP3 ADD SWAP1 POP PUSH2 0xCD8 PUSH0 DUP4 ADD DUP5 PUSH2 0xCB6 JUMP JUMPDEST SWAP3 SWAP2 POP POP JUMP JUMPDEST PUSH0 DUP2 SWAP1 POP SWAP2 SWAP1 POP JUMP JUMPDEST PUSH0 PUSH2 0xD01 PUSH2 0xCFC PUSH2 0xCF7 DUP5 PUSH2 0xC53 JUMP JUMPDEST PUSH2 0xCDE JUMP JUMPDEST PUSH2 0xC53 JUMP JUMPDEST SWAP1 POP SWAP2 SWAP1 POP JUMP JUMPDEST PUSH0 PUSH2 0xD12 DUP3 PUSH2 0xCE7 JUMP JUMPDEST SWAP1 POP SWAP2 SWAP1 POP JUMP JUMPDEST PUSH0 PUSH2 0xD23 DUP3 PUSH2 0xD08 JUMP JUMPDEST SWAP1 POP SWAP2 SWAP1 POP JUMP JUMPDEST PUSH2 0xD33 DUP2 PUSH2 0xD19 JUMP JUMPDEST DUP3 MSTORE POP POP JUMP JUMPDEST PUSH0 PUSH1 0x20 DUP3 ADD SWAP1 POP PUSH2 0xD4C PUSH0 DUP4 ADD DUP5 PUSH2 0xD2A JUMP JUMPDEST SWAP3 SWAP2 POP POP JUMP JUMPDEST PUSH0 PUSH4 0xFFFFFFFF DUP3 AND SWAP1 POP SWAP2 SWAP1 POP JUMP JUMPDEST PUSH2 0xD6A DUP2 PUSH2 0xD52 JUMP JUMPDEST DUP3 MSTORE POP POP JUMP JUMPDEST PUSH0 PUSH1 0x20 DUP3 ADD SWAP1 POP PUSH2 0xD83 PUSH0 DUP4 ADD DUP5 PUSH2 0xD61 JUMP JUMPDEST SWAP3 SWAP2 POP POP JUMP JUMPDEST PUSH0 DUP2 SWAP1 POP SWAP2 SWAP1 POP JUMP JUMPDEST PUSH2 0xD9B DUP2 PUSH2 0xD89 JUMP JUMPDEST DUP3 MSTORE POP POP JUMP JUMPDEST PUSH0 PUSH1 0x20 DUP3 ADD SWAP1 POP PUSH2 0xDB4 PUSH0 DUP4 ADD DUP5 PUSH2 0xD92 JUMP JUMPDEST SWAP3 SWAP2 POP POP JUMP JUMPDEST PUSH0 PUSH2 0xDC4 DUP3 PUSH2 0xC53 JUMP JUMPDEST SWAP1 POP SWAP2 SWAP1 POP JUMP JUMPDEST PUSH2 0xDD4 DUP2 PUSH2 0xDBA JUMP JUMPDEST DUP3 MSTORE POP POP JUMP JUMPDEST PUSH0 PUSH1 0x20 DUP3 ADD SWAP1 POP PUSH2 0xDED PUSH0 DUP4 ADD DUP5 PUSH2 0xDCB JUMP JUMPDEST SWAP3 SWAP2 POP POP JUMP JUMPDEST PUSH0 DUP3 DUP3 MSTORE PUSH1 0x20 DUP3 ADD SWAP1 POP SWAP3 SWAP2 POP POP JUMP JUMPDEST PUSH32 0x6E6F742073746172742100000000000000000000000000000000000000000000 PUSH0 DUP3 ADD MSTORE POP JUMP JUMPDEST PUSH0 PUSH2 0xE37 PUSH1 0xA DUP4 PUSH2 0xDF3 JUMP JUMPDEST SWAP2 POP PUSH2 0xE42 DUP3 PUSH2 0xE03 JUMP JUMPDEST PUSH1 0x20 DUP3 ADD SWAP1 POP SWAP2 SWAP1 POP JUMP JUMPDEST PUSH0 PUSH1 0x20 DUP3 ADD SWAP1 POP DUP2 DUP2 SUB PUSH0 DUP4 ADD MSTORE PUSH2 0xE64 DUP2 PUSH2 0xE2B JUMP JUMPDEST SWAP1 POP SWAP2 SWAP1 POP JUMP JUMPDEST PUSH32 0x62696420697320656E6465642100000000000000000000000000000000000000 PUSH0 DUP3 ADD MSTORE POP JUMP JUMPDEST PUSH0 PUSH2 0xE9F PUSH1 0xD DUP4 PUSH2 0xDF3 JUMP JUMPDEST SWAP2 POP PUSH2 0xEAA DUP3 PUSH2 0xE6B JUMP JUMPDEST PUSH1 0x20 DUP3 ADD SWAP1 POP SWAP2 SWAP1 POP JUMP JUMPDEST PUSH0 PUSH1 0x20 DUP3 ADD SWAP1 POP DUP2 DUP2 SUB PUSH0 DUP4 ADD MSTORE PUSH2 0xECC DUP2 PUSH2 0xE93 JUMP JUMPDEST SWAP1 POP SWAP2 SWAP1 POP JUMP JUMPDEST PUSH32 0x76616C7565203C20686967686573744269640000000000000000000000000000 PUSH0 DUP3 ADD MSTORE POP JUMP JUMPDEST PUSH0 PUSH2 0xF07 PUSH1 0x12 DUP4 PUSH2 0xDF3 JUMP JUMPDEST SWAP2 POP PUSH2 0xF12 DUP3 PUSH2 0xED3 JUMP JUMPDEST PUSH1 0x20 DUP3 ADD SWAP1 POP SWAP2 SWAP1 POP JUMP JUMPDEST PUSH0 PUSH1 0x20 DUP3 ADD SWAP1 POP DUP2 DUP2 SUB PUSH0 DUP4 ADD MSTORE PUSH2 0xF34 DUP2 PUSH2 0xEFB JUMP JUMPDEST SWAP1 POP SWAP2 SWAP1 POP JUMP JUMPDEST PUSH32 0x4E487B7100000000000000000000000000000000000000000000000000000000 PUSH0 MSTORE PUSH1 0x11 PUSH1 0x4 MSTORE PUSH1 0x24 PUSH0 REVERT JUMPDEST PUSH0 PUSH2 0xF72 DUP3 PUSH2 0xD89 JUMP JUMPDEST SWAP2 POP PUSH2 0xF7D DUP4 PUSH2 0xD89 JUMP JUMPDEST SWAP3 POP DUP3 DUP3 ADD SWAP1 POP DUP1 DUP3 GT ISZERO PUSH2 0xF95 JUMPI PUSH2 0xF94 PUSH2 0xF3B JUMP JUMPDEST JUMPDEST SWAP3 SWAP2 POP POP JUMP JUMPDEST PUSH32 0x6E6F742073656C6C657200000000000000000000000000000000000000000000 PUSH0 DUP3 ADD MSTORE POP JUMP JUMPDEST PUSH0 PUSH2 0xFCF PUSH1 0xA DUP4 PUSH2 0xDF3 JUMP JUMPDEST SWAP2 POP PUSH2 0xFDA DUP3 PUSH2 0xF9B JUMP JUMPDEST PUSH1 0x20 DUP3 ADD SWAP1 POP SWAP2 SWAP1 POP JUMP JUMPDEST PUSH0 PUSH1 0x20 DUP3 ADD SWAP1 POP DUP2 DUP2 SUB PUSH0 DUP4 ADD MSTORE PUSH2 0xFFC DUP2 PUSH2 0xFC3 JUMP JUMPDEST SWAP1 POP SWAP2 SWAP1 POP JUMP JUMPDEST PUSH32 0x6861732073746172746564210000000000000000000000000000000000000000 PUSH0 DUP3 ADD MSTORE POP JUMP JUMPDEST PUSH0 PUSH2 0x1037 PUSH1 0xC DUP4 PUSH2 0xDF3 JUMP JUMPDEST SWAP2 POP PUSH2 0x1042 DUP3 PUSH2 0x1003 JUMP JUMPDEST PUSH1 0x20 DUP3 ADD SWAP1 POP SWAP2 SWAP1 POP JUMP JUMPDEST PUSH0 PUSH1 0x20 DUP3 ADD SWAP1 POP DUP2 DUP2 SUB PUSH0 DUP4 ADD MSTORE PUSH2 0x1064 DUP2 PUSH2 0x102B JUMP JUMPDEST SWAP1 POP SWAP2 SWAP1 POP JUMP JUMPDEST PUSH0 PUSH2 0x1075 DUP3 PUSH2 0xD08 JUMP JUMPDEST SWAP1 POP SWAP2 SWAP1 POP JUMP JUMPDEST PUSH2 0x1085 DUP2 PUSH2 0x106B JUMP JUMPDEST DUP3 MSTORE POP POP JUMP JUMPDEST PUSH0 PUSH1 0x60 DUP3 ADD SWAP1 POP PUSH2 0x109E PUSH0 DUP4 ADD DUP7 PUSH2 0x107C JUMP JUMPDEST PUSH2 0x10AB PUSH1 0x20 DUP4 ADD DUP6 PUSH2 0xDCB JUMP JUMPDEST PUSH2 0x10B8 PUSH1 0x40 DUP4 ADD DUP5 PUSH2 0xD92 JUMP JUMPDEST SWAP5 SWAP4 POP POP POP POP JUMP JUMPDEST PUSH32 0x6E6F742073746172740000000000000000000000000000000000000000000000 PUSH0 DUP3 ADD MSTORE POP JUMP JUMPDEST PUSH0 PUSH2 0x10F4 PUSH1 0x9 DUP4 PUSH2 0xDF3 JUMP JUMPDEST SWAP2 POP PUSH2 0x10FF DUP3 PUSH2 0x10C0 JUMP JUMPDEST PUSH1 0x20 DUP3 ADD SWAP1 POP SWAP2 SWAP1 POP JUMP JUMPDEST PUSH0 PUSH1 0x20 DUP3 ADD SWAP1 POP DUP2 DUP2 SUB PUSH0 DUP4 ADD MSTORE PUSH2 0x1121 DUP2 PUSH2 0x10E8 JUMP JUMPDEST SWAP1 POP SWAP2 SWAP1 POP JUMP JUMPDEST PUSH32 0x68617320656E6465642100000000000000000000000000000000000000000000 PUSH0 DUP3 ADD MSTORE POP JUMP JUMPDEST PUSH0 PUSH2 0x115C PUSH1 0xA DUP4 PUSH2 0xDF3 JUMP JUMPDEST SWAP2 POP PUSH2 0x1167 DUP3 PUSH2 0x1128 JUMP JUMPDEST PUSH1 0x20 DUP3 ADD SWAP1 POP SWAP2 SWAP1 POP JUMP JUMPDEST PUSH0 PUSH1 0x20 DUP3 ADD SWAP1 POP DUP2 DUP2 SUB PUSH0 DUP4 ADD MSTORE PUSH2 0x1189 DUP2 PUSH2 0x1150 JUMP JUMPDEST SWAP1 POP SWAP2 SWAP1 POP JUMP JUMPDEST PUSH32 0x6E6F77203C3D20656E642074696D652100000000000000000000000000000000 PUSH0 DUP3 ADD MSTORE POP JUMP JUMPDEST PUSH0 PUSH2 0x11C4 PUSH1 0x10 DUP4 PUSH2 0xDF3 JUMP JUMPDEST SWAP2 POP PUSH2 0x11CF DUP3 PUSH2 0x1190 JUMP JUMPDEST PUSH1 0x20 DUP3 ADD SWAP1 POP SWAP2 SWAP1 POP JUMP JUMPDEST PUSH0 PUSH1 0x20 DUP3 ADD SWAP1 POP DUP2 DUP2 SUB PUSH0 DUP4 ADD MSTORE PUSH2 0x11F1 DUP2 PUSH2 0x11B8 JUMP JUMPDEST SWAP1 POP SWAP2 SWAP1 POP JUMP JUMPDEST PUSH0 PUSH1 0x60 DUP3 ADD SWAP1 POP PUSH2 0x120B PUSH0 DUP4 ADD DUP7 PUSH2 0xDCB JUMP JUMPDEST PUSH2 0x1218 PUSH1 0x20 DUP4 ADD DUP6 PUSH2 0xDCB JUMP JUMPDEST PUSH2 0x1225 PUSH1 0x40 DUP4 ADD DUP5 PUSH2 0xD92 JUMP JUMPDEST SWAP5 SWAP4 POP POP POP POP JUMP JUMPDEST PUSH0 PUSH1 0x60 DUP3 ADD SWAP1 POP PUSH2 0x1240 PUSH0 DUP4 ADD DUP7 PUSH2 0xDCB JUMP JUMPDEST PUSH2 0x124D PUSH1 0x20 DUP4 ADD DUP6 PUSH2 0x107C JUMP JUMPDEST PUSH2 0x125A PUSH1 0x40 DUP4 ADD DUP5 PUSH2 0xD92 JUMP JUMPDEST SWAP5 SWAP4 POP POP POP POP JUMP JUMPDEST PUSH0 PUSH1 0x40 DUP3 ADD SWAP1 POP PUSH2 0x1275 PUSH0 DUP4 ADD DUP6 PUSH2 0xDCB JUMP JUMPDEST PUSH2 0x1282 PUSH1 0x20 DUP4 ADD DUP5 PUSH2 0xD92 JUMP JUMPDEST SWAP4 SWAP3 POP POP POP JUMP INVALID LOG2 PUSH5 0x6970667358 0x22 SLT KECCAK256 0x2F KECCAK256 RETURNDATACOPY 0xEA 0xB6 PUSH10 0xE34895D92F2D61CA87CE JUMPI SWAP15 0xE4 0xC8 XOR 0x2E DUP11 COINBASE 0xE4 LOG2 SLT 0xBE PUSH26 0xBD022964736F6C63430008170033000000000000000000000000 "
				},
				"gasEstimates": {
					"creation": {
						"codeDepositCost": "959800",
						"executionCost": "infinite",
						"totalCost": "infinite"
					},
					"external": {
						"bid()": "infinite",
						"end()": "infinite",
						"endAt()": "2463",
						"ended()": "2539",
						"highestBid()": "2513",
						"hightestBidder()": "2624",
						"nft()": "infinite",
						"nftId()": "infinite",
						"seller()": "infinite",
						"start()": "infinite",
						"started()": "2583",
						"withdraw()": "infinite"
					}
				},
				"methodIdentifiers": {
					"bid()": "1998aeef",
					"end()": "efbe1c1c",
					"endAt()": "7cc3ae8c",
					"ended()": "12fa6feb",
					"highestBid()": "d57bde79",
					"hightestBidder()": "c6cf27da",
					"nft()": "47ccca02",
					"nftId()": "c6bc5182",
					"seller()": "08551a53",
					"start()": "be9a6555",
					"started()": "1f2698ab",
					"withdraw()": "3ccfd60b"
				}
			},
			"storageLayout": {
				"storage": [
					{
						"astId": 40,
						"contract": "055EnglishAuction.sol:EnglishAuction",
						"label": "endAt",
						"offset": 0,
						"slot": "0",
						"type": "t_uint32"
					},
					{
						"astId": 42,
						"contract": "055EnglishAuction.sol:EnglishAuction",
						"label": "started",
						"offset": 4,
						"slot": "0",
						"type": "t_bool"
					},
					{
						"astId": 44,
						"contract": "055EnglishAuction.sol:EnglishAuction",
						"label": "ended",
						"offset": 5,
						"slot": "0",
						"type": "t_bool"
					},
					{
						"astId": 46,
						"contract": "055EnglishAuction.sol:EnglishAuction",
						"label": "hightestBidder",
						"offset": 6,
						"slot": "0",
						"type": "t_address"
					},
					{
						"astId": 48,
						"contract": "055EnglishAuction.sol:EnglishAuction",
						"label": "highestBid",
						"offset": 0,
						"slot": "1",
						"type": "t_uint256"
					},
					{
						"astId": 52,
						"contract": "055EnglishAuction.sol:EnglishAuction",
						"label": "bidPrices",
						"offset": 0,
						"slot": "2",
						"type": "t_mapping(t_address,t_uint256)"
					}
				],
				"types": {
					"t_address": {
						"encoding": "inplace",
						"label": "address",
						"numberOfBytes": "20"
					},
					"t_bool": {
						"encoding": "inplace",
						"label": "bool",
						"numberOfBytes": "1"
					},
					"t_mapping(t_address,t_uint256)": {
						"encoding": "mapping",
						"key": "t_address",
						"label": "mapping(address => uint256)",
						"numberOfBytes": "32",
						"value": "t_uint256"
					},
					"t_uint256": {
						"encoding": "inplace",
						"label": "uint256",
						"numberOfBytes": "32"
					},
					"t_uint32": {
						"encoding": "inplace",
						"label": "uint32",
						"numberOfBytes": "4"
					}
				}
			},
			"userdoc": {
				"kind": "user",
				"methods": {},
				"version": 1
			}
		}
	}
}