{
	"073BitwiseOps.sol": {
		"BitwiseOps": {
			"abi": [
				{
					"inputs": [
						{
							"internalType": "uint256",
							"name": "x",
							"type": "uint256"
						},
						{
							"internalType": "uint256",
							"name": "y",
							"type": "uint256"
						}
					],
					"name": "add",
					"outputs": [
						{
							"internalType": "uint256",
							"name": "",
							"type": "uint256"
						}
					],
					"stateMutability": "pure",
					"type": "function"
				},
				{
					"inputs": [
						{
							"internalType": "uint256",
							"name": "x",
							"type": "uint256"
						},
						{
							"internalType": "uint256",
							"name": "n",
							"type": "uint256"
						}
					],
					"name": "getLastNBitUsingMod",
					"outputs": [
						{
							"internalType": "uint256",
							"name": "",
							"type": "uint256"
						}
					],
					"stateMutability": "pure",
					"type": "function"
				},
				{
					"inputs": [
						{
							"internalType": "uint256",
							"name": "x",
							"type": "uint256"
						},
						{
							"internalType": "uint256",
							"name": "n",
							"type": "uint256"
						}
					],
					"name": "getLastNBits",
					"outputs": [
						{
							"internalType": "uint256",
							"name": "",
							"type": "uint256"
						}
					],
					"stateMutability": "pure",
					"type": "function"
				},
				{
					"inputs": [
						{
							"internalType": "uint8",
							"name": "x",
							"type": "uint8"
						}
					],
					"name": "not",
					"outputs": [
						{
							"internalType": "uint256",
							"name": "",
							"type": "uint256"
						}
					],
					"stateMutability": "pure",
					"type": "function"
				},
				{
					"inputs": [
						{
							"internalType": "uint256",
							"name": "x",
							"type": "uint256"
						},
						{
							"internalType": "uint256",
							"name": "y",
							"type": "uint256"
						}
					],
					"name": "or",
					"outputs": [
						{
							"internalType": "uint256",
							"name": "",
							"type": "uint256"
						}
					],
					"stateMutability": "pure",
					"type": "function"
				},
				{
					"inputs": [
						{
							"internalType": "uint256",
							"name": "x",
							"type": "uint256"
						},
						{
							"internalType": "uint256",
							"name": "bits",
							"type": "uint256"
						}
					],
					"name": "shiftLeft",
					"outputs": [
						{
							"internalType": "uint256",
							"name": "",
							"type": "uint256"
						}
					],
					"stateMutability": "pure",
					"type": "function"
				},
				{
					"inputs": [
						{
							"internalType": "uint256",
							"name": "x",
							"type": "uint256"
						},
						{
							"internalType": "uint256",
							"name": "bits",
							"type": "uint256"
						}
					],
					"name": "shiftRight",
					"outputs": [
						{
							"internalType": "uint256",
							"name": "",
							"type": "uint256"
						}
					],
					"stateMutability": "pure",
					"type": "function"
				},
				{
					"inputs": [
						{
							"internalType": "uint256",
							"name": "x",
							"type": "uint256"
						},
						{
							"internalType": "uint256",
							"name": "y",
							"type": "uint256"
						}
					],
					"name": "xor",
					"outputs": [
						{
							"internalType": "uint256",
							"name": "",
							"type": "uint256"
						}
					],
					"stateMutability": "pure",
					"type": "function"
				}
			],
			"devdoc": {
				"kind": "dev",
				"methods": {},
				"version": 1
			},
			"evm": {
				"assembly": "    /* \"073BitwiseOps.sol\":58:2024  contract BitwiseOps{... */\n  mstore(0x40, 0x80)\n  callvalue\n  dup1\n  iszero\n  tag_1\n  jumpi\n  0x00\n  dup1\n  revert\ntag_1:\n  pop\n  dataSize(sub_0)\n  dup1\n  dataOffset(sub_0)\n  0x00\n  codecopy\n  0x00\n  return\nstop\n\nsub_0: assembly {\n        /* \"073BitwiseOps.sol\":58:2024  contract BitwiseOps{... */\n      mstore(0x40, 0x80)\n      callvalue\n      dup1\n      iszero\n      tag_1\n      jumpi\n      0x00\n      dup1\n      revert\n    tag_1:\n      pop\n      jumpi(tag_2, lt(calldatasize, 0x04))\n      shr(0xe0, calldataload(0x00))\n      dup1\n      0x771602f7\n      gt\n      tag_11\n      jumpi\n      dup1\n      0x771602f7\n      eq\n      tag_7\n      jumpi\n      dup1\n      0x9ed41ba1\n      eq\n      tag_8\n      jumpi\n      dup1\n      0xa589d212\n      eq\n      tag_9\n      jumpi\n      dup1\n      0xdf0ff104\n      eq\n      tag_10\n      jumpi\n      jump(tag_2)\n    tag_11:\n      dup1\n      0x097c2cb2\n      eq\n      tag_3\n      jumpi\n      dup1\n      0x1180f8c3\n      eq\n      tag_4\n      jumpi\n      dup1\n      0x1685fa98\n      eq\n      tag_5\n      jumpi\n      dup1\n      0x21a95296\n      eq\n      tag_6\n      jumpi\n    tag_2:\n      0x00\n      dup1\n      revert\n        /* \"073BitwiseOps.sol\":428:486  function or(uint x, uint y) external pure returns(uint ){} */\n    tag_3:\n      tag_12\n      0x04\n      dup1\n      calldatasize\n      sub\n      dup2\n      add\n      swap1\n      tag_13\n      swap2\n      swap1\n      tag_14\n      jump\t// in\n    tag_13:\n      tag_15\n      jump\t// in\n    tag_12:\n      mload(0x40)\n      tag_16\n      swap2\n      swap1\n      tag_17\n      jump\t// in\n    tag_16:\n      mload(0x40)\n      dup1\n      swap2\n      sub\n      swap1\n      return\n        /* \"073BitwiseOps.sol\":684:948  function not(uint8 x) external pure returns(uint ){... */\n    tag_4:\n      tag_18\n      0x04\n      dup1\n      calldatasize\n      sub\n      dup2\n      add\n      swap1\n      tag_19\n      swap2\n      swap1\n      tag_20\n      jump\t// in\n    tag_19:\n      tag_21\n      jump\t// in\n    tag_18:\n      mload(0x40)\n      tag_22\n      swap2\n      swap1\n      tag_17\n      jump\t// in\n    tag_22:\n      mload(0x40)\n      dup1\n      swap2\n      sub\n      swap1\n      return\n        /* \"073BitwiseOps.sol\":1153:1304  function shiftRight(uint x, uint bits) external pure returns(uint ){... */\n    tag_5:\n      tag_23\n      0x04\n      dup1\n      calldatasize\n      sub\n      dup2\n      add\n      swap1\n      tag_24\n      swap2\n      swap1\n      tag_14\n      jump\t// in\n    tag_24:\n      tag_25\n      jump\t// in\n    tag_23:\n      mload(0x40)\n      tag_26\n      swap2\n      swap1\n      tag_17\n      jump\t// in\n    tag_26:\n      mload(0x40)\n      dup1\n      swap2\n      sub\n      swap1\n      return\n        /* \"073BitwiseOps.sol\":1311:1856  function getLastNBits(uint x, uint n)external pure returns (uint ){... */\n    tag_6:\n      tag_27\n      0x04\n      dup1\n      calldatasize\n      sub\n      dup2\n      add\n      swap1\n      tag_28\n      swap2\n      swap1\n      tag_14\n      jump\t// in\n    tag_28:\n      tag_29\n      jump\t// in\n    tag_27:\n      mload(0x40)\n      tag_30\n      swap2\n      swap1\n      tag_17\n      jump\t// in\n    tag_30:\n      mload(0x40)\n      dup1\n      swap2\n      sub\n      swap1\n      return\n        /* \"073BitwiseOps.sol\":100:406  function add(uint x, uint y) external pure returns(uint ){... */\n    tag_7:\n      tag_31\n      0x04\n      dup1\n      calldatasize\n      sub\n      dup2\n      add\n      swap1\n      tag_32\n      swap2\n      swap1\n      tag_14\n      jump\t// in\n    tag_32:\n      tag_33\n      jump\t// in\n    tag_31:\n      mload(0x40)\n      tag_34\n      swap2\n      swap1\n      tag_17\n      jump\t// in\n    tag_34:\n      mload(0x40)\n      dup1\n      swap2\n      sub\n      swap1\n      return\n        /* \"073BitwiseOps.sol\":511:662  function xor(uint x, uint y) external pure returns(uint ){... */\n    tag_8:\n      tag_35\n      0x04\n      dup1\n      calldatasize\n      sub\n      dup2\n      add\n      swap1\n      tag_36\n      swap2\n      swap1\n      tag_14\n      jump\t// in\n    tag_36:\n      tag_37\n      jump\t// in\n    tag_35:\n      mload(0x40)\n      tag_38\n      swap2\n      swap1\n      tag_17\n      jump\t// in\n    tag_38:\n      mload(0x40)\n      dup1\n      swap2\n      sub\n      swap1\n      return\n        /* \"073BitwiseOps.sol\":976:1125  function shiftLeft(uint x, uint bits) external pure returns(uint ){... */\n    tag_9:\n      tag_39\n      0x04\n      dup1\n      calldatasize\n      sub\n      dup2\n      add\n      swap1\n      tag_40\n      swap2\n      swap1\n      tag_14\n      jump\t// in\n    tag_40:\n      tag_41\n      jump\t// in\n    tag_39:\n      mload(0x40)\n      tag_42\n      swap2\n      swap1\n      tag_17\n      jump\t// in\n    tag_42:\n      mload(0x40)\n      dup1\n      swap2\n      sub\n      swap1\n      return\n        /* \"073BitwiseOps.sol\":1875:2021  function getLastNBitUsingMod(uint x, uint n) external pure returns(uint){... */\n    tag_10:\n      tag_43\n      0x04\n      dup1\n      calldatasize\n      sub\n      dup2\n      add\n      swap1\n      tag_44\n      swap2\n      swap1\n      tag_14\n      jump\t// in\n    tag_44:\n      tag_45\n      jump\t// in\n    tag_43:\n      mload(0x40)\n      tag_46\n      swap2\n      swap1\n      tag_17\n      jump\t// in\n    tag_46:\n      mload(0x40)\n      dup1\n      swap2\n      sub\n      swap1\n      return\n        /* \"073BitwiseOps.sol\":428:486  function or(uint x, uint y) external pure returns(uint ){} */\n    tag_15:\n        /* \"073BitwiseOps.sol\":478:482  uint */\n      0x00\n        /* \"073BitwiseOps.sol\":428:486  function or(uint x, uint y) external pure returns(uint ){} */\n      swap3\n      swap2\n      pop\n      pop\n      jump\t// out\n        /* \"073BitwiseOps.sol\":684:948  function not(uint8 x) external pure returns(uint ){... */\n    tag_21:\n        /* \"073BitwiseOps.sol\":728:732  uint */\n      0x00\n        /* \"073BitwiseOps.sol\":940:941  x */\n      dup2\n        /* \"073BitwiseOps.sol\":939:941  ~x */\n      not\n        /* \"073BitwiseOps.sol\":932:941  return ~x */\n      0xff\n      and\n      swap1\n      pop\n        /* \"073BitwiseOps.sol\":684:948  function not(uint8 x) external pure returns(uint ){... */\n      swap2\n      swap1\n      pop\n      jump\t// out\n        /* \"073BitwiseOps.sol\":1153:1304  function shiftRight(uint x, uint bits) external pure returns(uint ){... */\n    tag_25:\n        /* \"073BitwiseOps.sol\":1214:1218  uint */\n      0x00\n        /* \"073BitwiseOps.sol\":1293:1297  bits */\n      dup2\n        /* \"073BitwiseOps.sol\":1289:1290  x */\n      dup4\n        /* \"073BitwiseOps.sol\":1289:1297  x >>bits */\n      swap1\n      shr\n        /* \"073BitwiseOps.sol\":1282:1297  return x >>bits */\n      swap1\n      pop\n        /* \"073BitwiseOps.sol\":1153:1304  function shiftRight(uint x, uint bits) external pure returns(uint ){... */\n      swap3\n      swap2\n      pop\n      pop\n      jump\t// out\n        /* \"073BitwiseOps.sol\":1311:1856  function getLastNBits(uint x, uint n)external pure returns (uint ){... */\n    tag_29:\n        /* \"073BitwiseOps.sol\":1371:1375  uint */\n      0x00\n        /* \"073BitwiseOps.sol\":1801:1810  uint mask */\n      dup1\n        /* \"073BitwiseOps.sol\":1823:1824  1 */\n      0x01\n        /* \"073BitwiseOps.sol\":1819:1820  n */\n      dup4\n        /* \"073BitwiseOps.sol\":1814:1815  1 */\n      0x01\n        /* \"073BitwiseOps.sol\":1814:1820  1 << n */\n      swap1\n      shl\n        /* \"073BitwiseOps.sol\":1813:1824  (1 << n) -1 */\n      tag_51\n      swap2\n      swap1\n      tag_52\n      jump\t// in\n    tag_51:\n        /* \"073BitwiseOps.sol\":1801:1824  uint mask = (1 << n) -1 */\n      swap1\n      pop\n        /* \"073BitwiseOps.sol\":1845:1849  mask */\n      dup1\n        /* \"073BitwiseOps.sol\":1841:1842  x */\n      dup5\n        /* \"073BitwiseOps.sol\":1841:1849  x & mask */\n      and\n        /* \"073BitwiseOps.sol\":1834:1849  return x & mask */\n      swap2\n      pop\n      pop\n        /* \"073BitwiseOps.sol\":1311:1856  function getLastNBits(uint x, uint n)external pure returns (uint ){... */\n      swap3\n      swap2\n      pop\n      pop\n      jump\t// out\n        /* \"073BitwiseOps.sol\":100:406  function add(uint x, uint y) external pure returns(uint ){... */\n    tag_33:\n        /* \"073BitwiseOps.sol\":151:155  uint */\n      0x00\n        /* \"073BitwiseOps.sol\":398:399  y */\n      dup2\n        /* \"073BitwiseOps.sol\":393:394  x */\n      dup4\n        /* \"073BitwiseOps.sol\":393:399  x  & y */\n      and\n        /* \"073BitwiseOps.sol\":386:399  return x  & y */\n      swap1\n      pop\n        /* \"073BitwiseOps.sol\":100:406  function add(uint x, uint y) external pure returns(uint ){... */\n      swap3\n      swap2\n      pop\n      pop\n      jump\t// out\n        /* \"073BitwiseOps.sol\":511:662  function xor(uint x, uint y) external pure returns(uint ){... */\n    tag_37:\n        /* \"073BitwiseOps.sol\":562:566  uint */\n      0x00\n        /* \"073BitwiseOps.sol\":654:655  y */\n      dup2\n        /* \"073BitwiseOps.sol\":650:651  x */\n      dup4\n        /* \"073BitwiseOps.sol\":650:655  x ^ y */\n      xor\n        /* \"073BitwiseOps.sol\":643:655  return x ^ y */\n      swap1\n      pop\n        /* \"073BitwiseOps.sol\":511:662  function xor(uint x, uint y) external pure returns(uint ){... */\n      swap3\n      swap2\n      pop\n      pop\n      jump\t// out\n        /* \"073BitwiseOps.sol\":976:1125  function shiftLeft(uint x, uint bits) external pure returns(uint ){... */\n    tag_41:\n        /* \"073BitwiseOps.sol\":1036:1040  uint */\n      0x00\n        /* \"073BitwiseOps.sol\":1114:1118  bits */\n      dup2\n        /* \"073BitwiseOps.sol\":1109:1110  x */\n      dup4\n        /* \"073BitwiseOps.sol\":1109:1118  x << bits */\n      swap1\n      shl\n        /* \"073BitwiseOps.sol\":1102:1118  return x << bits */\n      swap1\n      pop\n        /* \"073BitwiseOps.sol\":976:1125  function shiftLeft(uint x, uint bits) external pure returns(uint ){... */\n      swap3\n      swap2\n      pop\n      pop\n      jump\t// out\n        /* \"073BitwiseOps.sol\":1875:2021  function getLastNBitUsingMod(uint x, uint n) external pure returns(uint){... */\n    tag_45:\n        /* \"073BitwiseOps.sol\":1942:1946  uint */\n      0x00\n        /* \"073BitwiseOps.sol\":2004:2005  n */\n      dup2\n        /* \"073BitwiseOps.sol\":1999:2000  1 */\n      0x01\n        /* \"073BitwiseOps.sol\":1999:2005  1 << n */\n      swap1\n      shl\n        /* \"073BitwiseOps.sol\":1994:1995  x */\n      dup4\n        /* \"073BitwiseOps.sol\":1994:2006  x % (1 << n) */\n      tag_57\n      swap2\n      swap1\n      tag_58\n      jump\t// in\n    tag_57:\n        /* \"073BitwiseOps.sol\":1987:2006  return x % (1 << n) */\n      swap1\n      pop\n        /* \"073BitwiseOps.sol\":1875:2021  function getLastNBitUsingMod(uint x, uint n) external pure returns(uint){... */\n      swap3\n      swap2\n      pop\n      pop\n      jump\t// out\n        /* \"#utility.yul\":88:205   */\n    tag_60:\n        /* \"#utility.yul\":197:198   */\n      0x00\n        /* \"#utility.yul\":194:195   */\n      dup1\n        /* \"#utility.yul\":187:199   */\n      revert\n        /* \"#utility.yul\":334:411   */\n    tag_62:\n        /* \"#utility.yul\":371:378   */\n      0x00\n        /* \"#utility.yul\":400:405   */\n      dup2\n        /* \"#utility.yul\":389:405   */\n      swap1\n      pop\n        /* \"#utility.yul\":334:411   */\n      swap2\n      swap1\n      pop\n      jump\t// out\n        /* \"#utility.yul\":417:539   */\n    tag_63:\n        /* \"#utility.yul\":490:514   */\n      tag_77\n        /* \"#utility.yul\":508:513   */\n      dup2\n        /* \"#utility.yul\":490:514   */\n      tag_62\n      jump\t// in\n    tag_77:\n        /* \"#utility.yul\":483:488   */\n      dup2\n        /* \"#utility.yul\":480:515   */\n      eq\n        /* \"#utility.yul\":470:533   */\n      tag_78\n      jumpi\n        /* \"#utility.yul\":529:530   */\n      0x00\n        /* \"#utility.yul\":526:527   */\n      dup1\n        /* \"#utility.yul\":519:531   */\n      revert\n        /* \"#utility.yul\":470:533   */\n    tag_78:\n        /* \"#utility.yul\":417:539   */\n      pop\n      jump\t// out\n        /* \"#utility.yul\":545:684   */\n    tag_64:\n        /* \"#utility.yul\":591:596   */\n      0x00\n        /* \"#utility.yul\":629:635   */\n      dup2\n        /* \"#utility.yul\":616:636   */\n      calldataload\n        /* \"#utility.yul\":607:636   */\n      swap1\n      pop\n        /* \"#utility.yul\":645:678   */\n      tag_80\n        /* \"#utility.yul\":672:677   */\n      dup2\n        /* \"#utility.yul\":645:678   */\n      tag_63\n      jump\t// in\n    tag_80:\n        /* \"#utility.yul\":545:684   */\n      swap3\n      swap2\n      pop\n      pop\n      jump\t// out\n        /* \"#utility.yul\":690:1164   */\n    tag_14:\n        /* \"#utility.yul\":758:764   */\n      0x00\n        /* \"#utility.yul\":766:772   */\n      dup1\n        /* \"#utility.yul\":815:817   */\n      0x40\n        /* \"#utility.yul\":803:812   */\n      dup4\n        /* \"#utility.yul\":794:801   */\n      dup6\n        /* \"#utility.yul\":790:813   */\n      sub\n        /* \"#utility.yul\":786:818   */\n      slt\n        /* \"#utility.yul\":783:902   */\n      iszero\n      tag_82\n      jumpi\n        /* \"#utility.yul\":821:900   */\n      tag_83\n      tag_60\n      jump\t// in\n    tag_83:\n        /* \"#utility.yul\":783:902   */\n    tag_82:\n        /* \"#utility.yul\":941:942   */\n      0x00\n        /* \"#utility.yul\":966:1019   */\n      tag_84\n        /* \"#utility.yul\":1011:1018   */\n      dup6\n        /* \"#utility.yul\":1002:1008   */\n      dup3\n        /* \"#utility.yul\":991:1000   */\n      dup7\n        /* \"#utility.yul\":987:1009   */\n      add\n        /* \"#utility.yul\":966:1019   */\n      tag_64\n      jump\t// in\n    tag_84:\n        /* \"#utility.yul\":956:1019   */\n      swap3\n      pop\n        /* \"#utility.yul\":912:1029   */\n      pop\n        /* \"#utility.yul\":1068:1070   */\n      0x20\n        /* \"#utility.yul\":1094:1147   */\n      tag_85\n        /* \"#utility.yul\":1139:1146   */\n      dup6\n        /* \"#utility.yul\":1130:1136   */\n      dup3\n        /* \"#utility.yul\":1119:1128   */\n      dup7\n        /* \"#utility.yul\":1115:1137   */\n      add\n        /* \"#utility.yul\":1094:1147   */\n      tag_64\n      jump\t// in\n    tag_85:\n        /* \"#utility.yul\":1084:1147   */\n      swap2\n      pop\n        /* \"#utility.yul\":1039:1157   */\n      pop\n        /* \"#utility.yul\":690:1164   */\n      swap3\n      pop\n      swap3\n      swap1\n      pop\n      jump\t// out\n        /* \"#utility.yul\":1170:1288   */\n    tag_65:\n        /* \"#utility.yul\":1257:1281   */\n      tag_87\n        /* \"#utility.yul\":1275:1280   */\n      dup2\n        /* \"#utility.yul\":1257:1281   */\n      tag_62\n      jump\t// in\n    tag_87:\n        /* \"#utility.yul\":1252:1255   */\n      dup3\n        /* \"#utility.yul\":1245:1282   */\n      mstore\n        /* \"#utility.yul\":1170:1288   */\n      pop\n      pop\n      jump\t// out\n        /* \"#utility.yul\":1294:1516   */\n    tag_17:\n        /* \"#utility.yul\":1387:1391   */\n      0x00\n        /* \"#utility.yul\":1425:1427   */\n      0x20\n        /* \"#utility.yul\":1414:1423   */\n      dup3\n        /* \"#utility.yul\":1410:1428   */\n      add\n        /* \"#utility.yul\":1402:1428   */\n      swap1\n      pop\n        /* \"#utility.yul\":1438:1509   */\n      tag_89\n        /* \"#utility.yul\":1506:1507   */\n      0x00\n        /* \"#utility.yul\":1495:1504   */\n      dup4\n        /* \"#utility.yul\":1491:1508   */\n      add\n        /* \"#utility.yul\":1482:1488   */\n      dup5\n        /* \"#utility.yul\":1438:1509   */\n      tag_65\n      jump\t// in\n    tag_89:\n        /* \"#utility.yul\":1294:1516   */\n      swap3\n      swap2\n      pop\n      pop\n      jump\t// out\n        /* \"#utility.yul\":1522:1608   */\n    tag_66:\n        /* \"#utility.yul\":1557:1564   */\n      0x00\n        /* \"#utility.yul\":1597:1601   */\n      0xff\n        /* \"#utility.yul\":1590:1595   */\n      dup3\n        /* \"#utility.yul\":1586:1602   */\n      and\n        /* \"#utility.yul\":1575:1602   */\n      swap1\n      pop\n        /* \"#utility.yul\":1522:1608   */\n      swap2\n      swap1\n      pop\n      jump\t// out\n        /* \"#utility.yul\":1614:1732   */\n    tag_67:\n        /* \"#utility.yul\":1685:1707   */\n      tag_92\n        /* \"#utility.yul\":1701:1706   */\n      dup2\n        /* \"#utility.yul\":1685:1707   */\n      tag_66\n      jump\t// in\n    tag_92:\n        /* \"#utility.yul\":1678:1683   */\n      dup2\n        /* \"#utility.yul\":1675:1708   */\n      eq\n        /* \"#utility.yul\":1665:1726   */\n      tag_93\n      jumpi\n        /* \"#utility.yul\":1722:1723   */\n      0x00\n        /* \"#utility.yul\":1719:1720   */\n      dup1\n        /* \"#utility.yul\":1712:1724   */\n      revert\n        /* \"#utility.yul\":1665:1726   */\n    tag_93:\n        /* \"#utility.yul\":1614:1732   */\n      pop\n      jump\t// out\n        /* \"#utility.yul\":1738:1873   */\n    tag_68:\n        /* \"#utility.yul\":1782:1787   */\n      0x00\n        /* \"#utility.yul\":1820:1826   */\n      dup2\n        /* \"#utility.yul\":1807:1827   */\n      calldataload\n        /* \"#utility.yul\":1798:1827   */\n      swap1\n      pop\n        /* \"#utility.yul\":1836:1867   */\n      tag_95\n        /* \"#utility.yul\":1861:1866   */\n      dup2\n        /* \"#utility.yul\":1836:1867   */\n      tag_67\n      jump\t// in\n    tag_95:\n        /* \"#utility.yul\":1738:1873   */\n      swap3\n      swap2\n      pop\n      pop\n      jump\t// out\n        /* \"#utility.yul\":1879:2204   */\n    tag_20:\n        /* \"#utility.yul\":1936:1942   */\n      0x00\n        /* \"#utility.yul\":1985:1987   */\n      0x20\n        /* \"#utility.yul\":1973:1982   */\n      dup3\n        /* \"#utility.yul\":1964:1971   */\n      dup5\n        /* \"#utility.yul\":1960:1983   */\n      sub\n        /* \"#utility.yul\":1956:1988   */\n      slt\n        /* \"#utility.yul\":1953:2072   */\n      iszero\n      tag_97\n      jumpi\n        /* \"#utility.yul\":1991:2070   */\n      tag_98\n      tag_60\n      jump\t// in\n    tag_98:\n        /* \"#utility.yul\":1953:2072   */\n    tag_97:\n        /* \"#utility.yul\":2111:2112   */\n      0x00\n        /* \"#utility.yul\":2136:2187   */\n      tag_99\n        /* \"#utility.yul\":2179:2186   */\n      dup5\n        /* \"#utility.yul\":2170:2176   */\n      dup3\n        /* \"#utility.yul\":2159:2168   */\n      dup6\n        /* \"#utility.yul\":2155:2177   */\n      add\n        /* \"#utility.yul\":2136:2187   */\n      tag_68\n      jump\t// in\n    tag_99:\n        /* \"#utility.yul\":2126:2187   */\n      swap2\n      pop\n        /* \"#utility.yul\":2082:2197   */\n      pop\n        /* \"#utility.yul\":1879:2204   */\n      swap3\n      swap2\n      pop\n      pop\n      jump\t// out\n        /* \"#utility.yul\":2210:2390   */\n    tag_69:\n        /* \"#utility.yul\":2258:2335   */\n      0x4e487b7100000000000000000000000000000000000000000000000000000000\n        /* \"#utility.yul\":2255:2256   */\n      0x00\n        /* \"#utility.yul\":2248:2336   */\n      mstore\n        /* \"#utility.yul\":2355:2359   */\n      0x11\n        /* \"#utility.yul\":2352:2353   */\n      0x04\n        /* \"#utility.yul\":2345:2360   */\n      mstore\n        /* \"#utility.yul\":2379:2383   */\n      0x24\n        /* \"#utility.yul\":2376:2377   */\n      0x00\n        /* \"#utility.yul\":2369:2384   */\n      revert\n        /* \"#utility.yul\":2396:2590   */\n    tag_52:\n        /* \"#utility.yul\":2436:2440   */\n      0x00\n        /* \"#utility.yul\":2456:2476   */\n      tag_102\n        /* \"#utility.yul\":2474:2475   */\n      dup3\n        /* \"#utility.yul\":2456:2476   */\n      tag_62\n      jump\t// in\n    tag_102:\n        /* \"#utility.yul\":2451:2476   */\n      swap2\n      pop\n        /* \"#utility.yul\":2490:2510   */\n      tag_103\n        /* \"#utility.yul\":2508:2509   */\n      dup4\n        /* \"#utility.yul\":2490:2510   */\n      tag_62\n      jump\t// in\n    tag_103:\n        /* \"#utility.yul\":2485:2510   */\n      swap3\n      pop\n        /* \"#utility.yul\":2534:2535   */\n      dup3\n        /* \"#utility.yul\":2531:2532   */\n      dup3\n        /* \"#utility.yul\":2527:2536   */\n      sub\n        /* \"#utility.yul\":2519:2536   */\n      swap1\n      pop\n        /* \"#utility.yul\":2558:2559   */\n      dup2\n        /* \"#utility.yul\":2552:2556   */\n      dup2\n        /* \"#utility.yul\":2549:2560   */\n      gt\n        /* \"#utility.yul\":2546:2583   */\n      iszero\n      tag_104\n      jumpi\n        /* \"#utility.yul\":2563:2581   */\n      tag_105\n      tag_69\n      jump\t// in\n    tag_105:\n        /* \"#utility.yul\":2546:2583   */\n    tag_104:\n        /* \"#utility.yul\":2396:2590   */\n      swap3\n      swap2\n      pop\n      pop\n      jump\t// out\n        /* \"#utility.yul\":2596:2776   */\n    tag_70:\n        /* \"#utility.yul\":2644:2721   */\n      0x4e487b7100000000000000000000000000000000000000000000000000000000\n        /* \"#utility.yul\":2641:2642   */\n      0x00\n        /* \"#utility.yul\":2634:2722   */\n      mstore\n        /* \"#utility.yul\":2741:2745   */\n      0x12\n        /* \"#utility.yul\":2738:2739   */\n      0x04\n        /* \"#utility.yul\":2731:2746   */\n      mstore\n        /* \"#utility.yul\":2765:2769   */\n      0x24\n        /* \"#utility.yul\":2762:2763   */\n      0x00\n        /* \"#utility.yul\":2755:2770   */\n      revert\n        /* \"#utility.yul\":2782:2958   */\n    tag_58:\n        /* \"#utility.yul\":2814:2815   */\n      0x00\n        /* \"#utility.yul\":2831:2851   */\n      tag_108\n        /* \"#utility.yul\":2849:2850   */\n      dup3\n        /* \"#utility.yul\":2831:2851   */\n      tag_62\n      jump\t// in\n    tag_108:\n        /* \"#utility.yul\":2826:2851   */\n      swap2\n      pop\n        /* \"#utility.yul\":2865:2885   */\n      tag_109\n        /* \"#utility.yul\":2883:2884   */\n      dup4\n        /* \"#utility.yul\":2865:2885   */\n      tag_62\n      jump\t// in\n    tag_109:\n        /* \"#utility.yul\":2860:2885   */\n      swap3\n      pop\n        /* \"#utility.yul\":2904:2905   */\n      dup3\n        /* \"#utility.yul\":2894:2929   */\n      tag_110\n      jumpi\n        /* \"#utility.yul\":2909:2927   */\n      tag_111\n      tag_70\n      jump\t// in\n    tag_111:\n        /* \"#utility.yul\":2894:2929   */\n    tag_110:\n        /* \"#utility.yul\":2950:2951   */\n      dup3\n        /* \"#utility.yul\":2947:2948   */\n      dup3\n        /* \"#utility.yul\":2943:2952   */\n      mod\n        /* \"#utility.yul\":2938:2952   */\n      swap1\n      pop\n        /* \"#utility.yul\":2782:2958   */\n      swap3\n      swap2\n      pop\n      pop\n      jump\t// out\n\n    auxdata: 0xa26469706673582212208eca0ec7619e6cc59c3bb177592b731951336d7b7d3f540cc9fbf47b771fc09d64736f6c63430008180033\n}\n",
				"bytecode": {
					"linkReferences": {},
					"object": "608060405234801561000f575f80fd5b5061047b8061001d5f395ff3fe608060405234801561000f575f80fd5b5060043610610086575f3560e01c8063771602f711610059578063771602f71461014a5780639ed41ba11461017a578063a589d212146101aa578063df0ff104146101da57610086565b8063097c2cb21461008a5780631180f8c3146100ba5780631685fa98146100ea57806321a952961461011a575b5f80fd5b6100a4600480360381019061009f91906102c1565b61020a565b6040516100b1919061030e565b60405180910390f35b6100d460048036038101906100cf919061035d565b610211565b6040516100e1919061030e565b60405180910390f35b61010460048036038101906100ff91906102c1565b61021e565b604051610111919061030e565b60405180910390f35b610134600480360381019061012f91906102c1565b61022b565b604051610141919061030e565b60405180910390f35b610164600480360381019061015f91906102c1565b61024c565b604051610171919061030e565b60405180910390f35b610194600480360381019061018f91906102c1565b610258565b6040516101a1919061030e565b60405180910390f35b6101c460048036038101906101bf91906102c1565b610264565b6040516101d1919061030e565b60405180910390f35b6101f460048036038101906101ef91906102c1565b610271565b604051610201919061030e565b60405180910390f35b5f92915050565b5f811960ff169050919050565b5f8183901c905092915050565b5f806001836001901b61023e91906103b5565b905080841691505092915050565b5f818316905092915050565b5f818318905092915050565b5f8183901b905092915050565b5f816001901b836102829190610415565b905092915050565b5f80fd5b5f819050919050565b6102a08161028e565b81146102aa575f80fd5b50565b5f813590506102bb81610297565b92915050565b5f80604083850312156102d7576102d661028a565b5b5f6102e4858286016102ad565b92505060206102f5858286016102ad565b9150509250929050565b6103088161028e565b82525050565b5f6020820190506103215f8301846102ff565b92915050565b5f60ff82169050919050565b61033c81610327565b8114610346575f80fd5b50565b5f8135905061035781610333565b92915050565b5f602082840312156103725761037161028a565b5b5f61037f84828501610349565b91505092915050565b7f4e487b71000000000000000000000000000000000000000000000000000000005f52601160045260245ffd5b5f6103bf8261028e565b91506103ca8361028e565b92508282039050818111156103e2576103e1610388565b5b92915050565b7f4e487b71000000000000000000000000000000000000000000000000000000005f52601260045260245ffd5b5f61041f8261028e565b915061042a8361028e565b92508261043a576104396103e8565b5b82820690509291505056fea26469706673582212208eca0ec7619e6cc59c3bb177592b731951336d7b7d3f540cc9fbf47b771fc09d64736f6c63430008180033",
					"opcodes": "PUSH1 0x80 PUSH1 0x40 MSTORE CALLVALUE DUP1 ISZERO PUSH2 0xF JUMPI PUSH0 DUP1 REVERT JUMPDEST POP PUSH2 0x47B DUP1 PUSH2 0x1D PUSH0 CODECOPY PUSH0 RETURN INVALID PUSH1 0x80 PUSH1 0x40 MSTORE CALLVALUE DUP1 ISZERO PUSH2 0xF JUMPI PUSH0 DUP1 REVERT JUMPDEST POP PUSH1 0x4 CALLDATASIZE LT PUSH2 0x86 JUMPI PUSH0 CALLDATALOAD PUSH1 0xE0 SHR DUP1 PUSH4 0x771602F7 GT PUSH2 0x59 JUMPI DUP1 PUSH4 0x771602F7 EQ PUSH2 0x14A JUMPI DUP1 PUSH4 0x9ED41BA1 EQ PUSH2 0x17A JUMPI DUP1 PUSH4 0xA589D212 EQ PUSH2 0x1AA JUMPI DUP1 PUSH4 0xDF0FF104 EQ PUSH2 0x1DA JUMPI PUSH2 0x86 JUMP JUMPDEST DUP1 PUSH4 0x97C2CB2 EQ PUSH2 0x8A JUMPI DUP1 PUSH4 0x1180F8C3 EQ PUSH2 0xBA JUMPI DUP1 PUSH4 0x1685FA98 EQ PUSH2 0xEA JUMPI DUP1 PUSH4 0x21A95296 EQ PUSH2 0x11A JUMPI JUMPDEST PUSH0 DUP1 REVERT JUMPDEST PUSH2 0xA4 PUSH1 0x4 DUP1 CALLDATASIZE SUB DUP2 ADD SWAP1 PUSH2 0x9F SWAP2 SWAP1 PUSH2 0x2C1 JUMP JUMPDEST PUSH2 0x20A JUMP JUMPDEST PUSH1 0x40 MLOAD PUSH2 0xB1 SWAP2 SWAP1 PUSH2 0x30E JUMP JUMPDEST PUSH1 0x40 MLOAD DUP1 SWAP2 SUB SWAP1 RETURN JUMPDEST PUSH2 0xD4 PUSH1 0x4 DUP1 CALLDATASIZE SUB DUP2 ADD SWAP1 PUSH2 0xCF SWAP2 SWAP1 PUSH2 0x35D JUMP JUMPDEST PUSH2 0x211 JUMP JUMPDEST PUSH1 0x40 MLOAD PUSH2 0xE1 SWAP2 SWAP1 PUSH2 0x30E JUMP JUMPDEST PUSH1 0x40 MLOAD DUP1 SWAP2 SUB SWAP1 RETURN JUMPDEST PUSH2 0x104 PUSH1 0x4 DUP1 CALLDATASIZE SUB DUP2 ADD SWAP1 PUSH2 0xFF SWAP2 SWAP1 PUSH2 0x2C1 JUMP JUMPDEST PUSH2 0x21E JUMP JUMPDEST PUSH1 0x40 MLOAD PUSH2 0x111 SWAP2 SWAP1 PUSH2 0x30E JUMP JUMPDEST PUSH1 0x40 MLOAD DUP1 SWAP2 SUB SWAP1 RETURN JUMPDEST PUSH2 0x134 PUSH1 0x4 DUP1 CALLDATASIZE SUB DUP2 ADD SWAP1 PUSH2 0x12F SWAP2 SWAP1 PUSH2 0x2C1 JUMP JUMPDEST PUSH2 0x22B JUMP JUMPDEST PUSH1 0x40 MLOAD PUSH2 0x141 SWAP2 SWAP1 PUSH2 0x30E JUMP JUMPDEST PUSH1 0x40 MLOAD DUP1 SWAP2 SUB SWAP1 RETURN JUMPDEST PUSH2 0x164 PUSH1 0x4 DUP1 CALLDATASIZE SUB DUP2 ADD SWAP1 PUSH2 0x15F SWAP2 SWAP1 PUSH2 0x2C1 JUMP JUMPDEST PUSH2 0x24C JUMP JUMPDEST PUSH1 0x40 MLOAD PUSH2 0x171 SWAP2 SWAP1 PUSH2 0x30E JUMP JUMPDEST PUSH1 0x40 MLOAD DUP1 SWAP2 SUB SWAP1 RETURN JUMPDEST PUSH2 0x194 PUSH1 0x4 DUP1 CALLDATASIZE SUB DUP2 ADD SWAP1 PUSH2 0x18F SWAP2 SWAP1 PUSH2 0x2C1 JUMP JUMPDEST PUSH2 0x258 JUMP JUMPDEST PUSH1 0x40 MLOAD PUSH2 0x1A1 SWAP2 SWAP1 PUSH2 0x30E JUMP JUMPDEST PUSH1 0x40 MLOAD DUP1 SWAP2 SUB SWAP1 RETURN JUMPDEST PUSH2 0x1C4 PUSH1 0x4 DUP1 CALLDATASIZE SUB DUP2 ADD SWAP1 PUSH2 0x1BF SWAP2 SWAP1 PUSH2 0x2C1 JUMP JUMPDEST PUSH2 0x264 JUMP JUMPDEST PUSH1 0x40 MLOAD PUSH2 0x1D1 SWAP2 SWAP1 PUSH2 0x30E JUMP JUMPDEST PUSH1 0x40 MLOAD DUP1 SWAP2 SUB SWAP1 RETURN JUMPDEST PUSH2 0x1F4 PUSH1 0x4 DUP1 CALLDATASIZE SUB DUP2 ADD SWAP1 PUSH2 0x1EF SWAP2 SWAP1 PUSH2 0x2C1 JUMP JUMPDEST PUSH2 0x271 JUMP JUMPDEST PUSH1 0x40 MLOAD PUSH2 0x201 SWAP2 SWAP1 PUSH2 0x30E JUMP JUMPDEST PUSH1 0x40 MLOAD DUP1 SWAP2 SUB SWAP1 RETURN JUMPDEST PUSH0 SWAP3 SWAP2 POP POP JUMP JUMPDEST PUSH0 DUP2 NOT PUSH1 0xFF AND SWAP1 POP SWAP2 SWAP1 POP JUMP JUMPDEST PUSH0 DUP2 DUP4 SWAP1 SHR SWAP1 POP SWAP3 SWAP2 POP POP JUMP JUMPDEST PUSH0 DUP1 PUSH1 0x1 DUP4 PUSH1 0x1 SWAP1 SHL PUSH2 0x23E SWAP2 SWAP1 PUSH2 0x3B5 JUMP JUMPDEST SWAP1 POP DUP1 DUP5 AND SWAP2 POP POP SWAP3 SWAP2 POP POP JUMP JUMPDEST PUSH0 DUP2 DUP4 AND SWAP1 POP SWAP3 SWAP2 POP POP JUMP JUMPDEST PUSH0 DUP2 DUP4 XOR SWAP1 POP SWAP3 SWAP2 POP POP JUMP JUMPDEST PUSH0 DUP2 DUP4 SWAP1 SHL SWAP1 POP SWAP3 SWAP2 POP POP JUMP JUMPDEST PUSH0 DUP2 PUSH1 0x1 SWAP1 SHL DUP4 PUSH2 0x282 SWAP2 SWAP1 PUSH2 0x415 JUMP JUMPDEST SWAP1 POP SWAP3 SWAP2 POP POP JUMP JUMPDEST PUSH0 DUP1 REVERT JUMPDEST PUSH0 DUP2 SWAP1 POP SWAP2 SWAP1 POP JUMP JUMPDEST PUSH2 0x2A0 DUP2 PUSH2 0x28E JUMP JUMPDEST DUP2 EQ PUSH2 0x2AA JUMPI PUSH0 DUP1 REVERT JUMPDEST POP JUMP JUMPDEST PUSH0 DUP2 CALLDATALOAD SWAP1 POP PUSH2 0x2BB DUP2 PUSH2 0x297 JUMP JUMPDEST SWAP3 SWAP2 POP POP JUMP JUMPDEST PUSH0 DUP1 PUSH1 0x40 DUP4 DUP6 SUB SLT ISZERO PUSH2 0x2D7 JUMPI PUSH2 0x2D6 PUSH2 0x28A JUMP JUMPDEST JUMPDEST PUSH0 PUSH2 0x2E4 DUP6 DUP3 DUP7 ADD PUSH2 0x2AD JUMP JUMPDEST SWAP3 POP POP PUSH1 0x20 PUSH2 0x2F5 DUP6 DUP3 DUP7 ADD PUSH2 0x2AD JUMP JUMPDEST SWAP2 POP POP SWAP3 POP SWAP3 SWAP1 POP JUMP JUMPDEST PUSH2 0x308 DUP2 PUSH2 0x28E JUMP JUMPDEST DUP3 MSTORE POP POP JUMP JUMPDEST PUSH0 PUSH1 0x20 DUP3 ADD SWAP1 POP PUSH2 0x321 PUSH0 DUP4 ADD DUP5 PUSH2 0x2FF JUMP JUMPDEST SWAP3 SWAP2 POP POP JUMP JUMPDEST PUSH0 PUSH1 0xFF DUP3 AND SWAP1 POP SWAP2 SWAP1 POP JUMP JUMPDEST PUSH2 0x33C DUP2 PUSH2 0x327 JUMP JUMPDEST DUP2 EQ PUSH2 0x346 JUMPI PUSH0 DUP1 REVERT JUMPDEST POP JUMP JUMPDEST PUSH0 DUP2 CALLDATALOAD SWAP1 POP PUSH2 0x357 DUP2 PUSH2 0x333 JUMP JUMPDEST SWAP3 SWAP2 POP POP JUMP JUMPDEST PUSH0 PUSH1 0x20 DUP3 DUP5 SUB SLT ISZERO PUSH2 0x372 JUMPI PUSH2 0x371 PUSH2 0x28A JUMP JUMPDEST JUMPDEST PUSH0 PUSH2 0x37F DUP5 DUP3 DUP6 ADD PUSH2 0x349 JUMP JUMPDEST SWAP2 POP POP SWAP3 SWAP2 POP POP JUMP JUMPDEST PUSH32 0x4E487B7100000000000000000000000000000000000000000000000000000000 PUSH0 MSTORE PUSH1 0x11 PUSH1 0x4 MSTORE PUSH1 0x24 PUSH0 REVERT JUMPDEST PUSH0 PUSH2 0x3BF DUP3 PUSH2 0x28E JUMP JUMPDEST SWAP2 POP PUSH2 0x3CA DUP4 PUSH2 0x28E JUMP JUMPDEST SWAP3 POP DUP3 DUP3 SUB SWAP1 POP DUP2 DUP2 GT ISZERO PUSH2 0x3E2 JUMPI PUSH2 0x3E1 PUSH2 0x388 JUMP JUMPDEST JUMPDEST SWAP3 SWAP2 POP POP JUMP JUMPDEST PUSH32 0x4E487B7100000000000000000000000000000000000000000000000000000000 PUSH0 MSTORE PUSH1 0x12 PUSH1 0x4 MSTORE PUSH1 0x24 PUSH0 REVERT JUMPDEST PUSH0 PUSH2 0x41F DUP3 PUSH2 0x28E JUMP JUMPDEST SWAP2 POP PUSH2 0x42A DUP4 PUSH2 0x28E JUMP JUMPDEST SWAP3 POP DUP3 PUSH2 0x43A JUMPI PUSH2 0x439 PUSH2 0x3E8 JUMP JUMPDEST JUMPDEST DUP3 DUP3 MOD SWAP1 POP SWAP3 SWAP2 POP POP JUMP INVALID LOG2 PUSH5 0x6970667358 0x22 SLT KECCAK256 DUP15 0xCA 0xE 0xC7 PUSH2 0x9E6C 0xC5 SWAP13 EXTCODESIZE 0xB1 PUSH24 0x592B731951336D7B7D3F540CC9FBF47B771FC09D64736F6C PUSH4 0x43000818 STOP CALLER "
				},
				"gasEstimates": {
					"creation": {
						"codeDepositCost": "229400",
						"executionCost": "267",
						"totalCost": "229667"
					},
					"external": {
						"add(uint256,uint256)": "infinite",
						"getLastNBitUsingMod(uint256,uint256)": "infinite",
						"getLastNBits(uint256,uint256)": "infinite",
						"not(uint8)": "631",
						"or(uint256,uint256)": "infinite",
						"shiftLeft(uint256,uint256)": "infinite",
						"shiftRight(uint256,uint256)": "infinite",
						"xor(uint256,uint256)": "infinite"
					}
				},
				"methodIdentifiers": {
					"add(uint256,uint256)": "771602f7",
					"getLastNBitUsingMod(uint256,uint256)": "df0ff104",
					"getLastNBits(uint256,uint256)": "21a95296",
					"not(uint8)": "1180f8c3",
					"or(uint256,uint256)": "097c2cb2",
					"shiftLeft(uint256,uint256)": "a589d212",
					"shiftRight(uint256,uint256)": "1685fa98",
					"xor(uint256,uint256)": "9ed41ba1"
				}
			},
			"storageLayout": {
				"storage": [],
				"types": null
			},
			"userdoc": {
				"kind": "user",
				"methods": {},
				"version": 1
			}
		}
	}
}