{
	"CrowdFund.sol": {
		"CrowdFund": {
			"abi": [
				{
					"inputs": [
						{
							"internalType": "address",
							"name": "_token",
							"type": "address"
						}
					],
					"stateMutability": "nonpayable",
					"type": "constructor"
				},
				{
					"anonymous": false,
					"inputs": [
						{
							"indexed": false,
							"internalType": "uint256",
							"name": "id",
							"type": "uint256"
						}
					],
					"name": "Cancel",
					"type": "event"
				},
				{
					"anonymous": false,
					"inputs": [
						{
							"indexed": true,
							"internalType": "uint256",
							"name": "id",
							"type": "uint256"
						}
					],
					"name": "Claim",
					"type": "event"
				},
				{
					"anonymous": false,
					"inputs": [
						{
							"indexed": false,
							"internalType": "uint256",
							"name": "id",
							"type": "uint256"
						},
						{
							"indexed": true,
							"internalType": "address",
							"name": "createor",
							"type": "address"
						},
						{
							"indexed": false,
							"internalType": "uint256",
							"name": "goal",
							"type": "uint256"
						},
						{
							"indexed": false,
							"internalType": "uint32",
							"name": "startAt",
							"type": "uint32"
						},
						{
							"indexed": false,
							"internalType": "uint32",
							"name": "endAt",
							"type": "uint32"
						}
					],
					"name": "Launch",
					"type": "event"
				},
				{
					"anonymous": false,
					"inputs": [
						{
							"indexed": true,
							"internalType": "uint256",
							"name": "id",
							"type": "uint256"
						},
						{
							"indexed": true,
							"internalType": "address",
							"name": "caller",
							"type": "address"
						},
						{
							"indexed": false,
							"internalType": "uint256",
							"name": "amount",
							"type": "uint256"
						}
					],
					"name": "Pledged",
					"type": "event"
				},
				{
					"anonymous": false,
					"inputs": [
						{
							"indexed": true,
							"internalType": "uint256",
							"name": "id",
							"type": "uint256"
						},
						{
							"indexed": true,
							"internalType": "address",
							"name": "caller",
							"type": "address"
						},
						{
							"indexed": false,
							"internalType": "uint256",
							"name": "balance",
							"type": "uint256"
						}
					],
					"name": "Refund",
					"type": "event"
				},
				{
					"anonymous": false,
					"inputs": [
						{
							"indexed": true,
							"internalType": "uint256",
							"name": "id",
							"type": "uint256"
						},
						{
							"indexed": true,
							"internalType": "address",
							"name": "caller",
							"type": "address"
						},
						{
							"indexed": false,
							"internalType": "uint256",
							"name": "amount",
							"type": "uint256"
						}
					],
					"name": "Unpledged",
					"type": "event"
				},
				{
					"inputs": [
						{
							"internalType": "uint256",
							"name": "",
							"type": "uint256"
						}
					],
					"name": "campaigns",
					"outputs": [
						{
							"internalType": "address",
							"name": "creator",
							"type": "address"
						},
						{
							"internalType": "uint256",
							"name": "goal",
							"type": "uint256"
						},
						{
							"internalType": "uint256",
							"name": "pledged",
							"type": "uint256"
						},
						{
							"internalType": "uint32",
							"name": "startAt",
							"type": "uint32"
						},
						{
							"internalType": "uint32",
							"name": "endAt",
							"type": "uint32"
						},
						{
							"internalType": "bool",
							"name": "claimed",
							"type": "bool"
						}
					],
					"stateMutability": "view",
					"type": "function"
				},
				{
					"inputs": [
						{
							"internalType": "uint256",
							"name": "_id",
							"type": "uint256"
						}
					],
					"name": "cancel",
					"outputs": [],
					"stateMutability": "nonpayable",
					"type": "function"
				},
				{
					"inputs": [
						{
							"internalType": "uint256",
							"name": "_id",
							"type": "uint256"
						}
					],
					"name": "claim",
					"outputs": [],
					"stateMutability": "nonpayable",
					"type": "function"
				},
				{
					"inputs": [],
					"name": "count",
					"outputs": [
						{
							"internalType": "uint256",
							"name": "",
							"type": "uint256"
						}
					],
					"stateMutability": "view",
					"type": "function"
				},
				{
					"inputs": [
						{
							"internalType": "uint256",
							"name": "_goal",
							"type": "uint256"
						},
						{
							"internalType": "uint32",
							"name": "_startAt",
							"type": "uint32"
						},
						{
							"internalType": "uint32",
							"name": "_endAt",
							"type": "uint32"
						}
					],
					"name": "launch",
					"outputs": [],
					"stateMutability": "nonpayable",
					"type": "function"
				},
				{
					"inputs": [
						{
							"internalType": "uint256",
							"name": "_id",
							"type": "uint256"
						},
						{
							"internalType": "uint256",
							"name": "_amount",
							"type": "uint256"
						}
					],
					"name": "pledged",
					"outputs": [],
					"stateMutability": "nonpayable",
					"type": "function"
				},
				{
					"inputs": [
						{
							"internalType": "uint256",
							"name": "",
							"type": "uint256"
						},
						{
							"internalType": "address",
							"name": "",
							"type": "address"
						}
					],
					"name": "pledgedAmount",
					"outputs": [
						{
							"internalType": "uint256",
							"name": "",
							"type": "uint256"
						}
					],
					"stateMutability": "view",
					"type": "function"
				},
				{
					"inputs": [
						{
							"internalType": "uint256",
							"name": "_id",
							"type": "uint256"
						}
					],
					"name": "refund",
					"outputs": [],
					"stateMutability": "nonpayable",
					"type": "function"
				},
				{
					"inputs": [],
					"name": "token",
					"outputs": [
						{
							"internalType": "contract IERC20",
							"name": "",
							"type": "address"
						}
					],
					"stateMutability": "view",
					"type": "function"
				},
				{
					"inputs": [
						{
							"internalType": "uint256",
							"name": "_id",
							"type": "uint256"
						},
						{
							"internalType": "uint256",
							"name": "_amount",
							"type": "uint256"
						}
					],
					"name": "unpledge",
					"outputs": [],
					"stateMutability": "nonpayable",
					"type": "function"
				}
			],
			"devdoc": {
				"kind": "dev",
				"methods": {},
				"version": 1
			},
			"evm": {
				"assembly": "    /* \"CrowdFund.sol\":486:6369  contract CrowdFund{... */\n  mstore(0x40, 0xa0)\n    /* \"CrowdFund.sol\":2032:2159  constructor(address _token){... */\n  callvalue\n  dup1\n  iszero\n  tag_1\n  jumpi\n  0x00\n  dup1\n  revert\ntag_1:\n  pop\n  mload(0x40)\n  sub(codesize, bytecodeSize)\n  dup1\n  bytecodeSize\n  dup4\n  codecopy\n  dup2\n  dup2\n  add\n  0x40\n  mstore\n  dup2\n  add\n  swap1\n  tag_2\n  swap2\n  swap1\n  tag_3\n  jump\t// in\ntag_2:\n    /* \"CrowdFund.sol\":2144:2150  _token */\n  dup1\n    /* \"CrowdFund.sol\":2129:2151  token = IERC20(_token) */\n  0xffffffffffffffffffffffffffffffffffffffff\n  and\n  0x80\n  dup2\n  0xffffffffffffffffffffffffffffffffffffffff\n  and\n  dup2\n  mstore\n  pop\n  pop\n    /* \"CrowdFund.sol\":2032:2159  constructor(address _token){... */\n  pop\n    /* \"CrowdFund.sol\":486:6369  contract CrowdFund{... */\n  jump(tag_6)\n    /* \"#utility.yul\":88:205   */\ntag_8:\n    /* \"#utility.yul\":197:198   */\n  0x00\n    /* \"#utility.yul\":194:195   */\n  dup1\n    /* \"#utility.yul\":187:199   */\n  revert\n    /* \"#utility.yul\":334:460   */\ntag_10:\n    /* \"#utility.yul\":371:378   */\n  0x00\n    /* \"#utility.yul\":411:453   */\n  0xffffffffffffffffffffffffffffffffffffffff\n    /* \"#utility.yul\":404:409   */\n  dup3\n    /* \"#utility.yul\":400:454   */\n  and\n    /* \"#utility.yul\":389:454   */\n  swap1\n  pop\n    /* \"#utility.yul\":334:460   */\n  swap2\n  swap1\n  pop\n  jump\t// out\n    /* \"#utility.yul\":466:562   */\ntag_11:\n    /* \"#utility.yul\":503:510   */\n  0x00\n    /* \"#utility.yul\":532:556   */\n  tag_20\n    /* \"#utility.yul\":550:555   */\n  dup3\n    /* \"#utility.yul\":532:556   */\n  tag_10\n  jump\t// in\ntag_20:\n    /* \"#utility.yul\":521:556   */\n  swap1\n  pop\n    /* \"#utility.yul\":466:562   */\n  swap2\n  swap1\n  pop\n  jump\t// out\n    /* \"#utility.yul\":568:690   */\ntag_12:\n    /* \"#utility.yul\":641:665   */\n  tag_22\n    /* \"#utility.yul\":659:664   */\n  dup2\n    /* \"#utility.yul\":641:665   */\n  tag_11\n  jump\t// in\ntag_22:\n    /* \"#utility.yul\":634:639   */\n  dup2\n    /* \"#utility.yul\":631:666   */\n  eq\n    /* \"#utility.yul\":621:684   */\n  tag_23\n  jumpi\n    /* \"#utility.yul\":680:681   */\n  0x00\n    /* \"#utility.yul\":677:678   */\n  dup1\n    /* \"#utility.yul\":670:682   */\n  revert\n    /* \"#utility.yul\":621:684   */\ntag_23:\n    /* \"#utility.yul\":568:690   */\n  pop\n  jump\t// out\n    /* \"#utility.yul\":696:839   */\ntag_13:\n    /* \"#utility.yul\":753:758   */\n  0x00\n    /* \"#utility.yul\":784:790   */\n  dup2\n    /* \"#utility.yul\":778:791   */\n  mload\n    /* \"#utility.yul\":769:791   */\n  swap1\n  pop\n    /* \"#utility.yul\":800:833   */\n  tag_25\n    /* \"#utility.yul\":827:832   */\n  dup2\n    /* \"#utility.yul\":800:833   */\n  tag_12\n  jump\t// in\ntag_25:\n    /* \"#utility.yul\":696:839   */\n  swap3\n  swap2\n  pop\n  pop\n  jump\t// out\n    /* \"#utility.yul\":845:1196   */\ntag_3:\n    /* \"#utility.yul\":915:921   */\n  0x00\n    /* \"#utility.yul\":964:966   */\n  0x20\n    /* \"#utility.yul\":952:961   */\n  dup3\n    /* \"#utility.yul\":943:950   */\n  dup5\n    /* \"#utility.yul\":939:962   */\n  sub\n    /* \"#utility.yul\":935:967   */\n  slt\n    /* \"#utility.yul\":932:1051   */\n  iszero\n  tag_27\n  jumpi\n    /* \"#utility.yul\":970:1049   */\n  tag_28\n  tag_8\n  jump\t// in\ntag_28:\n    /* \"#utility.yul\":932:1051   */\ntag_27:\n    /* \"#utility.yul\":1090:1091   */\n  0x00\n    /* \"#utility.yul\":1115:1179   */\n  tag_29\n    /* \"#utility.yul\":1171:1178   */\n  dup5\n    /* \"#utility.yul\":1162:1168   */\n  dup3\n    /* \"#utility.yul\":1151:1160   */\n  dup6\n    /* \"#utility.yul\":1147:1169   */\n  add\n    /* \"#utility.yul\":1115:1179   */\n  tag_13\n  jump\t// in\ntag_29:\n    /* \"#utility.yul\":1105:1179   */\n  swap2\n  pop\n    /* \"#utility.yul\":1061:1189   */\n  pop\n    /* \"#utility.yul\":845:1196   */\n  swap3\n  swap2\n  pop\n  pop\n  jump\t// out\n    /* \"CrowdFund.sol\":486:6369  contract CrowdFund{... */\ntag_6:\n  mload(0x80)\n  codecopy(0x00, dataOffset(sub_0), dataSize(sub_0))\n  0x00\n  assignImmutable(\"0x4b4b9efaff899efa2095e6e12f4c7ffa5d130c6cf88a562d7f7bbc11486ed4fb\")\n  return(0x00, dataSize(sub_0))\nstop\n\nsub_0: assembly {\n        /* \"CrowdFund.sol\":486:6369  contract CrowdFund{... */\n      mstore(0x40, 0x80)\n      callvalue\n      dup1\n      iszero\n      tag_1\n      jumpi\n      0x00\n      dup1\n      revert\n    tag_1:\n      pop\n      jumpi(tag_2, lt(calldatasize, 0x04))\n      shr(0xe0, calldataload(0x00))\n      dup1\n      0x379607f5\n      gt\n      tag_13\n      jumpi\n      dup1\n      0x379607f5\n      eq\n      tag_8\n      jumpi\n      dup1\n      0x40e58ee5\n      eq\n      tag_9\n      jumpi\n      dup1\n      0x711853ab\n      eq\n      tag_10\n      jumpi\n      dup1\n      0xaa4fb63a\n      eq\n      tag_11\n      jumpi\n      dup1\n      0xfc0c546a\n      eq\n      tag_12\n      jumpi\n      jump(tag_2)\n    tag_13:\n      dup1\n      0x06661abd\n      eq\n      tag_3\n      jumpi\n      dup1\n      0x141961bc\n      eq\n      tag_4\n      jumpi\n      dup1\n      0x278ecde1\n      eq\n      tag_5\n      jumpi\n      dup1\n      0x2c63f146\n      eq\n      tag_6\n      jumpi\n      dup1\n      0x372f0192\n      eq\n      tag_7\n      jumpi\n    tag_2:\n      0x00\n      dup1\n      revert\n        /* \"CrowdFund.sol\":1648:1665  uint public count */\n    tag_3:\n      tag_14\n      tag_15\n      jump\t// in\n    tag_14:\n      mload(0x40)\n      tag_16\n      swap2\n      swap1\n      tag_17\n      jump\t// in\n    tag_16:\n      mload(0x40)\n      dup1\n      swap2\n      sub\n      swap1\n      return\n        /* \"CrowdFund.sol\":1781:1821  mapping(uint=>Campaign) public campaigns */\n    tag_4:\n      tag_18\n      0x04\n      dup1\n      calldatasize\n      sub\n      dup2\n      add\n      swap1\n      tag_19\n      swap2\n      swap1\n      tag_20\n      jump\t// in\n    tag_19:\n      tag_21\n      jump\t// in\n    tag_18:\n      mload(0x40)\n      tag_22\n      swap7\n      swap6\n      swap5\n      swap4\n      swap3\n      swap2\n      swap1\n      tag_23\n      jump\t// in\n    tag_22:\n      mload(0x40)\n      dup1\n      swap2\n      sub\n      swap1\n      return\n        /* \"CrowdFund.sol\":5862:6367  function refund(uint _id)external {... */\n    tag_5:\n      tag_24\n      0x04\n      dup1\n      calldatasize\n      sub\n      dup2\n      add\n      swap1\n      tag_25\n      swap2\n      swap1\n      tag_20\n      jump\t// in\n    tag_25:\n      tag_26\n      jump\t// in\n    tag_24:\n      stop\n        /* \"CrowdFund.sol\":2211:3154  function launch(... */\n    tag_6:\n      tag_27\n      0x04\n      dup1\n      calldatasize\n      sub\n      dup2\n      add\n      swap1\n      tag_28\n      swap2\n      swap1\n      tag_29\n      jump\t// in\n    tag_28:\n      tag_30\n      jump\t// in\n    tag_27:\n      stop\n        /* \"CrowdFund.sol\":3594:4248  function pledged(uint _id, uint _amount)external {... */\n    tag_7:\n      tag_31\n      0x04\n      dup1\n      calldatasize\n      sub\n      dup2\n      add\n      swap1\n      tag_32\n      swap2\n      swap1\n      tag_33\n      jump\t// in\n    tag_32:\n      tag_34\n      jump\t// in\n    tag_31:\n      stop\n        /* \"CrowdFund.sol\":5080:5748  function claim(uint _id)external {... */\n    tag_8:\n      tag_35\n      0x04\n      dup1\n      calldatasize\n      sub\n      dup2\n      add\n      swap1\n      tag_36\n      swap2\n      swap1\n      tag_20\n      jump\t// in\n    tag_36:\n      tag_37\n      jump\t// in\n    tag_35:\n      stop\n        /* \"CrowdFund.sol\":3186:3568  function cancel(uint _id)external {... */\n    tag_9:\n      tag_38\n      0x04\n      dup1\n      calldatasize\n      sub\n      dup2\n      add\n      swap1\n      tag_39\n      swap2\n      swap1\n      tag_20\n      jump\t// in\n    tag_39:\n      tag_40\n      jump\t// in\n    tag_38:\n      stop\n        /* \"CrowdFund.sol\":4273:5048  function unpledge(uint _id, uint _amount)external {... */\n    tag_10:\n      tag_41\n      0x04\n      dup1\n      calldatasize\n      sub\n      dup2\n      add\n      swap1\n      tag_42\n      swap2\n      swap1\n      tag_33\n      jump\t// in\n    tag_42:\n      tag_43\n      jump\t// in\n    tag_41:\n      stop\n        /* \"CrowdFund.sol\":1933:1996  mapping (uint => mapping (address=> uint)) public pledgedAmount */\n    tag_11:\n      tag_44\n      0x04\n      dup1\n      calldatasize\n      sub\n      dup2\n      add\n      swap1\n      tag_45\n      swap2\n      swap1\n      tag_46\n      jump\t// in\n    tag_45:\n      tag_47\n      jump\t// in\n    tag_44:\n      mload(0x40)\n      tag_48\n      swap2\n      swap1\n      tag_17\n      jump\t// in\n    tag_48:\n      mload(0x40)\n      dup1\n      swap2\n      sub\n      swap1\n      return\n        /* \"CrowdFund.sol\":1529:1558  IERC20 public immutable token */\n    tag_12:\n      tag_49\n      tag_50\n      jump\t// in\n    tag_49:\n      mload(0x40)\n      tag_51\n      swap2\n      swap1\n      tag_52\n      jump\t// in\n    tag_51:\n      mload(0x40)\n      dup1\n      swap2\n      sub\n      swap1\n      return\n        /* \"CrowdFund.sol\":1648:1665  uint public count */\n    tag_15:\n      sload(0x00)\n      dup2\n      jump\t// out\n        /* \"CrowdFund.sol\":1781:1821  mapping(uint=>Campaign) public campaigns */\n    tag_21:\n      mstore(0x20, 0x01)\n      dup1\n      0x00\n      mstore\n      keccak256(0x00, 0x40)\n      0x00\n      swap2\n      pop\n      swap1\n      pop\n      dup1\n      0x00\n      add\n      0x00\n      swap1\n      sload\n      swap1\n      0x0100\n      exp\n      swap1\n      div\n      0xffffffffffffffffffffffffffffffffffffffff\n      and\n      swap1\n      dup1\n      0x01\n      add\n      sload\n      swap1\n      dup1\n      0x02\n      add\n      sload\n      swap1\n      dup1\n      0x03\n      add\n      0x00\n      swap1\n      sload\n      swap1\n      0x0100\n      exp\n      swap1\n      div\n      0xffffffff\n      and\n      swap1\n      dup1\n      0x03\n      add\n      0x04\n      swap1\n      sload\n      swap1\n      0x0100\n      exp\n      swap1\n      div\n      0xffffffff\n      and\n      swap1\n      dup1\n      0x03\n      add\n      0x08\n      swap1\n      sload\n      swap1\n      0x0100\n      exp\n      swap1\n      div\n      0xff\n      and\n      swap1\n      pop\n      dup7\n      jump\t// out\n        /* \"CrowdFund.sol\":5862:6367  function refund(uint _id)external {... */\n    tag_26:\n        /* \"CrowdFund.sol\":5906:5931  Campaign storage campaign */\n      0x00\n        /* \"CrowdFund.sol\":5934:5943  campaigns */\n      0x01\n        /* \"CrowdFund.sol\":5934:5948  campaigns[_id] */\n      0x00\n        /* \"CrowdFund.sol\":5944:5947  _id */\n      dup4\n        /* \"CrowdFund.sol\":5934:5948  campaigns[_id] */\n      dup2\n      mstore\n      0x20\n      add\n      swap1\n      dup2\n      mstore\n      0x20\n      add\n      0x00\n      keccak256\n        /* \"CrowdFund.sol\":5906:5948  Campaign storage campaign = campaigns[_id] */\n      swap1\n      pop\n        /* \"CrowdFund.sol\":5984:5992  campaign */\n      dup1\n        /* \"CrowdFund.sol\":5984:5998  campaign.endAt */\n      0x03\n      add\n      0x04\n      swap1\n      sload\n      swap1\n      0x0100\n      exp\n      swap1\n      div\n      0xffffffff\n      and\n        /* \"CrowdFund.sol\":5966:5998  block.timestamp > campaign.endAt */\n      0xffffffff\n      and\n        /* \"CrowdFund.sol\":5966:5981  block.timestamp */\n      timestamp\n        /* \"CrowdFund.sol\":5966:5998  block.timestamp > campaign.endAt */\n      gt\n        /* \"CrowdFund.sol\":5958:6012  require(block.timestamp > campaign.endAt, \"not ended\") */\n      tag_54\n      jumpi\n      mload(0x40)\n      0x08c379a000000000000000000000000000000000000000000000000000000000\n      dup2\n      mstore\n      0x04\n      add\n      tag_55\n      swap1\n      tag_56\n      jump\t// in\n    tag_55:\n      mload(0x40)\n      dup1\n      swap2\n      sub\n      swap1\n      revert\n    tag_54:\n        /* \"CrowdFund.sol\":6049:6057  campaign */\n      dup1\n        /* \"CrowdFund.sol\":6049:6062  campaign.goal */\n      0x01\n      add\n      sload\n        /* \"CrowdFund.sol\":6030:6038  campaign */\n      dup2\n        /* \"CrowdFund.sol\":6030:6046  campaign.pledged */\n      0x02\n      add\n      sload\n        /* \"CrowdFund.sol\":6030:6062  campaign.pledged < campaign.goal */\n      lt\n        /* \"CrowdFund.sol\":6022:6080  require(campaign.pledged < campaign.goal, \"pledge > goal\") */\n      tag_57\n      jumpi\n      mload(0x40)\n      0x08c379a000000000000000000000000000000000000000000000000000000000\n      dup2\n      mstore\n      0x04\n      add\n      tag_58\n      swap1\n      tag_59\n      jump\t// in\n    tag_58:\n      mload(0x40)\n      dup1\n      swap2\n      sub\n      swap1\n      revert\n    tag_57:\n        /* \"CrowdFund.sol\":6091:6099  uint bal */\n      0x00\n        /* \"CrowdFund.sol\":6102:6115  pledgedAmount */\n      0x02\n        /* \"CrowdFund.sol\":6102:6120  pledgedAmount[_id] */\n      0x00\n        /* \"CrowdFund.sol\":6116:6119  _id */\n      dup5\n        /* \"CrowdFund.sol\":6102:6120  pledgedAmount[_id] */\n      dup2\n      mstore\n      0x20\n      add\n      swap1\n      dup2\n      mstore\n      0x20\n      add\n      0x00\n      keccak256\n        /* \"CrowdFund.sol\":6102:6132  pledgedAmount[_id][msg.sender] */\n      0x00\n        /* \"CrowdFund.sol\":6121:6131  msg.sender */\n      caller\n        /* \"CrowdFund.sol\":6102:6132  pledgedAmount[_id][msg.sender] */\n      0xffffffffffffffffffffffffffffffffffffffff\n      and\n      0xffffffffffffffffffffffffffffffffffffffff\n      and\n      dup2\n      mstore\n      0x20\n      add\n      swap1\n      dup2\n      mstore\n      0x20\n      add\n      0x00\n      keccak256\n      sload\n        /* \"CrowdFund.sol\":6091:6132  uint bal = pledgedAmount[_id][msg.sender] */\n      swap1\n      pop\n        /* \"CrowdFund.sol\":6175:6176  0 */\n      0x00\n        /* \"CrowdFund.sol\":6142:6155  pledgedAmount */\n      0x02\n        /* \"CrowdFund.sol\":6142:6160  pledgedAmount[_id] */\n      0x00\n        /* \"CrowdFund.sol\":6156:6159  _id */\n      dup6\n        /* \"CrowdFund.sol\":6142:6160  pledgedAmount[_id] */\n      dup2\n      mstore\n      0x20\n      add\n      swap1\n      dup2\n      mstore\n      0x20\n      add\n      0x00\n      keccak256\n        /* \"CrowdFund.sol\":6142:6172  pledgedAmount[_id][msg.sender] */\n      0x00\n        /* \"CrowdFund.sol\":6161:6171  msg.sender */\n      caller\n        /* \"CrowdFund.sol\":6142:6172  pledgedAmount[_id][msg.sender] */\n      0xffffffffffffffffffffffffffffffffffffffff\n      and\n      0xffffffffffffffffffffffffffffffffffffffff\n      and\n      dup2\n      mstore\n      0x20\n      add\n      swap1\n      dup2\n      mstore\n      0x20\n      add\n      0x00\n      keccak256\n        /* \"CrowdFund.sol\":6142:6176  pledgedAmount[_id][msg.sender] = 0 */\n      dup2\n      swap1\n      sstore\n      pop\n        /* \"CrowdFund.sol\":6283:6288  token */\n      immutable(\"0x4b4b9efaff899efa2095e6e12f4c7ffa5d130c6cf88a562d7f7bbc11486ed4fb\")\n        /* \"CrowdFund.sol\":6283:6297  token.transfer */\n      0xffffffffffffffffffffffffffffffffffffffff\n      and\n      0xa9059cbb\n        /* \"CrowdFund.sol\":6298:6308  msg.sender */\n      caller\n        /* \"CrowdFund.sol\":6310:6313  bal */\n      dup4\n        /* \"CrowdFund.sol\":6283:6314  token.transfer(msg.sender, bal) */\n      mload(0x40)\n      dup4\n      0xffffffff\n      and\n      0xe0\n      shl\n      dup2\n      mstore\n      0x04\n      add\n      tag_60\n      swap3\n      swap2\n      swap1\n      tag_61\n      jump\t// in\n    tag_60:\n      0x20\n      mload(0x40)\n      dup1\n      dup4\n      sub\n      dup2\n      0x00\n      dup8\n      gas\n      call\n      iszero\n      dup1\n      iszero\n      tag_63\n      jumpi\n      returndatasize\n      0x00\n      dup1\n      returndatacopy\n      revert(0x00, returndatasize)\n    tag_63:\n      pop\n      pop\n      pop\n      pop\n      mload(0x40)\n      returndatasize\n      not(0x1f)\n      0x1f\n      dup3\n      add\n      and\n      dup3\n      add\n      dup1\n      0x40\n      mstore\n      pop\n      dup2\n      add\n      swap1\n      tag_64\n      swap2\n      swap1\n      tag_65\n      jump\t// in\n    tag_64:\n      pop\n        /* \"CrowdFund.sol\":6342:6352  msg.sender */\n      caller\n        /* \"CrowdFund.sol\":6330:6359  Refund(_id, msg.sender , bal) */\n      0xffffffffffffffffffffffffffffffffffffffff\n      and\n        /* \"CrowdFund.sol\":6337:6340  _id */\n      dup4\n        /* \"CrowdFund.sol\":6330:6359  Refund(_id, msg.sender , bal) */\n      0x21e12a7cad0da5928167e1084ea4d5fdf8d9af66657a2543a9ac76a0ca081477\n        /* \"CrowdFund.sol\":6355:6358  bal */\n      dup4\n        /* \"CrowdFund.sol\":6330:6359  Refund(_id, msg.sender , bal) */\n      mload(0x40)\n      tag_66\n      swap2\n      swap1\n      tag_17\n      jump\t// in\n    tag_66:\n      mload(0x40)\n      dup1\n      swap2\n      sub\n      swap1\n      log3\n        /* \"CrowdFund.sol\":5896:6367  {... */\n      pop\n      pop\n        /* \"CrowdFund.sol\":5862:6367  function refund(uint _id)external {... */\n      pop\n      jump\t// out\n        /* \"CrowdFund.sol\":2211:3154  function launch(... */\n    tag_30:\n        /* \"CrowdFund.sol\":2450:2465  block.timestamp */\n      timestamp\n        /* \"CrowdFund.sol\":2438:2446  _startAt */\n      dup3\n        /* \"CrowdFund.sol\":2438:2465  _startAt >= block.timestamp */\n      0xffffffff\n      and\n      lt\n      iszero\n        /* \"CrowdFund.sol\":2430:2486  require(_startAt >= block.timestamp, \"start time < now\") */\n      tag_68\n      jumpi\n      mload(0x40)\n      0x08c379a000000000000000000000000000000000000000000000000000000000\n      dup2\n      mstore\n      0x04\n      add\n      tag_69\n      swap1\n      tag_70\n      jump\t// in\n    tag_69:\n      mload(0x40)\n      dup1\n      swap2\n      sub\n      swap1\n      revert\n    tag_68:\n        /* \"CrowdFund.sol\":2578:2586  _startAt */\n      dup2\n        /* \"CrowdFund.sol\":2569:2586  _endAt > _startAt */\n      0xffffffff\n      and\n        /* \"CrowdFund.sol\":2569:2575  _endAt */\n      dup2\n        /* \"CrowdFund.sol\":2569:2586  _endAt > _startAt */\n      0xffffffff\n      and\n      gt\n        /* \"CrowdFund.sol\":2560:2611  require( _endAt > _startAt,\"end time < start time\") */\n      tag_71\n      jumpi\n      mload(0x40)\n      0x08c379a000000000000000000000000000000000000000000000000000000000\n      dup2\n      mstore\n      0x04\n      add\n      tag_72\n      swap1\n      tag_73\n      jump\t// in\n    tag_72:\n      mload(0x40)\n      dup1\n      swap2\n      sub\n      swap1\n      revert\n    tag_71:\n        /* \"CrowdFund.sol\":2656:2663  90 days */\n      0x76a700\n        /* \"CrowdFund.sol\":2638:2653  block.timestamp */\n      timestamp\n        /* \"CrowdFund.sol\":2638:2663  block.timestamp + 90 days */\n      tag_74\n      swap2\n      swap1\n      tag_75\n      jump\t// in\n    tag_74:\n        /* \"CrowdFund.sol\":2629:2635  _endAt */\n      dup2\n        /* \"CrowdFund.sol\":2629:2663  _endAt < block.timestamp + 90 days */\n      0xffffffff\n      and\n      lt\n        /* \"CrowdFund.sol\":2621:2689  require(_endAt < block.timestamp + 90 days, \"end at > max duration\") */\n      tag_76\n      jumpi\n      mload(0x40)\n      0x08c379a000000000000000000000000000000000000000000000000000000000\n      dup2\n      mstore\n      0x04\n      add\n      tag_77\n      swap1\n      tag_78\n      jump\t// in\n    tag_77:\n      mload(0x40)\n      dup1\n      swap2\n      sub\n      swap1\n      revert\n    tag_76:\n        /* \"CrowdFund.sol\":2763:2764  1 */\n      0x01\n        /* \"CrowdFund.sol\":2754:2759  count */\n      0x00\n      dup1\n        /* \"CrowdFund.sol\":2754:2764  count += 1 */\n      dup3\n      dup3\n      sload\n      tag_79\n      swap2\n      swap1\n      tag_75\n      jump\t// in\n    tag_79:\n      swap3\n      pop\n      pop\n      dup2\n      swap1\n      sstore\n      pop\n        /* \"CrowdFund.sol\":2828:3010  Campaign({... */\n      mload(0x40)\n      dup1\n      0xc0\n      add\n      0x40\n      mstore\n      dup1\n        /* \"CrowdFund.sol\":2859:2869  msg.sender */\n      caller\n        /* \"CrowdFund.sol\":2828:3010  Campaign({... */\n      0xffffffffffffffffffffffffffffffffffffffff\n      and\n      dup2\n      mstore\n      0x20\n      add\n        /* \"CrowdFund.sol\":2888:2893  _goal */\n      dup5\n        /* \"CrowdFund.sol\":2828:3010  Campaign({... */\n      dup2\n      mstore\n      0x20\n      add\n        /* \"CrowdFund.sol\":2915:2916  0 */\n      0x00\n        /* \"CrowdFund.sol\":2828:3010  Campaign({... */\n      dup2\n      mstore\n      0x20\n      add\n        /* \"CrowdFund.sol\":2938:2946  _startAt */\n      dup4\n        /* \"CrowdFund.sol\":2828:3010  Campaign({... */\n      0xffffffff\n      and\n      dup2\n      mstore\n      0x20\n      add\n        /* \"CrowdFund.sol\":2966:2972  _endAt */\n      dup3\n        /* \"CrowdFund.sol\":2828:3010  Campaign({... */\n      0xffffffff\n      and\n      dup2\n      mstore\n      0x20\n      add\n        /* \"CrowdFund.sol\":2994:2999  false */\n      0x00\n        /* \"CrowdFund.sol\":2828:3010  Campaign({... */\n      iszero\n      iszero\n      dup2\n      mstore\n      pop\n        /* \"CrowdFund.sol\":2809:2818  campaigns */\n      0x01\n        /* \"CrowdFund.sol\":2809:2825  campaigns[count] */\n      0x00\n        /* \"CrowdFund.sol\":2819:2824  count */\n      dup1\n      sload\n        /* \"CrowdFund.sol\":2809:2825  campaigns[count] */\n      dup2\n      mstore\n      0x20\n      add\n      swap1\n      dup2\n      mstore\n      0x20\n      add\n      0x00\n      keccak256\n        /* \"CrowdFund.sol\":2809:3010  campaigns[count] = Campaign({... */\n      0x00\n      dup3\n      add\n      mload\n      dup2\n      0x00\n      add\n      exp(0x0100, 0x00)\n      dup2\n      sload\n      dup2\n      0xffffffffffffffffffffffffffffffffffffffff\n      mul\n      not\n      and\n      swap1\n      dup4\n      0xffffffffffffffffffffffffffffffffffffffff\n      and\n      mul\n      or\n      swap1\n      sstore\n      pop\n      0x20\n      dup3\n      add\n      mload\n      dup2\n      0x01\n      add\n      sstore\n      0x40\n      dup3\n      add\n      mload\n      dup2\n      0x02\n      add\n      sstore\n      0x60\n      dup3\n      add\n      mload\n      dup2\n      0x03\n      add\n      exp(0x0100, 0x00)\n      dup2\n      sload\n      dup2\n      0xffffffff\n      mul\n      not\n      and\n      swap1\n      dup4\n      0xffffffff\n      and\n      mul\n      or\n      swap1\n      sstore\n      pop\n      0x80\n      dup3\n      add\n      mload\n      dup2\n      0x03\n      add\n      exp(0x0100, 0x04)\n      dup2\n      sload\n      dup2\n      0xffffffff\n      mul\n      not\n      and\n      swap1\n      dup4\n      0xffffffff\n      and\n      mul\n      or\n      swap1\n      sstore\n      pop\n      0xa0\n      dup3\n      add\n      mload\n      dup2\n      0x03\n      add\n      exp(0x0100, 0x08)\n      dup2\n      sload\n      dup2\n      0xff\n      mul\n      not\n      and\n      swap1\n      dup4\n      iszero\n      iszero\n      mul\n      or\n      swap1\n      sstore\n      pop\n      swap1\n      pop\n      pop\n        /* \"CrowdFund.sol\":3102:3112  msg.sender */\n      caller\n        /* \"CrowdFund.sol\":3088:3138  Launch(count, msg.sender, _goal, _startAt, _endAt) */\n      0xffffffffffffffffffffffffffffffffffffffff\n      and\n      0x0601cd0d650b473037e838a2696d41e654433d065b3f56b28d1d3302e44a304f\n        /* \"CrowdFund.sol\":3095:3100  count */\n      sload(0x00)\n        /* \"CrowdFund.sol\":3114:3119  _goal */\n      dup6\n        /* \"CrowdFund.sol\":3121:3129  _startAt */\n      dup6\n        /* \"CrowdFund.sol\":3131:3137  _endAt */\n      dup6\n        /* \"CrowdFund.sol\":3088:3138  Launch(count, msg.sender, _goal, _startAt, _endAt) */\n      mload(0x40)\n      tag_80\n      swap5\n      swap4\n      swap3\n      swap2\n      swap1\n      tag_81\n      jump\t// in\n    tag_80:\n      mload(0x40)\n      dup1\n      swap2\n      sub\n      swap1\n      log2\n        /* \"CrowdFund.sol\":2211:3154  function launch(... */\n      pop\n      pop\n      pop\n      jump\t// out\n        /* \"CrowdFund.sol\":3594:4248  function pledged(uint _id, uint _amount)external {... */\n    tag_34:\n        /* \"CrowdFund.sol\":3695:3720  Campaign storage campaign */\n      0x00\n        /* \"CrowdFund.sol\":3723:3732  campaigns */\n      0x01\n        /* \"CrowdFund.sol\":3723:3737  campaigns[_id] */\n      0x00\n        /* \"CrowdFund.sol\":3733:3736  _id */\n      dup5\n        /* \"CrowdFund.sol\":3723:3737  campaigns[_id] */\n      dup2\n      mstore\n      0x20\n      add\n      swap1\n      dup2\n      mstore\n      0x20\n      add\n      0x00\n      keccak256\n        /* \"CrowdFund.sol\":3695:3737  Campaign storage campaign = campaigns[_id] */\n      swap1\n      pop\n        /* \"CrowdFund.sol\":3773:3781  campaign */\n      dup1\n        /* \"CrowdFund.sol\":3773:3789  campaign.startAt */\n      0x03\n      add\n      0x00\n      swap1\n      sload\n      swap1\n      0x0100\n      exp\n      swap1\n      div\n      0xffffffff\n      and\n        /* \"CrowdFund.sol\":3755:3789  block.timestamp > campaign.startAt */\n      0xffffffff\n      and\n        /* \"CrowdFund.sol\":3755:3770  block.timestamp */\n      timestamp\n        /* \"CrowdFund.sol\":3755:3789  block.timestamp > campaign.startAt */\n      gt\n        /* \"CrowdFund.sol\":3747:3803  require(block.timestamp > campaign.startAt, \"not start\") */\n      tag_83\n      jumpi\n      mload(0x40)\n      0x08c379a000000000000000000000000000000000000000000000000000000000\n      dup2\n      mstore\n      0x04\n      add\n      tag_84\n      swap1\n      tag_85\n      jump\t// in\n    tag_84:\n      mload(0x40)\n      dup1\n      swap2\n      sub\n      swap1\n      revert\n    tag_83:\n        /* \"CrowdFund.sol\":3839:3847  campaign */\n      dup1\n        /* \"CrowdFund.sol\":3839:3853  campaign.endAt */\n      0x03\n      add\n      0x04\n      swap1\n      sload\n      swap1\n      0x0100\n      exp\n      swap1\n      div\n      0xffffffff\n      and\n        /* \"CrowdFund.sol\":3821:3853  block.timestamp < campaign.endAt */\n      0xffffffff\n      and\n        /* \"CrowdFund.sol\":3821:3836  block.timestamp */\n      timestamp\n        /* \"CrowdFund.sol\":3821:3853  block.timestamp < campaign.endAt */\n      lt\n        /* \"CrowdFund.sol\":3813:3868  require(block.timestamp < campaign.endAt, \"has ended!\") */\n      tag_86\n      jumpi\n      mload(0x40)\n      0x08c379a000000000000000000000000000000000000000000000000000000000\n      dup2\n      mstore\n      0x04\n      add\n      tag_87\n      swap1\n      tag_88\n      jump\t// in\n    tag_87:\n      mload(0x40)\n      dup1\n      swap2\n      sub\n      swap1\n      revert\n    tag_86:\n        /* \"CrowdFund.sol\":3899:3906  _amount */\n      dup2\n        /* \"CrowdFund.sol\":3879:3887  campaign */\n      dup2\n        /* \"CrowdFund.sol\":3879:3895  campaign.pledged */\n      0x02\n      add\n      0x00\n        /* \"CrowdFund.sol\":3879:3906  campaign.pledged += _amount */\n      dup3\n      dup3\n      sload\n      tag_89\n      swap2\n      swap1\n      tag_75\n      jump\t// in\n    tag_89:\n      swap3\n      pop\n      pop\n      dup2\n      swap1\n      sstore\n      pop\n        /* \"CrowdFund.sol\":3986:3993  _amount */\n      dup2\n        /* \"CrowdFund.sol\":3952:3965  pledgedAmount */\n      0x02\n        /* \"CrowdFund.sol\":3952:3970  pledgedAmount[_id] */\n      0x00\n        /* \"CrowdFund.sol\":3966:3969  _id */\n      dup6\n        /* \"CrowdFund.sol\":3952:3970  pledgedAmount[_id] */\n      dup2\n      mstore\n      0x20\n      add\n      swap1\n      dup2\n      mstore\n      0x20\n      add\n      0x00\n      keccak256\n        /* \"CrowdFund.sol\":3952:3982  pledgedAmount[_id][msg.sender] */\n      0x00\n        /* \"CrowdFund.sol\":3971:3981  msg.sender */\n      caller\n        /* \"CrowdFund.sol\":3952:3982  pledgedAmount[_id][msg.sender] */\n      0xffffffffffffffffffffffffffffffffffffffff\n      and\n      0xffffffffffffffffffffffffffffffffffffffff\n      and\n      dup2\n      mstore\n      0x20\n      add\n      swap1\n      dup2\n      mstore\n      0x20\n      add\n      0x00\n      keccak256\n      0x00\n        /* \"CrowdFund.sol\":3952:3993  pledgedAmount[_id][msg.sender] += _amount */\n      dup3\n      dup3\n      sload\n      tag_90\n      swap2\n      swap1\n      tag_75\n      jump\t// in\n    tag_90:\n      swap3\n      pop\n      pop\n      dup2\n      swap1\n      sstore\n      pop\n        /* \"CrowdFund.sol\":4051:4056  token */\n      immutable(\"0x4b4b9efaff899efa2095e6e12f4c7ffa5d130c6cf88a562d7f7bbc11486ed4fb\")\n        /* \"CrowdFund.sol\":4051:4069  token.transferFrom */\n      0xffffffffffffffffffffffffffffffffffffffff\n      and\n      0x23b872dd\n        /* \"CrowdFund.sol\":4070:4080  msg.sender */\n      caller\n        /* \"CrowdFund.sol\":4090:4094  this */\n      address\n        /* \"CrowdFund.sol\":4097:4104  _amount */\n      dup6\n        /* \"CrowdFund.sol\":4051:4105  token.transferFrom(msg.sender, address(this), _amount) */\n      mload(0x40)\n      dup5\n      0xffffffff\n      and\n      0xe0\n      shl\n      dup2\n      mstore\n      0x04\n      add\n      tag_91\n      swap4\n      swap3\n      swap2\n      swap1\n      tag_92\n      jump\t// in\n    tag_91:\n      0x20\n      mload(0x40)\n      dup1\n      dup4\n      sub\n      dup2\n      0x00\n      dup8\n      gas\n      call\n      iszero\n      dup1\n      iszero\n      tag_94\n      jumpi\n      returndatasize\n      0x00\n      dup1\n      returndatacopy\n      revert(0x00, returndatasize)\n    tag_94:\n      pop\n      pop\n      pop\n      pop\n      mload(0x40)\n      returndatasize\n      not(0x1f)\n      0x1f\n      dup3\n      add\n      and\n      dup3\n      add\n      dup1\n      0x40\n      mstore\n      pop\n      dup2\n      add\n      swap1\n      tag_95\n      swap2\n      swap1\n      tag_65\n      jump\t// in\n    tag_95:\n      pop\n        /* \"CrowdFund.sol\":4220:4230  msg.sender */\n      caller\n        /* \"CrowdFund.sol\":4207:4240  Pledged(_id, msg.sender, _amount) */\n      0xffffffffffffffffffffffffffffffffffffffff\n      and\n        /* \"CrowdFund.sol\":4215:4218  _id */\n      dup4\n        /* \"CrowdFund.sol\":4207:4240  Pledged(_id, msg.sender, _amount) */\n      0x2757ac6a40883f4491cc56930ae964df9034e343e660d5179eb01e198336756b\n        /* \"CrowdFund.sol\":4232:4239  _amount */\n      dup5\n        /* \"CrowdFund.sol\":4207:4240  Pledged(_id, msg.sender, _amount) */\n      mload(0x40)\n      tag_96\n      swap2\n      swap1\n      tag_17\n      jump\t// in\n    tag_96:\n      mload(0x40)\n      dup1\n      swap2\n      sub\n      swap1\n      log3\n        /* \"CrowdFund.sol\":3643:4248  {... */\n      pop\n        /* \"CrowdFund.sol\":3594:4248  function pledged(uint _id, uint _amount)external {... */\n      pop\n      pop\n      jump\t// out\n        /* \"CrowdFund.sol\":5080:5748  function claim(uint _id)external {... */\n    tag_37:\n        /* \"CrowdFund.sol\":5123:5148  Campaign storage campaign */\n      0x00\n        /* \"CrowdFund.sol\":5151:5160  campaigns */\n      0x01\n        /* \"CrowdFund.sol\":5151:5165  campaigns[_id] */\n      0x00\n        /* \"CrowdFund.sol\":5161:5164  _id */\n      dup4\n        /* \"CrowdFund.sol\":5151:5165  campaigns[_id] */\n      dup2\n      mstore\n      0x20\n      add\n      swap1\n      dup2\n      mstore\n      0x20\n      add\n      0x00\n      keccak256\n        /* \"CrowdFund.sol\":5123:5165  Campaign storage campaign = campaigns[_id] */\n      swap1\n      pop\n        /* \"CrowdFund.sol\":5197:5205  campaign */\n      dup1\n        /* \"CrowdFund.sol\":5197:5213  campaign.creator */\n      0x00\n      add\n      0x00\n      swap1\n      sload\n      swap1\n      0x0100\n      exp\n      swap1\n      div\n      0xffffffffffffffffffffffffffffffffffffffff\n      and\n        /* \"CrowdFund.sol\":5183:5213  msg.sender == campaign.creator */\n      0xffffffffffffffffffffffffffffffffffffffff\n      and\n        /* \"CrowdFund.sol\":5183:5193  msg.sender */\n      caller\n        /* \"CrowdFund.sol\":5183:5213  msg.sender == campaign.creator */\n      0xffffffffffffffffffffffffffffffffffffffff\n      and\n      eq\n        /* \"CrowdFund.sol\":5175:5229  require(msg.sender == campaign.creator, \"not creator\") */\n      tag_98\n      jumpi\n      mload(0x40)\n      0x08c379a000000000000000000000000000000000000000000000000000000000\n      dup2\n      mstore\n      0x04\n      add\n      tag_99\n      swap1\n      tag_100\n      jump\t// in\n    tag_99:\n      mload(0x40)\n      dup1\n      swap2\n      sub\n      swap1\n      revert\n    tag_98:\n        /* \"CrowdFund.sol\":5265:5273  campaign */\n      dup1\n        /* \"CrowdFund.sol\":5265:5279  campaign.endAt */\n      0x03\n      add\n      0x04\n      swap1\n      sload\n      swap1\n      0x0100\n      exp\n      swap1\n      div\n      0xffffffff\n      and\n        /* \"CrowdFund.sol\":5247:5279  block.timestamp > campaign.endAt */\n      0xffffffff\n      and\n        /* \"CrowdFund.sol\":5247:5262  block.timestamp */\n      timestamp\n        /* \"CrowdFund.sol\":5247:5279  block.timestamp > campaign.endAt */\n      gt\n        /* \"CrowdFund.sol\":5239:5293  require(block.timestamp > campaign.endAt, \"not ended\") */\n      tag_101\n      jumpi\n      mload(0x40)\n      0x08c379a000000000000000000000000000000000000000000000000000000000\n      dup2\n      mstore\n      0x04\n      add\n      tag_102\n      swap1\n      tag_56\n      jump\t// in\n    tag_102:\n      mload(0x40)\n      dup1\n      swap2\n      sub\n      swap1\n      revert\n    tag_101:\n        /* \"CrowdFund.sol\":5331:5339  campaign */\n      dup1\n        /* \"CrowdFund.sol\":5331:5344  campaign.goal */\n      0x01\n      add\n      sload\n        /* \"CrowdFund.sol\":5311:5319  campaign */\n      dup2\n        /* \"CrowdFund.sol\":5311:5327  campaign.pledged */\n      0x02\n      add\n      sload\n        /* \"CrowdFund.sol\":5311:5344  campaign.pledged >= campaign.goal */\n      lt\n      iszero\n        /* \"CrowdFund.sol\":5303:5362  require(campaign.pledged >= campaign.goal, \"pledge < goal\") */\n      tag_103\n      jumpi\n      mload(0x40)\n      0x08c379a000000000000000000000000000000000000000000000000000000000\n      dup2\n      mstore\n      0x04\n      add\n      tag_104\n      swap1\n      tag_105\n      jump\t// in\n    tag_104:\n      mload(0x40)\n      dup1\n      swap2\n      sub\n      swap1\n      revert\n    tag_103:\n        /* \"CrowdFund.sol\":5381:5389  campaign */\n      dup1\n        /* \"CrowdFund.sol\":5381:5397  campaign.claimed */\n      0x03\n      add\n      0x08\n      swap1\n      sload\n      swap1\n      0x0100\n      exp\n      swap1\n      div\n      0xff\n      and\n        /* \"CrowdFund.sol\":5380:5397  !campaign.claimed */\n      iszero\n        /* \"CrowdFund.sol\":5372:5414  require(!campaign.claimed, \"has claimed!\") */\n      tag_106\n      jumpi\n      mload(0x40)\n      0x08c379a000000000000000000000000000000000000000000000000000000000\n      dup2\n      mstore\n      0x04\n      add\n      tag_107\n      swap1\n      tag_108\n      jump\t// in\n    tag_107:\n      mload(0x40)\n      dup1\n      swap2\n      sub\n      swap1\n      revert\n    tag_106:\n        /* \"CrowdFund.sol\":5478:5482  true */\n      0x01\n        /* \"CrowdFund.sol\":5459:5467  campaign */\n      dup2\n        /* \"CrowdFund.sol\":5459:5475  campaign.claimed */\n      0x03\n      add\n      0x08\n        /* \"CrowdFund.sol\":5459:5482  campaign.claimed = true */\n      0x0100\n      exp\n      dup2\n      sload\n      dup2\n      0xff\n      mul\n      not\n      and\n      swap1\n      dup4\n      iszero\n      iszero\n      mul\n      or\n      swap1\n      sstore\n      pop\n        /* \"CrowdFund.sol\":5571:5576  token */\n      immutable(\"0x4b4b9efaff899efa2095e6e12f4c7ffa5d130c6cf88a562d7f7bbc11486ed4fb\")\n        /* \"CrowdFund.sol\":5571:5585  token.transfer */\n      0xffffffffffffffffffffffffffffffffffffffff\n      and\n      0xa9059cbb\n        /* \"CrowdFund.sol\":5586:5596  msg.sender */\n      caller\n        /* \"CrowdFund.sol\":5598:5606  campaign */\n      dup4\n        /* \"CrowdFund.sol\":5598:5614  campaign.pledged */\n      0x02\n      add\n      sload\n        /* \"CrowdFund.sol\":5571:5615  token.transfer(msg.sender, campaign.pledged) */\n      mload(0x40)\n      dup4\n      0xffffffff\n      and\n      0xe0\n      shl\n      dup2\n      mstore\n      0x04\n      add\n      tag_109\n      swap3\n      swap2\n      swap1\n      tag_61\n      jump\t// in\n    tag_109:\n      0x20\n      mload(0x40)\n      dup1\n      dup4\n      sub\n      dup2\n      0x00\n      dup8\n      gas\n      call\n      iszero\n      dup1\n      iszero\n      tag_111\n      jumpi\n      returndatasize\n      0x00\n      dup1\n      returndatacopy\n      revert(0x00, returndatasize)\n    tag_111:\n      pop\n      pop\n      pop\n      pop\n      mload(0x40)\n      returndatasize\n      not(0x1f)\n      0x1f\n      dup3\n      add\n      and\n      dup3\n      add\n      dup1\n      0x40\n      mstore\n      pop\n      dup2\n      add\n      swap1\n      tag_112\n      swap2\n      swap1\n      tag_65\n      jump\t// in\n    tag_112:\n      pop\n        /* \"CrowdFund.sol\":5737:5740  _id */\n      dup2\n        /* \"CrowdFund.sol\":5731:5741  Claim(_id) */\n      0x7bb2b3c10797baccb6f8c4791f1edd6ca2f0d028ee0eda64b01a9a57e3a653f7\n      mload(0x40)\n      mload(0x40)\n      dup1\n      swap2\n      sub\n      swap1\n      log2\n        /* \"CrowdFund.sol\":5113:5748  {... */\n      pop\n        /* \"CrowdFund.sol\":5080:5748  function claim(uint _id)external {... */\n      pop\n      jump\t// out\n        /* \"CrowdFund.sol\":3186:3568  function cancel(uint _id)external {... */\n    tag_40:\n        /* \"CrowdFund.sol\":3317:3341  Campaign memory campaign */\n      0x00\n        /* \"CrowdFund.sol\":3344:3353  campaigns */\n      0x01\n        /* \"CrowdFund.sol\":3344:3358  campaigns[_id] */\n      0x00\n        /* \"CrowdFund.sol\":3354:3357  _id */\n      dup4\n        /* \"CrowdFund.sol\":3344:3358  campaigns[_id] */\n      dup2\n      mstore\n      0x20\n      add\n      swap1\n      dup2\n      mstore\n      0x20\n      add\n      0x00\n      keccak256\n        /* \"CrowdFund.sol\":3317:3358  Campaign memory campaign = campaigns[_id] */\n      mload(0x40)\n      dup1\n      0xc0\n      add\n      0x40\n      mstore\n      swap1\n      dup2\n      0x00\n      dup3\n      add\n      0x00\n      swap1\n      sload\n      swap1\n      0x0100\n      exp\n      swap1\n      div\n      0xffffffffffffffffffffffffffffffffffffffff\n      and\n      0xffffffffffffffffffffffffffffffffffffffff\n      and\n      0xffffffffffffffffffffffffffffffffffffffff\n      and\n      dup2\n      mstore\n      0x20\n      add\n      0x01\n      dup3\n      add\n      sload\n      dup2\n      mstore\n      0x20\n      add\n      0x02\n      dup3\n      add\n      sload\n      dup2\n      mstore\n      0x20\n      add\n      0x03\n      dup3\n      add\n      0x00\n      swap1\n      sload\n      swap1\n      0x0100\n      exp\n      swap1\n      div\n      0xffffffff\n      and\n      0xffffffff\n      and\n      0xffffffff\n      and\n      dup2\n      mstore\n      0x20\n      add\n      0x03\n      dup3\n      add\n      0x04\n      swap1\n      sload\n      swap1\n      0x0100\n      exp\n      swap1\n      div\n      0xffffffff\n      and\n      0xffffffff\n      and\n      0xffffffff\n      and\n      dup2\n      mstore\n      0x20\n      add\n      0x03\n      dup3\n      add\n      0x08\n      swap1\n      sload\n      swap1\n      0x0100\n      exp\n      swap1\n      div\n      0xff\n      and\n      iszero\n      iszero\n      iszero\n      iszero\n      dup2\n      mstore\n      pop\n      pop\n      swap1\n      pop\n        /* \"CrowdFund.sol\":3390:3398  campaign */\n      dup1\n        /* \"CrowdFund.sol\":3390:3406  campaign.creator */\n      0x00\n      add\n      mload\n        /* \"CrowdFund.sol\":3376:3406  msg.sender == campaign.creator */\n      0xffffffffffffffffffffffffffffffffffffffff\n      and\n        /* \"CrowdFund.sol\":3376:3386  msg.sender */\n      caller\n        /* \"CrowdFund.sol\":3376:3406  msg.sender == campaign.creator */\n      0xffffffffffffffffffffffffffffffffffffffff\n      and\n      eq\n        /* \"CrowdFund.sol\":3368:3423  require(msg.sender == campaign.creator, \"not creator!\") */\n      tag_114\n      jumpi\n      mload(0x40)\n      0x08c379a000000000000000000000000000000000000000000000000000000000\n      dup2\n      mstore\n      0x04\n      add\n      tag_115\n      swap1\n      tag_116\n      jump\t// in\n    tag_115:\n      mload(0x40)\n      dup1\n      swap2\n      sub\n      swap1\n      revert\n    tag_114:\n        /* \"CrowdFund.sol\":3459:3467  campaign */\n      dup1\n        /* \"CrowdFund.sol\":3459:3475  campaign.startAt */\n      0x60\n      add\n      mload\n        /* \"CrowdFund.sol\":3441:3475  block.timestamp < campaign.startAt */\n      0xffffffff\n      and\n        /* \"CrowdFund.sol\":3441:3456  block.timestamp */\n      timestamp\n        /* \"CrowdFund.sol\":3441:3475  block.timestamp < campaign.startAt */\n      lt\n        /* \"CrowdFund.sol\":3433:3504  require(block.timestamp < campaign.startAt, \"has started can't cancel\") */\n      tag_117\n      jumpi\n      mload(0x40)\n      0x08c379a000000000000000000000000000000000000000000000000000000000\n      dup2\n      mstore\n      0x04\n      add\n      tag_118\n      swap1\n      tag_119\n      jump\t// in\n    tag_118:\n      mload(0x40)\n      dup1\n      swap2\n      sub\n      swap1\n      revert\n    tag_117:\n        /* \"CrowdFund.sol\":3521:3530  campaigns */\n      0x01\n        /* \"CrowdFund.sol\":3521:3535  campaigns[_id] */\n      0x00\n        /* \"CrowdFund.sol\":3531:3534  _id */\n      dup4\n        /* \"CrowdFund.sol\":3521:3535  campaigns[_id] */\n      dup2\n      mstore\n      0x20\n      add\n      swap1\n      dup2\n      mstore\n      0x20\n      add\n      0x00\n      keccak256\n      0x00\n        /* \"CrowdFund.sol\":3514:3535  delete campaigns[_id] */\n      dup1\n      dup3\n      add\n      exp(0x0100, 0x00)\n      dup2\n      sload\n      swap1\n      0xffffffffffffffffffffffffffffffffffffffff\n      mul\n      not\n      and\n      swap1\n      sstore\n      0x01\n      dup3\n      add\n      0x00\n      swap1\n      sstore\n      0x02\n      dup3\n      add\n      0x00\n      swap1\n      sstore\n      0x03\n      dup3\n      add\n      exp(0x0100, 0x00)\n      dup2\n      sload\n      swap1\n      0xffffffff\n      mul\n      not\n      and\n      swap1\n      sstore\n      0x03\n      dup3\n      add\n      exp(0x0100, 0x04)\n      dup2\n      sload\n      swap1\n      0xffffffff\n      mul\n      not\n      and\n      swap1\n      sstore\n      0x03\n      dup3\n      add\n      exp(0x0100, 0x08)\n      dup2\n      sload\n      swap1\n      0xff\n      mul\n      not\n      and\n      swap1\n      sstore\n      pop\n      pop\n        /* \"CrowdFund.sol\":3550:3561  Cancel(_id) */\n      0x8bf30e7ff26833413be5f69e1d373744864d600b664204b4a2f9844a8eedb9ed\n        /* \"CrowdFund.sol\":3557:3560  _id */\n      dup3\n        /* \"CrowdFund.sol\":3550:3561  Cancel(_id) */\n      mload(0x40)\n      tag_120\n      swap2\n      swap1\n      tag_17\n      jump\t// in\n    tag_120:\n      mload(0x40)\n      dup1\n      swap2\n      sub\n      swap1\n      log1\n        /* \"CrowdFund.sol\":3220:3568  {... */\n      pop\n        /* \"CrowdFund.sol\":3186:3568  function cancel(uint _id)external {... */\n      pop\n      jump\t// out\n        /* \"CrowdFund.sol\":4273:5048  function unpledge(uint _id, uint _amount)external {... */\n    tag_43:\n        /* \"CrowdFund.sol\":4333:4358  Campaign storage campaign */\n      0x00\n        /* \"CrowdFund.sol\":4361:4370  campaigns */\n      0x01\n        /* \"CrowdFund.sol\":4361:4375  campaigns[_id] */\n      0x00\n        /* \"CrowdFund.sol\":4371:4374  _id */\n      dup5\n        /* \"CrowdFund.sol\":4361:4375  campaigns[_id] */\n      dup2\n      mstore\n      0x20\n      add\n      swap1\n      dup2\n      mstore\n      0x20\n      add\n      0x00\n      keccak256\n        /* \"CrowdFund.sol\":4333:4375  Campaign storage campaign = campaigns[_id] */\n      swap1\n      pop\n        /* \"CrowdFund.sol\":4411:4419  campaign */\n      dup1\n        /* \"CrowdFund.sol\":4411:4425  campaign.endAt */\n      0x03\n      add\n      0x04\n      swap1\n      sload\n      swap1\n      0x0100\n      exp\n      swap1\n      div\n      0xffffffff\n      and\n        /* \"CrowdFund.sol\":4393:4425  block.timestamp < campaign.endAt */\n      0xffffffff\n      and\n        /* \"CrowdFund.sol\":4393:4408  block.timestamp */\n      timestamp\n        /* \"CrowdFund.sol\":4393:4425  block.timestamp < campaign.endAt */\n      lt\n        /* \"CrowdFund.sol\":4385:4440  require(block.timestamp < campaign.endAt, \"has ended!\") */\n      tag_122\n      jumpi\n      mload(0x40)\n      0x08c379a000000000000000000000000000000000000000000000000000000000\n      dup2\n      mstore\n      0x04\n      add\n      tag_123\n      swap1\n      tag_88\n      jump\t// in\n    tag_123:\n      mload(0x40)\n      dup1\n      swap2\n      sub\n      swap1\n      revert\n    tag_122:\n        /* \"CrowdFund.sol\":4649:4656  _amount */\n      dup2\n        /* \"CrowdFund.sol\":4629:4637  campaign */\n      dup2\n        /* \"CrowdFund.sol\":4629:4645  campaign.pledged */\n      0x02\n      add\n      0x00\n        /* \"CrowdFund.sol\":4629:4656  campaign.pledged -= _amount */\n      dup3\n      dup3\n      sload\n      tag_124\n      swap2\n      swap1\n      tag_125\n      jump\t// in\n    tag_124:\n      swap3\n      pop\n      pop\n      dup2\n      swap1\n      sstore\n      pop\n        /* \"CrowdFund.sol\":4809:4816  _amount */\n      dup2\n        /* \"CrowdFund.sol\":4775:4788  pledgedAmount */\n      0x02\n        /* \"CrowdFund.sol\":4775:4793  pledgedAmount[_id] */\n      0x00\n        /* \"CrowdFund.sol\":4789:4792  _id */\n      dup6\n        /* \"CrowdFund.sol\":4775:4793  pledgedAmount[_id] */\n      dup2\n      mstore\n      0x20\n      add\n      swap1\n      dup2\n      mstore\n      0x20\n      add\n      0x00\n      keccak256\n        /* \"CrowdFund.sol\":4775:4805  pledgedAmount[_id][msg.sender] */\n      0x00\n        /* \"CrowdFund.sol\":4794:4804  msg.sender */\n      caller\n        /* \"CrowdFund.sol\":4775:4805  pledgedAmount[_id][msg.sender] */\n      0xffffffffffffffffffffffffffffffffffffffff\n      and\n      0xffffffffffffffffffffffffffffffffffffffff\n      and\n      dup2\n      mstore\n      0x20\n      add\n      swap1\n      dup2\n      mstore\n      0x20\n      add\n      0x00\n      keccak256\n      0x00\n        /* \"CrowdFund.sol\":4775:4816  pledgedAmount[_id][msg.sender] -= _amount */\n      dup3\n      dup3\n      sload\n      tag_126\n      swap2\n      swap1\n      tag_125\n      jump\t// in\n    tag_126:\n      swap3\n      pop\n      pop\n      dup2\n      swap1\n      sstore\n      pop\n        /* \"CrowdFund.sol\":4863:4868  token */\n      immutable(\"0x4b4b9efaff899efa2095e6e12f4c7ffa5d130c6cf88a562d7f7bbc11486ed4fb\")\n        /* \"CrowdFund.sol\":4863:4877  token.transfer */\n      0xffffffffffffffffffffffffffffffffffffffff\n      and\n      0xa9059cbb\n        /* \"CrowdFund.sol\":4878:4888  msg.sender */\n      caller\n        /* \"CrowdFund.sol\":4890:4897  _amount */\n      dup5\n        /* \"CrowdFund.sol\":4863:4898  token.transfer(msg.sender, _amount) */\n      mload(0x40)\n      dup4\n      0xffffffff\n      and\n      0xe0\n      shl\n      dup2\n      mstore\n      0x04\n      add\n      tag_127\n      swap3\n      swap2\n      swap1\n      tag_61\n      jump\t// in\n    tag_127:\n      0x20\n      mload(0x40)\n      dup1\n      dup4\n      sub\n      dup2\n      0x00\n      dup8\n      gas\n      call\n      iszero\n      dup1\n      iszero\n      tag_129\n      jumpi\n      returndatasize\n      0x00\n      dup1\n      returndatacopy\n      revert(0x00, returndatasize)\n    tag_129:\n      pop\n      pop\n      pop\n      pop\n      mload(0x40)\n      returndatasize\n      not(0x1f)\n      0x1f\n      dup3\n      add\n      and\n      dup3\n      add\n      dup1\n      0x40\n      mstore\n      pop\n      dup2\n      add\n      swap1\n      tag_130\n      swap2\n      swap1\n      tag_65\n      jump\t// in\n    tag_130:\n      pop\n        /* \"CrowdFund.sol\":5019:5029  msg.sender */\n      caller\n        /* \"CrowdFund.sol\":5004:5039  Unpledged(_id, msg.sender, _amount) */\n      0xffffffffffffffffffffffffffffffffffffffff\n      and\n        /* \"CrowdFund.sol\":5014:5017  _id */\n      dup4\n        /* \"CrowdFund.sol\":5004:5039  Unpledged(_id, msg.sender, _amount) */\n      0xfcd29b1632c6748a9a4bb9b4cd5c6486c3c84a8550dce2368f83fef3969d9685\n        /* \"CrowdFund.sol\":5031:5038  _amount */\n      dup5\n        /* \"CrowdFund.sol\":5004:5039  Unpledged(_id, msg.sender, _amount) */\n      mload(0x40)\n      tag_131\n      swap2\n      swap1\n      tag_17\n      jump\t// in\n    tag_131:\n      mload(0x40)\n      dup1\n      swap2\n      sub\n      swap1\n      log3\n        /* \"CrowdFund.sol\":4323:5048  {... */\n      pop\n        /* \"CrowdFund.sol\":4273:5048  function unpledge(uint _id, uint _amount)external {... */\n      pop\n      pop\n      jump\t// out\n        /* \"CrowdFund.sol\":1933:1996  mapping (uint => mapping (address=> uint)) public pledgedAmount */\n    tag_47:\n      mstore(0x20, 0x02)\n      dup2\n      0x00\n      mstore\n      mstore(0x20, keccak256(0x00, 0x40))\n      dup1\n      0x00\n      mstore\n      keccak256(0x00, 0x40)\n      0x00\n      swap2\n      pop\n      swap2\n      pop\n      pop\n      sload\n      dup2\n      jump\t// out\n        /* \"CrowdFund.sol\":1529:1558  IERC20 public immutable token */\n    tag_50:\n      immutable(\"0x4b4b9efaff899efa2095e6e12f4c7ffa5d130c6cf88a562d7f7bbc11486ed4fb\")\n      dup2\n      jump\t// out\n        /* \"#utility.yul\":7:84   */\n    tag_132:\n        /* \"#utility.yul\":44:51   */\n      0x00\n        /* \"#utility.yul\":73:78   */\n      dup2\n        /* \"#utility.yul\":62:78   */\n      swap1\n      pop\n        /* \"#utility.yul\":7:84   */\n      swap2\n      swap1\n      pop\n      jump\t// out\n        /* \"#utility.yul\":90:208   */\n    tag_133:\n        /* \"#utility.yul\":177:201   */\n      tag_186\n        /* \"#utility.yul\":195:200   */\n      dup2\n        /* \"#utility.yul\":177:201   */\n      tag_132\n      jump\t// in\n    tag_186:\n        /* \"#utility.yul\":172:175   */\n      dup3\n        /* \"#utility.yul\":165:202   */\n      mstore\n        /* \"#utility.yul\":90:208   */\n      pop\n      pop\n      jump\t// out\n        /* \"#utility.yul\":214:436   */\n    tag_17:\n        /* \"#utility.yul\":307:311   */\n      0x00\n        /* \"#utility.yul\":345:347   */\n      0x20\n        /* \"#utility.yul\":334:343   */\n      dup3\n        /* \"#utility.yul\":330:348   */\n      add\n        /* \"#utility.yul\":322:348   */\n      swap1\n      pop\n        /* \"#utility.yul\":358:429   */\n      tag_188\n        /* \"#utility.yul\":426:427   */\n      0x00\n        /* \"#utility.yul\":415:424   */\n      dup4\n        /* \"#utility.yul\":411:428   */\n      add\n        /* \"#utility.yul\":402:408   */\n      dup5\n        /* \"#utility.yul\":358:429   */\n      tag_133\n      jump\t// in\n    tag_188:\n        /* \"#utility.yul\":214:436   */\n      swap3\n      swap2\n      pop\n      pop\n      jump\t// out\n        /* \"#utility.yul\":523:640   */\n    tag_135:\n        /* \"#utility.yul\":632:633   */\n      0x00\n        /* \"#utility.yul\":629:630   */\n      dup1\n        /* \"#utility.yul\":622:634   */\n      revert\n        /* \"#utility.yul\":769:891   */\n    tag_137:\n        /* \"#utility.yul\":842:866   */\n      tag_193\n        /* \"#utility.yul\":860:865   */\n      dup2\n        /* \"#utility.yul\":842:866   */\n      tag_132\n      jump\t// in\n    tag_193:\n        /* \"#utility.yul\":835:840   */\n      dup2\n        /* \"#utility.yul\":832:867   */\n      eq\n        /* \"#utility.yul\":822:885   */\n      tag_194\n      jumpi\n        /* \"#utility.yul\":881:882   */\n      0x00\n        /* \"#utility.yul\":878:879   */\n      dup1\n        /* \"#utility.yul\":871:883   */\n      revert\n        /* \"#utility.yul\":822:885   */\n    tag_194:\n        /* \"#utility.yul\":769:891   */\n      pop\n      jump\t// out\n        /* \"#utility.yul\":897:1036   */\n    tag_138:\n        /* \"#utility.yul\":943:948   */\n      0x00\n        /* \"#utility.yul\":981:987   */\n      dup2\n        /* \"#utility.yul\":968:988   */\n      calldataload\n        /* \"#utility.yul\":959:988   */\n      swap1\n      pop\n        /* \"#utility.yul\":997:1030   */\n      tag_196\n        /* \"#utility.yul\":1024:1029   */\n      dup2\n        /* \"#utility.yul\":997:1030   */\n      tag_137\n      jump\t// in\n    tag_196:\n        /* \"#utility.yul\":897:1036   */\n      swap3\n      swap2\n      pop\n      pop\n      jump\t// out\n        /* \"#utility.yul\":1042:1371   */\n    tag_20:\n        /* \"#utility.yul\":1101:1107   */\n      0x00\n        /* \"#utility.yul\":1150:1152   */\n      0x20\n        /* \"#utility.yul\":1138:1147   */\n      dup3\n        /* \"#utility.yul\":1129:1136   */\n      dup5\n        /* \"#utility.yul\":1125:1148   */\n      sub\n        /* \"#utility.yul\":1121:1153   */\n      slt\n        /* \"#utility.yul\":1118:1237   */\n      iszero\n      tag_198\n      jumpi\n        /* \"#utility.yul\":1156:1235   */\n      tag_199\n      tag_135\n      jump\t// in\n    tag_199:\n        /* \"#utility.yul\":1118:1237   */\n    tag_198:\n        /* \"#utility.yul\":1276:1277   */\n      0x00\n        /* \"#utility.yul\":1301:1354   */\n      tag_200\n        /* \"#utility.yul\":1346:1353   */\n      dup5\n        /* \"#utility.yul\":1337:1343   */\n      dup3\n        /* \"#utility.yul\":1326:1335   */\n      dup6\n        /* \"#utility.yul\":1322:1344   */\n      add\n        /* \"#utility.yul\":1301:1354   */\n      tag_138\n      jump\t// in\n    tag_200:\n        /* \"#utility.yul\":1291:1354   */\n      swap2\n      pop\n        /* \"#utility.yul\":1247:1364   */\n      pop\n        /* \"#utility.yul\":1042:1371   */\n      swap3\n      swap2\n      pop\n      pop\n      jump\t// out\n        /* \"#utility.yul\":1377:1503   */\n    tag_139:\n        /* \"#utility.yul\":1414:1421   */\n      0x00\n        /* \"#utility.yul\":1454:1496   */\n      0xffffffffffffffffffffffffffffffffffffffff\n        /* \"#utility.yul\":1447:1452   */\n      dup3\n        /* \"#utility.yul\":1443:1497   */\n      and\n        /* \"#utility.yul\":1432:1497   */\n      swap1\n      pop\n        /* \"#utility.yul\":1377:1503   */\n      swap2\n      swap1\n      pop\n      jump\t// out\n        /* \"#utility.yul\":1509:1605   */\n    tag_140:\n        /* \"#utility.yul\":1546:1553   */\n      0x00\n        /* \"#utility.yul\":1575:1599   */\n      tag_203\n        /* \"#utility.yul\":1593:1598   */\n      dup3\n        /* \"#utility.yul\":1575:1599   */\n      tag_139\n      jump\t// in\n    tag_203:\n        /* \"#utility.yul\":1564:1599   */\n      swap1\n      pop\n        /* \"#utility.yul\":1509:1605   */\n      swap2\n      swap1\n      pop\n      jump\t// out\n        /* \"#utility.yul\":1611:1729   */\n    tag_141:\n        /* \"#utility.yul\":1698:1722   */\n      tag_205\n        /* \"#utility.yul\":1716:1721   */\n      dup2\n        /* \"#utility.yul\":1698:1722   */\n      tag_140\n      jump\t// in\n    tag_205:\n        /* \"#utility.yul\":1693:1696   */\n      dup3\n        /* \"#utility.yul\":1686:1723   */\n      mstore\n        /* \"#utility.yul\":1611:1729   */\n      pop\n      pop\n      jump\t// out\n        /* \"#utility.yul\":1735:1828   */\n    tag_142:\n        /* \"#utility.yul\":1771:1778   */\n      0x00\n        /* \"#utility.yul\":1811:1821   */\n      0xffffffff\n        /* \"#utility.yul\":1804:1809   */\n      dup3\n        /* \"#utility.yul\":1800:1822   */\n      and\n        /* \"#utility.yul\":1789:1822   */\n      swap1\n      pop\n        /* \"#utility.yul\":1735:1828   */\n      swap2\n      swap1\n      pop\n      jump\t// out\n        /* \"#utility.yul\":1834:1949   */\n    tag_143:\n        /* \"#utility.yul\":1919:1942   */\n      tag_208\n        /* \"#utility.yul\":1936:1941   */\n      dup2\n        /* \"#utility.yul\":1919:1942   */\n      tag_142\n      jump\t// in\n    tag_208:\n        /* \"#utility.yul\":1914:1917   */\n      dup3\n        /* \"#utility.yul\":1907:1943   */\n      mstore\n        /* \"#utility.yul\":1834:1949   */\n      pop\n      pop\n      jump\t// out\n        /* \"#utility.yul\":1955:2045   */\n    tag_144:\n        /* \"#utility.yul\":1989:1996   */\n      0x00\n        /* \"#utility.yul\":2032:2037   */\n      dup2\n        /* \"#utility.yul\":2025:2038   */\n      iszero\n        /* \"#utility.yul\":2018:2039   */\n      iszero\n        /* \"#utility.yul\":2007:2039   */\n      swap1\n      pop\n        /* \"#utility.yul\":1955:2045   */\n      swap2\n      swap1\n      pop\n      jump\t// out\n        /* \"#utility.yul\":2051:2160   */\n    tag_145:\n        /* \"#utility.yul\":2132:2153   */\n      tag_211\n        /* \"#utility.yul\":2147:2152   */\n      dup2\n        /* \"#utility.yul\":2132:2153   */\n      tag_144\n      jump\t// in\n    tag_211:\n        /* \"#utility.yul\":2127:2130   */\n      dup3\n        /* \"#utility.yul\":2120:2154   */\n      mstore\n        /* \"#utility.yul\":2051:2160   */\n      pop\n      pop\n      jump\t// out\n        /* \"#utility.yul\":2166:2921   */\n    tag_23:\n        /* \"#utility.yul\":2389:2393   */\n      0x00\n        /* \"#utility.yul\":2427:2430   */\n      0xc0\n        /* \"#utility.yul\":2416:2425   */\n      dup3\n        /* \"#utility.yul\":2412:2431   */\n      add\n        /* \"#utility.yul\":2404:2431   */\n      swap1\n      pop\n        /* \"#utility.yul\":2441:2512   */\n      tag_213\n        /* \"#utility.yul\":2509:2510   */\n      0x00\n        /* \"#utility.yul\":2498:2507   */\n      dup4\n        /* \"#utility.yul\":2494:2511   */\n      add\n        /* \"#utility.yul\":2485:2491   */\n      dup10\n        /* \"#utility.yul\":2441:2512   */\n      tag_141\n      jump\t// in\n    tag_213:\n        /* \"#utility.yul\":2522:2594   */\n      tag_214\n        /* \"#utility.yul\":2590:2592   */\n      0x20\n        /* \"#utility.yul\":2579:2588   */\n      dup4\n        /* \"#utility.yul\":2575:2593   */\n      add\n        /* \"#utility.yul\":2566:2572   */\n      dup9\n        /* \"#utility.yul\":2522:2594   */\n      tag_133\n      jump\t// in\n    tag_214:\n        /* \"#utility.yul\":2604:2676   */\n      tag_215\n        /* \"#utility.yul\":2672:2674   */\n      0x40\n        /* \"#utility.yul\":2661:2670   */\n      dup4\n        /* \"#utility.yul\":2657:2675   */\n      add\n        /* \"#utility.yul\":2648:2654   */\n      dup8\n        /* \"#utility.yul\":2604:2676   */\n      tag_133\n      jump\t// in\n    tag_215:\n        /* \"#utility.yul\":2686:2756   */\n      tag_216\n        /* \"#utility.yul\":2752:2754   */\n      0x60\n        /* \"#utility.yul\":2741:2750   */\n      dup4\n        /* \"#utility.yul\":2737:2755   */\n      add\n        /* \"#utility.yul\":2728:2734   */\n      dup7\n        /* \"#utility.yul\":2686:2756   */\n      tag_143\n      jump\t// in\n    tag_216:\n        /* \"#utility.yul\":2766:2837   */\n      tag_217\n        /* \"#utility.yul\":2832:2835   */\n      0x80\n        /* \"#utility.yul\":2821:2830   */\n      dup4\n        /* \"#utility.yul\":2817:2836   */\n      add\n        /* \"#utility.yul\":2808:2814   */\n      dup6\n        /* \"#utility.yul\":2766:2837   */\n      tag_143\n      jump\t// in\n    tag_217:\n        /* \"#utility.yul\":2847:2914   */\n      tag_218\n        /* \"#utility.yul\":2909:2912   */\n      0xa0\n        /* \"#utility.yul\":2898:2907   */\n      dup4\n        /* \"#utility.yul\":2894:2913   */\n      add\n        /* \"#utility.yul\":2885:2891   */\n      dup5\n        /* \"#utility.yul\":2847:2914   */\n      tag_145\n      jump\t// in\n    tag_218:\n        /* \"#utility.yul\":2166:2921   */\n      swap8\n      swap7\n      pop\n      pop\n      pop\n      pop\n      pop\n      pop\n      pop\n      jump\t// out\n        /* \"#utility.yul\":2927:3047   */\n    tag_146:\n        /* \"#utility.yul\":2999:3022   */\n      tag_220\n        /* \"#utility.yul\":3016:3021   */\n      dup2\n        /* \"#utility.yul\":2999:3022   */\n      tag_142\n      jump\t// in\n    tag_220:\n        /* \"#utility.yul\":2992:2997   */\n      dup2\n        /* \"#utility.yul\":2989:3023   */\n      eq\n        /* \"#utility.yul\":2979:3041   */\n      tag_221\n      jumpi\n        /* \"#utility.yul\":3037:3038   */\n      0x00\n        /* \"#utility.yul\":3034:3035   */\n      dup1\n        /* \"#utility.yul\":3027:3039   */\n      revert\n        /* \"#utility.yul\":2979:3041   */\n    tag_221:\n        /* \"#utility.yul\":2927:3047   */\n      pop\n      jump\t// out\n        /* \"#utility.yul\":3053:3190   */\n    tag_147:\n        /* \"#utility.yul\":3098:3103   */\n      0x00\n        /* \"#utility.yul\":3136:3142   */\n      dup2\n        /* \"#utility.yul\":3123:3143   */\n      calldataload\n        /* \"#utility.yul\":3114:3143   */\n      swap1\n      pop\n        /* \"#utility.yul\":3152:3184   */\n      tag_223\n        /* \"#utility.yul\":3178:3183   */\n      dup2\n        /* \"#utility.yul\":3152:3184   */\n      tag_146\n      jump\t// in\n    tag_223:\n        /* \"#utility.yul\":3053:3190   */\n      swap3\n      swap2\n      pop\n      pop\n      jump\t// out\n        /* \"#utility.yul\":3196:3811   */\n    tag_29:\n        /* \"#utility.yul\":3271:3277   */\n      0x00\n        /* \"#utility.yul\":3279:3285   */\n      dup1\n        /* \"#utility.yul\":3287:3293   */\n      0x00\n        /* \"#utility.yul\":3336:3338   */\n      0x60\n        /* \"#utility.yul\":3324:3333   */\n      dup5\n        /* \"#utility.yul\":3315:3322   */\n      dup7\n        /* \"#utility.yul\":3311:3334   */\n      sub\n        /* \"#utility.yul\":3307:3339   */\n      slt\n        /* \"#utility.yul\":3304:3423   */\n      iszero\n      tag_225\n      jumpi\n        /* \"#utility.yul\":3342:3421   */\n      tag_226\n      tag_135\n      jump\t// in\n    tag_226:\n        /* \"#utility.yul\":3304:3423   */\n    tag_225:\n        /* \"#utility.yul\":3462:3463   */\n      0x00\n        /* \"#utility.yul\":3487:3540   */\n      tag_227\n        /* \"#utility.yul\":3532:3539   */\n      dup7\n        /* \"#utility.yul\":3523:3529   */\n      dup3\n        /* \"#utility.yul\":3512:3521   */\n      dup8\n        /* \"#utility.yul\":3508:3530   */\n      add\n        /* \"#utility.yul\":3487:3540   */\n      tag_138\n      jump\t// in\n    tag_227:\n        /* \"#utility.yul\":3477:3540   */\n      swap4\n      pop\n        /* \"#utility.yul\":3433:3550   */\n      pop\n        /* \"#utility.yul\":3589:3591   */\n      0x20\n        /* \"#utility.yul\":3615:3667   */\n      tag_228\n        /* \"#utility.yul\":3659:3666   */\n      dup7\n        /* \"#utility.yul\":3650:3656   */\n      dup3\n        /* \"#utility.yul\":3639:3648   */\n      dup8\n        /* \"#utility.yul\":3635:3657   */\n      add\n        /* \"#utility.yul\":3615:3667   */\n      tag_147\n      jump\t// in\n    tag_228:\n        /* \"#utility.yul\":3605:3667   */\n      swap3\n      pop\n        /* \"#utility.yul\":3560:3677   */\n      pop\n        /* \"#utility.yul\":3716:3718   */\n      0x40\n        /* \"#utility.yul\":3742:3794   */\n      tag_229\n        /* \"#utility.yul\":3786:3793   */\n      dup7\n        /* \"#utility.yul\":3777:3783   */\n      dup3\n        /* \"#utility.yul\":3766:3775   */\n      dup8\n        /* \"#utility.yul\":3762:3784   */\n      add\n        /* \"#utility.yul\":3742:3794   */\n      tag_147\n      jump\t// in\n    tag_229:\n        /* \"#utility.yul\":3732:3794   */\n      swap2\n      pop\n        /* \"#utility.yul\":3687:3804   */\n      pop\n        /* \"#utility.yul\":3196:3811   */\n      swap3\n      pop\n      swap3\n      pop\n      swap3\n      jump\t// out\n        /* \"#utility.yul\":3817:4291   */\n    tag_33:\n        /* \"#utility.yul\":3885:3891   */\n      0x00\n        /* \"#utility.yul\":3893:3899   */\n      dup1\n        /* \"#utility.yul\":3942:3944   */\n      0x40\n        /* \"#utility.yul\":3930:3939   */\n      dup4\n        /* \"#utility.yul\":3921:3928   */\n      dup6\n        /* \"#utility.yul\":3917:3940   */\n      sub\n        /* \"#utility.yul\":3913:3945   */\n      slt\n        /* \"#utility.yul\":3910:4029   */\n      iszero\n      tag_231\n      jumpi\n        /* \"#utility.yul\":3948:4027   */\n      tag_232\n      tag_135\n      jump\t// in\n    tag_232:\n        /* \"#utility.yul\":3910:4029   */\n    tag_231:\n        /* \"#utility.yul\":4068:4069   */\n      0x00\n        /* \"#utility.yul\":4093:4146   */\n      tag_233\n        /* \"#utility.yul\":4138:4145   */\n      dup6\n        /* \"#utility.yul\":4129:4135   */\n      dup3\n        /* \"#utility.yul\":4118:4127   */\n      dup7\n        /* \"#utility.yul\":4114:4136   */\n      add\n        /* \"#utility.yul\":4093:4146   */\n      tag_138\n      jump\t// in\n    tag_233:\n        /* \"#utility.yul\":4083:4146   */\n      swap3\n      pop\n        /* \"#utility.yul\":4039:4156   */\n      pop\n        /* \"#utility.yul\":4195:4197   */\n      0x20\n        /* \"#utility.yul\":4221:4274   */\n      tag_234\n        /* \"#utility.yul\":4266:4273   */\n      dup6\n        /* \"#utility.yul\":4257:4263   */\n      dup3\n        /* \"#utility.yul\":4246:4255   */\n      dup7\n        /* \"#utility.yul\":4242:4264   */\n      add\n        /* \"#utility.yul\":4221:4274   */\n      tag_138\n      jump\t// in\n    tag_234:\n        /* \"#utility.yul\":4211:4274   */\n      swap2\n      pop\n        /* \"#utility.yul\":4166:4284   */\n      pop\n        /* \"#utility.yul\":3817:4291   */\n      swap3\n      pop\n      swap3\n      swap1\n      pop\n      jump\t// out\n        /* \"#utility.yul\":4297:4419   */\n    tag_148:\n        /* \"#utility.yul\":4370:4394   */\n      tag_236\n        /* \"#utility.yul\":4388:4393   */\n      dup2\n        /* \"#utility.yul\":4370:4394   */\n      tag_140\n      jump\t// in\n    tag_236:\n        /* \"#utility.yul\":4363:4368   */\n      dup2\n        /* \"#utility.yul\":4360:4395   */\n      eq\n        /* \"#utility.yul\":4350:4413   */\n      tag_237\n      jumpi\n        /* \"#utility.yul\":4409:4410   */\n      0x00\n        /* \"#utility.yul\":4406:4407   */\n      dup1\n        /* \"#utility.yul\":4399:4411   */\n      revert\n        /* \"#utility.yul\":4350:4413   */\n    tag_237:\n        /* \"#utility.yul\":4297:4419   */\n      pop\n      jump\t// out\n        /* \"#utility.yul\":4425:4564   */\n    tag_149:\n        /* \"#utility.yul\":4471:4476   */\n      0x00\n        /* \"#utility.yul\":4509:4515   */\n      dup2\n        /* \"#utility.yul\":4496:4516   */\n      calldataload\n        /* \"#utility.yul\":4487:4516   */\n      swap1\n      pop\n        /* \"#utility.yul\":4525:4558   */\n      tag_239\n        /* \"#utility.yul\":4552:4557   */\n      dup2\n        /* \"#utility.yul\":4525:4558   */\n      tag_148\n      jump\t// in\n    tag_239:\n        /* \"#utility.yul\":4425:4564   */\n      swap3\n      swap2\n      pop\n      pop\n      jump\t// out\n        /* \"#utility.yul\":4570:5044   */\n    tag_46:\n        /* \"#utility.yul\":4638:4644   */\n      0x00\n        /* \"#utility.yul\":4646:4652   */\n      dup1\n        /* \"#utility.yul\":4695:4697   */\n      0x40\n        /* \"#utility.yul\":4683:4692   */\n      dup4\n        /* \"#utility.yul\":4674:4681   */\n      dup6\n        /* \"#utility.yul\":4670:4693   */\n      sub\n        /* \"#utility.yul\":4666:4698   */\n      slt\n        /* \"#utility.yul\":4663:4782   */\n      iszero\n      tag_241\n      jumpi\n        /* \"#utility.yul\":4701:4780   */\n      tag_242\n      tag_135\n      jump\t// in\n    tag_242:\n        /* \"#utility.yul\":4663:4782   */\n    tag_241:\n        /* \"#utility.yul\":4821:4822   */\n      0x00\n        /* \"#utility.yul\":4846:4899   */\n      tag_243\n        /* \"#utility.yul\":4891:4898   */\n      dup6\n        /* \"#utility.yul\":4882:4888   */\n      dup3\n        /* \"#utility.yul\":4871:4880   */\n      dup7\n        /* \"#utility.yul\":4867:4889   */\n      add\n        /* \"#utility.yul\":4846:4899   */\n      tag_138\n      jump\t// in\n    tag_243:\n        /* \"#utility.yul\":4836:4899   */\n      swap3\n      pop\n        /* \"#utility.yul\":4792:4909   */\n      pop\n        /* \"#utility.yul\":4948:4950   */\n      0x20\n        /* \"#utility.yul\":4974:5027   */\n      tag_244\n        /* \"#utility.yul\":5019:5026   */\n      dup6\n        /* \"#utility.yul\":5010:5016   */\n      dup3\n        /* \"#utility.yul\":4999:5008   */\n      dup7\n        /* \"#utility.yul\":4995:5017   */\n      add\n        /* \"#utility.yul\":4974:5027   */\n      tag_149\n      jump\t// in\n    tag_244:\n        /* \"#utility.yul\":4964:5027   */\n      swap2\n      pop\n        /* \"#utility.yul\":4919:5037   */\n      pop\n        /* \"#utility.yul\":4570:5044   */\n      swap3\n      pop\n      swap3\n      swap1\n      pop\n      jump\t// out\n        /* \"#utility.yul\":5050:5110   */\n    tag_150:\n        /* \"#utility.yul\":5078:5081   */\n      0x00\n        /* \"#utility.yul\":5099:5104   */\n      dup2\n        /* \"#utility.yul\":5092:5104   */\n      swap1\n      pop\n        /* \"#utility.yul\":5050:5110   */\n      swap2\n      swap1\n      pop\n      jump\t// out\n        /* \"#utility.yul\":5116:5258   */\n    tag_151:\n        /* \"#utility.yul\":5166:5175   */\n      0x00\n        /* \"#utility.yul\":5199:5252   */\n      tag_247\n        /* \"#utility.yul\":5217:5251   */\n      tag_248\n        /* \"#utility.yul\":5226:5250   */\n      tag_249\n        /* \"#utility.yul\":5244:5249   */\n      dup5\n        /* \"#utility.yul\":5226:5250   */\n      tag_139\n      jump\t// in\n    tag_249:\n        /* \"#utility.yul\":5217:5251   */\n      tag_150\n      jump\t// in\n    tag_248:\n        /* \"#utility.yul\":5199:5252   */\n      tag_139\n      jump\t// in\n    tag_247:\n        /* \"#utility.yul\":5186:5252   */\n      swap1\n      pop\n        /* \"#utility.yul\":5116:5258   */\n      swap2\n      swap1\n      pop\n      jump\t// out\n        /* \"#utility.yul\":5264:5390   */\n    tag_152:\n        /* \"#utility.yul\":5314:5323   */\n      0x00\n        /* \"#utility.yul\":5347:5384   */\n      tag_251\n        /* \"#utility.yul\":5378:5383   */\n      dup3\n        /* \"#utility.yul\":5347:5384   */\n      tag_151\n      jump\t// in\n    tag_251:\n        /* \"#utility.yul\":5334:5384   */\n      swap1\n      pop\n        /* \"#utility.yul\":5264:5390   */\n      swap2\n      swap1\n      pop\n      jump\t// out\n        /* \"#utility.yul\":5396:5535   */\n    tag_153:\n        /* \"#utility.yul\":5459:5468   */\n      0x00\n        /* \"#utility.yul\":5492:5529   */\n      tag_253\n        /* \"#utility.yul\":5523:5528   */\n      dup3\n        /* \"#utility.yul\":5492:5529   */\n      tag_152\n      jump\t// in\n    tag_253:\n        /* \"#utility.yul\":5479:5529   */\n      swap1\n      pop\n        /* \"#utility.yul\":5396:5535   */\n      swap2\n      swap1\n      pop\n      jump\t// out\n        /* \"#utility.yul\":5541:5698   */\n    tag_154:\n        /* \"#utility.yul\":5641:5691   */\n      tag_255\n        /* \"#utility.yul\":5685:5690   */\n      dup2\n        /* \"#utility.yul\":5641:5691   */\n      tag_153\n      jump\t// in\n    tag_255:\n        /* \"#utility.yul\":5636:5639   */\n      dup3\n        /* \"#utility.yul\":5629:5692   */\n      mstore\n        /* \"#utility.yul\":5541:5698   */\n      pop\n      pop\n      jump\t// out\n        /* \"#utility.yul\":5704:5952   */\n    tag_52:\n        /* \"#utility.yul\":5810:5814   */\n      0x00\n        /* \"#utility.yul\":5848:5850   */\n      0x20\n        /* \"#utility.yul\":5837:5846   */\n      dup3\n        /* \"#utility.yul\":5833:5851   */\n      add\n        /* \"#utility.yul\":5825:5851   */\n      swap1\n      pop\n        /* \"#utility.yul\":5861:5945   */\n      tag_257\n        /* \"#utility.yul\":5942:5943   */\n      0x00\n        /* \"#utility.yul\":5931:5940   */\n      dup4\n        /* \"#utility.yul\":5927:5944   */\n      add\n        /* \"#utility.yul\":5918:5924   */\n      dup5\n        /* \"#utility.yul\":5861:5945   */\n      tag_154\n      jump\t// in\n    tag_257:\n        /* \"#utility.yul\":5704:5952   */\n      swap3\n      swap2\n      pop\n      pop\n      jump\t// out\n        /* \"#utility.yul\":5958:6127   */\n    tag_155:\n        /* \"#utility.yul\":6042:6053   */\n      0x00\n        /* \"#utility.yul\":6076:6082   */\n      dup3\n        /* \"#utility.yul\":6071:6074   */\n      dup3\n        /* \"#utility.yul\":6064:6083   */\n      mstore\n        /* \"#utility.yul\":6116:6120   */\n      0x20\n        /* \"#utility.yul\":6111:6114   */\n      dup3\n        /* \"#utility.yul\":6107:6121   */\n      add\n        /* \"#utility.yul\":6092:6121   */\n      swap1\n      pop\n        /* \"#utility.yul\":5958:6127   */\n      swap3\n      swap2\n      pop\n      pop\n      jump\t// out\n        /* \"#utility.yul\":6133:6292   */\n    tag_156:\n        /* \"#utility.yul\":6273:6284   */\n      0x6e6f7420656e6465640000000000000000000000000000000000000000000000\n        /* \"#utility.yul\":6269:6270   */\n      0x00\n        /* \"#utility.yul\":6261:6267   */\n      dup3\n        /* \"#utility.yul\":6257:6271   */\n      add\n        /* \"#utility.yul\":6250:6285   */\n      mstore\n        /* \"#utility.yul\":6133:6292   */\n      pop\n      jump\t// out\n        /* \"#utility.yul\":6298:6663   */\n    tag_157:\n        /* \"#utility.yul\":6440:6443   */\n      0x00\n        /* \"#utility.yul\":6461:6527   */\n      tag_261\n        /* \"#utility.yul\":6525:6526   */\n      0x09\n        /* \"#utility.yul\":6520:6523   */\n      dup4\n        /* \"#utility.yul\":6461:6527   */\n      tag_155\n      jump\t// in\n    tag_261:\n        /* \"#utility.yul\":6454:6527   */\n      swap2\n      pop\n        /* \"#utility.yul\":6536:6629   */\n      tag_262\n        /* \"#utility.yul\":6625:6628   */\n      dup3\n        /* \"#utility.yul\":6536:6629   */\n      tag_156\n      jump\t// in\n    tag_262:\n        /* \"#utility.yul\":6654:6656   */\n      0x20\n        /* \"#utility.yul\":6649:6652   */\n      dup3\n        /* \"#utility.yul\":6645:6657   */\n      add\n        /* \"#utility.yul\":6638:6657   */\n      swap1\n      pop\n        /* \"#utility.yul\":6298:6663   */\n      swap2\n      swap1\n      pop\n      jump\t// out\n        /* \"#utility.yul\":6669:7088   */\n    tag_56:\n        /* \"#utility.yul\":6835:6839   */\n      0x00\n        /* \"#utility.yul\":6873:6875   */\n      0x20\n        /* \"#utility.yul\":6862:6871   */\n      dup3\n        /* \"#utility.yul\":6858:6876   */\n      add\n        /* \"#utility.yul\":6850:6876   */\n      swap1\n      pop\n        /* \"#utility.yul\":6922:6931   */\n      dup2\n        /* \"#utility.yul\":6916:6920   */\n      dup2\n        /* \"#utility.yul\":6912:6932   */\n      sub\n        /* \"#utility.yul\":6908:6909   */\n      0x00\n        /* \"#utility.yul\":6897:6906   */\n      dup4\n        /* \"#utility.yul\":6893:6910   */\n      add\n        /* \"#utility.yul\":6886:6933   */\n      mstore\n        /* \"#utility.yul\":6950:7081   */\n      tag_264\n        /* \"#utility.yul\":7076:7080   */\n      dup2\n        /* \"#utility.yul\":6950:7081   */\n      tag_157\n      jump\t// in\n    tag_264:\n        /* \"#utility.yul\":6942:7081   */\n      swap1\n      pop\n        /* \"#utility.yul\":6669:7088   */\n      swap2\n      swap1\n      pop\n      jump\t// out\n        /* \"#utility.yul\":7094:7257   */\n    tag_158:\n        /* \"#utility.yul\":7234:7249   */\n      0x706c65646765203e20676f616c00000000000000000000000000000000000000\n        /* \"#utility.yul\":7230:7231   */\n      0x00\n        /* \"#utility.yul\":7222:7228   */\n      dup3\n        /* \"#utility.yul\":7218:7232   */\n      add\n        /* \"#utility.yul\":7211:7250   */\n      mstore\n        /* \"#utility.yul\":7094:7257   */\n      pop\n      jump\t// out\n        /* \"#utility.yul\":7263:7629   */\n    tag_159:\n        /* \"#utility.yul\":7405:7408   */\n      0x00\n        /* \"#utility.yul\":7426:7493   */\n      tag_267\n        /* \"#utility.yul\":7490:7492   */\n      0x0d\n        /* \"#utility.yul\":7485:7488   */\n      dup4\n        /* \"#utility.yul\":7426:7493   */\n      tag_155\n      jump\t// in\n    tag_267:\n        /* \"#utility.yul\":7419:7493   */\n      swap2\n      pop\n        /* \"#utility.yul\":7502:7595   */\n      tag_268\n        /* \"#utility.yul\":7591:7594   */\n      dup3\n        /* \"#utility.yul\":7502:7595   */\n      tag_158\n      jump\t// in\n    tag_268:\n        /* \"#utility.yul\":7620:7622   */\n      0x20\n        /* \"#utility.yul\":7615:7618   */\n      dup3\n        /* \"#utility.yul\":7611:7623   */\n      add\n        /* \"#utility.yul\":7604:7623   */\n      swap1\n      pop\n        /* \"#utility.yul\":7263:7629   */\n      swap2\n      swap1\n      pop\n      jump\t// out\n        /* \"#utility.yul\":7635:8054   */\n    tag_59:\n        /* \"#utility.yul\":7801:7805   */\n      0x00\n        /* \"#utility.yul\":7839:7841   */\n      0x20\n        /* \"#utility.yul\":7828:7837   */\n      dup3\n        /* \"#utility.yul\":7824:7842   */\n      add\n        /* \"#utility.yul\":7816:7842   */\n      swap1\n      pop\n        /* \"#utility.yul\":7888:7897   */\n      dup2\n        /* \"#utility.yul\":7882:7886   */\n      dup2\n        /* \"#utility.yul\":7878:7898   */\n      sub\n        /* \"#utility.yul\":7874:7875   */\n      0x00\n        /* \"#utility.yul\":7863:7872   */\n      dup4\n        /* \"#utility.yul\":7859:7876   */\n      add\n        /* \"#utility.yul\":7852:7899   */\n      mstore\n        /* \"#utility.yul\":7916:8047   */\n      tag_270\n        /* \"#utility.yul\":8042:8046   */\n      dup2\n        /* \"#utility.yul\":7916:8047   */\n      tag_159\n      jump\t// in\n    tag_270:\n        /* \"#utility.yul\":7908:8047   */\n      swap1\n      pop\n        /* \"#utility.yul\":7635:8054   */\n      swap2\n      swap1\n      pop\n      jump\t// out\n        /* \"#utility.yul\":8060:8392   */\n    tag_61:\n        /* \"#utility.yul\":8181:8185   */\n      0x00\n        /* \"#utility.yul\":8219:8221   */\n      0x40\n        /* \"#utility.yul\":8208:8217   */\n      dup3\n        /* \"#utility.yul\":8204:8222   */\n      add\n        /* \"#utility.yul\":8196:8222   */\n      swap1\n      pop\n        /* \"#utility.yul\":8232:8303   */\n      tag_272\n        /* \"#utility.yul\":8300:8301   */\n      0x00\n        /* \"#utility.yul\":8289:8298   */\n      dup4\n        /* \"#utility.yul\":8285:8302   */\n      add\n        /* \"#utility.yul\":8276:8282   */\n      dup6\n        /* \"#utility.yul\":8232:8303   */\n      tag_141\n      jump\t// in\n    tag_272:\n        /* \"#utility.yul\":8313:8385   */\n      tag_273\n        /* \"#utility.yul\":8381:8383   */\n      0x20\n        /* \"#utility.yul\":8370:8379   */\n      dup4\n        /* \"#utility.yul\":8366:8384   */\n      add\n        /* \"#utility.yul\":8357:8363   */\n      dup5\n        /* \"#utility.yul\":8313:8385   */\n      tag_133\n      jump\t// in\n    tag_273:\n        /* \"#utility.yul\":8060:8392   */\n      swap4\n      swap3\n      pop\n      pop\n      pop\n      jump\t// out\n        /* \"#utility.yul\":8398:8514   */\n    tag_160:\n        /* \"#utility.yul\":8468:8489   */\n      tag_275\n        /* \"#utility.yul\":8483:8488   */\n      dup2\n        /* \"#utility.yul\":8468:8489   */\n      tag_144\n      jump\t// in\n    tag_275:\n        /* \"#utility.yul\":8461:8466   */\n      dup2\n        /* \"#utility.yul\":8458:8490   */\n      eq\n        /* \"#utility.yul\":8448:8508   */\n      tag_276\n      jumpi\n        /* \"#utility.yul\":8504:8505   */\n      0x00\n        /* \"#utility.yul\":8501:8502   */\n      dup1\n        /* \"#utility.yul\":8494:8506   */\n      revert\n        /* \"#utility.yul\":8448:8508   */\n    tag_276:\n        /* \"#utility.yul\":8398:8514   */\n      pop\n      jump\t// out\n        /* \"#utility.yul\":8520:8657   */\n    tag_161:\n        /* \"#utility.yul\":8574:8579   */\n      0x00\n        /* \"#utility.yul\":8605:8611   */\n      dup2\n        /* \"#utility.yul\":8599:8612   */\n      mload\n        /* \"#utility.yul\":8590:8612   */\n      swap1\n      pop\n        /* \"#utility.yul\":8621:8651   */\n      tag_278\n        /* \"#utility.yul\":8645:8650   */\n      dup2\n        /* \"#utility.yul\":8621:8651   */\n      tag_160\n      jump\t// in\n    tag_278:\n        /* \"#utility.yul\":8520:8657   */\n      swap3\n      swap2\n      pop\n      pop\n      jump\t// out\n        /* \"#utility.yul\":8663:9008   */\n    tag_65:\n        /* \"#utility.yul\":8730:8736   */\n      0x00\n        /* \"#utility.yul\":8779:8781   */\n      0x20\n        /* \"#utility.yul\":8767:8776   */\n      dup3\n        /* \"#utility.yul\":8758:8765   */\n      dup5\n        /* \"#utility.yul\":8754:8777   */\n      sub\n        /* \"#utility.yul\":8750:8782   */\n      slt\n        /* \"#utility.yul\":8747:8866   */\n      iszero\n      tag_280\n      jumpi\n        /* \"#utility.yul\":8785:8864   */\n      tag_281\n      tag_135\n      jump\t// in\n    tag_281:\n        /* \"#utility.yul\":8747:8866   */\n    tag_280:\n        /* \"#utility.yul\":8905:8906   */\n      0x00\n        /* \"#utility.yul\":8930:8991   */\n      tag_282\n        /* \"#utility.yul\":8983:8990   */\n      dup5\n        /* \"#utility.yul\":8974:8980   */\n      dup3\n        /* \"#utility.yul\":8963:8972   */\n      dup6\n        /* \"#utility.yul\":8959:8981   */\n      add\n        /* \"#utility.yul\":8930:8991   */\n      tag_161\n      jump\t// in\n    tag_282:\n        /* \"#utility.yul\":8920:8991   */\n      swap2\n      pop\n        /* \"#utility.yul\":8876:9001   */\n      pop\n        /* \"#utility.yul\":8663:9008   */\n      swap3\n      swap2\n      pop\n      pop\n      jump\t// out\n        /* \"#utility.yul\":9014:9180   */\n    tag_162:\n        /* \"#utility.yul\":9154:9172   */\n      0x73746172742074696d65203c206e6f7700000000000000000000000000000000\n        /* \"#utility.yul\":9150:9151   */\n      0x00\n        /* \"#utility.yul\":9142:9148   */\n      dup3\n        /* \"#utility.yul\":9138:9152   */\n      add\n        /* \"#utility.yul\":9131:9173   */\n      mstore\n        /* \"#utility.yul\":9014:9180   */\n      pop\n      jump\t// out\n        /* \"#utility.yul\":9186:9552   */\n    tag_163:\n        /* \"#utility.yul\":9328:9331   */\n      0x00\n        /* \"#utility.yul\":9349:9416   */\n      tag_285\n        /* \"#utility.yul\":9413:9415   */\n      0x10\n        /* \"#utility.yul\":9408:9411   */\n      dup4\n        /* \"#utility.yul\":9349:9416   */\n      tag_155\n      jump\t// in\n    tag_285:\n        /* \"#utility.yul\":9342:9416   */\n      swap2\n      pop\n        /* \"#utility.yul\":9425:9518   */\n      tag_286\n        /* \"#utility.yul\":9514:9517   */\n      dup3\n        /* \"#utility.yul\":9425:9518   */\n      tag_162\n      jump\t// in\n    tag_286:\n        /* \"#utility.yul\":9543:9545   */\n      0x20\n        /* \"#utility.yul\":9538:9541   */\n      dup3\n        /* \"#utility.yul\":9534:9546   */\n      add\n        /* \"#utility.yul\":9527:9546   */\n      swap1\n      pop\n        /* \"#utility.yul\":9186:9552   */\n      swap2\n      swap1\n      pop\n      jump\t// out\n        /* \"#utility.yul\":9558:9977   */\n    tag_70:\n        /* \"#utility.yul\":9724:9728   */\n      0x00\n        /* \"#utility.yul\":9762:9764   */\n      0x20\n        /* \"#utility.yul\":9751:9760   */\n      dup3\n        /* \"#utility.yul\":9747:9765   */\n      add\n        /* \"#utility.yul\":9739:9765   */\n      swap1\n      pop\n        /* \"#utility.yul\":9811:9820   */\n      dup2\n        /* \"#utility.yul\":9805:9809   */\n      dup2\n        /* \"#utility.yul\":9801:9821   */\n      sub\n        /* \"#utility.yul\":9797:9798   */\n      0x00\n        /* \"#utility.yul\":9786:9795   */\n      dup4\n        /* \"#utility.yul\":9782:9799   */\n      add\n        /* \"#utility.yul\":9775:9822   */\n      mstore\n        /* \"#utility.yul\":9839:9970   */\n      tag_288\n        /* \"#utility.yul\":9965:9969   */\n      dup2\n        /* \"#utility.yul\":9839:9970   */\n      tag_163\n      jump\t// in\n    tag_288:\n        /* \"#utility.yul\":9831:9970   */\n      swap1\n      pop\n        /* \"#utility.yul\":9558:9977   */\n      swap2\n      swap1\n      pop\n      jump\t// out\n        /* \"#utility.yul\":9983:10154   */\n    tag_164:\n        /* \"#utility.yul\":10123:10146   */\n      0x656e642074696d65203c2073746172742074696d650000000000000000000000\n        /* \"#utility.yul\":10119:10120   */\n      0x00\n        /* \"#utility.yul\":10111:10117   */\n      dup3\n        /* \"#utility.yul\":10107:10121   */\n      add\n        /* \"#utility.yul\":10100:10147   */\n      mstore\n        /* \"#utility.yul\":9983:10154   */\n      pop\n      jump\t// out\n        /* \"#utility.yul\":10160:10526   */\n    tag_165:\n        /* \"#utility.yul\":10302:10305   */\n      0x00\n        /* \"#utility.yul\":10323:10390   */\n      tag_291\n        /* \"#utility.yul\":10387:10389   */\n      0x15\n        /* \"#utility.yul\":10382:10385   */\n      dup4\n        /* \"#utility.yul\":10323:10390   */\n      tag_155\n      jump\t// in\n    tag_291:\n        /* \"#utility.yul\":10316:10390   */\n      swap2\n      pop\n        /* \"#utility.yul\":10399:10492   */\n      tag_292\n        /* \"#utility.yul\":10488:10491   */\n      dup3\n        /* \"#utility.yul\":10399:10492   */\n      tag_164\n      jump\t// in\n    tag_292:\n        /* \"#utility.yul\":10517:10519   */\n      0x20\n        /* \"#utility.yul\":10512:10515   */\n      dup3\n        /* \"#utility.yul\":10508:10520   */\n      add\n        /* \"#utility.yul\":10501:10520   */\n      swap1\n      pop\n        /* \"#utility.yul\":10160:10526   */\n      swap2\n      swap1\n      pop\n      jump\t// out\n        /* \"#utility.yul\":10532:10951   */\n    tag_73:\n        /* \"#utility.yul\":10698:10702   */\n      0x00\n        /* \"#utility.yul\":10736:10738   */\n      0x20\n        /* \"#utility.yul\":10725:10734   */\n      dup3\n        /* \"#utility.yul\":10721:10739   */\n      add\n        /* \"#utility.yul\":10713:10739   */\n      swap1\n      pop\n        /* \"#utility.yul\":10785:10794   */\n      dup2\n        /* \"#utility.yul\":10779:10783   */\n      dup2\n        /* \"#utility.yul\":10775:10795   */\n      sub\n        /* \"#utility.yul\":10771:10772   */\n      0x00\n        /* \"#utility.yul\":10760:10769   */\n      dup4\n        /* \"#utility.yul\":10756:10773   */\n      add\n        /* \"#utility.yul\":10749:10796   */\n      mstore\n        /* \"#utility.yul\":10813:10944   */\n      tag_294\n        /* \"#utility.yul\":10939:10943   */\n      dup2\n        /* \"#utility.yul\":10813:10944   */\n      tag_165\n      jump\t// in\n    tag_294:\n        /* \"#utility.yul\":10805:10944   */\n      swap1\n      pop\n        /* \"#utility.yul\":10532:10951   */\n      swap2\n      swap1\n      pop\n      jump\t// out\n        /* \"#utility.yul\":10957:11137   */\n    tag_166:\n        /* \"#utility.yul\":11005:11082   */\n      0x4e487b7100000000000000000000000000000000000000000000000000000000\n        /* \"#utility.yul\":11002:11003   */\n      0x00\n        /* \"#utility.yul\":10995:11083   */\n      mstore\n        /* \"#utility.yul\":11102:11106   */\n      0x11\n        /* \"#utility.yul\":11099:11100   */\n      0x04\n        /* \"#utility.yul\":11092:11107   */\n      mstore\n        /* \"#utility.yul\":11126:11130   */\n      0x24\n        /* \"#utility.yul\":11123:11124   */\n      0x00\n        /* \"#utility.yul\":11116:11131   */\n      revert\n        /* \"#utility.yul\":11143:11334   */\n    tag_75:\n        /* \"#utility.yul\":11183:11186   */\n      0x00\n        /* \"#utility.yul\":11202:11222   */\n      tag_297\n        /* \"#utility.yul\":11220:11221   */\n      dup3\n        /* \"#utility.yul\":11202:11222   */\n      tag_132\n      jump\t// in\n    tag_297:\n        /* \"#utility.yul\":11197:11222   */\n      swap2\n      pop\n        /* \"#utility.yul\":11236:11256   */\n      tag_298\n        /* \"#utility.yul\":11254:11255   */\n      dup4\n        /* \"#utility.yul\":11236:11256   */\n      tag_132\n      jump\t// in\n    tag_298:\n        /* \"#utility.yul\":11231:11256   */\n      swap3\n      pop\n        /* \"#utility.yul\":11279:11280   */\n      dup3\n        /* \"#utility.yul\":11276:11277   */\n      dup3\n        /* \"#utility.yul\":11272:11281   */\n      add\n        /* \"#utility.yul\":11265:11281   */\n      swap1\n      pop\n        /* \"#utility.yul\":11300:11303   */\n      dup1\n        /* \"#utility.yul\":11297:11298   */\n      dup3\n        /* \"#utility.yul\":11294:11304   */\n      gt\n        /* \"#utility.yul\":11291:11327   */\n      iszero\n      tag_299\n      jumpi\n        /* \"#utility.yul\":11307:11325   */\n      tag_300\n      tag_166\n      jump\t// in\n    tag_300:\n        /* \"#utility.yul\":11291:11327   */\n    tag_299:\n        /* \"#utility.yul\":11143:11334   */\n      swap3\n      swap2\n      pop\n      pop\n      jump\t// out\n        /* \"#utility.yul\":11340:11511   */\n    tag_167:\n        /* \"#utility.yul\":11480:11503   */\n      0x656e64206174203e206d6178206475726174696f6e0000000000000000000000\n        /* \"#utility.yul\":11476:11477   */\n      0x00\n        /* \"#utility.yul\":11468:11474   */\n      dup3\n        /* \"#utility.yul\":11464:11478   */\n      add\n        /* \"#utility.yul\":11457:11504   */\n      mstore\n        /* \"#utility.yul\":11340:11511   */\n      pop\n      jump\t// out\n        /* \"#utility.yul\":11517:11883   */\n    tag_168:\n        /* \"#utility.yul\":11659:11662   */\n      0x00\n        /* \"#utility.yul\":11680:11747   */\n      tag_303\n        /* \"#utility.yul\":11744:11746   */\n      0x15\n        /* \"#utility.yul\":11739:11742   */\n      dup4\n        /* \"#utility.yul\":11680:11747   */\n      tag_155\n      jump\t// in\n    tag_303:\n        /* \"#utility.yul\":11673:11747   */\n      swap2\n      pop\n        /* \"#utility.yul\":11756:11849   */\n      tag_304\n        /* \"#utility.yul\":11845:11848   */\n      dup3\n        /* \"#utility.yul\":11756:11849   */\n      tag_167\n      jump\t// in\n    tag_304:\n        /* \"#utility.yul\":11874:11876   */\n      0x20\n        /* \"#utility.yul\":11869:11872   */\n      dup3\n        /* \"#utility.yul\":11865:11877   */\n      add\n        /* \"#utility.yul\":11858:11877   */\n      swap1\n      pop\n        /* \"#utility.yul\":11517:11883   */\n      swap2\n      swap1\n      pop\n      jump\t// out\n        /* \"#utility.yul\":11889:12308   */\n    tag_78:\n        /* \"#utility.yul\":12055:12059   */\n      0x00\n        /* \"#utility.yul\":12093:12095   */\n      0x20\n        /* \"#utility.yul\":12082:12091   */\n      dup3\n        /* \"#utility.yul\":12078:12096   */\n      add\n        /* \"#utility.yul\":12070:12096   */\n      swap1\n      pop\n        /* \"#utility.yul\":12142:12151   */\n      dup2\n        /* \"#utility.yul\":12136:12140   */\n      dup2\n        /* \"#utility.yul\":12132:12152   */\n      sub\n        /* \"#utility.yul\":12128:12129   */\n      0x00\n        /* \"#utility.yul\":12117:12126   */\n      dup4\n        /* \"#utility.yul\":12113:12130   */\n      add\n        /* \"#utility.yul\":12106:12153   */\n      mstore\n        /* \"#utility.yul\":12170:12301   */\n      tag_306\n        /* \"#utility.yul\":12296:12300   */\n      dup2\n        /* \"#utility.yul\":12170:12301   */\n      tag_168\n      jump\t// in\n    tag_306:\n        /* \"#utility.yul\":12162:12301   */\n      swap1\n      pop\n        /* \"#utility.yul\":11889:12308   */\n      swap2\n      swap1\n      pop\n      jump\t// out\n        /* \"#utility.yul\":12314:12859   */\n    tag_81:\n        /* \"#utility.yul\":12487:12491   */\n      0x00\n        /* \"#utility.yul\":12525:12528   */\n      0x80\n        /* \"#utility.yul\":12514:12523   */\n      dup3\n        /* \"#utility.yul\":12510:12529   */\n      add\n        /* \"#utility.yul\":12502:12529   */\n      swap1\n      pop\n        /* \"#utility.yul\":12539:12610   */\n      tag_308\n        /* \"#utility.yul\":12607:12608   */\n      0x00\n        /* \"#utility.yul\":12596:12605   */\n      dup4\n        /* \"#utility.yul\":12592:12609   */\n      add\n        /* \"#utility.yul\":12583:12589   */\n      dup8\n        /* \"#utility.yul\":12539:12610   */\n      tag_133\n      jump\t// in\n    tag_308:\n        /* \"#utility.yul\":12620:12692   */\n      tag_309\n        /* \"#utility.yul\":12688:12690   */\n      0x20\n        /* \"#utility.yul\":12677:12686   */\n      dup4\n        /* \"#utility.yul\":12673:12691   */\n      add\n        /* \"#utility.yul\":12664:12670   */\n      dup7\n        /* \"#utility.yul\":12620:12692   */\n      tag_133\n      jump\t// in\n    tag_309:\n        /* \"#utility.yul\":12702:12772   */\n      tag_310\n        /* \"#utility.yul\":12768:12770   */\n      0x40\n        /* \"#utility.yul\":12757:12766   */\n      dup4\n        /* \"#utility.yul\":12753:12771   */\n      add\n        /* \"#utility.yul\":12744:12750   */\n      dup6\n        /* \"#utility.yul\":12702:12772   */\n      tag_143\n      jump\t// in\n    tag_310:\n        /* \"#utility.yul\":12782:12852   */\n      tag_311\n        /* \"#utility.yul\":12848:12850   */\n      0x60\n        /* \"#utility.yul\":12837:12846   */\n      dup4\n        /* \"#utility.yul\":12833:12851   */\n      add\n        /* \"#utility.yul\":12824:12830   */\n      dup5\n        /* \"#utility.yul\":12782:12852   */\n      tag_143\n      jump\t// in\n    tag_311:\n        /* \"#utility.yul\":12314:12859   */\n      swap6\n      swap5\n      pop\n      pop\n      pop\n      pop\n      pop\n      jump\t// out\n        /* \"#utility.yul\":12865:13024   */\n    tag_169:\n        /* \"#utility.yul\":13005:13016   */\n      0x6e6f742073746172740000000000000000000000000000000000000000000000\n        /* \"#utility.yul\":13001:13002   */\n      0x00\n        /* \"#utility.yul\":12993:12999   */\n      dup3\n        /* \"#utility.yul\":12989:13003   */\n      add\n        /* \"#utility.yul\":12982:13017   */\n      mstore\n        /* \"#utility.yul\":12865:13024   */\n      pop\n      jump\t// out\n        /* \"#utility.yul\":13030:13395   */\n    tag_170:\n        /* \"#utility.yul\":13172:13175   */\n      0x00\n        /* \"#utility.yul\":13193:13259   */\n      tag_314\n        /* \"#utility.yul\":13257:13258   */\n      0x09\n        /* \"#utility.yul\":13252:13255   */\n      dup4\n        /* \"#utility.yul\":13193:13259   */\n      tag_155\n      jump\t// in\n    tag_314:\n        /* \"#utility.yul\":13186:13259   */\n      swap2\n      pop\n        /* \"#utility.yul\":13268:13361   */\n      tag_315\n        /* \"#utility.yul\":13357:13360   */\n      dup3\n        /* \"#utility.yul\":13268:13361   */\n      tag_169\n      jump\t// in\n    tag_315:\n        /* \"#utility.yul\":13386:13388   */\n      0x20\n        /* \"#utility.yul\":13381:13384   */\n      dup3\n        /* \"#utility.yul\":13377:13389   */\n      add\n        /* \"#utility.yul\":13370:13389   */\n      swap1\n      pop\n        /* \"#utility.yul\":13030:13395   */\n      swap2\n      swap1\n      pop\n      jump\t// out\n        /* \"#utility.yul\":13401:13820   */\n    tag_85:\n        /* \"#utility.yul\":13567:13571   */\n      0x00\n        /* \"#utility.yul\":13605:13607   */\n      0x20\n        /* \"#utility.yul\":13594:13603   */\n      dup3\n        /* \"#utility.yul\":13590:13608   */\n      add\n        /* \"#utility.yul\":13582:13608   */\n      swap1\n      pop\n        /* \"#utility.yul\":13654:13663   */\n      dup2\n        /* \"#utility.yul\":13648:13652   */\n      dup2\n        /* \"#utility.yul\":13644:13664   */\n      sub\n        /* \"#utility.yul\":13640:13641   */\n      0x00\n        /* \"#utility.yul\":13629:13638   */\n      dup4\n        /* \"#utility.yul\":13625:13642   */\n      add\n        /* \"#utility.yul\":13618:13665   */\n      mstore\n        /* \"#utility.yul\":13682:13813   */\n      tag_317\n        /* \"#utility.yul\":13808:13812   */\n      dup2\n        /* \"#utility.yul\":13682:13813   */\n      tag_170\n      jump\t// in\n    tag_317:\n        /* \"#utility.yul\":13674:13813   */\n      swap1\n      pop\n        /* \"#utility.yul\":13401:13820   */\n      swap2\n      swap1\n      pop\n      jump\t// out\n        /* \"#utility.yul\":13826:13986   */\n    tag_171:\n        /* \"#utility.yul\":13966:13978   */\n      0x68617320656e6465642100000000000000000000000000000000000000000000\n        /* \"#utility.yul\":13962:13963   */\n      0x00\n        /* \"#utility.yul\":13954:13960   */\n      dup3\n        /* \"#utility.yul\":13950:13964   */\n      add\n        /* \"#utility.yul\":13943:13979   */\n      mstore\n        /* \"#utility.yul\":13826:13986   */\n      pop\n      jump\t// out\n        /* \"#utility.yul\":13992:14358   */\n    tag_172:\n        /* \"#utility.yul\":14134:14137   */\n      0x00\n        /* \"#utility.yul\":14155:14222   */\n      tag_320\n        /* \"#utility.yul\":14219:14221   */\n      0x0a\n        /* \"#utility.yul\":14214:14217   */\n      dup4\n        /* \"#utility.yul\":14155:14222   */\n      tag_155\n      jump\t// in\n    tag_320:\n        /* \"#utility.yul\":14148:14222   */\n      swap2\n      pop\n        /* \"#utility.yul\":14231:14324   */\n      tag_321\n        /* \"#utility.yul\":14320:14323   */\n      dup3\n        /* \"#utility.yul\":14231:14324   */\n      tag_171\n      jump\t// in\n    tag_321:\n        /* \"#utility.yul\":14349:14351   */\n      0x20\n        /* \"#utility.yul\":14344:14347   */\n      dup3\n        /* \"#utility.yul\":14340:14352   */\n      add\n        /* \"#utility.yul\":14333:14352   */\n      swap1\n      pop\n        /* \"#utility.yul\":13992:14358   */\n      swap2\n      swap1\n      pop\n      jump\t// out\n        /* \"#utility.yul\":14364:14783   */\n    tag_88:\n        /* \"#utility.yul\":14530:14534   */\n      0x00\n        /* \"#utility.yul\":14568:14570   */\n      0x20\n        /* \"#utility.yul\":14557:14566   */\n      dup3\n        /* \"#utility.yul\":14553:14571   */\n      add\n        /* \"#utility.yul\":14545:14571   */\n      swap1\n      pop\n        /* \"#utility.yul\":14617:14626   */\n      dup2\n        /* \"#utility.yul\":14611:14615   */\n      dup2\n        /* \"#utility.yul\":14607:14627   */\n      sub\n        /* \"#utility.yul\":14603:14604   */\n      0x00\n        /* \"#utility.yul\":14592:14601   */\n      dup4\n        /* \"#utility.yul\":14588:14605   */\n      add\n        /* \"#utility.yul\":14581:14628   */\n      mstore\n        /* \"#utility.yul\":14645:14776   */\n      tag_323\n        /* \"#utility.yul\":14771:14775   */\n      dup2\n        /* \"#utility.yul\":14645:14776   */\n      tag_172\n      jump\t// in\n    tag_323:\n        /* \"#utility.yul\":14637:14776   */\n      swap1\n      pop\n        /* \"#utility.yul\":14364:14783   */\n      swap2\n      swap1\n      pop\n      jump\t// out\n        /* \"#utility.yul\":14789:15231   */\n    tag_92:\n        /* \"#utility.yul\":14938:14942   */\n      0x00\n        /* \"#utility.yul\":14976:14978   */\n      0x60\n        /* \"#utility.yul\":14965:14974   */\n      dup3\n        /* \"#utility.yul\":14961:14979   */\n      add\n        /* \"#utility.yul\":14953:14979   */\n      swap1\n      pop\n        /* \"#utility.yul\":14989:15060   */\n      tag_325\n        /* \"#utility.yul\":15057:15058   */\n      0x00\n        /* \"#utility.yul\":15046:15055   */\n      dup4\n        /* \"#utility.yul\":15042:15059   */\n      add\n        /* \"#utility.yul\":15033:15039   */\n      dup7\n        /* \"#utility.yul\":14989:15060   */\n      tag_141\n      jump\t// in\n    tag_325:\n        /* \"#utility.yul\":15070:15142   */\n      tag_326\n        /* \"#utility.yul\":15138:15140   */\n      0x20\n        /* \"#utility.yul\":15127:15136   */\n      dup4\n        /* \"#utility.yul\":15123:15141   */\n      add\n        /* \"#utility.yul\":15114:15120   */\n      dup6\n        /* \"#utility.yul\":15070:15142   */\n      tag_141\n      jump\t// in\n    tag_326:\n        /* \"#utility.yul\":15152:15224   */\n      tag_327\n        /* \"#utility.yul\":15220:15222   */\n      0x40\n        /* \"#utility.yul\":15209:15218   */\n      dup4\n        /* \"#utility.yul\":15205:15223   */\n      add\n        /* \"#utility.yul\":15196:15202   */\n      dup5\n        /* \"#utility.yul\":15152:15224   */\n      tag_133\n      jump\t// in\n    tag_327:\n        /* \"#utility.yul\":14789:15231   */\n      swap5\n      swap4\n      pop\n      pop\n      pop\n      pop\n      jump\t// out\n        /* \"#utility.yul\":15237:15398   */\n    tag_173:\n        /* \"#utility.yul\":15377:15390   */\n      0x6e6f742063726561746f72000000000000000000000000000000000000000000\n        /* \"#utility.yul\":15373:15374   */\n      0x00\n        /* \"#utility.yul\":15365:15371   */\n      dup3\n        /* \"#utility.yul\":15361:15375   */\n      add\n        /* \"#utility.yul\":15354:15391   */\n      mstore\n        /* \"#utility.yul\":15237:15398   */\n      pop\n      jump\t// out\n        /* \"#utility.yul\":15404:15770   */\n    tag_174:\n        /* \"#utility.yul\":15546:15549   */\n      0x00\n        /* \"#utility.yul\":15567:15634   */\n      tag_330\n        /* \"#utility.yul\":15631:15633   */\n      0x0b\n        /* \"#utility.yul\":15626:15629   */\n      dup4\n        /* \"#utility.yul\":15567:15634   */\n      tag_155\n      jump\t// in\n    tag_330:\n        /* \"#utility.yul\":15560:15634   */\n      swap2\n      pop\n        /* \"#utility.yul\":15643:15736   */\n      tag_331\n        /* \"#utility.yul\":15732:15735   */\n      dup3\n        /* \"#utility.yul\":15643:15736   */\n      tag_173\n      jump\t// in\n    tag_331:\n        /* \"#utility.yul\":15761:15763   */\n      0x20\n        /* \"#utility.yul\":15756:15759   */\n      dup3\n        /* \"#utility.yul\":15752:15764   */\n      add\n        /* \"#utility.yul\":15745:15764   */\n      swap1\n      pop\n        /* \"#utility.yul\":15404:15770   */\n      swap2\n      swap1\n      pop\n      jump\t// out\n        /* \"#utility.yul\":15776:16195   */\n    tag_100:\n        /* \"#utility.yul\":15942:15946   */\n      0x00\n        /* \"#utility.yul\":15980:15982   */\n      0x20\n        /* \"#utility.yul\":15969:15978   */\n      dup3\n        /* \"#utility.yul\":15965:15983   */\n      add\n        /* \"#utility.yul\":15957:15983   */\n      swap1\n      pop\n        /* \"#utility.yul\":16029:16038   */\n      dup2\n        /* \"#utility.yul\":16023:16027   */\n      dup2\n        /* \"#utility.yul\":16019:16039   */\n      sub\n        /* \"#utility.yul\":16015:16016   */\n      0x00\n        /* \"#utility.yul\":16004:16013   */\n      dup4\n        /* \"#utility.yul\":16000:16017   */\n      add\n        /* \"#utility.yul\":15993:16040   */\n      mstore\n        /* \"#utility.yul\":16057:16188   */\n      tag_333\n        /* \"#utility.yul\":16183:16187   */\n      dup2\n        /* \"#utility.yul\":16057:16188   */\n      tag_174\n      jump\t// in\n    tag_333:\n        /* \"#utility.yul\":16049:16188   */\n      swap1\n      pop\n        /* \"#utility.yul\":15776:16195   */\n      swap2\n      swap1\n      pop\n      jump\t// out\n        /* \"#utility.yul\":16201:16364   */\n    tag_175:\n        /* \"#utility.yul\":16341:16356   */\n      0x706c65646765203c20676f616c00000000000000000000000000000000000000\n        /* \"#utility.yul\":16337:16338   */\n      0x00\n        /* \"#utility.yul\":16329:16335   */\n      dup3\n        /* \"#utility.yul\":16325:16339   */\n      add\n        /* \"#utility.yul\":16318:16357   */\n      mstore\n        /* \"#utility.yul\":16201:16364   */\n      pop\n      jump\t// out\n        /* \"#utility.yul\":16370:16736   */\n    tag_176:\n        /* \"#utility.yul\":16512:16515   */\n      0x00\n        /* \"#utility.yul\":16533:16600   */\n      tag_336\n        /* \"#utility.yul\":16597:16599   */\n      0x0d\n        /* \"#utility.yul\":16592:16595   */\n      dup4\n        /* \"#utility.yul\":16533:16600   */\n      tag_155\n      jump\t// in\n    tag_336:\n        /* \"#utility.yul\":16526:16600   */\n      swap2\n      pop\n        /* \"#utility.yul\":16609:16702   */\n      tag_337\n        /* \"#utility.yul\":16698:16701   */\n      dup3\n        /* \"#utility.yul\":16609:16702   */\n      tag_175\n      jump\t// in\n    tag_337:\n        /* \"#utility.yul\":16727:16729   */\n      0x20\n        /* \"#utility.yul\":16722:16725   */\n      dup3\n        /* \"#utility.yul\":16718:16730   */\n      add\n        /* \"#utility.yul\":16711:16730   */\n      swap1\n      pop\n        /* \"#utility.yul\":16370:16736   */\n      swap2\n      swap1\n      pop\n      jump\t// out\n        /* \"#utility.yul\":16742:17161   */\n    tag_105:\n        /* \"#utility.yul\":16908:16912   */\n      0x00\n        /* \"#utility.yul\":16946:16948   */\n      0x20\n        /* \"#utility.yul\":16935:16944   */\n      dup3\n        /* \"#utility.yul\":16931:16949   */\n      add\n        /* \"#utility.yul\":16923:16949   */\n      swap1\n      pop\n        /* \"#utility.yul\":16995:17004   */\n      dup2\n        /* \"#utility.yul\":16989:16993   */\n      dup2\n        /* \"#utility.yul\":16985:17005   */\n      sub\n        /* \"#utility.yul\":16981:16982   */\n      0x00\n        /* \"#utility.yul\":16970:16979   */\n      dup4\n        /* \"#utility.yul\":16966:16983   */\n      add\n        /* \"#utility.yul\":16959:17006   */\n      mstore\n        /* \"#utility.yul\":17023:17154   */\n      tag_339\n        /* \"#utility.yul\":17149:17153   */\n      dup2\n        /* \"#utility.yul\":17023:17154   */\n      tag_176\n      jump\t// in\n    tag_339:\n        /* \"#utility.yul\":17015:17154   */\n      swap1\n      pop\n        /* \"#utility.yul\":16742:17161   */\n      swap2\n      swap1\n      pop\n      jump\t// out\n        /* \"#utility.yul\":17167:17329   */\n    tag_177:\n        /* \"#utility.yul\":17307:17321   */\n      0x68617320636c61696d6564210000000000000000000000000000000000000000\n        /* \"#utility.yul\":17303:17304   */\n      0x00\n        /* \"#utility.yul\":17295:17301   */\n      dup3\n        /* \"#utility.yul\":17291:17305   */\n      add\n        /* \"#utility.yul\":17284:17322   */\n      mstore\n        /* \"#utility.yul\":17167:17329   */\n      pop\n      jump\t// out\n        /* \"#utility.yul\":17335:17701   */\n    tag_178:\n        /* \"#utility.yul\":17477:17480   */\n      0x00\n        /* \"#utility.yul\":17498:17565   */\n      tag_342\n        /* \"#utility.yul\":17562:17564   */\n      0x0c\n        /* \"#utility.yul\":17557:17560   */\n      dup4\n        /* \"#utility.yul\":17498:17565   */\n      tag_155\n      jump\t// in\n    tag_342:\n        /* \"#utility.yul\":17491:17565   */\n      swap2\n      pop\n        /* \"#utility.yul\":17574:17667   */\n      tag_343\n        /* \"#utility.yul\":17663:17666   */\n      dup3\n        /* \"#utility.yul\":17574:17667   */\n      tag_177\n      jump\t// in\n    tag_343:\n        /* \"#utility.yul\":17692:17694   */\n      0x20\n        /* \"#utility.yul\":17687:17690   */\n      dup3\n        /* \"#utility.yul\":17683:17695   */\n      add\n        /* \"#utility.yul\":17676:17695   */\n      swap1\n      pop\n        /* \"#utility.yul\":17335:17701   */\n      swap2\n      swap1\n      pop\n      jump\t// out\n        /* \"#utility.yul\":17707:18126   */\n    tag_108:\n        /* \"#utility.yul\":17873:17877   */\n      0x00\n        /* \"#utility.yul\":17911:17913   */\n      0x20\n        /* \"#utility.yul\":17900:17909   */\n      dup3\n        /* \"#utility.yul\":17896:17914   */\n      add\n        /* \"#utility.yul\":17888:17914   */\n      swap1\n      pop\n        /* \"#utility.yul\":17960:17969   */\n      dup2\n        /* \"#utility.yul\":17954:17958   */\n      dup2\n        /* \"#utility.yul\":17950:17970   */\n      sub\n        /* \"#utility.yul\":17946:17947   */\n      0x00\n        /* \"#utility.yul\":17935:17944   */\n      dup4\n        /* \"#utility.yul\":17931:17948   */\n      add\n        /* \"#utility.yul\":17924:17971   */\n      mstore\n        /* \"#utility.yul\":17988:18119   */\n      tag_345\n        /* \"#utility.yul\":18114:18118   */\n      dup2\n        /* \"#utility.yul\":17988:18119   */\n      tag_178\n      jump\t// in\n    tag_345:\n        /* \"#utility.yul\":17980:18119   */\n      swap1\n      pop\n        /* \"#utility.yul\":17707:18126   */\n      swap2\n      swap1\n      pop\n      jump\t// out\n        /* \"#utility.yul\":18132:18294   */\n    tag_179:\n        /* \"#utility.yul\":18272:18286   */\n      0x6e6f742063726561746f72210000000000000000000000000000000000000000\n        /* \"#utility.yul\":18268:18269   */\n      0x00\n        /* \"#utility.yul\":18260:18266   */\n      dup3\n        /* \"#utility.yul\":18256:18270   */\n      add\n        /* \"#utility.yul\":18249:18287   */\n      mstore\n        /* \"#utility.yul\":18132:18294   */\n      pop\n      jump\t// out\n        /* \"#utility.yul\":18300:18666   */\n    tag_180:\n        /* \"#utility.yul\":18442:18445   */\n      0x00\n        /* \"#utility.yul\":18463:18530   */\n      tag_348\n        /* \"#utility.yul\":18527:18529   */\n      0x0c\n        /* \"#utility.yul\":18522:18525   */\n      dup4\n        /* \"#utility.yul\":18463:18530   */\n      tag_155\n      jump\t// in\n    tag_348:\n        /* \"#utility.yul\":18456:18530   */\n      swap2\n      pop\n        /* \"#utility.yul\":18539:18632   */\n      tag_349\n        /* \"#utility.yul\":18628:18631   */\n      dup3\n        /* \"#utility.yul\":18539:18632   */\n      tag_179\n      jump\t// in\n    tag_349:\n        /* \"#utility.yul\":18657:18659   */\n      0x20\n        /* \"#utility.yul\":18652:18655   */\n      dup3\n        /* \"#utility.yul\":18648:18660   */\n      add\n        /* \"#utility.yul\":18641:18660   */\n      swap1\n      pop\n        /* \"#utility.yul\":18300:18666   */\n      swap2\n      swap1\n      pop\n      jump\t// out\n        /* \"#utility.yul\":18672:19091   */\n    tag_116:\n        /* \"#utility.yul\":18838:18842   */\n      0x00\n        /* \"#utility.yul\":18876:18878   */\n      0x20\n        /* \"#utility.yul\":18865:18874   */\n      dup3\n        /* \"#utility.yul\":18861:18879   */\n      add\n        /* \"#utility.yul\":18853:18879   */\n      swap1\n      pop\n        /* \"#utility.yul\":18925:18934   */\n      dup2\n        /* \"#utility.yul\":18919:18923   */\n      dup2\n        /* \"#utility.yul\":18915:18935   */\n      sub\n        /* \"#utility.yul\":18911:18912   */\n      0x00\n        /* \"#utility.yul\":18900:18909   */\n      dup4\n        /* \"#utility.yul\":18896:18913   */\n      add\n        /* \"#utility.yul\":18889:18936   */\n      mstore\n        /* \"#utility.yul\":18953:19084   */\n      tag_351\n        /* \"#utility.yul\":19079:19083   */\n      dup2\n        /* \"#utility.yul\":18953:19084   */\n      tag_180\n      jump\t// in\n    tag_351:\n        /* \"#utility.yul\":18945:19084   */\n      swap1\n      pop\n        /* \"#utility.yul\":18672:19091   */\n      swap2\n      swap1\n      pop\n      jump\t// out\n        /* \"#utility.yul\":19097:19271   */\n    tag_181:\n        /* \"#utility.yul\":19237:19263   */\n      0x68617320737461727465642063616e27742063616e63656c0000000000000000\n        /* \"#utility.yul\":19233:19234   */\n      0x00\n        /* \"#utility.yul\":19225:19231   */\n      dup3\n        /* \"#utility.yul\":19221:19235   */\n      add\n        /* \"#utility.yul\":19214:19264   */\n      mstore\n        /* \"#utility.yul\":19097:19271   */\n      pop\n      jump\t// out\n        /* \"#utility.yul\":19277:19643   */\n    tag_182:\n        /* \"#utility.yul\":19419:19422   */\n      0x00\n        /* \"#utility.yul\":19440:19507   */\n      tag_354\n        /* \"#utility.yul\":19504:19506   */\n      0x18\n        /* \"#utility.yul\":19499:19502   */\n      dup4\n        /* \"#utility.yul\":19440:19507   */\n      tag_155\n      jump\t// in\n    tag_354:\n        /* \"#utility.yul\":19433:19507   */\n      swap2\n      pop\n        /* \"#utility.yul\":19516:19609   */\n      tag_355\n        /* \"#utility.yul\":19605:19608   */\n      dup3\n        /* \"#utility.yul\":19516:19609   */\n      tag_181\n      jump\t// in\n    tag_355:\n        /* \"#utility.yul\":19634:19636   */\n      0x20\n        /* \"#utility.yul\":19629:19632   */\n      dup3\n        /* \"#utility.yul\":19625:19637   */\n      add\n        /* \"#utility.yul\":19618:19637   */\n      swap1\n      pop\n        /* \"#utility.yul\":19277:19643   */\n      swap2\n      swap1\n      pop\n      jump\t// out\n        /* \"#utility.yul\":19649:20068   */\n    tag_119:\n        /* \"#utility.yul\":19815:19819   */\n      0x00\n        /* \"#utility.yul\":19853:19855   */\n      0x20\n        /* \"#utility.yul\":19842:19851   */\n      dup3\n        /* \"#utility.yul\":19838:19856   */\n      add\n        /* \"#utility.yul\":19830:19856   */\n      swap1\n      pop\n        /* \"#utility.yul\":19902:19911   */\n      dup2\n        /* \"#utility.yul\":19896:19900   */\n      dup2\n        /* \"#utility.yul\":19892:19912   */\n      sub\n        /* \"#utility.yul\":19888:19889   */\n      0x00\n        /* \"#utility.yul\":19877:19886   */\n      dup4\n        /* \"#utility.yul\":19873:19890   */\n      add\n        /* \"#utility.yul\":19866:19913   */\n      mstore\n        /* \"#utility.yul\":19930:20061   */\n      tag_357\n        /* \"#utility.yul\":20056:20060   */\n      dup2\n        /* \"#utility.yul\":19930:20061   */\n      tag_182\n      jump\t// in\n    tag_357:\n        /* \"#utility.yul\":19922:20061   */\n      swap1\n      pop\n        /* \"#utility.yul\":19649:20068   */\n      swap2\n      swap1\n      pop\n      jump\t// out\n        /* \"#utility.yul\":20074:20268   */\n    tag_125:\n        /* \"#utility.yul\":20114:20118   */\n      0x00\n        /* \"#utility.yul\":20134:20154   */\n      tag_359\n        /* \"#utility.yul\":20152:20153   */\n      dup3\n        /* \"#utility.yul\":20134:20154   */\n      tag_132\n      jump\t// in\n    tag_359:\n        /* \"#utility.yul\":20129:20154   */\n      swap2\n      pop\n        /* \"#utility.yul\":20168:20188   */\n      tag_360\n        /* \"#utility.yul\":20186:20187   */\n      dup4\n        /* \"#utility.yul\":20168:20188   */\n      tag_132\n      jump\t// in\n    tag_360:\n        /* \"#utility.yul\":20163:20188   */\n      swap3\n      pop\n        /* \"#utility.yul\":20212:20213   */\n      dup3\n        /* \"#utility.yul\":20209:20210   */\n      dup3\n        /* \"#utility.yul\":20205:20214   */\n      sub\n        /* \"#utility.yul\":20197:20214   */\n      swap1\n      pop\n        /* \"#utility.yul\":20236:20237   */\n      dup2\n        /* \"#utility.yul\":20230:20234   */\n      dup2\n        /* \"#utility.yul\":20227:20238   */\n      gt\n        /* \"#utility.yul\":20224:20261   */\n      iszero\n      tag_361\n      jumpi\n        /* \"#utility.yul\":20241:20259   */\n      tag_362\n      tag_166\n      jump\t// in\n    tag_362:\n        /* \"#utility.yul\":20224:20261   */\n    tag_361:\n        /* \"#utility.yul\":20074:20268   */\n      swap3\n      swap2\n      pop\n      pop\n      jump\t// out\n\n    auxdata: 0xa264697066735822122068afd1ee65a030d04bde58f963851d0617ec938d8d84e7ed9eda24367465bb5b64736f6c63430008170033\n}\n",
				"bytecode": {
					"linkReferences": {},
					"object": "60a060405234801562000010575f80fd5b5060405162001b7338038062001b738339818101604052810190620000369190620000d6565b8073ffffffffffffffffffffffffffffffffffffffff1660808173ffffffffffffffffffffffffffffffffffffffff16815250505062000106565b5f80fd5b5f73ffffffffffffffffffffffffffffffffffffffff82169050919050565b5f620000a08262000075565b9050919050565b620000b28162000094565b8114620000bd575f80fd5b50565b5f81519050620000d081620000a7565b92915050565b5f60208284031215620000ee57620000ed62000071565b5b5f620000fd84828501620000c0565b91505092915050565b608051611a386200013b5f395f81816103ce0152818161088f01528181610b3b01528181610f6501526110750152611a385ff3fe608060405234801561000f575f80fd5b506004361061009c575f3560e01c8063379607f511610064578063379607f51461014757806340e58ee514610163578063711853ab1461017f578063aa4fb63a1461019b578063fc0c546a146101cb5761009c565b806306661abd146100a0578063141961bc146100be578063278ecde1146100f35780632c63f1461461010f578063372f01921461012b575b5f80fd5b6100a86101e9565b6040516100b591906110af565b60405180910390f35b6100d860048036038101906100d391906110f6565b6101ee565b6040516100ea96959493929190611198565b60405180910390f35b61010d600480360381019061010891906110f6565b610271565b005b61012960048036038101906101249190611221565b6104bc565b005b61014560048036038101906101409190611271565b610746565b005b610161600480360381019061015c91906110f6565b61097f565b005b61017d600480360381019061017891906110f6565b610c0a565b005b61019960048036038101906101949190611271565b610e77565b005b6101b560048036038101906101b091906112d9565b611053565b6040516101c291906110af565b60405180910390f35b6101d3611073565b6040516101e09190611372565b60405180910390f35b5f5481565b6001602052805f5260405f205f91509050805f015f9054906101000a900473ffffffffffffffffffffffffffffffffffffffff1690806001015490806002015490806003015f9054906101000a900463ffffffff16908060030160049054906101000a900463ffffffff16908060030160089054906101000a900460ff16905086565b5f60015f8381526020019081526020015f2090508060030160049054906101000a900463ffffffff1663ffffffff1642116102e1576040517f08c379a00000000000000000000000000000000000000000000000000000000081526004016102d8906113e5565b60405180910390fd5b806001015481600201541061032b576040517f08c379a00000000000000000000000000000000000000000000000000000000081526004016103229061144d565b60405180910390fd5b5f60025f8481526020019081526020015f205f3373ffffffffffffffffffffffffffffffffffffffff1673ffffffffffffffffffffffffffffffffffffffff1681526020019081526020015f205490505f60025f8581526020019081526020015f205f3373ffffffffffffffffffffffffffffffffffffffff1673ffffffffffffffffffffffffffffffffffffffff1681526020019081526020015f20819055507f000000000000000000000000000000000000000000000000000000000000000073ffffffffffffffffffffffffffffffffffffffff1663a9059cbb33836040518363ffffffff1660e01b815260040161042792919061146b565b6020604051808303815f875af1158015610443573d5f803e3d5ffd5b505050506040513d601f19601f8201168201806040525081019061046791906114bc565b503373ffffffffffffffffffffffffffffffffffffffff16837f21e12a7cad0da5928167e1084ea4d5fdf8d9af66657a2543a9ac76a0ca081477836040516104af91906110af565b60405180910390a3505050565b428263ffffffff161015610505576040517f08c379a00000000000000000000000000000000000000000000000000000000081526004016104fc90611531565b60405180910390fd5b8163ffffffff168163ffffffff1611610553576040517f08c379a000000000000000000000000000000000000000000000000000000000815260040161054a90611599565b60405180910390fd5b6276a7004261056291906115e4565b8163ffffffff16106105a9576040517f08c379a00000000000000000000000000000000000000000000000000000000081526004016105a090611661565b60405180910390fd5b60015f808282546105ba91906115e4565b925050819055506040518060c001604052803373ffffffffffffffffffffffffffffffffffffffff1681526020018481526020015f81526020018363ffffffff1681526020018263ffffffff1681526020015f151581525060015f805481526020019081526020015f205f820151815f015f6101000a81548173ffffffffffffffffffffffffffffffffffffffff021916908373ffffffffffffffffffffffffffffffffffffffff16021790555060208201518160010155604082015181600201556060820151816003015f6101000a81548163ffffffff021916908363ffffffff16021790555060808201518160030160046101000a81548163ffffffff021916908363ffffffff16021790555060a08201518160030160086101000a81548160ff0219169083151502179055509050503373ffffffffffffffffffffffffffffffffffffffff167f0601cd0d650b473037e838a2696d41e654433d065b3f56b28d1d3302e44a304f5f54858585604051610739949392919061167f565b60405180910390a2505050565b5f60015f8481526020019081526020015f209050806003015f9054906101000a900463ffffffff1663ffffffff1642116107b5576040517f08c379a00000000000000000000000000000000000000000000000000000000081526004016107ac9061170c565b60405180910390fd5b8060030160049054906101000a900463ffffffff1663ffffffff164210610811576040517f08c379a000000000000000000000000000000000000000000000000000000000815260040161080890611774565b60405180910390fd5b81816002015f82825461082491906115e4565b925050819055508160025f8581526020019081526020015f205f3373ffffffffffffffffffffffffffffffffffffffff1673ffffffffffffffffffffffffffffffffffffffff1681526020019081526020015f205f82825461088691906115e4565b925050819055507f000000000000000000000000000000000000000000000000000000000000000073ffffffffffffffffffffffffffffffffffffffff166323b872dd3330856040518463ffffffff1660e01b81526004016108ea93929190611792565b6020604051808303815f875af1158015610906573d5f803e3d5ffd5b505050506040513d601f19601f8201168201806040525081019061092a91906114bc565b503373ffffffffffffffffffffffffffffffffffffffff16837f2757ac6a40883f4491cc56930ae964df9034e343e660d5179eb01e198336756b8460405161097291906110af565b60405180910390a3505050565b5f60015f8381526020019081526020015f209050805f015f9054906101000a900473ffffffffffffffffffffffffffffffffffffffff1673ffffffffffffffffffffffffffffffffffffffff163373ffffffffffffffffffffffffffffffffffffffff1614610a23576040517f08c379a0000000000000000000000000000000000000000000000000000000008152600401610a1a90611811565b60405180910390fd5b8060030160049054906101000a900463ffffffff1663ffffffff164211610a7f576040517f08c379a0000000000000000000000000000000000000000000000000000000008152600401610a76906113e5565b60405180910390fd5b806001015481600201541015610aca576040517f08c379a0000000000000000000000000000000000000000000000000000000008152600401610ac190611879565b60405180910390fd5b8060030160089054906101000a900460ff1615610b1c576040517f08c379a0000000000000000000000000000000000000000000000000000000008152600401610b13906118e1565b60405180910390fd5b60018160030160086101000a81548160ff0219169083151502179055507f000000000000000000000000000000000000000000000000000000000000000073ffffffffffffffffffffffffffffffffffffffff1663a9059cbb3383600201546040518363ffffffff1660e01b8152600401610b9892919061146b565b6020604051808303815f875af1158015610bb4573d5f803e3d5ffd5b505050506040513d601f19601f82011682018060405250810190610bd891906114bc565b50817f7bb2b3c10797baccb6f8c4791f1edd6ca2f0d028ee0eda64b01a9a57e3a653f760405160405180910390a25050565b5f60015f8381526020019081526020015f206040518060c00160405290815f82015f9054906101000a900473ffffffffffffffffffffffffffffffffffffffff1673ffffffffffffffffffffffffffffffffffffffff1673ffffffffffffffffffffffffffffffffffffffff1681526020016001820154815260200160028201548152602001600382015f9054906101000a900463ffffffff1663ffffffff1663ffffffff1681526020016003820160049054906101000a900463ffffffff1663ffffffff1663ffffffff1681526020016003820160089054906101000a900460ff1615151515815250509050805f015173ffffffffffffffffffffffffffffffffffffffff163373ffffffffffffffffffffffffffffffffffffffff1614610d68576040517f08c379a0000000000000000000000000000000000000000000000000000000008152600401610d5f90611949565b60405180910390fd5b806060015163ffffffff164210610db4576040517f08c379a0000000000000000000000000000000000000000000000000000000008152600401610dab906119b1565b60405180910390fd5b60015f8381526020019081526020015f205f8082015f6101000a81549073ffffffffffffffffffffffffffffffffffffffff0219169055600182015f9055600282015f9055600382015f6101000a81549063ffffffff02191690556003820160046101000a81549063ffffffff02191690556003820160086101000a81549060ff021916905550507f8bf30e7ff26833413be5f69e1d373744864d600b664204b4a2f9844a8eedb9ed82604051610e6b91906110af565b60405180910390a15050565b5f60015f8481526020019081526020015f2090508060030160049054906101000a900463ffffffff1663ffffffff164210610ee7576040517f08c379a0000000000000000000000000000000000000000000000000000000008152600401610ede90611774565b60405180910390fd5b81816002015f828254610efa91906119cf565b925050819055508160025f8581526020019081526020015f205f3373ffffffffffffffffffffffffffffffffffffffff1673ffffffffffffffffffffffffffffffffffffffff1681526020019081526020015f205f828254610f5c91906119cf565b925050819055507f000000000000000000000000000000000000000000000000000000000000000073ffffffffffffffffffffffffffffffffffffffff1663a9059cbb33846040518363ffffffff1660e01b8152600401610fbe92919061146b565b6020604051808303815f875af1158015610fda573d5f803e3d5ffd5b505050506040513d601f19601f82011682018060405250810190610ffe91906114bc565b503373ffffffffffffffffffffffffffffffffffffffff16837ffcd29b1632c6748a9a4bb9b4cd5c6486c3c84a8550dce2368f83fef3969d96858460405161104691906110af565b60405180910390a3505050565b6002602052815f5260405f20602052805f5260405f205f91509150505481565b7f000000000000000000000000000000000000000000000000000000000000000081565b5f819050919050565b6110a981611097565b82525050565b5f6020820190506110c25f8301846110a0565b92915050565b5f80fd5b6110d581611097565b81146110df575f80fd5b50565b5f813590506110f0816110cc565b92915050565b5f6020828403121561110b5761110a6110c8565b5b5f611118848285016110e2565b91505092915050565b5f73ffffffffffffffffffffffffffffffffffffffff82169050919050565b5f61114a82611121565b9050919050565b61115a81611140565b82525050565b5f63ffffffff82169050919050565b61117881611160565b82525050565b5f8115159050919050565b6111928161117e565b82525050565b5f60c0820190506111ab5f830189611151565b6111b860208301886110a0565b6111c560408301876110a0565b6111d2606083018661116f565b6111df608083018561116f565b6111ec60a0830184611189565b979650505050505050565b61120081611160565b811461120a575f80fd5b50565b5f8135905061121b816111f7565b92915050565b5f805f60608486031215611238576112376110c8565b5b5f611245868287016110e2565b93505060206112568682870161120d565b92505060406112678682870161120d565b9150509250925092565b5f8060408385031215611287576112866110c8565b5b5f611294858286016110e2565b92505060206112a5858286016110e2565b9150509250929050565b6112b881611140565b81146112c2575f80fd5b50565b5f813590506112d3816112af565b92915050565b5f80604083850312156112ef576112ee6110c8565b5b5f6112fc858286016110e2565b925050602061130d858286016112c5565b9150509250929050565b5f819050919050565b5f61133a61133561133084611121565b611317565b611121565b9050919050565b5f61134b82611320565b9050919050565b5f61135c82611341565b9050919050565b61136c81611352565b82525050565b5f6020820190506113855f830184611363565b92915050565b5f82825260208201905092915050565b7f6e6f7420656e64656400000000000000000000000000000000000000000000005f82015250565b5f6113cf60098361138b565b91506113da8261139b565b602082019050919050565b5f6020820190508181035f8301526113fc816113c3565b9050919050565b7f706c65646765203e20676f616c000000000000000000000000000000000000005f82015250565b5f611437600d8361138b565b915061144282611403565b602082019050919050565b5f6020820190508181035f8301526114648161142b565b9050919050565b5f60408201905061147e5f830185611151565b61148b60208301846110a0565b9392505050565b61149b8161117e565b81146114a5575f80fd5b50565b5f815190506114b681611492565b92915050565b5f602082840312156114d1576114d06110c8565b5b5f6114de848285016114a8565b91505092915050565b7f73746172742074696d65203c206e6f77000000000000000000000000000000005f82015250565b5f61151b60108361138b565b9150611526826114e7565b602082019050919050565b5f6020820190508181035f8301526115488161150f565b9050919050565b7f656e642074696d65203c2073746172742074696d6500000000000000000000005f82015250565b5f61158360158361138b565b915061158e8261154f565b602082019050919050565b5f6020820190508181035f8301526115b081611577565b9050919050565b7f4e487b71000000000000000000000000000000000000000000000000000000005f52601160045260245ffd5b5f6115ee82611097565b91506115f983611097565b9250828201905080821115611611576116106115b7565b5b92915050565b7f656e64206174203e206d6178206475726174696f6e00000000000000000000005f82015250565b5f61164b60158361138b565b915061165682611617565b602082019050919050565b5f6020820190508181035f8301526116788161163f565b9050919050565b5f6080820190506116925f8301876110a0565b61169f60208301866110a0565b6116ac604083018561116f565b6116b9606083018461116f565b95945050505050565b7f6e6f7420737461727400000000000000000000000000000000000000000000005f82015250565b5f6116f660098361138b565b9150611701826116c2565b602082019050919050565b5f6020820190508181035f830152611723816116ea565b9050919050565b7f68617320656e64656421000000000000000000000000000000000000000000005f82015250565b5f61175e600a8361138b565b91506117698261172a565b602082019050919050565b5f6020820190508181035f83015261178b81611752565b9050919050565b5f6060820190506117a55f830186611151565b6117b26020830185611151565b6117bf60408301846110a0565b949350505050565b7f6e6f742063726561746f720000000000000000000000000000000000000000005f82015250565b5f6117fb600b8361138b565b9150611806826117c7565b602082019050919050565b5f6020820190508181035f830152611828816117ef565b9050919050565b7f706c65646765203c20676f616c000000000000000000000000000000000000005f82015250565b5f611863600d8361138b565b915061186e8261182f565b602082019050919050565b5f6020820190508181035f83015261189081611857565b9050919050565b7f68617320636c61696d65642100000000000000000000000000000000000000005f82015250565b5f6118cb600c8361138b565b91506118d682611897565b602082019050919050565b5f6020820190508181035f8301526118f8816118bf565b9050919050565b7f6e6f742063726561746f722100000000000000000000000000000000000000005f82015250565b5f611933600c8361138b565b915061193e826118ff565b602082019050919050565b5f6020820190508181035f83015261196081611927565b9050919050565b7f68617320737461727465642063616e27742063616e63656c00000000000000005f82015250565b5f61199b60188361138b565b91506119a682611967565b602082019050919050565b5f6020820190508181035f8301526119c88161198f565b9050919050565b5f6119d982611097565b91506119e483611097565b92508282039050818111156119fc576119fb6115b7565b5b9291505056fea264697066735822122068afd1ee65a030d04bde58f963851d0617ec938d8d84e7ed9eda24367465bb5b64736f6c63430008170033",
					"opcodes": "PUSH1 0xA0 PUSH1 0x40 MSTORE CALLVALUE DUP1 ISZERO PUSH3 0x10 JUMPI PUSH0 DUP1 REVERT JUMPDEST POP PUSH1 0x40 MLOAD PUSH3 0x1B73 CODESIZE SUB DUP1 PUSH3 0x1B73 DUP4 CODECOPY DUP2 DUP2 ADD PUSH1 0x40 MSTORE DUP2 ADD SWAP1 PUSH3 0x36 SWAP2 SWAP1 PUSH3 0xD6 JUMP JUMPDEST DUP1 PUSH20 0xFFFFFFFFFFFFFFFFFFFFFFFFFFFFFFFFFFFFFFFF AND PUSH1 0x80 DUP2 PUSH20 0xFFFFFFFFFFFFFFFFFFFFFFFFFFFFFFFFFFFFFFFF AND DUP2 MSTORE POP POP POP PUSH3 0x106 JUMP JUMPDEST PUSH0 DUP1 REVERT JUMPDEST PUSH0 PUSH20 0xFFFFFFFFFFFFFFFFFFFFFFFFFFFFFFFFFFFFFFFF DUP3 AND SWAP1 POP SWAP2 SWAP1 POP JUMP JUMPDEST PUSH0 PUSH3 0xA0 DUP3 PUSH3 0x75 JUMP JUMPDEST SWAP1 POP SWAP2 SWAP1 POP JUMP JUMPDEST PUSH3 0xB2 DUP2 PUSH3 0x94 JUMP JUMPDEST DUP2 EQ PUSH3 0xBD JUMPI PUSH0 DUP1 REVERT JUMPDEST POP JUMP JUMPDEST PUSH0 DUP2 MLOAD SWAP1 POP PUSH3 0xD0 DUP2 PUSH3 0xA7 JUMP JUMPDEST SWAP3 SWAP2 POP POP JUMP JUMPDEST PUSH0 PUSH1 0x20 DUP3 DUP5 SUB SLT ISZERO PUSH3 0xEE JUMPI PUSH3 0xED PUSH3 0x71 JUMP JUMPDEST JUMPDEST PUSH0 PUSH3 0xFD DUP5 DUP3 DUP6 ADD PUSH3 0xC0 JUMP JUMPDEST SWAP2 POP POP SWAP3 SWAP2 POP POP JUMP JUMPDEST PUSH1 0x80 MLOAD PUSH2 0x1A38 PUSH3 0x13B PUSH0 CODECOPY PUSH0 DUP2 DUP2 PUSH2 0x3CE ADD MSTORE DUP2 DUP2 PUSH2 0x88F ADD MSTORE DUP2 DUP2 PUSH2 0xB3B ADD MSTORE DUP2 DUP2 PUSH2 0xF65 ADD MSTORE PUSH2 0x1075 ADD MSTORE PUSH2 0x1A38 PUSH0 RETURN INVALID PUSH1 0x80 PUSH1 0x40 MSTORE CALLVALUE DUP1 ISZERO PUSH2 0xF JUMPI PUSH0 DUP1 REVERT JUMPDEST POP PUSH1 0x4 CALLDATASIZE LT PUSH2 0x9C JUMPI PUSH0 CALLDATALOAD PUSH1 0xE0 SHR DUP1 PUSH4 0x379607F5 GT PUSH2 0x64 JUMPI DUP1 PUSH4 0x379607F5 EQ PUSH2 0x147 JUMPI DUP1 PUSH4 0x40E58EE5 EQ PUSH2 0x163 JUMPI DUP1 PUSH4 0x711853AB EQ PUSH2 0x17F JUMPI DUP1 PUSH4 0xAA4FB63A EQ PUSH2 0x19B JUMPI DUP1 PUSH4 0xFC0C546A EQ PUSH2 0x1CB JUMPI PUSH2 0x9C JUMP JUMPDEST DUP1 PUSH4 0x6661ABD EQ PUSH2 0xA0 JUMPI DUP1 PUSH4 0x141961BC EQ PUSH2 0xBE JUMPI DUP1 PUSH4 0x278ECDE1 EQ PUSH2 0xF3 JUMPI DUP1 PUSH4 0x2C63F146 EQ PUSH2 0x10F JUMPI DUP1 PUSH4 0x372F0192 EQ PUSH2 0x12B JUMPI JUMPDEST PUSH0 DUP1 REVERT JUMPDEST PUSH2 0xA8 PUSH2 0x1E9 JUMP JUMPDEST PUSH1 0x40 MLOAD PUSH2 0xB5 SWAP2 SWAP1 PUSH2 0x10AF JUMP JUMPDEST PUSH1 0x40 MLOAD DUP1 SWAP2 SUB SWAP1 RETURN JUMPDEST PUSH2 0xD8 PUSH1 0x4 DUP1 CALLDATASIZE SUB DUP2 ADD SWAP1 PUSH2 0xD3 SWAP2 SWAP1 PUSH2 0x10F6 JUMP JUMPDEST PUSH2 0x1EE JUMP JUMPDEST PUSH1 0x40 MLOAD PUSH2 0xEA SWAP7 SWAP6 SWAP5 SWAP4 SWAP3 SWAP2 SWAP1 PUSH2 0x1198 JUMP JUMPDEST PUSH1 0x40 MLOAD DUP1 SWAP2 SUB SWAP1 RETURN JUMPDEST PUSH2 0x10D PUSH1 0x4 DUP1 CALLDATASIZE SUB DUP2 ADD SWAP1 PUSH2 0x108 SWAP2 SWAP1 PUSH2 0x10F6 JUMP JUMPDEST PUSH2 0x271 JUMP JUMPDEST STOP JUMPDEST PUSH2 0x129 PUSH1 0x4 DUP1 CALLDATASIZE SUB DUP2 ADD SWAP1 PUSH2 0x124 SWAP2 SWAP1 PUSH2 0x1221 JUMP JUMPDEST PUSH2 0x4BC JUMP JUMPDEST STOP JUMPDEST PUSH2 0x145 PUSH1 0x4 DUP1 CALLDATASIZE SUB DUP2 ADD SWAP1 PUSH2 0x140 SWAP2 SWAP1 PUSH2 0x1271 JUMP JUMPDEST PUSH2 0x746 JUMP JUMPDEST STOP JUMPDEST PUSH2 0x161 PUSH1 0x4 DUP1 CALLDATASIZE SUB DUP2 ADD SWAP1 PUSH2 0x15C SWAP2 SWAP1 PUSH2 0x10F6 JUMP JUMPDEST PUSH2 0x97F JUMP JUMPDEST STOP JUMPDEST PUSH2 0x17D PUSH1 0x4 DUP1 CALLDATASIZE SUB DUP2 ADD SWAP1 PUSH2 0x178 SWAP2 SWAP1 PUSH2 0x10F6 JUMP JUMPDEST PUSH2 0xC0A JUMP JUMPDEST STOP JUMPDEST PUSH2 0x199 PUSH1 0x4 DUP1 CALLDATASIZE SUB DUP2 ADD SWAP1 PUSH2 0x194 SWAP2 SWAP1 PUSH2 0x1271 JUMP JUMPDEST PUSH2 0xE77 JUMP JUMPDEST STOP JUMPDEST PUSH2 0x1B5 PUSH1 0x4 DUP1 CALLDATASIZE SUB DUP2 ADD SWAP1 PUSH2 0x1B0 SWAP2 SWAP1 PUSH2 0x12D9 JUMP JUMPDEST PUSH2 0x1053 JUMP JUMPDEST PUSH1 0x40 MLOAD PUSH2 0x1C2 SWAP2 SWAP1 PUSH2 0x10AF JUMP JUMPDEST PUSH1 0x40 MLOAD DUP1 SWAP2 SUB SWAP1 RETURN JUMPDEST PUSH2 0x1D3 PUSH2 0x1073 JUMP JUMPDEST PUSH1 0x40 MLOAD PUSH2 0x1E0 SWAP2 SWAP1 PUSH2 0x1372 JUMP JUMPDEST PUSH1 0x40 MLOAD DUP1 SWAP2 SUB SWAP1 RETURN JUMPDEST PUSH0 SLOAD DUP2 JUMP JUMPDEST PUSH1 0x1 PUSH1 0x20 MSTORE DUP1 PUSH0 MSTORE PUSH1 0x40 PUSH0 KECCAK256 PUSH0 SWAP2 POP SWAP1 POP DUP1 PUSH0 ADD PUSH0 SWAP1 SLOAD SWAP1 PUSH2 0x100 EXP SWAP1 DIV PUSH20 0xFFFFFFFFFFFFFFFFFFFFFFFFFFFFFFFFFFFFFFFF AND SWAP1 DUP1 PUSH1 0x1 ADD SLOAD SWAP1 DUP1 PUSH1 0x2 ADD SLOAD SWAP1 DUP1 PUSH1 0x3 ADD PUSH0 SWAP1 SLOAD SWAP1 PUSH2 0x100 EXP SWAP1 DIV PUSH4 0xFFFFFFFF AND SWAP1 DUP1 PUSH1 0x3 ADD PUSH1 0x4 SWAP1 SLOAD SWAP1 PUSH2 0x100 EXP SWAP1 DIV PUSH4 0xFFFFFFFF AND SWAP1 DUP1 PUSH1 0x3 ADD PUSH1 0x8 SWAP1 SLOAD SWAP1 PUSH2 0x100 EXP SWAP1 DIV PUSH1 0xFF AND SWAP1 POP DUP7 JUMP JUMPDEST PUSH0 PUSH1 0x1 PUSH0 DUP4 DUP2 MSTORE PUSH1 0x20 ADD SWAP1 DUP2 MSTORE PUSH1 0x20 ADD PUSH0 KECCAK256 SWAP1 POP DUP1 PUSH1 0x3 ADD PUSH1 0x4 SWAP1 SLOAD SWAP1 PUSH2 0x100 EXP SWAP1 DIV PUSH4 0xFFFFFFFF AND PUSH4 0xFFFFFFFF AND TIMESTAMP GT PUSH2 0x2E1 JUMPI PUSH1 0x40 MLOAD PUSH32 0x8C379A000000000000000000000000000000000000000000000000000000000 DUP2 MSTORE PUSH1 0x4 ADD PUSH2 0x2D8 SWAP1 PUSH2 0x13E5 JUMP JUMPDEST PUSH1 0x40 MLOAD DUP1 SWAP2 SUB SWAP1 REVERT JUMPDEST DUP1 PUSH1 0x1 ADD SLOAD DUP2 PUSH1 0x2 ADD SLOAD LT PUSH2 0x32B JUMPI PUSH1 0x40 MLOAD PUSH32 0x8C379A000000000000000000000000000000000000000000000000000000000 DUP2 MSTORE PUSH1 0x4 ADD PUSH2 0x322 SWAP1 PUSH2 0x144D JUMP JUMPDEST PUSH1 0x40 MLOAD DUP1 SWAP2 SUB SWAP1 REVERT JUMPDEST PUSH0 PUSH1 0x2 PUSH0 DUP5 DUP2 MSTORE PUSH1 0x20 ADD SWAP1 DUP2 MSTORE PUSH1 0x20 ADD PUSH0 KECCAK256 PUSH0 CALLER PUSH20 0xFFFFFFFFFFFFFFFFFFFFFFFFFFFFFFFFFFFFFFFF AND PUSH20 0xFFFFFFFFFFFFFFFFFFFFFFFFFFFFFFFFFFFFFFFF AND DUP2 MSTORE PUSH1 0x20 ADD SWAP1 DUP2 MSTORE PUSH1 0x20 ADD PUSH0 KECCAK256 SLOAD SWAP1 POP PUSH0 PUSH1 0x2 PUSH0 DUP6 DUP2 MSTORE PUSH1 0x20 ADD SWAP1 DUP2 MSTORE PUSH1 0x20 ADD PUSH0 KECCAK256 PUSH0 CALLER PUSH20 0xFFFFFFFFFFFFFFFFFFFFFFFFFFFFFFFFFFFFFFFF AND PUSH20 0xFFFFFFFFFFFFFFFFFFFFFFFFFFFFFFFFFFFFFFFF AND DUP2 MSTORE PUSH1 0x20 ADD SWAP1 DUP2 MSTORE PUSH1 0x20 ADD PUSH0 KECCAK256 DUP2 SWAP1 SSTORE POP PUSH32 0x0 PUSH20 0xFFFFFFFFFFFFFFFFFFFFFFFFFFFFFFFFFFFFFFFF AND PUSH4 0xA9059CBB CALLER DUP4 PUSH1 0x40 MLOAD DUP4 PUSH4 0xFFFFFFFF AND PUSH1 0xE0 SHL DUP2 MSTORE PUSH1 0x4 ADD PUSH2 0x427 SWAP3 SWAP2 SWAP1 PUSH2 0x146B JUMP JUMPDEST PUSH1 0x20 PUSH1 0x40 MLOAD DUP1 DUP4 SUB DUP2 PUSH0 DUP8 GAS CALL ISZERO DUP1 ISZERO PUSH2 0x443 JUMPI RETURNDATASIZE PUSH0 DUP1 RETURNDATACOPY RETURNDATASIZE PUSH0 REVERT JUMPDEST POP POP POP POP PUSH1 0x40 MLOAD RETURNDATASIZE PUSH1 0x1F NOT PUSH1 0x1F DUP3 ADD AND DUP3 ADD DUP1 PUSH1 0x40 MSTORE POP DUP2 ADD SWAP1 PUSH2 0x467 SWAP2 SWAP1 PUSH2 0x14BC JUMP JUMPDEST POP CALLER PUSH20 0xFFFFFFFFFFFFFFFFFFFFFFFFFFFFFFFFFFFFFFFF AND DUP4 PUSH32 0x21E12A7CAD0DA5928167E1084EA4D5FDF8D9AF66657A2543A9AC76A0CA081477 DUP4 PUSH1 0x40 MLOAD PUSH2 0x4AF SWAP2 SWAP1 PUSH2 0x10AF JUMP JUMPDEST PUSH1 0x40 MLOAD DUP1 SWAP2 SUB SWAP1 LOG3 POP POP POP JUMP JUMPDEST TIMESTAMP DUP3 PUSH4 0xFFFFFFFF AND LT ISZERO PUSH2 0x505 JUMPI PUSH1 0x40 MLOAD PUSH32 0x8C379A000000000000000000000000000000000000000000000000000000000 DUP2 MSTORE PUSH1 0x4 ADD PUSH2 0x4FC SWAP1 PUSH2 0x1531 JUMP JUMPDEST PUSH1 0x40 MLOAD DUP1 SWAP2 SUB SWAP1 REVERT JUMPDEST DUP2 PUSH4 0xFFFFFFFF AND DUP2 PUSH4 0xFFFFFFFF AND GT PUSH2 0x553 JUMPI PUSH1 0x40 MLOAD PUSH32 0x8C379A000000000000000000000000000000000000000000000000000000000 DUP2 MSTORE PUSH1 0x4 ADD PUSH2 0x54A SWAP1 PUSH2 0x1599 JUMP JUMPDEST PUSH1 0x40 MLOAD DUP1 SWAP2 SUB SWAP1 REVERT JUMPDEST PUSH3 0x76A700 TIMESTAMP PUSH2 0x562 SWAP2 SWAP1 PUSH2 0x15E4 JUMP JUMPDEST DUP2 PUSH4 0xFFFFFFFF AND LT PUSH2 0x5A9 JUMPI PUSH1 0x40 MLOAD PUSH32 0x8C379A000000000000000000000000000000000000000000000000000000000 DUP2 MSTORE PUSH1 0x4 ADD PUSH2 0x5A0 SWAP1 PUSH2 0x1661 JUMP JUMPDEST PUSH1 0x40 MLOAD DUP1 SWAP2 SUB SWAP1 REVERT JUMPDEST PUSH1 0x1 PUSH0 DUP1 DUP3 DUP3 SLOAD PUSH2 0x5BA SWAP2 SWAP1 PUSH2 0x15E4 JUMP JUMPDEST SWAP3 POP POP DUP2 SWAP1 SSTORE POP PUSH1 0x40 MLOAD DUP1 PUSH1 0xC0 ADD PUSH1 0x40 MSTORE DUP1 CALLER PUSH20 0xFFFFFFFFFFFFFFFFFFFFFFFFFFFFFFFFFFFFFFFF AND DUP2 MSTORE PUSH1 0x20 ADD DUP5 DUP2 MSTORE PUSH1 0x20 ADD PUSH0 DUP2 MSTORE PUSH1 0x20 ADD DUP4 PUSH4 0xFFFFFFFF AND DUP2 MSTORE PUSH1 0x20 ADD DUP3 PUSH4 0xFFFFFFFF AND DUP2 MSTORE PUSH1 0x20 ADD PUSH0 ISZERO ISZERO DUP2 MSTORE POP PUSH1 0x1 PUSH0 DUP1 SLOAD DUP2 MSTORE PUSH1 0x20 ADD SWAP1 DUP2 MSTORE PUSH1 0x20 ADD PUSH0 KECCAK256 PUSH0 DUP3 ADD MLOAD DUP2 PUSH0 ADD PUSH0 PUSH2 0x100 EXP DUP2 SLOAD DUP2 PUSH20 0xFFFFFFFFFFFFFFFFFFFFFFFFFFFFFFFFFFFFFFFF MUL NOT AND SWAP1 DUP4 PUSH20 0xFFFFFFFFFFFFFFFFFFFFFFFFFFFFFFFFFFFFFFFF AND MUL OR SWAP1 SSTORE POP PUSH1 0x20 DUP3 ADD MLOAD DUP2 PUSH1 0x1 ADD SSTORE PUSH1 0x40 DUP3 ADD MLOAD DUP2 PUSH1 0x2 ADD SSTORE PUSH1 0x60 DUP3 ADD MLOAD DUP2 PUSH1 0x3 ADD PUSH0 PUSH2 0x100 EXP DUP2 SLOAD DUP2 PUSH4 0xFFFFFFFF MUL NOT AND SWAP1 DUP4 PUSH4 0xFFFFFFFF AND MUL OR SWAP1 SSTORE POP PUSH1 0x80 DUP3 ADD MLOAD DUP2 PUSH1 0x3 ADD PUSH1 0x4 PUSH2 0x100 EXP DUP2 SLOAD DUP2 PUSH4 0xFFFFFFFF MUL NOT AND SWAP1 DUP4 PUSH4 0xFFFFFFFF AND MUL OR SWAP1 SSTORE POP PUSH1 0xA0 DUP3 ADD MLOAD DUP2 PUSH1 0x3 ADD PUSH1 0x8 PUSH2 0x100 EXP DUP2 SLOAD DUP2 PUSH1 0xFF MUL NOT AND SWAP1 DUP4 ISZERO ISZERO MUL OR SWAP1 SSTORE POP SWAP1 POP POP CALLER PUSH20 0xFFFFFFFFFFFFFFFFFFFFFFFFFFFFFFFFFFFFFFFF AND PUSH32 0x601CD0D650B473037E838A2696D41E654433D065B3F56B28D1D3302E44A304F PUSH0 SLOAD DUP6 DUP6 DUP6 PUSH1 0x40 MLOAD PUSH2 0x739 SWAP5 SWAP4 SWAP3 SWAP2 SWAP1 PUSH2 0x167F JUMP JUMPDEST PUSH1 0x40 MLOAD DUP1 SWAP2 SUB SWAP1 LOG2 POP POP POP JUMP JUMPDEST PUSH0 PUSH1 0x1 PUSH0 DUP5 DUP2 MSTORE PUSH1 0x20 ADD SWAP1 DUP2 MSTORE PUSH1 0x20 ADD PUSH0 KECCAK256 SWAP1 POP DUP1 PUSH1 0x3 ADD PUSH0 SWAP1 SLOAD SWAP1 PUSH2 0x100 EXP SWAP1 DIV PUSH4 0xFFFFFFFF AND PUSH4 0xFFFFFFFF AND TIMESTAMP GT PUSH2 0x7B5 JUMPI PUSH1 0x40 MLOAD PUSH32 0x8C379A000000000000000000000000000000000000000000000000000000000 DUP2 MSTORE PUSH1 0x4 ADD PUSH2 0x7AC SWAP1 PUSH2 0x170C JUMP JUMPDEST PUSH1 0x40 MLOAD DUP1 SWAP2 SUB SWAP1 REVERT JUMPDEST DUP1 PUSH1 0x3 ADD PUSH1 0x4 SWAP1 SLOAD SWAP1 PUSH2 0x100 EXP SWAP1 DIV PUSH4 0xFFFFFFFF AND PUSH4 0xFFFFFFFF AND TIMESTAMP LT PUSH2 0x811 JUMPI PUSH1 0x40 MLOAD PUSH32 0x8C379A000000000000000000000000000000000000000000000000000000000 DUP2 MSTORE PUSH1 0x4 ADD PUSH2 0x808 SWAP1 PUSH2 0x1774 JUMP JUMPDEST PUSH1 0x40 MLOAD DUP1 SWAP2 SUB SWAP1 REVERT JUMPDEST DUP2 DUP2 PUSH1 0x2 ADD PUSH0 DUP3 DUP3 SLOAD PUSH2 0x824 SWAP2 SWAP1 PUSH2 0x15E4 JUMP JUMPDEST SWAP3 POP POP DUP2 SWAP1 SSTORE POP DUP2 PUSH1 0x2 PUSH0 DUP6 DUP2 MSTORE PUSH1 0x20 ADD SWAP1 DUP2 MSTORE PUSH1 0x20 ADD PUSH0 KECCAK256 PUSH0 CALLER PUSH20 0xFFFFFFFFFFFFFFFFFFFFFFFFFFFFFFFFFFFFFFFF AND PUSH20 0xFFFFFFFFFFFFFFFFFFFFFFFFFFFFFFFFFFFFFFFF AND DUP2 MSTORE PUSH1 0x20 ADD SWAP1 DUP2 MSTORE PUSH1 0x20 ADD PUSH0 KECCAK256 PUSH0 DUP3 DUP3 SLOAD PUSH2 0x886 SWAP2 SWAP1 PUSH2 0x15E4 JUMP JUMPDEST SWAP3 POP POP DUP2 SWAP1 SSTORE POP PUSH32 0x0 PUSH20 0xFFFFFFFFFFFFFFFFFFFFFFFFFFFFFFFFFFFFFFFF AND PUSH4 0x23B872DD CALLER ADDRESS DUP6 PUSH1 0x40 MLOAD DUP5 PUSH4 0xFFFFFFFF AND PUSH1 0xE0 SHL DUP2 MSTORE PUSH1 0x4 ADD PUSH2 0x8EA SWAP4 SWAP3 SWAP2 SWAP1 PUSH2 0x1792 JUMP JUMPDEST PUSH1 0x20 PUSH1 0x40 MLOAD DUP1 DUP4 SUB DUP2 PUSH0 DUP8 GAS CALL ISZERO DUP1 ISZERO PUSH2 0x906 JUMPI RETURNDATASIZE PUSH0 DUP1 RETURNDATACOPY RETURNDATASIZE PUSH0 REVERT JUMPDEST POP POP POP POP PUSH1 0x40 MLOAD RETURNDATASIZE PUSH1 0x1F NOT PUSH1 0x1F DUP3 ADD AND DUP3 ADD DUP1 PUSH1 0x40 MSTORE POP DUP2 ADD SWAP1 PUSH2 0x92A SWAP2 SWAP1 PUSH2 0x14BC JUMP JUMPDEST POP CALLER PUSH20 0xFFFFFFFFFFFFFFFFFFFFFFFFFFFFFFFFFFFFFFFF AND DUP4 PUSH32 0x2757AC6A40883F4491CC56930AE964DF9034E343E660D5179EB01E198336756B DUP5 PUSH1 0x40 MLOAD PUSH2 0x972 SWAP2 SWAP1 PUSH2 0x10AF JUMP JUMPDEST PUSH1 0x40 MLOAD DUP1 SWAP2 SUB SWAP1 LOG3 POP POP POP JUMP JUMPDEST PUSH0 PUSH1 0x1 PUSH0 DUP4 DUP2 MSTORE PUSH1 0x20 ADD SWAP1 DUP2 MSTORE PUSH1 0x20 ADD PUSH0 KECCAK256 SWAP1 POP DUP1 PUSH0 ADD PUSH0 SWAP1 SLOAD SWAP1 PUSH2 0x100 EXP SWAP1 DIV PUSH20 0xFFFFFFFFFFFFFFFFFFFFFFFFFFFFFFFFFFFFFFFF AND PUSH20 0xFFFFFFFFFFFFFFFFFFFFFFFFFFFFFFFFFFFFFFFF AND CALLER PUSH20 0xFFFFFFFFFFFFFFFFFFFFFFFFFFFFFFFFFFFFFFFF AND EQ PUSH2 0xA23 JUMPI PUSH1 0x40 MLOAD PUSH32 0x8C379A000000000000000000000000000000000000000000000000000000000 DUP2 MSTORE PUSH1 0x4 ADD PUSH2 0xA1A SWAP1 PUSH2 0x1811 JUMP JUMPDEST PUSH1 0x40 MLOAD DUP1 SWAP2 SUB SWAP1 REVERT JUMPDEST DUP1 PUSH1 0x3 ADD PUSH1 0x4 SWAP1 SLOAD SWAP1 PUSH2 0x100 EXP SWAP1 DIV PUSH4 0xFFFFFFFF AND PUSH4 0xFFFFFFFF AND TIMESTAMP GT PUSH2 0xA7F JUMPI PUSH1 0x40 MLOAD PUSH32 0x8C379A000000000000000000000000000000000000000000000000000000000 DUP2 MSTORE PUSH1 0x4 ADD PUSH2 0xA76 SWAP1 PUSH2 0x13E5 JUMP JUMPDEST PUSH1 0x40 MLOAD DUP1 SWAP2 SUB SWAP1 REVERT JUMPDEST DUP1 PUSH1 0x1 ADD SLOAD DUP2 PUSH1 0x2 ADD SLOAD LT ISZERO PUSH2 0xACA JUMPI PUSH1 0x40 MLOAD PUSH32 0x8C379A000000000000000000000000000000000000000000000000000000000 DUP2 MSTORE PUSH1 0x4 ADD PUSH2 0xAC1 SWAP1 PUSH2 0x1879 JUMP JUMPDEST PUSH1 0x40 MLOAD DUP1 SWAP2 SUB SWAP1 REVERT JUMPDEST DUP1 PUSH1 0x3 ADD PUSH1 0x8 SWAP1 SLOAD SWAP1 PUSH2 0x100 EXP SWAP1 DIV PUSH1 0xFF AND ISZERO PUSH2 0xB1C JUMPI PUSH1 0x40 MLOAD PUSH32 0x8C379A000000000000000000000000000000000000000000000000000000000 DUP2 MSTORE PUSH1 0x4 ADD PUSH2 0xB13 SWAP1 PUSH2 0x18E1 JUMP JUMPDEST PUSH1 0x40 MLOAD DUP1 SWAP2 SUB SWAP1 REVERT JUMPDEST PUSH1 0x1 DUP2 PUSH1 0x3 ADD PUSH1 0x8 PUSH2 0x100 EXP DUP2 SLOAD DUP2 PUSH1 0xFF MUL NOT AND SWAP1 DUP4 ISZERO ISZERO MUL OR SWAP1 SSTORE POP PUSH32 0x0 PUSH20 0xFFFFFFFFFFFFFFFFFFFFFFFFFFFFFFFFFFFFFFFF AND PUSH4 0xA9059CBB CALLER DUP4 PUSH1 0x2 ADD SLOAD PUSH1 0x40 MLOAD DUP4 PUSH4 0xFFFFFFFF AND PUSH1 0xE0 SHL DUP2 MSTORE PUSH1 0x4 ADD PUSH2 0xB98 SWAP3 SWAP2 SWAP1 PUSH2 0x146B JUMP JUMPDEST PUSH1 0x20 PUSH1 0x40 MLOAD DUP1 DUP4 SUB DUP2 PUSH0 DUP8 GAS CALL ISZERO DUP1 ISZERO PUSH2 0xBB4 JUMPI RETURNDATASIZE PUSH0 DUP1 RETURNDATACOPY RETURNDATASIZE PUSH0 REVERT JUMPDEST POP POP POP POP PUSH1 0x40 MLOAD RETURNDATASIZE PUSH1 0x1F NOT PUSH1 0x1F DUP3 ADD AND DUP3 ADD DUP1 PUSH1 0x40 MSTORE POP DUP2 ADD SWAP1 PUSH2 0xBD8 SWAP2 SWAP1 PUSH2 0x14BC JUMP JUMPDEST POP DUP2 PUSH32 0x7BB2B3C10797BACCB6F8C4791F1EDD6CA2F0D028EE0EDA64B01A9A57E3A653F7 PUSH1 0x40 MLOAD PUSH1 0x40 MLOAD DUP1 SWAP2 SUB SWAP1 LOG2 POP POP JUMP JUMPDEST PUSH0 PUSH1 0x1 PUSH0 DUP4 DUP2 MSTORE PUSH1 0x20 ADD SWAP1 DUP2 MSTORE PUSH1 0x20 ADD PUSH0 KECCAK256 PUSH1 0x40 MLOAD DUP1 PUSH1 0xC0 ADD PUSH1 0x40 MSTORE SWAP1 DUP2 PUSH0 DUP3 ADD PUSH0 SWAP1 SLOAD SWAP1 PUSH2 0x100 EXP SWAP1 DIV PUSH20 0xFFFFFFFFFFFFFFFFFFFFFFFFFFFFFFFFFFFFFFFF AND PUSH20 0xFFFFFFFFFFFFFFFFFFFFFFFFFFFFFFFFFFFFFFFF AND PUSH20 0xFFFFFFFFFFFFFFFFFFFFFFFFFFFFFFFFFFFFFFFF AND DUP2 MSTORE PUSH1 0x20 ADD PUSH1 0x1 DUP3 ADD SLOAD DUP2 MSTORE PUSH1 0x20 ADD PUSH1 0x2 DUP3 ADD SLOAD DUP2 MSTORE PUSH1 0x20 ADD PUSH1 0x3 DUP3 ADD PUSH0 SWAP1 SLOAD SWAP1 PUSH2 0x100 EXP SWAP1 DIV PUSH4 0xFFFFFFFF AND PUSH4 0xFFFFFFFF AND PUSH4 0xFFFFFFFF AND DUP2 MSTORE PUSH1 0x20 ADD PUSH1 0x3 DUP3 ADD PUSH1 0x4 SWAP1 SLOAD SWAP1 PUSH2 0x100 EXP SWAP1 DIV PUSH4 0xFFFFFFFF AND PUSH4 0xFFFFFFFF AND PUSH4 0xFFFFFFFF AND DUP2 MSTORE PUSH1 0x20 ADD PUSH1 0x3 DUP3 ADD PUSH1 0x8 SWAP1 SLOAD SWAP1 PUSH2 0x100 EXP SWAP1 DIV PUSH1 0xFF AND ISZERO ISZERO ISZERO ISZERO DUP2 MSTORE POP POP SWAP1 POP DUP1 PUSH0 ADD MLOAD PUSH20 0xFFFFFFFFFFFFFFFFFFFFFFFFFFFFFFFFFFFFFFFF AND CALLER PUSH20 0xFFFFFFFFFFFFFFFFFFFFFFFFFFFFFFFFFFFFFFFF AND EQ PUSH2 0xD68 JUMPI PUSH1 0x40 MLOAD PUSH32 0x8C379A000000000000000000000000000000000000000000000000000000000 DUP2 MSTORE PUSH1 0x4 ADD PUSH2 0xD5F SWAP1 PUSH2 0x1949 JUMP JUMPDEST PUSH1 0x40 MLOAD DUP1 SWAP2 SUB SWAP1 REVERT JUMPDEST DUP1 PUSH1 0x60 ADD MLOAD PUSH4 0xFFFFFFFF AND TIMESTAMP LT PUSH2 0xDB4 JUMPI PUSH1 0x40 MLOAD PUSH32 0x8C379A000000000000000000000000000000000000000000000000000000000 DUP2 MSTORE PUSH1 0x4 ADD PUSH2 0xDAB SWAP1 PUSH2 0x19B1 JUMP JUMPDEST PUSH1 0x40 MLOAD DUP1 SWAP2 SUB SWAP1 REVERT JUMPDEST PUSH1 0x1 PUSH0 DUP4 DUP2 MSTORE PUSH1 0x20 ADD SWAP1 DUP2 MSTORE PUSH1 0x20 ADD PUSH0 KECCAK256 PUSH0 DUP1 DUP3 ADD PUSH0 PUSH2 0x100 EXP DUP2 SLOAD SWAP1 PUSH20 0xFFFFFFFFFFFFFFFFFFFFFFFFFFFFFFFFFFFFFFFF MUL NOT AND SWAP1 SSTORE PUSH1 0x1 DUP3 ADD PUSH0 SWAP1 SSTORE PUSH1 0x2 DUP3 ADD PUSH0 SWAP1 SSTORE PUSH1 0x3 DUP3 ADD PUSH0 PUSH2 0x100 EXP DUP2 SLOAD SWAP1 PUSH4 0xFFFFFFFF MUL NOT AND SWAP1 SSTORE PUSH1 0x3 DUP3 ADD PUSH1 0x4 PUSH2 0x100 EXP DUP2 SLOAD SWAP1 PUSH4 0xFFFFFFFF MUL NOT AND SWAP1 SSTORE PUSH1 0x3 DUP3 ADD PUSH1 0x8 PUSH2 0x100 EXP DUP2 SLOAD SWAP1 PUSH1 0xFF MUL NOT AND SWAP1 SSTORE POP POP PUSH32 0x8BF30E7FF26833413BE5F69E1D373744864D600B664204B4A2F9844A8EEDB9ED DUP3 PUSH1 0x40 MLOAD PUSH2 0xE6B SWAP2 SWAP1 PUSH2 0x10AF JUMP JUMPDEST PUSH1 0x40 MLOAD DUP1 SWAP2 SUB SWAP1 LOG1 POP POP JUMP JUMPDEST PUSH0 PUSH1 0x1 PUSH0 DUP5 DUP2 MSTORE PUSH1 0x20 ADD SWAP1 DUP2 MSTORE PUSH1 0x20 ADD PUSH0 KECCAK256 SWAP1 POP DUP1 PUSH1 0x3 ADD PUSH1 0x4 SWAP1 SLOAD SWAP1 PUSH2 0x100 EXP SWAP1 DIV PUSH4 0xFFFFFFFF AND PUSH4 0xFFFFFFFF AND TIMESTAMP LT PUSH2 0xEE7 JUMPI PUSH1 0x40 MLOAD PUSH32 0x8C379A000000000000000000000000000000000000000000000000000000000 DUP2 MSTORE PUSH1 0x4 ADD PUSH2 0xEDE SWAP1 PUSH2 0x1774 JUMP JUMPDEST PUSH1 0x40 MLOAD DUP1 SWAP2 SUB SWAP1 REVERT JUMPDEST DUP2 DUP2 PUSH1 0x2 ADD PUSH0 DUP3 DUP3 SLOAD PUSH2 0xEFA SWAP2 SWAP1 PUSH2 0x19CF JUMP JUMPDEST SWAP3 POP POP DUP2 SWAP1 SSTORE POP DUP2 PUSH1 0x2 PUSH0 DUP6 DUP2 MSTORE PUSH1 0x20 ADD SWAP1 DUP2 MSTORE PUSH1 0x20 ADD PUSH0 KECCAK256 PUSH0 CALLER PUSH20 0xFFFFFFFFFFFFFFFFFFFFFFFFFFFFFFFFFFFFFFFF AND PUSH20 0xFFFFFFFFFFFFFFFFFFFFFFFFFFFFFFFFFFFFFFFF AND DUP2 MSTORE PUSH1 0x20 ADD SWAP1 DUP2 MSTORE PUSH1 0x20 ADD PUSH0 KECCAK256 PUSH0 DUP3 DUP3 SLOAD PUSH2 0xF5C SWAP2 SWAP1 PUSH2 0x19CF JUMP JUMPDEST SWAP3 POP POP DUP2 SWAP1 SSTORE POP PUSH32 0x0 PUSH20 0xFFFFFFFFFFFFFFFFFFFFFFFFFFFFFFFFFFFFFFFF AND PUSH4 0xA9059CBB CALLER DUP5 PUSH1 0x40 MLOAD DUP4 PUSH4 0xFFFFFFFF AND PUSH1 0xE0 SHL DUP2 MSTORE PUSH1 0x4 ADD PUSH2 0xFBE SWAP3 SWAP2 SWAP1 PUSH2 0x146B JUMP JUMPDEST PUSH1 0x20 PUSH1 0x40 MLOAD DUP1 DUP4 SUB DUP2 PUSH0 DUP8 GAS CALL ISZERO DUP1 ISZERO PUSH2 0xFDA JUMPI RETURNDATASIZE PUSH0 DUP1 RETURNDATACOPY RETURNDATASIZE PUSH0 REVERT JUMPDEST POP POP POP POP PUSH1 0x40 MLOAD RETURNDATASIZE PUSH1 0x1F NOT PUSH1 0x1F DUP3 ADD AND DUP3 ADD DUP1 PUSH1 0x40 MSTORE POP DUP2 ADD SWAP1 PUSH2 0xFFE SWAP2 SWAP1 PUSH2 0x14BC JUMP JUMPDEST POP CALLER PUSH20 0xFFFFFFFFFFFFFFFFFFFFFFFFFFFFFFFFFFFFFFFF AND DUP4 PUSH32 0xFCD29B1632C6748A9A4BB9B4CD5C6486C3C84A8550DCE2368F83FEF3969D9685 DUP5 PUSH1 0x40 MLOAD PUSH2 0x1046 SWAP2 SWAP1 PUSH2 0x10AF JUMP JUMPDEST PUSH1 0x40 MLOAD DUP1 SWAP2 SUB SWAP1 LOG3 POP POP POP JUMP JUMPDEST PUSH1 0x2 PUSH1 0x20 MSTORE DUP2 PUSH0 MSTORE PUSH1 0x40 PUSH0 KECCAK256 PUSH1 0x20 MSTORE DUP1 PUSH0 MSTORE PUSH1 0x40 PUSH0 KECCAK256 PUSH0 SWAP2 POP SWAP2 POP POP SLOAD DUP2 JUMP JUMPDEST PUSH32 0x0 DUP2 JUMP JUMPDEST PUSH0 DUP2 SWAP1 POP SWAP2 SWAP1 POP JUMP JUMPDEST PUSH2 0x10A9 DUP2 PUSH2 0x1097 JUMP JUMPDEST DUP3 MSTORE POP POP JUMP JUMPDEST PUSH0 PUSH1 0x20 DUP3 ADD SWAP1 POP PUSH2 0x10C2 PUSH0 DUP4 ADD DUP5 PUSH2 0x10A0 JUMP JUMPDEST SWAP3 SWAP2 POP POP JUMP JUMPDEST PUSH0 DUP1 REVERT JUMPDEST PUSH2 0x10D5 DUP2 PUSH2 0x1097 JUMP JUMPDEST DUP2 EQ PUSH2 0x10DF JUMPI PUSH0 DUP1 REVERT JUMPDEST POP JUMP JUMPDEST PUSH0 DUP2 CALLDATALOAD SWAP1 POP PUSH2 0x10F0 DUP2 PUSH2 0x10CC JUMP JUMPDEST SWAP3 SWAP2 POP POP JUMP JUMPDEST PUSH0 PUSH1 0x20 DUP3 DUP5 SUB SLT ISZERO PUSH2 0x110B JUMPI PUSH2 0x110A PUSH2 0x10C8 JUMP JUMPDEST JUMPDEST PUSH0 PUSH2 0x1118 DUP5 DUP3 DUP6 ADD PUSH2 0x10E2 JUMP JUMPDEST SWAP2 POP POP SWAP3 SWAP2 POP POP JUMP JUMPDEST PUSH0 PUSH20 0xFFFFFFFFFFFFFFFFFFFFFFFFFFFFFFFFFFFFFFFF DUP3 AND SWAP1 POP SWAP2 SWAP1 POP JUMP JUMPDEST PUSH0 PUSH2 0x114A DUP3 PUSH2 0x1121 JUMP JUMPDEST SWAP1 POP SWAP2 SWAP1 POP JUMP JUMPDEST PUSH2 0x115A DUP2 PUSH2 0x1140 JUMP JUMPDEST DUP3 MSTORE POP POP JUMP JUMPDEST PUSH0 PUSH4 0xFFFFFFFF DUP3 AND SWAP1 POP SWAP2 SWAP1 POP JUMP JUMPDEST PUSH2 0x1178 DUP2 PUSH2 0x1160 JUMP JUMPDEST DUP3 MSTORE POP POP JUMP JUMPDEST PUSH0 DUP2 ISZERO ISZERO SWAP1 POP SWAP2 SWAP1 POP JUMP JUMPDEST PUSH2 0x1192 DUP2 PUSH2 0x117E JUMP JUMPDEST DUP3 MSTORE POP POP JUMP JUMPDEST PUSH0 PUSH1 0xC0 DUP3 ADD SWAP1 POP PUSH2 0x11AB PUSH0 DUP4 ADD DUP10 PUSH2 0x1151 JUMP JUMPDEST PUSH2 0x11B8 PUSH1 0x20 DUP4 ADD DUP9 PUSH2 0x10A0 JUMP JUMPDEST PUSH2 0x11C5 PUSH1 0x40 DUP4 ADD DUP8 PUSH2 0x10A0 JUMP JUMPDEST PUSH2 0x11D2 PUSH1 0x60 DUP4 ADD DUP7 PUSH2 0x116F JUMP JUMPDEST PUSH2 0x11DF PUSH1 0x80 DUP4 ADD DUP6 PUSH2 0x116F JUMP JUMPDEST PUSH2 0x11EC PUSH1 0xA0 DUP4 ADD DUP5 PUSH2 0x1189 JUMP JUMPDEST SWAP8 SWAP7 POP POP POP POP POP POP POP JUMP JUMPDEST PUSH2 0x1200 DUP2 PUSH2 0x1160 JUMP JUMPDEST DUP2 EQ PUSH2 0x120A JUMPI PUSH0 DUP1 REVERT JUMPDEST POP JUMP JUMPDEST PUSH0 DUP2 CALLDATALOAD SWAP1 POP PUSH2 0x121B DUP2 PUSH2 0x11F7 JUMP JUMPDEST SWAP3 SWAP2 POP POP JUMP JUMPDEST PUSH0 DUP1 PUSH0 PUSH1 0x60 DUP5 DUP7 SUB SLT ISZERO PUSH2 0x1238 JUMPI PUSH2 0x1237 PUSH2 0x10C8 JUMP JUMPDEST JUMPDEST PUSH0 PUSH2 0x1245 DUP7 DUP3 DUP8 ADD PUSH2 0x10E2 JUMP JUMPDEST SWAP4 POP POP PUSH1 0x20 PUSH2 0x1256 DUP7 DUP3 DUP8 ADD PUSH2 0x120D JUMP JUMPDEST SWAP3 POP POP PUSH1 0x40 PUSH2 0x1267 DUP7 DUP3 DUP8 ADD PUSH2 0x120D JUMP JUMPDEST SWAP2 POP POP SWAP3 POP SWAP3 POP SWAP3 JUMP JUMPDEST PUSH0 DUP1 PUSH1 0x40 DUP4 DUP6 SUB SLT ISZERO PUSH2 0x1287 JUMPI PUSH2 0x1286 PUSH2 0x10C8 JUMP JUMPDEST JUMPDEST PUSH0 PUSH2 0x1294 DUP6 DUP3 DUP7 ADD PUSH2 0x10E2 JUMP JUMPDEST SWAP3 POP POP PUSH1 0x20 PUSH2 0x12A5 DUP6 DUP3 DUP7 ADD PUSH2 0x10E2 JUMP JUMPDEST SWAP2 POP POP SWAP3 POP SWAP3 SWAP1 POP JUMP JUMPDEST PUSH2 0x12B8 DUP2 PUSH2 0x1140 JUMP JUMPDEST DUP2 EQ PUSH2 0x12C2 JUMPI PUSH0 DUP1 REVERT JUMPDEST POP JUMP JUMPDEST PUSH0 DUP2 CALLDATALOAD SWAP1 POP PUSH2 0x12D3 DUP2 PUSH2 0x12AF JUMP JUMPDEST SWAP3 SWAP2 POP POP JUMP JUMPDEST PUSH0 DUP1 PUSH1 0x40 DUP4 DUP6 SUB SLT ISZERO PUSH2 0x12EF JUMPI PUSH2 0x12EE PUSH2 0x10C8 JUMP JUMPDEST JUMPDEST PUSH0 PUSH2 0x12FC DUP6 DUP3 DUP7 ADD PUSH2 0x10E2 JUMP JUMPDEST SWAP3 POP POP PUSH1 0x20 PUSH2 0x130D DUP6 DUP3 DUP7 ADD PUSH2 0x12C5 JUMP JUMPDEST SWAP2 POP POP SWAP3 POP SWAP3 SWAP1 POP JUMP JUMPDEST PUSH0 DUP2 SWAP1 POP SWAP2 SWAP1 POP JUMP JUMPDEST PUSH0 PUSH2 0x133A PUSH2 0x1335 PUSH2 0x1330 DUP5 PUSH2 0x1121 JUMP JUMPDEST PUSH2 0x1317 JUMP JUMPDEST PUSH2 0x1121 JUMP JUMPDEST SWAP1 POP SWAP2 SWAP1 POP JUMP JUMPDEST PUSH0 PUSH2 0x134B DUP3 PUSH2 0x1320 JUMP JUMPDEST SWAP1 POP SWAP2 SWAP1 POP JUMP JUMPDEST PUSH0 PUSH2 0x135C DUP3 PUSH2 0x1341 JUMP JUMPDEST SWAP1 POP SWAP2 SWAP1 POP JUMP JUMPDEST PUSH2 0x136C DUP2 PUSH2 0x1352 JUMP JUMPDEST DUP3 MSTORE POP POP JUMP JUMPDEST PUSH0 PUSH1 0x20 DUP3 ADD SWAP1 POP PUSH2 0x1385 PUSH0 DUP4 ADD DUP5 PUSH2 0x1363 JUMP JUMPDEST SWAP3 SWAP2 POP POP JUMP JUMPDEST PUSH0 DUP3 DUP3 MSTORE PUSH1 0x20 DUP3 ADD SWAP1 POP SWAP3 SWAP2 POP POP JUMP JUMPDEST PUSH32 0x6E6F7420656E6465640000000000000000000000000000000000000000000000 PUSH0 DUP3 ADD MSTORE POP JUMP JUMPDEST PUSH0 PUSH2 0x13CF PUSH1 0x9 DUP4 PUSH2 0x138B JUMP JUMPDEST SWAP2 POP PUSH2 0x13DA DUP3 PUSH2 0x139B JUMP JUMPDEST PUSH1 0x20 DUP3 ADD SWAP1 POP SWAP2 SWAP1 POP JUMP JUMPDEST PUSH0 PUSH1 0x20 DUP3 ADD SWAP1 POP DUP2 DUP2 SUB PUSH0 DUP4 ADD MSTORE PUSH2 0x13FC DUP2 PUSH2 0x13C3 JUMP JUMPDEST SWAP1 POP SWAP2 SWAP1 POP JUMP JUMPDEST PUSH32 0x706C65646765203E20676F616C00000000000000000000000000000000000000 PUSH0 DUP3 ADD MSTORE POP JUMP JUMPDEST PUSH0 PUSH2 0x1437 PUSH1 0xD DUP4 PUSH2 0x138B JUMP JUMPDEST SWAP2 POP PUSH2 0x1442 DUP3 PUSH2 0x1403 JUMP JUMPDEST PUSH1 0x20 DUP3 ADD SWAP1 POP SWAP2 SWAP1 POP JUMP JUMPDEST PUSH0 PUSH1 0x20 DUP3 ADD SWAP1 POP DUP2 DUP2 SUB PUSH0 DUP4 ADD MSTORE PUSH2 0x1464 DUP2 PUSH2 0x142B JUMP JUMPDEST SWAP1 POP SWAP2 SWAP1 POP JUMP JUMPDEST PUSH0 PUSH1 0x40 DUP3 ADD SWAP1 POP PUSH2 0x147E PUSH0 DUP4 ADD DUP6 PUSH2 0x1151 JUMP JUMPDEST PUSH2 0x148B PUSH1 0x20 DUP4 ADD DUP5 PUSH2 0x10A0 JUMP JUMPDEST SWAP4 SWAP3 POP POP POP JUMP JUMPDEST PUSH2 0x149B DUP2 PUSH2 0x117E JUMP JUMPDEST DUP2 EQ PUSH2 0x14A5 JUMPI PUSH0 DUP1 REVERT JUMPDEST POP JUMP JUMPDEST PUSH0 DUP2 MLOAD SWAP1 POP PUSH2 0x14B6 DUP2 PUSH2 0x1492 JUMP JUMPDEST SWAP3 SWAP2 POP POP JUMP JUMPDEST PUSH0 PUSH1 0x20 DUP3 DUP5 SUB SLT ISZERO PUSH2 0x14D1 JUMPI PUSH2 0x14D0 PUSH2 0x10C8 JUMP JUMPDEST JUMPDEST PUSH0 PUSH2 0x14DE DUP5 DUP3 DUP6 ADD PUSH2 0x14A8 JUMP JUMPDEST SWAP2 POP POP SWAP3 SWAP2 POP POP JUMP JUMPDEST PUSH32 0x73746172742074696D65203C206E6F7700000000000000000000000000000000 PUSH0 DUP3 ADD MSTORE POP JUMP JUMPDEST PUSH0 PUSH2 0x151B PUSH1 0x10 DUP4 PUSH2 0x138B JUMP JUMPDEST SWAP2 POP PUSH2 0x1526 DUP3 PUSH2 0x14E7 JUMP JUMPDEST PUSH1 0x20 DUP3 ADD SWAP1 POP SWAP2 SWAP1 POP JUMP JUMPDEST PUSH0 PUSH1 0x20 DUP3 ADD SWAP1 POP DUP2 DUP2 SUB PUSH0 DUP4 ADD MSTORE PUSH2 0x1548 DUP2 PUSH2 0x150F JUMP JUMPDEST SWAP1 POP SWAP2 SWAP1 POP JUMP JUMPDEST PUSH32 0x656E642074696D65203C2073746172742074696D650000000000000000000000 PUSH0 DUP3 ADD MSTORE POP JUMP JUMPDEST PUSH0 PUSH2 0x1583 PUSH1 0x15 DUP4 PUSH2 0x138B JUMP JUMPDEST SWAP2 POP PUSH2 0x158E DUP3 PUSH2 0x154F JUMP JUMPDEST PUSH1 0x20 DUP3 ADD SWAP1 POP SWAP2 SWAP1 POP JUMP JUMPDEST PUSH0 PUSH1 0x20 DUP3 ADD SWAP1 POP DUP2 DUP2 SUB PUSH0 DUP4 ADD MSTORE PUSH2 0x15B0 DUP2 PUSH2 0x1577 JUMP JUMPDEST SWAP1 POP SWAP2 SWAP1 POP JUMP JUMPDEST PUSH32 0x4E487B7100000000000000000000000000000000000000000000000000000000 PUSH0 MSTORE PUSH1 0x11 PUSH1 0x4 MSTORE PUSH1 0x24 PUSH0 REVERT JUMPDEST PUSH0 PUSH2 0x15EE DUP3 PUSH2 0x1097 JUMP JUMPDEST SWAP2 POP PUSH2 0x15F9 DUP4 PUSH2 0x1097 JUMP JUMPDEST SWAP3 POP DUP3 DUP3 ADD SWAP1 POP DUP1 DUP3 GT ISZERO PUSH2 0x1611 JUMPI PUSH2 0x1610 PUSH2 0x15B7 JUMP JUMPDEST JUMPDEST SWAP3 SWAP2 POP POP JUMP JUMPDEST PUSH32 0x656E64206174203E206D6178206475726174696F6E0000000000000000000000 PUSH0 DUP3 ADD MSTORE POP JUMP JUMPDEST PUSH0 PUSH2 0x164B PUSH1 0x15 DUP4 PUSH2 0x138B JUMP JUMPDEST SWAP2 POP PUSH2 0x1656 DUP3 PUSH2 0x1617 JUMP JUMPDEST PUSH1 0x20 DUP3 ADD SWAP1 POP SWAP2 SWAP1 POP JUMP JUMPDEST PUSH0 PUSH1 0x20 DUP3 ADD SWAP1 POP DUP2 DUP2 SUB PUSH0 DUP4 ADD MSTORE PUSH2 0x1678 DUP2 PUSH2 0x163F JUMP JUMPDEST SWAP1 POP SWAP2 SWAP1 POP JUMP JUMPDEST PUSH0 PUSH1 0x80 DUP3 ADD SWAP1 POP PUSH2 0x1692 PUSH0 DUP4 ADD DUP8 PUSH2 0x10A0 JUMP JUMPDEST PUSH2 0x169F PUSH1 0x20 DUP4 ADD DUP7 PUSH2 0x10A0 JUMP JUMPDEST PUSH2 0x16AC PUSH1 0x40 DUP4 ADD DUP6 PUSH2 0x116F JUMP JUMPDEST PUSH2 0x16B9 PUSH1 0x60 DUP4 ADD DUP5 PUSH2 0x116F JUMP JUMPDEST SWAP6 SWAP5 POP POP POP POP POP JUMP JUMPDEST PUSH32 0x6E6F742073746172740000000000000000000000000000000000000000000000 PUSH0 DUP3 ADD MSTORE POP JUMP JUMPDEST PUSH0 PUSH2 0x16F6 PUSH1 0x9 DUP4 PUSH2 0x138B JUMP JUMPDEST SWAP2 POP PUSH2 0x1701 DUP3 PUSH2 0x16C2 JUMP JUMPDEST PUSH1 0x20 DUP3 ADD SWAP1 POP SWAP2 SWAP1 POP JUMP JUMPDEST PUSH0 PUSH1 0x20 DUP3 ADD SWAP1 POP DUP2 DUP2 SUB PUSH0 DUP4 ADD MSTORE PUSH2 0x1723 DUP2 PUSH2 0x16EA JUMP JUMPDEST SWAP1 POP SWAP2 SWAP1 POP JUMP JUMPDEST PUSH32 0x68617320656E6465642100000000000000000000000000000000000000000000 PUSH0 DUP3 ADD MSTORE POP JUMP JUMPDEST PUSH0 PUSH2 0x175E PUSH1 0xA DUP4 PUSH2 0x138B JUMP JUMPDEST SWAP2 POP PUSH2 0x1769 DUP3 PUSH2 0x172A JUMP JUMPDEST PUSH1 0x20 DUP3 ADD SWAP1 POP SWAP2 SWAP1 POP JUMP JUMPDEST PUSH0 PUSH1 0x20 DUP3 ADD SWAP1 POP DUP2 DUP2 SUB PUSH0 DUP4 ADD MSTORE PUSH2 0x178B DUP2 PUSH2 0x1752 JUMP JUMPDEST SWAP1 POP SWAP2 SWAP1 POP JUMP JUMPDEST PUSH0 PUSH1 0x60 DUP3 ADD SWAP1 POP PUSH2 0x17A5 PUSH0 DUP4 ADD DUP7 PUSH2 0x1151 JUMP JUMPDEST PUSH2 0x17B2 PUSH1 0x20 DUP4 ADD DUP6 PUSH2 0x1151 JUMP JUMPDEST PUSH2 0x17BF PUSH1 0x40 DUP4 ADD DUP5 PUSH2 0x10A0 JUMP JUMPDEST SWAP5 SWAP4 POP POP POP POP JUMP JUMPDEST PUSH32 0x6E6F742063726561746F72000000000000000000000000000000000000000000 PUSH0 DUP3 ADD MSTORE POP JUMP JUMPDEST PUSH0 PUSH2 0x17FB PUSH1 0xB DUP4 PUSH2 0x138B JUMP JUMPDEST SWAP2 POP PUSH2 0x1806 DUP3 PUSH2 0x17C7 JUMP JUMPDEST PUSH1 0x20 DUP3 ADD SWAP1 POP SWAP2 SWAP1 POP JUMP JUMPDEST PUSH0 PUSH1 0x20 DUP3 ADD SWAP1 POP DUP2 DUP2 SUB PUSH0 DUP4 ADD MSTORE PUSH2 0x1828 DUP2 PUSH2 0x17EF JUMP JUMPDEST SWAP1 POP SWAP2 SWAP1 POP JUMP JUMPDEST PUSH32 0x706C65646765203C20676F616C00000000000000000000000000000000000000 PUSH0 DUP3 ADD MSTORE POP JUMP JUMPDEST PUSH0 PUSH2 0x1863 PUSH1 0xD DUP4 PUSH2 0x138B JUMP JUMPDEST SWAP2 POP PUSH2 0x186E DUP3 PUSH2 0x182F JUMP JUMPDEST PUSH1 0x20 DUP3 ADD SWAP1 POP SWAP2 SWAP1 POP JUMP JUMPDEST PUSH0 PUSH1 0x20 DUP3 ADD SWAP1 POP DUP2 DUP2 SUB PUSH0 DUP4 ADD MSTORE PUSH2 0x1890 DUP2 PUSH2 0x1857 JUMP JUMPDEST SWAP1 POP SWAP2 SWAP1 POP JUMP JUMPDEST PUSH32 0x68617320636C61696D6564210000000000000000000000000000000000000000 PUSH0 DUP3 ADD MSTORE POP JUMP JUMPDEST PUSH0 PUSH2 0x18CB PUSH1 0xC DUP4 PUSH2 0x138B JUMP JUMPDEST SWAP2 POP PUSH2 0x18D6 DUP3 PUSH2 0x1897 JUMP JUMPDEST PUSH1 0x20 DUP3 ADD SWAP1 POP SWAP2 SWAP1 POP JUMP JUMPDEST PUSH0 PUSH1 0x20 DUP3 ADD SWAP1 POP DUP2 DUP2 SUB PUSH0 DUP4 ADD MSTORE PUSH2 0x18F8 DUP2 PUSH2 0x18BF JUMP JUMPDEST SWAP1 POP SWAP2 SWAP1 POP JUMP JUMPDEST PUSH32 0x6E6F742063726561746F72210000000000000000000000000000000000000000 PUSH0 DUP3 ADD MSTORE POP JUMP JUMPDEST PUSH0 PUSH2 0x1933 PUSH1 0xC DUP4 PUSH2 0x138B JUMP JUMPDEST SWAP2 POP PUSH2 0x193E DUP3 PUSH2 0x18FF JUMP JUMPDEST PUSH1 0x20 DUP3 ADD SWAP1 POP SWAP2 SWAP1 POP JUMP JUMPDEST PUSH0 PUSH1 0x20 DUP3 ADD SWAP1 POP DUP2 DUP2 SUB PUSH0 DUP4 ADD MSTORE PUSH2 0x1960 DUP2 PUSH2 0x1927 JUMP JUMPDEST SWAP1 POP SWAP2 SWAP1 POP JUMP JUMPDEST PUSH32 0x68617320737461727465642063616E27742063616E63656C0000000000000000 PUSH0 DUP3 ADD MSTORE POP JUMP JUMPDEST PUSH0 PUSH2 0x199B PUSH1 0x18 DUP4 PUSH2 0x138B JUMP JUMPDEST SWAP2 POP PUSH2 0x19A6 DUP3 PUSH2 0x1967 JUMP JUMPDEST PUSH1 0x20 DUP3 ADD SWAP1 POP SWAP2 SWAP1 POP JUMP JUMPDEST PUSH0 PUSH1 0x20 DUP3 ADD SWAP1 POP DUP2 DUP2 SUB PUSH0 DUP4 ADD MSTORE PUSH2 0x19C8 DUP2 PUSH2 0x198F JUMP JUMPDEST SWAP1 POP SWAP2 SWAP1 POP JUMP JUMPDEST PUSH0 PUSH2 0x19D9 DUP3 PUSH2 0x1097 JUMP JUMPDEST SWAP2 POP PUSH2 0x19E4 DUP4 PUSH2 0x1097 JUMP JUMPDEST SWAP3 POP DUP3 DUP3 SUB SWAP1 POP DUP2 DUP2 GT ISZERO PUSH2 0x19FC JUMPI PUSH2 0x19FB PUSH2 0x15B7 JUMP JUMPDEST JUMPDEST SWAP3 SWAP2 POP POP JUMP INVALID LOG2 PUSH5 0x6970667358 0x22 SLT KECCAK256 PUSH9 0xAFD1EE65A030D04BDE PC 0xF9 PUSH4 0x851D0617 0xEC SWAP4 DUP14 DUP14 DUP5 0xE7 0xED SWAP15 0xDA 0x24 CALLDATASIZE PUSH21 0x65BB5B64736F6C6343000817003300000000000000 "
				},
				"gasEstimates": {
					"creation": {
						"codeDepositCost": "1342400",
						"executionCost": "infinite",
						"totalCost": "infinite"
					},
					"external": {
						"campaigns(uint256)": "infinite",
						"cancel(uint256)": "infinite",
						"claim(uint256)": "infinite",
						"count()": "2425",
						"launch(uint256,uint32,uint32)": "infinite",
						"pledged(uint256,uint256)": "infinite",
						"pledgedAmount(uint256,address)": "infinite",
						"refund(uint256)": "infinite",
						"token()": "infinite",
						"unpledge(uint256,uint256)": "infinite"
					}
				},
				"methodIdentifiers": {
					"campaigns(uint256)": "141961bc",
					"cancel(uint256)": "40e58ee5",
					"claim(uint256)": "379607f5",
					"count()": "06661abd",
					"launch(uint256,uint32,uint32)": "2c63f146",
					"pledged(uint256,uint256)": "372f0192",
					"pledgedAmount(uint256,address)": "aa4fb63a",
					"refund(uint256)": "278ecde1",
					"token()": "fc0c546a",
					"unpledge(uint256,uint256)": "711853ab"
				}
			},
			"storageLayout": {
				"storage": [
					{
						"astId": 264,
						"contract": "CrowdFund.sol:CrowdFund",
						"label": "count",
						"offset": 0,
						"slot": "0",
						"type": "t_uint256"
					},
					{
						"astId": 269,
						"contract": "CrowdFund.sol:CrowdFund",
						"label": "campaigns",
						"offset": 0,
						"slot": "1",
						"type": "t_mapping(t_uint256,t_struct(Campaign)259_storage)"
					},
					{
						"astId": 275,
						"contract": "CrowdFund.sol:CrowdFund",
						"label": "pledgedAmount",
						"offset": 0,
						"slot": "2",
						"type": "t_mapping(t_uint256,t_mapping(t_address,t_uint256))"
					}
				],
				"types": {
					"t_address": {
						"encoding": "inplace",
						"label": "address",
						"numberOfBytes": "20"
					},
					"t_bool": {
						"encoding": "inplace",
						"label": "bool",
						"numberOfBytes": "1"
					},
					"t_mapping(t_address,t_uint256)": {
						"encoding": "mapping",
						"key": "t_address",
						"label": "mapping(address => uint256)",
						"numberOfBytes": "32",
						"value": "t_uint256"
					},
					"t_mapping(t_uint256,t_mapping(t_address,t_uint256))": {
						"encoding": "mapping",
						"key": "t_uint256",
						"label": "mapping(uint256 => mapping(address => uint256))",
						"numberOfBytes": "32",
						"value": "t_mapping(t_address,t_uint256)"
					},
					"t_mapping(t_uint256,t_struct(Campaign)259_storage)": {
						"encoding": "mapping",
						"key": "t_uint256",
						"label": "mapping(uint256 => struct CrowdFund.Campaign)",
						"numberOfBytes": "32",
						"value": "t_struct(Campaign)259_storage"
					},
					"t_struct(Campaign)259_storage": {
						"encoding": "inplace",
						"label": "struct CrowdFund.Campaign",
						"members": [
							{
								"astId": 248,
								"contract": "CrowdFund.sol:CrowdFund",
								"label": "creator",
								"offset": 0,
								"slot": "0",
								"type": "t_address"
							},
							{
								"astId": 250,
								"contract": "CrowdFund.sol:CrowdFund",
								"label": "goal",
								"offset": 0,
								"slot": "1",
								"type": "t_uint256"
							},
							{
								"astId": 252,
								"contract": "CrowdFund.sol:CrowdFund",
								"label": "pledged",
								"offset": 0,
								"slot": "2",
								"type": "t_uint256"
							},
							{
								"astId": 254,
								"contract": "CrowdFund.sol:CrowdFund",
								"label": "startAt",
								"offset": 0,
								"slot": "3",
								"type": "t_uint32"
							},
							{
								"astId": 256,
								"contract": "CrowdFund.sol:CrowdFund",
								"label": "endAt",
								"offset": 4,
								"slot": "3",
								"type": "t_uint32"
							},
							{
								"astId": 258,
								"contract": "CrowdFund.sol:CrowdFund",
								"label": "claimed",
								"offset": 8,
								"slot": "3",
								"type": "t_bool"
							}
						],
						"numberOfBytes": "128"
					},
					"t_uint256": {
						"encoding": "inplace",
						"label": "uint256",
						"numberOfBytes": "32"
					},
					"t_uint32": {
						"encoding": "inplace",
						"label": "uint32",
						"numberOfBytes": "4"
					}
				}
			},
			"userdoc": {
				"kind": "user",
				"methods": {},
				"version": 1
			}
		}
	}
}