{
	"059MutilCall.sol": {
		"TestMutilCall": {
			"abi": [
				{
					"inputs": [],
					"name": "func1",
					"outputs": [
						{
							"internalType": "uint256",
							"name": "",
							"type": "uint256"
						},
						{
							"internalType": "uint256",
							"name": "",
							"type": "uint256"
						}
					],
					"stateMutability": "view",
					"type": "function"
				},
				{
					"inputs": [],
					"name": "func2",
					"outputs": [
						{
							"internalType": "uint256",
							"name": "",
							"type": "uint256"
						},
						{
							"internalType": "uint256",
							"name": "",
							"type": "uint256"
						}
					],
					"stateMutability": "view",
					"type": "function"
				},
				{
					"inputs": [],
					"name": "getData1",
					"outputs": [
						{
							"internalType": "bytes",
							"name": "",
							"type": "bytes"
						}
					],
					"stateMutability": "pure",
					"type": "function"
				},
				{
					"inputs": [],
					"name": "getData2",
					"outputs": [
						{
							"internalType": "bytes",
							"name": "",
							"type": "bytes"
						}
					],
					"stateMutability": "pure",
					"type": "function"
				}
			],
			"devdoc": {
				"kind": "dev",
				"methods": {},
				"version": 1
			},
			"evm": {
				"assembly": "    /* \"059MutilCall.sol\":880:1531  contract TestMutilCall{... */\n  mstore(0x40, 0x80)\n  callvalue\n  dup1\n  iszero\n  tag_1\n  jumpi\n  0x00\n  dup1\n  revert\ntag_1:\n  pop\n  dataSize(sub_0)\n  dup1\n  dataOffset(sub_0)\n  0x00\n  codecopy\n  0x00\n  return\nstop\n\nsub_0: assembly {\n        /* \"059MutilCall.sol\":880:1531  contract TestMutilCall{... */\n      mstore(0x40, 0x80)\n      callvalue\n      dup1\n      iszero\n      tag_1\n      jumpi\n      0x00\n      dup1\n      revert\n    tag_1:\n      pop\n      jumpi(tag_2, lt(calldatasize, 0x04))\n      shr(0xe0, calldataload(0x00))\n      dup1\n      0x74135154\n      eq\n      tag_3\n      jumpi\n      dup1\n      0x9944cc71\n      eq\n      tag_4\n      jumpi\n      dup1\n      0xa898fd70\n      eq\n      tag_5\n      jumpi\n      dup1\n      0xb1ade4db\n      eq\n      tag_6\n      jumpi\n    tag_2:\n      0x00\n      dup1\n      revert\n        /* \"059MutilCall.sol\":908:1001  function func1()external view returns(uint, uint){... */\n    tag_3:\n      tag_7\n      tag_8\n      jump\t// in\n    tag_7:\n      mload(0x40)\n      tag_9\n      swap3\n      swap2\n      swap1\n      tag_10\n      jump\t// in\n    tag_9:\n      mload(0x40)\n      dup1\n      swap2\n      sub\n      swap1\n      return\n        /* \"059MutilCall.sol\":1135:1315  function getData1()external pure returns (bytes memory){... */\n    tag_4:\n      tag_11\n      tag_12\n      jump\t// in\n    tag_11:\n      mload(0x40)\n      tag_13\n      swap2\n      swap1\n      tag_14\n      jump\t// in\n    tag_13:\n      mload(0x40)\n      dup1\n      swap2\n      sub\n      swap1\n      return\n        /* \"059MutilCall.sol\":1349:1529  function getData2()external pure returns (bytes memory){... */\n    tag_5:\n      tag_15\n      tag_16\n      jump\t// in\n    tag_15:\n      mload(0x40)\n      tag_17\n      swap2\n      swap1\n      tag_14\n      jump\t// in\n    tag_17:\n      mload(0x40)\n      dup1\n      swap2\n      sub\n      swap1\n      return\n        /* \"059MutilCall.sol\":1007:1100  function func2()external view returns(uint, uint){... */\n    tag_6:\n      tag_18\n      tag_19\n      jump\t// in\n    tag_18:\n      mload(0x40)\n      tag_20\n      swap3\n      swap2\n      swap1\n      tag_10\n      jump\t// in\n    tag_20:\n      mload(0x40)\n      dup1\n      swap2\n      sub\n      swap1\n      return\n        /* \"059MutilCall.sol\":908:1001  function func1()external view returns(uint, uint){... */\n    tag_8:\n        /* \"059MutilCall.sol\":946:950  uint */\n      0x00\n        /* \"059MutilCall.sol\":952:956  uint */\n      dup1\n        /* \"059MutilCall.sol\":975:976  1 */\n      0x01\n        /* \"059MutilCall.sol\":978:993  block.timestamp */\n      timestamp\n        /* \"059MutilCall.sol\":967:994  return (1, block.timestamp) */\n      swap2\n      pop\n      swap2\n      pop\n        /* \"059MutilCall.sol\":908:1001  function func1()external view returns(uint, uint){... */\n      swap1\n      swap2\n      jump\t// out\n        /* \"059MutilCall.sol\":1135:1315  function getData1()external pure returns (bytes memory){... */\n    tag_12:\n        /* \"059MutilCall.sol\":1177:1189  bytes memory */\n      0x60\n        /* \"059MutilCall.sol\":1287:1306  this.func1.selector */\n      shl(0xe0, 0x74135154)\n        /* \"059MutilCall.sol\":1264:1307  abi.encodeWithSelector(this.func1.selector) */\n      add(0x24, mload(0x40))\n      mload(0x40)\n      0x20\n      dup2\n      dup4\n      sub\n      sub\n      dup2\n      mstore\n      swap1\n      0x40\n      mstore\n      swap1\n      not(0xffffffffffffffffffffffffffffffffffffffffffffffffffffffff)\n      and\n      0x20\n      dup3\n      add\n      dup1\n      mload\n      0xffffffffffffffffffffffffffffffffffffffffffffffffffffffff\n      dup4\n      dup2\n      dup4\n      and\n      or\n      dup4\n      mstore\n      pop\n      pop\n      pop\n      pop\n        /* \"059MutilCall.sol\":1257:1307  return abi.encodeWithSelector(this.func1.selector) */\n      swap1\n      pop\n        /* \"059MutilCall.sol\":1135:1315  function getData1()external pure returns (bytes memory){... */\n      swap1\n      jump\t// out\n        /* \"059MutilCall.sol\":1349:1529  function getData2()external pure returns (bytes memory){... */\n    tag_16:\n        /* \"059MutilCall.sol\":1391:1403  bytes memory */\n      0x60\n        /* \"059MutilCall.sol\":1501:1520  this.func2.selector */\n      shl(0xe0, 0xb1ade4db)\n        /* \"059MutilCall.sol\":1478:1521  abi.encodeWithSelector(this.func2.selector) */\n      add(0x24, mload(0x40))\n      mload(0x40)\n      0x20\n      dup2\n      dup4\n      sub\n      sub\n      dup2\n      mstore\n      swap1\n      0x40\n      mstore\n      swap1\n      not(0xffffffffffffffffffffffffffffffffffffffffffffffffffffffff)\n      and\n      0x20\n      dup3\n      add\n      dup1\n      mload\n      0xffffffffffffffffffffffffffffffffffffffffffffffffffffffff\n      dup4\n      dup2\n      dup4\n      and\n      or\n      dup4\n      mstore\n      pop\n      pop\n      pop\n      pop\n        /* \"059MutilCall.sol\":1471:1521  return abi.encodeWithSelector(this.func2.selector) */\n      swap1\n      pop\n        /* \"059MutilCall.sol\":1349:1529  function getData2()external pure returns (bytes memory){... */\n      swap1\n      jump\t// out\n        /* \"059MutilCall.sol\":1007:1100  function func2()external view returns(uint, uint){... */\n    tag_19:\n        /* \"059MutilCall.sol\":1045:1049  uint */\n      0x00\n        /* \"059MutilCall.sol\":1051:1055  uint */\n      dup1\n        /* \"059MutilCall.sol\":1074:1075  2 */\n      0x02\n        /* \"059MutilCall.sol\":1077:1092  block.timestamp */\n      timestamp\n        /* \"059MutilCall.sol\":1066:1093  return (2, block.timestamp) */\n      swap2\n      pop\n      swap2\n      pop\n        /* \"059MutilCall.sol\":1007:1100  function func2()external view returns(uint, uint){... */\n      swap1\n      swap2\n      jump\t// out\n        /* \"#utility.yul\":7:84   */\n    tag_25:\n        /* \"#utility.yul\":44:51   */\n      0x00\n        /* \"#utility.yul\":73:78   */\n      dup2\n        /* \"#utility.yul\":62:78   */\n      swap1\n      pop\n        /* \"#utility.yul\":7:84   */\n      swap2\n      swap1\n      pop\n      jump\t// out\n        /* \"#utility.yul\":90:208   */\n    tag_26:\n        /* \"#utility.yul\":177:201   */\n      tag_35\n        /* \"#utility.yul\":195:200   */\n      dup2\n        /* \"#utility.yul\":177:201   */\n      tag_25\n      jump\t// in\n    tag_35:\n        /* \"#utility.yul\":172:175   */\n      dup3\n        /* \"#utility.yul\":165:202   */\n      mstore\n        /* \"#utility.yul\":90:208   */\n      pop\n      pop\n      jump\t// out\n        /* \"#utility.yul\":214:546   */\n    tag_10:\n        /* \"#utility.yul\":335:339   */\n      0x00\n        /* \"#utility.yul\":373:375   */\n      0x40\n        /* \"#utility.yul\":362:371   */\n      dup3\n        /* \"#utility.yul\":358:376   */\n      add\n        /* \"#utility.yul\":350:376   */\n      swap1\n      pop\n        /* \"#utility.yul\":386:457   */\n      tag_37\n        /* \"#utility.yul\":454:455   */\n      0x00\n        /* \"#utility.yul\":443:452   */\n      dup4\n        /* \"#utility.yul\":439:456   */\n      add\n        /* \"#utility.yul\":430:436   */\n      dup6\n        /* \"#utility.yul\":386:457   */\n      tag_26\n      jump\t// in\n    tag_37:\n        /* \"#utility.yul\":467:539   */\n      tag_38\n        /* \"#utility.yul\":535:537   */\n      0x20\n        /* \"#utility.yul\":524:533   */\n      dup4\n        /* \"#utility.yul\":520:538   */\n      add\n        /* \"#utility.yul\":511:517   */\n      dup5\n        /* \"#utility.yul\":467:539   */\n      tag_26\n      jump\t// in\n    tag_38:\n        /* \"#utility.yul\":214:546   */\n      swap4\n      swap3\n      pop\n      pop\n      pop\n      jump\t// out\n        /* \"#utility.yul\":552:650   */\n    tag_27:\n        /* \"#utility.yul\":603:609   */\n      0x00\n        /* \"#utility.yul\":637:642   */\n      dup2\n        /* \"#utility.yul\":631:643   */\n      mload\n        /* \"#utility.yul\":621:643   */\n      swap1\n      pop\n        /* \"#utility.yul\":552:650   */\n      swap2\n      swap1\n      pop\n      jump\t// out\n        /* \"#utility.yul\":656:824   */\n    tag_28:\n        /* \"#utility.yul\":739:750   */\n      0x00\n        /* \"#utility.yul\":773:779   */\n      dup3\n        /* \"#utility.yul\":768:771   */\n      dup3\n        /* \"#utility.yul\":761:780   */\n      mstore\n        /* \"#utility.yul\":813:817   */\n      0x20\n        /* \"#utility.yul\":808:811   */\n      dup3\n        /* \"#utility.yul\":804:818   */\n      add\n        /* \"#utility.yul\":789:818   */\n      swap1\n      pop\n        /* \"#utility.yul\":656:824   */\n      swap3\n      swap2\n      pop\n      pop\n      jump\t// out\n        /* \"#utility.yul\":830:1076   */\n    tag_29:\n        /* \"#utility.yul\":911:912   */\n      0x00\n        /* \"#utility.yul\":921:1034   */\n    tag_42:\n        /* \"#utility.yul\":935:941   */\n      dup4\n        /* \"#utility.yul\":932:933   */\n      dup2\n        /* \"#utility.yul\":929:942   */\n      lt\n        /* \"#utility.yul\":921:1034   */\n      iszero\n      tag_44\n      jumpi\n        /* \"#utility.yul\":1020:1021   */\n      dup1\n        /* \"#utility.yul\":1015:1018   */\n      dup3\n        /* \"#utility.yul\":1011:1022   */\n      add\n        /* \"#utility.yul\":1005:1023   */\n      mload\n        /* \"#utility.yul\":1001:1002   */\n      dup2\n        /* \"#utility.yul\":996:999   */\n      dup5\n        /* \"#utility.yul\":992:1003   */\n      add\n        /* \"#utility.yul\":985:1024   */\n      mstore\n        /* \"#utility.yul\":957:959   */\n      0x20\n        /* \"#utility.yul\":954:955   */\n      dup2\n        /* \"#utility.yul\":950:960   */\n      add\n        /* \"#utility.yul\":945:960   */\n      swap1\n      pop\n        /* \"#utility.yul\":921:1034   */\n      jump(tag_42)\n    tag_44:\n        /* \"#utility.yul\":1068:1069   */\n      0x00\n        /* \"#utility.yul\":1059:1065   */\n      dup5\n        /* \"#utility.yul\":1054:1057   */\n      dup5\n        /* \"#utility.yul\":1050:1066   */\n      add\n        /* \"#utility.yul\":1043:1070   */\n      mstore\n        /* \"#utility.yul\":892:1076   */\n      pop\n        /* \"#utility.yul\":830:1076   */\n      pop\n      pop\n      pop\n      jump\t// out\n        /* \"#utility.yul\":1082:1184   */\n    tag_30:\n        /* \"#utility.yul\":1123:1129   */\n      0x00\n        /* \"#utility.yul\":1174:1176   */\n      0x1f\n        /* \"#utility.yul\":1170:1177   */\n      not\n        /* \"#utility.yul\":1165:1167   */\n      0x1f\n        /* \"#utility.yul\":1158:1163   */\n      dup4\n        /* \"#utility.yul\":1154:1168   */\n      add\n        /* \"#utility.yul\":1150:1178   */\n      and\n        /* \"#utility.yul\":1140:1178   */\n      swap1\n      pop\n        /* \"#utility.yul\":1082:1184   */\n      swap2\n      swap1\n      pop\n      jump\t// out\n        /* \"#utility.yul\":1190:1563   */\n    tag_31:\n        /* \"#utility.yul\":1276:1279   */\n      0x00\n        /* \"#utility.yul\":1304:1342   */\n      tag_47\n        /* \"#utility.yul\":1336:1341   */\n      dup3\n        /* \"#utility.yul\":1304:1342   */\n      tag_27\n      jump\t// in\n    tag_47:\n        /* \"#utility.yul\":1358:1428   */\n      tag_48\n        /* \"#utility.yul\":1421:1427   */\n      dup2\n        /* \"#utility.yul\":1416:1419   */\n      dup6\n        /* \"#utility.yul\":1358:1428   */\n      tag_28\n      jump\t// in\n    tag_48:\n        /* \"#utility.yul\":1351:1428   */\n      swap4\n      pop\n        /* \"#utility.yul\":1437:1502   */\n      tag_49\n        /* \"#utility.yul\":1495:1501   */\n      dup2\n        /* \"#utility.yul\":1490:1493   */\n      dup6\n        /* \"#utility.yul\":1483:1487   */\n      0x20\n        /* \"#utility.yul\":1476:1481   */\n      dup7\n        /* \"#utility.yul\":1472:1488   */\n      add\n        /* \"#utility.yul\":1437:1502   */\n      tag_29\n      jump\t// in\n    tag_49:\n        /* \"#utility.yul\":1527:1556   */\n      tag_50\n        /* \"#utility.yul\":1549:1555   */\n      dup2\n        /* \"#utility.yul\":1527:1556   */\n      tag_30\n      jump\t// in\n    tag_50:\n        /* \"#utility.yul\":1522:1525   */\n      dup5\n        /* \"#utility.yul\":1518:1557   */\n      add\n        /* \"#utility.yul\":1511:1557   */\n      swap2\n      pop\n        /* \"#utility.yul\":1280:1563   */\n      pop\n        /* \"#utility.yul\":1190:1563   */\n      swap3\n      swap2\n      pop\n      pop\n      jump\t// out\n        /* \"#utility.yul\":1569:1878   */\n    tag_14:\n        /* \"#utility.yul\":1680:1684   */\n      0x00\n        /* \"#utility.yul\":1718:1720   */\n      0x20\n        /* \"#utility.yul\":1707:1716   */\n      dup3\n        /* \"#utility.yul\":1703:1721   */\n      add\n        /* \"#utility.yul\":1695:1721   */\n      swap1\n      pop\n        /* \"#utility.yul\":1767:1776   */\n      dup2\n        /* \"#utility.yul\":1761:1765   */\n      dup2\n        /* \"#utility.yul\":1757:1777   */\n      sub\n        /* \"#utility.yul\":1753:1754   */\n      0x00\n        /* \"#utility.yul\":1742:1751   */\n      dup4\n        /* \"#utility.yul\":1738:1755   */\n      add\n        /* \"#utility.yul\":1731:1778   */\n      mstore\n        /* \"#utility.yul\":1795:1871   */\n      tag_52\n        /* \"#utility.yul\":1866:1870   */\n      dup2\n        /* \"#utility.yul\":1857:1863   */\n      dup5\n        /* \"#utility.yul\":1795:1871   */\n      tag_31\n      jump\t// in\n    tag_52:\n        /* \"#utility.yul\":1787:1871   */\n      swap1\n      pop\n        /* \"#utility.yul\":1569:1878   */\n      swap3\n      swap2\n      pop\n      pop\n      jump\t// out\n\n    auxdata: 0xa2646970667358221220865be92c9ab6a5121fe0458d74d4daa7184d5326230ad419ae8058c1394ccf6664736f6c63430008170033\n}\n",
				"bytecode": {
					"linkReferences": {},
					"object": "608060405234801561000f575f80fd5b506102e58061001d5f395ff3fe608060405234801561000f575f80fd5b506004361061004a575f3560e01c8063741351541461004e5780639944cc711461006d578063a898fd701461008b578063b1ade4db146100a9575b5f80fd5b6100566100c8565b6040516100649291906101de565b60405180910390f35b6100756100d5565b604051610082919061028f565b60405180910390f35b610093610147565b6040516100a0919061028f565b60405180910390f35b6100b16101b9565b6040516100bf9291906101de565b60405180910390f35b5f80600142915091509091565b6060637413515460e01b604051602401604051602081830303815290604052907bffffffffffffffffffffffffffffffffffffffffffffffffffffffff19166020820180517bffffffffffffffffffffffffffffffffffffffffffffffffffffffff8381831617835250505050905090565b606063b1ade4db60e01b604051602401604051602081830303815290604052907bffffffffffffffffffffffffffffffffffffffffffffffffffffffff19166020820180517bffffffffffffffffffffffffffffffffffffffffffffffffffffffff8381831617835250505050905090565b5f80600242915091509091565b5f819050919050565b6101d8816101c6565b82525050565b5f6040820190506101f15f8301856101cf565b6101fe60208301846101cf565b9392505050565b5f81519050919050565b5f82825260208201905092915050565b5f5b8381101561023c578082015181840152602081019050610221565b5f8484015250505050565b5f601f19601f8301169050919050565b5f61026182610205565b61026b818561020f565b935061027b81856020860161021f565b61028481610247565b840191505092915050565b5f6020820190508181035f8301526102a78184610257565b90509291505056fea2646970667358221220865be92c9ab6a5121fe0458d74d4daa7184d5326230ad419ae8058c1394ccf6664736f6c63430008170033",
					"opcodes": "PUSH1 0x80 PUSH1 0x40 MSTORE CALLVALUE DUP1 ISZERO PUSH2 0xF JUMPI PUSH0 DUP1 REVERT JUMPDEST POP PUSH2 0x2E5 DUP1 PUSH2 0x1D PUSH0 CODECOPY PUSH0 RETURN INVALID PUSH1 0x80 PUSH1 0x40 MSTORE CALLVALUE DUP1 ISZERO PUSH2 0xF JUMPI PUSH0 DUP1 REVERT JUMPDEST POP PUSH1 0x4 CALLDATASIZE LT PUSH2 0x4A JUMPI PUSH0 CALLDATALOAD PUSH1 0xE0 SHR DUP1 PUSH4 0x74135154 EQ PUSH2 0x4E JUMPI DUP1 PUSH4 0x9944CC71 EQ PUSH2 0x6D JUMPI DUP1 PUSH4 0xA898FD70 EQ PUSH2 0x8B JUMPI DUP1 PUSH4 0xB1ADE4DB EQ PUSH2 0xA9 JUMPI JUMPDEST PUSH0 DUP1 REVERT JUMPDEST PUSH2 0x56 PUSH2 0xC8 JUMP JUMPDEST PUSH1 0x40 MLOAD PUSH2 0x64 SWAP3 SWAP2 SWAP1 PUSH2 0x1DE JUMP JUMPDEST PUSH1 0x40 MLOAD DUP1 SWAP2 SUB SWAP1 RETURN JUMPDEST PUSH2 0x75 PUSH2 0xD5 JUMP JUMPDEST PUSH1 0x40 MLOAD PUSH2 0x82 SWAP2 SWAP1 PUSH2 0x28F JUMP JUMPDEST PUSH1 0x40 MLOAD DUP1 SWAP2 SUB SWAP1 RETURN JUMPDEST PUSH2 0x93 PUSH2 0x147 JUMP JUMPDEST PUSH1 0x40 MLOAD PUSH2 0xA0 SWAP2 SWAP1 PUSH2 0x28F JUMP JUMPDEST PUSH1 0x40 MLOAD DUP1 SWAP2 SUB SWAP1 RETURN JUMPDEST PUSH2 0xB1 PUSH2 0x1B9 JUMP JUMPDEST PUSH1 0x40 MLOAD PUSH2 0xBF SWAP3 SWAP2 SWAP1 PUSH2 0x1DE JUMP JUMPDEST PUSH1 0x40 MLOAD DUP1 SWAP2 SUB SWAP1 RETURN JUMPDEST PUSH0 DUP1 PUSH1 0x1 TIMESTAMP SWAP2 POP SWAP2 POP SWAP1 SWAP2 JUMP JUMPDEST PUSH1 0x60 PUSH4 0x74135154 PUSH1 0xE0 SHL PUSH1 0x40 MLOAD PUSH1 0x24 ADD PUSH1 0x40 MLOAD PUSH1 0x20 DUP2 DUP4 SUB SUB DUP2 MSTORE SWAP1 PUSH1 0x40 MSTORE SWAP1 PUSH28 0xFFFFFFFFFFFFFFFFFFFFFFFFFFFFFFFFFFFFFFFFFFFFFFFFFFFFFFFF NOT AND PUSH1 0x20 DUP3 ADD DUP1 MLOAD PUSH28 0xFFFFFFFFFFFFFFFFFFFFFFFFFFFFFFFFFFFFFFFFFFFFFFFFFFFFFFFF DUP4 DUP2 DUP4 AND OR DUP4 MSTORE POP POP POP POP SWAP1 POP SWAP1 JUMP JUMPDEST PUSH1 0x60 PUSH4 0xB1ADE4DB PUSH1 0xE0 SHL PUSH1 0x40 MLOAD PUSH1 0x24 ADD PUSH1 0x40 MLOAD PUSH1 0x20 DUP2 DUP4 SUB SUB DUP2 MSTORE SWAP1 PUSH1 0x40 MSTORE SWAP1 PUSH28 0xFFFFFFFFFFFFFFFFFFFFFFFFFFFFFFFFFFFFFFFFFFFFFFFFFFFFFFFF NOT AND PUSH1 0x20 DUP3 ADD DUP1 MLOAD PUSH28 0xFFFFFFFFFFFFFFFFFFFFFFFFFFFFFFFFFFFFFFFFFFFFFFFFFFFFFFFF DUP4 DUP2 DUP4 AND OR DUP4 MSTORE POP POP POP POP SWAP1 POP SWAP1 JUMP JUMPDEST PUSH0 DUP1 PUSH1 0x2 TIMESTAMP SWAP2 POP SWAP2 POP SWAP1 SWAP2 JUMP JUMPDEST PUSH0 DUP2 SWAP1 POP SWAP2 SWAP1 POP JUMP JUMPDEST PUSH2 0x1D8 DUP2 PUSH2 0x1C6 JUMP JUMPDEST DUP3 MSTORE POP POP JUMP JUMPDEST PUSH0 PUSH1 0x40 DUP3 ADD SWAP1 POP PUSH2 0x1F1 PUSH0 DUP4 ADD DUP6 PUSH2 0x1CF JUMP JUMPDEST PUSH2 0x1FE PUSH1 0x20 DUP4 ADD DUP5 PUSH2 0x1CF JUMP JUMPDEST SWAP4 SWAP3 POP POP POP JUMP JUMPDEST PUSH0 DUP2 MLOAD SWAP1 POP SWAP2 SWAP1 POP JUMP JUMPDEST PUSH0 DUP3 DUP3 MSTORE PUSH1 0x20 DUP3 ADD SWAP1 POP SWAP3 SWAP2 POP POP JUMP JUMPDEST PUSH0 JUMPDEST DUP4 DUP2 LT ISZERO PUSH2 0x23C JUMPI DUP1 DUP3 ADD MLOAD DUP2 DUP5 ADD MSTORE PUSH1 0x20 DUP2 ADD SWAP1 POP PUSH2 0x221 JUMP JUMPDEST PUSH0 DUP5 DUP5 ADD MSTORE POP POP POP POP JUMP JUMPDEST PUSH0 PUSH1 0x1F NOT PUSH1 0x1F DUP4 ADD AND SWAP1 POP SWAP2 SWAP1 POP JUMP JUMPDEST PUSH0 PUSH2 0x261 DUP3 PUSH2 0x205 JUMP JUMPDEST PUSH2 0x26B DUP2 DUP6 PUSH2 0x20F JUMP JUMPDEST SWAP4 POP PUSH2 0x27B DUP2 DUP6 PUSH1 0x20 DUP7 ADD PUSH2 0x21F JUMP JUMPDEST PUSH2 0x284 DUP2 PUSH2 0x247 JUMP JUMPDEST DUP5 ADD SWAP2 POP POP SWAP3 SWAP2 POP POP JUMP JUMPDEST PUSH0 PUSH1 0x20 DUP3 ADD SWAP1 POP DUP2 DUP2 SUB PUSH0 DUP4 ADD MSTORE PUSH2 0x2A7 DUP2 DUP5 PUSH2 0x257 JUMP JUMPDEST SWAP1 POP SWAP3 SWAP2 POP POP JUMP INVALID LOG2 PUSH5 0x6970667358 0x22 SLT KECCAK256 DUP7 JUMPDEST 0xE9 0x2C SWAP11 0xB6 0xA5 SLT 0x1F 0xE0 GASLIMIT DUP14 PUSH21 0xD4DAA7184D5326230AD419AE8058C1394CCF666473 PUSH16 0x6C634300081700330000000000000000 "
				},
				"gasEstimates": {
					"creation": {
						"codeDepositCost": "148200",
						"executionCost": "194",
						"totalCost": "148394"
					},
					"external": {
						"func1()": "infinite",
						"func2()": "infinite",
						"getData1()": "infinite",
						"getData2()": "infinite"
					}
				},
				"methodIdentifiers": {
					"func1()": "74135154",
					"func2()": "b1ade4db",
					"getData1()": "9944cc71",
					"getData2()": "a898fd70"
				}
			},
			"storageLayout": {
				"storage": [],
				"types": null
			},
			"userdoc": {
				"kind": "user",
				"methods": {},
				"version": 1
			}
		}
	}
}