{
	"055EnglishAuction.sol": {
		"EnglishAuction": {
			"abi": [
				{
					"inputs": [
						{
							"internalType": "address",
							"name": "_nft",
							"type": "address"
						},
						{
							"internalType": "uint256",
							"name": "_nftId",
							"type": "uint256"
						},
						{
							"internalType": "uint256",
							"name": "_startingBid",
							"type": "uint256"
						}
					],
					"stateMutability": "nonpayable",
					"type": "constructor"
				},
				{
					"anonymous": false,
					"inputs": [
						{
							"indexed": true,
							"internalType": "address",
							"name": "sender",
							"type": "address"
						},
						{
							"indexed": false,
							"internalType": "uint256",
							"name": "amount",
							"type": "uint256"
						}
					],
					"name": "Bid",
					"type": "event"
				},
				{
					"anonymous": false,
					"inputs": [
						{
							"indexed": false,
							"internalType": "address",
							"name": "hightestBidder",
							"type": "address"
						},
						{
							"indexed": false,
							"internalType": "uint256",
							"name": "highestBid",
							"type": "uint256"
						}
					],
					"name": "End",
					"type": "event"
				},
				{
					"anonymous": false,
					"inputs": [],
					"name": "Start",
					"type": "event"
				},
				{
					"anonymous": false,
					"inputs": [
						{
							"indexed": true,
							"internalType": "address",
							"name": "bidder",
							"type": "address"
						},
						{
							"indexed": false,
							"internalType": "uint256",
							"name": "amount",
							"type": "uint256"
						}
					],
					"name": "Withdraw",
					"type": "event"
				},
				{
					"inputs": [],
					"name": "bid",
					"outputs": [],
					"stateMutability": "payable",
					"type": "function"
				},
				{
					"inputs": [
						{
							"internalType": "address",
							"name": "",
							"type": "address"
						}
					],
					"name": "bids",
					"outputs": [
						{
							"internalType": "uint256",
							"name": "",
							"type": "uint256"
						}
					],
					"stateMutability": "view",
					"type": "function"
				},
				{
					"inputs": [],
					"name": "end",
					"outputs": [],
					"stateMutability": "nonpayable",
					"type": "function"
				},
				{
					"inputs": [],
					"name": "endAt",
					"outputs": [
						{
							"internalType": "uint32",
							"name": "",
							"type": "uint32"
						}
					],
					"stateMutability": "view",
					"type": "function"
				},
				{
					"inputs": [],
					"name": "ended",
					"outputs": [
						{
							"internalType": "bool",
							"name": "",
							"type": "bool"
						}
					],
					"stateMutability": "view",
					"type": "function"
				},
				{
					"inputs": [],
					"name": "highestBid",
					"outputs": [
						{
							"internalType": "uint256",
							"name": "",
							"type": "uint256"
						}
					],
					"stateMutability": "view",
					"type": "function"
				},
				{
					"inputs": [],
					"name": "hightestBidder",
					"outputs": [
						{
							"internalType": "address",
							"name": "",
							"type": "address"
						}
					],
					"stateMutability": "view",
					"type": "function"
				},
				{
					"inputs": [],
					"name": "nft",
					"outputs": [
						{
							"internalType": "contract IERC721",
							"name": "",
							"type": "address"
						}
					],
					"stateMutability": "view",
					"type": "function"
				},
				{
					"inputs": [],
					"name": "nftId",
					"outputs": [
						{
							"internalType": "uint256",
							"name": "",
							"type": "uint256"
						}
					],
					"stateMutability": "view",
					"type": "function"
				},
				{
					"inputs": [],
					"name": "seller",
					"outputs": [
						{
							"internalType": "address payable",
							"name": "",
							"type": "address"
						}
					],
					"stateMutability": "view",
					"type": "function"
				},
				{
					"inputs": [],
					"name": "start",
					"outputs": [],
					"stateMutability": "nonpayable",
					"type": "function"
				},
				{
					"inputs": [],
					"name": "started",
					"outputs": [
						{
							"internalType": "bool",
							"name": "",
							"type": "bool"
						}
					],
					"stateMutability": "view",
					"type": "function"
				},
				{
					"inputs": [],
					"name": "withdraw",
					"outputs": [],
					"stateMutability": "nonpayable",
					"type": "function"
				}
			],
			"devdoc": {
				"kind": "dev",
				"methods": {},
				"version": 1
			},
			"evm": {
				"assembly": "    /* \"055EnglishAuction.sol\":366:6266  contract EnglishAuction{... */\n  mstore(0x40, 0xe0)\n    /* \"055EnglishAuction.sol\":2041:2585  constructor(... */\n  callvalue\n  dup1\n  iszero\n  tag_1\n  jumpi\n  0x00\n  dup1\n  revert\ntag_1:\n  pop\n  mload(0x40)\n  sub(codesize, bytecodeSize)\n  dup1\n  bytecodeSize\n  dup4\n  codecopy\n  dup2\n  dup2\n  add\n  0x40\n  mstore\n  dup2\n  add\n  swap1\n  tag_2\n  swap2\n  swap1\n  tag_3\n  jump\t// in\ntag_2:\n    /* \"055EnglishAuction.sol\":2152:2156  _nft */\n  dup3\n    /* \"055EnglishAuction.sol\":2138:2157  nft = IERC721(_nft) */\n  0xffffffffffffffffffffffffffffffffffffffff\n  and\n  0x80\n  dup2\n  0xffffffffffffffffffffffffffffffffffffffff\n  and\n  dup2\n  mstore\n  pop\n  pop\n    /* \"055EnglishAuction.sol\":2236:2242  _nftId */\n  dup2\n    /* \"055EnglishAuction.sol\":2228:2242  nftId = _nftId */\n  0xa0\n  dup2\n  dup2\n  mstore\n  pop\n  pop\n    /* \"055EnglishAuction.sol\":2483:2493  msg.sender */\n  caller\n    /* \"055EnglishAuction.sol\":2466:2494  seller =payable( msg.sender) */\n  0xffffffffffffffffffffffffffffffffffffffff\n  and\n  0xc0\n  dup2\n  0xffffffffffffffffffffffffffffffffffffffff\n  and\n  dup2\n  mstore\n  pop\n  pop\n    /* \"055EnglishAuction.sol\":2519:2531  _startingBid */\n  dup1\n    /* \"055EnglishAuction.sol\":2506:2516  highestBid */\n  0x01\n    /* \"055EnglishAuction.sol\":2506:2531  highestBid = _startingBid */\n  dup2\n  swap1\n  sstore\n  pop\n    /* \"055EnglishAuction.sol\":2041:2585  constructor(... */\n  pop\n  pop\n  pop\n    /* \"055EnglishAuction.sol\":366:6266  contract EnglishAuction{... */\n  jump(tag_6)\n    /* \"#utility.yul\":88:205   */\ntag_8:\n    /* \"#utility.yul\":197:198   */\n  0x00\n    /* \"#utility.yul\":194:195   */\n  dup1\n    /* \"#utility.yul\":187:199   */\n  revert\n    /* \"#utility.yul\":334:460   */\ntag_10:\n    /* \"#utility.yul\":371:378   */\n  0x00\n    /* \"#utility.yul\":411:453   */\n  0xffffffffffffffffffffffffffffffffffffffff\n    /* \"#utility.yul\":404:409   */\n  dup3\n    /* \"#utility.yul\":400:454   */\n  and\n    /* \"#utility.yul\":389:454   */\n  swap1\n  pop\n    /* \"#utility.yul\":334:460   */\n  swap2\n  swap1\n  pop\n  jump\t// out\n    /* \"#utility.yul\":466:562   */\ntag_11:\n    /* \"#utility.yul\":503:510   */\n  0x00\n    /* \"#utility.yul\":532:556   */\n  tag_23\n    /* \"#utility.yul\":550:555   */\n  dup3\n    /* \"#utility.yul\":532:556   */\n  tag_10\n  jump\t// in\ntag_23:\n    /* \"#utility.yul\":521:556   */\n  swap1\n  pop\n    /* \"#utility.yul\":466:562   */\n  swap2\n  swap1\n  pop\n  jump\t// out\n    /* \"#utility.yul\":568:690   */\ntag_12:\n    /* \"#utility.yul\":641:665   */\n  tag_25\n    /* \"#utility.yul\":659:664   */\n  dup2\n    /* \"#utility.yul\":641:665   */\n  tag_11\n  jump\t// in\ntag_25:\n    /* \"#utility.yul\":634:639   */\n  dup2\n    /* \"#utility.yul\":631:666   */\n  eq\n    /* \"#utility.yul\":621:684   */\n  tag_26\n  jumpi\n    /* \"#utility.yul\":680:681   */\n  0x00\n    /* \"#utility.yul\":677:678   */\n  dup1\n    /* \"#utility.yul\":670:682   */\n  revert\n    /* \"#utility.yul\":621:684   */\ntag_26:\n    /* \"#utility.yul\":568:690   */\n  pop\n  jump\t// out\n    /* \"#utility.yul\":696:839   */\ntag_13:\n    /* \"#utility.yul\":753:758   */\n  0x00\n    /* \"#utility.yul\":784:790   */\n  dup2\n    /* \"#utility.yul\":778:791   */\n  mload\n    /* \"#utility.yul\":769:791   */\n  swap1\n  pop\n    /* \"#utility.yul\":800:833   */\n  tag_28\n    /* \"#utility.yul\":827:832   */\n  dup2\n    /* \"#utility.yul\":800:833   */\n  tag_12\n  jump\t// in\ntag_28:\n    /* \"#utility.yul\":696:839   */\n  swap3\n  swap2\n  pop\n  pop\n  jump\t// out\n    /* \"#utility.yul\":845:922   */\ntag_14:\n    /* \"#utility.yul\":882:889   */\n  0x00\n    /* \"#utility.yul\":911:916   */\n  dup2\n    /* \"#utility.yul\":900:916   */\n  swap1\n  pop\n    /* \"#utility.yul\":845:922   */\n  swap2\n  swap1\n  pop\n  jump\t// out\n    /* \"#utility.yul\":928:1050   */\ntag_15:\n    /* \"#utility.yul\":1001:1025   */\n  tag_31\n    /* \"#utility.yul\":1019:1024   */\n  dup2\n    /* \"#utility.yul\":1001:1025   */\n  tag_14\n  jump\t// in\ntag_31:\n    /* \"#utility.yul\":994:999   */\n  dup2\n    /* \"#utility.yul\":991:1026   */\n  eq\n    /* \"#utility.yul\":981:1044   */\n  tag_32\n  jumpi\n    /* \"#utility.yul\":1040:1041   */\n  0x00\n    /* \"#utility.yul\":1037:1038   */\n  dup1\n    /* \"#utility.yul\":1030:1042   */\n  revert\n    /* \"#utility.yul\":981:1044   */\ntag_32:\n    /* \"#utility.yul\":928:1050   */\n  pop\n  jump\t// out\n    /* \"#utility.yul\":1056:1199   */\ntag_16:\n    /* \"#utility.yul\":1113:1118   */\n  0x00\n    /* \"#utility.yul\":1144:1150   */\n  dup2\n    /* \"#utility.yul\":1138:1151   */\n  mload\n    /* \"#utility.yul\":1129:1151   */\n  swap1\n  pop\n    /* \"#utility.yul\":1160:1193   */\n  tag_34\n    /* \"#utility.yul\":1187:1192   */\n  dup2\n    /* \"#utility.yul\":1160:1193   */\n  tag_15\n  jump\t// in\ntag_34:\n    /* \"#utility.yul\":1056:1199   */\n  swap3\n  swap2\n  pop\n  pop\n  jump\t// out\n    /* \"#utility.yul\":1205:1868   */\ntag_3:\n    /* \"#utility.yul\":1293:1299   */\n  0x00\n    /* \"#utility.yul\":1301:1307   */\n  dup1\n    /* \"#utility.yul\":1309:1315   */\n  0x00\n    /* \"#utility.yul\":1358:1360   */\n  0x60\n    /* \"#utility.yul\":1346:1355   */\n  dup5\n    /* \"#utility.yul\":1337:1344   */\n  dup7\n    /* \"#utility.yul\":1333:1356   */\n  sub\n    /* \"#utility.yul\":1329:1361   */\n  slt\n    /* \"#utility.yul\":1326:1445   */\n  iszero\n  tag_36\n  jumpi\n    /* \"#utility.yul\":1364:1443   */\n  tag_37\n  tag_8\n  jump\t// in\ntag_37:\n    /* \"#utility.yul\":1326:1445   */\ntag_36:\n    /* \"#utility.yul\":1484:1485   */\n  0x00\n    /* \"#utility.yul\":1509:1573   */\n  tag_38\n    /* \"#utility.yul\":1565:1572   */\n  dup7\n    /* \"#utility.yul\":1556:1562   */\n  dup3\n    /* \"#utility.yul\":1545:1554   */\n  dup8\n    /* \"#utility.yul\":1541:1563   */\n  add\n    /* \"#utility.yul\":1509:1573   */\n  tag_13\n  jump\t// in\ntag_38:\n    /* \"#utility.yul\":1499:1573   */\n  swap4\n  pop\n    /* \"#utility.yul\":1455:1583   */\n  pop\n    /* \"#utility.yul\":1622:1624   */\n  0x20\n    /* \"#utility.yul\":1648:1712   */\n  tag_39\n    /* \"#utility.yul\":1704:1711   */\n  dup7\n    /* \"#utility.yul\":1695:1701   */\n  dup3\n    /* \"#utility.yul\":1684:1693   */\n  dup8\n    /* \"#utility.yul\":1680:1702   */\n  add\n    /* \"#utility.yul\":1648:1712   */\n  tag_16\n  jump\t// in\ntag_39:\n    /* \"#utility.yul\":1638:1712   */\n  swap3\n  pop\n    /* \"#utility.yul\":1593:1722   */\n  pop\n    /* \"#utility.yul\":1761:1763   */\n  0x40\n    /* \"#utility.yul\":1787:1851   */\n  tag_40\n    /* \"#utility.yul\":1843:1850   */\n  dup7\n    /* \"#utility.yul\":1834:1840   */\n  dup3\n    /* \"#utility.yul\":1823:1832   */\n  dup8\n    /* \"#utility.yul\":1819:1841   */\n  add\n    /* \"#utility.yul\":1787:1851   */\n  tag_16\n  jump\t// in\ntag_40:\n    /* \"#utility.yul\":1777:1851   */\n  swap2\n  pop\n    /* \"#utility.yul\":1732:1861   */\n  pop\n    /* \"#utility.yul\":1205:1868   */\n  swap3\n  pop\n  swap3\n  pop\n  swap3\n  jump\t// out\n    /* \"055EnglishAuction.sol\":366:6266  contract EnglishAuction{... */\ntag_6:\n  mload(0x80)\n  mload(0xa0)\n  mload(0xc0)\n  codecopy(0x00, dataOffset(sub_0), dataSize(sub_0))\n  0x00\n  assignImmutable(\"0xd67d834462ca31eaef1f30157e31659f60355143b7441e6fc7d9eae1fa79f3f8\")\n  0x00\n  assignImmutable(\"0x3b4066bd7b7960752225af105d3beafb5c47a26c5aae7e6798a437b7c0bb33e6\")\n  0x00\n  assignImmutable(\"0x77c32b454bb61eb9df9e3848d0ded3e59753acda90ae58befe564733aec82e4c\")\n  return(0x00, dataSize(sub_0))\nstop\n\nsub_0: assembly {\n        /* \"055EnglishAuction.sol\":366:6266  contract EnglishAuction{... */\n      mstore(0x40, 0x80)\n      jumpi(tag_1, lt(calldatasize, 0x04))\n      shr(0xe0, calldataload(0x00))\n      dup1\n      0x62ea82db\n      gt\n      tag_15\n      jumpi\n      dup1\n      0xc6bc5182\n      gt\n      tag_16\n      jumpi\n      dup1\n      0xc6bc5182\n      eq\n      tag_11\n      jumpi\n      dup1\n      0xc6cf27da\n      eq\n      tag_12\n      jumpi\n      dup1\n      0xd57bde79\n      eq\n      tag_13\n      jumpi\n      dup1\n      0xefbe1c1c\n      eq\n      tag_14\n      jumpi\n      jump(tag_1)\n    tag_16:\n      dup1\n      0x62ea82db\n      eq\n      tag_8\n      jumpi\n      dup1\n      0x7cc3ae8c\n      eq\n      tag_9\n      jumpi\n      dup1\n      0xbe9a6555\n      eq\n      tag_10\n      jumpi\n      jump(tag_1)\n    tag_15:\n      dup1\n      0x08551a53\n      eq\n      tag_2\n      jumpi\n      dup1\n      0x12fa6feb\n      eq\n      tag_3\n      jumpi\n      dup1\n      0x1998aeef\n      eq\n      tag_4\n      jumpi\n      dup1\n      0x1f2698ab\n      eq\n      tag_5\n      jumpi\n      dup1\n      0x3ccfd60b\n      eq\n      tag_6\n      jumpi\n      dup1\n      0x47ccca02\n      eq\n      tag_7\n      jumpi\n    tag_1:\n      0x00\n      dup1\n      revert\n        /* \"055EnglishAuction.sol\":1324:1365  address  payable public  immutable seller */\n    tag_2:\n      callvalue\n      dup1\n      iszero\n      tag_17\n      jumpi\n      0x00\n      dup1\n      revert\n    tag_17:\n      pop\n      tag_18\n      tag_19\n      jump\t// in\n    tag_18:\n      mload(0x40)\n      tag_20\n      swap2\n      swap1\n      tag_21\n      jump\t// in\n    tag_20:\n      mload(0x40)\n      dup1\n      swap2\n      sub\n      swap1\n      return\n        /* \"055EnglishAuction.sol\":1599:1616  bool public ended */\n    tag_3:\n      callvalue\n      dup1\n      iszero\n      tag_22\n      jumpi\n      0x00\n      dup1\n      revert\n    tag_22:\n      pop\n      tag_23\n      tag_24\n      jump\t// in\n    tag_23:\n      mload(0x40)\n      tag_25\n      swap2\n      swap1\n      tag_26\n      jump\t// in\n    tag_25:\n      mload(0x40)\n      dup1\n      swap2\n      sub\n      swap1\n      return\n        /* \"055EnglishAuction.sol\":3595:4344  function bid()external payable {... */\n    tag_4:\n      tag_27\n      tag_28\n      jump\t// in\n    tag_27:\n      stop\n        /* \"055EnglishAuction.sol\":1550:1569  bool public started */\n    tag_5:\n      callvalue\n      dup1\n      iszero\n      tag_29\n      jumpi\n      0x00\n      dup1\n      revert\n    tag_29:\n      pop\n      tag_30\n      tag_31\n      jump\t// in\n    tag_30:\n      mload(0x40)\n      tag_32\n      swap2\n      swap1\n      tag_26\n      jump\t// in\n    tag_32:\n      mload(0x40)\n      dup1\n      swap2\n      sub\n      swap1\n      return\n        /* \"055EnglishAuction.sol\":4489:5047  function withdraw()external {... */\n    tag_6:\n      callvalue\n      dup1\n      iszero\n      tag_33\n      jumpi\n      0x00\n      dup1\n      revert\n    tag_33:\n      pop\n      tag_34\n      tag_35\n      jump\t// in\n    tag_34:\n      stop\n        /* \"055EnglishAuction.sol\":978:1006  IERC721 public immutable nft */\n    tag_7:\n      callvalue\n      dup1\n      iszero\n      tag_36\n      jumpi\n      0x00\n      dup1\n      revert\n    tag_36:\n      pop\n      tag_37\n      tag_38\n      jump\t// in\n    tag_37:\n      mload(0x40)\n      tag_39\n      swap2\n      swap1\n      tag_40\n      jump\t// in\n    tag_39:\n      mload(0x40)\n      dup1\n      swap2\n      sub\n      swap1\n      return\n        /* \"055EnglishAuction.sol\":1888:1924  mapping (address=> uint )public bids */\n    tag_8:\n      callvalue\n      dup1\n      iszero\n      tag_41\n      jumpi\n      0x00\n      dup1\n      revert\n    tag_41:\n      pop\n      tag_42\n      0x04\n      dup1\n      calldatasize\n      sub\n      dup2\n      add\n      swap1\n      tag_43\n      swap2\n      swap1\n      tag_44\n      jump\t// in\n    tag_43:\n      tag_45\n      jump\t// in\n    tag_42:\n      mload(0x40)\n      tag_46\n      swap2\n      swap1\n      tag_47\n      jump\t// in\n    tag_46:\n      mload(0x40)\n      dup1\n      swap2\n      sub\n      swap1\n      return\n        /* \"055EnglishAuction.sol\":1469:1488  uint32 public endAt */\n    tag_9:\n      callvalue\n      dup1\n      iszero\n      tag_48\n      jumpi\n      0x00\n      dup1\n      revert\n    tag_48:\n      pop\n      tag_49\n      tag_50\n      jump\t// in\n    tag_49:\n      mload(0x40)\n      tag_51\n      swap2\n      swap1\n      tag_52\n      jump\t// in\n    tag_51:\n      mload(0x40)\n      dup1\n      swap2\n      sub\n      swap1\n      return\n        /* \"055EnglishAuction.sol\":2636:3476  function start() external {... */\n    tag_10:\n      callvalue\n      dup1\n      iszero\n      tag_53\n      jumpi\n      0x00\n      dup1\n      revert\n    tag_53:\n      pop\n      tag_54\n      tag_55\n      jump\t// in\n    tag_54:\n      stop\n        /* \"055EnglishAuction.sol\":1194:1221  uint public immutable nftId */\n    tag_11:\n      callvalue\n      dup1\n      iszero\n      tag_56\n      jumpi\n      0x00\n      dup1\n      revert\n    tag_56:\n      pop\n      tag_57\n      tag_58\n      jump\t// in\n    tag_57:\n      mload(0x40)\n      tag_59\n      swap2\n      swap1\n      tag_47\n      jump\t// in\n    tag_59:\n      mload(0x40)\n      dup1\n      swap2\n      sub\n      swap1\n      return\n        /* \"055EnglishAuction.sol\":1694:1723  address public hightestBidder */\n    tag_12:\n      callvalue\n      dup1\n      iszero\n      tag_60\n      jumpi\n      0x00\n      dup1\n      revert\n    tag_60:\n      pop\n      tag_61\n      tag_62\n      jump\t// in\n    tag_61:\n      mload(0x40)\n      tag_63\n      swap2\n      swap1\n      tag_64\n      jump\t// in\n    tag_63:\n      mload(0x40)\n      dup1\n      swap2\n      sub\n      swap1\n      return\n        /* \"055EnglishAuction.sol\":1729:1751  uint public highestBid */\n    tag_13:\n      callvalue\n      dup1\n      iszero\n      tag_65\n      jumpi\n      0x00\n      dup1\n      revert\n    tag_65:\n      pop\n      tag_66\n      tag_67\n      jump\t// in\n    tag_66:\n      mload(0x40)\n      tag_68\n      swap2\n      swap1\n      tag_47\n      jump\t// in\n    tag_68:\n      mload(0x40)\n      dup1\n      swap2\n      sub\n      swap1\n      return\n        /* \"055EnglishAuction.sol\":5096:6263  function end() external {... */\n    tag_14:\n      callvalue\n      dup1\n      iszero\n      tag_69\n      jumpi\n      0x00\n      dup1\n      revert\n    tag_69:\n      pop\n      tag_70\n      tag_71\n      jump\t// in\n    tag_70:\n      stop\n        /* \"055EnglishAuction.sol\":1324:1365  address  payable public  immutable seller */\n    tag_19:\n      immutable(\"0xd67d834462ca31eaef1f30157e31659f60355143b7441e6fc7d9eae1fa79f3f8\")\n      dup2\n      jump\t// out\n        /* \"055EnglishAuction.sol\":1599:1616  bool public ended */\n    tag_24:\n      0x00\n      0x05\n      swap1\n      sload\n      swap1\n      0x0100\n      exp\n      swap1\n      div\n      0xff\n      and\n      dup2\n      jump\t// out\n        /* \"055EnglishAuction.sol\":3595:4344  function bid()external payable {... */\n    tag_28:\n        /* \"055EnglishAuction.sol\":3644:3651  started */\n      0x00\n      0x04\n      swap1\n      sload\n      swap1\n      0x0100\n      exp\n      swap1\n      div\n      0xff\n      and\n        /* \"055EnglishAuction.sol\":3636:3666  require(started, \"not start!\") */\n      tag_73\n      jumpi\n      mload(0x40)\n      0x08c379a000000000000000000000000000000000000000000000000000000000\n      dup2\n      mstore\n      0x04\n      add\n      tag_74\n      swap1\n      tag_75\n      jump\t// in\n    tag_74:\n      mload(0x40)\n      dup1\n      swap2\n      sub\n      swap1\n      revert\n    tag_73:\n        /* \"055EnglishAuction.sol\":3702:3707  endAt */\n      0x00\n      dup1\n      sload\n      swap1\n      0x0100\n      exp\n      swap1\n      div\n      0xffffffff\n      and\n        /* \"055EnglishAuction.sol\":3684:3707  block.timestamp < endAt */\n      0xffffffff\n      and\n        /* \"055EnglishAuction.sol\":3684:3699  block.timestamp */\n      timestamp\n        /* \"055EnglishAuction.sol\":3684:3707  block.timestamp < endAt */\n      lt\n        /* \"055EnglishAuction.sol\":3676:3725  require(block.timestamp < endAt, \"bid is ended!\") */\n      tag_76\n      jumpi\n      mload(0x40)\n      0x08c379a000000000000000000000000000000000000000000000000000000000\n      dup2\n      mstore\n      0x04\n      add\n      tag_77\n      swap1\n      tag_78\n      jump\t// in\n    tag_77:\n      mload(0x40)\n      dup1\n      swap2\n      sub\n      swap1\n      revert\n    tag_76:\n        /* \"055EnglishAuction.sol\":3755:3765  highestBid */\n      sload(0x01)\n        /* \"055EnglishAuction.sol\":3743:3752  msg.value */\n      callvalue\n        /* \"055EnglishAuction.sol\":3743:3765  msg.value > highestBid */\n      gt\n        /* \"055EnglishAuction.sol\":3735:3788  require(msg.value > highestBid, \"value < highestBid\") */\n      tag_79\n      jumpi\n      mload(0x40)\n      0x08c379a000000000000000000000000000000000000000000000000000000000\n      dup2\n      mstore\n      0x04\n      add\n      tag_80\n      swap1\n      tag_81\n      jump\t// in\n    tag_80:\n      mload(0x40)\n      dup1\n      swap2\n      sub\n      swap1\n      revert\n    tag_79:\n        /* \"055EnglishAuction.sol\":3827:3828  0 */\n      0x00\n        /* \"055EnglishAuction.sol\":3802:3829  hightestBidder !=address(0) */\n      0xffffffffffffffffffffffffffffffffffffffff\n      and\n        /* \"055EnglishAuction.sol\":3802:3816  hightestBidder */\n      0x00\n      0x06\n      swap1\n      sload\n      swap1\n      0x0100\n      exp\n      swap1\n      div\n      0xffffffffffffffffffffffffffffffffffffffff\n      and\n        /* \"055EnglishAuction.sol\":3802:3829  hightestBidder !=address(0) */\n      0xffffffffffffffffffffffffffffffffffffffff\n      and\n      eq\n        /* \"055EnglishAuction.sol\":3798:4123  if (hightestBidder !=address(0)){... */\n      tag_82\n      jumpi\n        /* \"055EnglishAuction.sol\":4102:4112  highestBid */\n      sload(0x01)\n        /* \"055EnglishAuction.sol\":4078:4082  bids */\n      0x02\n        /* \"055EnglishAuction.sol\":4078:4098  bids[hightestBidder] */\n      0x00\n        /* \"055EnglishAuction.sol\":4083:4097  hightestBidder */\n      dup1\n      0x06\n      swap1\n      sload\n      swap1\n      0x0100\n      exp\n      swap1\n      div\n      0xffffffffffffffffffffffffffffffffffffffff\n      and\n        /* \"055EnglishAuction.sol\":4078:4098  bids[hightestBidder] */\n      0xffffffffffffffffffffffffffffffffffffffff\n      and\n      0xffffffffffffffffffffffffffffffffffffffff\n      and\n      dup2\n      mstore\n      0x20\n      add\n      swap1\n      dup2\n      mstore\n      0x20\n      add\n      0x00\n      keccak256\n      0x00\n        /* \"055EnglishAuction.sol\":4078:4112  bids[hightestBidder] += highestBid */\n      dup3\n      dup3\n      sload\n      tag_83\n      swap2\n      swap1\n      tag_84\n      jump\t// in\n    tag_83:\n      swap3\n      pop\n      pop\n      dup2\n      swap1\n      sstore\n      pop\n        /* \"055EnglishAuction.sol\":3798:4123  if (hightestBidder !=address(0)){... */\n    tag_82:\n        /* \"055EnglishAuction.sol\":4184:4193  msg.value */\n      callvalue\n        /* \"055EnglishAuction.sol\":4171:4181  highestBid */\n      0x01\n        /* \"055EnglishAuction.sol\":4171:4193  highestBid = msg.value */\n      dup2\n      swap1\n      sstore\n      pop\n        /* \"055EnglishAuction.sol\":4220:4230  msg.sender */\n      caller\n        /* \"055EnglishAuction.sol\":4203:4217  hightestBidder */\n      0x00\n      0x06\n        /* \"055EnglishAuction.sol\":4203:4230  hightestBidder = msg.sender */\n      0x0100\n      exp\n      dup2\n      sload\n      dup2\n      0xffffffffffffffffffffffffffffffffffffffff\n      mul\n      not\n      and\n      swap1\n      dup4\n      0xffffffffffffffffffffffffffffffffffffffff\n      and\n      mul\n      or\n      swap1\n      sstore\n      pop\n        /* \"055EnglishAuction.sol\":4313:4323  msg.sender */\n      caller\n        /* \"055EnglishAuction.sol\":4309:4335  Bid(msg.sender, msg.value) */\n      0xffffffffffffffffffffffffffffffffffffffff\n      and\n      0xe684a55f31b79eca403df938249029212a5925ec6be8012e099b45bc1019e5d2\n        /* \"055EnglishAuction.sol\":4325:4334  msg.value */\n      callvalue\n        /* \"055EnglishAuction.sol\":4309:4335  Bid(msg.sender, msg.value) */\n      mload(0x40)\n      tag_85\n      swap2\n      swap1\n      tag_47\n      jump\t// in\n    tag_85:\n      mload(0x40)\n      dup1\n      swap2\n      sub\n      swap1\n      log2\n        /* \"055EnglishAuction.sol\":3595:4344  function bid()external payable {... */\n      jump\t// out\n        /* \"055EnglishAuction.sol\":1550:1569  bool public started */\n    tag_31:\n      0x00\n      0x04\n      swap1\n      sload\n      swap1\n      0x0100\n      exp\n      swap1\n      div\n      0xff\n      and\n      dup2\n      jump\t// out\n        /* \"055EnglishAuction.sol\":4489:5047  function withdraw()external {... */\n    tag_35:\n        /* \"055EnglishAuction.sol\":4608:4616  uint bal */\n      0x00\n        /* \"055EnglishAuction.sol\":4619:4623  bids */\n      0x02\n        /* \"055EnglishAuction.sol\":4619:4635  bids[msg.sender] */\n      0x00\n        /* \"055EnglishAuction.sol\":4624:4634  msg.sender */\n      caller\n        /* \"055EnglishAuction.sol\":4619:4635  bids[msg.sender] */\n      0xffffffffffffffffffffffffffffffffffffffff\n      and\n      0xffffffffffffffffffffffffffffffffffffffff\n      and\n      dup2\n      mstore\n      0x20\n      add\n      swap1\n      dup2\n      mstore\n      0x20\n      add\n      0x00\n      keccak256\n      sload\n        /* \"055EnglishAuction.sol\":4608:4635  uint bal = bids[msg.sender] */\n      swap1\n      pop\n        /* \"055EnglishAuction.sol\":4741:4742  0 */\n      0x00\n        /* \"055EnglishAuction.sol\":4722:4726  bids */\n      0x02\n        /* \"055EnglishAuction.sol\":4722:4738  bids[msg.sender] */\n      0x00\n        /* \"055EnglishAuction.sol\":4727:4737  msg.sender */\n      caller\n        /* \"055EnglishAuction.sol\":4722:4738  bids[msg.sender] */\n      0xffffffffffffffffffffffffffffffffffffffff\n      and\n      0xffffffffffffffffffffffffffffffffffffffff\n      and\n      dup2\n      mstore\n      0x20\n      add\n      swap1\n      dup2\n      mstore\n      0x20\n      add\n      0x00\n      keccak256\n        /* \"055EnglishAuction.sol\":4722:4742  bids[msg.sender] = 0 */\n      dup2\n      swap1\n      sstore\n      pop\n        /* \"055EnglishAuction.sol\":4974:4984  msg.sender */\n      caller\n        /* \"055EnglishAuction.sol\":4965:4994  payable (msg.sender).transfer */\n      0xffffffffffffffffffffffffffffffffffffffff\n      and\n        /* \"055EnglishAuction.sol\":4965:4999  payable (msg.sender).transfer(bal) */\n      0x08fc\n        /* \"055EnglishAuction.sol\":4995:4998  bal */\n      dup3\n        /* \"055EnglishAuction.sol\":4965:4999  payable (msg.sender).transfer(bal) */\n      swap1\n      dup2\n      iszero\n      mul\n      swap1\n      mload(0x40)\n      0x00\n      mload(0x40)\n      dup1\n      dup4\n      sub\n      dup2\n      dup6\n      dup9\n      dup9\n      call\n      swap4\n      pop\n      pop\n      pop\n      pop\n      iszero\n      dup1\n      iszero\n      tag_88\n      jumpi\n      returndatasize\n      0x00\n      dup1\n      returndatacopy\n      revert(0x00, returndatasize)\n    tag_88:\n      pop\n        /* \"055EnglishAuction.sol\":5024:5034  msg.sender */\n      caller\n        /* \"055EnglishAuction.sol\":5015:5040  Withdraw(msg.sender, bal) */\n      0xffffffffffffffffffffffffffffffffffffffff\n      and\n      0x884edad9ce6fa2440d8a54cc123490eb96d2768479d49ff9c7366125a9424364\n        /* \"055EnglishAuction.sol\":5036:5039  bal */\n      dup3\n        /* \"055EnglishAuction.sol\":5015:5040  Withdraw(msg.sender, bal) */\n      mload(0x40)\n      tag_89\n      swap2\n      swap1\n      tag_47\n      jump\t// in\n    tag_89:\n      mload(0x40)\n      dup1\n      swap2\n      sub\n      swap1\n      log2\n        /* \"055EnglishAuction.sol\":4517:5047  {... */\n      pop\n        /* \"055EnglishAuction.sol\":4489:5047  function withdraw()external {... */\n      jump\t// out\n        /* \"055EnglishAuction.sol\":978:1006  IERC721 public immutable nft */\n    tag_38:\n      immutable(\"0x77c32b454bb61eb9df9e3848d0ded3e59753acda90ae58befe564733aec82e4c\")\n      dup2\n      jump\t// out\n        /* \"055EnglishAuction.sol\":1888:1924  mapping (address=> uint )public bids */\n    tag_45:\n      mstore(0x20, 0x02)\n      dup1\n      0x00\n      mstore\n      keccak256(0x00, 0x40)\n      0x00\n      swap2\n      pop\n      swap1\n      pop\n      sload\n      dup2\n      jump\t// out\n        /* \"055EnglishAuction.sol\":1469:1488  uint32 public endAt */\n    tag_50:\n      0x00\n      dup1\n      sload\n      swap1\n      0x0100\n      exp\n      swap1\n      div\n      0xffffffff\n      and\n      dup2\n      jump\t// out\n        /* \"055EnglishAuction.sol\":2636:3476  function start() external {... */\n    tag_55:\n        /* \"055EnglishAuction.sol\":2690:2700  msg.sender */\n      caller\n        /* \"055EnglishAuction.sol\":2680:2700  seller == msg.sender */\n      0xffffffffffffffffffffffffffffffffffffffff\n      and\n        /* \"055EnglishAuction.sol\":2680:2686  seller */\n      immutable(\"0xd67d834462ca31eaef1f30157e31659f60355143b7441e6fc7d9eae1fa79f3f8\")\n        /* \"055EnglishAuction.sol\":2680:2700  seller == msg.sender */\n      0xffffffffffffffffffffffffffffffffffffffff\n      and\n      eq\n        /* \"055EnglishAuction.sol\":2672:2715  require(seller == msg.sender, \"not seller\") */\n      tag_91\n      jumpi\n      mload(0x40)\n      0x08c379a000000000000000000000000000000000000000000000000000000000\n      dup2\n      mstore\n      0x04\n      add\n      tag_92\n      swap1\n      tag_93\n      jump\t// in\n    tag_92:\n      mload(0x40)\n      dup1\n      swap2\n      sub\n      swap1\n      revert\n    tag_91:\n        /* \"055EnglishAuction.sol\":2762:2769  started */\n      0x00\n      0x04\n      swap1\n      sload\n      swap1\n      0x0100\n      exp\n      swap1\n      div\n      0xff\n      and\n        /* \"055EnglishAuction.sol\":2761:2769  !started */\n      iszero\n        /* \"055EnglishAuction.sol\":2753:2786  require(!started, \"has started!\") */\n      tag_94\n      jumpi\n      mload(0x40)\n      0x08c379a000000000000000000000000000000000000000000000000000000000\n      dup2\n      mstore\n      0x04\n      add\n      tag_95\n      swap1\n      tag_96\n      jump\t// in\n    tag_95:\n      mload(0x40)\n      dup1\n      swap2\n      sub\n      swap1\n      revert\n    tag_94:\n        /* \"055EnglishAuction.sol\":2857:2861  true */\n      0x01\n        /* \"055EnglishAuction.sol\":2848:2855  started */\n      0x00\n      0x04\n        /* \"055EnglishAuction.sol\":2848:2861  started =true */\n      0x0100\n      exp\n      dup2\n      sload\n      dup2\n      0xff\n      mul\n      not\n      and\n      swap1\n      dup4\n      iszero\n      iszero\n      mul\n      or\n      swap1\n      sstore\n      pop\n        /* \"055EnglishAuction.sol\":2929:2932  120 */\n      0x78\n        /* \"055EnglishAuction.sol\":2911:2926  block.timestamp */\n      timestamp\n        /* \"055EnglishAuction.sol\":2911:2932  block.timestamp + 120 */\n      tag_97\n      swap2\n      swap1\n      tag_84\n      jump\t// in\n    tag_97:\n        /* \"055EnglishAuction.sol\":2896:2901  endAt */\n      0x00\n      dup1\n        /* \"055EnglishAuction.sol\":2896:2933  endAt = uint32(block.timestamp + 120) */\n      0x0100\n      exp\n      dup2\n      sload\n      dup2\n      0xffffffff\n      mul\n      not\n      and\n      swap1\n      dup4\n      0xffffffff\n      and\n      mul\n      or\n      swap1\n      sstore\n      pop\n        /* \"055EnglishAuction.sol\":3097:3100  nft */\n      immutable(\"0x77c32b454bb61eb9df9e3848d0ded3e59753acda90ae58befe564733aec82e4c\")\n        /* \"055EnglishAuction.sol\":3097:3113  nft.transferFrom */\n      0xffffffffffffffffffffffffffffffffffffffff\n      and\n      0x23b872dd\n        /* \"055EnglishAuction.sol\":3114:3120  seller */\n      immutable(\"0xd67d834462ca31eaef1f30157e31659f60355143b7441e6fc7d9eae1fa79f3f8\")\n        /* \"055EnglishAuction.sol\":3130:3134  this */\n      address\n        /* \"055EnglishAuction.sol\":3137:3142  nftId */\n      immutable(\"0x3b4066bd7b7960752225af105d3beafb5c47a26c5aae7e6798a437b7c0bb33e6\")\n        /* \"055EnglishAuction.sol\":3097:3143  nft.transferFrom(seller, address(this), nftId) */\n      mload(0x40)\n      dup5\n      0xffffffff\n      and\n      0xe0\n      shl\n      dup2\n      mstore\n      0x04\n      add\n      tag_98\n      swap4\n      swap3\n      swap2\n      swap1\n      tag_99\n      jump\t// in\n    tag_98:\n      0x00\n      mload(0x40)\n      dup1\n      dup4\n      sub\n      dup2\n      0x00\n      dup8\n      dup1\n      extcodesize\n      iszero\n      dup1\n      iszero\n      tag_100\n      jumpi\n      0x00\n      dup1\n      revert\n    tag_100:\n      pop\n      gas\n      call\n      iszero\n      dup1\n      iszero\n      tag_102\n      jumpi\n      returndatasize\n      0x00\n      dup1\n      returndatacopy\n      revert(0x00, returndatasize)\n    tag_102:\n      pop\n      pop\n      pop\n      pop\n        /* \"055EnglishAuction.sol\":3462:3469  Start() */\n      0x1b55ba3aa851a46be3b365aee5b5c140edd620d578922f3e8466d2cbd96f954b\n      mload(0x40)\n      mload(0x40)\n      dup1\n      swap2\n      sub\n      swap1\n      log1\n        /* \"055EnglishAuction.sol\":2636:3476  function start() external {... */\n      jump\t// out\n        /* \"055EnglishAuction.sol\":1194:1221  uint public immutable nftId */\n    tag_58:\n      immutable(\"0x3b4066bd7b7960752225af105d3beafb5c47a26c5aae7e6798a437b7c0bb33e6\")\n      dup2\n      jump\t// out\n        /* \"055EnglishAuction.sol\":1694:1723  address public hightestBidder */\n    tag_62:\n      0x00\n      0x06\n      swap1\n      sload\n      swap1\n      0x0100\n      exp\n      swap1\n      div\n      0xffffffffffffffffffffffffffffffffffffffff\n      and\n      dup2\n      jump\t// out\n        /* \"055EnglishAuction.sol\":1729:1751  uint public highestBid */\n    tag_67:\n      sload(0x01)\n      dup2\n      jump\t// out\n        /* \"055EnglishAuction.sol\":5096:6263  function end() external {... */\n    tag_71:\n        /* \"055EnglishAuction.sol\":5363:5370  started */\n      0x00\n      0x04\n      swap1\n      sload\n      swap1\n      0x0100\n      exp\n      swap1\n      div\n      0xff\n      and\n        /* \"055EnglishAuction.sol\":5355:5384  require(started, \"not start\") */\n      tag_104\n      jumpi\n      mload(0x40)\n      0x08c379a000000000000000000000000000000000000000000000000000000000\n      dup2\n      mstore\n      0x04\n      add\n      tag_105\n      swap1\n      tag_106\n      jump\t// in\n    tag_105:\n      mload(0x40)\n      dup1\n      swap2\n      sub\n      swap1\n      revert\n    tag_104:\n        /* \"055EnglishAuction.sol\":5403:5408  ended */\n      0x00\n      0x05\n      swap1\n      sload\n      swap1\n      0x0100\n      exp\n      swap1\n      div\n      0xff\n      and\n        /* \"055EnglishAuction.sol\":5402:5408  !ended */\n      iszero\n        /* \"055EnglishAuction.sol\":5394:5423  require(!ended, \"has ended!\") */\n      tag_107\n      jumpi\n      mload(0x40)\n      0x08c379a000000000000000000000000000000000000000000000000000000000\n      dup2\n      mstore\n      0x04\n      add\n      tag_108\n      swap1\n      tag_109\n      jump\t// in\n    tag_108:\n      mload(0x40)\n      dup1\n      swap2\n      sub\n      swap1\n      revert\n    tag_107:\n        /* \"055EnglishAuction.sol\":5460:5465  endAt */\n      0x00\n      dup1\n      sload\n      swap1\n      0x0100\n      exp\n      swap1\n      div\n      0xffffffff\n      and\n        /* \"055EnglishAuction.sol\":5441:5465  block.timestamp >= endAt */\n      0xffffffff\n      and\n        /* \"055EnglishAuction.sol\":5441:5456  block.timestamp */\n      timestamp\n        /* \"055EnglishAuction.sol\":5441:5465  block.timestamp >= endAt */\n      lt\n      iszero\n        /* \"055EnglishAuction.sol\":5433:5486  require(block.timestamp >= endAt, \"now <= end time!\") */\n      tag_110\n      jumpi\n      mload(0x40)\n      0x08c379a000000000000000000000000000000000000000000000000000000000\n      dup2\n      mstore\n      0x04\n      add\n      tag_111\n      swap1\n      tag_112\n      jump\t// in\n    tag_111:\n      mload(0x40)\n      dup1\n      swap2\n      sub\n      swap1\n      revert\n    tag_110:\n        /* \"055EnglishAuction.sol\":5505:5509  true */\n      0x01\n        /* \"055EnglishAuction.sol\":5497:5502  ended */\n      0x00\n      0x05\n        /* \"055EnglishAuction.sol\":5497:5509  ended = true */\n      0x0100\n      exp\n      dup2\n      sload\n      dup2\n      0xff\n      mul\n      not\n      and\n      swap1\n      dup4\n      iszero\n      iszero\n      mul\n      or\n      swap1\n      sstore\n      pop\n        /* \"055EnglishAuction.sol\":5549:5550  0 */\n      0x00\n        /* \"055EnglishAuction.sol\":5523:5551  hightestBidder != address(0) */\n      0xffffffffffffffffffffffffffffffffffffffff\n      and\n        /* \"055EnglishAuction.sol\":5523:5537  hightestBidder */\n      0x00\n      0x06\n      swap1\n      sload\n      swap1\n      0x0100\n      exp\n      swap1\n      div\n      0xffffffffffffffffffffffffffffffffffffffff\n      and\n        /* \"055EnglishAuction.sol\":5523:5551  hightestBidder != address(0) */\n      0xffffffffffffffffffffffffffffffffffffffff\n      and\n      eq\n        /* \"055EnglishAuction.sol\":5519:6202  if (hightestBidder != address(0)){... */\n      tag_113\n      jumpi\n        /* \"055EnglishAuction.sol\":5645:5648  nft */\n      immutable(\"0x77c32b454bb61eb9df9e3848d0ded3e59753acda90ae58befe564733aec82e4c\")\n        /* \"055EnglishAuction.sol\":5645:5661  nft.transferFrom */\n      0xffffffffffffffffffffffffffffffffffffffff\n      and\n      0x23b872dd\n        /* \"055EnglishAuction.sol\":5670:5674  this */\n      address\n        /* \"055EnglishAuction.sol\":5677:5691  hightestBidder */\n      0x00\n      0x06\n      swap1\n      sload\n      swap1\n      0x0100\n      exp\n      swap1\n      div\n      0xffffffffffffffffffffffffffffffffffffffff\n      and\n        /* \"055EnglishAuction.sol\":5693:5698  nftId */\n      immutable(\"0x3b4066bd7b7960752225af105d3beafb5c47a26c5aae7e6798a437b7c0bb33e6\")\n        /* \"055EnglishAuction.sol\":5645:5699  nft.transferFrom(address(this), hightestBidder, nftId) */\n      mload(0x40)\n      dup5\n      0xffffffff\n      and\n      0xe0\n      shl\n      dup2\n      mstore\n      0x04\n      add\n      tag_114\n      swap4\n      swap3\n      swap2\n      swap1\n      tag_115\n      jump\t// in\n    tag_114:\n      0x00\n      mload(0x40)\n      dup1\n      dup4\n      sub\n      dup2\n      0x00\n      dup8\n      dup1\n      extcodesize\n      iszero\n      dup1\n      iszero\n      tag_116\n      jumpi\n      0x00\n      dup1\n      revert\n    tag_116:\n      pop\n      gas\n      call\n      iszero\n      dup1\n      iszero\n      tag_118\n      jumpi\n      returndatasize\n      0x00\n      dup1\n      returndatacopy\n      revert(0x00, returndatasize)\n    tag_118:\n      pop\n      pop\n      pop\n      pop\n        /* \"055EnglishAuction.sol\":5786:5792  seller */\n      immutable(\"0xd67d834462ca31eaef1f30157e31659f60355143b7441e6fc7d9eae1fa79f3f8\")\n        /* \"055EnglishAuction.sol\":5786:5801  seller.transfer */\n      0xffffffffffffffffffffffffffffffffffffffff\n      and\n        /* \"055EnglishAuction.sol\":5786:5813  seller.transfer(highestBid) */\n      0x08fc\n        /* \"055EnglishAuction.sol\":5802:5812  highestBid */\n      sload(0x01)\n        /* \"055EnglishAuction.sol\":5786:5813  seller.transfer(highestBid) */\n      swap1\n      dup2\n      iszero\n      mul\n      swap1\n      mload(0x40)\n      0x00\n      mload(0x40)\n      dup1\n      dup4\n      sub\n      dup2\n      dup6\n      dup9\n      dup9\n      call\n      swap4\n      pop\n      pop\n      pop\n      pop\n      iszero\n      dup1\n      iszero\n      tag_120\n      jumpi\n      returndatasize\n      0x00\n      dup1\n      returndatacopy\n      revert(0x00, returndatasize)\n    tag_120:\n      pop\n        /* \"055EnglishAuction.sol\":5519:6202  if (hightestBidder != address(0)){... */\n      jump(tag_121)\n    tag_113:\n        /* \"055EnglishAuction.sol\":6145:6148  nft */\n      immutable(\"0x77c32b454bb61eb9df9e3848d0ded3e59753acda90ae58befe564733aec82e4c\")\n        /* \"055EnglishAuction.sol\":6145:6161  nft.transferFrom */\n      0xffffffffffffffffffffffffffffffffffffffff\n      and\n      0x23b872dd\n        /* \"055EnglishAuction.sol\":6170:6174  this */\n      address\n        /* \"055EnglishAuction.sol\":6177:6183  seller */\n      immutable(\"0xd67d834462ca31eaef1f30157e31659f60355143b7441e6fc7d9eae1fa79f3f8\")\n        /* \"055EnglishAuction.sol\":6185:6190  nftId */\n      immutable(\"0x3b4066bd7b7960752225af105d3beafb5c47a26c5aae7e6798a437b7c0bb33e6\")\n        /* \"055EnglishAuction.sol\":6145:6191  nft.transferFrom(address(this), seller, nftId) */\n      mload(0x40)\n      dup5\n      0xffffffff\n      and\n      0xe0\n      shl\n      dup2\n      mstore\n      0x04\n      add\n      tag_122\n      swap4\n      swap3\n      swap2\n      swap1\n      tag_123\n      jump\t// in\n    tag_122:\n      0x00\n      mload(0x40)\n      dup1\n      dup4\n      sub\n      dup2\n      0x00\n      dup8\n      dup1\n      extcodesize\n      iszero\n      dup1\n      iszero\n      tag_124\n      jumpi\n      0x00\n      dup1\n      revert\n    tag_124:\n      pop\n      gas\n      call\n      iszero\n      dup1\n      iszero\n      tag_126\n      jumpi\n      returndatasize\n      0x00\n      dup1\n      returndatacopy\n      revert(0x00, returndatasize)\n    tag_126:\n      pop\n      pop\n      pop\n      pop\n        /* \"055EnglishAuction.sol\":5519:6202  if (hightestBidder != address(0)){... */\n    tag_121:\n        /* \"055EnglishAuction.sol\":6225:6256  End(hightestBidder, highestBid) */\n      0x7d7570b046e5ead3a4f3fbc9fa2445113625a1e79823776146316bafed6b8cc5\n        /* \"055EnglishAuction.sol\":6229:6243  hightestBidder */\n      0x00\n      0x06\n      swap1\n      sload\n      swap1\n      0x0100\n      exp\n      swap1\n      div\n      0xffffffffffffffffffffffffffffffffffffffff\n      and\n        /* \"055EnglishAuction.sol\":6245:6255  highestBid */\n      sload(0x01)\n        /* \"055EnglishAuction.sol\":6225:6256  End(hightestBidder, highestBid) */\n      mload(0x40)\n      tag_127\n      swap3\n      swap2\n      swap1\n      tag_128\n      jump\t// in\n    tag_127:\n      mload(0x40)\n      dup1\n      swap2\n      sub\n      swap1\n      log1\n        /* \"055EnglishAuction.sol\":5096:6263  function end() external {... */\n      jump\t// out\n        /* \"#utility.yul\":7:133   */\n    tag_129:\n        /* \"#utility.yul\":44:51   */\n      0x00\n        /* \"#utility.yul\":84:126   */\n      0xffffffffffffffffffffffffffffffffffffffff\n        /* \"#utility.yul\":77:82   */\n      dup3\n        /* \"#utility.yul\":73:127   */\n      and\n        /* \"#utility.yul\":62:127   */\n      swap1\n      pop\n        /* \"#utility.yul\":7:133   */\n      swap2\n      swap1\n      pop\n      jump\t// out\n        /* \"#utility.yul\":139:243   */\n    tag_130:\n        /* \"#utility.yul\":184:191   */\n      0x00\n        /* \"#utility.yul\":213:237   */\n      tag_173\n        /* \"#utility.yul\":231:236   */\n      dup3\n        /* \"#utility.yul\":213:237   */\n      tag_129\n      jump\t// in\n    tag_173:\n        /* \"#utility.yul\":202:237   */\n      swap1\n      pop\n        /* \"#utility.yul\":139:243   */\n      swap2\n      swap1\n      pop\n      jump\t// out\n        /* \"#utility.yul\":249:391   */\n    tag_131:\n        /* \"#utility.yul\":352:384   */\n      tag_175\n        /* \"#utility.yul\":378:383   */\n      dup2\n        /* \"#utility.yul\":352:384   */\n      tag_130\n      jump\t// in\n    tag_175:\n        /* \"#utility.yul\":347:350   */\n      dup3\n        /* \"#utility.yul\":340:385   */\n      mstore\n        /* \"#utility.yul\":249:391   */\n      pop\n      pop\n      jump\t// out\n        /* \"#utility.yul\":397:651   */\n    tag_21:\n        /* \"#utility.yul\":506:510   */\n      0x00\n        /* \"#utility.yul\":544:546   */\n      0x20\n        /* \"#utility.yul\":533:542   */\n      dup3\n        /* \"#utility.yul\":529:547   */\n      add\n        /* \"#utility.yul\":521:547   */\n      swap1\n      pop\n        /* \"#utility.yul\":557:644   */\n      tag_177\n        /* \"#utility.yul\":641:642   */\n      0x00\n        /* \"#utility.yul\":630:639   */\n      dup4\n        /* \"#utility.yul\":626:643   */\n      add\n        /* \"#utility.yul\":617:623   */\n      dup5\n        /* \"#utility.yul\":557:644   */\n      tag_131\n      jump\t// in\n    tag_177:\n        /* \"#utility.yul\":397:651   */\n      swap3\n      swap2\n      pop\n      pop\n      jump\t// out\n        /* \"#utility.yul\":657:747   */\n    tag_132:\n        /* \"#utility.yul\":691:698   */\n      0x00\n        /* \"#utility.yul\":734:739   */\n      dup2\n        /* \"#utility.yul\":727:740   */\n      iszero\n        /* \"#utility.yul\":720:741   */\n      iszero\n        /* \"#utility.yul\":709:741   */\n      swap1\n      pop\n        /* \"#utility.yul\":657:747   */\n      swap2\n      swap1\n      pop\n      jump\t// out\n        /* \"#utility.yul\":753:862   */\n    tag_133:\n        /* \"#utility.yul\":834:855   */\n      tag_180\n        /* \"#utility.yul\":849:854   */\n      dup2\n        /* \"#utility.yul\":834:855   */\n      tag_132\n      jump\t// in\n    tag_180:\n        /* \"#utility.yul\":829:832   */\n      dup3\n        /* \"#utility.yul\":822:856   */\n      mstore\n        /* \"#utility.yul\":753:862   */\n      pop\n      pop\n      jump\t// out\n        /* \"#utility.yul\":868:1078   */\n    tag_26:\n        /* \"#utility.yul\":955:959   */\n      0x00\n        /* \"#utility.yul\":993:995   */\n      0x20\n        /* \"#utility.yul\":982:991   */\n      dup3\n        /* \"#utility.yul\":978:996   */\n      add\n        /* \"#utility.yul\":970:996   */\n      swap1\n      pop\n        /* \"#utility.yul\":1006:1071   */\n      tag_182\n        /* \"#utility.yul\":1068:1069   */\n      0x00\n        /* \"#utility.yul\":1057:1066   */\n      dup4\n        /* \"#utility.yul\":1053:1070   */\n      add\n        /* \"#utility.yul\":1044:1050   */\n      dup5\n        /* \"#utility.yul\":1006:1071   */\n      tag_133\n      jump\t// in\n    tag_182:\n        /* \"#utility.yul\":868:1078   */\n      swap3\n      swap2\n      pop\n      pop\n      jump\t// out\n        /* \"#utility.yul\":1084:1144   */\n    tag_134:\n        /* \"#utility.yul\":1112:1115   */\n      0x00\n        /* \"#utility.yul\":1133:1138   */\n      dup2\n        /* \"#utility.yul\":1126:1138   */\n      swap1\n      pop\n        /* \"#utility.yul\":1084:1144   */\n      swap2\n      swap1\n      pop\n      jump\t// out\n        /* \"#utility.yul\":1150:1292   */\n    tag_135:\n        /* \"#utility.yul\":1200:1209   */\n      0x00\n        /* \"#utility.yul\":1233:1286   */\n      tag_185\n        /* \"#utility.yul\":1251:1285   */\n      tag_186\n        /* \"#utility.yul\":1260:1284   */\n      tag_187\n        /* \"#utility.yul\":1278:1283   */\n      dup5\n        /* \"#utility.yul\":1260:1284   */\n      tag_129\n      jump\t// in\n    tag_187:\n        /* \"#utility.yul\":1251:1285   */\n      tag_134\n      jump\t// in\n    tag_186:\n        /* \"#utility.yul\":1233:1286   */\n      tag_129\n      jump\t// in\n    tag_185:\n        /* \"#utility.yul\":1220:1286   */\n      swap1\n      pop\n        /* \"#utility.yul\":1150:1292   */\n      swap2\n      swap1\n      pop\n      jump\t// out\n        /* \"#utility.yul\":1298:1424   */\n    tag_136:\n        /* \"#utility.yul\":1348:1357   */\n      0x00\n        /* \"#utility.yul\":1381:1418   */\n      tag_189\n        /* \"#utility.yul\":1412:1417   */\n      dup3\n        /* \"#utility.yul\":1381:1418   */\n      tag_135\n      jump\t// in\n    tag_189:\n        /* \"#utility.yul\":1368:1418   */\n      swap1\n      pop\n        /* \"#utility.yul\":1298:1424   */\n      swap2\n      swap1\n      pop\n      jump\t// out\n        /* \"#utility.yul\":1430:1570   */\n    tag_137:\n        /* \"#utility.yul\":1494:1503   */\n      0x00\n        /* \"#utility.yul\":1527:1564   */\n      tag_191\n        /* \"#utility.yul\":1558:1563   */\n      dup3\n        /* \"#utility.yul\":1527:1564   */\n      tag_136\n      jump\t// in\n    tag_191:\n        /* \"#utility.yul\":1514:1564   */\n      swap1\n      pop\n        /* \"#utility.yul\":1430:1570   */\n      swap2\n      swap1\n      pop\n      jump\t// out\n        /* \"#utility.yul\":1576:1735   */\n    tag_138:\n        /* \"#utility.yul\":1677:1728   */\n      tag_193\n        /* \"#utility.yul\":1722:1727   */\n      dup2\n        /* \"#utility.yul\":1677:1728   */\n      tag_137\n      jump\t// in\n    tag_193:\n        /* \"#utility.yul\":1672:1675   */\n      dup3\n        /* \"#utility.yul\":1665:1729   */\n      mstore\n        /* \"#utility.yul\":1576:1735   */\n      pop\n      pop\n      jump\t// out\n        /* \"#utility.yul\":1741:1991   */\n    tag_40:\n        /* \"#utility.yul\":1848:1852   */\n      0x00\n        /* \"#utility.yul\":1886:1888   */\n      0x20\n        /* \"#utility.yul\":1875:1884   */\n      dup3\n        /* \"#utility.yul\":1871:1889   */\n      add\n        /* \"#utility.yul\":1863:1889   */\n      swap1\n      pop\n        /* \"#utility.yul\":1899:1984   */\n      tag_195\n        /* \"#utility.yul\":1981:1982   */\n      0x00\n        /* \"#utility.yul\":1970:1979   */\n      dup4\n        /* \"#utility.yul\":1966:1983   */\n      add\n        /* \"#utility.yul\":1957:1963   */\n      dup5\n        /* \"#utility.yul\":1899:1984   */\n      tag_138\n      jump\t// in\n    tag_195:\n        /* \"#utility.yul\":1741:1991   */\n      swap3\n      swap2\n      pop\n      pop\n      jump\t// out\n        /* \"#utility.yul\":2078:2195   */\n    tag_140:\n        /* \"#utility.yul\":2187:2188   */\n      0x00\n        /* \"#utility.yul\":2184:2185   */\n      dup1\n        /* \"#utility.yul\":2177:2189   */\n      revert\n        /* \"#utility.yul\":2324:2420   */\n    tag_142:\n        /* \"#utility.yul\":2361:2368   */\n      0x00\n        /* \"#utility.yul\":2390:2414   */\n      tag_200\n        /* \"#utility.yul\":2408:2413   */\n      dup3\n        /* \"#utility.yul\":2390:2414   */\n      tag_129\n      jump\t// in\n    tag_200:\n        /* \"#utility.yul\":2379:2414   */\n      swap1\n      pop\n        /* \"#utility.yul\":2324:2420   */\n      swap2\n      swap1\n      pop\n      jump\t// out\n        /* \"#utility.yul\":2426:2548   */\n    tag_143:\n        /* \"#utility.yul\":2499:2523   */\n      tag_202\n        /* \"#utility.yul\":2517:2522   */\n      dup2\n        /* \"#utility.yul\":2499:2523   */\n      tag_142\n      jump\t// in\n    tag_202:\n        /* \"#utility.yul\":2492:2497   */\n      dup2\n        /* \"#utility.yul\":2489:2524   */\n      eq\n        /* \"#utility.yul\":2479:2542   */\n      tag_203\n      jumpi\n        /* \"#utility.yul\":2538:2539   */\n      0x00\n        /* \"#utility.yul\":2535:2536   */\n      dup1\n        /* \"#utility.yul\":2528:2540   */\n      revert\n        /* \"#utility.yul\":2479:2542   */\n    tag_203:\n        /* \"#utility.yul\":2426:2548   */\n      pop\n      jump\t// out\n        /* \"#utility.yul\":2554:2693   */\n    tag_144:\n        /* \"#utility.yul\":2600:2605   */\n      0x00\n        /* \"#utility.yul\":2638:2644   */\n      dup2\n        /* \"#utility.yul\":2625:2645   */\n      calldataload\n        /* \"#utility.yul\":2616:2645   */\n      swap1\n      pop\n        /* \"#utility.yul\":2654:2687   */\n      tag_205\n        /* \"#utility.yul\":2681:2686   */\n      dup2\n        /* \"#utility.yul\":2654:2687   */\n      tag_143\n      jump\t// in\n    tag_205:\n        /* \"#utility.yul\":2554:2693   */\n      swap3\n      swap2\n      pop\n      pop\n      jump\t// out\n        /* \"#utility.yul\":2699:3028   */\n    tag_44:\n        /* \"#utility.yul\":2758:2764   */\n      0x00\n        /* \"#utility.yul\":2807:2809   */\n      0x20\n        /* \"#utility.yul\":2795:2804   */\n      dup3\n        /* \"#utility.yul\":2786:2793   */\n      dup5\n        /* \"#utility.yul\":2782:2805   */\n      sub\n        /* \"#utility.yul\":2778:2810   */\n      slt\n        /* \"#utility.yul\":2775:2894   */\n      iszero\n      tag_207\n      jumpi\n        /* \"#utility.yul\":2813:2892   */\n      tag_208\n      tag_140\n      jump\t// in\n    tag_208:\n        /* \"#utility.yul\":2775:2894   */\n    tag_207:\n        /* \"#utility.yul\":2933:2934   */\n      0x00\n        /* \"#utility.yul\":2958:3011   */\n      tag_209\n        /* \"#utility.yul\":3003:3010   */\n      dup5\n        /* \"#utility.yul\":2994:3000   */\n      dup3\n        /* \"#utility.yul\":2983:2992   */\n      dup6\n        /* \"#utility.yul\":2979:3001   */\n      add\n        /* \"#utility.yul\":2958:3011   */\n      tag_144\n      jump\t// in\n    tag_209:\n        /* \"#utility.yul\":2948:3011   */\n      swap2\n      pop\n        /* \"#utility.yul\":2904:3021   */\n      pop\n        /* \"#utility.yul\":2699:3028   */\n      swap3\n      swap2\n      pop\n      pop\n      jump\t// out\n        /* \"#utility.yul\":3034:3111   */\n    tag_145:\n        /* \"#utility.yul\":3071:3078   */\n      0x00\n        /* \"#utility.yul\":3100:3105   */\n      dup2\n        /* \"#utility.yul\":3089:3105   */\n      swap1\n      pop\n        /* \"#utility.yul\":3034:3111   */\n      swap2\n      swap1\n      pop\n      jump\t// out\n        /* \"#utility.yul\":3117:3235   */\n    tag_146:\n        /* \"#utility.yul\":3204:3228   */\n      tag_212\n        /* \"#utility.yul\":3222:3227   */\n      dup2\n        /* \"#utility.yul\":3204:3228   */\n      tag_145\n      jump\t// in\n    tag_212:\n        /* \"#utility.yul\":3199:3202   */\n      dup3\n        /* \"#utility.yul\":3192:3229   */\n      mstore\n        /* \"#utility.yul\":3117:3235   */\n      pop\n      pop\n      jump\t// out\n        /* \"#utility.yul\":3241:3463   */\n    tag_47:\n        /* \"#utility.yul\":3334:3338   */\n      0x00\n        /* \"#utility.yul\":3372:3374   */\n      0x20\n        /* \"#utility.yul\":3361:3370   */\n      dup3\n        /* \"#utility.yul\":3357:3375   */\n      add\n        /* \"#utility.yul\":3349:3375   */\n      swap1\n      pop\n        /* \"#utility.yul\":3385:3456   */\n      tag_214\n        /* \"#utility.yul\":3453:3454   */\n      0x00\n        /* \"#utility.yul\":3442:3451   */\n      dup4\n        /* \"#utility.yul\":3438:3455   */\n      add\n        /* \"#utility.yul\":3429:3435   */\n      dup5\n        /* \"#utility.yul\":3385:3456   */\n      tag_146\n      jump\t// in\n    tag_214:\n        /* \"#utility.yul\":3241:3463   */\n      swap3\n      swap2\n      pop\n      pop\n      jump\t// out\n        /* \"#utility.yul\":3469:3562   */\n    tag_147:\n        /* \"#utility.yul\":3505:3512   */\n      0x00\n        /* \"#utility.yul\":3545:3555   */\n      0xffffffff\n        /* \"#utility.yul\":3538:3543   */\n      dup3\n        /* \"#utility.yul\":3534:3556   */\n      and\n        /* \"#utility.yul\":3523:3556   */\n      swap1\n      pop\n        /* \"#utility.yul\":3469:3562   */\n      swap2\n      swap1\n      pop\n      jump\t// out\n        /* \"#utility.yul\":3568:3683   */\n    tag_148:\n        /* \"#utility.yul\":3653:3676   */\n      tag_217\n        /* \"#utility.yul\":3670:3675   */\n      dup2\n        /* \"#utility.yul\":3653:3676   */\n      tag_147\n      jump\t// in\n    tag_217:\n        /* \"#utility.yul\":3648:3651   */\n      dup3\n        /* \"#utility.yul\":3641:3677   */\n      mstore\n        /* \"#utility.yul\":3568:3683   */\n      pop\n      pop\n      jump\t// out\n        /* \"#utility.yul\":3689:3907   */\n    tag_52:\n        /* \"#utility.yul\":3780:3784   */\n      0x00\n        /* \"#utility.yul\":3818:3820   */\n      0x20\n        /* \"#utility.yul\":3807:3816   */\n      dup3\n        /* \"#utility.yul\":3803:3821   */\n      add\n        /* \"#utility.yul\":3795:3821   */\n      swap1\n      pop\n        /* \"#utility.yul\":3831:3900   */\n      tag_219\n        /* \"#utility.yul\":3897:3898   */\n      0x00\n        /* \"#utility.yul\":3886:3895   */\n      dup4\n        /* \"#utility.yul\":3882:3899   */\n      add\n        /* \"#utility.yul\":3873:3879   */\n      dup5\n        /* \"#utility.yul\":3831:3900   */\n      tag_148\n      jump\t// in\n    tag_219:\n        /* \"#utility.yul\":3689:3907   */\n      swap3\n      swap2\n      pop\n      pop\n      jump\t// out\n        /* \"#utility.yul\":3913:4031   */\n    tag_149:\n        /* \"#utility.yul\":4000:4024   */\n      tag_221\n        /* \"#utility.yul\":4018:4023   */\n      dup2\n        /* \"#utility.yul\":4000:4024   */\n      tag_142\n      jump\t// in\n    tag_221:\n        /* \"#utility.yul\":3995:3998   */\n      dup3\n        /* \"#utility.yul\":3988:4025   */\n      mstore\n        /* \"#utility.yul\":3913:4031   */\n      pop\n      pop\n      jump\t// out\n        /* \"#utility.yul\":4037:4259   */\n    tag_64:\n        /* \"#utility.yul\":4130:4134   */\n      0x00\n        /* \"#utility.yul\":4168:4170   */\n      0x20\n        /* \"#utility.yul\":4157:4166   */\n      dup3\n        /* \"#utility.yul\":4153:4171   */\n      add\n        /* \"#utility.yul\":4145:4171   */\n      swap1\n      pop\n        /* \"#utility.yul\":4181:4252   */\n      tag_223\n        /* \"#utility.yul\":4249:4250   */\n      0x00\n        /* \"#utility.yul\":4238:4247   */\n      dup4\n        /* \"#utility.yul\":4234:4251   */\n      add\n        /* \"#utility.yul\":4225:4231   */\n      dup5\n        /* \"#utility.yul\":4181:4252   */\n      tag_149\n      jump\t// in\n    tag_223:\n        /* \"#utility.yul\":4037:4259   */\n      swap3\n      swap2\n      pop\n      pop\n      jump\t// out\n        /* \"#utility.yul\":4265:4434   */\n    tag_150:\n        /* \"#utility.yul\":4349:4360   */\n      0x00\n        /* \"#utility.yul\":4383:4389   */\n      dup3\n        /* \"#utility.yul\":4378:4381   */\n      dup3\n        /* \"#utility.yul\":4371:4390   */\n      mstore\n        /* \"#utility.yul\":4423:4427   */\n      0x20\n        /* \"#utility.yul\":4418:4421   */\n      dup3\n        /* \"#utility.yul\":4414:4428   */\n      add\n        /* \"#utility.yul\":4399:4428   */\n      swap1\n      pop\n        /* \"#utility.yul\":4265:4434   */\n      swap3\n      swap2\n      pop\n      pop\n      jump\t// out\n        /* \"#utility.yul\":4440:4600   */\n    tag_151:\n        /* \"#utility.yul\":4580:4592   */\n      0x6e6f742073746172742100000000000000000000000000000000000000000000\n        /* \"#utility.yul\":4576:4577   */\n      0x00\n        /* \"#utility.yul\":4568:4574   */\n      dup3\n        /* \"#utility.yul\":4564:4578   */\n      add\n        /* \"#utility.yul\":4557:4593   */\n      mstore\n        /* \"#utility.yul\":4440:4600   */\n      pop\n      jump\t// out\n        /* \"#utility.yul\":4606:4972   */\n    tag_152:\n        /* \"#utility.yul\":4748:4751   */\n      0x00\n        /* \"#utility.yul\":4769:4836   */\n      tag_227\n        /* \"#utility.yul\":4833:4835   */\n      0x0a\n        /* \"#utility.yul\":4828:4831   */\n      dup4\n        /* \"#utility.yul\":4769:4836   */\n      tag_150\n      jump\t// in\n    tag_227:\n        /* \"#utility.yul\":4762:4836   */\n      swap2\n      pop\n        /* \"#utility.yul\":4845:4938   */\n      tag_228\n        /* \"#utility.yul\":4934:4937   */\n      dup3\n        /* \"#utility.yul\":4845:4938   */\n      tag_151\n      jump\t// in\n    tag_228:\n        /* \"#utility.yul\":4963:4965   */\n      0x20\n        /* \"#utility.yul\":4958:4961   */\n      dup3\n        /* \"#utility.yul\":4954:4966   */\n      add\n        /* \"#utility.yul\":4947:4966   */\n      swap1\n      pop\n        /* \"#utility.yul\":4606:4972   */\n      swap2\n      swap1\n      pop\n      jump\t// out\n        /* \"#utility.yul\":4978:5397   */\n    tag_75:\n        /* \"#utility.yul\":5144:5148   */\n      0x00\n        /* \"#utility.yul\":5182:5184   */\n      0x20\n        /* \"#utility.yul\":5171:5180   */\n      dup3\n        /* \"#utility.yul\":5167:5185   */\n      add\n        /* \"#utility.yul\":5159:5185   */\n      swap1\n      pop\n        /* \"#utility.yul\":5231:5240   */\n      dup2\n        /* \"#utility.yul\":5225:5229   */\n      dup2\n        /* \"#utility.yul\":5221:5241   */\n      sub\n        /* \"#utility.yul\":5217:5218   */\n      0x00\n        /* \"#utility.yul\":5206:5215   */\n      dup4\n        /* \"#utility.yul\":5202:5219   */\n      add\n        /* \"#utility.yul\":5195:5242   */\n      mstore\n        /* \"#utility.yul\":5259:5390   */\n      tag_230\n        /* \"#utility.yul\":5385:5389   */\n      dup2\n        /* \"#utility.yul\":5259:5390   */\n      tag_152\n      jump\t// in\n    tag_230:\n        /* \"#utility.yul\":5251:5390   */\n      swap1\n      pop\n        /* \"#utility.yul\":4978:5397   */\n      swap2\n      swap1\n      pop\n      jump\t// out\n        /* \"#utility.yul\":5403:5566   */\n    tag_153:\n        /* \"#utility.yul\":5543:5558   */\n      0x62696420697320656e6465642100000000000000000000000000000000000000\n        /* \"#utility.yul\":5539:5540   */\n      0x00\n        /* \"#utility.yul\":5531:5537   */\n      dup3\n        /* \"#utility.yul\":5527:5541   */\n      add\n        /* \"#utility.yul\":5520:5559   */\n      mstore\n        /* \"#utility.yul\":5403:5566   */\n      pop\n      jump\t// out\n        /* \"#utility.yul\":5572:5938   */\n    tag_154:\n        /* \"#utility.yul\":5714:5717   */\n      0x00\n        /* \"#utility.yul\":5735:5802   */\n      tag_233\n        /* \"#utility.yul\":5799:5801   */\n      0x0d\n        /* \"#utility.yul\":5794:5797   */\n      dup4\n        /* \"#utility.yul\":5735:5802   */\n      tag_150\n      jump\t// in\n    tag_233:\n        /* \"#utility.yul\":5728:5802   */\n      swap2\n      pop\n        /* \"#utility.yul\":5811:5904   */\n      tag_234\n        /* \"#utility.yul\":5900:5903   */\n      dup3\n        /* \"#utility.yul\":5811:5904   */\n      tag_153\n      jump\t// in\n    tag_234:\n        /* \"#utility.yul\":5929:5931   */\n      0x20\n        /* \"#utility.yul\":5924:5927   */\n      dup3\n        /* \"#utility.yul\":5920:5932   */\n      add\n        /* \"#utility.yul\":5913:5932   */\n      swap1\n      pop\n        /* \"#utility.yul\":5572:5938   */\n      swap2\n      swap1\n      pop\n      jump\t// out\n        /* \"#utility.yul\":5944:6363   */\n    tag_78:\n        /* \"#utility.yul\":6110:6114   */\n      0x00\n        /* \"#utility.yul\":6148:6150   */\n      0x20\n        /* \"#utility.yul\":6137:6146   */\n      dup3\n        /* \"#utility.yul\":6133:6151   */\n      add\n        /* \"#utility.yul\":6125:6151   */\n      swap1\n      pop\n        /* \"#utility.yul\":6197:6206   */\n      dup2\n        /* \"#utility.yul\":6191:6195   */\n      dup2\n        /* \"#utility.yul\":6187:6207   */\n      sub\n        /* \"#utility.yul\":6183:6184   */\n      0x00\n        /* \"#utility.yul\":6172:6181   */\n      dup4\n        /* \"#utility.yul\":6168:6185   */\n      add\n        /* \"#utility.yul\":6161:6208   */\n      mstore\n        /* \"#utility.yul\":6225:6356   */\n      tag_236\n        /* \"#utility.yul\":6351:6355   */\n      dup2\n        /* \"#utility.yul\":6225:6356   */\n      tag_154\n      jump\t// in\n    tag_236:\n        /* \"#utility.yul\":6217:6356   */\n      swap1\n      pop\n        /* \"#utility.yul\":5944:6363   */\n      swap2\n      swap1\n      pop\n      jump\t// out\n        /* \"#utility.yul\":6369:6537   */\n    tag_155:\n        /* \"#utility.yul\":6509:6529   */\n      0x76616c7565203c20686967686573744269640000000000000000000000000000\n        /* \"#utility.yul\":6505:6506   */\n      0x00\n        /* \"#utility.yul\":6497:6503   */\n      dup3\n        /* \"#utility.yul\":6493:6507   */\n      add\n        /* \"#utility.yul\":6486:6530   */\n      mstore\n        /* \"#utility.yul\":6369:6537   */\n      pop\n      jump\t// out\n        /* \"#utility.yul\":6543:6909   */\n    tag_156:\n        /* \"#utility.yul\":6685:6688   */\n      0x00\n        /* \"#utility.yul\":6706:6773   */\n      tag_239\n        /* \"#utility.yul\":6770:6772   */\n      0x12\n        /* \"#utility.yul\":6765:6768   */\n      dup4\n        /* \"#utility.yul\":6706:6773   */\n      tag_150\n      jump\t// in\n    tag_239:\n        /* \"#utility.yul\":6699:6773   */\n      swap2\n      pop\n        /* \"#utility.yul\":6782:6875   */\n      tag_240\n        /* \"#utility.yul\":6871:6874   */\n      dup3\n        /* \"#utility.yul\":6782:6875   */\n      tag_155\n      jump\t// in\n    tag_240:\n        /* \"#utility.yul\":6900:6902   */\n      0x20\n        /* \"#utility.yul\":6895:6898   */\n      dup3\n        /* \"#utility.yul\":6891:6903   */\n      add\n        /* \"#utility.yul\":6884:6903   */\n      swap1\n      pop\n        /* \"#utility.yul\":6543:6909   */\n      swap2\n      swap1\n      pop\n      jump\t// out\n        /* \"#utility.yul\":6915:7334   */\n    tag_81:\n        /* \"#utility.yul\":7081:7085   */\n      0x00\n        /* \"#utility.yul\":7119:7121   */\n      0x20\n        /* \"#utility.yul\":7108:7117   */\n      dup3\n        /* \"#utility.yul\":7104:7122   */\n      add\n        /* \"#utility.yul\":7096:7122   */\n      swap1\n      pop\n        /* \"#utility.yul\":7168:7177   */\n      dup2\n        /* \"#utility.yul\":7162:7166   */\n      dup2\n        /* \"#utility.yul\":7158:7178   */\n      sub\n        /* \"#utility.yul\":7154:7155   */\n      0x00\n        /* \"#utility.yul\":7143:7152   */\n      dup4\n        /* \"#utility.yul\":7139:7156   */\n      add\n        /* \"#utility.yul\":7132:7179   */\n      mstore\n        /* \"#utility.yul\":7196:7327   */\n      tag_242\n        /* \"#utility.yul\":7322:7326   */\n      dup2\n        /* \"#utility.yul\":7196:7327   */\n      tag_156\n      jump\t// in\n    tag_242:\n        /* \"#utility.yul\":7188:7327   */\n      swap1\n      pop\n        /* \"#utility.yul\":6915:7334   */\n      swap2\n      swap1\n      pop\n      jump\t// out\n        /* \"#utility.yul\":7340:7520   */\n    tag_157:\n        /* \"#utility.yul\":7388:7465   */\n      0x4e487b7100000000000000000000000000000000000000000000000000000000\n        /* \"#utility.yul\":7385:7386   */\n      0x00\n        /* \"#utility.yul\":7378:7466   */\n      mstore\n        /* \"#utility.yul\":7485:7489   */\n      0x11\n        /* \"#utility.yul\":7482:7483   */\n      0x04\n        /* \"#utility.yul\":7475:7490   */\n      mstore\n        /* \"#utility.yul\":7509:7513   */\n      0x24\n        /* \"#utility.yul\":7506:7507   */\n      0x00\n        /* \"#utility.yul\":7499:7514   */\n      revert\n        /* \"#utility.yul\":7526:7717   */\n    tag_84:\n        /* \"#utility.yul\":7566:7569   */\n      0x00\n        /* \"#utility.yul\":7585:7605   */\n      tag_245\n        /* \"#utility.yul\":7603:7604   */\n      dup3\n        /* \"#utility.yul\":7585:7605   */\n      tag_145\n      jump\t// in\n    tag_245:\n        /* \"#utility.yul\":7580:7605   */\n      swap2\n      pop\n        /* \"#utility.yul\":7619:7639   */\n      tag_246\n        /* \"#utility.yul\":7637:7638   */\n      dup4\n        /* \"#utility.yul\":7619:7639   */\n      tag_145\n      jump\t// in\n    tag_246:\n        /* \"#utility.yul\":7614:7639   */\n      swap3\n      pop\n        /* \"#utility.yul\":7662:7663   */\n      dup3\n        /* \"#utility.yul\":7659:7660   */\n      dup3\n        /* \"#utility.yul\":7655:7664   */\n      add\n        /* \"#utility.yul\":7648:7664   */\n      swap1\n      pop\n        /* \"#utility.yul\":7683:7686   */\n      dup1\n        /* \"#utility.yul\":7680:7681   */\n      dup3\n        /* \"#utility.yul\":7677:7687   */\n      gt\n        /* \"#utility.yul\":7674:7710   */\n      iszero\n      tag_247\n      jumpi\n        /* \"#utility.yul\":7690:7708   */\n      tag_248\n      tag_157\n      jump\t// in\n    tag_248:\n        /* \"#utility.yul\":7674:7710   */\n    tag_247:\n        /* \"#utility.yul\":7526:7717   */\n      swap3\n      swap2\n      pop\n      pop\n      jump\t// out\n        /* \"#utility.yul\":7723:7883   */\n    tag_158:\n        /* \"#utility.yul\":7863:7875   */\n      0x6e6f742073656c6c657200000000000000000000000000000000000000000000\n        /* \"#utility.yul\":7859:7860   */\n      0x00\n        /* \"#utility.yul\":7851:7857   */\n      dup3\n        /* \"#utility.yul\":7847:7861   */\n      add\n        /* \"#utility.yul\":7840:7876   */\n      mstore\n        /* \"#utility.yul\":7723:7883   */\n      pop\n      jump\t// out\n        /* \"#utility.yul\":7889:8255   */\n    tag_159:\n        /* \"#utility.yul\":8031:8034   */\n      0x00\n        /* \"#utility.yul\":8052:8119   */\n      tag_251\n        /* \"#utility.yul\":8116:8118   */\n      0x0a\n        /* \"#utility.yul\":8111:8114   */\n      dup4\n        /* \"#utility.yul\":8052:8119   */\n      tag_150\n      jump\t// in\n    tag_251:\n        /* \"#utility.yul\":8045:8119   */\n      swap2\n      pop\n        /* \"#utility.yul\":8128:8221   */\n      tag_252\n        /* \"#utility.yul\":8217:8220   */\n      dup3\n        /* \"#utility.yul\":8128:8221   */\n      tag_158\n      jump\t// in\n    tag_252:\n        /* \"#utility.yul\":8246:8248   */\n      0x20\n        /* \"#utility.yul\":8241:8244   */\n      dup3\n        /* \"#utility.yul\":8237:8249   */\n      add\n        /* \"#utility.yul\":8230:8249   */\n      swap1\n      pop\n        /* \"#utility.yul\":7889:8255   */\n      swap2\n      swap1\n      pop\n      jump\t// out\n        /* \"#utility.yul\":8261:8680   */\n    tag_93:\n        /* \"#utility.yul\":8427:8431   */\n      0x00\n        /* \"#utility.yul\":8465:8467   */\n      0x20\n        /* \"#utility.yul\":8454:8463   */\n      dup3\n        /* \"#utility.yul\":8450:8468   */\n      add\n        /* \"#utility.yul\":8442:8468   */\n      swap1\n      pop\n        /* \"#utility.yul\":8514:8523   */\n      dup2\n        /* \"#utility.yul\":8508:8512   */\n      dup2\n        /* \"#utility.yul\":8504:8524   */\n      sub\n        /* \"#utility.yul\":8500:8501   */\n      0x00\n        /* \"#utility.yul\":8489:8498   */\n      dup4\n        /* \"#utility.yul\":8485:8502   */\n      add\n        /* \"#utility.yul\":8478:8525   */\n      mstore\n        /* \"#utility.yul\":8542:8673   */\n      tag_254\n        /* \"#utility.yul\":8668:8672   */\n      dup2\n        /* \"#utility.yul\":8542:8673   */\n      tag_159\n      jump\t// in\n    tag_254:\n        /* \"#utility.yul\":8534:8673   */\n      swap1\n      pop\n        /* \"#utility.yul\":8261:8680   */\n      swap2\n      swap1\n      pop\n      jump\t// out\n        /* \"#utility.yul\":8686:8848   */\n    tag_160:\n        /* \"#utility.yul\":8826:8840   */\n      0x6861732073746172746564210000000000000000000000000000000000000000\n        /* \"#utility.yul\":8822:8823   */\n      0x00\n        /* \"#utility.yul\":8814:8820   */\n      dup3\n        /* \"#utility.yul\":8810:8824   */\n      add\n        /* \"#utility.yul\":8803:8841   */\n      mstore\n        /* \"#utility.yul\":8686:8848   */\n      pop\n      jump\t// out\n        /* \"#utility.yul\":8854:9220   */\n    tag_161:\n        /* \"#utility.yul\":8996:8999   */\n      0x00\n        /* \"#utility.yul\":9017:9084   */\n      tag_257\n        /* \"#utility.yul\":9081:9083   */\n      0x0c\n        /* \"#utility.yul\":9076:9079   */\n      dup4\n        /* \"#utility.yul\":9017:9084   */\n      tag_150\n      jump\t// in\n    tag_257:\n        /* \"#utility.yul\":9010:9084   */\n      swap2\n      pop\n        /* \"#utility.yul\":9093:9186   */\n      tag_258\n        /* \"#utility.yul\":9182:9185   */\n      dup3\n        /* \"#utility.yul\":9093:9186   */\n      tag_160\n      jump\t// in\n    tag_258:\n        /* \"#utility.yul\":9211:9213   */\n      0x20\n        /* \"#utility.yul\":9206:9209   */\n      dup3\n        /* \"#utility.yul\":9202:9214   */\n      add\n        /* \"#utility.yul\":9195:9214   */\n      swap1\n      pop\n        /* \"#utility.yul\":8854:9220   */\n      swap2\n      swap1\n      pop\n      jump\t// out\n        /* \"#utility.yul\":9226:9645   */\n    tag_96:\n        /* \"#utility.yul\":9392:9396   */\n      0x00\n        /* \"#utility.yul\":9430:9432   */\n      0x20\n        /* \"#utility.yul\":9419:9428   */\n      dup3\n        /* \"#utility.yul\":9415:9433   */\n      add\n        /* \"#utility.yul\":9407:9433   */\n      swap1\n      pop\n        /* \"#utility.yul\":9479:9488   */\n      dup2\n        /* \"#utility.yul\":9473:9477   */\n      dup2\n        /* \"#utility.yul\":9469:9489   */\n      sub\n        /* \"#utility.yul\":9465:9466   */\n      0x00\n        /* \"#utility.yul\":9454:9463   */\n      dup4\n        /* \"#utility.yul\":9450:9467   */\n      add\n        /* \"#utility.yul\":9443:9490   */\n      mstore\n        /* \"#utility.yul\":9507:9638   */\n      tag_260\n        /* \"#utility.yul\":9633:9637   */\n      dup2\n        /* \"#utility.yul\":9507:9638   */\n      tag_161\n      jump\t// in\n    tag_260:\n        /* \"#utility.yul\":9499:9638   */\n      swap1\n      pop\n        /* \"#utility.yul\":9226:9645   */\n      swap2\n      swap1\n      pop\n      jump\t// out\n        /* \"#utility.yul\":9651:9785   */\n    tag_162:\n        /* \"#utility.yul\":9709:9718   */\n      0x00\n        /* \"#utility.yul\":9742:9779   */\n      tag_262\n        /* \"#utility.yul\":9773:9778   */\n      dup3\n        /* \"#utility.yul\":9742:9779   */\n      tag_136\n      jump\t// in\n    tag_262:\n        /* \"#utility.yul\":9729:9779   */\n      swap1\n      pop\n        /* \"#utility.yul\":9651:9785   */\n      swap2\n      swap1\n      pop\n      jump\t// out\n        /* \"#utility.yul\":9791:9938   */\n    tag_163:\n        /* \"#utility.yul\":9886:9931   */\n      tag_264\n        /* \"#utility.yul\":9925:9930   */\n      dup2\n        /* \"#utility.yul\":9886:9931   */\n      tag_162\n      jump\t// in\n    tag_264:\n        /* \"#utility.yul\":9881:9884   */\n      dup3\n        /* \"#utility.yul\":9874:9932   */\n      mstore\n        /* \"#utility.yul\":9791:9938   */\n      pop\n      pop\n      jump\t// out\n        /* \"#utility.yul\":9944:10402   */\n    tag_99:\n        /* \"#utility.yul\":10101:10105   */\n      0x00\n        /* \"#utility.yul\":10139:10141   */\n      0x60\n        /* \"#utility.yul\":10128:10137   */\n      dup3\n        /* \"#utility.yul\":10124:10142   */\n      add\n        /* \"#utility.yul\":10116:10142   */\n      swap1\n      pop\n        /* \"#utility.yul\":10152:10231   */\n      tag_266\n        /* \"#utility.yul\":10228:10229   */\n      0x00\n        /* \"#utility.yul\":10217:10226   */\n      dup4\n        /* \"#utility.yul\":10213:10230   */\n      add\n        /* \"#utility.yul\":10204:10210   */\n      dup7\n        /* \"#utility.yul\":10152:10231   */\n      tag_163\n      jump\t// in\n    tag_266:\n        /* \"#utility.yul\":10241:10313   */\n      tag_267\n        /* \"#utility.yul\":10309:10311   */\n      0x20\n        /* \"#utility.yul\":10298:10307   */\n      dup4\n        /* \"#utility.yul\":10294:10312   */\n      add\n        /* \"#utility.yul\":10285:10291   */\n      dup6\n        /* \"#utility.yul\":10241:10313   */\n      tag_149\n      jump\t// in\n    tag_267:\n        /* \"#utility.yul\":10323:10395   */\n      tag_268\n        /* \"#utility.yul\":10391:10393   */\n      0x40\n        /* \"#utility.yul\":10380:10389   */\n      dup4\n        /* \"#utility.yul\":10376:10394   */\n      add\n        /* \"#utility.yul\":10367:10373   */\n      dup5\n        /* \"#utility.yul\":10323:10395   */\n      tag_146\n      jump\t// in\n    tag_268:\n        /* \"#utility.yul\":9944:10402   */\n      swap5\n      swap4\n      pop\n      pop\n      pop\n      pop\n      jump\t// out\n        /* \"#utility.yul\":10408:10567   */\n    tag_164:\n        /* \"#utility.yul\":10548:10559   */\n      0x6e6f742073746172740000000000000000000000000000000000000000000000\n        /* \"#utility.yul\":10544:10545   */\n      0x00\n        /* \"#utility.yul\":10536:10542   */\n      dup3\n        /* \"#utility.yul\":10532:10546   */\n      add\n        /* \"#utility.yul\":10525:10560   */\n      mstore\n        /* \"#utility.yul\":10408:10567   */\n      pop\n      jump\t// out\n        /* \"#utility.yul\":10573:10938   */\n    tag_165:\n        /* \"#utility.yul\":10715:10718   */\n      0x00\n        /* \"#utility.yul\":10736:10802   */\n      tag_271\n        /* \"#utility.yul\":10800:10801   */\n      0x09\n        /* \"#utility.yul\":10795:10798   */\n      dup4\n        /* \"#utility.yul\":10736:10802   */\n      tag_150\n      jump\t// in\n    tag_271:\n        /* \"#utility.yul\":10729:10802   */\n      swap2\n      pop\n        /* \"#utility.yul\":10811:10904   */\n      tag_272\n        /* \"#utility.yul\":10900:10903   */\n      dup3\n        /* \"#utility.yul\":10811:10904   */\n      tag_164\n      jump\t// in\n    tag_272:\n        /* \"#utility.yul\":10929:10931   */\n      0x20\n        /* \"#utility.yul\":10924:10927   */\n      dup3\n        /* \"#utility.yul\":10920:10932   */\n      add\n        /* \"#utility.yul\":10913:10932   */\n      swap1\n      pop\n        /* \"#utility.yul\":10573:10938   */\n      swap2\n      swap1\n      pop\n      jump\t// out\n        /* \"#utility.yul\":10944:11363   */\n    tag_106:\n        /* \"#utility.yul\":11110:11114   */\n      0x00\n        /* \"#utility.yul\":11148:11150   */\n      0x20\n        /* \"#utility.yul\":11137:11146   */\n      dup3\n        /* \"#utility.yul\":11133:11151   */\n      add\n        /* \"#utility.yul\":11125:11151   */\n      swap1\n      pop\n        /* \"#utility.yul\":11197:11206   */\n      dup2\n        /* \"#utility.yul\":11191:11195   */\n      dup2\n        /* \"#utility.yul\":11187:11207   */\n      sub\n        /* \"#utility.yul\":11183:11184   */\n      0x00\n        /* \"#utility.yul\":11172:11181   */\n      dup4\n        /* \"#utility.yul\":11168:11185   */\n      add\n        /* \"#utility.yul\":11161:11208   */\n      mstore\n        /* \"#utility.yul\":11225:11356   */\n      tag_274\n        /* \"#utility.yul\":11351:11355   */\n      dup2\n        /* \"#utility.yul\":11225:11356   */\n      tag_165\n      jump\t// in\n    tag_274:\n        /* \"#utility.yul\":11217:11356   */\n      swap1\n      pop\n        /* \"#utility.yul\":10944:11363   */\n      swap2\n      swap1\n      pop\n      jump\t// out\n        /* \"#utility.yul\":11369:11529   */\n    tag_166:\n        /* \"#utility.yul\":11509:11521   */\n      0x68617320656e6465642100000000000000000000000000000000000000000000\n        /* \"#utility.yul\":11505:11506   */\n      0x00\n        /* \"#utility.yul\":11497:11503   */\n      dup3\n        /* \"#utility.yul\":11493:11507   */\n      add\n        /* \"#utility.yul\":11486:11522   */\n      mstore\n        /* \"#utility.yul\":11369:11529   */\n      pop\n      jump\t// out\n        /* \"#utility.yul\":11535:11901   */\n    tag_167:\n        /* \"#utility.yul\":11677:11680   */\n      0x00\n        /* \"#utility.yul\":11698:11765   */\n      tag_277\n        /* \"#utility.yul\":11762:11764   */\n      0x0a\n        /* \"#utility.yul\":11757:11760   */\n      dup4\n        /* \"#utility.yul\":11698:11765   */\n      tag_150\n      jump\t// in\n    tag_277:\n        /* \"#utility.yul\":11691:11765   */\n      swap2\n      pop\n        /* \"#utility.yul\":11774:11867   */\n      tag_278\n        /* \"#utility.yul\":11863:11866   */\n      dup3\n        /* \"#utility.yul\":11774:11867   */\n      tag_166\n      jump\t// in\n    tag_278:\n        /* \"#utility.yul\":11892:11894   */\n      0x20\n        /* \"#utility.yul\":11887:11890   */\n      dup3\n        /* \"#utility.yul\":11883:11895   */\n      add\n        /* \"#utility.yul\":11876:11895   */\n      swap1\n      pop\n        /* \"#utility.yul\":11535:11901   */\n      swap2\n      swap1\n      pop\n      jump\t// out\n        /* \"#utility.yul\":11907:12326   */\n    tag_109:\n        /* \"#utility.yul\":12073:12077   */\n      0x00\n        /* \"#utility.yul\":12111:12113   */\n      0x20\n        /* \"#utility.yul\":12100:12109   */\n      dup3\n        /* \"#utility.yul\":12096:12114   */\n      add\n        /* \"#utility.yul\":12088:12114   */\n      swap1\n      pop\n        /* \"#utility.yul\":12160:12169   */\n      dup2\n        /* \"#utility.yul\":12154:12158   */\n      dup2\n        /* \"#utility.yul\":12150:12170   */\n      sub\n        /* \"#utility.yul\":12146:12147   */\n      0x00\n        /* \"#utility.yul\":12135:12144   */\n      dup4\n        /* \"#utility.yul\":12131:12148   */\n      add\n        /* \"#utility.yul\":12124:12171   */\n      mstore\n        /* \"#utility.yul\":12188:12319   */\n      tag_280\n        /* \"#utility.yul\":12314:12318   */\n      dup2\n        /* \"#utility.yul\":12188:12319   */\n      tag_167\n      jump\t// in\n    tag_280:\n        /* \"#utility.yul\":12180:12319   */\n      swap1\n      pop\n        /* \"#utility.yul\":11907:12326   */\n      swap2\n      swap1\n      pop\n      jump\t// out\n        /* \"#utility.yul\":12332:12498   */\n    tag_168:\n        /* \"#utility.yul\":12472:12490   */\n      0x6e6f77203c3d20656e642074696d652100000000000000000000000000000000\n        /* \"#utility.yul\":12468:12469   */\n      0x00\n        /* \"#utility.yul\":12460:12466   */\n      dup3\n        /* \"#utility.yul\":12456:12470   */\n      add\n        /* \"#utility.yul\":12449:12491   */\n      mstore\n        /* \"#utility.yul\":12332:12498   */\n      pop\n      jump\t// out\n        /* \"#utility.yul\":12504:12870   */\n    tag_169:\n        /* \"#utility.yul\":12646:12649   */\n      0x00\n        /* \"#utility.yul\":12667:12734   */\n      tag_283\n        /* \"#utility.yul\":12731:12733   */\n      0x10\n        /* \"#utility.yul\":12726:12729   */\n      dup4\n        /* \"#utility.yul\":12667:12734   */\n      tag_150\n      jump\t// in\n    tag_283:\n        /* \"#utility.yul\":12660:12734   */\n      swap2\n      pop\n        /* \"#utility.yul\":12743:12836   */\n      tag_284\n        /* \"#utility.yul\":12832:12835   */\n      dup3\n        /* \"#utility.yul\":12743:12836   */\n      tag_168\n      jump\t// in\n    tag_284:\n        /* \"#utility.yul\":12861:12863   */\n      0x20\n        /* \"#utility.yul\":12856:12859   */\n      dup3\n        /* \"#utility.yul\":12852:12864   */\n      add\n        /* \"#utility.yul\":12845:12864   */\n      swap1\n      pop\n        /* \"#utility.yul\":12504:12870   */\n      swap2\n      swap1\n      pop\n      jump\t// out\n        /* \"#utility.yul\":12876:13295   */\n    tag_112:\n        /* \"#utility.yul\":13042:13046   */\n      0x00\n        /* \"#utility.yul\":13080:13082   */\n      0x20\n        /* \"#utility.yul\":13069:13078   */\n      dup3\n        /* \"#utility.yul\":13065:13083   */\n      add\n        /* \"#utility.yul\":13057:13083   */\n      swap1\n      pop\n        /* \"#utility.yul\":13129:13138   */\n      dup2\n        /* \"#utility.yul\":13123:13127   */\n      dup2\n        /* \"#utility.yul\":13119:13139   */\n      sub\n        /* \"#utility.yul\":13115:13116   */\n      0x00\n        /* \"#utility.yul\":13104:13113   */\n      dup4\n        /* \"#utility.yul\":13100:13117   */\n      add\n        /* \"#utility.yul\":13093:13140   */\n      mstore\n        /* \"#utility.yul\":13157:13288   */\n      tag_286\n        /* \"#utility.yul\":13283:13287   */\n      dup2\n        /* \"#utility.yul\":13157:13288   */\n      tag_169\n      jump\t// in\n    tag_286:\n        /* \"#utility.yul\":13149:13288   */\n      swap1\n      pop\n        /* \"#utility.yul\":12876:13295   */\n      swap2\n      swap1\n      pop\n      jump\t// out\n        /* \"#utility.yul\":13301:13743   */\n    tag_115:\n        /* \"#utility.yul\":13450:13454   */\n      0x00\n        /* \"#utility.yul\":13488:13490   */\n      0x60\n        /* \"#utility.yul\":13477:13486   */\n      dup3\n        /* \"#utility.yul\":13473:13491   */\n      add\n        /* \"#utility.yul\":13465:13491   */\n      swap1\n      pop\n        /* \"#utility.yul\":13501:13572   */\n      tag_288\n        /* \"#utility.yul\":13569:13570   */\n      0x00\n        /* \"#utility.yul\":13558:13567   */\n      dup4\n        /* \"#utility.yul\":13554:13571   */\n      add\n        /* \"#utility.yul\":13545:13551   */\n      dup7\n        /* \"#utility.yul\":13501:13572   */\n      tag_149\n      jump\t// in\n    tag_288:\n        /* \"#utility.yul\":13582:13654   */\n      tag_289\n        /* \"#utility.yul\":13650:13652   */\n      0x20\n        /* \"#utility.yul\":13639:13648   */\n      dup4\n        /* \"#utility.yul\":13635:13653   */\n      add\n        /* \"#utility.yul\":13626:13632   */\n      dup6\n        /* \"#utility.yul\":13582:13654   */\n      tag_149\n      jump\t// in\n    tag_289:\n        /* \"#utility.yul\":13664:13736   */\n      tag_290\n        /* \"#utility.yul\":13732:13734   */\n      0x40\n        /* \"#utility.yul\":13721:13730   */\n      dup4\n        /* \"#utility.yul\":13717:13735   */\n      add\n        /* \"#utility.yul\":13708:13714   */\n      dup5\n        /* \"#utility.yul\":13664:13736   */\n      tag_146\n      jump\t// in\n    tag_290:\n        /* \"#utility.yul\":13301:13743   */\n      swap5\n      swap4\n      pop\n      pop\n      pop\n      pop\n      jump\t// out\n        /* \"#utility.yul\":13749:14207   */\n    tag_123:\n        /* \"#utility.yul\":13906:13910   */\n      0x00\n        /* \"#utility.yul\":13944:13946   */\n      0x60\n        /* \"#utility.yul\":13933:13942   */\n      dup3\n        /* \"#utility.yul\":13929:13947   */\n      add\n        /* \"#utility.yul\":13921:13947   */\n      swap1\n      pop\n        /* \"#utility.yul\":13957:14028   */\n      tag_292\n        /* \"#utility.yul\":14025:14026   */\n      0x00\n        /* \"#utility.yul\":14014:14023   */\n      dup4\n        /* \"#utility.yul\":14010:14027   */\n      add\n        /* \"#utility.yul\":14001:14007   */\n      dup7\n        /* \"#utility.yul\":13957:14028   */\n      tag_149\n      jump\t// in\n    tag_292:\n        /* \"#utility.yul\":14038:14118   */\n      tag_293\n        /* \"#utility.yul\":14114:14116   */\n      0x20\n        /* \"#utility.yul\":14103:14112   */\n      dup4\n        /* \"#utility.yul\":14099:14117   */\n      add\n        /* \"#utility.yul\":14090:14096   */\n      dup6\n        /* \"#utility.yul\":14038:14118   */\n      tag_163\n      jump\t// in\n    tag_293:\n        /* \"#utility.yul\":14128:14200   */\n      tag_294\n        /* \"#utility.yul\":14196:14198   */\n      0x40\n        /* \"#utility.yul\":14185:14194   */\n      dup4\n        /* \"#utility.yul\":14181:14199   */\n      add\n        /* \"#utility.yul\":14172:14178   */\n      dup5\n        /* \"#utility.yul\":14128:14200   */\n      tag_146\n      jump\t// in\n    tag_294:\n        /* \"#utility.yul\":13749:14207   */\n      swap5\n      swap4\n      pop\n      pop\n      pop\n      pop\n      jump\t// out\n        /* \"#utility.yul\":14213:14545   */\n    tag_128:\n        /* \"#utility.yul\":14334:14338   */\n      0x00\n        /* \"#utility.yul\":14372:14374   */\n      0x40\n        /* \"#utility.yul\":14361:14370   */\n      dup3\n        /* \"#utility.yul\":14357:14375   */\n      add\n        /* \"#utility.yul\":14349:14375   */\n      swap1\n      pop\n        /* \"#utility.yul\":14385:14456   */\n      tag_296\n        /* \"#utility.yul\":14453:14454   */\n      0x00\n        /* \"#utility.yul\":14442:14451   */\n      dup4\n        /* \"#utility.yul\":14438:14455   */\n      add\n        /* \"#utility.yul\":14429:14435   */\n      dup6\n        /* \"#utility.yul\":14385:14456   */\n      tag_149\n      jump\t// in\n    tag_296:\n        /* \"#utility.yul\":14466:14538   */\n      tag_297\n        /* \"#utility.yul\":14534:14536   */\n      0x20\n        /* \"#utility.yul\":14523:14532   */\n      dup4\n        /* \"#utility.yul\":14519:14537   */\n      add\n        /* \"#utility.yul\":14510:14516   */\n      dup5\n        /* \"#utility.yul\":14466:14538   */\n      tag_146\n      jump\t// in\n    tag_297:\n        /* \"#utility.yul\":14213:14545   */\n      swap4\n      swap3\n      pop\n      pop\n      pop\n      jump\t// out\n\n    auxdata: 0xa2646970667358221220317d64398849b68916ac149a6360d753c5fe614ca98180b3df5269052ffa62d464736f6c63430008170033\n}\n",
				"bytecode": {
					"linkReferences": {},
					"object": "60e060405234801562000010575f80fd5b50604051620015a1380380620015a1833981810160405281019062000036919062000153565b8273ffffffffffffffffffffffffffffffffffffffff1660808173ffffffffffffffffffffffffffffffffffffffff16815250508160a081815250503373ffffffffffffffffffffffffffffffffffffffff1660c08173ffffffffffffffffffffffffffffffffffffffff168152505080600181905550505050620001ac565b5f80fd5b5f73ffffffffffffffffffffffffffffffffffffffff82169050919050565b5f620000e582620000ba565b9050919050565b620000f781620000d9565b811462000102575f80fd5b50565b5f815190506200011581620000ec565b92915050565b5f819050919050565b6200012f816200011b565b81146200013a575f80fd5b50565b5f815190506200014d8162000124565b92915050565b5f805f606084860312156200016d576200016c620000b6565b5b5f6200017c8682870162000105565b93505060206200018f868287016200013d565b9250506040620001a2868287016200013d565b9150509250925092565b60805160a05160c0516113846200021d5f395f818161029f015281816106ad015281816107f401528181610b2d0152610bd501525f8181610816015281816108b001528181610ac10152610bf601525f818161064a015281816107b801528181610a620152610b9801526113845ff3fe6080604052600436106100c1575f3560e01c806362ea82db1161007e578063c6bc518211610058578063c6bc518214610209578063c6cf27da14610233578063d57bde791461025d578063efbe1c1c14610287576100c1565b806362ea82db1461018d5780637cc3ae8c146101c9578063be9a6555146101f3576100c1565b806308551a53146100c557806312fa6feb146100ef5780631998aeef146101195780631f2698ab146101235780633ccfd60b1461014d57806347ccca0214610163575b5f80fd5b3480156100d0575f80fd5b506100d961029d565b6040516100e69190610cfe565b60405180910390f35b3480156100fa575f80fd5b506101036102c1565b6040516101109190610d31565b60405180910390f35b6101216102d3565b005b34801561012e575f80fd5b5061013761051e565b6040516101449190610d31565b60405180910390f35b348015610158575f80fd5b50610161610530565b005b34801561016e575f80fd5b50610177610648565b6040516101849190610da5565b60405180910390f35b348015610198575f80fd5b506101b360048036038101906101ae9190610dfd565b61066c565b6040516101c09190610e40565b60405180910390f35b3480156101d4575f80fd5b506101dd610681565b6040516101ea9190610e77565b60405180910390f35b3480156101fe575f80fd5b50610207610694565b005b348015610214575f80fd5b5061021d6108ae565b60405161022a9190610e40565b60405180910390f35b34801561023e575f80fd5b506102476108d2565b6040516102549190610e9f565b60405180910390f35b348015610268575f80fd5b506102716108f7565b60405161027e9190610e40565b60405180910390f35b348015610292575f80fd5b5061029b6108fd565b005b7f000000000000000000000000000000000000000000000000000000000000000081565b5f60059054906101000a900460ff1681565b5f60049054906101000a900460ff16610321576040517f08c379a000000000000000000000000000000000000000000000000000000000815260040161031890610f12565b60405180910390fd5b5f8054906101000a900463ffffffff1663ffffffff164210610378576040517f08c379a000000000000000000000000000000000000000000000000000000000815260040161036f90610f7a565b60405180910390fd5b60015434116103bc576040517f08c379a00000000000000000000000000000000000000000000000000000000081526004016103b390610fe2565b60405180910390fd5b5f73ffffffffffffffffffffffffffffffffffffffff165f60069054906101000a900473ffffffffffffffffffffffffffffffffffffffff1673ffffffffffffffffffffffffffffffffffffffff16146104875760015460025f8060069054906101000a900473ffffffffffffffffffffffffffffffffffffffff1673ffffffffffffffffffffffffffffffffffffffff1673ffffffffffffffffffffffffffffffffffffffff1681526020019081526020015f205f82825461047f919061102d565b925050819055505b34600181905550335f60066101000a81548173ffffffffffffffffffffffffffffffffffffffff021916908373ffffffffffffffffffffffffffffffffffffffff1602179055503373ffffffffffffffffffffffffffffffffffffffff167fe684a55f31b79eca403df938249029212a5925ec6be8012e099b45bc1019e5d2346040516105149190610e40565b60405180910390a2565b5f60049054906101000a900460ff1681565b5f60025f3373ffffffffffffffffffffffffffffffffffffffff1673ffffffffffffffffffffffffffffffffffffffff1681526020019081526020015f205490505f60025f3373ffffffffffffffffffffffffffffffffffffffff1673ffffffffffffffffffffffffffffffffffffffff1681526020019081526020015f20819055503373ffffffffffffffffffffffffffffffffffffffff166108fc8290811502906040515f60405180830381858888f193505050501580156105f6573d5f803e3d5ffd5b503373ffffffffffffffffffffffffffffffffffffffff167f884edad9ce6fa2440d8a54cc123490eb96d2768479d49ff9c7366125a94243648260405161063d9190610e40565b60405180910390a250565b7f000000000000000000000000000000000000000000000000000000000000000081565b6002602052805f5260405f205f915090505481565b5f8054906101000a900463ffffffff1681565b3373ffffffffffffffffffffffffffffffffffffffff167f000000000000000000000000000000000000000000000000000000000000000073ffffffffffffffffffffffffffffffffffffffff1614610722576040517f08c379a0000000000000000000000000000000000000000000000000000000008152600401610719906110aa565b60405180910390fd5b5f60049054906101000a900460ff1615610771576040517f08c379a000000000000000000000000000000000000000000000000000000000815260040161076890611112565b60405180910390fd5b60015f60046101000a81548160ff021916908315150217905550607842610798919061102d565b5f806101000a81548163ffffffff021916908363ffffffff1602179055507f000000000000000000000000000000000000000000000000000000000000000073ffffffffffffffffffffffffffffffffffffffff166323b872dd7f0000000000000000000000000000000000000000000000000000000000000000307f00000000000000000000000000000000000000000000000000000000000000006040518463ffffffff1660e01b815260040161085393929190611150565b5f604051808303815f87803b15801561086a575f80fd5b505af115801561087c573d5f803e3d5ffd5b505050507f1b55ba3aa851a46be3b365aee5b5c140edd620d578922f3e8466d2cbd96f954b60405160405180910390a1565b7f000000000000000000000000000000000000000000000000000000000000000081565b5f60069054906101000a900473ffffffffffffffffffffffffffffffffffffffff1681565b60015481565b5f60049054906101000a900460ff1661094b576040517f08c379a0000000000000000000000000000000000000000000000000000000008152600401610942906111cf565b60405180910390fd5b5f60059054906101000a900460ff161561099a576040517f08c379a000000000000000000000000000000000000000000000000000000000815260040161099190611237565b60405180910390fd5b5f8054906101000a900463ffffffff1663ffffffff164210156109f2576040517f08c379a00000000000000000000000000000000000000000000000000000000081526004016109e99061129f565b60405180910390fd5b60015f60056101000a81548160ff0219169083151502179055505f73ffffffffffffffffffffffffffffffffffffffff165f60069054906101000a900473ffffffffffffffffffffffffffffffffffffffff1673ffffffffffffffffffffffffffffffffffffffff1614610b96577f000000000000000000000000000000000000000000000000000000000000000073ffffffffffffffffffffffffffffffffffffffff166323b872dd305f60069054906101000a900473ffffffffffffffffffffffffffffffffffffffff167f00000000000000000000000000000000000000000000000000000000000000006040518463ffffffff1660e01b8152600401610afe939291906112bd565b5f604051808303815f87803b158015610b15575f80fd5b505af1158015610b27573d5f803e3d5ffd5b505050507f000000000000000000000000000000000000000000000000000000000000000073ffffffffffffffffffffffffffffffffffffffff166108fc60015490811502906040515f60405180830381858888f19350505050158015610b90573d5f803e3d5ffd5b50610c61565b7f000000000000000000000000000000000000000000000000000000000000000073ffffffffffffffffffffffffffffffffffffffff166323b872dd307f00000000000000000000000000000000000000000000000000000000000000007f00000000000000000000000000000000000000000000000000000000000000006040518463ffffffff1660e01b8152600401610c33939291906112f2565b5f604051808303815f87803b158015610c4a575f80fd5b505af1158015610c5c573d5f803e3d5ffd5b505050505b7f7d7570b046e5ead3a4f3fbc9fa2445113625a1e79823776146316bafed6b8cc55f60069054906101000a900473ffffffffffffffffffffffffffffffffffffffff16600154604051610cb5929190611327565b60405180910390a1565b5f73ffffffffffffffffffffffffffffffffffffffff82169050919050565b5f610ce882610cbf565b9050919050565b610cf881610cde565b82525050565b5f602082019050610d115f830184610cef565b92915050565b5f8115159050919050565b610d2b81610d17565b82525050565b5f602082019050610d445f830184610d22565b92915050565b5f819050919050565b5f610d6d610d68610d6384610cbf565b610d4a565b610cbf565b9050919050565b5f610d7e82610d53565b9050919050565b5f610d8f82610d74565b9050919050565b610d9f81610d85565b82525050565b5f602082019050610db85f830184610d96565b92915050565b5f80fd5b5f610dcc82610cbf565b9050919050565b610ddc81610dc2565b8114610de6575f80fd5b50565b5f81359050610df781610dd3565b92915050565b5f60208284031215610e1257610e11610dbe565b5b5f610e1f84828501610de9565b91505092915050565b5f819050919050565b610e3a81610e28565b82525050565b5f602082019050610e535f830184610e31565b92915050565b5f63ffffffff82169050919050565b610e7181610e59565b82525050565b5f602082019050610e8a5f830184610e68565b92915050565b610e9981610dc2565b82525050565b5f602082019050610eb25f830184610e90565b92915050565b5f82825260208201905092915050565b7f6e6f7420737461727421000000000000000000000000000000000000000000005f82015250565b5f610efc600a83610eb8565b9150610f0782610ec8565b602082019050919050565b5f6020820190508181035f830152610f2981610ef0565b9050919050565b7f62696420697320656e64656421000000000000000000000000000000000000005f82015250565b5f610f64600d83610eb8565b9150610f6f82610f30565b602082019050919050565b5f6020820190508181035f830152610f9181610f58565b9050919050565b7f76616c7565203c206869676865737442696400000000000000000000000000005f82015250565b5f610fcc601283610eb8565b9150610fd782610f98565b602082019050919050565b5f6020820190508181035f830152610ff981610fc0565b9050919050565b7f4e487b71000000000000000000000000000000000000000000000000000000005f52601160045260245ffd5b5f61103782610e28565b915061104283610e28565b925082820190508082111561105a57611059611000565b5b92915050565b7f6e6f742073656c6c6572000000000000000000000000000000000000000000005f82015250565b5f611094600a83610eb8565b915061109f82611060565b602082019050919050565b5f6020820190508181035f8301526110c181611088565b9050919050565b7f68617320737461727465642100000000000000000000000000000000000000005f82015250565b5f6110fc600c83610eb8565b9150611107826110c8565b602082019050919050565b5f6020820190508181035f830152611129816110f0565b9050919050565b5f61113a82610d74565b9050919050565b61114a81611130565b82525050565b5f6060820190506111635f830186611141565b6111706020830185610e90565b61117d6040830184610e31565b949350505050565b7f6e6f7420737461727400000000000000000000000000000000000000000000005f82015250565b5f6111b9600983610eb8565b91506111c482611185565b602082019050919050565b5f6020820190508181035f8301526111e6816111ad565b9050919050565b7f68617320656e64656421000000000000000000000000000000000000000000005f82015250565b5f611221600a83610eb8565b915061122c826111ed565b602082019050919050565b5f6020820190508181035f83015261124e81611215565b9050919050565b7f6e6f77203c3d20656e642074696d6521000000000000000000000000000000005f82015250565b5f611289601083610eb8565b915061129482611255565b602082019050919050565b5f6020820190508181035f8301526112b68161127d565b9050919050565b5f6060820190506112d05f830186610e90565b6112dd6020830185610e90565b6112ea6040830184610e31565b949350505050565b5f6060820190506113055f830186610e90565b6113126020830185611141565b61131f6040830184610e31565b949350505050565b5f60408201905061133a5f830185610e90565b6113476020830184610e31565b939250505056fea2646970667358221220317d64398849b68916ac149a6360d753c5fe614ca98180b3df5269052ffa62d464736f6c63430008170033",
					"opcodes": "PUSH1 0xE0 PUSH1 0x40 MSTORE CALLVALUE DUP1 ISZERO PUSH3 0x10 JUMPI PUSH0 DUP1 REVERT JUMPDEST POP PUSH1 0x40 MLOAD PUSH3 0x15A1 CODESIZE SUB DUP1 PUSH3 0x15A1 DUP4 CODECOPY DUP2 DUP2 ADD PUSH1 0x40 MSTORE DUP2 ADD SWAP1 PUSH3 0x36 SWAP2 SWAP1 PUSH3 0x153 JUMP JUMPDEST DUP3 PUSH20 0xFFFFFFFFFFFFFFFFFFFFFFFFFFFFFFFFFFFFFFFF AND PUSH1 0x80 DUP2 PUSH20 0xFFFFFFFFFFFFFFFFFFFFFFFFFFFFFFFFFFFFFFFF AND DUP2 MSTORE POP POP DUP2 PUSH1 0xA0 DUP2 DUP2 MSTORE POP POP CALLER PUSH20 0xFFFFFFFFFFFFFFFFFFFFFFFFFFFFFFFFFFFFFFFF AND PUSH1 0xC0 DUP2 PUSH20 0xFFFFFFFFFFFFFFFFFFFFFFFFFFFFFFFFFFFFFFFF AND DUP2 MSTORE POP POP DUP1 PUSH1 0x1 DUP2 SWAP1 SSTORE POP POP POP POP PUSH3 0x1AC JUMP JUMPDEST PUSH0 DUP1 REVERT JUMPDEST PUSH0 PUSH20 0xFFFFFFFFFFFFFFFFFFFFFFFFFFFFFFFFFFFFFFFF DUP3 AND SWAP1 POP SWAP2 SWAP1 POP JUMP JUMPDEST PUSH0 PUSH3 0xE5 DUP3 PUSH3 0xBA JUMP JUMPDEST SWAP1 POP SWAP2 SWAP1 POP JUMP JUMPDEST PUSH3 0xF7 DUP2 PUSH3 0xD9 JUMP JUMPDEST DUP2 EQ PUSH3 0x102 JUMPI PUSH0 DUP1 REVERT JUMPDEST POP JUMP JUMPDEST PUSH0 DUP2 MLOAD SWAP1 POP PUSH3 0x115 DUP2 PUSH3 0xEC JUMP JUMPDEST SWAP3 SWAP2 POP POP JUMP JUMPDEST PUSH0 DUP2 SWAP1 POP SWAP2 SWAP1 POP JUMP JUMPDEST PUSH3 0x12F DUP2 PUSH3 0x11B JUMP JUMPDEST DUP2 EQ PUSH3 0x13A JUMPI PUSH0 DUP1 REVERT JUMPDEST POP JUMP JUMPDEST PUSH0 DUP2 MLOAD SWAP1 POP PUSH3 0x14D DUP2 PUSH3 0x124 JUMP JUMPDEST SWAP3 SWAP2 POP POP JUMP JUMPDEST PUSH0 DUP1 PUSH0 PUSH1 0x60 DUP5 DUP7 SUB SLT ISZERO PUSH3 0x16D JUMPI PUSH3 0x16C PUSH3 0xB6 JUMP JUMPDEST JUMPDEST PUSH0 PUSH3 0x17C DUP7 DUP3 DUP8 ADD PUSH3 0x105 JUMP JUMPDEST SWAP4 POP POP PUSH1 0x20 PUSH3 0x18F DUP7 DUP3 DUP8 ADD PUSH3 0x13D JUMP JUMPDEST SWAP3 POP POP PUSH1 0x40 PUSH3 0x1A2 DUP7 DUP3 DUP8 ADD PUSH3 0x13D JUMP JUMPDEST SWAP2 POP POP SWAP3 POP SWAP3 POP SWAP3 JUMP JUMPDEST PUSH1 0x80 MLOAD PUSH1 0xA0 MLOAD PUSH1 0xC0 MLOAD PUSH2 0x1384 PUSH3 0x21D PUSH0 CODECOPY PUSH0 DUP2 DUP2 PUSH2 0x29F ADD MSTORE DUP2 DUP2 PUSH2 0x6AD ADD MSTORE DUP2 DUP2 PUSH2 0x7F4 ADD MSTORE DUP2 DUP2 PUSH2 0xB2D ADD MSTORE PUSH2 0xBD5 ADD MSTORE PUSH0 DUP2 DUP2 PUSH2 0x816 ADD MSTORE DUP2 DUP2 PUSH2 0x8B0 ADD MSTORE DUP2 DUP2 PUSH2 0xAC1 ADD MSTORE PUSH2 0xBF6 ADD MSTORE PUSH0 DUP2 DUP2 PUSH2 0x64A ADD MSTORE DUP2 DUP2 PUSH2 0x7B8 ADD MSTORE DUP2 DUP2 PUSH2 0xA62 ADD MSTORE PUSH2 0xB98 ADD MSTORE PUSH2 0x1384 PUSH0 RETURN INVALID PUSH1 0x80 PUSH1 0x40 MSTORE PUSH1 0x4 CALLDATASIZE LT PUSH2 0xC1 JUMPI PUSH0 CALLDATALOAD PUSH1 0xE0 SHR DUP1 PUSH4 0x62EA82DB GT PUSH2 0x7E JUMPI DUP1 PUSH4 0xC6BC5182 GT PUSH2 0x58 JUMPI DUP1 PUSH4 0xC6BC5182 EQ PUSH2 0x209 JUMPI DUP1 PUSH4 0xC6CF27DA EQ PUSH2 0x233 JUMPI DUP1 PUSH4 0xD57BDE79 EQ PUSH2 0x25D JUMPI DUP1 PUSH4 0xEFBE1C1C EQ PUSH2 0x287 JUMPI PUSH2 0xC1 JUMP JUMPDEST DUP1 PUSH4 0x62EA82DB EQ PUSH2 0x18D JUMPI DUP1 PUSH4 0x7CC3AE8C EQ PUSH2 0x1C9 JUMPI DUP1 PUSH4 0xBE9A6555 EQ PUSH2 0x1F3 JUMPI PUSH2 0xC1 JUMP JUMPDEST DUP1 PUSH4 0x8551A53 EQ PUSH2 0xC5 JUMPI DUP1 PUSH4 0x12FA6FEB EQ PUSH2 0xEF JUMPI DUP1 PUSH4 0x1998AEEF EQ PUSH2 0x119 JUMPI DUP1 PUSH4 0x1F2698AB EQ PUSH2 0x123 JUMPI DUP1 PUSH4 0x3CCFD60B EQ PUSH2 0x14D JUMPI DUP1 PUSH4 0x47CCCA02 EQ PUSH2 0x163 JUMPI JUMPDEST PUSH0 DUP1 REVERT JUMPDEST CALLVALUE DUP1 ISZERO PUSH2 0xD0 JUMPI PUSH0 DUP1 REVERT JUMPDEST POP PUSH2 0xD9 PUSH2 0x29D JUMP JUMPDEST PUSH1 0x40 MLOAD PUSH2 0xE6 SWAP2 SWAP1 PUSH2 0xCFE JUMP JUMPDEST PUSH1 0x40 MLOAD DUP1 SWAP2 SUB SWAP1 RETURN JUMPDEST CALLVALUE DUP1 ISZERO PUSH2 0xFA JUMPI PUSH0 DUP1 REVERT JUMPDEST POP PUSH2 0x103 PUSH2 0x2C1 JUMP JUMPDEST PUSH1 0x40 MLOAD PUSH2 0x110 SWAP2 SWAP1 PUSH2 0xD31 JUMP JUMPDEST PUSH1 0x40 MLOAD DUP1 SWAP2 SUB SWAP1 RETURN JUMPDEST PUSH2 0x121 PUSH2 0x2D3 JUMP JUMPDEST STOP JUMPDEST CALLVALUE DUP1 ISZERO PUSH2 0x12E JUMPI PUSH0 DUP1 REVERT JUMPDEST POP PUSH2 0x137 PUSH2 0x51E JUMP JUMPDEST PUSH1 0x40 MLOAD PUSH2 0x144 SWAP2 SWAP1 PUSH2 0xD31 JUMP JUMPDEST PUSH1 0x40 MLOAD DUP1 SWAP2 SUB SWAP1 RETURN JUMPDEST CALLVALUE DUP1 ISZERO PUSH2 0x158 JUMPI PUSH0 DUP1 REVERT JUMPDEST POP PUSH2 0x161 PUSH2 0x530 JUMP JUMPDEST STOP JUMPDEST CALLVALUE DUP1 ISZERO PUSH2 0x16E JUMPI PUSH0 DUP1 REVERT JUMPDEST POP PUSH2 0x177 PUSH2 0x648 JUMP JUMPDEST PUSH1 0x40 MLOAD PUSH2 0x184 SWAP2 SWAP1 PUSH2 0xDA5 JUMP JUMPDEST PUSH1 0x40 MLOAD DUP1 SWAP2 SUB SWAP1 RETURN JUMPDEST CALLVALUE DUP1 ISZERO PUSH2 0x198 JUMPI PUSH0 DUP1 REVERT JUMPDEST POP PUSH2 0x1B3 PUSH1 0x4 DUP1 CALLDATASIZE SUB DUP2 ADD SWAP1 PUSH2 0x1AE SWAP2 SWAP1 PUSH2 0xDFD JUMP JUMPDEST PUSH2 0x66C JUMP JUMPDEST PUSH1 0x40 MLOAD PUSH2 0x1C0 SWAP2 SWAP1 PUSH2 0xE40 JUMP JUMPDEST PUSH1 0x40 MLOAD DUP1 SWAP2 SUB SWAP1 RETURN JUMPDEST CALLVALUE DUP1 ISZERO PUSH2 0x1D4 JUMPI PUSH0 DUP1 REVERT JUMPDEST POP PUSH2 0x1DD PUSH2 0x681 JUMP JUMPDEST PUSH1 0x40 MLOAD PUSH2 0x1EA SWAP2 SWAP1 PUSH2 0xE77 JUMP JUMPDEST PUSH1 0x40 MLOAD DUP1 SWAP2 SUB SWAP1 RETURN JUMPDEST CALLVALUE DUP1 ISZERO PUSH2 0x1FE JUMPI PUSH0 DUP1 REVERT JUMPDEST POP PUSH2 0x207 PUSH2 0x694 JUMP JUMPDEST STOP JUMPDEST CALLVALUE DUP1 ISZERO PUSH2 0x214 JUMPI PUSH0 DUP1 REVERT JUMPDEST POP PUSH2 0x21D PUSH2 0x8AE JUMP JUMPDEST PUSH1 0x40 MLOAD PUSH2 0x22A SWAP2 SWAP1 PUSH2 0xE40 JUMP JUMPDEST PUSH1 0x40 MLOAD DUP1 SWAP2 SUB SWAP1 RETURN JUMPDEST CALLVALUE DUP1 ISZERO PUSH2 0x23E JUMPI PUSH0 DUP1 REVERT JUMPDEST POP PUSH2 0x247 PUSH2 0x8D2 JUMP JUMPDEST PUSH1 0x40 MLOAD PUSH2 0x254 SWAP2 SWAP1 PUSH2 0xE9F JUMP JUMPDEST PUSH1 0x40 MLOAD DUP1 SWAP2 SUB SWAP1 RETURN JUMPDEST CALLVALUE DUP1 ISZERO PUSH2 0x268 JUMPI PUSH0 DUP1 REVERT JUMPDEST POP PUSH2 0x271 PUSH2 0x8F7 JUMP JUMPDEST PUSH1 0x40 MLOAD PUSH2 0x27E SWAP2 SWAP1 PUSH2 0xE40 JUMP JUMPDEST PUSH1 0x40 MLOAD DUP1 SWAP2 SUB SWAP1 RETURN JUMPDEST CALLVALUE DUP1 ISZERO PUSH2 0x292 JUMPI PUSH0 DUP1 REVERT JUMPDEST POP PUSH2 0x29B PUSH2 0x8FD JUMP JUMPDEST STOP JUMPDEST PUSH32 0x0 DUP2 JUMP JUMPDEST PUSH0 PUSH1 0x5 SWAP1 SLOAD SWAP1 PUSH2 0x100 EXP SWAP1 DIV PUSH1 0xFF AND DUP2 JUMP JUMPDEST PUSH0 PUSH1 0x4 SWAP1 SLOAD SWAP1 PUSH2 0x100 EXP SWAP1 DIV PUSH1 0xFF AND PUSH2 0x321 JUMPI PUSH1 0x40 MLOAD PUSH32 0x8C379A000000000000000000000000000000000000000000000000000000000 DUP2 MSTORE PUSH1 0x4 ADD PUSH2 0x318 SWAP1 PUSH2 0xF12 JUMP JUMPDEST PUSH1 0x40 MLOAD DUP1 SWAP2 SUB SWAP1 REVERT JUMPDEST PUSH0 DUP1 SLOAD SWAP1 PUSH2 0x100 EXP SWAP1 DIV PUSH4 0xFFFFFFFF AND PUSH4 0xFFFFFFFF AND TIMESTAMP LT PUSH2 0x378 JUMPI PUSH1 0x40 MLOAD PUSH32 0x8C379A000000000000000000000000000000000000000000000000000000000 DUP2 MSTORE PUSH1 0x4 ADD PUSH2 0x36F SWAP1 PUSH2 0xF7A JUMP JUMPDEST PUSH1 0x40 MLOAD DUP1 SWAP2 SUB SWAP1 REVERT JUMPDEST PUSH1 0x1 SLOAD CALLVALUE GT PUSH2 0x3BC JUMPI PUSH1 0x40 MLOAD PUSH32 0x8C379A000000000000000000000000000000000000000000000000000000000 DUP2 MSTORE PUSH1 0x4 ADD PUSH2 0x3B3 SWAP1 PUSH2 0xFE2 JUMP JUMPDEST PUSH1 0x40 MLOAD DUP1 SWAP2 SUB SWAP1 REVERT JUMPDEST PUSH0 PUSH20 0xFFFFFFFFFFFFFFFFFFFFFFFFFFFFFFFFFFFFFFFF AND PUSH0 PUSH1 0x6 SWAP1 SLOAD SWAP1 PUSH2 0x100 EXP SWAP1 DIV PUSH20 0xFFFFFFFFFFFFFFFFFFFFFFFFFFFFFFFFFFFFFFFF AND PUSH20 0xFFFFFFFFFFFFFFFFFFFFFFFFFFFFFFFFFFFFFFFF AND EQ PUSH2 0x487 JUMPI PUSH1 0x1 SLOAD PUSH1 0x2 PUSH0 DUP1 PUSH1 0x6 SWAP1 SLOAD SWAP1 PUSH2 0x100 EXP SWAP1 DIV PUSH20 0xFFFFFFFFFFFFFFFFFFFFFFFFFFFFFFFFFFFFFFFF AND PUSH20 0xFFFFFFFFFFFFFFFFFFFFFFFFFFFFFFFFFFFFFFFF AND PUSH20 0xFFFFFFFFFFFFFFFFFFFFFFFFFFFFFFFFFFFFFFFF AND DUP2 MSTORE PUSH1 0x20 ADD SWAP1 DUP2 MSTORE PUSH1 0x20 ADD PUSH0 KECCAK256 PUSH0 DUP3 DUP3 SLOAD PUSH2 0x47F SWAP2 SWAP1 PUSH2 0x102D JUMP JUMPDEST SWAP3 POP POP DUP2 SWAP1 SSTORE POP JUMPDEST CALLVALUE PUSH1 0x1 DUP2 SWAP1 SSTORE POP CALLER PUSH0 PUSH1 0x6 PUSH2 0x100 EXP DUP2 SLOAD DUP2 PUSH20 0xFFFFFFFFFFFFFFFFFFFFFFFFFFFFFFFFFFFFFFFF MUL NOT AND SWAP1 DUP4 PUSH20 0xFFFFFFFFFFFFFFFFFFFFFFFFFFFFFFFFFFFFFFFF AND MUL OR SWAP1 SSTORE POP CALLER PUSH20 0xFFFFFFFFFFFFFFFFFFFFFFFFFFFFFFFFFFFFFFFF AND PUSH32 0xE684A55F31B79ECA403DF938249029212A5925EC6BE8012E099B45BC1019E5D2 CALLVALUE PUSH1 0x40 MLOAD PUSH2 0x514 SWAP2 SWAP1 PUSH2 0xE40 JUMP JUMPDEST PUSH1 0x40 MLOAD DUP1 SWAP2 SUB SWAP1 LOG2 JUMP JUMPDEST PUSH0 PUSH1 0x4 SWAP1 SLOAD SWAP1 PUSH2 0x100 EXP SWAP1 DIV PUSH1 0xFF AND DUP2 JUMP JUMPDEST PUSH0 PUSH1 0x2 PUSH0 CALLER PUSH20 0xFFFFFFFFFFFFFFFFFFFFFFFFFFFFFFFFFFFFFFFF AND PUSH20 0xFFFFFFFFFFFFFFFFFFFFFFFFFFFFFFFFFFFFFFFF AND DUP2 MSTORE PUSH1 0x20 ADD SWAP1 DUP2 MSTORE PUSH1 0x20 ADD PUSH0 KECCAK256 SLOAD SWAP1 POP PUSH0 PUSH1 0x2 PUSH0 CALLER PUSH20 0xFFFFFFFFFFFFFFFFFFFFFFFFFFFFFFFFFFFFFFFF AND PUSH20 0xFFFFFFFFFFFFFFFFFFFFFFFFFFFFFFFFFFFFFFFF AND DUP2 MSTORE PUSH1 0x20 ADD SWAP1 DUP2 MSTORE PUSH1 0x20 ADD PUSH0 KECCAK256 DUP2 SWAP1 SSTORE POP CALLER PUSH20 0xFFFFFFFFFFFFFFFFFFFFFFFFFFFFFFFFFFFFFFFF AND PUSH2 0x8FC DUP3 SWAP1 DUP2 ISZERO MUL SWAP1 PUSH1 0x40 MLOAD PUSH0 PUSH1 0x40 MLOAD DUP1 DUP4 SUB DUP2 DUP6 DUP9 DUP9 CALL SWAP4 POP POP POP POP ISZERO DUP1 ISZERO PUSH2 0x5F6 JUMPI RETURNDATASIZE PUSH0 DUP1 RETURNDATACOPY RETURNDATASIZE PUSH0 REVERT JUMPDEST POP CALLER PUSH20 0xFFFFFFFFFFFFFFFFFFFFFFFFFFFFFFFFFFFFFFFF AND PUSH32 0x884EDAD9CE6FA2440D8A54CC123490EB96D2768479D49FF9C7366125A9424364 DUP3 PUSH1 0x40 MLOAD PUSH2 0x63D SWAP2 SWAP1 PUSH2 0xE40 JUMP JUMPDEST PUSH1 0x40 MLOAD DUP1 SWAP2 SUB SWAP1 LOG2 POP JUMP JUMPDEST PUSH32 0x0 DUP2 JUMP JUMPDEST PUSH1 0x2 PUSH1 0x20 MSTORE DUP1 PUSH0 MSTORE PUSH1 0x40 PUSH0 KECCAK256 PUSH0 SWAP2 POP SWAP1 POP SLOAD DUP2 JUMP JUMPDEST PUSH0 DUP1 SLOAD SWAP1 PUSH2 0x100 EXP SWAP1 DIV PUSH4 0xFFFFFFFF AND DUP2 JUMP JUMPDEST CALLER PUSH20 0xFFFFFFFFFFFFFFFFFFFFFFFFFFFFFFFFFFFFFFFF AND PUSH32 0x0 PUSH20 0xFFFFFFFFFFFFFFFFFFFFFFFFFFFFFFFFFFFFFFFF AND EQ PUSH2 0x722 JUMPI PUSH1 0x40 MLOAD PUSH32 0x8C379A000000000000000000000000000000000000000000000000000000000 DUP2 MSTORE PUSH1 0x4 ADD PUSH2 0x719 SWAP1 PUSH2 0x10AA JUMP JUMPDEST PUSH1 0x40 MLOAD DUP1 SWAP2 SUB SWAP1 REVERT JUMPDEST PUSH0 PUSH1 0x4 SWAP1 SLOAD SWAP1 PUSH2 0x100 EXP SWAP1 DIV PUSH1 0xFF AND ISZERO PUSH2 0x771 JUMPI PUSH1 0x40 MLOAD PUSH32 0x8C379A000000000000000000000000000000000000000000000000000000000 DUP2 MSTORE PUSH1 0x4 ADD PUSH2 0x768 SWAP1 PUSH2 0x1112 JUMP JUMPDEST PUSH1 0x40 MLOAD DUP1 SWAP2 SUB SWAP1 REVERT JUMPDEST PUSH1 0x1 PUSH0 PUSH1 0x4 PUSH2 0x100 EXP DUP2 SLOAD DUP2 PUSH1 0xFF MUL NOT AND SWAP1 DUP4 ISZERO ISZERO MUL OR SWAP1 SSTORE POP PUSH1 0x78 TIMESTAMP PUSH2 0x798 SWAP2 SWAP1 PUSH2 0x102D JUMP JUMPDEST PUSH0 DUP1 PUSH2 0x100 EXP DUP2 SLOAD DUP2 PUSH4 0xFFFFFFFF MUL NOT AND SWAP1 DUP4 PUSH4 0xFFFFFFFF AND MUL OR SWAP1 SSTORE POP PUSH32 0x0 PUSH20 0xFFFFFFFFFFFFFFFFFFFFFFFFFFFFFFFFFFFFFFFF AND PUSH4 0x23B872DD PUSH32 0x0 ADDRESS PUSH32 0x0 PUSH1 0x40 MLOAD DUP5 PUSH4 0xFFFFFFFF AND PUSH1 0xE0 SHL DUP2 MSTORE PUSH1 0x4 ADD PUSH2 0x853 SWAP4 SWAP3 SWAP2 SWAP1 PUSH2 0x1150 JUMP JUMPDEST PUSH0 PUSH1 0x40 MLOAD DUP1 DUP4 SUB DUP2 PUSH0 DUP8 DUP1 EXTCODESIZE ISZERO DUP1 ISZERO PUSH2 0x86A JUMPI PUSH0 DUP1 REVERT JUMPDEST POP GAS CALL ISZERO DUP1 ISZERO PUSH2 0x87C JUMPI RETURNDATASIZE PUSH0 DUP1 RETURNDATACOPY RETURNDATASIZE PUSH0 REVERT JUMPDEST POP POP POP POP PUSH32 0x1B55BA3AA851A46BE3B365AEE5B5C140EDD620D578922F3E8466D2CBD96F954B PUSH1 0x40 MLOAD PUSH1 0x40 MLOAD DUP1 SWAP2 SUB SWAP1 LOG1 JUMP JUMPDEST PUSH32 0x0 DUP2 JUMP JUMPDEST PUSH0 PUSH1 0x6 SWAP1 SLOAD SWAP1 PUSH2 0x100 EXP SWAP1 DIV PUSH20 0xFFFFFFFFFFFFFFFFFFFFFFFFFFFFFFFFFFFFFFFF AND DUP2 JUMP JUMPDEST PUSH1 0x1 SLOAD DUP2 JUMP JUMPDEST PUSH0 PUSH1 0x4 SWAP1 SLOAD SWAP1 PUSH2 0x100 EXP SWAP1 DIV PUSH1 0xFF AND PUSH2 0x94B JUMPI PUSH1 0x40 MLOAD PUSH32 0x8C379A000000000000000000000000000000000000000000000000000000000 DUP2 MSTORE PUSH1 0x4 ADD PUSH2 0x942 SWAP1 PUSH2 0x11CF JUMP JUMPDEST PUSH1 0x40 MLOAD DUP1 SWAP2 SUB SWAP1 REVERT JUMPDEST PUSH0 PUSH1 0x5 SWAP1 SLOAD SWAP1 PUSH2 0x100 EXP SWAP1 DIV PUSH1 0xFF AND ISZERO PUSH2 0x99A JUMPI PUSH1 0x40 MLOAD PUSH32 0x8C379A000000000000000000000000000000000000000000000000000000000 DUP2 MSTORE PUSH1 0x4 ADD PUSH2 0x991 SWAP1 PUSH2 0x1237 JUMP JUMPDEST PUSH1 0x40 MLOAD DUP1 SWAP2 SUB SWAP1 REVERT JUMPDEST PUSH0 DUP1 SLOAD SWAP1 PUSH2 0x100 EXP SWAP1 DIV PUSH4 0xFFFFFFFF AND PUSH4 0xFFFFFFFF AND TIMESTAMP LT ISZERO PUSH2 0x9F2 JUMPI PUSH1 0x40 MLOAD PUSH32 0x8C379A000000000000000000000000000000000000000000000000000000000 DUP2 MSTORE PUSH1 0x4 ADD PUSH2 0x9E9 SWAP1 PUSH2 0x129F JUMP JUMPDEST PUSH1 0x40 MLOAD DUP1 SWAP2 SUB SWAP1 REVERT JUMPDEST PUSH1 0x1 PUSH0 PUSH1 0x5 PUSH2 0x100 EXP DUP2 SLOAD DUP2 PUSH1 0xFF MUL NOT AND SWAP1 DUP4 ISZERO ISZERO MUL OR SWAP1 SSTORE POP PUSH0 PUSH20 0xFFFFFFFFFFFFFFFFFFFFFFFFFFFFFFFFFFFFFFFF AND PUSH0 PUSH1 0x6 SWAP1 SLOAD SWAP1 PUSH2 0x100 EXP SWAP1 DIV PUSH20 0xFFFFFFFFFFFFFFFFFFFFFFFFFFFFFFFFFFFFFFFF AND PUSH20 0xFFFFFFFFFFFFFFFFFFFFFFFFFFFFFFFFFFFFFFFF AND EQ PUSH2 0xB96 JUMPI PUSH32 0x0 PUSH20 0xFFFFFFFFFFFFFFFFFFFFFFFFFFFFFFFFFFFFFFFF AND PUSH4 0x23B872DD ADDRESS PUSH0 PUSH1 0x6 SWAP1 SLOAD SWAP1 PUSH2 0x100 EXP SWAP1 DIV PUSH20 0xFFFFFFFFFFFFFFFFFFFFFFFFFFFFFFFFFFFFFFFF AND PUSH32 0x0 PUSH1 0x40 MLOAD DUP5 PUSH4 0xFFFFFFFF AND PUSH1 0xE0 SHL DUP2 MSTORE PUSH1 0x4 ADD PUSH2 0xAFE SWAP4 SWAP3 SWAP2 SWAP1 PUSH2 0x12BD JUMP JUMPDEST PUSH0 PUSH1 0x40 MLOAD DUP1 DUP4 SUB DUP2 PUSH0 DUP8 DUP1 EXTCODESIZE ISZERO DUP1 ISZERO PUSH2 0xB15 JUMPI PUSH0 DUP1 REVERT JUMPDEST POP GAS CALL ISZERO DUP1 ISZERO PUSH2 0xB27 JUMPI RETURNDATASIZE PUSH0 DUP1 RETURNDATACOPY RETURNDATASIZE PUSH0 REVERT JUMPDEST POP POP POP POP PUSH32 0x0 PUSH20 0xFFFFFFFFFFFFFFFFFFFFFFFFFFFFFFFFFFFFFFFF AND PUSH2 0x8FC PUSH1 0x1 SLOAD SWAP1 DUP2 ISZERO MUL SWAP1 PUSH1 0x40 MLOAD PUSH0 PUSH1 0x40 MLOAD DUP1 DUP4 SUB DUP2 DUP6 DUP9 DUP9 CALL SWAP4 POP POP POP POP ISZERO DUP1 ISZERO PUSH2 0xB90 JUMPI RETURNDATASIZE PUSH0 DUP1 RETURNDATACOPY RETURNDATASIZE PUSH0 REVERT JUMPDEST POP PUSH2 0xC61 JUMP JUMPDEST PUSH32 0x0 PUSH20 0xFFFFFFFFFFFFFFFFFFFFFFFFFFFFFFFFFFFFFFFF AND PUSH4 0x23B872DD ADDRESS PUSH32 0x0 PUSH32 0x0 PUSH1 0x40 MLOAD DUP5 PUSH4 0xFFFFFFFF AND PUSH1 0xE0 SHL DUP2 MSTORE PUSH1 0x4 ADD PUSH2 0xC33 SWAP4 SWAP3 SWAP2 SWAP1 PUSH2 0x12F2 JUMP JUMPDEST PUSH0 PUSH1 0x40 MLOAD DUP1 DUP4 SUB DUP2 PUSH0 DUP8 DUP1 EXTCODESIZE ISZERO DUP1 ISZERO PUSH2 0xC4A JUMPI PUSH0 DUP1 REVERT JUMPDEST POP GAS CALL ISZERO DUP1 ISZERO PUSH2 0xC5C JUMPI RETURNDATASIZE PUSH0 DUP1 RETURNDATACOPY RETURNDATASIZE PUSH0 REVERT JUMPDEST POP POP POP POP JUMPDEST PUSH32 0x7D7570B046E5EAD3A4F3FBC9FA2445113625A1E79823776146316BAFED6B8CC5 PUSH0 PUSH1 0x6 SWAP1 SLOAD SWAP1 PUSH2 0x100 EXP SWAP1 DIV PUSH20 0xFFFFFFFFFFFFFFFFFFFFFFFFFFFFFFFFFFFFFFFF AND PUSH1 0x1 SLOAD PUSH1 0x40 MLOAD PUSH2 0xCB5 SWAP3 SWAP2 SWAP1 PUSH2 0x1327 JUMP JUMPDEST PUSH1 0x40 MLOAD DUP1 SWAP2 SUB SWAP1 LOG1 JUMP JUMPDEST PUSH0 PUSH20 0xFFFFFFFFFFFFFFFFFFFFFFFFFFFFFFFFFFFFFFFF DUP3 AND SWAP1 POP SWAP2 SWAP1 POP JUMP JUMPDEST PUSH0 PUSH2 0xCE8 DUP3 PUSH2 0xCBF JUMP JUMPDEST SWAP1 POP SWAP2 SWAP1 POP JUMP JUMPDEST PUSH2 0xCF8 DUP2 PUSH2 0xCDE JUMP JUMPDEST DUP3 MSTORE POP POP JUMP JUMPDEST PUSH0 PUSH1 0x20 DUP3 ADD SWAP1 POP PUSH2 0xD11 PUSH0 DUP4 ADD DUP5 PUSH2 0xCEF JUMP JUMPDEST SWAP3 SWAP2 POP POP JUMP JUMPDEST PUSH0 DUP2 ISZERO ISZERO SWAP1 POP SWAP2 SWAP1 POP JUMP JUMPDEST PUSH2 0xD2B DUP2 PUSH2 0xD17 JUMP JUMPDEST DUP3 MSTORE POP POP JUMP JUMPDEST PUSH0 PUSH1 0x20 DUP3 ADD SWAP1 POP PUSH2 0xD44 PUSH0 DUP4 ADD DUP5 PUSH2 0xD22 JUMP JUMPDEST SWAP3 SWAP2 POP POP JUMP JUMPDEST PUSH0 DUP2 SWAP1 POP SWAP2 SWAP1 POP JUMP JUMPDEST PUSH0 PUSH2 0xD6D PUSH2 0xD68 PUSH2 0xD63 DUP5 PUSH2 0xCBF JUMP JUMPDEST PUSH2 0xD4A JUMP JUMPDEST PUSH2 0xCBF JUMP JUMPDEST SWAP1 POP SWAP2 SWAP1 POP JUMP JUMPDEST PUSH0 PUSH2 0xD7E DUP3 PUSH2 0xD53 JUMP JUMPDEST SWAP1 POP SWAP2 SWAP1 POP JUMP JUMPDEST PUSH0 PUSH2 0xD8F DUP3 PUSH2 0xD74 JUMP JUMPDEST SWAP1 POP SWAP2 SWAP1 POP JUMP JUMPDEST PUSH2 0xD9F DUP2 PUSH2 0xD85 JUMP JUMPDEST DUP3 MSTORE POP POP JUMP JUMPDEST PUSH0 PUSH1 0x20 DUP3 ADD SWAP1 POP PUSH2 0xDB8 PUSH0 DUP4 ADD DUP5 PUSH2 0xD96 JUMP JUMPDEST SWAP3 SWAP2 POP POP JUMP JUMPDEST PUSH0 DUP1 REVERT JUMPDEST PUSH0 PUSH2 0xDCC DUP3 PUSH2 0xCBF JUMP JUMPDEST SWAP1 POP SWAP2 SWAP1 POP JUMP JUMPDEST PUSH2 0xDDC DUP2 PUSH2 0xDC2 JUMP JUMPDEST DUP2 EQ PUSH2 0xDE6 JUMPI PUSH0 DUP1 REVERT JUMPDEST POP JUMP JUMPDEST PUSH0 DUP2 CALLDATALOAD SWAP1 POP PUSH2 0xDF7 DUP2 PUSH2 0xDD3 JUMP JUMPDEST SWAP3 SWAP2 POP POP JUMP JUMPDEST PUSH0 PUSH1 0x20 DUP3 DUP5 SUB SLT ISZERO PUSH2 0xE12 JUMPI PUSH2 0xE11 PUSH2 0xDBE JUMP JUMPDEST JUMPDEST PUSH0 PUSH2 0xE1F DUP5 DUP3 DUP6 ADD PUSH2 0xDE9 JUMP JUMPDEST SWAP2 POP POP SWAP3 SWAP2 POP POP JUMP JUMPDEST PUSH0 DUP2 SWAP1 POP SWAP2 SWAP1 POP JUMP JUMPDEST PUSH2 0xE3A DUP2 PUSH2 0xE28 JUMP JUMPDEST DUP3 MSTORE POP POP JUMP JUMPDEST PUSH0 PUSH1 0x20 DUP3 ADD SWAP1 POP PUSH2 0xE53 PUSH0 DUP4 ADD DUP5 PUSH2 0xE31 JUMP JUMPDEST SWAP3 SWAP2 POP POP JUMP JUMPDEST PUSH0 PUSH4 0xFFFFFFFF DUP3 AND SWAP1 POP SWAP2 SWAP1 POP JUMP JUMPDEST PUSH2 0xE71 DUP2 PUSH2 0xE59 JUMP JUMPDEST DUP3 MSTORE POP POP JUMP JUMPDEST PUSH0 PUSH1 0x20 DUP3 ADD SWAP1 POP PUSH2 0xE8A PUSH0 DUP4 ADD DUP5 PUSH2 0xE68 JUMP JUMPDEST SWAP3 SWAP2 POP POP JUMP JUMPDEST PUSH2 0xE99 DUP2 PUSH2 0xDC2 JUMP JUMPDEST DUP3 MSTORE POP POP JUMP JUMPDEST PUSH0 PUSH1 0x20 DUP3 ADD SWAP1 POP PUSH2 0xEB2 PUSH0 DUP4 ADD DUP5 PUSH2 0xE90 JUMP JUMPDEST SWAP3 SWAP2 POP POP JUMP JUMPDEST PUSH0 DUP3 DUP3 MSTORE PUSH1 0x20 DUP3 ADD SWAP1 POP SWAP3 SWAP2 POP POP JUMP JUMPDEST PUSH32 0x6E6F742073746172742100000000000000000000000000000000000000000000 PUSH0 DUP3 ADD MSTORE POP JUMP JUMPDEST PUSH0 PUSH2 0xEFC PUSH1 0xA DUP4 PUSH2 0xEB8 JUMP JUMPDEST SWAP2 POP PUSH2 0xF07 DUP3 PUSH2 0xEC8 JUMP JUMPDEST PUSH1 0x20 DUP3 ADD SWAP1 POP SWAP2 SWAP1 POP JUMP JUMPDEST PUSH0 PUSH1 0x20 DUP3 ADD SWAP1 POP DUP2 DUP2 SUB PUSH0 DUP4 ADD MSTORE PUSH2 0xF29 DUP2 PUSH2 0xEF0 JUMP JUMPDEST SWAP1 POP SWAP2 SWAP1 POP JUMP JUMPDEST PUSH32 0x62696420697320656E6465642100000000000000000000000000000000000000 PUSH0 DUP3 ADD MSTORE POP JUMP JUMPDEST PUSH0 PUSH2 0xF64 PUSH1 0xD DUP4 PUSH2 0xEB8 JUMP JUMPDEST SWAP2 POP PUSH2 0xF6F DUP3 PUSH2 0xF30 JUMP JUMPDEST PUSH1 0x20 DUP3 ADD SWAP1 POP SWAP2 SWAP1 POP JUMP JUMPDEST PUSH0 PUSH1 0x20 DUP3 ADD SWAP1 POP DUP2 DUP2 SUB PUSH0 DUP4 ADD MSTORE PUSH2 0xF91 DUP2 PUSH2 0xF58 JUMP JUMPDEST SWAP1 POP SWAP2 SWAP1 POP JUMP JUMPDEST PUSH32 0x76616C7565203C20686967686573744269640000000000000000000000000000 PUSH0 DUP3 ADD MSTORE POP JUMP JUMPDEST PUSH0 PUSH2 0xFCC PUSH1 0x12 DUP4 PUSH2 0xEB8 JUMP JUMPDEST SWAP2 POP PUSH2 0xFD7 DUP3 PUSH2 0xF98 JUMP JUMPDEST PUSH1 0x20 DUP3 ADD SWAP1 POP SWAP2 SWAP1 POP JUMP JUMPDEST PUSH0 PUSH1 0x20 DUP3 ADD SWAP1 POP DUP2 DUP2 SUB PUSH0 DUP4 ADD MSTORE PUSH2 0xFF9 DUP2 PUSH2 0xFC0 JUMP JUMPDEST SWAP1 POP SWAP2 SWAP1 POP JUMP JUMPDEST PUSH32 0x4E487B7100000000000000000000000000000000000000000000000000000000 PUSH0 MSTORE PUSH1 0x11 PUSH1 0x4 MSTORE PUSH1 0x24 PUSH0 REVERT JUMPDEST PUSH0 PUSH2 0x1037 DUP3 PUSH2 0xE28 JUMP JUMPDEST SWAP2 POP PUSH2 0x1042 DUP4 PUSH2 0xE28 JUMP JUMPDEST SWAP3 POP DUP3 DUP3 ADD SWAP1 POP DUP1 DUP3 GT ISZERO PUSH2 0x105A JUMPI PUSH2 0x1059 PUSH2 0x1000 JUMP JUMPDEST JUMPDEST SWAP3 SWAP2 POP POP JUMP JUMPDEST PUSH32 0x6E6F742073656C6C657200000000000000000000000000000000000000000000 PUSH0 DUP3 ADD MSTORE POP JUMP JUMPDEST PUSH0 PUSH2 0x1094 PUSH1 0xA DUP4 PUSH2 0xEB8 JUMP JUMPDEST SWAP2 POP PUSH2 0x109F DUP3 PUSH2 0x1060 JUMP JUMPDEST PUSH1 0x20 DUP3 ADD SWAP1 POP SWAP2 SWAP1 POP JUMP JUMPDEST PUSH0 PUSH1 0x20 DUP3 ADD SWAP1 POP DUP2 DUP2 SUB PUSH0 DUP4 ADD MSTORE PUSH2 0x10C1 DUP2 PUSH2 0x1088 JUMP JUMPDEST SWAP1 POP SWAP2 SWAP1 POP JUMP JUMPDEST PUSH32 0x6861732073746172746564210000000000000000000000000000000000000000 PUSH0 DUP3 ADD MSTORE POP JUMP JUMPDEST PUSH0 PUSH2 0x10FC PUSH1 0xC DUP4 PUSH2 0xEB8 JUMP JUMPDEST SWAP2 POP PUSH2 0x1107 DUP3 PUSH2 0x10C8 JUMP JUMPDEST PUSH1 0x20 DUP3 ADD SWAP1 POP SWAP2 SWAP1 POP JUMP JUMPDEST PUSH0 PUSH1 0x20 DUP3 ADD SWAP1 POP DUP2 DUP2 SUB PUSH0 DUP4 ADD MSTORE PUSH2 0x1129 DUP2 PUSH2 0x10F0 JUMP JUMPDEST SWAP1 POP SWAP2 SWAP1 POP JUMP JUMPDEST PUSH0 PUSH2 0x113A DUP3 PUSH2 0xD74 JUMP JUMPDEST SWAP1 POP SWAP2 SWAP1 POP JUMP JUMPDEST PUSH2 0x114A DUP2 PUSH2 0x1130 JUMP JUMPDEST DUP3 MSTORE POP POP JUMP JUMPDEST PUSH0 PUSH1 0x60 DUP3 ADD SWAP1 POP PUSH2 0x1163 PUSH0 DUP4 ADD DUP7 PUSH2 0x1141 JUMP JUMPDEST PUSH2 0x1170 PUSH1 0x20 DUP4 ADD DUP6 PUSH2 0xE90 JUMP JUMPDEST PUSH2 0x117D PUSH1 0x40 DUP4 ADD DUP5 PUSH2 0xE31 JUMP JUMPDEST SWAP5 SWAP4 POP POP POP POP JUMP JUMPDEST PUSH32 0x6E6F742073746172740000000000000000000000000000000000000000000000 PUSH0 DUP3 ADD MSTORE POP JUMP JUMPDEST PUSH0 PUSH2 0x11B9 PUSH1 0x9 DUP4 PUSH2 0xEB8 JUMP JUMPDEST SWAP2 POP PUSH2 0x11C4 DUP3 PUSH2 0x1185 JUMP JUMPDEST PUSH1 0x20 DUP3 ADD SWAP1 POP SWAP2 SWAP1 POP JUMP JUMPDEST PUSH0 PUSH1 0x20 DUP3 ADD SWAP1 POP DUP2 DUP2 SUB PUSH0 DUP4 ADD MSTORE PUSH2 0x11E6 DUP2 PUSH2 0x11AD JUMP JUMPDEST SWAP1 POP SWAP2 SWAP1 POP JUMP JUMPDEST PUSH32 0x68617320656E6465642100000000000000000000000000000000000000000000 PUSH0 DUP3 ADD MSTORE POP JUMP JUMPDEST PUSH0 PUSH2 0x1221 PUSH1 0xA DUP4 PUSH2 0xEB8 JUMP JUMPDEST SWAP2 POP PUSH2 0x122C DUP3 PUSH2 0x11ED JUMP JUMPDEST PUSH1 0x20 DUP3 ADD SWAP1 POP SWAP2 SWAP1 POP JUMP JUMPDEST PUSH0 PUSH1 0x20 DUP3 ADD SWAP1 POP DUP2 DUP2 SUB PUSH0 DUP4 ADD MSTORE PUSH2 0x124E DUP2 PUSH2 0x1215 JUMP JUMPDEST SWAP1 POP SWAP2 SWAP1 POP JUMP JUMPDEST PUSH32 0x6E6F77203C3D20656E642074696D652100000000000000000000000000000000 PUSH0 DUP3 ADD MSTORE POP JUMP JUMPDEST PUSH0 PUSH2 0x1289 PUSH1 0x10 DUP4 PUSH2 0xEB8 JUMP JUMPDEST SWAP2 POP PUSH2 0x1294 DUP3 PUSH2 0x1255 JUMP JUMPDEST PUSH1 0x20 DUP3 ADD SWAP1 POP SWAP2 SWAP1 POP JUMP JUMPDEST PUSH0 PUSH1 0x20 DUP3 ADD SWAP1 POP DUP2 DUP2 SUB PUSH0 DUP4 ADD MSTORE PUSH2 0x12B6 DUP2 PUSH2 0x127D JUMP JUMPDEST SWAP1 POP SWAP2 SWAP1 POP JUMP JUMPDEST PUSH0 PUSH1 0x60 DUP3 ADD SWAP1 POP PUSH2 0x12D0 PUSH0 DUP4 ADD DUP7 PUSH2 0xE90 JUMP JUMPDEST PUSH2 0x12DD PUSH1 0x20 DUP4 ADD DUP6 PUSH2 0xE90 JUMP JUMPDEST PUSH2 0x12EA PUSH1 0x40 DUP4 ADD DUP5 PUSH2 0xE31 JUMP JUMPDEST SWAP5 SWAP4 POP POP POP POP JUMP JUMPDEST PUSH0 PUSH1 0x60 DUP3 ADD SWAP1 POP PUSH2 0x1305 PUSH0 DUP4 ADD DUP7 PUSH2 0xE90 JUMP JUMPDEST PUSH2 0x1312 PUSH1 0x20 DUP4 ADD DUP6 PUSH2 0x1141 JUMP JUMPDEST PUSH2 0x131F PUSH1 0x40 DUP4 ADD DUP5 PUSH2 0xE31 JUMP JUMPDEST SWAP5 SWAP4 POP POP POP POP JUMP JUMPDEST PUSH0 PUSH1 0x40 DUP3 ADD SWAP1 POP PUSH2 0x133A PUSH0 DUP4 ADD DUP6 PUSH2 0xE90 JUMP JUMPDEST PUSH2 0x1347 PUSH1 0x20 DUP4 ADD DUP5 PUSH2 0xE31 JUMP JUMPDEST SWAP4 SWAP3 POP POP POP JUMP INVALID LOG2 PUSH5 0x6970667358 0x22 SLT KECCAK256 BALANCE PUSH30 0x64398849B68916AC149A6360D753C5FE614CA98180B3DF5269052FFA62D4 PUSH5 0x736F6C6343 STOP ADDMOD OR STOP CALLER "
				},
				"gasEstimates": {
					"creation": {
						"codeDepositCost": "999200",
						"executionCost": "infinite",
						"totalCost": "infinite"
					},
					"external": {
						"bid()": "infinite",
						"bids(address)": "2825",
						"end()": "infinite",
						"endAt()": "2508",
						"ended()": "2539",
						"highestBid()": "2491",
						"hightestBidder()": "2602",
						"nft()": "infinite",
						"nftId()": "infinite",
						"seller()": "infinite",
						"start()": "infinite",
						"started()": "2583",
						"withdraw()": "infinite"
					}
				},
				"methodIdentifiers": {
					"bid()": "1998aeef",
					"bids(address)": "62ea82db",
					"end()": "efbe1c1c",
					"endAt()": "7cc3ae8c",
					"ended()": "12fa6feb",
					"highestBid()": "d57bde79",
					"hightestBidder()": "c6cf27da",
					"nft()": "47ccca02",
					"nftId()": "c6bc5182",
					"seller()": "08551a53",
					"start()": "be9a6555",
					"started()": "1f2698ab",
					"withdraw()": "3ccfd60b"
				}
			},
			"storageLayout": {
				"storage": [
					{
						"astId": 40,
						"contract": "055EnglishAuction.sol:EnglishAuction",
						"label": "endAt",
						"offset": 0,
						"slot": "0",
						"type": "t_uint32"
					},
					{
						"astId": 42,
						"contract": "055EnglishAuction.sol:EnglishAuction",
						"label": "started",
						"offset": 4,
						"slot": "0",
						"type": "t_bool"
					},
					{
						"astId": 44,
						"contract": "055EnglishAuction.sol:EnglishAuction",
						"label": "ended",
						"offset": 5,
						"slot": "0",
						"type": "t_bool"
					},
					{
						"astId": 46,
						"contract": "055EnglishAuction.sol:EnglishAuction",
						"label": "hightestBidder",
						"offset": 6,
						"slot": "0",
						"type": "t_address"
					},
					{
						"astId": 48,
						"contract": "055EnglishAuction.sol:EnglishAuction",
						"label": "highestBid",
						"offset": 0,
						"slot": "1",
						"type": "t_uint256"
					},
					{
						"astId": 52,
						"contract": "055EnglishAuction.sol:EnglishAuction",
						"label": "bids",
						"offset": 0,
						"slot": "2",
						"type": "t_mapping(t_address,t_uint256)"
					}
				],
				"types": {
					"t_address": {
						"encoding": "inplace",
						"label": "address",
						"numberOfBytes": "20"
					},
					"t_bool": {
						"encoding": "inplace",
						"label": "bool",
						"numberOfBytes": "1"
					},
					"t_mapping(t_address,t_uint256)": {
						"encoding": "mapping",
						"key": "t_address",
						"label": "mapping(address => uint256)",
						"numberOfBytes": "32",
						"value": "t_uint256"
					},
					"t_uint256": {
						"encoding": "inplace",
						"label": "uint256",
						"numberOfBytes": "32"
					},
					"t_uint32": {
						"encoding": "inplace",
						"label": "uint32",
						"numberOfBytes": "4"
					}
				}
			},
			"userdoc": {
				"kind": "user",
				"methods": {},
				"version": 1
			}
		}
	}
}