{
	"data": {
		"bytecode": {
			"linkReferences": {},
			"object": "608060405234801561000f575f80fd5b50610c518061001d5f395ff3fe608060405234801561000f575f80fd5b5060043610610034575f3560e01c8063bb070d3914610038578063e5c5e9a314610068575b5f80fd5b610052600480360381019061004d9190610267565b61009b565b60405161005f9190610391565b60405180910390f35b610082600480360381019061007d9190610406565b6100d0565b6040516100929493929190610631565b60405180910390f35b606085858585856040516020016100b69594939291906107f8565b604051602081830303815290604052905095945050505050565b5f8060606100dc610104565b85858101906100eb9190610b7f565b8094508195508296508397505050505092959194509250565b60405180604001604052806060815260200161011e610124565b81525090565b6040518060400160405280600290602082028036833780820191505090505090565b5f604051905090565b5f80fd5b5f80fd5b5f73ffffffffffffffffffffffffffffffffffffffff82169050919050565b5f61018082610157565b9050919050565b61019081610176565b811461019a575f80fd5b50565b5f813590506101ab81610187565b92915050565b5f819050919050565b6101c3816101b1565b81146101cd575f80fd5b50565b5f813590506101de816101ba565b92915050565b5f80fd5b5f80fd5b5f80fd5b5f8083601f840112610205576102046101e4565b5b8235905067ffffffffffffffff811115610222576102216101e8565b5b60208301915083602082028301111561023e5761023d6101ec565b5b9250929050565b5f80fd5b5f6060828403121561025e5761025d610245565b5b81905092915050565b5f805f805f608086880312156102805761027f61014f565b5b5f61028d8882890161019d565b955050602061029e888289016101d0565b945050604086013567ffffffffffffffff8111156102bf576102be610153565b5b6102cb888289016101f0565b9350935050606086013567ffffffffffffffff8111156102ee576102ed610153565b5b6102fa88828901610249565b9150509295509295909350565b5f81519050919050565b5f82825260208201905092915050565b5f5b8381101561033e578082015181840152602081019050610323565b5f8484015250505050565b5f601f19601f8301169050919050565b5f61036382610307565b61036d8185610311565b935061037d818560208601610321565b61038681610349565b840191505092915050565b5f6020820190508181035f8301526103a98184610359565b905092915050565b5f8083601f8401126103c6576103c56101e4565b5b8235905067ffffffffffffffff8111156103e3576103e26101e8565b5b6020830191508360018202830111156103ff576103fe6101ec565b5b9250929050565b5f806020838503121561041c5761041b61014f565b5b5f83013567ffffffffffffffff81111561043957610438610153565b5b610445858286016103b1565b92509250509250929050565b61045a81610176565b82525050565b610469816101b1565b82525050565b5f81519050919050565b5f82825260208201905092915050565b5f819050602082019050919050565b6104a1816101b1565b82525050565b5f6104b28383610498565b60208301905092915050565b5f602082019050919050565b5f6104d48261046f565b6104de8185610479565b93506104e983610489565b805f5b8381101561051957815161050088826104a7565b975061050b836104be565b9250506001810190506104ec565b5085935050505092915050565b5f81519050919050565b5f82825260208201905092915050565b5f61054a82610526565b6105548185610530565b9350610564818560208601610321565b61056d81610349565b840191505092915050565b5f60029050919050565b5f81905092915050565b5f819050919050565b5f602082019050919050565b6105aa81610578565b6105b48184610582565b92506105bf8261058c565b805f5b838110156105ef5781516105d687826104a7565b96506105e183610595565b9250506001810190506105c2565b505050505050565b5f606083015f8301518482035f8601526106118282610540565b915050602083015161062660208601826105a1565b508091505092915050565b5f6080820190506106445f830187610451565b6106516020830186610460565b818103604083015261066381856104ca565b9050818103606083015261067781846105f7565b905095945050505050565b5f80fd5b82818337505050565b5f61069a8385610479565b93507f07ffffffffffffffffffffffffffffffffffffffffffffffffffffffffffffff8311156106cd576106cc610682565b5b6020830292506106de838584610686565b82840190509392505050565b5f80fd5b5f80fd5b5f80fd5b5f8083356001602003843603038112610712576107116106f2565b5b83810192508235915060208301925067ffffffffffffffff82111561073a576107396106ea565b5b6001820236038313156107505761074f6106ee565b5b509250929050565b828183375f83830152505050565b5f6107718385610530565b935061077e838584610758565b61078783610349565b840190509392505050565b5f82905092915050565b6107a860408383610686565b5050565b5f606083016107bd5f8401846106f6565b8583035f8701526107cf838284610766565b925050506107e06020840184610792565b6107ed602086018261079c565b508091505092915050565b5f60808201905061080b5f830188610451565b6108186020830187610460565b818103604083015261082b81858761068f565b9050818103606083015261083f81846107ac565b90509695505050505050565b5f61085582610157565b9050919050565b6108658161084b565b811461086f575f80fd5b50565b5f813590506108808161085c565b92915050565b7f4e487b71000000000000000000000000000000000000000000000000000000005f52604160045260245ffd5b6108bc82610349565b810181811067ffffffffffffffff821117156108db576108da610886565b5b80604052505050565b5f6108ed610146565b90506108f982826108b3565b919050565b5f67ffffffffffffffff82111561091857610917610886565b5b602082029050602081019050919050565b5f61093b610936846108fe565b6108e4565b9050808382526020820190506020840283018581111561095e5761095d6101ec565b5b835b81811015610987578061097388826101d0565b845260208401935050602081019050610960565b5050509392505050565b5f82601f8301126109a5576109a46101e4565b5b81356109b5848260208601610929565b91505092915050565b5f80fd5b5f80fd5b5f80fd5b5f67ffffffffffffffff8211156109e4576109e3610886565b5b6109ed82610349565b9050602081019050919050565b5f610a0c610a07846109ca565b6108e4565b905082815260208101848484011115610a2857610a276109c6565b5b610a33848285610758565b509392505050565b5f82601f830112610a4f57610a4e6101e4565b5b8135610a5f8482602086016109fa565b91505092915050565b5f67ffffffffffffffff821115610a8257610a81610886565b5b602082029050919050565b5f610a9f610a9a84610a68565b6108e4565b90508060208402830185811115610ab957610ab86101ec565b5b835b81811015610ae25780610ace88826101d0565b845260208401935050602081019050610abb565b5050509392505050565b5f82601f830112610b0057610aff6101e4565b5b6002610b0d848285610a8d565b91505092915050565b5f60608284031215610b2b57610b2a6109be565b5b610b3560406108e4565b90505f82013567ffffffffffffffff811115610b5457610b536109c2565b5b610b6084828501610a3b565b5f830152506020610b7384828501610aec565b60208301525092915050565b5f805f8060808587031215610b9757610b9661014f565b5b5f610ba487828801610872565b9450506020610bb5878288016101d0565b935050604085013567ffffffffffffffff811115610bd657610bd5610153565b5b610be287828801610991565b925050606085013567ffffffffffffffff811115610c0357610c02610153565b5b610c0f87828801610b16565b9150509295919450925056fea2646970667358221220b4eb61918653c39dfcd88b95548535681a139f916935a0725cea797b6edd94aa64736f6c63430008170033",
			"opcodes": "PUSH1 0x80 PUSH1 0x40 MSTORE CALLVALUE DUP1 ISZERO PUSH2 0xF JUMPI PUSH0 DUP1 REVERT JUMPDEST POP PUSH2 0xC51 DUP1 PUSH2 0x1D PUSH0 CODECOPY PUSH0 RETURN INVALID PUSH1 0x80 PUSH1 0x40 MSTORE CALLVALUE DUP1 ISZERO PUSH2 0xF JUMPI PUSH0 DUP1 REVERT JUMPDEST POP PUSH1 0x4 CALLDATASIZE LT PUSH2 0x34 JUMPI PUSH0 CALLDATALOAD PUSH1 0xE0 SHR DUP1 PUSH4 0xBB070D39 EQ PUSH2 0x38 JUMPI DUP1 PUSH4 0xE5C5E9A3 EQ PUSH2 0x68 JUMPI JUMPDEST PUSH0 DUP1 REVERT JUMPDEST PUSH2 0x52 PUSH1 0x4 DUP1 CALLDATASIZE SUB DUP2 ADD SWAP1 PUSH2 0x4D SWAP2 SWAP1 PUSH2 0x267 JUMP JUMPDEST PUSH2 0x9B JUMP JUMPDEST PUSH1 0x40 MLOAD PUSH2 0x5F SWAP2 SWAP1 PUSH2 0x391 JUMP JUMPDEST PUSH1 0x40 MLOAD DUP1 SWAP2 SUB SWAP1 RETURN JUMPDEST PUSH2 0x82 PUSH1 0x4 DUP1 CALLDATASIZE SUB DUP2 ADD SWAP1 PUSH2 0x7D SWAP2 SWAP1 PUSH2 0x406 JUMP JUMPDEST PUSH2 0xD0 JUMP JUMPDEST PUSH1 0x40 MLOAD PUSH2 0x92 SWAP5 SWAP4 SWAP3 SWAP2 SWAP1 PUSH2 0x631 JUMP JUMPDEST PUSH1 0x40 MLOAD DUP1 SWAP2 SUB SWAP1 RETURN JUMPDEST PUSH1 0x60 DUP6 DUP6 DUP6 DUP6 DUP6 PUSH1 0x40 MLOAD PUSH1 0x20 ADD PUSH2 0xB6 SWAP6 SWAP5 SWAP4 SWAP3 SWAP2 SWAP1 PUSH2 0x7F8 JUMP JUMPDEST PUSH1 0x40 MLOAD PUSH1 0x20 DUP2 DUP4 SUB SUB DUP2 MSTORE SWAP1 PUSH1 0x40 MSTORE SWAP1 POP SWAP6 SWAP5 POP POP POP POP POP JUMP JUMPDEST PUSH0 DUP1 PUSH1 0x60 PUSH2 0xDC PUSH2 0x104 JUMP JUMPDEST DUP6 DUP6 DUP2 ADD SWAP1 PUSH2 0xEB SWAP2 SWAP1 PUSH2 0xB7F JUMP JUMPDEST DUP1 SWAP5 POP DUP2 SWAP6 POP DUP3 SWAP7 POP DUP4 SWAP8 POP POP POP POP POP SWAP3 SWAP6 SWAP2 SWAP5 POP SWAP3 POP JUMP JUMPDEST PUSH1 0x40 MLOAD DUP1 PUSH1 0x40 ADD PUSH1 0x40 MSTORE DUP1 PUSH1 0x60 DUP2 MSTORE PUSH1 0x20 ADD PUSH2 0x11E PUSH2 0x124 JUMP JUMPDEST DUP2 MSTORE POP SWAP1 JUMP JUMPDEST PUSH1 0x40 MLOAD DUP1 PUSH1 0x40 ADD PUSH1 0x40 MSTORE DUP1 PUSH1 0x2 SWAP1 PUSH1 0x20 DUP3 MUL DUP1 CALLDATASIZE DUP4 CALLDATACOPY DUP1 DUP3 ADD SWAP2 POP POP SWAP1 POP POP SWAP1 JUMP JUMPDEST PUSH0 PUSH1 0x40 MLOAD SWAP1 POP SWAP1 JUMP JUMPDEST PUSH0 DUP1 REVERT JUMPDEST PUSH0 DUP1 REVERT JUMPDEST PUSH0 PUSH20 0xFFFFFFFFFFFFFFFFFFFFFFFFFFFFFFFFFFFFFFFF DUP3 AND SWAP1 POP SWAP2 SWAP1 POP JUMP JUMPDEST PUSH0 PUSH2 0x180 DUP3 PUSH2 0x157 JUMP JUMPDEST SWAP1 POP SWAP2 SWAP1 POP JUMP JUMPDEST PUSH2 0x190 DUP2 PUSH2 0x176 JUMP JUMPDEST DUP2 EQ PUSH2 0x19A JUMPI PUSH0 DUP1 REVERT JUMPDEST POP JUMP JUMPDEST PUSH0 DUP2 CALLDATALOAD SWAP1 POP PUSH2 0x1AB DUP2 PUSH2 0x187 JUMP JUMPDEST SWAP3 SWAP2 POP POP JUMP JUMPDEST PUSH0 DUP2 SWAP1 POP SWAP2 SWAP1 POP JUMP JUMPDEST PUSH2 0x1C3 DUP2 PUSH2 0x1B1 JUMP JUMPDEST DUP2 EQ PUSH2 0x1CD JUMPI PUSH0 DUP1 REVERT JUMPDEST POP JUMP JUMPDEST PUSH0 DUP2 CALLDATALOAD SWAP1 POP PUSH2 0x1DE DUP2 PUSH2 0x1BA JUMP JUMPDEST SWAP3 SWAP2 POP POP JUMP JUMPDEST PUSH0 DUP1 REVERT JUMPDEST PUSH0 DUP1 REVERT JUMPDEST PUSH0 DUP1 REVERT JUMPDEST PUSH0 DUP1 DUP4 PUSH1 0x1F DUP5 ADD SLT PUSH2 0x205 JUMPI PUSH2 0x204 PUSH2 0x1E4 JUMP JUMPDEST JUMPDEST DUP3 CALLDATALOAD SWAP1 POP PUSH8 0xFFFFFFFFFFFFFFFF DUP2 GT ISZERO PUSH2 0x222 JUMPI PUSH2 0x221 PUSH2 0x1E8 JUMP JUMPDEST JUMPDEST PUSH1 0x20 DUP4 ADD SWAP2 POP DUP4 PUSH1 0x20 DUP3 MUL DUP4 ADD GT ISZERO PUSH2 0x23E JUMPI PUSH2 0x23D PUSH2 0x1EC JUMP JUMPDEST JUMPDEST SWAP3 POP SWAP3 SWAP1 POP JUMP JUMPDEST PUSH0 DUP1 REVERT JUMPDEST PUSH0 PUSH1 0x60 DUP3 DUP5 SUB SLT ISZERO PUSH2 0x25E JUMPI PUSH2 0x25D PUSH2 0x245 JUMP JUMPDEST JUMPDEST DUP2 SWAP1 POP SWAP3 SWAP2 POP POP JUMP JUMPDEST PUSH0 DUP1 PUSH0 DUP1 PUSH0 PUSH1 0x80 DUP7 DUP9 SUB SLT ISZERO PUSH2 0x280 JUMPI PUSH2 0x27F PUSH2 0x14F JUMP JUMPDEST JUMPDEST PUSH0 PUSH2 0x28D DUP9 DUP3 DUP10 ADD PUSH2 0x19D JUMP JUMPDEST SWAP6 POP POP PUSH1 0x20 PUSH2 0x29E DUP9 DUP3 DUP10 ADD PUSH2 0x1D0 JUMP JUMPDEST SWAP5 POP POP PUSH1 0x40 DUP7 ADD CALLDATALOAD PUSH8 0xFFFFFFFFFFFFFFFF DUP2 GT ISZERO PUSH2 0x2BF JUMPI PUSH2 0x2BE PUSH2 0x153 JUMP JUMPDEST JUMPDEST PUSH2 0x2CB DUP9 DUP3 DUP10 ADD PUSH2 0x1F0 JUMP JUMPDEST SWAP4 POP SWAP4 POP POP PUSH1 0x60 DUP7 ADD CALLDATALOAD PUSH8 0xFFFFFFFFFFFFFFFF DUP2 GT ISZERO PUSH2 0x2EE JUMPI PUSH2 0x2ED PUSH2 0x153 JUMP JUMPDEST JUMPDEST PUSH2 0x2FA DUP9 DUP3 DUP10 ADD PUSH2 0x249 JUMP JUMPDEST SWAP2 POP POP SWAP3 SWAP6 POP SWAP3 SWAP6 SWAP1 SWAP4 POP JUMP JUMPDEST PUSH0 DUP2 MLOAD SWAP1 POP SWAP2 SWAP1 POP JUMP JUMPDEST PUSH0 DUP3 DUP3 MSTORE PUSH1 0x20 DUP3 ADD SWAP1 POP SWAP3 SWAP2 POP POP JUMP JUMPDEST PUSH0 JUMPDEST DUP4 DUP2 LT ISZERO PUSH2 0x33E JUMPI DUP1 DUP3 ADD MLOAD DUP2 DUP5 ADD MSTORE PUSH1 0x20 DUP2 ADD SWAP1 POP PUSH2 0x323 JUMP JUMPDEST PUSH0 DUP5 DUP5 ADD MSTORE POP POP POP POP JUMP JUMPDEST PUSH0 PUSH1 0x1F NOT PUSH1 0x1F DUP4 ADD AND SWAP1 POP SWAP2 SWAP1 POP JUMP JUMPDEST PUSH0 PUSH2 0x363 DUP3 PUSH2 0x307 JUMP JUMPDEST PUSH2 0x36D DUP2 DUP6 PUSH2 0x311 JUMP JUMPDEST SWAP4 POP PUSH2 0x37D DUP2 DUP6 PUSH1 0x20 DUP7 ADD PUSH2 0x321 JUMP JUMPDEST PUSH2 0x386 DUP2 PUSH2 0x349 JUMP JUMPDEST DUP5 ADD SWAP2 POP POP SWAP3 SWAP2 POP POP JUMP JUMPDEST PUSH0 PUSH1 0x20 DUP3 ADD SWAP1 POP DUP2 DUP2 SUB PUSH0 DUP4 ADD MSTORE PUSH2 0x3A9 DUP2 DUP5 PUSH2 0x359 JUMP JUMPDEST SWAP1 POP SWAP3 SWAP2 POP POP JUMP JUMPDEST PUSH0 DUP1 DUP4 PUSH1 0x1F DUP5 ADD SLT PUSH2 0x3C6 JUMPI PUSH2 0x3C5 PUSH2 0x1E4 JUMP JUMPDEST JUMPDEST DUP3 CALLDATALOAD SWAP1 POP PUSH8 0xFFFFFFFFFFFFFFFF DUP2 GT ISZERO PUSH2 0x3E3 JUMPI PUSH2 0x3E2 PUSH2 0x1E8 JUMP JUMPDEST JUMPDEST PUSH1 0x20 DUP4 ADD SWAP2 POP DUP4 PUSH1 0x1 DUP3 MUL DUP4 ADD GT ISZERO PUSH2 0x3FF JUMPI PUSH2 0x3FE PUSH2 0x1EC JUMP JUMPDEST JUMPDEST SWAP3 POP SWAP3 SWAP1 POP JUMP JUMPDEST PUSH0 DUP1 PUSH1 0x20 DUP4 DUP6 SUB SLT ISZERO PUSH2 0x41C JUMPI PUSH2 0x41B PUSH2 0x14F JUMP JUMPDEST JUMPDEST PUSH0 DUP4 ADD CALLDATALOAD PUSH8 0xFFFFFFFFFFFFFFFF DUP2 GT ISZERO PUSH2 0x439 JUMPI PUSH2 0x438 PUSH2 0x153 JUMP JUMPDEST JUMPDEST PUSH2 0x445 DUP6 DUP3 DUP7 ADD PUSH2 0x3B1 JUMP JUMPDEST SWAP3 POP SWAP3 POP POP SWAP3 POP SWAP3 SWAP1 POP JUMP JUMPDEST PUSH2 0x45A DUP2 PUSH2 0x176 JUMP JUMPDEST DUP3 MSTORE POP POP JUMP JUMPDEST PUSH2 0x469 DUP2 PUSH2 0x1B1 JUMP JUMPDEST DUP3 MSTORE POP POP JUMP JUMPDEST PUSH0 DUP2 MLOAD SWAP1 POP SWAP2 SWAP1 POP JUMP JUMPDEST PUSH0 DUP3 DUP3 MSTORE PUSH1 0x20 DUP3 ADD SWAP1 POP SWAP3 SWAP2 POP POP JUMP JUMPDEST PUSH0 DUP2 SWAP1 POP PUSH1 0x20 DUP3 ADD SWAP1 POP SWAP2 SWAP1 POP JUMP JUMPDEST PUSH2 0x4A1 DUP2 PUSH2 0x1B1 JUMP JUMPDEST DUP3 MSTORE POP POP JUMP JUMPDEST PUSH0 PUSH2 0x4B2 DUP4 DUP4 PUSH2 0x498 JUMP JUMPDEST PUSH1 0x20 DUP4 ADD SWAP1 POP SWAP3 SWAP2 POP POP JUMP JUMPDEST PUSH0 PUSH1 0x20 DUP3 ADD SWAP1 POP SWAP2 SWAP1 POP JUMP JUMPDEST PUSH0 PUSH2 0x4D4 DUP3 PUSH2 0x46F JUMP JUMPDEST PUSH2 0x4DE DUP2 DUP6 PUSH2 0x479 JUMP JUMPDEST SWAP4 POP PUSH2 0x4E9 DUP4 PUSH2 0x489 JUMP JUMPDEST DUP1 PUSH0 JUMPDEST DUP4 DUP2 LT ISZERO PUSH2 0x519 JUMPI DUP2 MLOAD PUSH2 0x500 DUP9 DUP3 PUSH2 0x4A7 JUMP JUMPDEST SWAP8 POP PUSH2 0x50B DUP4 PUSH2 0x4BE JUMP JUMPDEST SWAP3 POP POP PUSH1 0x1 DUP2 ADD SWAP1 POP PUSH2 0x4EC JUMP JUMPDEST POP DUP6 SWAP4 POP POP POP POP SWAP3 SWAP2 POP POP JUMP JUMPDEST PUSH0 DUP2 MLOAD SWAP1 POP SWAP2 SWAP1 POP JUMP JUMPDEST PUSH0 DUP3 DUP3 MSTORE PUSH1 0x20 DUP3 ADD SWAP1 POP SWAP3 SWAP2 POP POP JUMP JUMPDEST PUSH0 PUSH2 0x54A DUP3 PUSH2 0x526 JUMP JUMPDEST PUSH2 0x554 DUP2 DUP6 PUSH2 0x530 JUMP JUMPDEST SWAP4 POP PUSH2 0x564 DUP2 DUP6 PUSH1 0x20 DUP7 ADD PUSH2 0x321 JUMP JUMPDEST PUSH2 0x56D DUP2 PUSH2 0x349 JUMP JUMPDEST DUP5 ADD SWAP2 POP POP SWAP3 SWAP2 POP POP JUMP JUMPDEST PUSH0 PUSH1 0x2 SWAP1 POP SWAP2 SWAP1 POP JUMP JUMPDEST PUSH0 DUP2 SWAP1 POP SWAP3 SWAP2 POP POP JUMP JUMPDEST PUSH0 DUP2 SWAP1 POP SWAP2 SWAP1 POP JUMP JUMPDEST PUSH0 PUSH1 0x20 DUP3 ADD SWAP1 POP SWAP2 SWAP1 POP JUMP JUMPDEST PUSH2 0x5AA DUP2 PUSH2 0x578 JUMP JUMPDEST PUSH2 0x5B4 DUP2 DUP5 PUSH2 0x582 JUMP JUMPDEST SWAP3 POP PUSH2 0x5BF DUP3 PUSH2 0x58C JUMP JUMPDEST DUP1 PUSH0 JUMPDEST DUP4 DUP2 LT ISZERO PUSH2 0x5EF JUMPI DUP2 MLOAD PUSH2 0x5D6 DUP8 DUP3 PUSH2 0x4A7 JUMP JUMPDEST SWAP7 POP PUSH2 0x5E1 DUP4 PUSH2 0x595 JUMP JUMPDEST SWAP3 POP POP PUSH1 0x1 DUP2 ADD SWAP1 POP PUSH2 0x5C2 JUMP JUMPDEST POP POP POP POP POP POP JUMP JUMPDEST PUSH0 PUSH1 0x60 DUP4 ADD PUSH0 DUP4 ADD MLOAD DUP5 DUP3 SUB PUSH0 DUP7 ADD MSTORE PUSH2 0x611 DUP3 DUP3 PUSH2 0x540 JUMP JUMPDEST SWAP2 POP POP PUSH1 0x20 DUP4 ADD MLOAD PUSH2 0x626 PUSH1 0x20 DUP7 ADD DUP3 PUSH2 0x5A1 JUMP JUMPDEST POP DUP1 SWAP2 POP POP SWAP3 SWAP2 POP POP JUMP JUMPDEST PUSH0 PUSH1 0x80 DUP3 ADD SWAP1 POP PUSH2 0x644 PUSH0 DUP4 ADD DUP8 PUSH2 0x451 JUMP JUMPDEST PUSH2 0x651 PUSH1 0x20 DUP4 ADD DUP7 PUSH2 0x460 JUMP JUMPDEST DUP2 DUP2 SUB PUSH1 0x40 DUP4 ADD MSTORE PUSH2 0x663 DUP2 DUP6 PUSH2 0x4CA JUMP JUMPDEST SWAP1 POP DUP2 DUP2 SUB PUSH1 0x60 DUP4 ADD MSTORE PUSH2 0x677 DUP2 DUP5 PUSH2 0x5F7 JUMP JUMPDEST SWAP1 POP SWAP6 SWAP5 POP POP POP POP POP JUMP JUMPDEST PUSH0 DUP1 REVERT JUMPDEST DUP3 DUP2 DUP4 CALLDATACOPY POP POP POP JUMP JUMPDEST PUSH0 PUSH2 0x69A DUP4 DUP6 PUSH2 0x479 JUMP JUMPDEST SWAP4 POP PUSH32 0x7FFFFFFFFFFFFFFFFFFFFFFFFFFFFFFFFFFFFFFFFFFFFFFFFFFFFFFFFFFFFFF DUP4 GT ISZERO PUSH2 0x6CD JUMPI PUSH2 0x6CC PUSH2 0x682 JUMP JUMPDEST JUMPDEST PUSH1 0x20 DUP4 MUL SWAP3 POP PUSH2 0x6DE DUP4 DUP6 DUP5 PUSH2 0x686 JUMP JUMPDEST DUP3 DUP5 ADD SWAP1 POP SWAP4 SWAP3 POP POP POP JUMP JUMPDEST PUSH0 DUP1 REVERT JUMPDEST PUSH0 DUP1 REVERT JUMPDEST PUSH0 DUP1 REVERT JUMPDEST PUSH0 DUP1 DUP4 CALLDATALOAD PUSH1 0x1 PUSH1 0x20 SUB DUP5 CALLDATASIZE SUB SUB DUP2 SLT PUSH2 0x712 JUMPI PUSH2 0x711 PUSH2 0x6F2 JUMP JUMPDEST JUMPDEST DUP4 DUP2 ADD SWAP3 POP DUP3 CALLDATALOAD SWAP2 POP PUSH1 0x20 DUP4 ADD SWAP3 POP PUSH8 0xFFFFFFFFFFFFFFFF DUP3 GT ISZERO PUSH2 0x73A JUMPI PUSH2 0x739 PUSH2 0x6EA JUMP JUMPDEST JUMPDEST PUSH1 0x1 DUP3 MUL CALLDATASIZE SUB DUP4 SGT ISZERO PUSH2 0x750 JUMPI PUSH2 0x74F PUSH2 0x6EE JUMP JUMPDEST JUMPDEST POP SWAP3 POP SWAP3 SWAP1 POP JUMP JUMPDEST DUP3 DUP2 DUP4 CALLDATACOPY PUSH0 DUP4 DUP4 ADD MSTORE POP POP POP JUMP JUMPDEST PUSH0 PUSH2 0x771 DUP4 DUP6 PUSH2 0x530 JUMP JUMPDEST SWAP4 POP PUSH2 0x77E DUP4 DUP6 DUP5 PUSH2 0x758 JUMP JUMPDEST PUSH2 0x787 DUP4 PUSH2 0x349 JUMP JUMPDEST DUP5 ADD SWAP1 POP SWAP4 SWAP3 POP POP POP JUMP JUMPDEST PUSH0 DUP3 SWAP1 POP SWAP3 SWAP2 POP POP JUMP JUMPDEST PUSH2 0x7A8 PUSH1 0x40 DUP4 DUP4 PUSH2 0x686 JUMP JUMPDEST POP POP JUMP JUMPDEST PUSH0 PUSH1 0x60 DUP4 ADD PUSH2 0x7BD PUSH0 DUP5 ADD DUP5 PUSH2 0x6F6 JUMP JUMPDEST DUP6 DUP4 SUB PUSH0 DUP8 ADD MSTORE PUSH2 0x7CF DUP4 DUP3 DUP5 PUSH2 0x766 JUMP JUMPDEST SWAP3 POP POP POP PUSH2 0x7E0 PUSH1 0x20 DUP5 ADD DUP5 PUSH2 0x792 JUMP JUMPDEST PUSH2 0x7ED PUSH1 0x20 DUP7 ADD DUP3 PUSH2 0x79C JUMP JUMPDEST POP DUP1 SWAP2 POP POP SWAP3 SWAP2 POP POP JUMP JUMPDEST PUSH0 PUSH1 0x80 DUP3 ADD SWAP1 POP PUSH2 0x80B PUSH0 DUP4 ADD DUP9 PUSH2 0x451 JUMP JUMPDEST PUSH2 0x818 PUSH1 0x20 DUP4 ADD DUP8 PUSH2 0x460 JUMP JUMPDEST DUP2 DUP2 SUB PUSH1 0x40 DUP4 ADD MSTORE PUSH2 0x82B DUP2 DUP6 DUP8 PUSH2 0x68F JUMP JUMPDEST SWAP1 POP DUP2 DUP2 SUB PUSH1 0x60 DUP4 ADD MSTORE PUSH2 0x83F DUP2 DUP5 PUSH2 0x7AC JUMP JUMPDEST SWAP1 POP SWAP7 SWAP6 POP POP POP POP POP POP JUMP JUMPDEST PUSH0 PUSH2 0x855 DUP3 PUSH2 0x157 JUMP JUMPDEST SWAP1 POP SWAP2 SWAP1 POP JUMP JUMPDEST PUSH2 0x865 DUP2 PUSH2 0x84B JUMP JUMPDEST DUP2 EQ PUSH2 0x86F JUMPI PUSH0 DUP1 REVERT JUMPDEST POP JUMP JUMPDEST PUSH0 DUP2 CALLDATALOAD SWAP1 POP PUSH2 0x880 DUP2 PUSH2 0x85C JUMP JUMPDEST SWAP3 SWAP2 POP POP JUMP JUMPDEST PUSH32 0x4E487B7100000000000000000000000000000000000000000000000000000000 PUSH0 MSTORE PUSH1 0x41 PUSH1 0x4 MSTORE PUSH1 0x24 PUSH0 REVERT JUMPDEST PUSH2 0x8BC DUP3 PUSH2 0x349 JUMP JUMPDEST DUP2 ADD DUP2 DUP2 LT PUSH8 0xFFFFFFFFFFFFFFFF DUP3 GT OR ISZERO PUSH2 0x8DB JUMPI PUSH2 0x8DA PUSH2 0x886 JUMP JUMPDEST JUMPDEST DUP1 PUSH1 0x40 MSTORE POP POP POP JUMP JUMPDEST PUSH0 PUSH2 0x8ED PUSH2 0x146 JUMP JUMPDEST SWAP1 POP PUSH2 0x8F9 DUP3 DUP3 PUSH2 0x8B3 JUMP JUMPDEST SWAP2 SWAP1 POP JUMP JUMPDEST PUSH0 PUSH8 0xFFFFFFFFFFFFFFFF DUP3 GT ISZERO PUSH2 0x918 JUMPI PUSH2 0x917 PUSH2 0x886 JUMP JUMPDEST JUMPDEST PUSH1 0x20 DUP3 MUL SWAP1 POP PUSH1 0x20 DUP2 ADD SWAP1 POP SWAP2 SWAP1 POP JUMP JUMPDEST PUSH0 PUSH2 0x93B PUSH2 0x936 DUP5 PUSH2 0x8FE JUMP JUMPDEST PUSH2 0x8E4 JUMP JUMPDEST SWAP1 POP DUP1 DUP4 DUP3 MSTORE PUSH1 0x20 DUP3 ADD SWAP1 POP PUSH1 0x20 DUP5 MUL DUP4 ADD DUP6 DUP2 GT ISZERO PUSH2 0x95E JUMPI PUSH2 0x95D PUSH2 0x1EC JUMP JUMPDEST JUMPDEST DUP4 JUMPDEST DUP2 DUP2 LT ISZERO PUSH2 0x987 JUMPI DUP1 PUSH2 0x973 DUP9 DUP3 PUSH2 0x1D0 JUMP JUMPDEST DUP5 MSTORE PUSH1 0x20 DUP5 ADD SWAP4 POP POP PUSH1 0x20 DUP2 ADD SWAP1 POP PUSH2 0x960 JUMP JUMPDEST POP POP POP SWAP4 SWAP3 POP POP POP JUMP JUMPDEST PUSH0 DUP3 PUSH1 0x1F DUP4 ADD SLT PUSH2 0x9A5 JUMPI PUSH2 0x9A4 PUSH2 0x1E4 JUMP JUMPDEST JUMPDEST DUP2 CALLDATALOAD PUSH2 0x9B5 DUP5 DUP3 PUSH1 0x20 DUP7 ADD PUSH2 0x929 JUMP JUMPDEST SWAP2 POP POP SWAP3 SWAP2 POP POP JUMP JUMPDEST PUSH0 DUP1 REVERT JUMPDEST PUSH0 DUP1 REVERT JUMPDEST PUSH0 DUP1 REVERT JUMPDEST PUSH0 PUSH8 0xFFFFFFFFFFFFFFFF DUP3 GT ISZERO PUSH2 0x9E4 JUMPI PUSH2 0x9E3 PUSH2 0x886 JUMP JUMPDEST JUMPDEST PUSH2 0x9ED DUP3 PUSH2 0x349 JUMP JUMPDEST SWAP1 POP PUSH1 0x20 DUP2 ADD SWAP1 POP SWAP2 SWAP1 POP JUMP JUMPDEST PUSH0 PUSH2 0xA0C PUSH2 0xA07 DUP5 PUSH2 0x9CA JUMP JUMPDEST PUSH2 0x8E4 JUMP JUMPDEST SWAP1 POP DUP3 DUP2 MSTORE PUSH1 0x20 DUP2 ADD DUP5 DUP5 DUP5 ADD GT ISZERO PUSH2 0xA28 JUMPI PUSH2 0xA27 PUSH2 0x9C6 JUMP JUMPDEST JUMPDEST PUSH2 0xA33 DUP5 DUP3 DUP6 PUSH2 0x758 JUMP JUMPDEST POP SWAP4 SWAP3 POP POP POP JUMP JUMPDEST PUSH0 DUP3 PUSH1 0x1F DUP4 ADD SLT PUSH2 0xA4F JUMPI PUSH2 0xA4E PUSH2 0x1E4 JUMP JUMPDEST JUMPDEST DUP2 CALLDATALOAD PUSH2 0xA5F DUP5 DUP3 PUSH1 0x20 DUP7 ADD PUSH2 0x9FA JUMP JUMPDEST SWAP2 POP POP SWAP3 SWAP2 POP POP JUMP JUMPDEST PUSH0 PUSH8 0xFFFFFFFFFFFFFFFF DUP3 GT ISZERO PUSH2 0xA82 JUMPI PUSH2 0xA81 PUSH2 0x886 JUMP JUMPDEST JUMPDEST PUSH1 0x20 DUP3 MUL SWAP1 POP SWAP2 SWAP1 POP JUMP JUMPDEST PUSH0 PUSH2 0xA9F PUSH2 0xA9A DUP5 PUSH2 0xA68 JUMP JUMPDEST PUSH2 0x8E4 JUMP JUMPDEST SWAP1 POP DUP1 PUSH1 0x20 DUP5 MUL DUP4 ADD DUP6 DUP2 GT ISZERO PUSH2 0xAB9 JUMPI PUSH2 0xAB8 PUSH2 0x1EC JUMP JUMPDEST JUMPDEST DUP4 JUMPDEST DUP2 DUP2 LT ISZERO PUSH2 0xAE2 JUMPI DUP1 PUSH2 0xACE DUP9 DUP3 PUSH2 0x1D0 JUMP JUMPDEST DUP5 MSTORE PUSH1 0x20 DUP5 ADD SWAP4 POP POP PUSH1 0x20 DUP2 ADD SWAP1 POP PUSH2 0xABB JUMP JUMPDEST POP POP POP SWAP4 SWAP3 POP POP POP JUMP JUMPDEST PUSH0 DUP3 PUSH1 0x1F DUP4 ADD SLT PUSH2 0xB00 JUMPI PUSH2 0xAFF PUSH2 0x1E4 JUMP JUMPDEST JUMPDEST PUSH1 0x2 PUSH2 0xB0D DUP5 DUP3 DUP6 PUSH2 0xA8D JUMP JUMPDEST SWAP2 POP POP SWAP3 SWAP2 POP POP JUMP JUMPDEST PUSH0 PUSH1 0x60 DUP3 DUP5 SUB SLT ISZERO PUSH2 0xB2B JUMPI PUSH2 0xB2A PUSH2 0x9BE JUMP JUMPDEST JUMPDEST PUSH2 0xB35 PUSH1 0x40 PUSH2 0x8E4 JUMP JUMPDEST SWAP1 POP PUSH0 DUP3 ADD CALLDATALOAD PUSH8 0xFFFFFFFFFFFFFFFF DUP2 GT ISZERO PUSH2 0xB54 JUMPI PUSH2 0xB53 PUSH2 0x9C2 JUMP JUMPDEST JUMPDEST PUSH2 0xB60 DUP5 DUP3 DUP6 ADD PUSH2 0xA3B JUMP JUMPDEST PUSH0 DUP4 ADD MSTORE POP PUSH1 0x20 PUSH2 0xB73 DUP5 DUP3 DUP6 ADD PUSH2 0xAEC JUMP JUMPDEST PUSH1 0x20 DUP4 ADD MSTORE POP SWAP3 SWAP2 POP POP JUMP JUMPDEST PUSH0 DUP1 PUSH0 DUP1 PUSH1 0x80 DUP6 DUP8 SUB SLT ISZERO PUSH2 0xB97 JUMPI PUSH2 0xB96 PUSH2 0x14F JUMP JUMPDEST JUMPDEST PUSH0 PUSH2 0xBA4 DUP8 DUP3 DUP9 ADD PUSH2 0x872 JUMP JUMPDEST SWAP5 POP POP PUSH1 0x20 PUSH2 0xBB5 DUP8 DUP3 DUP9 ADD PUSH2 0x1D0 JUMP JUMPDEST SWAP4 POP POP PUSH1 0x40 DUP6 ADD CALLDATALOAD PUSH8 0xFFFFFFFFFFFFFFFF DUP2 GT ISZERO PUSH2 0xBD6 JUMPI PUSH2 0xBD5 PUSH2 0x153 JUMP JUMPDEST JUMPDEST PUSH2 0xBE2 DUP8 DUP3 DUP9 ADD PUSH2 0x991 JUMP JUMPDEST SWAP3 POP POP PUSH1 0x60 DUP6 ADD CALLDATALOAD PUSH8 0xFFFFFFFFFFFFFFFF DUP2 GT ISZERO PUSH2 0xC03 JUMPI PUSH2 0xC02 PUSH2 0x153 JUMP JUMPDEST JUMPDEST PUSH2 0xC0F DUP8 DUP3 DUP9 ADD PUSH2 0xB16 JUMP JUMPDEST SWAP2 POP POP SWAP3 SWAP6 SWAP2 SWAP5 POP SWAP3 POP JUMP INVALID LOG2 PUSH5 0x6970667358 0x22 SLT KECCAK256 0xB4 0xEB PUSH2 0x9186 MSTORE8 0xC3 SWAP14 0xFC 0xD8 DUP12 SWAP6 SLOAD DUP6 CALLDATALOAD PUSH9 0x1A139F916935A0725C 0xEA PUSH26 0x7B6EDD94AA64736F6C6343000817003300000000000000000000 "
		},
		"gasEstimates": {
			"creation": {
				"codeDepositCost": "630600",
				"executionCost": "662",
				"totalCost": "631262"
			},
			"external": {
				"decode(bytes)": "infinite",
				"encode(address,uint256,uint256[],(string,uint256[2]))": "infinite"
			}
		},
		"methodIdentifiers": {
			"decode(bytes)": "e5c5e9a3",
			"encode(address,uint256,uint256[],(string,uint256[2]))": "bb070d39"
		}
	},
	"abi": [
		{
			"inputs": [
				{
					"internalType": "bytes",
					"name": "data",
					"type": "bytes"
				}
			],
			"name": "decode",
			"outputs": [
				{
					"internalType": "address",
					"name": "addr",
					"type": "address"
				},
				{
					"internalType": "uint256",
					"name": "x",
					"type": "uint256"
				},
				{
					"internalType": "uint256[]",
					"name": "arr",
					"type": "uint256[]"
				},
				{
					"components": [
						{
							"internalType": "string",
							"name": "name",
							"type": "string"
						},
						{
							"internalType": "uint256[2]",
							"name": "nums",
							"type": "uint256[2]"
						}
					],
					"internalType": "struct AbiCode.MyStruct",
					"name": "myStruct",
					"type": "tuple"
				}
			],
			"stateMutability": "pure",
			"type": "function"
		},
		{
			"inputs": [
				{
					"internalType": "address",
					"name": "addr",
					"type": "address"
				},
				{
					"internalType": "uint256",
					"name": "x",
					"type": "uint256"
				},
				{
					"internalType": "uint256[]",
					"name": "arr",
					"type": "uint256[]"
				},
				{
					"components": [
						{
							"internalType": "string",
							"name": "name",
							"type": "string"
						},
						{
							"internalType": "uint256[2]",
							"name": "nums",
							"type": "uint256[2]"
						}
					],
					"internalType": "struct AbiCode.MyStruct",
					"name": "myStruct",
					"type": "tuple"
				}
			],
			"name": "encode",
			"outputs": [
				{
					"internalType": "bytes",
					"name": "",
					"type": "bytes"
				}
			],
			"stateMutability": "pure",
			"type": "function"
		}
	]
}