{
	"data": {
		"bytecode": {
			"linkReferences": {},
			"object": "61016060405234801562000011575f80fd5b5060405162000c2c38038062000c2c8339818101604052810190620000379190620001d7565b3373ffffffffffffffffffffffffffffffffffffffff1660c08173ffffffffffffffffffffffffffffffffffffffff16815250508360e0818152505042610100818152505062093a80426200008d919062000273565b610120818152505082610140818152505062093a8083620000af9190620002ad565b841015620000f4576040517f08c379a0000000000000000000000000000000000000000000000000000000008152600401620000eb9062000355565b60405180910390fd5b8173ffffffffffffffffffffffffffffffffffffffff1660808173ffffffffffffffffffffffffffffffffffffffff16815250508060a081815250505050505062000375565b5f80fd5b5f819050919050565b62000152816200013e565b81146200015d575f80fd5b50565b5f81519050620001708162000147565b92915050565b5f73ffffffffffffffffffffffffffffffffffffffff82169050919050565b5f620001a18262000176565b9050919050565b620001b38162000195565b8114620001be575f80fd5b50565b5f81519050620001d181620001a8565b92915050565b5f805f8060808587031215620001f257620001f16200013a565b5b5f620002018782880162000160565b9450506020620002148782880162000160565b93505060406200022787828801620001c1565b92505060606200023a8782880162000160565b91505092959194509250565b7f4e487b71000000000000000000000000000000000000000000000000000000005f52601160045260245ffd5b5f6200027f826200013e565b91506200028c836200013e565b9250828201905080821115620002a757620002a662000246565b5b92915050565b5f620002b9826200013e565b9150620002c6836200013e565b9250828202620002d6816200013e565b91508282048414831517620002f057620002ef62000246565b5b5092915050565b5f82825260208201905092915050565b7f7374617274696e67207072696365203c20646973636f756e74210000000000005f82015250565b5f6200033d601a83620002f7565b91506200034a8262000307565b602082019050919050565b5f6020820190508181035f8301526200036e816200032f565b9050919050565b60805160a05160c05160e051610100516101205161014051610834620003f85f395f818161025f015261052901525f818161020901526102bf01525f818161022f01526104e101525f818161028d015261050501525f81816101e501526103ab01525f81816103cd01526104bd01525f818161036f015261049901526108345ff3fe608060405260043610610085575f3560e01c8063afb1f26c11610058578063afb1f26c14610111578063c6bc51821461013b578063c744656514610165578063d6fbf2021461018f578063e6c0e6d5146101b957610085565b806308551a53146100895780638622a689146100b357806398d5fdca146100dd578063a6f2ae3a14610107575b5f80fd5b348015610094575f80fd5b5061009d6101e3565b6040516100aa919061058a565b60405180910390f35b3480156100be575f80fd5b506100c7610207565b6040516100d491906105bb565b60405180910390f35b3480156100e8575f80fd5b506100f161022b565b6040516100fe91906105bb565b60405180910390f35b61010f6102bd565b005b34801561011c575f80fd5b50610125610497565b604051610132919061062f565b60405180910390f35b348015610146575f80fd5b5061014f6104bb565b60405161015c91906105bb565b60405180910390f35b348015610170575f80fd5b506101796104df565b60405161018691906105bb565b60405180910390f35b34801561019a575f80fd5b506101a3610503565b6040516101b091906105bb565b60405180910390f35b3480156101c4575f80fd5b506101cd610527565b6040516101da91906105bb565b60405180910390f35b7f000000000000000000000000000000000000000000000000000000000000000081565b7f000000000000000000000000000000000000000000000000000000000000000081565b5f807f0000000000000000000000000000000000000000000000000000000000000000426102599190610675565b90505f817f000000000000000000000000000000000000000000000000000000000000000061028891906106a8565b9050807f00000000000000000000000000000000000000000000000000000000000000006102b69190610675565b9250505090565b7f0000000000000000000000000000000000000000000000000000000000000000421061031f576040517f08c379a000000000000000000000000000000000000000000000000000000000815260040161031690610743565b60405180910390fd5b5f61032861022b565b90508034101561036d576040517f08c379a0000000000000000000000000000000000000000000000000000000008152600401610364906107ab565b60405180910390fd5b7f000000000000000000000000000000000000000000000000000000000000000073ffffffffffffffffffffffffffffffffffffffff166323b872dd7f0000000000000000000000000000000000000000000000000000000000000000337f00000000000000000000000000000000000000000000000000000000000000006040518463ffffffff1660e01b815260040161040a939291906107c9565b5f604051808303815f87803b158015610421575f80fd5b505af1158015610433573d5f803e3d5ffd5b505050505f81346104449190610675565b90505f811115610493573373ffffffffffffffffffffffffffffffffffffffff166108fc8290811502906040515f60405180830381858888f19350505050158015610491573d5f803e3d5ffd5b505b5050565b7f000000000000000000000000000000000000000000000000000000000000000081565b7f000000000000000000000000000000000000000000000000000000000000000081565b7f000000000000000000000000000000000000000000000000000000000000000081565b7f000000000000000000000000000000000000000000000000000000000000000081565b7f000000000000000000000000000000000000000000000000000000000000000081565b5f73ffffffffffffffffffffffffffffffffffffffff82169050919050565b5f6105748261054b565b9050919050565b6105848161056a565b82525050565b5f60208201905061059d5f83018461057b565b92915050565b5f819050919050565b6105b5816105a3565b82525050565b5f6020820190506105ce5f8301846105ac565b92915050565b5f819050919050565b5f6105f76105f26105ed8461054b565b6105d4565b61054b565b9050919050565b5f610608826105dd565b9050919050565b5f610619826105fe565b9050919050565b6106298161060f565b82525050565b5f6020820190506106425f830184610620565b92915050565b7f4e487b71000000000000000000000000000000000000000000000000000000005f52601160045260245ffd5b5f61067f826105a3565b915061068a836105a3565b92508282039050818111156106a2576106a1610648565b5b92915050565b5f6106b2826105a3565b91506106bd836105a3565b92508282026106cb816105a3565b915082820484148315176106e2576106e1610648565b5b5092915050565b5f82825260208201905092915050565b7f617574696f6e20657870697265640000000000000000000000000000000000005f82015250565b5f61072d600e836106e9565b9150610738826106f9565b602082019050919050565b5f6020820190508181035f83015261075a81610721565b9050919050565b7f455448203c2063757272656e74207072696365200000000000000000000000005f82015250565b5f6107956014836106e9565b91506107a082610761565b602082019050919050565b5f6020820190508181035f8301526107c281610789565b9050919050565b5f6060820190506107dc5f83018661057b565b6107e9602083018561057b565b6107f660408301846105ac565b94935050505056fea264697066735822122051d2fa62c0e70dfdb436a356c77e0c2b9aafdb9539a584b71a4da1d1116fd5f664736f6c63430008170033",
			"opcodes": "PUSH2 0x160 PUSH1 0x40 MSTORE CALLVALUE DUP1 ISZERO PUSH3 0x11 JUMPI PUSH0 DUP1 REVERT JUMPDEST POP PUSH1 0x40 MLOAD PUSH3 0xC2C CODESIZE SUB DUP1 PUSH3 0xC2C DUP4 CODECOPY DUP2 DUP2 ADD PUSH1 0x40 MSTORE DUP2 ADD SWAP1 PUSH3 0x37 SWAP2 SWAP1 PUSH3 0x1D7 JUMP JUMPDEST CALLER PUSH20 0xFFFFFFFFFFFFFFFFFFFFFFFFFFFFFFFFFFFFFFFF AND PUSH1 0xC0 DUP2 PUSH20 0xFFFFFFFFFFFFFFFFFFFFFFFFFFFFFFFFFFFFFFFF AND DUP2 MSTORE POP POP DUP4 PUSH1 0xE0 DUP2 DUP2 MSTORE POP POP TIMESTAMP PUSH2 0x100 DUP2 DUP2 MSTORE POP POP PUSH3 0x93A80 TIMESTAMP PUSH3 0x8D SWAP2 SWAP1 PUSH3 0x273 JUMP JUMPDEST PUSH2 0x120 DUP2 DUP2 MSTORE POP POP DUP3 PUSH2 0x140 DUP2 DUP2 MSTORE POP POP PUSH3 0x93A80 DUP4 PUSH3 0xAF SWAP2 SWAP1 PUSH3 0x2AD JUMP JUMPDEST DUP5 LT ISZERO PUSH3 0xF4 JUMPI PUSH1 0x40 MLOAD PUSH32 0x8C379A000000000000000000000000000000000000000000000000000000000 DUP2 MSTORE PUSH1 0x4 ADD PUSH3 0xEB SWAP1 PUSH3 0x355 JUMP JUMPDEST PUSH1 0x40 MLOAD DUP1 SWAP2 SUB SWAP1 REVERT JUMPDEST DUP2 PUSH20 0xFFFFFFFFFFFFFFFFFFFFFFFFFFFFFFFFFFFFFFFF AND PUSH1 0x80 DUP2 PUSH20 0xFFFFFFFFFFFFFFFFFFFFFFFFFFFFFFFFFFFFFFFF AND DUP2 MSTORE POP POP DUP1 PUSH1 0xA0 DUP2 DUP2 MSTORE POP POP POP POP POP POP PUSH3 0x375 JUMP JUMPDEST PUSH0 DUP1 REVERT JUMPDEST PUSH0 DUP2 SWAP1 POP SWAP2 SWAP1 POP JUMP JUMPDEST PUSH3 0x152 DUP2 PUSH3 0x13E JUMP JUMPDEST DUP2 EQ PUSH3 0x15D JUMPI PUSH0 DUP1 REVERT JUMPDEST POP JUMP JUMPDEST PUSH0 DUP2 MLOAD SWAP1 POP PUSH3 0x170 DUP2 PUSH3 0x147 JUMP JUMPDEST SWAP3 SWAP2 POP POP JUMP JUMPDEST PUSH0 PUSH20 0xFFFFFFFFFFFFFFFFFFFFFFFFFFFFFFFFFFFFFFFF DUP3 AND SWAP1 POP SWAP2 SWAP1 POP JUMP JUMPDEST PUSH0 PUSH3 0x1A1 DUP3 PUSH3 0x176 JUMP JUMPDEST SWAP1 POP SWAP2 SWAP1 POP JUMP JUMPDEST PUSH3 0x1B3 DUP2 PUSH3 0x195 JUMP JUMPDEST DUP2 EQ PUSH3 0x1BE JUMPI PUSH0 DUP1 REVERT JUMPDEST POP JUMP JUMPDEST PUSH0 DUP2 MLOAD SWAP1 POP PUSH3 0x1D1 DUP2 PUSH3 0x1A8 JUMP JUMPDEST SWAP3 SWAP2 POP POP JUMP JUMPDEST PUSH0 DUP1 PUSH0 DUP1 PUSH1 0x80 DUP6 DUP8 SUB SLT ISZERO PUSH3 0x1F2 JUMPI PUSH3 0x1F1 PUSH3 0x13A JUMP JUMPDEST JUMPDEST PUSH0 PUSH3 0x201 DUP8 DUP3 DUP9 ADD PUSH3 0x160 JUMP JUMPDEST SWAP5 POP POP PUSH1 0x20 PUSH3 0x214 DUP8 DUP3 DUP9 ADD PUSH3 0x160 JUMP JUMPDEST SWAP4 POP POP PUSH1 0x40 PUSH3 0x227 DUP8 DUP3 DUP9 ADD PUSH3 0x1C1 JUMP JUMPDEST SWAP3 POP POP PUSH1 0x60 PUSH3 0x23A DUP8 DUP3 DUP9 ADD PUSH3 0x160 JUMP JUMPDEST SWAP2 POP POP SWAP3 SWAP6 SWAP2 SWAP5 POP SWAP3 POP JUMP JUMPDEST PUSH32 0x4E487B7100000000000000000000000000000000000000000000000000000000 PUSH0 MSTORE PUSH1 0x11 PUSH1 0x4 MSTORE PUSH1 0x24 PUSH0 REVERT JUMPDEST PUSH0 PUSH3 0x27F DUP3 PUSH3 0x13E JUMP JUMPDEST SWAP2 POP PUSH3 0x28C DUP4 PUSH3 0x13E JUMP JUMPDEST SWAP3 POP DUP3 DUP3 ADD SWAP1 POP DUP1 DUP3 GT ISZERO PUSH3 0x2A7 JUMPI PUSH3 0x2A6 PUSH3 0x246 JUMP JUMPDEST JUMPDEST SWAP3 SWAP2 POP POP JUMP JUMPDEST PUSH0 PUSH3 0x2B9 DUP3 PUSH3 0x13E JUMP JUMPDEST SWAP2 POP PUSH3 0x2C6 DUP4 PUSH3 0x13E JUMP JUMPDEST SWAP3 POP DUP3 DUP3 MUL PUSH3 0x2D6 DUP2 PUSH3 0x13E JUMP JUMPDEST SWAP2 POP DUP3 DUP3 DIV DUP5 EQ DUP4 ISZERO OR PUSH3 0x2F0 JUMPI PUSH3 0x2EF PUSH3 0x246 JUMP JUMPDEST JUMPDEST POP SWAP3 SWAP2 POP POP JUMP JUMPDEST PUSH0 DUP3 DUP3 MSTORE PUSH1 0x20 DUP3 ADD SWAP1 POP SWAP3 SWAP2 POP POP JUMP JUMPDEST PUSH32 0x7374617274696E67207072696365203C20646973636F756E7421000000000000 PUSH0 DUP3 ADD MSTORE POP JUMP JUMPDEST PUSH0 PUSH3 0x33D PUSH1 0x1A DUP4 PUSH3 0x2F7 JUMP JUMPDEST SWAP2 POP PUSH3 0x34A DUP3 PUSH3 0x307 JUMP JUMPDEST PUSH1 0x20 DUP3 ADD SWAP1 POP SWAP2 SWAP1 POP JUMP JUMPDEST PUSH0 PUSH1 0x20 DUP3 ADD SWAP1 POP DUP2 DUP2 SUB PUSH0 DUP4 ADD MSTORE PUSH3 0x36E DUP2 PUSH3 0x32F JUMP JUMPDEST SWAP1 POP SWAP2 SWAP1 POP JUMP JUMPDEST PUSH1 0x80 MLOAD PUSH1 0xA0 MLOAD PUSH1 0xC0 MLOAD PUSH1 0xE0 MLOAD PUSH2 0x100 MLOAD PUSH2 0x120 MLOAD PUSH2 0x140 MLOAD PUSH2 0x834 PUSH3 0x3F8 PUSH0 CODECOPY PUSH0 DUP2 DUP2 PUSH2 0x25F ADD MSTORE PUSH2 0x529 ADD MSTORE PUSH0 DUP2 DUP2 PUSH2 0x209 ADD MSTORE PUSH2 0x2BF ADD MSTORE PUSH0 DUP2 DUP2 PUSH2 0x22F ADD MSTORE PUSH2 0x4E1 ADD MSTORE PUSH0 DUP2 DUP2 PUSH2 0x28D ADD MSTORE PUSH2 0x505 ADD MSTORE PUSH0 DUP2 DUP2 PUSH2 0x1E5 ADD MSTORE PUSH2 0x3AB ADD MSTORE PUSH0 DUP2 DUP2 PUSH2 0x3CD ADD MSTORE PUSH2 0x4BD ADD MSTORE PUSH0 DUP2 DUP2 PUSH2 0x36F ADD MSTORE PUSH2 0x499 ADD MSTORE PUSH2 0x834 PUSH0 RETURN INVALID PUSH1 0x80 PUSH1 0x40 MSTORE PUSH1 0x4 CALLDATASIZE LT PUSH2 0x85 JUMPI PUSH0 CALLDATALOAD PUSH1 0xE0 SHR DUP1 PUSH4 0xAFB1F26C GT PUSH2 0x58 JUMPI DUP1 PUSH4 0xAFB1F26C EQ PUSH2 0x111 JUMPI DUP1 PUSH4 0xC6BC5182 EQ PUSH2 0x13B JUMPI DUP1 PUSH4 0xC7446565 EQ PUSH2 0x165 JUMPI DUP1 PUSH4 0xD6FBF202 EQ PUSH2 0x18F JUMPI DUP1 PUSH4 0xE6C0E6D5 EQ PUSH2 0x1B9 JUMPI PUSH2 0x85 JUMP JUMPDEST DUP1 PUSH4 0x8551A53 EQ PUSH2 0x89 JUMPI DUP1 PUSH4 0x8622A689 EQ PUSH2 0xB3 JUMPI DUP1 PUSH4 0x98D5FDCA EQ PUSH2 0xDD JUMPI DUP1 PUSH4 0xA6F2AE3A EQ PUSH2 0x107 JUMPI JUMPDEST PUSH0 DUP1 REVERT JUMPDEST CALLVALUE DUP1 ISZERO PUSH2 0x94 JUMPI PUSH0 DUP1 REVERT JUMPDEST POP PUSH2 0x9D PUSH2 0x1E3 JUMP JUMPDEST PUSH1 0x40 MLOAD PUSH2 0xAA SWAP2 SWAP1 PUSH2 0x58A JUMP JUMPDEST PUSH1 0x40 MLOAD DUP1 SWAP2 SUB SWAP1 RETURN JUMPDEST CALLVALUE DUP1 ISZERO PUSH2 0xBE JUMPI PUSH0 DUP1 REVERT JUMPDEST POP PUSH2 0xC7 PUSH2 0x207 JUMP JUMPDEST PUSH1 0x40 MLOAD PUSH2 0xD4 SWAP2 SWAP1 PUSH2 0x5BB JUMP JUMPDEST PUSH1 0x40 MLOAD DUP1 SWAP2 SUB SWAP1 RETURN JUMPDEST CALLVALUE DUP1 ISZERO PUSH2 0xE8 JUMPI PUSH0 DUP1 REVERT JUMPDEST POP PUSH2 0xF1 PUSH2 0x22B JUMP JUMPDEST PUSH1 0x40 MLOAD PUSH2 0xFE SWAP2 SWAP1 PUSH2 0x5BB JUMP JUMPDEST PUSH1 0x40 MLOAD DUP1 SWAP2 SUB SWAP1 RETURN JUMPDEST PUSH2 0x10F PUSH2 0x2BD JUMP JUMPDEST STOP JUMPDEST CALLVALUE DUP1 ISZERO PUSH2 0x11C JUMPI PUSH0 DUP1 REVERT JUMPDEST POP PUSH2 0x125 PUSH2 0x497 JUMP JUMPDEST PUSH1 0x40 MLOAD PUSH2 0x132 SWAP2 SWAP1 PUSH2 0x62F JUMP JUMPDEST PUSH1 0x40 MLOAD DUP1 SWAP2 SUB SWAP1 RETURN JUMPDEST CALLVALUE DUP1 ISZERO PUSH2 0x146 JUMPI PUSH0 DUP1 REVERT JUMPDEST POP PUSH2 0x14F PUSH2 0x4BB JUMP JUMPDEST PUSH1 0x40 MLOAD PUSH2 0x15C SWAP2 SWAP1 PUSH2 0x5BB JUMP JUMPDEST PUSH1 0x40 MLOAD DUP1 SWAP2 SUB SWAP1 RETURN JUMPDEST CALLVALUE DUP1 ISZERO PUSH2 0x170 JUMPI PUSH0 DUP1 REVERT JUMPDEST POP PUSH2 0x179 PUSH2 0x4DF JUMP JUMPDEST PUSH1 0x40 MLOAD PUSH2 0x186 SWAP2 SWAP1 PUSH2 0x5BB JUMP JUMPDEST PUSH1 0x40 MLOAD DUP1 SWAP2 SUB SWAP1 RETURN JUMPDEST CALLVALUE DUP1 ISZERO PUSH2 0x19A JUMPI PUSH0 DUP1 REVERT JUMPDEST POP PUSH2 0x1A3 PUSH2 0x503 JUMP JUMPDEST PUSH1 0x40 MLOAD PUSH2 0x1B0 SWAP2 SWAP1 PUSH2 0x5BB JUMP JUMPDEST PUSH1 0x40 MLOAD DUP1 SWAP2 SUB SWAP1 RETURN JUMPDEST CALLVALUE DUP1 ISZERO PUSH2 0x1C4 JUMPI PUSH0 DUP1 REVERT JUMPDEST POP PUSH2 0x1CD PUSH2 0x527 JUMP JUMPDEST PUSH1 0x40 MLOAD PUSH2 0x1DA SWAP2 SWAP1 PUSH2 0x5BB JUMP JUMPDEST PUSH1 0x40 MLOAD DUP1 SWAP2 SUB SWAP1 RETURN JUMPDEST PUSH32 0x0 DUP2 JUMP JUMPDEST PUSH32 0x0 DUP2 JUMP JUMPDEST PUSH0 DUP1 PUSH32 0x0 TIMESTAMP PUSH2 0x259 SWAP2 SWAP1 PUSH2 0x675 JUMP JUMPDEST SWAP1 POP PUSH0 DUP2 PUSH32 0x0 PUSH2 0x288 SWAP2 SWAP1 PUSH2 0x6A8 JUMP JUMPDEST SWAP1 POP DUP1 PUSH32 0x0 PUSH2 0x2B6 SWAP2 SWAP1 PUSH2 0x675 JUMP JUMPDEST SWAP3 POP POP POP SWAP1 JUMP JUMPDEST PUSH32 0x0 TIMESTAMP LT PUSH2 0x31F JUMPI PUSH1 0x40 MLOAD PUSH32 0x8C379A000000000000000000000000000000000000000000000000000000000 DUP2 MSTORE PUSH1 0x4 ADD PUSH2 0x316 SWAP1 PUSH2 0x743 JUMP JUMPDEST PUSH1 0x40 MLOAD DUP1 SWAP2 SUB SWAP1 REVERT JUMPDEST PUSH0 PUSH2 0x328 PUSH2 0x22B JUMP JUMPDEST SWAP1 POP DUP1 CALLVALUE LT ISZERO PUSH2 0x36D JUMPI PUSH1 0x40 MLOAD PUSH32 0x8C379A000000000000000000000000000000000000000000000000000000000 DUP2 MSTORE PUSH1 0x4 ADD PUSH2 0x364 SWAP1 PUSH2 0x7AB JUMP JUMPDEST PUSH1 0x40 MLOAD DUP1 SWAP2 SUB SWAP1 REVERT JUMPDEST PUSH32 0x0 PUSH20 0xFFFFFFFFFFFFFFFFFFFFFFFFFFFFFFFFFFFFFFFF AND PUSH4 0x23B872DD PUSH32 0x0 CALLER PUSH32 0x0 PUSH1 0x40 MLOAD DUP5 PUSH4 0xFFFFFFFF AND PUSH1 0xE0 SHL DUP2 MSTORE PUSH1 0x4 ADD PUSH2 0x40A SWAP4 SWAP3 SWAP2 SWAP1 PUSH2 0x7C9 JUMP JUMPDEST PUSH0 PUSH1 0x40 MLOAD DUP1 DUP4 SUB DUP2 PUSH0 DUP8 DUP1 EXTCODESIZE ISZERO DUP1 ISZERO PUSH2 0x421 JUMPI PUSH0 DUP1 REVERT JUMPDEST POP GAS CALL ISZERO DUP1 ISZERO PUSH2 0x433 JUMPI RETURNDATASIZE PUSH0 DUP1 RETURNDATACOPY RETURNDATASIZE PUSH0 REVERT JUMPDEST POP POP POP POP PUSH0 DUP2 CALLVALUE PUSH2 0x444 SWAP2 SWAP1 PUSH2 0x675 JUMP JUMPDEST SWAP1 POP PUSH0 DUP2 GT ISZERO PUSH2 0x493 JUMPI CALLER PUSH20 0xFFFFFFFFFFFFFFFFFFFFFFFFFFFFFFFFFFFFFFFF AND PUSH2 0x8FC DUP3 SWAP1 DUP2 ISZERO MUL SWAP1 PUSH1 0x40 MLOAD PUSH0 PUSH1 0x40 MLOAD DUP1 DUP4 SUB DUP2 DUP6 DUP9 DUP9 CALL SWAP4 POP POP POP POP ISZERO DUP1 ISZERO PUSH2 0x491 JUMPI RETURNDATASIZE PUSH0 DUP1 RETURNDATACOPY RETURNDATASIZE PUSH0 REVERT JUMPDEST POP JUMPDEST POP POP JUMP JUMPDEST PUSH32 0x0 DUP2 JUMP JUMPDEST PUSH32 0x0 DUP2 JUMP JUMPDEST PUSH32 0x0 DUP2 JUMP JUMPDEST PUSH32 0x0 DUP2 JUMP JUMPDEST PUSH32 0x0 DUP2 JUMP JUMPDEST PUSH0 PUSH20 0xFFFFFFFFFFFFFFFFFFFFFFFFFFFFFFFFFFFFFFFF DUP3 AND SWAP1 POP SWAP2 SWAP1 POP JUMP JUMPDEST PUSH0 PUSH2 0x574 DUP3 PUSH2 0x54B JUMP JUMPDEST SWAP1 POP SWAP2 SWAP1 POP JUMP JUMPDEST PUSH2 0x584 DUP2 PUSH2 0x56A JUMP JUMPDEST DUP3 MSTORE POP POP JUMP JUMPDEST PUSH0 PUSH1 0x20 DUP3 ADD SWAP1 POP PUSH2 0x59D PUSH0 DUP4 ADD DUP5 PUSH2 0x57B JUMP JUMPDEST SWAP3 SWAP2 POP POP JUMP JUMPDEST PUSH0 DUP2 SWAP1 POP SWAP2 SWAP1 POP JUMP JUMPDEST PUSH2 0x5B5 DUP2 PUSH2 0x5A3 JUMP JUMPDEST DUP3 MSTORE POP POP JUMP JUMPDEST PUSH0 PUSH1 0x20 DUP3 ADD SWAP1 POP PUSH2 0x5CE PUSH0 DUP4 ADD DUP5 PUSH2 0x5AC JUMP JUMPDEST SWAP3 SWAP2 POP POP JUMP JUMPDEST PUSH0 DUP2 SWAP1 POP SWAP2 SWAP1 POP JUMP JUMPDEST PUSH0 PUSH2 0x5F7 PUSH2 0x5F2 PUSH2 0x5ED DUP5 PUSH2 0x54B JUMP JUMPDEST PUSH2 0x5D4 JUMP JUMPDEST PUSH2 0x54B JUMP JUMPDEST SWAP1 POP SWAP2 SWAP1 POP JUMP JUMPDEST PUSH0 PUSH2 0x608 DUP3 PUSH2 0x5DD JUMP JUMPDEST SWAP1 POP SWAP2 SWAP1 POP JUMP JUMPDEST PUSH0 PUSH2 0x619 DUP3 PUSH2 0x5FE JUMP JUMPDEST SWAP1 POP SWAP2 SWAP1 POP JUMP JUMPDEST PUSH2 0x629 DUP2 PUSH2 0x60F JUMP JUMPDEST DUP3 MSTORE POP POP JUMP JUMPDEST PUSH0 PUSH1 0x20 DUP3 ADD SWAP1 POP PUSH2 0x642 PUSH0 DUP4 ADD DUP5 PUSH2 0x620 JUMP JUMPDEST SWAP3 SWAP2 POP POP JUMP JUMPDEST PUSH32 0x4E487B7100000000000000000000000000000000000000000000000000000000 PUSH0 MSTORE PUSH1 0x11 PUSH1 0x4 MSTORE PUSH1 0x24 PUSH0 REVERT JUMPDEST PUSH0 PUSH2 0x67F DUP3 PUSH2 0x5A3 JUMP JUMPDEST SWAP2 POP PUSH2 0x68A DUP4 PUSH2 0x5A3 JUMP JUMPDEST SWAP3 POP DUP3 DUP3 SUB SWAP1 POP DUP2 DUP2 GT ISZERO PUSH2 0x6A2 JUMPI PUSH2 0x6A1 PUSH2 0x648 JUMP JUMPDEST JUMPDEST SWAP3 SWAP2 POP POP JUMP JUMPDEST PUSH0 PUSH2 0x6B2 DUP3 PUSH2 0x5A3 JUMP JUMPDEST SWAP2 POP PUSH2 0x6BD DUP4 PUSH2 0x5A3 JUMP JUMPDEST SWAP3 POP DUP3 DUP3 MUL PUSH2 0x6CB DUP2 PUSH2 0x5A3 JUMP JUMPDEST SWAP2 POP DUP3 DUP3 DIV DUP5 EQ DUP4 ISZERO OR PUSH2 0x6E2 JUMPI PUSH2 0x6E1 PUSH2 0x648 JUMP JUMPDEST JUMPDEST POP SWAP3 SWAP2 POP POP JUMP JUMPDEST PUSH0 DUP3 DUP3 MSTORE PUSH1 0x20 DUP3 ADD SWAP1 POP SWAP3 SWAP2 POP POP JUMP JUMPDEST PUSH32 0x617574696F6E2065787069726564000000000000000000000000000000000000 PUSH0 DUP3 ADD MSTORE POP JUMP JUMPDEST PUSH0 PUSH2 0x72D PUSH1 0xE DUP4 PUSH2 0x6E9 JUMP JUMPDEST SWAP2 POP PUSH2 0x738 DUP3 PUSH2 0x6F9 JUMP JUMPDEST PUSH1 0x20 DUP3 ADD SWAP1 POP SWAP2 SWAP1 POP JUMP JUMPDEST PUSH0 PUSH1 0x20 DUP3 ADD SWAP1 POP DUP2 DUP2 SUB PUSH0 DUP4 ADD MSTORE PUSH2 0x75A DUP2 PUSH2 0x721 JUMP JUMPDEST SWAP1 POP SWAP2 SWAP1 POP JUMP JUMPDEST PUSH32 0x455448203C2063757272656E7420707269636520000000000000000000000000 PUSH0 DUP3 ADD MSTORE POP JUMP JUMPDEST PUSH0 PUSH2 0x795 PUSH1 0x14 DUP4 PUSH2 0x6E9 JUMP JUMPDEST SWAP2 POP PUSH2 0x7A0 DUP3 PUSH2 0x761 JUMP JUMPDEST PUSH1 0x20 DUP3 ADD SWAP1 POP SWAP2 SWAP1 POP JUMP JUMPDEST PUSH0 PUSH1 0x20 DUP3 ADD SWAP1 POP DUP2 DUP2 SUB PUSH0 DUP4 ADD MSTORE PUSH2 0x7C2 DUP2 PUSH2 0x789 JUMP JUMPDEST SWAP1 POP SWAP2 SWAP1 POP JUMP JUMPDEST PUSH0 PUSH1 0x60 DUP3 ADD SWAP1 POP PUSH2 0x7DC PUSH0 DUP4 ADD DUP7 PUSH2 0x57B JUMP JUMPDEST PUSH2 0x7E9 PUSH1 0x20 DUP4 ADD DUP6 PUSH2 0x57B JUMP JUMPDEST PUSH2 0x7F6 PUSH1 0x40 DUP4 ADD DUP5 PUSH2 0x5AC JUMP JUMPDEST SWAP5 SWAP4 POP POP POP POP JUMP INVALID LOG2 PUSH5 0x6970667358 0x22 SLT KECCAK256 MLOAD 0xD2 STATICCALL PUSH3 0xC0E70D REVERT 0xB4 CALLDATASIZE LOG3 JUMP 0xC7 PUSH31 0xC2B9AAFDB9539A584B71A4DA1D1116FD5F664736F6C634300081700330000 "
		},
		"gasEstimates": {
			"creation": {
				"codeDepositCost": "420000",
				"executionCost": "infinite",
				"totalCost": "infinite"
			},
			"external": {
				"buy()": "infinite",
				"discountRate()": "infinite",
				"expiresAt()": "infinite",
				"getPrice()": "infinite",
				"nft721()": "infinite",
				"nftId()": "infinite",
				"seller()": "infinite",
				"startAt()": "infinite",
				"startingPrice()": "infinite"
			}
		},
		"methodIdentifiers": {
			"buy()": "a6f2ae3a",
			"discountRate()": "e6c0e6d5",
			"expiresAt()": "8622a689",
			"getPrice()": "98d5fdca",
			"nft721()": "afb1f26c",
			"nftId()": "c6bc5182",
			"seller()": "08551a53",
			"startAt()": "c7446565",
			"startingPrice()": "d6fbf202"
		}
	},
	"abi": [
		{
			"inputs": [
				{
					"internalType": "uint256",
					"name": "_startingPrice",
					"type": "uint256"
				},
				{
					"internalType": "uint256",
					"name": "_discountRate",
					"type": "uint256"
				},
				{
					"internalType": "address",
					"name": "_nftAddr",
					"type": "address"
				},
				{
					"internalType": "uint256",
					"name": "_nftId",
					"type": "uint256"
				}
			],
			"stateMutability": "nonpayable",
			"type": "constructor"
		},
		{
			"inputs": [],
			"name": "buy",
			"outputs": [],
			"stateMutability": "payable",
			"type": "function"
		},
		{
			"inputs": [],
			"name": "discountRate",
			"outputs": [
				{
					"internalType": "uint256",
					"name": "",
					"type": "uint256"
				}
			],
			"stateMutability": "view",
			"type": "function"
		},
		{
			"inputs": [],
			"name": "expiresAt",
			"outputs": [
				{
					"internalType": "uint256",
					"name": "",
					"type": "uint256"
				}
			],
			"stateMutability": "view",
			"type": "function"
		},
		{
			"inputs": [],
			"name": "getPrice",
			"outputs": [
				{
					"internalType": "uint256",
					"name": "",
					"type": "uint256"
				}
			],
			"stateMutability": "view",
			"type": "function"
		},
		{
			"inputs": [],
			"name": "nft721",
			"outputs": [
				{
					"internalType": "contract IERC721",
					"name": "",
					"type": "address"
				}
			],
			"stateMutability": "view",
			"type": "function"
		},
		{
			"inputs": [],
			"name": "nftId",
			"outputs": [
				{
					"internalType": "uint256",
					"name": "",
					"type": "uint256"
				}
			],
			"stateMutability": "view",
			"type": "function"
		},
		{
			"inputs": [],
			"name": "seller",
			"outputs": [
				{
					"internalType": "address",
					"name": "",
					"type": "address"
				}
			],
			"stateMutability": "view",
			"type": "function"
		},
		{
			"inputs": [],
			"name": "startAt",
			"outputs": [
				{
					"internalType": "uint256",
					"name": "",
					"type": "uint256"
				}
			],
			"stateMutability": "view",
			"type": "function"
		},
		{
			"inputs": [],
			"name": "startingPrice",
			"outputs": [
				{
					"internalType": "uint256",
					"name": "",
					"type": "uint256"
				}
			],
			"stateMutability": "view",
			"type": "function"
		}
	]
}