{
	"data": {
		"bytecode": {
			"linkReferences": {},
			"object": "608060405234801561000f575f80fd5b5060f38061001c5f395ff3fe6080604052348015600e575f80fd5b50600436106030575f3560e01c806374135154146034578063b1ade4db14604f575b5f80fd5b603a606a565b6040516046929190609a565b60405180910390f35b60556077565b6040516061929190609a565b60405180910390f35b5f80600142915091509091565b5f80600242915091509091565b5f819050919050565b6094816084565b82525050565b5f60408201905060ab5f830185608d565b60b66020830184608d565b939250505056fea26469706673582212202a6d6f8f120606db79c520b68bdf037327583728d290a2c1f712864ca244647564736f6c63430008170033",
			"opcodes": "PUSH1 0x80 PUSH1 0x40 MSTORE CALLVALUE DUP1 ISZERO PUSH2 0xF JUMPI PUSH0 DUP1 REVERT JUMPDEST POP PUSH1 0xF3 DUP1 PUSH2 0x1C PUSH0 CODECOPY PUSH0 RETURN INVALID PUSH1 0x80 PUSH1 0x40 MSTORE CALLVALUE DUP1 ISZERO PUSH1 0xE JUMPI PUSH0 DUP1 REVERT JUMPDEST POP PUSH1 0x4 CALLDATASIZE LT PUSH1 0x30 JUMPI PUSH0 CALLDATALOAD PUSH1 0xE0 SHR DUP1 PUSH4 0x74135154 EQ PUSH1 0x34 JUMPI DUP1 PUSH4 0xB1ADE4DB EQ PUSH1 0x4F JUMPI JUMPDEST PUSH0 DUP1 REVERT JUMPDEST PUSH1 0x3A PUSH1 0x6A JUMP JUMPDEST PUSH1 0x40 MLOAD PUSH1 0x46 SWAP3 SWAP2 SWAP1 PUSH1 0x9A JUMP JUMPDEST PUSH1 0x40 MLOAD DUP1 SWAP2 SUB SWAP1 RETURN JUMPDEST PUSH1 0x55 PUSH1 0x77 JUMP JUMPDEST PUSH1 0x40 MLOAD PUSH1 0x61 SWAP3 SWAP2 SWAP1 PUSH1 0x9A JUMP JUMPDEST PUSH1 0x40 MLOAD DUP1 SWAP2 SUB SWAP1 RETURN JUMPDEST PUSH0 DUP1 PUSH1 0x1 TIMESTAMP SWAP2 POP SWAP2 POP SWAP1 SWAP2 JUMP JUMPDEST PUSH0 DUP1 PUSH1 0x2 TIMESTAMP SWAP2 POP SWAP2 POP SWAP1 SWAP2 JUMP JUMPDEST PUSH0 DUP2 SWAP1 POP SWAP2 SWAP1 POP JUMP JUMPDEST PUSH1 0x94 DUP2 PUSH1 0x84 JUMP JUMPDEST DUP3 MSTORE POP POP JUMP JUMPDEST PUSH0 PUSH1 0x40 DUP3 ADD SWAP1 POP PUSH1 0xAB PUSH0 DUP4 ADD DUP6 PUSH1 0x8D JUMP JUMPDEST PUSH1 0xB6 PUSH1 0x20 DUP4 ADD DUP5 PUSH1 0x8D JUMP JUMPDEST SWAP4 SWAP3 POP POP POP JUMP INVALID LOG2 PUSH5 0x6970667358 0x22 SLT KECCAK256 0x2A PUSH14 0x6F8F120606DB79C520B68BDF0373 0x27 PC CALLDATACOPY 0x28 0xD2 SWAP1 LOG2 0xC1 0xF7 SLT DUP7 0x4C LOG2 PREVRANDAO PUSH5 0x7564736F6C PUSH4 0x43000817 STOP CALLER "
		},
		"gasEstimates": {
			"creation": {
				"codeDepositCost": "48600",
				"executionCost": "97",
				"totalCost": "48697"
			},
			"external": {
				"func1()": "infinite",
				"func2()": "infinite"
			}
		},
		"methodIdentifiers": {
			"func1()": "74135154",
			"func2()": "b1ade4db"
		}
	},
	"abi": [
		{
			"inputs": [],
			"name": "func1",
			"outputs": [
				{
					"internalType": "uint256",
					"name": "",
					"type": "uint256"
				},
				{
					"internalType": "uint256",
					"name": "",
					"type": "uint256"
				}
			],
			"stateMutability": "view",
			"type": "function"
		},
		{
			"inputs": [],
			"name": "func2",
			"outputs": [
				{
					"internalType": "uint256",
					"name": "",
					"type": "uint256"
				},
				{
					"internalType": "uint256",
					"name": "",
					"type": "uint256"
				}
			],
			"stateMutability": "view",
			"type": "function"
		}
	]
}