{
	"data": {
		"bytecode": {
			"linkReferences": {},
			"object": "608060405234801561000f575f80fd5b506109b58061001d5f395ff3fe608060405260043610610049575f3560e01c806310957d3c1461004d5780631249c58b1461007d5780633cb800851461008757806370a08231146100af578063b1ade4db146100eb575b5f80fd5b610067600480360381019061006291906103cc565b610115565b604051610074919061055c565b60405180910390f35b610085610271565b005b348015610092575f80fd5b506100ad60048036038101906100a891906105af565b6102c5565b005b3480156100ba575f80fd5b506100d560048036038101906100d09190610647565b61030d565b6040516100e29190610681565b60405180910390f35b3480156100f6575f80fd5b506100ff610321565b60405161010c9190610681565b60405180910390f35b60608282905067ffffffffffffffff8111156101345761013361069a565b5b60405190808252806020026020018201604052801561016757816020015b60608152602001906001900390816101525790505b5090505f5b8383905081101561026a575f803073ffffffffffffffffffffffffffffffffffffffff168686858181106101a3576101a26106c7565b5b90506020028101906101b59190610700565b6040516101c392919061079e565b5f60405180830381855af49150503d805f81146101fb576040519150601f19603f3d011682016040523d82523d5f602084013e610200565b606091505b50915091508161023c576040517f18cecad500000000000000000000000000000000000000000000000000000000815260040160405180910390fd5b808484815181106102505761024f6106c7565b5b60200260200101819052505050808060010191505061016c565b5092915050565b345f803373ffffffffffffffffffffffffffffffffffffffff1673ffffffffffffffffffffffffffffffffffffffff1681526020019081526020015f205f8282546102bc91906107e3565b92505081905550565b7ffd33e90d0eac940755277aa91045b95664988beeeafc4ed7d1281a6d83afbc003382846102f391906107e3565b60405161030192919061087f565b60405180910390a15050565b5f602052805f5260405f205f915090505481565b5f7ffd33e90d0eac940755277aa91045b95664988beeeafc4ed7d1281a6d83afbc00336002604051610354929190610945565b60405180910390a1606f905090565b5f80fd5b5f80fd5b5f80fd5b5f80fd5b5f80fd5b5f8083601f84011261038c5761038b61036b565b5b8235905067ffffffffffffffff8111156103a9576103a861036f565b5b6020830191508360208202830111156103c5576103c4610373565b5b9250929050565b5f80602083850312156103e2576103e1610363565b5b5f83013567ffffffffffffffff8111156103ff576103fe610367565b5b61040b85828601610377565b92509250509250929050565b5f81519050919050565b5f82825260208201905092915050565b5f819050602082019050919050565b5f81519050919050565b5f82825260208201905092915050565b5f5b8381101561047757808201518184015260208101905061045c565b5f8484015250505050565b5f601f19601f8301169050919050565b5f61049c82610440565b6104a6818561044a565b93506104b681856020860161045a565b6104bf81610482565b840191505092915050565b5f6104d58383610492565b905092915050565b5f602082019050919050565b5f6104f382610417565b6104fd8185610421565b93508360208202850161050f85610431565b805f5b8581101561054a578484038952815161052b85826104ca565b9450610536836104dd565b925060208a01995050600181019050610512565b50829750879550505050505092915050565b5f6020820190508181035f83015261057481846104e9565b905092915050565b5f819050919050565b61058e8161057c565b8114610598575f80fd5b50565b5f813590506105a981610585565b92915050565b5f80604083850312156105c5576105c4610363565b5b5f6105d28582860161059b565b92505060206105e38582860161059b565b9150509250929050565b5f73ffffffffffffffffffffffffffffffffffffffff82169050919050565b5f610616826105ed565b9050919050565b6106268161060c565b8114610630575f80fd5b50565b5f813590506106418161061d565b92915050565b5f6020828403121561065c5761065b610363565b5b5f61066984828501610633565b91505092915050565b61067b8161057c565b82525050565b5f6020820190506106945f830184610672565b92915050565b7f4e487b71000000000000000000000000000000000000000000000000000000005f52604160045260245ffd5b7f4e487b71000000000000000000000000000000000000000000000000000000005f52603260045260245ffd5b5f80fd5b5f80fd5b5f80fd5b5f808335600160200384360303811261071c5761071b6106f4565b5b80840192508235915067ffffffffffffffff82111561073e5761073d6106f8565b5b60208301925060018202360383131561075a576107596106fc565b5b509250929050565b5f81905092915050565b828183375f83830152505050565b5f6107858385610762565b935061079283858461076c565b82840190509392505050565b5f6107aa82848661077a565b91508190509392505050565b7f4e487b71000000000000000000000000000000000000000000000000000000005f52601160045260245ffd5b5f6107ed8261057c565b91506107f88361057c565b92508282019050808211156108105761080f6107b6565b5b92915050565b61081f8161060c565b82525050565b5f82825260208201905092915050565b7f66756e63310000000000000000000000000000000000000000000000000000005f82015250565b5f610869600583610825565b915061087482610835565b602082019050919050565b5f6060820190506108925f830185610816565b81810360208301526108a38161085d565b90506108b26040830184610672565b9392505050565b7f66756e63320000000000000000000000000000000000000000000000000000005f82015250565b5f6108ed600583610825565b91506108f8826108b9565b602082019050919050565b5f819050919050565b5f819050919050565b5f61092f61092a61092584610903565b61090c565b61057c565b9050919050565b61093f81610915565b82525050565b5f6060820190506109585f830185610816565b8181036020830152610969816108e1565b90506109786040830184610936565b939250505056fea264697066735822122039a6941efe6548291afd491490b094dae6f3568e98f7ab07269f6046104796c564736f6c63430008170033",
			"opcodes": "PUSH1 0x80 PUSH1 0x40 MSTORE CALLVALUE DUP1 ISZERO PUSH2 0xF JUMPI PUSH0 DUP1 REVERT JUMPDEST POP PUSH2 0x9B5 DUP1 PUSH2 0x1D PUSH0 CODECOPY PUSH0 RETURN INVALID PUSH1 0x80 PUSH1 0x40 MSTORE PUSH1 0x4 CALLDATASIZE LT PUSH2 0x49 JUMPI PUSH0 CALLDATALOAD PUSH1 0xE0 SHR DUP1 PUSH4 0x10957D3C EQ PUSH2 0x4D JUMPI DUP1 PUSH4 0x1249C58B EQ PUSH2 0x7D JUMPI DUP1 PUSH4 0x3CB80085 EQ PUSH2 0x87 JUMPI DUP1 PUSH4 0x70A08231 EQ PUSH2 0xAF JUMPI DUP1 PUSH4 0xB1ADE4DB EQ PUSH2 0xEB JUMPI JUMPDEST PUSH0 DUP1 REVERT JUMPDEST PUSH2 0x67 PUSH1 0x4 DUP1 CALLDATASIZE SUB DUP2 ADD SWAP1 PUSH2 0x62 SWAP2 SWAP1 PUSH2 0x3CC JUMP JUMPDEST PUSH2 0x115 JUMP JUMPDEST PUSH1 0x40 MLOAD PUSH2 0x74 SWAP2 SWAP1 PUSH2 0x55C JUMP JUMPDEST PUSH1 0x40 MLOAD DUP1 SWAP2 SUB SWAP1 RETURN JUMPDEST PUSH2 0x85 PUSH2 0x271 JUMP JUMPDEST STOP JUMPDEST CALLVALUE DUP1 ISZERO PUSH2 0x92 JUMPI PUSH0 DUP1 REVERT JUMPDEST POP PUSH2 0xAD PUSH1 0x4 DUP1 CALLDATASIZE SUB DUP2 ADD SWAP1 PUSH2 0xA8 SWAP2 SWAP1 PUSH2 0x5AF JUMP JUMPDEST PUSH2 0x2C5 JUMP JUMPDEST STOP JUMPDEST CALLVALUE DUP1 ISZERO PUSH2 0xBA JUMPI PUSH0 DUP1 REVERT JUMPDEST POP PUSH2 0xD5 PUSH1 0x4 DUP1 CALLDATASIZE SUB DUP2 ADD SWAP1 PUSH2 0xD0 SWAP2 SWAP1 PUSH2 0x647 JUMP JUMPDEST PUSH2 0x30D JUMP JUMPDEST PUSH1 0x40 MLOAD PUSH2 0xE2 SWAP2 SWAP1 PUSH2 0x681 JUMP JUMPDEST PUSH1 0x40 MLOAD DUP1 SWAP2 SUB SWAP1 RETURN JUMPDEST CALLVALUE DUP1 ISZERO PUSH2 0xF6 JUMPI PUSH0 DUP1 REVERT JUMPDEST POP PUSH2 0xFF PUSH2 0x321 JUMP JUMPDEST PUSH1 0x40 MLOAD PUSH2 0x10C SWAP2 SWAP1 PUSH2 0x681 JUMP JUMPDEST PUSH1 0x40 MLOAD DUP1 SWAP2 SUB SWAP1 RETURN JUMPDEST PUSH1 0x60 DUP3 DUP3 SWAP1 POP PUSH8 0xFFFFFFFFFFFFFFFF DUP2 GT ISZERO PUSH2 0x134 JUMPI PUSH2 0x133 PUSH2 0x69A JUMP JUMPDEST JUMPDEST PUSH1 0x40 MLOAD SWAP1 DUP1 DUP3 MSTORE DUP1 PUSH1 0x20 MUL PUSH1 0x20 ADD DUP3 ADD PUSH1 0x40 MSTORE DUP1 ISZERO PUSH2 0x167 JUMPI DUP2 PUSH1 0x20 ADD JUMPDEST PUSH1 0x60 DUP2 MSTORE PUSH1 0x20 ADD SWAP1 PUSH1 0x1 SWAP1 SUB SWAP1 DUP2 PUSH2 0x152 JUMPI SWAP1 POP JUMPDEST POP SWAP1 POP PUSH0 JUMPDEST DUP4 DUP4 SWAP1 POP DUP2 LT ISZERO PUSH2 0x26A JUMPI PUSH0 DUP1 ADDRESS PUSH20 0xFFFFFFFFFFFFFFFFFFFFFFFFFFFFFFFFFFFFFFFF AND DUP7 DUP7 DUP6 DUP2 DUP2 LT PUSH2 0x1A3 JUMPI PUSH2 0x1A2 PUSH2 0x6C7 JUMP JUMPDEST JUMPDEST SWAP1 POP PUSH1 0x20 MUL DUP2 ADD SWAP1 PUSH2 0x1B5 SWAP2 SWAP1 PUSH2 0x700 JUMP JUMPDEST PUSH1 0x40 MLOAD PUSH2 0x1C3 SWAP3 SWAP2 SWAP1 PUSH2 0x79E JUMP JUMPDEST PUSH0 PUSH1 0x40 MLOAD DUP1 DUP4 SUB DUP2 DUP6 GAS DELEGATECALL SWAP2 POP POP RETURNDATASIZE DUP1 PUSH0 DUP2 EQ PUSH2 0x1FB JUMPI PUSH1 0x40 MLOAD SWAP2 POP PUSH1 0x1F NOT PUSH1 0x3F RETURNDATASIZE ADD AND DUP3 ADD PUSH1 0x40 MSTORE RETURNDATASIZE DUP3 MSTORE RETURNDATASIZE PUSH0 PUSH1 0x20 DUP5 ADD RETURNDATACOPY PUSH2 0x200 JUMP JUMPDEST PUSH1 0x60 SWAP2 POP JUMPDEST POP SWAP2 POP SWAP2 POP DUP2 PUSH2 0x23C JUMPI PUSH1 0x40 MLOAD PUSH32 0x18CECAD500000000000000000000000000000000000000000000000000000000 DUP2 MSTORE PUSH1 0x4 ADD PUSH1 0x40 MLOAD DUP1 SWAP2 SUB SWAP1 REVERT JUMPDEST DUP1 DUP5 DUP5 DUP2 MLOAD DUP2 LT PUSH2 0x250 JUMPI PUSH2 0x24F PUSH2 0x6C7 JUMP JUMPDEST JUMPDEST PUSH1 0x20 MUL PUSH1 0x20 ADD ADD DUP2 SWAP1 MSTORE POP POP POP DUP1 DUP1 PUSH1 0x1 ADD SWAP2 POP POP PUSH2 0x16C JUMP JUMPDEST POP SWAP3 SWAP2 POP POP JUMP JUMPDEST CALLVALUE PUSH0 DUP1 CALLER PUSH20 0xFFFFFFFFFFFFFFFFFFFFFFFFFFFFFFFFFFFFFFFF AND PUSH20 0xFFFFFFFFFFFFFFFFFFFFFFFFFFFFFFFFFFFFFFFF AND DUP2 MSTORE PUSH1 0x20 ADD SWAP1 DUP2 MSTORE PUSH1 0x20 ADD PUSH0 KECCAK256 PUSH0 DUP3 DUP3 SLOAD PUSH2 0x2BC SWAP2 SWAP1 PUSH2 0x7E3 JUMP JUMPDEST SWAP3 POP POP DUP2 SWAP1 SSTORE POP JUMP JUMPDEST PUSH32 0xFD33E90D0EAC940755277AA91045B95664988BEEEAFC4ED7D1281A6D83AFBC00 CALLER DUP3 DUP5 PUSH2 0x2F3 SWAP2 SWAP1 PUSH2 0x7E3 JUMP JUMPDEST PUSH1 0x40 MLOAD PUSH2 0x301 SWAP3 SWAP2 SWAP1 PUSH2 0x87F JUMP JUMPDEST PUSH1 0x40 MLOAD DUP1 SWAP2 SUB SWAP1 LOG1 POP POP JUMP JUMPDEST PUSH0 PUSH1 0x20 MSTORE DUP1 PUSH0 MSTORE PUSH1 0x40 PUSH0 KECCAK256 PUSH0 SWAP2 POP SWAP1 POP SLOAD DUP2 JUMP JUMPDEST PUSH0 PUSH32 0xFD33E90D0EAC940755277AA91045B95664988BEEEAFC4ED7D1281A6D83AFBC00 CALLER PUSH1 0x2 PUSH1 0x40 MLOAD PUSH2 0x354 SWAP3 SWAP2 SWAP1 PUSH2 0x945 JUMP JUMPDEST PUSH1 0x40 MLOAD DUP1 SWAP2 SUB SWAP1 LOG1 PUSH1 0x6F SWAP1 POP SWAP1 JUMP JUMPDEST PUSH0 DUP1 REVERT JUMPDEST PUSH0 DUP1 REVERT JUMPDEST PUSH0 DUP1 REVERT JUMPDEST PUSH0 DUP1 REVERT JUMPDEST PUSH0 DUP1 REVERT JUMPDEST PUSH0 DUP1 DUP4 PUSH1 0x1F DUP5 ADD SLT PUSH2 0x38C JUMPI PUSH2 0x38B PUSH2 0x36B JUMP JUMPDEST JUMPDEST DUP3 CALLDATALOAD SWAP1 POP PUSH8 0xFFFFFFFFFFFFFFFF DUP2 GT ISZERO PUSH2 0x3A9 JUMPI PUSH2 0x3A8 PUSH2 0x36F JUMP JUMPDEST JUMPDEST PUSH1 0x20 DUP4 ADD SWAP2 POP DUP4 PUSH1 0x20 DUP3 MUL DUP4 ADD GT ISZERO PUSH2 0x3C5 JUMPI PUSH2 0x3C4 PUSH2 0x373 JUMP JUMPDEST JUMPDEST SWAP3 POP SWAP3 SWAP1 POP JUMP JUMPDEST PUSH0 DUP1 PUSH1 0x20 DUP4 DUP6 SUB SLT ISZERO PUSH2 0x3E2 JUMPI PUSH2 0x3E1 PUSH2 0x363 JUMP JUMPDEST JUMPDEST PUSH0 DUP4 ADD CALLDATALOAD PUSH8 0xFFFFFFFFFFFFFFFF DUP2 GT ISZERO PUSH2 0x3FF JUMPI PUSH2 0x3FE PUSH2 0x367 JUMP JUMPDEST JUMPDEST PUSH2 0x40B DUP6 DUP3 DUP7 ADD PUSH2 0x377 JUMP JUMPDEST SWAP3 POP SWAP3 POP POP SWAP3 POP SWAP3 SWAP1 POP JUMP JUMPDEST PUSH0 DUP2 MLOAD SWAP1 POP SWAP2 SWAP1 POP JUMP JUMPDEST PUSH0 DUP3 DUP3 MSTORE PUSH1 0x20 DUP3 ADD SWAP1 POP SWAP3 SWAP2 POP POP JUMP JUMPDEST PUSH0 DUP2 SWAP1 POP PUSH1 0x20 DUP3 ADD SWAP1 POP SWAP2 SWAP1 POP JUMP JUMPDEST PUSH0 DUP2 MLOAD SWAP1 POP SWAP2 SWAP1 POP JUMP JUMPDEST PUSH0 DUP3 DUP3 MSTORE PUSH1 0x20 DUP3 ADD SWAP1 POP SWAP3 SWAP2 POP POP JUMP JUMPDEST PUSH0 JUMPDEST DUP4 DUP2 LT ISZERO PUSH2 0x477 JUMPI DUP1 DUP3 ADD MLOAD DUP2 DUP5 ADD MSTORE PUSH1 0x20 DUP2 ADD SWAP1 POP PUSH2 0x45C JUMP JUMPDEST PUSH0 DUP5 DUP5 ADD MSTORE POP POP POP POP JUMP JUMPDEST PUSH0 PUSH1 0x1F NOT PUSH1 0x1F DUP4 ADD AND SWAP1 POP SWAP2 SWAP1 POP JUMP JUMPDEST PUSH0 PUSH2 0x49C DUP3 PUSH2 0x440 JUMP JUMPDEST PUSH2 0x4A6 DUP2 DUP6 PUSH2 0x44A JUMP JUMPDEST SWAP4 POP PUSH2 0x4B6 DUP2 DUP6 PUSH1 0x20 DUP7 ADD PUSH2 0x45A JUMP JUMPDEST PUSH2 0x4BF DUP2 PUSH2 0x482 JUMP JUMPDEST DUP5 ADD SWAP2 POP POP SWAP3 SWAP2 POP POP JUMP JUMPDEST PUSH0 PUSH2 0x4D5 DUP4 DUP4 PUSH2 0x492 JUMP JUMPDEST SWAP1 POP SWAP3 SWAP2 POP POP JUMP JUMPDEST PUSH0 PUSH1 0x20 DUP3 ADD SWAP1 POP SWAP2 SWAP1 POP JUMP JUMPDEST PUSH0 PUSH2 0x4F3 DUP3 PUSH2 0x417 JUMP JUMPDEST PUSH2 0x4FD DUP2 DUP6 PUSH2 0x421 JUMP JUMPDEST SWAP4 POP DUP4 PUSH1 0x20 DUP3 MUL DUP6 ADD PUSH2 0x50F DUP6 PUSH2 0x431 JUMP JUMPDEST DUP1 PUSH0 JUMPDEST DUP6 DUP2 LT ISZERO PUSH2 0x54A JUMPI DUP5 DUP5 SUB DUP10 MSTORE DUP2 MLOAD PUSH2 0x52B DUP6 DUP3 PUSH2 0x4CA JUMP JUMPDEST SWAP5 POP PUSH2 0x536 DUP4 PUSH2 0x4DD JUMP JUMPDEST SWAP3 POP PUSH1 0x20 DUP11 ADD SWAP10 POP POP PUSH1 0x1 DUP2 ADD SWAP1 POP PUSH2 0x512 JUMP JUMPDEST POP DUP3 SWAP8 POP DUP8 SWAP6 POP POP POP POP POP POP SWAP3 SWAP2 POP POP JUMP JUMPDEST PUSH0 PUSH1 0x20 DUP3 ADD SWAP1 POP DUP2 DUP2 SUB PUSH0 DUP4 ADD MSTORE PUSH2 0x574 DUP2 DUP5 PUSH2 0x4E9 JUMP JUMPDEST SWAP1 POP SWAP3 SWAP2 POP POP JUMP JUMPDEST PUSH0 DUP2 SWAP1 POP SWAP2 SWAP1 POP JUMP JUMPDEST PUSH2 0x58E DUP2 PUSH2 0x57C JUMP JUMPDEST DUP2 EQ PUSH2 0x598 JUMPI PUSH0 DUP1 REVERT JUMPDEST POP JUMP JUMPDEST PUSH0 DUP2 CALLDATALOAD SWAP1 POP PUSH2 0x5A9 DUP2 PUSH2 0x585 JUMP JUMPDEST SWAP3 SWAP2 POP POP JUMP JUMPDEST PUSH0 DUP1 PUSH1 0x40 DUP4 DUP6 SUB SLT ISZERO PUSH2 0x5C5 JUMPI PUSH2 0x5C4 PUSH2 0x363 JUMP JUMPDEST JUMPDEST PUSH0 PUSH2 0x5D2 DUP6 DUP3 DUP7 ADD PUSH2 0x59B JUMP JUMPDEST SWAP3 POP POP PUSH1 0x20 PUSH2 0x5E3 DUP6 DUP3 DUP7 ADD PUSH2 0x59B JUMP JUMPDEST SWAP2 POP POP SWAP3 POP SWAP3 SWAP1 POP JUMP JUMPDEST PUSH0 PUSH20 0xFFFFFFFFFFFFFFFFFFFFFFFFFFFFFFFFFFFFFFFF DUP3 AND SWAP1 POP SWAP2 SWAP1 POP JUMP JUMPDEST PUSH0 PUSH2 0x616 DUP3 PUSH2 0x5ED JUMP JUMPDEST SWAP1 POP SWAP2 SWAP1 POP JUMP JUMPDEST PUSH2 0x626 DUP2 PUSH2 0x60C JUMP JUMPDEST DUP2 EQ PUSH2 0x630 JUMPI PUSH0 DUP1 REVERT JUMPDEST POP JUMP JUMPDEST PUSH0 DUP2 CALLDATALOAD SWAP1 POP PUSH2 0x641 DUP2 PUSH2 0x61D JUMP JUMPDEST SWAP3 SWAP2 POP POP JUMP JUMPDEST PUSH0 PUSH1 0x20 DUP3 DUP5 SUB SLT ISZERO PUSH2 0x65C JUMPI PUSH2 0x65B PUSH2 0x363 JUMP JUMPDEST JUMPDEST PUSH0 PUSH2 0x669 DUP5 DUP3 DUP6 ADD PUSH2 0x633 JUMP JUMPDEST SWAP2 POP POP SWAP3 SWAP2 POP POP JUMP JUMPDEST PUSH2 0x67B DUP2 PUSH2 0x57C JUMP JUMPDEST DUP3 MSTORE POP POP JUMP JUMPDEST PUSH0 PUSH1 0x20 DUP3 ADD SWAP1 POP PUSH2 0x694 PUSH0 DUP4 ADD DUP5 PUSH2 0x672 JUMP JUMPDEST SWAP3 SWAP2 POP POP JUMP JUMPDEST PUSH32 0x4E487B7100000000000000000000000000000000000000000000000000000000 PUSH0 MSTORE PUSH1 0x41 PUSH1 0x4 MSTORE PUSH1 0x24 PUSH0 REVERT JUMPDEST PUSH32 0x4E487B7100000000000000000000000000000000000000000000000000000000 PUSH0 MSTORE PUSH1 0x32 PUSH1 0x4 MSTORE PUSH1 0x24 PUSH0 REVERT JUMPDEST PUSH0 DUP1 REVERT JUMPDEST PUSH0 DUP1 REVERT JUMPDEST PUSH0 DUP1 REVERT JUMPDEST PUSH0 DUP1 DUP4 CALLDATALOAD PUSH1 0x1 PUSH1 0x20 SUB DUP5 CALLDATASIZE SUB SUB DUP2 SLT PUSH2 0x71C JUMPI PUSH2 0x71B PUSH2 0x6F4 JUMP JUMPDEST JUMPDEST DUP1 DUP5 ADD SWAP3 POP DUP3 CALLDATALOAD SWAP2 POP PUSH8 0xFFFFFFFFFFFFFFFF DUP3 GT ISZERO PUSH2 0x73E JUMPI PUSH2 0x73D PUSH2 0x6F8 JUMP JUMPDEST JUMPDEST PUSH1 0x20 DUP4 ADD SWAP3 POP PUSH1 0x1 DUP3 MUL CALLDATASIZE SUB DUP4 SGT ISZERO PUSH2 0x75A JUMPI PUSH2 0x759 PUSH2 0x6FC JUMP JUMPDEST JUMPDEST POP SWAP3 POP SWAP3 SWAP1 POP JUMP JUMPDEST PUSH0 DUP2 SWAP1 POP SWAP3 SWAP2 POP POP JUMP JUMPDEST DUP3 DUP2 DUP4 CALLDATACOPY PUSH0 DUP4 DUP4 ADD MSTORE POP POP POP JUMP JUMPDEST PUSH0 PUSH2 0x785 DUP4 DUP6 PUSH2 0x762 JUMP JUMPDEST SWAP4 POP PUSH2 0x792 DUP4 DUP6 DUP5 PUSH2 0x76C JUMP JUMPDEST DUP3 DUP5 ADD SWAP1 POP SWAP4 SWAP3 POP POP POP JUMP JUMPDEST PUSH0 PUSH2 0x7AA DUP3 DUP5 DUP7 PUSH2 0x77A JUMP JUMPDEST SWAP2 POP DUP2 SWAP1 POP SWAP4 SWAP3 POP POP POP JUMP JUMPDEST PUSH32 0x4E487B7100000000000000000000000000000000000000000000000000000000 PUSH0 MSTORE PUSH1 0x11 PUSH1 0x4 MSTORE PUSH1 0x24 PUSH0 REVERT JUMPDEST PUSH0 PUSH2 0x7ED DUP3 PUSH2 0x57C JUMP JUMPDEST SWAP2 POP PUSH2 0x7F8 DUP4 PUSH2 0x57C JUMP JUMPDEST SWAP3 POP DUP3 DUP3 ADD SWAP1 POP DUP1 DUP3 GT ISZERO PUSH2 0x810 JUMPI PUSH2 0x80F PUSH2 0x7B6 JUMP JUMPDEST JUMPDEST SWAP3 SWAP2 POP POP JUMP JUMPDEST PUSH2 0x81F DUP2 PUSH2 0x60C JUMP JUMPDEST DUP3 MSTORE POP POP JUMP JUMPDEST PUSH0 DUP3 DUP3 MSTORE PUSH1 0x20 DUP3 ADD SWAP1 POP SWAP3 SWAP2 POP POP JUMP JUMPDEST PUSH32 0x66756E6331000000000000000000000000000000000000000000000000000000 PUSH0 DUP3 ADD MSTORE POP JUMP JUMPDEST PUSH0 PUSH2 0x869 PUSH1 0x5 DUP4 PUSH2 0x825 JUMP JUMPDEST SWAP2 POP PUSH2 0x874 DUP3 PUSH2 0x835 JUMP JUMPDEST PUSH1 0x20 DUP3 ADD SWAP1 POP SWAP2 SWAP1 POP JUMP JUMPDEST PUSH0 PUSH1 0x60 DUP3 ADD SWAP1 POP PUSH2 0x892 PUSH0 DUP4 ADD DUP6 PUSH2 0x816 JUMP JUMPDEST DUP2 DUP2 SUB PUSH1 0x20 DUP4 ADD MSTORE PUSH2 0x8A3 DUP2 PUSH2 0x85D JUMP JUMPDEST SWAP1 POP PUSH2 0x8B2 PUSH1 0x40 DUP4 ADD DUP5 PUSH2 0x672 JUMP JUMPDEST SWAP4 SWAP3 POP POP POP JUMP JUMPDEST PUSH32 0x66756E6332000000000000000000000000000000000000000000000000000000 PUSH0 DUP3 ADD MSTORE POP JUMP JUMPDEST PUSH0 PUSH2 0x8ED PUSH1 0x5 DUP4 PUSH2 0x825 JUMP JUMPDEST SWAP2 POP PUSH2 0x8F8 DUP3 PUSH2 0x8B9 JUMP JUMPDEST PUSH1 0x20 DUP3 ADD SWAP1 POP SWAP2 SWAP1 POP JUMP JUMPDEST PUSH0 DUP2 SWAP1 POP SWAP2 SWAP1 POP JUMP JUMPDEST PUSH0 DUP2 SWAP1 POP SWAP2 SWAP1 POP JUMP JUMPDEST PUSH0 PUSH2 0x92F PUSH2 0x92A PUSH2 0x925 DUP5 PUSH2 0x903 JUMP JUMPDEST PUSH2 0x90C JUMP JUMPDEST PUSH2 0x57C JUMP JUMPDEST SWAP1 POP SWAP2 SWAP1 POP JUMP JUMPDEST PUSH2 0x93F DUP2 PUSH2 0x915 JUMP JUMPDEST DUP3 MSTORE POP POP JUMP JUMPDEST PUSH0 PUSH1 0x60 DUP3 ADD SWAP1 POP PUSH2 0x958 PUSH0 DUP4 ADD DUP6 PUSH2 0x816 JUMP JUMPDEST DUP2 DUP2 SUB PUSH1 0x20 DUP4 ADD MSTORE PUSH2 0x969 DUP2 PUSH2 0x8E1 JUMP JUMPDEST SWAP1 POP PUSH2 0x978 PUSH1 0x40 DUP4 ADD DUP5 PUSH2 0x936 JUMP JUMPDEST SWAP4 SWAP3 POP POP POP JUMP INVALID LOG2 PUSH5 0x6970667358 0x22 SLT KECCAK256 CODECOPY 0xA6 SWAP5 0x1E INVALID PUSH6 0x48291AFD4914 SWAP1 0xB0 SWAP5 0xDA 0xE6 RETURN JUMP DUP15 SWAP9 0xF7 0xAB SMOD 0x26 SWAP16 PUSH1 0x46 LT SELFBALANCE SWAP7 0xC5 PUSH5 0x736F6C6343 STOP ADDMOD OR STOP CALLER "
		},
		"gasEstimates": {
			"creation": {
				"codeDepositCost": "497000",
				"executionCost": "528",
				"totalCost": "497528"
			},
			"external": {
				"balanceOf(address)": "2845",
				"func1(uint256,uint256)": "infinite",
				"func2()": "infinite",
				"mint()": "infinite",
				"multiDelegatecall(bytes[])": "infinite"
			}
		},
		"methodIdentifiers": {
			"balanceOf(address)": "70a08231",
			"func1(uint256,uint256)": "3cb80085",
			"func2()": "b1ade4db",
			"mint()": "1249c58b",
			"multiDelegatecall(bytes[])": "10957d3c"
		}
	},
	"abi": [
		{
			"inputs": [],
			"name": "DelegateCallFailed",
			"type": "error"
		},
		{
			"anonymous": false,
			"inputs": [
				{
					"indexed": false,
					"internalType": "address",
					"name": "caller",
					"type": "address"
				},
				{
					"indexed": false,
					"internalType": "string",
					"name": "func",
					"type": "string"
				},
				{
					"indexed": false,
					"internalType": "uint256",
					"name": "i",
					"type": "uint256"
				}
			],
			"name": "Log",
			"type": "event"
		},
		{
			"inputs": [
				{
					"internalType": "address",
					"name": "",
					"type": "address"
				}
			],
			"name": "balanceOf",
			"outputs": [
				{
					"internalType": "uint256",
					"name": "",
					"type": "uint256"
				}
			],
			"stateMutability": "view",
			"type": "function"
		},
		{
			"inputs": [
				{
					"internalType": "uint256",
					"name": "x",
					"type": "uint256"
				},
				{
					"internalType": "uint256",
					"name": "y",
					"type": "uint256"
				}
			],
			"name": "func1",
			"outputs": [],
			"stateMutability": "nonpayable",
			"type": "function"
		},
		{
			"inputs": [],
			"name": "func2",
			"outputs": [
				{
					"internalType": "uint256",
					"name": "z",
					"type": "uint256"
				}
			],
			"stateMutability": "nonpayable",
			"type": "function"
		},
		{
			"inputs": [],
			"name": "mint",
			"outputs": [],
			"stateMutability": "payable",
			"type": "function"
		},
		{
			"inputs": [
				{
					"internalType": "bytes[]",
					"name": "data",
					"type": "bytes[]"
				}
			],
			"name": "multiDelegatecall",
			"outputs": [
				{
					"internalType": "bytes[]",
					"name": "results",
					"type": "bytes[]"
				}
			],
			"stateMutability": "payable",
			"type": "function"
		}
	]
}